{
  "contractName": "BitcrushStaking",
  "abi": [
    {
      "inputs": [
        {
          "internalType": "contract CRUSHToken",
          "name": "_crush",
          "type": "address"
        },
        {
          "internalType": "uint256",
          "name": "_crushPerBlock",
          "type": "uint256"
        },
        {
          "internalType": "address",
          "name": "_reserveAddress",
          "type": "address"
        }
      ],
      "stateMutability": "nonpayable",
      "type": "constructor"
    },
    {
      "anonymous": false,
      "inputs": [],
      "name": "CompoundAll",
      "type": "event"
    },
    {
      "anonymous": false,
      "inputs": [
        {
          "indexed": true,
          "internalType": "address",
          "name": "previousOwner",
          "type": "address"
        },
        {
          "indexed": true,
          "internalType": "address",
          "name": "newOwner",
          "type": "address"
        }
      ],
      "name": "OwnershipTransferred",
      "type": "event"
    },
    {
      "anonymous": false,
      "inputs": [
        {
          "indexed": false,
          "internalType": "uint256",
          "name": "_totalPool",
          "type": "uint256"
        }
      ],
      "name": "RewardPoolUpdated",
      "type": "event"
    },
    {
      "inputs": [],
      "name": "EarlyWithdrawFee",
      "outputs": [
        {
          "internalType": "uint256",
          "name": "",
          "type": "uint256"
        }
      ],
      "stateMutability": "view",
      "type": "function",
      "constant": true
    },
    {
      "inputs": [],
      "name": "PerformanceFeeBurn",
      "outputs": [
        {
          "internalType": "uint256",
          "name": "",
          "type": "uint256"
        }
      ],
      "stateMutability": "view",
      "type": "function",
      "constant": true
    },
    {
      "inputs": [],
      "name": "PerformanceFeeCompounder",
      "outputs": [
        {
          "internalType": "uint256",
          "name": "",
          "type": "uint256"
        }
      ],
      "stateMutability": "view",
      "type": "function",
      "constant": true
    },
    {
      "inputs": [],
      "name": "PerformanceFeeReserve",
      "outputs": [
        {
          "internalType": "uint256",
          "name": "",
          "type": "uint256"
        }
      ],
      "stateMutability": "view",
      "type": "function",
      "constant": true
    },
    {
      "inputs": [
        {
          "internalType": "uint256",
          "name": "",
          "type": "uint256"
        }
      ],
      "name": "addressIndexes",
      "outputs": [
        {
          "internalType": "address",
          "name": "",
          "type": "address"
        }
      ],
      "stateMutability": "view",
      "type": "function",
      "constant": true
    },
    {
      "inputs": [],
      "name": "crushPerBlock",
      "outputs": [
        {
          "internalType": "uint256",
          "name": "",
          "type": "uint256"
        }
      ],
      "stateMutability": "view",
      "type": "function",
      "constant": true
    },
    {
      "inputs": [],
      "name": "lastAutoCompoundBlock",
      "outputs": [
        {
          "internalType": "uint256",
          "name": "",
          "type": "uint256"
        }
      ],
      "stateMutability": "view",
      "type": "function",
      "constant": true
    },
    {
      "inputs": [],
      "name": "owner",
      "outputs": [
        {
          "internalType": "address",
          "name": "",
          "type": "address"
        }
      ],
      "stateMutability": "view",
      "type": "function",
      "constant": true
    },
    {
      "inputs": [],
      "name": "renounceOwnership",
      "outputs": [],
      "stateMutability": "nonpayable",
      "type": "function"
    },
    {
      "inputs": [],
      "name": "reserveAddress",
      "outputs": [
        {
          "internalType": "address",
          "name": "",
          "type": "address"
        }
      ],
      "stateMutability": "view",
      "type": "function",
      "constant": true
    },
    {
      "inputs": [],
      "name": "totalPool",
      "outputs": [
        {
          "internalType": "uint256",
          "name": "",
          "type": "uint256"
        }
      ],
      "stateMutability": "view",
      "type": "function",
      "constant": true
    },
    {
      "inputs": [
        {
          "internalType": "address",
          "name": "newOwner",
          "type": "address"
        }
      ],
      "name": "transferOwnership",
      "outputs": [],
      "stateMutability": "nonpayable",
      "type": "function"
    },
    {
      "inputs": [
        {
          "internalType": "uint256",
          "name": "_amount",
          "type": "uint256"
        }
      ],
      "name": "addRewardToPool",
      "outputs": [],
      "stateMutability": "nonpayable",
      "type": "function"
    },
    {
      "inputs": [
        {
          "internalType": "uint256",
          "name": "_amount",
          "type": "uint256"
        }
      ],
      "name": "setCrushPerBlock",
      "outputs": [],
      "stateMutability": "nonpayable",
      "type": "function"
    },
    {
      "inputs": [
        {
          "internalType": "uint256",
          "name": "_amount",
          "type": "uint256"
        }
      ],
      "name": "enterStaking",
      "outputs": [],
      "stateMutability": "nonpayable",
      "type": "function"
    },
    {
      "inputs": [
        {
          "internalType": "uint256",
          "name": "_amount",
          "type": "uint256"
        }
      ],
      "name": "leaveStaking",
      "outputs": [],
      "stateMutability": "nonpayable",
      "type": "function"
    },
    {
      "inputs": [],
      "name": "totalPendingRewards",
      "outputs": [
        {
          "internalType": "uint256",
          "name": "",
          "type": "uint256"
        }
      ],
      "stateMutability": "view",
      "type": "function",
      "constant": true
    },
    {
      "inputs": [
        {
          "internalType": "address",
          "name": "_address",
          "type": "address"
        }
      ],
      "name": "pendingReward",
      "outputs": [
        {
          "internalType": "uint256",
          "name": "",
          "type": "uint256"
        }
      ],
      "stateMutability": "view",
      "type": "function",
      "constant": true
    },
    {
      "inputs": [],
      "name": "claim",
      "outputs": [],
      "stateMutability": "nonpayable",
      "type": "function"
    },
    {
      "inputs": [],
      "name": "singleCompound",
      "outputs": [],
      "stateMutability": "nonpayable",
      "type": "function"
    },
    {
      "inputs": [],
      "name": "compoundAll",
      "outputs": [],
      "stateMutability": "nonpayable",
      "type": "function"
    }
  ],
  "bytecode": "0x608060405234801561001057600080fd5b5060405162002c4a38038062002c4a8339818101604052606081101561003557600080fd5b81019080805190602001909291908051906020019092919080519060200190929190505050600061006a6101a060201b60201c565b9050806000806101000a81548173ffffffffffffffffffffffffffffffffffffffff021916908373ffffffffffffffffffffffffffffffffffffffff1602179055508073ffffffffffffffffffffffffffffffffffffffff16600073ffffffffffffffffffffffffffffffffffffffff167f8be0079c531659141344cd1fd0a4f28419497f9722a3daafe3b4186f6b6457e060405160405180910390a35082600160006101000a81548173ffffffffffffffffffffffffffffffffffffffff021916908373ffffffffffffffffffffffffffffffffffffffff1602179055508160068190555080600760006101000a81548173ffffffffffffffffffffffffffffffffffffffff021916908373ffffffffffffffffffffffffffffffffffffffff160217905550436005819055505050506101a8565b600033905090565b612a9280620001b86000396000f3fe608060405234801561001057600080fd5b50600436106101375760003560e01c80638da5cb5b116100b8578063c61f1c0b1161007c578063c61f1c0b1461036a578063ec1371f214610388578063ecfb49a3146103a6578063f2fde38b146103c4578063f40f0f5214610408578063f79ed94b1461046057610137565b80638da5cb5b146102ac5780639b05ddb3146102f65780639d7fe12514610300578063a775573a1461031e578063b4cd94181461034c57610137565b80634e71d92d116100ff5780634e71d92d14610202578063555db7d61461020c5780635692f1381461022a5780635832d57114610234578063715018a6146102a257610137565b806301a4bb451461013c5780631058d2811461015a5780633a53ed491461018857806341441d3b146101b65780634bf211b8146101e4575b600080fd5b6101446104aa565b6040518082815260200191505060405180910390f35b6101866004803603602081101561017057600080fd5b81019080803590602001909291905050506104af565b005b6101b46004803603602081101561019e57600080fd5b8101908080359060200190929190505050610d23565b005b6101e2600480360360208110156101cc57600080fd5b810190808035906020019092919050505061107d565b005b6101ec6115a9565b6040518082815260200191505060405180910390f35b61020a6115af565b005b610214611881565b6040518082815260200191505060405180910390f35b610232611886565b005b6102606004803603602081101561024a57600080fd5b8101908080359060200190929190505050611981565b604051808273ffffffffffffffffffffffffffffffffffffffff1673ffffffffffffffffffffffffffffffffffffffff16815260200191505060405180910390f35b6102aa6119bd565b005b6102b4611b45565b604051808273ffffffffffffffffffffffffffffffffffffffff1673ffffffffffffffffffffffffffffffffffffffff16815260200191505060405180910390f35b6102fe611b6e565b005b610308612173565b6040518082815260200191505060405180910390f35b61034a6004803603602081101561033457600080fd5b8101908080359060200190929190505050612178565b005b6103546122a5565b6040518082815260200191505060405180910390f35b6103726122aa565b6040518082815260200191505060405180910390f35b6103906122b0565b6040518082815260200191505060405180910390f35b6103ae6122eb565b6040518082815260200191505060405180910390f35b610406600480360360208110156103da57600080fd5b81019080803573ffffffffffffffffffffffffffffffffffffffff1690602001909291905050506122f1565b005b61044a6004803603602081101561041e57600080fd5b81019080803573ffffffffffffffffffffffffffffffffffffffff1690602001909291905050506123c6565b6040518082815260200191505060405180910390f35b6104686123d8565b604051808273ffffffffffffffffffffffffffffffffffffffff1673ffffffffffffffffffffffffffffffffffffffff16815260200191505060405180910390f35b600181565b80600260003373ffffffffffffffffffffffffffffffffffffffff1673ffffffffffffffffffffffffffffffffffffffff16815260200190815260200160002060000154101561054a576040517f08c379a0000000000000000000000000000000000000000000000000000000008152600401808060200182810382526035815260200180612a286035913960400191505060405180910390fd5b6000610555336123fe565b905080600260003373ffffffffffffffffffffffffffffffffffffffff1673ffffffffffffffffffffffffffffffffffffffff1681526020019081526020016000206002016000828254019250508190555043600260003373ffffffffffffffffffffffffffffffffffffffff1673ffffffffffffffffffffffffffffffffffffffff168152602001908152602001600020600301819055506000809050610648600260003373ffffffffffffffffffffffffffffffffffffffff1673ffffffffffffffffffffffffffffffffffffffff16815260200190815260200160002060000154826124fb90919063ffffffff16565b905061069f600260003373ffffffffffffffffffffffffffffffffffffffff1673ffffffffffffffffffffffffffffffffffffffff16815260200190815260200160002060020154826124fb90919063ffffffff16565b90506106b68160045461258390919063ffffffff16565b600481905550600260003373ffffffffffffffffffffffffffffffffffffffff1673ffffffffffffffffffffffffffffffffffffffff16815260200190815260200160002060020154600260003373ffffffffffffffffffffffffffffffffffffffff1673ffffffffffffffffffffffffffffffffffffffff1681526020019081526020016000206001016000828254019250508190555062015180600260003373ffffffffffffffffffffffffffffffffffffffff1673ffffffffffffffffffffffffffffffffffffffff168152602001908152602001600020600401540143111561091b5760006107c76107b86103e860056125cd90919063ffffffff16565b8361261790919063ffffffff16565b90506107dc818361258390919063ffffffff16565b9150600160009054906101000a900473ffffffffffffffffffffffffffffffffffffffff1673ffffffffffffffffffffffffffffffffffffffff166323b872dd30600760009054906101000a900473ffffffffffffffffffffffffffffffffffffffff16846040518463ffffffff1660e01b8152600401808473ffffffffffffffffffffffffffffffffffffffff1673ffffffffffffffffffffffffffffffffffffffff1681526020018373ffffffffffffffffffffffffffffffffffffffff1673ffffffffffffffffffffffffffffffffffffffff1681526020018281526020019350505050602060405180830381600087803b1580156108dd57600080fd5b505af11580156108f1573d6000803e3d6000fd5b505050506040513d602081101561090757600080fd5b810190808051906020019092919050505050505b600160009054906101000a900473ffffffffffffffffffffffffffffffffffffffff1673ffffffffffffffffffffffffffffffffffffffff166323b872dd3033846040518463ffffffff1660e01b8152600401808473ffffffffffffffffffffffffffffffffffffffff1673ffffffffffffffffffffffffffffffffffffffff1681526020018373ffffffffffffffffffffffffffffffffffffffff1673ffffffffffffffffffffffffffffffffffffffff1681526020018281526020019350505050602060405180830381600087803b1580156109f857600080fd5b505af1158015610a0c573d6000803e3d6000fd5b505050506040513d6020811015610a2257600080fd5b810190808051906020019092919050505050610a8983600260003373ffffffffffffffffffffffffffffffffffffffff1673ffffffffffffffffffffffffffffffffffffffff1681526020019081526020016000206000015461258390919063ffffffff16565b600260003373ffffffffffffffffffffffffffffffffffffffff1673ffffffffffffffffffffffffffffffffffffffff168152602001908152602001600020600001819055506000600260003373ffffffffffffffffffffffffffffffffffffffff1673ffffffffffffffffffffffffffffffffffffffff168152602001908152602001600020600201819055506000600260003373ffffffffffffffffffffffffffffffffffffffff1673ffffffffffffffffffffffffffffffffffffffff168152602001908152602001600020600001541415610ce5576000600260003373ffffffffffffffffffffffffffffffffffffffff1673ffffffffffffffffffffffffffffffffffffffff1681526020019081526020016000209050600160038054905003816005015414610ca3576000600360016003805490500381548110610bcf57fe5b9060005260206000200160009054906101000a900473ffffffffffffffffffffffffffffffffffffffff169050806003836005015481548110610c0e57fe5b9060005260206000200160006101000a81548173ffffffffffffffffffffffffffffffffffffffff021916908373ffffffffffffffffffffffffffffffffffffffff1602179055508160050154600260008373ffffffffffffffffffffffffffffffffffffffff1673ffffffffffffffffffffffffffffffffffffffff16815260200190815260200160002060050181905550505b6003805480610cae57fe5b6001900381819060005260206000200160006101000a81549073ffffffffffffffffffffffffffffffffffffffff02191690559055505b7f1ef37ab665f7c977b577275d7a49e72cd18d1143eccd1112f1198e4a39d1428c6004546040518082815260200191505060405180910390a1505050565b610d2b61269d565b73ffffffffffffffffffffffffffffffffffffffff166000809054906101000a900473ffffffffffffffffffffffffffffffffffffffff1673ffffffffffffffffffffffffffffffffffffffff1614610dec576040517f08c379a00000000000000000000000000000000000000000000000000000000081526004018080602001828103825260208152602001807f4f776e61626c653a2063616c6c6572206973206e6f7420746865206f776e657281525060200191505060405180910390fd5b80600160009054906101000a900473ffffffffffffffffffffffffffffffffffffffff1673ffffffffffffffffffffffffffffffffffffffff166370a08231336040518263ffffffff1660e01b8152600401808273ffffffffffffffffffffffffffffffffffffffff1673ffffffffffffffffffffffffffffffffffffffff16815260200191505060206040518083038186803b158015610e8c57600080fd5b505afa158015610ea0573d6000803e3d6000fd5b505050506040513d6020811015610eb657600080fd5b810190808051906020019092919050505011610f1d576040517f08c379a0000000000000000000000000000000000000000000000000000000008152600401808060200182810382526026815260200180612a026026913960400191505060405180910390fd5b8060045401600481905550600160009054906101000a900473ffffffffffffffffffffffffffffffffffffffff1673ffffffffffffffffffffffffffffffffffffffff166323b872dd3330846040518463ffffffff1660e01b8152600401808473ffffffffffffffffffffffffffffffffffffffff1673ffffffffffffffffffffffffffffffffffffffff1681526020018373ffffffffffffffffffffffffffffffffffffffff1673ffffffffffffffffffffffffffffffffffffffff1681526020018281526020019350505050602060405180830381600087803b15801561100557600080fd5b505af1158015611019573d6000803e3d6000fd5b505050506040513d602081101561102f57600080fd5b8101908080519060200190929190505050507f1ef37ab665f7c977b577275d7a49e72cd18d1143eccd1112f1198e4a39d1428c6004546040518082815260200191505060405180910390a150565b80600160009054906101000a900473ffffffffffffffffffffffffffffffffffffffff1673ffffffffffffffffffffffffffffffffffffffff166370a08231336040518263ffffffff1660e01b8152600401808273ffffffffffffffffffffffffffffffffffffffff1673ffffffffffffffffffffffffffffffffffffffff16815260200191505060206040518083038186803b15801561111d57600080fd5b505afa158015611131573d6000803e3d6000fd5b505050506040513d602081101561114757600080fd5b8101908080519060200190929190505050116111ae576040517f08c379a0000000000000000000000000000000000000000000000000000000008152600401808060200182810382526026815260200180612a026026913960400191505060405180910390fd5b600060045411611226576040517f08c379a00000000000000000000000000000000000000000000000000000000081526004018080602001828103825260158152602001807f52657761726420506f6f6c20457868617573746564000000000000000000000081525060200191505060405180910390fd5b8060045401600481905550600160009054906101000a900473ffffffffffffffffffffffffffffffffffffffff1673ffffffffffffffffffffffffffffffffffffffff166323b872dd3330846040518463ffffffff1660e01b8152600401808473ffffffffffffffffffffffffffffffffffffffff1673ffffffffffffffffffffffffffffffffffffffff1681526020018373ffffffffffffffffffffffffffffffffffffffff1673ffffffffffffffffffffffffffffffffffffffff1681526020018281526020019350505050602060405180830381600087803b15801561130e57600080fd5b505af1158015611322573d6000803e3d6000fd5b505050506040513d602081101561133857600080fd5b8101908080519060200190929190505050506000600260003373ffffffffffffffffffffffffffffffffffffffff1673ffffffffffffffffffffffffffffffffffffffff1681526020019081526020016000206000015414156114d65743600260003373ffffffffffffffffffffffffffffffffffffffff1673ffffffffffffffffffffffffffffffffffffffff1681526020019081526020016000206003018190555043600260003373ffffffffffffffffffffffffffffffffffffffff1673ffffffffffffffffffffffffffffffffffffffff168152602001908152602001600020600401819055506003339080600181540180825580915050600190039060005260206000200160009091909190916101000a81548173ffffffffffffffffffffffffffffffffffffffff021916908373ffffffffffffffffffffffffffffffffffffffff160217905550600160038054905003600260003373ffffffffffffffffffffffffffffffffffffffff1673ffffffffffffffffffffffffffffffffffffffff168152602001908152602001600020600501819055505b80600260003373ffffffffffffffffffffffffffffffffffffffff1673ffffffffffffffffffffffffffffffffffffffff1681526020019081526020016000206000016000828254019250508190555043600260003373ffffffffffffffffffffffffffffffffffffffff1673ffffffffffffffffffffffffffffffffffffffff168152602001908152602001600020600401819055507f1ef37ab665f7c977b577275d7a49e72cd18d1143eccd1112f1198e4a39d1428c6004546040518082815260200191505060405180910390a150565b60055481565b6000600260003373ffffffffffffffffffffffffffffffffffffffff1673ffffffffffffffffffffffffffffffffffffffff168152602001908152602001600020600201541161164a576040517f08c379a00000000000000000000000000000000000000000000000000000000081526004018080602001828103825260288152602001806129da6028913960400191505060405180910390fd5b600260003373ffffffffffffffffffffffffffffffffffffffff1673ffffffffffffffffffffffffffffffffffffffff16815260200190815260200160002060020154600260003373ffffffffffffffffffffffffffffffffffffffff1673ffffffffffffffffffffffffffffffffffffffff16815260200190815260200160002060010160008282540192505081905550600160009054906101000a900473ffffffffffffffffffffffffffffffffffffffff1673ffffffffffffffffffffffffffffffffffffffff166323b872dd3033600260003373ffffffffffffffffffffffffffffffffffffffff1673ffffffffffffffffffffffffffffffffffffffff168152602001908152602001600020600201546040518463ffffffff1660e01b8152600401808473ffffffffffffffffffffffffffffffffffffffff1673ffffffffffffffffffffffffffffffffffffffff1681526020018373ffffffffffffffffffffffffffffffffffffffff1673ffffffffffffffffffffffffffffffffffffffff1681526020018281526020019350505050602060405180830381600087803b1580156117fb57600080fd5b505af115801561180f573d6000803e3d6000fd5b505050506040513d602081101561182557600080fd5b8101908080519060200190929190505050506000600260003373ffffffffffffffffffffffffffffffffffffffff1673ffffffffffffffffffffffffffffffffffffffff16815260200190815260200160002060020181905550565b601381565b6000611891336123fe565b905080600260003373ffffffffffffffffffffffffffffffffffffffff1673ffffffffffffffffffffffffffffffffffffffff1681526020019081526020016000206002016000828254019250508190555043600260003373ffffffffffffffffffffffffffffffffffffffff1673ffffffffffffffffffffffffffffffffffffffff1681526020019081526020016000206003018190555061193f8160045461258390919063ffffffff16565b6004819055507f1ef37ab665f7c977b577275d7a49e72cd18d1143eccd1112f1198e4a39d1428c6004546040518082815260200191505060405180910390a150565b6003818154811061198e57fe5b906000526020600020016000915054906101000a900473ffffffffffffffffffffffffffffffffffffffff1681565b6119c561269d565b73ffffffffffffffffffffffffffffffffffffffff166000809054906101000a900473ffffffffffffffffffffffffffffffffffffffff1673ffffffffffffffffffffffffffffffffffffffff1614611a86576040517f08c379a00000000000000000000000000000000000000000000000000000000081526004018080602001828103825260208152602001807f4f776e61626c653a2063616c6c6572206973206e6f7420746865206f776e657281525060200191505060405180910390fd5b600073ffffffffffffffffffffffffffffffffffffffff166000809054906101000a900473ffffffffffffffffffffffffffffffffffffffff1673ffffffffffffffffffffffffffffffffffffffff167f8be0079c531659141344cd1fd0a4f28419497f9722a3daafe3b4186f6b6457e060405160405180910390a360008060006101000a81548173ffffffffffffffffffffffffffffffffffffffff021916908373ffffffffffffffffffffffffffffffffffffffff160217905550565b60008060009054906101000a900473ffffffffffffffffffffffffffffffffffffffff16905090565b600080905060008090506000809050600080905060008090505b600380549050811015611e04576000611bd760038381548110611ba757fe5b9060005260206000200160009054906101000a900473ffffffffffffffffffffffffffffffffffffffff166123fe565b9050611bec81846124fb90919063ffffffff16565b92506000611c17611c08606460016125cd90919063ffffffff16565b8361261790919063ffffffff16565b9050611c2c81886124fb90919063ffffffff16565b9650611c41818361258390919063ffffffff16565b91506000611c6c611c5d606460016125cd90919063ffffffff16565b8461261790919063ffffffff16565b9050611c8181886124fb90919063ffffffff16565b9650611c96818461258390919063ffffffff16565b92506000611cc2611cb36103e860136125cd90919063ffffffff16565b8561261790919063ffffffff16565b9050611cd781886124fb90919063ffffffff16565b9650611cec818561258390919063ffffffff16565b9350836002600060038881548110611d0057fe5b9060005260206000200160009054906101000a900473ffffffffffffffffffffffffffffffffffffffff1673ffffffffffffffffffffffffffffffffffffffff1673ffffffffffffffffffffffffffffffffffffffff16815260200190815260200160002060020160008282540192505081905550436002600060038881548110611d8757fe5b9060005260206000200160009054906101000a900473ffffffffffffffffffffffffffffffffffffffff1673ffffffffffffffffffffffffffffffffffffffff1673ffffffffffffffffffffffffffffffffffffffff16815260200190815260200160002060030181905550505050508080600101915050611b88565b5043600581905550600160009054906101000a900473ffffffffffffffffffffffffffffffffffffffff1673ffffffffffffffffffffffffffffffffffffffff166342966c68856040518263ffffffff1660e01b815260040180828152602001915050600060405180830381600087803b158015611e8157600080fd5b505af1158015611e95573d6000803e3d6000fd5b50505050600160009054906101000a900473ffffffffffffffffffffffffffffffffffffffff1673ffffffffffffffffffffffffffffffffffffffff166323b872dd3033866040518463ffffffff1660e01b8152600401808473ffffffffffffffffffffffffffffffffffffffff1673ffffffffffffffffffffffffffffffffffffffff1681526020018373ffffffffffffffffffffffffffffffffffffffff1673ffffffffffffffffffffffffffffffffffffffff1681526020018281526020019350505050602060405180830381600087803b158015611f7657600080fd5b505af1158015611f8a573d6000803e3d6000fd5b505050506040513d6020811015611fa057600080fd5b810190808051906020019092919050505050600160009054906101000a900473ffffffffffffffffffffffffffffffffffffffff1673ffffffffffffffffffffffffffffffffffffffff166323b872dd30600760009054906101000a900473ffffffffffffffffffffffffffffffffffffffff16856040518463ffffffff1660e01b8152600401808473ffffffffffffffffffffffffffffffffffffffff1673ffffffffffffffffffffffffffffffffffffffff1681526020018373ffffffffffffffffffffffffffffffffffffffff1673ffffffffffffffffffffffffffffffffffffffff1681526020018281526020019350505050602060405180830381600087803b1580156120b157600080fd5b505af11580156120c5573d6000803e3d6000fd5b505050506040513d60208110156120db57600080fd5b8101908080519060200190929190505050506121028160045461258390919063ffffffff16565b6004819055507f698b3a0edc6b3c65b95358361ae6fc603b7bca78d8eb96dcc0b6bbeb937afb5960405160405180910390a17f1ef37ab665f7c977b577275d7a49e72cd18d1143eccd1112f1198e4a39d1428c6004546040518082815260200191505060405180910390a150505050565b600581565b61218061269d565b73ffffffffffffffffffffffffffffffffffffffff166000809054906101000a900473ffffffffffffffffffffffffffffffffffffffff1673ffffffffffffffffffffffffffffffffffffffff1614612241576040517f08c379a00000000000000000000000000000000000000000000000000000000081526004018080602001828103825260208152602001807f4f776e61626c653a2063616c6c6572206973206e6f7420746865206f776e657281525060200191505060405180910390fd5b600081101561229b576040517f08c379a00000000000000000000000000000000000000000000000000000000081526004018080602001828103825260238152602001806129b76023913960400191505060405180910390fd5b8060068190555050565b600181565b60065481565b6000806122c86005544361258390919063ffffffff16565b905060006122e16006548361261790919063ffffffff16565b9050809250505090565b60045481565b6122f961269d565b73ffffffffffffffffffffffffffffffffffffffff166000809054906101000a900473ffffffffffffffffffffffffffffffffffffffff1673ffffffffffffffffffffffffffffffffffffffff16146123ba576040517f08c379a00000000000000000000000000000000000000000000000000000000081526004018080602001828103825260208152602001807f4f776e61626c653a2063616c6c6572206973206e6f7420746865206f776e657281525060200191505060405180910390fd5b6123c3816126a5565b50565b60006123d1826123fe565b9050919050565b600760009054906101000a900473ffffffffffffffffffffffffffffffffffffffff1681565b6000600260008373ffffffffffffffffffffffffffffffffffffffff1673ffffffffffffffffffffffffffffffffffffffff16815260200190815260200160002060030154431161245257600090506124f6565b60006124a9600260008573ffffffffffffffffffffffffffffffffffffffff1673ffffffffffffffffffffffffffffffffffffffff168152602001908152602001600020600301544361258390919063ffffffff16565b905060006124c26006548361261790919063ffffffff16565b905060006124ed6124de600454846125cd90919063ffffffff16565b8361261790919063ffffffff16565b90508093505050505b919050565b600080828401905083811015612579576040517f08c379a000000000000000000000000000000000000000000000000000000000815260040180806020018281038252601b8152602001807f536166654d6174683a206164646974696f6e206f766572666c6f77000000000081525060200191505060405180910390fd5b8091505092915050565b60006125c583836040518060400160405280601e81526020017f536166654d6174683a207375627472616374696f6e206f766572666c6f7700008152506127e9565b905092915050565b600061260f83836040518060400160405280601a81526020017f536166654d6174683a206469766973696f6e206279207a65726f0000000000008152506128a9565b905092915050565b60008083141561262a5760009050612697565b600082840290508284828161263b57fe5b0414612692576040517f08c379a00000000000000000000000000000000000000000000000000000000081526004018080602001828103825260218152602001806129966021913960400191505060405180910390fd5b809150505b92915050565b600033905090565b600073ffffffffffffffffffffffffffffffffffffffff168173ffffffffffffffffffffffffffffffffffffffff16141561272b576040517f08c379a00000000000000000000000000000000000000000000000000000000081526004018080602001828103825260268152602001806129706026913960400191505060405180910390fd5b8073ffffffffffffffffffffffffffffffffffffffff166000809054906101000a900473ffffffffffffffffffffffffffffffffffffffff1673ffffffffffffffffffffffffffffffffffffffff167f8be0079c531659141344cd1fd0a4f28419497f9722a3daafe3b4186f6b6457e060405160405180910390a3806000806101000a81548173ffffffffffffffffffffffffffffffffffffffff021916908373ffffffffffffffffffffffffffffffffffffffff16021790555050565b6000838311158290612896576040517f08c379a00000000000000000000000000000000000000000000000000000000081526004018080602001828103825283818151815260200191508051906020019080838360005b8381101561285b578082015181840152602081019050612840565b50505050905090810190601f1680156128885780820380516001836020036101000a031916815260200191505b509250505060405180910390fd5b5060008385039050809150509392505050565b60008083118290612955576040517f08c379a00000000000000000000000000000000000000000000000000000000081526004018080602001828103825283818151815260200191508051906020019080838360005b8381101561291a5780820151818401526020810190506128ff565b50505050905090810190601f1680156129475780820380516001836020036101000a031916815260200191505b509250505060405180910390fd5b50600083858161296157fe5b04905080915050939250505056fe4f776e61626c653a206e6577206f776e657220697320746865207a65726f2061646472657373536166654d6174683a206d756c7469706c69636174696f6e206f766572666c6f7743727573682070657220426c6f636b2063616e206e6f74206265206e65676174697665436f6d706f756e64656420416d6f756e74206d7573742062652067726561746572207468616e2030496e73756666696369656e7420437275736820746f6b656e7320666f72207472616e73666572576974686472617720616d6f756e742063616e206e6f742062652067726561746572207468616e207374616b656420616d6f756e74a2646970667358221220b36d5fb98487330ba10022e0cb0f90ab163c104312c25e101e65187a46123f9a64736f6c63430006020033",
  "source": "//SPDX-License-Identifier: UNLICENSED\npragma solidity >=0.6.2;\n\nimport \"@pancakeswap/pancake-swap-lib/contracts/access/Ownable.sol\";\nimport \"./CrushCoin.sol\";\nimport \"@pancakeswap/pancake-swap-lib/contracts/math/SafeMath.sol\";\ncontract BitcrushStaking is Ownable {\n    using SafeMath for uint256;\n    \n    // Constants\n    uint256 constant public PerformanceFeeCompounder = 1;\n    uint256 constant public PerformanceFeeBurn       = 1;\n    uint256 constant public EarlyWithdrawFee         = 5;\n    uint256 constant public PerformanceFeeReserve    = 19;\n    \n    uint256 constant DivisorA = 100;\n    uint256 constant DivisorB = 1000;\n\n    uint256 constant EarlyWithdrawFeeTime = 72 * 60 * 60 / 3;\n    \n    CRUSHToken crush;\n\n    struct staked {\n        uint256 stakedAmount;\n        uint256 claimedAmount;\n        uint256 compoundedAmount;\n        uint256 lastBlockCompounded;\n        uint256 lastBlockStaked;\n        uint256 index;\n    }\n    mapping (address => staked) stakings;\n    address[] public addressIndexes;\n\n    uint256 public totalPool;\n    uint256 public lastAutoCompoundBlock;\n    uint256 public crushPerBlock;\n    address public reserveAddress;\n\n\n    event RewardPoolUpdated (uint256 _totalPool);\n    event CompoundAll ();\n\n    constructor (CRUSHToken _crush, uint256 _crushPerBlock, address _reserveAddress) public{\n        crush = _crush;\n        crushPerBlock = _crushPerBlock;\n        reserveAddress = _reserveAddress;\n        lastAutoCompoundBlock = block.number;\n    }\n\n    //Increases the CRUSH prize pool by receiving tokens\n    //Receive/Transfer the amount of CRUSH specified in _amount into itself from msg.sender\n    //Increase TotalPool\n    function addRewardToPool (uint256 _amount) public onlyOwner {\n        require(crush.balanceOf(msg.sender) > _amount, \"Insufficient Crush tokens for transfer\");\n        totalPool = totalPool + _amount;\n        crush.transferFrom(msg.sender, address(this), _amount);\n        emit RewardPoolUpdated(totalPool);\n    }\n\n    //Edits CrushPerBlock to be equal to _amount\n    function setCrushPerBlock (uint256 _amount) public onlyOwner {\n        require(_amount >= 0, \"Crush per Block can not be negative\" );\n        crushPerBlock = _amount;\n    }\n\n\n    //Stake CRUSH in Contract\n    //Transfer CRUSH from msg.sender to Contract \n    //Add user to Staked Mapping, if user exists, update Staked amount\n    function enterStaking (uint256 _amount) public  {\n        require(crush.balanceOf(msg.sender) > _amount, \"Insufficient Crush tokens for transfer\");\n        require(totalPool > 0, \"Reward Pool Exhausted\");\n        totalPool = totalPool + _amount;\n        crush.transferFrom(msg.sender, address(this), _amount);\n        if(stakings[msg.sender].stakedAmount == 0){\n            stakings[msg.sender].lastBlockCompounded = block.number;\n            stakings[msg.sender].lastBlockStaked = block.number;\n            addressIndexes.push(msg.sender);\n            stakings[msg.sender].index = addressIndexes.length-1;\n        }\n        stakings[msg.sender].stakedAmount += _amount;\n        stakings[msg.sender].lastBlockStaked = block.number;\n        emit RewardPoolUpdated(totalPool);\n    }\n\n    //Withdraw CRUSH from staking and claim rewards\n    //Decrease Staked Amount from Staked\n    //Transfer CRUSH from Contract to msg.sender, amount to be determined by \n    function leaveStaking (uint256 _amount) public  {\n        //check time\n        //impose penalty if time limit not met\n        //check amount is less than staked amount\n        //transfer reward and amount specified\n        require(stakings[msg.sender].stakedAmount >= _amount, \"Withdraw amount can not be greater than staked amount\");\n        uint256 reward = getReward(msg.sender);\n        stakings[msg.sender].compoundedAmount += reward;\n        stakings[msg.sender].lastBlockCompounded = block.number;\n        uint256 payout = 0;\n        payout = payout.add(stakings[msg.sender].stakedAmount);\n        payout = payout.add(stakings[msg.sender].compoundedAmount);\n        totalPool = totalPool.sub(payout);\n        stakings[msg.sender].claimedAmount += stakings[msg.sender].compoundedAmount;\n        if(block.number > stakings[msg.sender].lastBlockStaked + EarlyWithdrawFeeTime ){\n            //apply fee\n            uint256 withdrawalFee = payout.mul(EarlyWithdrawFee.div(DivisorB));\n            payout = payout.sub(withdrawalFee);\n            crush.transferFrom(address(this), reserveAddress, withdrawalFee);\n        }\n        crush.transferFrom(address(this), msg.sender, payout);\n        stakings[msg.sender].stakedAmount = stakings[msg.sender].stakedAmount.sub(_amount); \n        stakings[msg.sender].compoundedAmount = 0;\n\n        //remove from array\n        if(stakings[msg.sender].stakedAmount == 0){\n            staked storage staking = stakings[msg.sender];\n            if(staking.index != addressIndexes.length-1){\n                address lastAddress = addressIndexes[addressIndexes.length-1];\n                addressIndexes[staking.index] = lastAddress;\n                stakings[lastAddress].index = staking.index;\n            }\n            addressIndexes.pop();\n        }\n        emit RewardPoolUpdated(totalPool);\n    }\n\n\n    function getReward(address _address) internal view returns (uint256) {\n        if(block.number <=  stakings[_address].lastBlockCompounded){\n            return 0;\n        }else {\n            uint256 blocks = block.number.sub(stakings[_address].lastBlockCompounded);\n            uint256 totalReward = blocks.mul(crushPerBlock);\n            uint256 stakerReward = totalReward.mul(totalReward.div(totalPool));\n            return stakerReward;\n        }\n    }\n\n    function totalPendingRewards () public view returns (uint256){\n            uint256 blocks = block.number.sub(lastAutoCompoundBlock);\n            uint256 totalReward = blocks.mul(crushPerBlock);\n            return totalReward;\n    }\n\n    function pendingReward (address _address) public view returns (uint256){\n        return getReward(_address);\n    }\n\n    //Send Rewards only to msg.sender\n    function claim () public  {\n        require(stakings[msg.sender].compoundedAmount > 0, \"Compounded Amount must be greater than 0\");\n        stakings[msg.sender].claimedAmount += stakings[msg.sender].compoundedAmount;\n        crush.transferFrom(address(this), msg.sender, stakings[msg.sender].compoundedAmount);\n        stakings[msg.sender].compoundedAmount = 0;\n        \n    }\n\n    //Update staked values on a single User.\n    function singleCompound () public  {\n        uint256 reward = getReward(msg.sender);\n        stakings[msg.sender].compoundedAmount += reward;\n        stakings[msg.sender].lastBlockCompounded = block.number;\n        totalPool = totalPool.sub(reward);\n        emit RewardPoolUpdated(totalPool);\n    }\n\n    //Compound all of the rewards for all stakers\n    function compoundAll () public  {\n        uint256 crushToBurn = 0;\n        uint256 reward = 0;\n        uint256 performanceFee = 0;\n        uint256 totalReward = 0;\n        for(uint256 i=0; i < addressIndexes.length; i++){\n            uint256 stakerReward = getReward(addressIndexes[i]);\n            totalReward = totalReward.add(stakerReward);\n            uint256 stakerBurn = stakerReward.mul(PerformanceFeeBurn.div(DivisorA));\n            crushToBurn = crushToBurn.add(stakerBurn);\n            stakerReward = stakerReward.sub(stakerBurn);\n            uint256 cpAllReward = stakerReward.mul(PerformanceFeeCompounder.div(DivisorA));\n            reward = reward.add(cpAllReward);\n            stakerReward = stakerReward.sub(cpAllReward);\n            uint256 feeReserve = stakerReward.mul(PerformanceFeeReserve.div(DivisorB));\n            performanceFee = performanceFee.add(feeReserve);\n            stakerReward = stakerReward.sub(feeReserve);\n            stakings[addressIndexes[i]].compoundedAmount += stakerReward;\n            stakings[addressIndexes[i]].lastBlockCompounded = block.number;\n        }\n        lastAutoCompoundBlock = block.number;\n        crush.burn(crushToBurn);\n        crush.transferFrom(address(this), msg.sender, reward);\n        crush.transferFrom(address(this), reserveAddress, performanceFee);\n        totalPool = totalPool.sub(totalReward);\n        emit CompoundAll();\n        emit RewardPoolUpdated(totalPool);\n    }\n\n\n    \n}",
  "sourcePath": "/Users/umerali/Desktop/FRAG/bitcrush/new staking contract/contracts/staking.sol",
  "compiler": {
    "name": "solc",
    "version": "0.6.2+commit.bacdbe57.Emscripten.clang"
  },
  "schemaVersion": "3.4.1",
  "updatedAt": "2021-06-21T00:37:48.104Z",
  "networkType": "ethereum",
  "devdoc": {
    "methods": {
      "owner()": {
        "details": "Returns the address of the current owner."
      },
      "renounceOwnership()": {
        "details": "Leaves the contract without owner. It will not be possible to call `onlyOwner` functions anymore. Can only be called by the current owner.     * NOTE: Renouncing ownership will leave the contract without an owner, thereby removing any functionality that is only available to the owner."
      },
      "transferOwnership(address)": {
        "details": "Transfers ownership of the contract to a new account (`newOwner`). Can only be called by the current owner."
      }
    }
  },
  "userdoc": {
    "methods": {}
  }
}