{
  "contractName": "BitcrushStaking",
  "abi": [
    {
      "inputs": [
        {
          "internalType": "contract CRUSHToken",
          "name": "_crush",
          "type": "address"
        },
        {
          "internalType": "uint256",
          "name": "_crushPerBlock",
          "type": "uint256"
        },
        {
          "internalType": "address",
          "name": "_reserveAddress",
          "type": "address"
        }
      ],
      "stateMutability": "nonpayable",
      "type": "constructor"
    },
    {
      "anonymous": false,
      "inputs": [
        {
          "indexed": true,
          "internalType": "address",
          "name": "previousOwner",
          "type": "address"
        },
        {
          "indexed": true,
          "internalType": "address",
          "name": "newOwner",
          "type": "address"
        }
      ],
      "name": "OwnershipTransferred",
      "type": "event"
    },
    {
      "anonymous": false,
      "inputs": [
        {
          "indexed": true,
          "internalType": "uint256",
          "name": "_totalPool",
          "type": "uint256"
        }
      ],
      "name": "RewardPoolUpdated",
      "type": "event"
    },
    {
      "anonymous": false,
      "inputs": [
        {
          "indexed": true,
          "internalType": "address",
          "name": "recipeint",
          "type": "address"
        },
        {
          "indexed": true,
          "internalType": "uint256",
          "name": "_amount",
          "type": "uint256"
        }
      ],
      "name": "StakeUpdated",
      "type": "event"
    },
    {
      "inputs": [
        {
          "internalType": "uint256",
          "name": "",
          "type": "uint256"
        }
      ],
      "name": "addressIndexes",
      "outputs": [
        {
          "internalType": "address",
          "name": "",
          "type": "address"
        }
      ],
      "stateMutability": "view",
      "type": "function",
      "constant": true
    },
    {
      "inputs": [],
      "name": "autoCompoundLimit",
      "outputs": [
        {
          "internalType": "uint256",
          "name": "",
          "type": "uint256"
        }
      ],
      "stateMutability": "view",
      "type": "function",
      "constant": true
    },
    {
      "inputs": [],
      "name": "bankroll",
      "outputs": [
        {
          "internalType": "contract BitcrushBankroll",
          "name": "",
          "type": "address"
        }
      ],
      "stateMutability": "view",
      "type": "function",
      "constant": true
    },
    {
      "inputs": [],
      "name": "batchStartingIndex",
      "outputs": [
        {
          "internalType": "uint256",
          "name": "",
          "type": "uint256"
        }
      ],
      "stateMutability": "view",
      "type": "function",
      "constant": true
    },
    {
      "inputs": [],
      "name": "blockPerSecond",
      "outputs": [
        {
          "internalType": "uint256",
          "name": "",
          "type": "uint256"
        }
      ],
      "stateMutability": "view",
      "type": "function",
      "constant": true
    },
    {
      "inputs": [],
      "name": "crush",
      "outputs": [
        {
          "internalType": "contract CRUSHToken",
          "name": "",
          "type": "address"
        }
      ],
      "stateMutability": "view",
      "type": "function",
      "constant": true
    },
    {
      "inputs": [],
      "name": "crushPerBlock",
      "outputs": [
        {
          "internalType": "uint256",
          "name": "",
          "type": "uint256"
        }
      ],
      "stateMutability": "view",
      "type": "function",
      "constant": true
    },
    {
      "inputs": [],
      "name": "deploymentTimeStamp",
      "outputs": [
        {
          "internalType": "uint256",
          "name": "",
          "type": "uint256"
        }
      ],
      "stateMutability": "view",
      "type": "function",
      "constant": true
    },
    {
      "inputs": [],
      "name": "earlyWithdrawFee",
      "outputs": [
        {
          "internalType": "uint256",
          "name": "",
          "type": "uint256"
        }
      ],
      "stateMutability": "view",
      "type": "function",
      "constant": true
    },
    {
      "inputs": [],
      "name": "earlyWithdrawFeeTime",
      "outputs": [
        {
          "internalType": "uint256",
          "name": "",
          "type": "uint256"
        }
      ],
      "stateMutability": "view",
      "type": "function",
      "constant": true
    },
    {
      "inputs": [],
      "name": "lastAutoCompoundBlock",
      "outputs": [
        {
          "internalType": "uint256",
          "name": "",
          "type": "uint256"
        }
      ],
      "stateMutability": "view",
      "type": "function",
      "constant": true
    },
    {
      "inputs": [],
      "name": "liveWallet",
      "outputs": [
        {
          "internalType": "contract BitcrushLiveWallet",
          "name": "",
          "type": "address"
        }
      ],
      "stateMutability": "view",
      "type": "function",
      "constant": true
    },
    {
      "inputs": [],
      "name": "owner",
      "outputs": [
        {
          "internalType": "address",
          "name": "",
          "type": "address"
        }
      ],
      "stateMutability": "view",
      "type": "function",
      "constant": true
    },
    {
      "inputs": [],
      "name": "performanceFeeBurn",
      "outputs": [
        {
          "internalType": "uint256",
          "name": "",
          "type": "uint256"
        }
      ],
      "stateMutability": "view",
      "type": "function",
      "constant": true
    },
    {
      "inputs": [],
      "name": "performanceFeeCompounder",
      "outputs": [
        {
          "internalType": "uint256",
          "name": "",
          "type": "uint256"
        }
      ],
      "stateMutability": "view",
      "type": "function",
      "constant": true
    },
    {
      "inputs": [],
      "name": "performanceFeeReserve",
      "outputs": [
        {
          "internalType": "uint256",
          "name": "",
          "type": "uint256"
        }
      ],
      "stateMutability": "view",
      "type": "function",
      "constant": true
    },
    {
      "inputs": [],
      "name": "profitShare",
      "outputs": [
        {
          "internalType": "uint256",
          "name": "",
          "type": "uint256"
        }
      ],
      "stateMutability": "view",
      "type": "function",
      "constant": true
    },
    {
      "inputs": [
        {
          "internalType": "uint256",
          "name": "",
          "type": "uint256"
        }
      ],
      "name": "profits",
      "outputs": [
        {
          "internalType": "uint256",
          "name": "total",
          "type": "uint256"
        },
        {
          "internalType": "uint256",
          "name": "remaining",
          "type": "uint256"
        }
      ],
      "stateMutability": "view",
      "type": "function",
      "constant": true
    },
    {
      "inputs": [],
      "name": "renounceOwnership",
      "outputs": [],
      "stateMutability": "nonpayable",
      "type": "function"
    },
    {
      "inputs": [],
      "name": "reserveAddress",
      "outputs": [
        {
          "internalType": "address",
          "name": "",
          "type": "address"
        }
      ],
      "stateMutability": "view",
      "type": "function",
      "constant": true
    },
    {
      "inputs": [
        {
          "internalType": "address",
          "name": "",
          "type": "address"
        }
      ],
      "name": "stakings",
      "outputs": [
        {
          "internalType": "uint256",
          "name": "stakedAmount",
          "type": "uint256"
        },
        {
          "internalType": "uint256",
          "name": "claimedAmount",
          "type": "uint256"
        },
        {
          "internalType": "uint256",
          "name": "profit",
          "type": "uint256"
        },
        {
          "internalType": "uint256",
          "name": "lastBlockCompounded",
          "type": "uint256"
        },
        {
          "internalType": "uint256",
          "name": "lastBlockStaked",
          "type": "uint256"
        },
        {
          "internalType": "uint256",
          "name": "index",
          "type": "uint256"
        }
      ],
      "stateMutability": "view",
      "type": "function",
      "constant": true
    },
    {
      "inputs": [],
      "name": "totalClaimed",
      "outputs": [
        {
          "internalType": "uint256",
          "name": "",
          "type": "uint256"
        }
      ],
      "stateMutability": "view",
      "type": "function",
      "constant": true
    },
    {
      "inputs": [],
      "name": "totalFrozen",
      "outputs": [
        {
          "internalType": "uint256",
          "name": "",
          "type": "uint256"
        }
      ],
      "stateMutability": "view",
      "type": "function",
      "constant": true
    },
    {
      "inputs": [],
      "name": "totalPool",
      "outputs": [
        {
          "internalType": "uint256",
          "name": "",
          "type": "uint256"
        }
      ],
      "stateMutability": "view",
      "type": "function",
      "constant": true
    },
    {
      "inputs": [],
      "name": "totalProfitDistributed",
      "outputs": [
        {
          "internalType": "uint256",
          "name": "",
          "type": "uint256"
        }
      ],
      "stateMutability": "view",
      "type": "function",
      "constant": true
    },
    {
      "inputs": [],
      "name": "totalStaked",
      "outputs": [
        {
          "internalType": "uint256",
          "name": "",
          "type": "uint256"
        }
      ],
      "stateMutability": "view",
      "type": "function",
      "constant": true
    },
    {
      "inputs": [
        {
          "internalType": "address",
          "name": "newOwner",
          "type": "address"
        }
      ],
      "name": "transferOwnership",
      "outputs": [],
      "stateMutability": "nonpayable",
      "type": "function"
    },
    {
      "inputs": [
        {
          "internalType": "contract BitcrushBankroll",
          "name": "_bankroll",
          "type": "address"
        }
      ],
      "name": "setBankroll",
      "outputs": [],
      "stateMutability": "nonpayable",
      "type": "function"
    },
    {
      "inputs": [
        {
          "internalType": "contract BitcrushLiveWallet",
          "name": "_liveWallet",
          "type": "address"
        }
      ],
      "name": "setLiveWallet",
      "outputs": [],
      "stateMutability": "nonpayable",
      "type": "function"
    },
    {
      "inputs": [
        {
          "internalType": "uint256",
          "name": "_amount",
          "type": "uint256"
        }
      ],
      "name": "addRewardToPool",
      "outputs": [],
      "stateMutability": "nonpayable",
      "type": "function"
    },
    {
      "inputs": [
        {
          "internalType": "uint256",
          "name": "_amount",
          "type": "uint256"
        }
      ],
      "name": "setCrushPerBlock",
      "outputs": [],
      "stateMutability": "nonpayable",
      "type": "function"
    },
    {
      "inputs": [
        {
          "internalType": "uint256",
          "name": "_amount",
          "type": "uint256"
        }
      ],
      "name": "enterStaking",
      "outputs": [],
      "stateMutability": "nonpayable",
      "type": "function"
    },
    {
      "inputs": [
        {
          "internalType": "uint256",
          "name": "_amount",
          "type": "uint256"
        },
        {
          "internalType": "bool",
          "name": "_liveWallet",
          "type": "bool"
        }
      ],
      "name": "leaveStaking",
      "outputs": [],
      "stateMutability": "nonpayable",
      "type": "function"
    },
    {
      "inputs": [],
      "name": "totalPendingRewards",
      "outputs": [
        {
          "internalType": "uint256",
          "name": "",
          "type": "uint256"
        }
      ],
      "stateMutability": "view",
      "type": "function",
      "constant": true
    },
    {
      "inputs": [
        {
          "internalType": "address",
          "name": "_address",
          "type": "address"
        }
      ],
      "name": "pendingReward",
      "outputs": [
        {
          "internalType": "uint256",
          "name": "",
          "type": "uint256"
        }
      ],
      "stateMutability": "view",
      "type": "function",
      "constant": true
    },
    {
      "inputs": [
        {
          "internalType": "bool",
          "name": "_liveWallet",
          "type": "bool"
        }
      ],
      "name": "claim",
      "outputs": [],
      "stateMutability": "nonpayable",
      "type": "function"
    },
    {
      "inputs": [],
      "name": "singleCompound",
      "outputs": [],
      "stateMutability": "nonpayable",
      "type": "function"
    },
    {
      "inputs": [],
      "name": "compoundAll",
      "outputs": [],
      "stateMutability": "nonpayable",
      "type": "function"
    },
    {
      "inputs": [
        {
          "internalType": "uint256",
          "name": "_amount",
          "type": "uint256"
        },
        {
          "internalType": "address",
          "name": "_recipient",
          "type": "address"
        }
      ],
      "name": "freezeStaking",
      "outputs": [],
      "stateMutability": "nonpayable",
      "type": "function"
    },
    {
      "inputs": [
        {
          "internalType": "uint256",
          "name": "_amount",
          "type": "uint256"
        }
      ],
      "name": "unfreezeStaking",
      "outputs": [],
      "stateMutability": "nonpayable",
      "type": "function"
    },
    {
      "inputs": [],
      "name": "emergencyWithdraw",
      "outputs": [],
      "stateMutability": "nonpayable",
      "type": "function"
    },
    {
      "inputs": [],
      "name": "emergencyTotalPoolWithdraw",
      "outputs": [],
      "stateMutability": "nonpayable",
      "type": "function"
    },
    {
      "inputs": [],
      "name": "indexesLength",
      "outputs": [
        {
          "internalType": "uint256",
          "name": "_addressesLength",
          "type": "uint256"
        }
      ],
      "stateMutability": "view",
      "type": "function",
      "constant": true
    },
    {
      "inputs": [
        {
          "internalType": "uint256",
          "name": "_fee",
          "type": "uint256"
        }
      ],
      "name": "setPerformanceFeeCompounder",
      "outputs": [],
      "stateMutability": "nonpayable",
      "type": "function"
    },
    {
      "inputs": [
        {
          "internalType": "uint256",
          "name": "_fee",
          "type": "uint256"
        }
      ],
      "name": "setPerformanceFeeBurn",
      "outputs": [],
      "stateMutability": "nonpayable",
      "type": "function"
    },
    {
      "inputs": [
        {
          "internalType": "uint256",
          "name": "_fee",
          "type": "uint256"
        }
      ],
      "name": "setEarlyWithdrawFee",
      "outputs": [],
      "stateMutability": "nonpayable",
      "type": "function"
    },
    {
      "inputs": [
        {
          "internalType": "uint256",
          "name": "_fee",
          "type": "uint256"
        }
      ],
      "name": "setPerformanceFeeReserve",
      "outputs": [],
      "stateMutability": "nonpayable",
      "type": "function"
    },
    {
      "inputs": [
        {
          "internalType": "uint256",
          "name": "_time",
          "type": "uint256"
        }
      ],
      "name": "setEarlyWithdrawFeeTime",
      "outputs": [],
      "stateMutability": "nonpayable",
      "type": "function"
    },
    {
      "inputs": [
        {
          "internalType": "uint256",
          "name": "_limit",
          "type": "uint256"
        }
      ],
      "name": "setAutoCompoundLimit",
      "outputs": [],
      "stateMutability": "nonpayable",
      "type": "function"
    },
    {
      "inputs": [
        {
          "internalType": "uint256",
          "name": "_profitShare",
          "type": "uint256"
        }
      ],
      "name": "setProfitShare",
      "outputs": [],
      "stateMutability": "nonpayable",
      "type": "function"
    }
  ],
  "bytecode": "0x6080604052600a6001556064600255603260035560be600455600a60055560036006556006546203f480816200003157fe5b046007556000601055600560115560006015556000601655600a6017553480156200005b57600080fd5b506040516200359438038062003594833981810160405260608110156200008157600080fd5b50805160208201516040909201519091906000620000a76001600160e01b036200013216565b600080546001600160a01b0319166001600160a01b0383169081178255604051929350917f8be0079c531659141344cd1fd0a4f28419497f9722a3daafe3b4186f6b6457e0908290a350600880546001600160a01b039485166001600160a01b031991821617909155601192909255601280549190931691161790556000600f554260185562000136565b3390565b61344e80620001466000396000f3fe608060405234801561001057600080fd5b50600436106103365760003560e01c806376e9e6c0116101b2578063c61f1c0b116100f9578063e3aeeb46116100a2578063ecfb49a31161007c578063ecfb49a3146106ea578063f2fde38b146106f2578063f40f0f5214610718578063f79ed94b1461073e57610336565b8063e3aeeb46146106d2578063ec1371f2146106da578063ecb1c924146106e257610336565b8063db2e21bc116100d3578063db2e21bc14610654578063dc6e13e11461065c578063e39faaa4146106b557610336565b8063c61f1c0b1461063c578063d180fd8814610644578063d54ad2a11461064c57610336565b8063a80a78821161015b578063bde8a93e11610135578063bde8a93e146105dc578063c22982f414610602578063c53f871f1461061f57610336565b8063a80a7882146105c4578063b359a9f9146105cc578063bca5503d146105d457610336565b80639b05ddb31161018c5780639b05ddb3146105795780639e13900c14610581578063a775573a146105a757610336565b806376e9e6c01461054c578063817b1cd2146105695780638da5cb5b1461057157610336565b8063445e7688116102815780635832d5711161022a5780636903d0b6116102045780636903d0b6146105175780636e74d2e21461051f5780636f90e04614610527578063715018a61461054457610336565b80635832d571146104d55780636535fc66146104f2578063668579c91461050f57610336565b80634bf211b81161025b5780634bf211b8146104a8578063563b6b71146104b05780635692f138146104cd57610336565b8063445e76881461044f57806349fb5e47146104745780634b37f006146104a057610336565b80632d81a78e116102e35780633a53ed49116102bd5780633a53ed491461040d5780633e1f55e41461042a57806341441d3b1461043257610336565b80632d81a78e146103b05780632e5f6d4c146103cf57806338ed019a1461040557610336565b80632533830a116103145780632533830a1461038157806326cba33614610389578063289bac07146103a857610336565b80630a3960bc1461033b5780630c657eb0146103555780631e7f87bc14610379575b600080fd5b610343610746565b60408051918252519081900360200190f35b61035d61074c565b604080516001600160a01b039092168252519081900360200190f35b61034361075b565b610343610761565b6103a66004803603602081101561039f57600080fd5b5035610767565b005b610343610881565b6103a6600480360360208110156103c657600080fd5b50351515610887565b6103ec600480360360208110156103e557600080fd5b5035610aa6565b6040805192835260208301919091528051918290030190f35b610343610ad1565b6103a66004803603602081101561042357600080fd5b5035610ad7565b610343610c87565b6103a66004803603602081101561044857600080fd5b5035610c8d565b6103a66004803603604081101561046557600080fd5b5080359060200135151561102f565b6103a66004803603604081101561048a57600080fd5b50803590602001356001600160a01b03166115c6565b61034361173e565b610343611744565b6103a6600480360360208110156104c657600080fd5b503561174a565b6103a661180e565b61035d600480360360208110156104eb57600080fd5b503561194a565b6103a66004803603602081101561050857600080fd5b5035611971565b610343611a8c565b610343611a92565b610343611a98565b6103a66004803603602081101561053d57600080fd5b5035611a9e565b6103a6611b62565b6103a66004803603602081101561056257600080fd5b5035611c23565b610343611ce7565b61035d611ced565b6103a6611cfd565b6103a66004803603602081101561059757600080fd5b50356001600160a01b0316612559565b6103a6600480360360208110156105bd57600080fd5b5035612588565b610343612637565b61035d61263d565b61034361264c565b6103a6600480360360208110156105f257600080fd5b50356001600160a01b0316612652565b6103a66004803603602081101561061857600080fd5b5035612681565b6103a66004803603602081101561063557600080fd5b503561279b565b6103436128b5565b6103a66128bb565b610343612abd565b6103a6612ac3565b6106826004803603602081101561067257600080fd5b50356001600160a01b0316612d1d565b604080519687526020870195909552858501939093526060850191909152608084015260a0830152519081900360c00190f35b6103a6600480360360208110156106cb57600080fd5b5035612d52565b61035d612dac565b610343612dbb565b610343612e23565b610343612e29565b6103a66004803603602081101561070857600080fd5b50356001600160a01b0316612e2f565b6103436004803603602081101561072e57600080fd5b50356001600160a01b0316612ea2565b61035d612eb5565b60045481565b6009546001600160a01b031681565b60155481565b60165481565b61076f612ec4565b6000546001600160a01b039081169116146107d1576040805162461bcd60e51b815260206004820181905260248201527f4f776e61626c653a2063616c6c6572206973206e6f7420746865206f776e6572604482015290519081900360640190fd5b60008111610826576040805162461bcd60e51b815260206004820152601a60248201527f466565206d7573742062652067726561746572207468616e2030000000000000604482015290519081900360640190fd5b6103e8811061087c576040805162461bcd60e51b815260206004820152601960248201527f466565206d757374206265206c657373207468616e2031302500000000000000604482015290519081900360640190fd5b600155565b600c5490565b600061089233612ec8565b336000908152600b60205260409020600101549091506108b8908263ffffffff612fa516565b336000908152600b602052604090206001015581610956576008546040805163a9059cbb60e01b81523360048201526024810184905290516001600160a01b039092169163a9059cbb916044808201926020929091908290030181600087803b15801561092457600080fd5b505af1158015610938573d6000803e3d6000fd5b505050506040513d602081101561094e57600080fd5b50610a609050565b600854600a546040805163095ea7b360e01b81526001600160a01b039283166004820152602481018590529051919092169163095ea7b39160448083019260209291908290030181600087803b1580156109af57600080fd5b505af11580156109c3573d6000803e3d6000fd5b505050506040513d60208110156109d957600080fd5b5050600a54604080517f7efd38130000000000000000000000000000000000000000000000000000000081526004810184905233602482015290516001600160a01b0390921691637efd38139160448082019260009290919082900301818387803b158015610a4757600080fd5b505af1158015610a5b573d6000803e3d6000fd5b505050505b336000908152600b6020526040902043600390910155601454610a89908263ffffffff612fa516565b601455600e54610a9f908263ffffffff61300816565b600e555050565b600d8181548110610ab357fe5b60009182526020909120600290910201805460019091015490915082565b60105481565b600854604080517f70a08231000000000000000000000000000000000000000000000000000000008152336004820152905183926001600160a01b0316916370a08231916024808301926020929190829003018186803b158015610b3a57600080fd5b505afa158015610b4e573d6000803e3d6000fd5b505050506040513d6020811015610b6457600080fd5b50511015610ba35760405162461bcd60e51b81526004018080602001828103825260268152602001806133b66026913960400191505060405180910390fd5b600e54610bb6908263ffffffff612fa516565b600e55600854604080517f23b872dd0000000000000000000000000000000000000000000000000000000081523360048201523060248201526044810184905290516001600160a01b03909216916323b872dd916064808201926020929091908290030181600087803b158015610c2c57600080fd5b505af1158015610c40573d6000803e3d6000fd5b505050506040513d6020811015610c5657600080fd5b5050600e546040517f1ef37ab665f7c977b577275d7a49e72cd18d1143eccd1112f1198e4a39d1428c90600090a250565b60055481565b600854604080517f70a08231000000000000000000000000000000000000000000000000000000008152336004820152905183926001600160a01b0316916370a08231916024808301926020929190829003018186803b158015610cf057600080fd5b505afa158015610d04573d6000803e3d6000fd5b505050506040513d6020811015610d1a57600080fd5b50511015610d595760405162461bcd60e51b81526004018080602001828103825260268152602001806133b66026913960400191505060405180910390fd5b60008111610dae576040805162461bcd60e51b815260206004820152601660248201527f496e76616c6964207374616b696e6720616d6f756e7400000000000000000000604482015290519081900360640190fd5b6000600e5411610e05576040805162461bcd60e51b815260206004820152601560248201527f52657761726420506f6f6c204578686175737465640000000000000000000000604482015290519081900360640190fd5b600854604080517f23b872dd0000000000000000000000000000000000000000000000000000000081523360048201523060248201526044810184905290516001600160a01b03909216916323b872dd916064808201926020929091908290030181600087803b158015610e7857600080fd5b505af1158015610e8c573d6000803e3d6000fd5b505050506040513d6020811015610ea257600080fd5b5050601354610eb05743600f555b336000908152600b6020526040902054610f3157336000818152600b60205260409020436003820155600c80546001810182557fdf6966c971051c3d54ec59162606531493a51404a002842f56009d7e5cf4a8c701805473ffffffffffffffffffffffffffffffffffffffff19169093179092559054600019016005909101555b336000908152600b6020526040902054610f51908263ffffffff612fa516565b336000908152600b6020526040902090815543600490910155601354610f7d908263ffffffff612fa516565b6013556008546001600160a01b031663a9059cbb33610f9b81612ec8565b6040518363ffffffff1660e01b815260040180836001600160a01b03166001600160a01b0316815260200182815260200192505050602060405180830381600087803b158015610fea57600080fd5b505af1158015610ffe573d6000803e3d6000fd5b505050506040513d602081101561101457600080fd5b5050336000908152600b602052604090204360039091015550565b600061103a33612ec8565b336000908152600b6020526040902043600390910155600e54909150611066908263ffffffff61300816565b600e55601554600090156110d257601354336000908152600b60205260409020546015546110cb926110af9290916110a39163ffffffff61304a16565b9063ffffffff6130a316565b336000908152600b60205260409020549063ffffffff61300816565b90506110e4565b50336000908152600b60205260409020545b838110156111235760405162461bcd60e51b815260040180806020018281038252603f8152602001806132e5603f913960400191505060405180910390fd5b601354611136908563ffffffff61300816565b601355336000908152600b6020526040902054611159908563ffffffff61300816565b336000908152600b602052604090209081556007546004909101546111839163ffffffff612fa516565b4310156112425760006111a76127106110a36003548861304a90919063ffffffff16565b90506111b9858263ffffffff61300816565b6008546012546040805163a9059cbb60e01b81526001600160a01b03928316600482015260248101869052905193985091169163a9059cbb916044808201926020929091908290030181600087803b15801561121457600080fd5b505af1158015611228573d6000803e3d6000fd5b505050506040513d602081101561123e57600080fd5b5050505b611252848363ffffffff612fa516565b9350826112df576008546040805163a9059cbb60e01b81523360048201526024810187905290516001600160a01b039092169163a9059cbb916044808201926020929091908290030181600087803b1580156112ad57600080fd5b505af11580156112c1573d6000803e3d6000fd5b505050506040513d60208110156112d757600080fd5b506113e99050565b600854600a546040805163095ea7b360e01b81526001600160a01b039283166004820152602481018890529051919092169163095ea7b39160448083019260209291908290030181600087803b15801561133857600080fd5b505af115801561134c573d6000803e3d6000fd5b505050506040513d602081101561136257600080fd5b5050600a54604080517f7efd38130000000000000000000000000000000000000000000000000000000081526004810187905233602482015290516001600160a01b0390921691637efd38139160448082019260009290919082900301818387803b1580156113d057600080fd5b505af11580156113e4573d6000803e3d6000fd5b505050505b336000908152600b602052604090205461159457336000908152600b60205260409020600c5460058201546000199091011461152657600c805460009190600019810190811061143557fe5b9060005260206000200160009054906101000a90046001600160a01b0316905080600c83600501548154811061146757fe5b6000918252602080832091909101805473ffffffffffffffffffffffffffffffffffffffff19166001600160a01b039485161790556005858101548585168452600b8352604080852090920155600854815163095ea7b360e01b815230600482015260248101859052915194169363095ea7b393604480840194938390030190829087803b1580156114f857600080fd5b505af115801561150c573d6000803e3d6000fd5b505050506040513d602081101561152257600080fd5b5050505b600c80548061153157fe5b600082815260208082208301600019908101805473ffffffffffffffffffffffffffffffffffffffff19169055909201909255338252600b9052604081208181556001810182905560028101829055600381018290556004810182905560050155505b600e546040517f1ef37ab665f7c977b577275d7a49e72cd18d1143eccd1112f1198e4a39d1428c90600090a250505050565b6015546013546115db9163ffffffff61300816565b8211156116195760405162461bcd60e51b815260040180806020018281038252603d8152602001806133dc603d913960400191505060405180910390fd5b60155461162c908363ffffffff612fa516565b601555600a54604080517ff62cf8d0000000000000000000000000000000000000000000000000000000008152600481018590526001600160a01b0384811660248301529151919092169163f62cf8d091604480830192600092919082900301818387803b15801561169d57600080fd5b505af11580156116b1573d6000803e3d6000fd5b5050600854600a546040805163a9059cbb60e01b81526001600160a01b03928316600482015260248101889052905191909216935063a9059cbb925060448083019260209291908290030181600087803b15801561170e57600080fd5b505af1158015611722573d6000803e3d6000fd5b505050506040513d602081101561173857600080fd5b50505050565b60065481565b600f5481565b611752612ec4565b6000546001600160a01b039081169116146117b4576040805162461bcd60e51b815260206004820181905260248201527f4f776e61626c653a2063616c6c6572206973206e6f7420746865206f776e6572604482015290519081900360640190fd5b60008111611809576040805162461bcd60e51b815260206004820152601960248201527f50726f6669742073686172652063616e206e6f74206265203000000000000000604482015290519081900360640190fd5b600555565b336000908152600b602052604090205461186f576040805162461bcd60e51b815260206004820152601e60248201527f506c65617365205374616b6520437275736820746f20636f6d706f756e640000604482015290519081900360640190fd5b600061187a33612ec8565b336000908152600b602052604090205490915061189d908263ffffffff612fa516565b336000908152600b60205260409020556013546118c0908263ffffffff612fa516565b601355336000908152600b6020526040902043600390910155600e546118ec908263ffffffff61300816565b600e8190556040517f1ef37ab665f7c977b577275d7a49e72cd18d1143eccd1112f1198e4a39d1428c90600090a2604051819033907fab0e25dc39626189cfb41155020ba89e726b10244275733e9d7c63cf33ffccdb90600090a350565b600c818154811061195757fe5b6000918252602090912001546001600160a01b0316905081565b611979612ec4565b6000546001600160a01b039081169116146119db576040805162461bcd60e51b815260206004820181905260248201527f4f776e61626c653a2063616c6c6572206973206e6f7420746865206f776e6572604482015290519081900360640190fd5b60008111611a30576040805162461bcd60e51b815260206004820152601a60248201527f466565206d7573742062652067726561746572207468616e2030000000000000604482015290519081900360640190fd5b6103e8811115611a87576040805162461bcd60e51b815260206004820152601960248201527f466565206d757374206265206c657373207468616e2031302500000000000000604482015290519081900360640190fd5b600455565b60185481565b60075481565b60025481565b611aa6612ec4565b6000546001600160a01b03908116911614611b08576040805162461bcd60e51b815260206004820181905260248201527f4f776e61626c653a2063616c6c6572206973206e6f7420746865206f776e6572604482015290519081900360640190fd5b60008111611b5d576040805162461bcd60e51b815260206004820152601b60248201527f54696d65206d7573742062652067726561746572207468616e20300000000000604482015290519081900360640190fd5b600755565b611b6a612ec4565b6000546001600160a01b03908116911614611bcc576040805162461bcd60e51b815260206004820181905260248201527f4f776e61626c653a2063616c6c6572206973206e6f7420746865206f776e6572604482015290519081900360640190fd5b600080546040516001600160a01b03909116907f8be0079c531659141344cd1fd0a4f28419497f9722a3daafe3b4186f6b6457e0908390a36000805473ffffffffffffffffffffffffffffffffffffffff19169055565b611c2b612ec4565b6000546001600160a01b03908116911614611c8d576040805162461bcd60e51b815260206004820181905260248201527f4f776e61626c653a2063616c6c6572206973206e6f7420746865206f776e6572604482015290519081900360640190fd5b60008111611ce2576040805162461bcd60e51b815260206004820152601260248201527f4c696d69742063616e206e6f7420626520300000000000000000000000000000604482015290519081900360640190fd5b601755565b60135481565b6000546001600160a01b03165b90565b43600f541115611d54576040805162461bcd60e51b815260206004820181905260248201527f436f6d706f756e6420416c6c206e6f7420796574206170706c696361626c652e604482015290519081900360640190fd5b600060135411611dab576040805162461bcd60e51b815260206004820152601a60248201527f4e6f205374616b6564207265776172647320746f20636c61696d000000000000604482015290519081900360640190fd5b600c5460175460009182918291829181111580611dde5750600c54601754601054611ddb9163ffffffff612fa516565b10155b15611dec5750600c54611e04565b601754601054611e019163ffffffff612fa516565b90505b600954604080517f45c9c1d100000000000000000000000000000000000000000000000000000000815290516000926001600160a01b0316916345c9c1d191600480830192602092919082900301818787803b158015611e6357600080fd5b505af1158015611e77573d6000803e3d6000fd5b505050506040513d6020811015611e8d57600080fd5b505190508015611f2957611e9f61328e565b506040805180820190915281815260208101828152600d805460018101825560009190915282517fd7b6990105719101dabeb77144f2a3385c8033acd3af97e9423a695e81ad1eb560029092029182015590517fd7b6990105719101dabeb77144f2a3385c8033acd3af97e9423a695e81ad1eb690910155601654611f249083612fa5565b601655505b6010545b828110156122a1576000611f61600c8381548110611f4757fe5b6000918252602090912001546001600160a01b0316612ec8565b90508015611f9257601454611f7c908263ffffffff612fa516565b601455611f8f858263ffffffff612fa516565b94505b600d54156120e2576000600d600081548110611faa57fe5b90600052602060002090600202016001015411156120e257600061202e6013546110a3600b6000600c8881548110611fde57fe5b60009182526020808320909101546001600160a01b03168352820192909252604001812054600d80549192909161201157fe5b60009182526020909120600290910201549063ffffffff61304a16565b9050600d60008154811061203e57fe5b90600052602060002090600202016001015481111561207a57600d60008154811061206557fe5b90600052602060002090600202016001015490505b6120ac81600d60008154811061208c57fe5b90600052602060002090600202016001015461300890919063ffffffff16565b600d6000815481106120ba57fe5b60009182526020909120600160029092020101556120de828263ffffffff612fa516565b9150505b80156122475760006121056127106110a36002548561304a90919063ffffffff16565b9050612117898263ffffffff612fa516565b985060006121366127106110a36001548661304a90919063ffffffff16565b9050612148888263ffffffff612fa516565b975060006121676127106110a36004548761304a90919063ffffffff16565b90506121798a8263ffffffff612fa516565b995061218b848463ffffffff61300816565b935061219d848363ffffffff61300816565b93506121af848263ffffffff61300816565b93506121f784600b6000600c89815481106121c657fe5b60009182526020808320909101546001600160a01b031683528201929092526040019020549063ffffffff612fa516565b600b6000600c888154811061220857fe5b60009182526020808320909101546001600160a01b03168352820192909252604001902055601354612240908563ffffffff612fa516565b6013555050505b43600b6000600c858154811061225957fe5b60009182526020808320909101546001600160a01b0316835282019290925260400190206003015560105461229590600163ffffffff612fa516565b60105550600101611f2d565b50600c54601054106123b457600d54156123ae57600d54600110156123ae57612315600d6000815481106122d157fe5b906000526020600020906002020160010154600d6001600d8054905003815481106122f857fe5b60009182526020909120600290910201549063ffffffff612fa516565b600d8054600019810190811061232757fe5b6000918252602090912060029091020155600d8054600019810190811061234a57fe5b9060005260206000209060020201600d60008154811061236657fe5b600091825260209091208254600290920201908155600191820154910155600d80548061238f57fe5b6000828152602081206002600019909301928302018181556001015590555b60006010555b600e546123c7908463ffffffff61300816565b600e5543600f55600854604080517f42966c680000000000000000000000000000000000000000000000000000000081526004810189905290516001600160a01b03909216916342966c689160248082019260009290919082900301818387803b15801561243457600080fd5b505af1158015612448573d6000803e3d6000fd5b50506008546040805163a9059cbb60e01b81523360048201526024810189905290516001600160a01b03909216935063a9059cbb92506044808201926020929091908290030181600087803b1580156124a057600080fd5b505af11580156124b4573d6000803e3d6000fd5b505050506040513d60208110156124ca57600080fd5b50506008546012546040805163a9059cbb60e01b81526001600160a01b039283166004820152602481018990529051919092169163a9059cbb9160448083019260209291908290030181600087803b15801561252557600080fd5b505af1158015612539573d6000803e3d6000fd5b505050506040513d602081101561254f57600080fd5b5050505050505050565b600a805473ffffffffffffffffffffffffffffffffffffffff19166001600160a01b0392909216919091179055565b612590612ec4565b6000546001600160a01b039081169116146125f2576040805162461bcd60e51b815260206004820181905260248201527f4f776e61626c653a2063616c6c6572206973206e6f7420746865206f776e6572604482015290519081900360640190fd5b600a8111156126325760405162461bcd60e51b815260040180806020018281038252602781526020018061334a6027913960400191505060405180910390fd5b601155565b60035481565b6008546001600160a01b031681565b60015481565b6009805473ffffffffffffffffffffffffffffffffffffffff19166001600160a01b0392909216919091179055565b612689612ec4565b6000546001600160a01b039081169116146126eb576040805162461bcd60e51b815260206004820181905260248201527f4f776e61626c653a2063616c6c6572206973206e6f7420746865206f776e6572604482015290519081900360640190fd5b60008111612740576040805162461bcd60e51b815260206004820152601a60248201527f466565206d7573742062652067726561746572207468616e2030000000000000604482015290519081900360640190fd5b6103e88110612796576040805162461bcd60e51b815260206004820152601960248201527f466565206d757374206265206c657373207468616e2031302500000000000000604482015290519081900360640190fd5b600355565b6127a3612ec4565b6000546001600160a01b03908116911614612805576040805162461bcd60e51b815260206004820181905260248201527f4f776e61626c653a2063616c6c6572206973206e6f7420746865206f776e6572604482015290519081900360640190fd5b6000811161285a576040805162461bcd60e51b815260206004820152601a60248201527f466565206d7573742062652067726561746572207468616e2030000000000000604482015290519081900360640190fd5b6103e881106128b0576040805162461bcd60e51b815260206004820152601960248201527f466565206d757374206265206c657373207468616e2031302500000000000000604482015290519081900360640190fd5b600255565b60115481565b6128c3612ec4565b6000546001600160a01b03908116911614612925576040805162461bcd60e51b815260206004820181905260248201527f4f776e61626c653a2063616c6c6572206973206e6f7420746865206f776e6572604482015290519081900360640190fd5b6000600e54116129665760405162461bcd60e51b81526004018080602001828103825260248152602001806133926024913960400191505060405180910390fd5b60155415612a3257600854601554600e546001600160a01b039092169163a9059cbb91339161299a9163ffffffff61300816565b6040518363ffffffff1660e01b815260040180836001600160a01b03166001600160a01b0316815260200182815260200192505050602060405180830381600087803b1580156129e957600080fd5b505af11580156129fd573d6000803e3d6000fd5b505050506040513d6020811015612a1357600080fd5b5050601554600e54612a2a9163ffffffff61300816565b600e55612abb565b600854600e546040805163a9059cbb60e01b81523360048201526024810192909252516001600160a01b039092169163a9059cbb916044808201926020929091908290030181600087803b158015612a8957600080fd5b505af1158015612a9d573d6000803e3d6000fd5b505050506040513d6020811015612ab357600080fd5b50506000600e555b565b60145481565b60155460009015612b0457601354336000908152600b6020526040902054601554612afd926110af9290916110a39163ffffffff61304a16565b9050612b16565b50336000908152600b60205260409020545b6008546040805163a9059cbb60e01b81523360048201526024810184905290516001600160a01b039092169163a9059cbb916044808201926020929091908290030181600087803b158015612b6a57600080fd5b505af1158015612b7e573d6000803e3d6000fd5b505050506040513d6020811015612b9457600080fd5b5050336000908152600b6020526040902054612bb6908263ffffffff61300816565b336000908152600b6020526040902081815543600390910155612d1a57336000908152600b60205260409020600c54600582015460001990910114612c8957600c8054600091906000198101908110612c0b57fe5b9060005260206000200160009054906101000a90046001600160a01b0316905080600c836005015481548110612c3d57fe5b6000918252602080832091909101805473ffffffffffffffffffffffffffffffffffffffff19166001600160a01b03948516179055600585810154949093168252600b90526040902001555b600c805480612c9457fe5b600082815260208082206000199084018101805473ffffffffffffffffffffffffffffffffffffffff191690559092019092556008546040805163095ea7b360e01b81523060048201526024810185905290516001600160a01b039092169363095ea7b39360448084019491939192918390030190829087803b15801561170e57600080fd5b50565b600b60205260009081526040902080546001820154600283015460038401546004850154600590950154939492939192909186565b601554811115612d935760405162461bcd60e51b815260040180806020018281038252603c8152602001806132a9603c913960400191505060405180910390fd5b601554612da6908263ffffffff61300816565b60155550565b600a546001600160a01b031681565b6000600f544311612dce57506000611cfa565b600f54612ddd57506000611cfa565b600e54612dec57506000611cfa565b6000612e03600f544361300890919063ffffffff16565b90506000612e1c6011548361304a90919063ffffffff16565b9250505090565b60175481565b600e5481565b612e37612ec4565b6000546001600160a01b03908116911614612e99576040805162461bcd60e51b815260206004820181905260248201527f4f776e61626c653a2063616c6c6572206973206e6f7420746865206f776e6572604482015290519081900360640190fd5b612d1a816130e5565b6000612ead82612ec8565b90505b919050565b6012546001600160a01b031681565b3390565b6001600160a01b0381166000908152600b60205260408120600301544311612ef257506000612eb0565b600e541580612f015750601354155b15612f0e57506000612eb0565b6001600160a01b0382166000908152600b6020526040812060030154612f3b90439063ffffffff61300816565b90506000612f546011548361304a90919063ffffffff16565b6013546001600160a01b0386166000908152600b602052604081205492935091612f8a91906110a390859063ffffffff61304a16565b9050600e54811115612f9b5750600e545b9250612eb0915050565b600082820183811015612fff576040805162461bcd60e51b815260206004820152601b60248201527f536166654d6174683a206164646974696f6e206f766572666c6f770000000000604482015290519081900360640190fd5b90505b92915050565b6000612fff83836040518060400160405280601e81526020017f536166654d6174683a207375627472616374696f6e206f766572666c6f770000815250613192565b60008261305957506000613002565b8282028284828161306657fe5b0414612fff5760405162461bcd60e51b81526004018080602001828103825260218152602001806133716021913960400191505060405180910390fd5b6000612fff83836040518060400160405280601a81526020017f536166654d6174683a206469766973696f6e206279207a65726f000000000000815250613229565b6001600160a01b03811661312a5760405162461bcd60e51b81526004018080602001828103825260268152602001806133246026913960400191505060405180910390fd5b600080546040516001600160a01b03808516939216917f8be0079c531659141344cd1fd0a4f28419497f9722a3daafe3b4186f6b6457e091a36000805473ffffffffffffffffffffffffffffffffffffffff19166001600160a01b0392909216919091179055565b600081848411156132215760405162461bcd60e51b81526004018080602001828103825283818151815260200191508051906020019080838360005b838110156131e65781810151838201526020016131ce565b50505050905090810190601f1680156132135780820380516001836020036101000a031916815260200191505b509250505060405180910390fd5b505050900390565b600081836132785760405162461bcd60e51b81526020600482018181528351602484015283519092839260449091019190850190808383600083156131e65781810151838201526020016131ce565b50600083858161328457fe5b0495945050505050565b60405180604001604052806000815260200160008152509056fe756e667265657a6520616d6f756e742063616e742062652067726561746572207468616e2063757272656e746c792066726f7a656e20616d6f756e74576974686472617720616d6f756e742063616e206e6f742062652067726561746572207468616e20617661696c61626c65207374616b656420616d6f756e744f776e61626c653a206e6577206f776e657220697320746865207a65726f206164647265737343727573682050657220426c6f636b2063616e206e6f74206265206d6f7265207468616e203130536166654d6174683a206d756c7469706c69636174696f6e206f766572666c6f77546f74616c20506f6f6c206e65656420746f2062652067726561746572207468616e2030496e73756666696369656e7420437275736820746f6b656e7320666f72207472616e73666572467265657a6520616d6f756e742073686f756c64206265206c657373207468616e206f7220657175616c20746f20617661696c61626c652066756e6473a26469706673582212209105ea851eef09207a3c2a5ec5d10bf64a53ef8ba2b0918203527d8abc95a35664736f6c63430006020033",
  "source": "//SPDX-License-Identifier: MIT\npragma solidity >=0.6.2;\n\nimport \"@pancakeswap/pancake-swap-lib/contracts/access/Ownable.sol\";\nimport \"./CrushCoin.sol\";\nimport \"@pancakeswap/pancake-swap-lib/contracts/math/SafeMath.sol\";\nimport \"./HouseBankroll.sol\";\nimport \"./LiveWallet.sol\";\ncontract BitcrushStaking is Ownable {\n    using SafeMath for uint256;\n    \n    uint256 constant MAX_CRUSH_PER_BLOCK = 10;\n    uint256 constant MAX_FEE = 1000; // 1000/10000 * 100 = 10%\n    uint256 public performanceFeeCompounder = 10; // 10/10000 * 100 = 0.1%\n    uint256 public performanceFeeBurn       = 100; // 100/10000 * 100 = 1%\n    uint256 constant divisor = 10000;\n    \n    uint256  public earlyWithdrawFee         = 50; // 50/10000 * 100 = 0.5% \n    uint256  public performanceFeeReserve    = 190; // 190/10000 * 100 = 1.9%\n    \n    uint256 public profitShare = 10;\n    uint256 public blockPerSecond = 3;\n    uint256 public earlyWithdrawFeeTime = 72 * 60 * 60 / blockPerSecond;\n    \n    //address of the crush token\n    CRUSHToken public crush;\n    BitcrushBankroll public bankroll;\n    BitcrushLiveWallet public liveWallet;\n    struct staked {\n        uint256 stakedAmount;\n        uint256 claimedAmount;\n        uint256 profit;\n        uint256 lastBlockCompounded;\n        uint256 lastBlockStaked;\n        uint256 index;\n    }\n    mapping (address => staked) public stakings;\n    address[] public addressIndexes;\n\n    struct profit {\n        uint256 total;\n        uint256 remaining;\n    }\n    profit[] public profits;\n\n    uint256 public totalPool;\n    uint256 public lastAutoCompoundBlock;\n    uint256 public batchStartingIndex = 0;\n    \n    uint256 public crushPerBlock = 5;\n    address public reserveAddress;\n\n    uint256 public totalStaked;\n    \n    uint256 public totalClaimed;\n    uint256 public totalFrozen = 0;\n    uint256 public totalProfitDistributed = 0;\n    \n    uint256 public autoCompoundLimit = 10;\n\n    uint256 public deploymentTimeStamp;\n    event RewardPoolUpdated (uint256 indexed _totalPool);\n    \n    event StakeUpdated (address indexed recipeint, uint256 indexed _amount);\n    \n    constructor (CRUSHToken _crush, uint256 _crushPerBlock, address _reserveAddress) public{\n        crush = _crush;\n        crushPerBlock = _crushPerBlock;\n        reserveAddress = _reserveAddress;\n        lastAutoCompoundBlock = 0;\n        deploymentTimeStamp = block.timestamp;\n        \n    }\n\n    function setBankroll (BitcrushBankroll _bankroll) public {\n        bankroll = _bankroll;\n    }\n    function setLiveWallet (BitcrushLiveWallet _liveWallet) public{\n        liveWallet = _liveWallet;\n    }\n\n    /// Adds the provided amount to the totalPool\n    /// @param _amount the amount to add\n    /// @dev adds the provided amount to `totalPool` state variable\n    function addRewardToPool (uint256 _amount) public  {\n        require(crush.balanceOf(msg.sender) >= _amount, \"Insufficient Crush tokens for transfer\");\n        totalPool = totalPool.add(_amount);\n        crush.transferFrom(msg.sender, address(this), _amount);\n        emit RewardPoolUpdated(totalPool);\n    }\n\n    \n    function setCrushPerBlock (uint256 _amount) public onlyOwner {\n        require(_amount >= 0, \"Crush per Block can not be negative\" );\n        require(_amount <= MAX_CRUSH_PER_BLOCK, \"Crush Per Block can not be more than 10\");\n        crushPerBlock = _amount;\n    }\n\n\n    /// Stake the provided amount\n    /// @param _amount the amount to stake\n    /// @dev stakes the provided amount\n    function enterStaking (uint256 _amount) public  {\n        require(crush.balanceOf(msg.sender) >= _amount, \"Insufficient Crush tokens for transfer\");\n        require(_amount > 0,\"Invalid staking amount\");\n        require(totalPool > 0, \"Reward Pool Exhausted\");\n        \n        crush.transferFrom(msg.sender, address(this), _amount);\n        if(totalStaked == 0){\n            lastAutoCompoundBlock = block.number;\n        }\n        if(stakings[msg.sender].stakedAmount == 0){\n            stakings[msg.sender].lastBlockCompounded = block.number;\n            addressIndexes.push(msg.sender);\n            stakings[msg.sender].index = addressIndexes.length-1;\n        }\n        stakings[msg.sender].stakedAmount = stakings[msg.sender].stakedAmount.add(_amount);\n        stakings[msg.sender].lastBlockStaked = block.number;\n        totalStaked = totalStaked.add(_amount);\n        crush.transfer(msg.sender, getReward(msg.sender));\n        stakings[msg.sender].lastBlockCompounded = block.number;\n        \n       \n    }\n\n\n\n    /// Leaves staking for a user by the specified amount and transfering staked amount and reward to users address\n    /// @param _amount the amount to unstake\n    /// @dev leaves staking and deducts total pool by the users reward. early withdrawal fee applied if withdraw is made before earlyWithdrawFeeTime\n    function leaveStaking (uint256 _amount, bool _liveWallet) public  {\n        uint256 reward = getReward(msg.sender);\n        stakings[msg.sender].lastBlockCompounded = block.number;\n        totalPool = totalPool.sub(reward);\n        uint256 availableStaked;\n        if(totalFrozen > 0){\n            availableStaked = stakings[msg.sender].stakedAmount.sub(totalFrozen.mul(stakings[msg.sender].stakedAmount).div(totalStaked));\n        }else {\n            availableStaked = stakings[msg.sender].stakedAmount;\n        }\n        require(availableStaked >= _amount, \"Withdraw amount can not be greater than available staked amount\");\n        totalStaked = totalStaked.sub(_amount);\n        stakings[msg.sender].stakedAmount = stakings[msg.sender].stakedAmount.sub(_amount);\n        if(block.number < stakings[msg.sender].lastBlockStaked.add(earlyWithdrawFeeTime)){\n            //apply fee\n            uint256 withdrawalFee = _amount.mul(earlyWithdrawFee).div(divisor);\n            _amount = _amount.sub(withdrawalFee);\n            crush.transfer(reserveAddress, withdrawalFee);\n        }\n        _amount = _amount.add(reward);\n        if(_liveWallet == false){\n            crush.transfer(msg.sender, _amount);\n        }else {\n            crush.approve(address(liveWallet), _amount);\n            liveWallet.addbetWithAddress(_amount, msg.sender);\n        }\n        \n        //remove from array\n        if(stakings[msg.sender].stakedAmount == 0){\n            staked storage staking = stakings[msg.sender];\n            if(staking.index != addressIndexes.length-1){\n                address lastAddress = addressIndexes[addressIndexes.length-1];\n                addressIndexes[staking.index] = lastAddress;\n                stakings[lastAddress].index = staking.index;\n                crush.approve( address(this), 0);\n            }\n            addressIndexes.pop();\n            delete stakings[msg.sender];\n        }\n        emit RewardPoolUpdated(totalPool);\n    }\n\n\n    function getReward(address _address) internal view returns (uint256) {\n        if(block.number <=  stakings[_address].lastBlockCompounded){\n            return 0;\n        }else {\n            if(totalPool == 0 || totalStaked ==0 ){\n                return 0;\n            }else {\n                //if the staker reward is greater than total pool => set it to total pool\n                uint256 blocks = block.number.sub(stakings[_address].lastBlockCompounded);\n                uint256 totalReward = blocks.mul(crushPerBlock);\n                uint256 stakerReward = totalReward.mul(stakings[_address].stakedAmount).div(totalStaked);\n                if(stakerReward > totalPool){\n                    stakerReward = totalPool;\n                }\n                return stakerReward;\n            }\n            \n        }\n    }\n\n    /// Calculates total potential pending rewards\n    /// @dev Calculates potential reward based on crush per block\n    function totalPendingRewards () public view returns (uint256){\n            if(block.number <= lastAutoCompoundBlock){\n                return 0;\n            }else if(lastAutoCompoundBlock == 0){\n                return 0;\n            }else if (totalPool == 0){\n                return 0;\n            }\n\n            uint256 blocks = block.number.sub(lastAutoCompoundBlock);\n            uint256 totalReward = blocks.mul(crushPerBlock);\n\n            return totalReward;\n    }\n\n    /// Get pending rewards of a user\n    /// @param _address the address to calculate the reward for\n    /// @dev calculates potential reward for the address provided based on crush per block\n    function pendingReward (address _address) public view returns (uint256){\n        return getReward(_address);\n    }\n\n    /// transfers the rewards of a user to their address\n    /// @dev calculates users rewards and transfers it out while deducting reward from totalPool\n    function claim (bool _liveWallet) public  {\n        uint256 reward = getReward(msg.sender);\n        stakings[msg.sender].claimedAmount = stakings[msg.sender].claimedAmount.add(reward);\n        if(_liveWallet == false){\n            crush.transfer(msg.sender, reward);\n        }else {\n            crush.approve(address(liveWallet), reward);\n            liveWallet.addbetWithAddress(reward, msg.sender);\n        }\n        stakings[msg.sender].lastBlockCompounded = block.number;\n        totalClaimed = totalClaimed.add(reward);\n        totalPool = totalPool.sub(reward); \n    }\n\n\n\n\n   /*  function claimProfit () public {\n        require(stakings[msg.sender].profit > 0, \"No Profit to claim\");\n        crush.transfer(msg.sender, stakings[msg.sender].profit);\n        stakings[msg.sender].profit = 0;\n    } */\n\n    /// compounds the rewards of the caller\n    /// @dev compounds the rewards of the caller add adds it into their staked amount\n    function singleCompound () public  {\n        require(stakings[msg.sender].stakedAmount > 0, \"Please Stake Crush to compound\");\n        uint256 reward = getReward(msg.sender);\n        stakings[msg.sender].stakedAmount = stakings[msg.sender].stakedAmount.add(reward); \n        totalStaked = totalStaked.add(reward);\n        stakings[msg.sender].lastBlockCompounded = block.number;\n        totalPool = totalPool.sub(reward);\n        emit RewardPoolUpdated(totalPool);\n        emit StakeUpdated(msg.sender,reward);\n    }\n\n  \n\n    /// compounds the rewards of all users in the pool\n    /// @dev compounds the rewards of all users in the pool add adds it into their staked amount while deducting fees\n    function compoundAll () public  {\n        require(lastAutoCompoundBlock <= block.number, \"Compound All not yet applicable.\");\n        require(totalStaked > 0, \"No Staked rewards to claim\" );\n        uint256 crushToBurn = 0;\n        uint256 performanceFee = 0;\n        \n        uint256 compounderReward = 0;\n        uint totalPoolDeducted = 0;\n        \n        uint256 batchLimit = addressIndexes.length;\n        if(addressIndexes.length <= autoCompoundLimit || batchStartingIndex.add(autoCompoundLimit) >= addressIndexes.length){\n            batchLimit = addressIndexes.length;\n        }else {\n            batchLimit = batchStartingIndex.add(autoCompoundLimit);\n        }\n        uint256 newProfit = bankroll.transferProfit();\n            if(newProfit > 0){\n                //profit deduction\n                profit memory prof = profit(newProfit,newProfit);\n                profits.push(prof);\n                totalProfitDistributed = totalProfitDistributed.add(newProfit);\n            }\n        for(uint256 i=batchStartingIndex; i < batchLimit; i++){\n            uint256 stakerReward = getReward(addressIndexes[i]);\n            \n            if(stakerReward > 0){\n                totalClaimed = totalClaimed.add(stakerReward);\n                totalPoolDeducted = totalPoolDeducted.add(stakerReward);\n \n            }\n            if(profits.length > 0){\n                if(profits[0].remaining > 0){\n                    uint256 profitShareUser = profits[0].total.mul(stakings[addressIndexes[i]].stakedAmount).div(totalStaked);\n                        if(profitShareUser > profits[0].remaining){\n                            profitShareUser = profits[0].remaining;\n                        }\n                    profits[0].remaining = profits[0].remaining.sub(profitShareUser);\n                    stakerReward = stakerReward.add(profitShareUser); \n                }\n            }\n            if(stakerReward > 0){\n                uint256 stakerBurn = stakerReward.mul(performanceFeeBurn).div(divisor);\n                crushToBurn = crushToBurn.add(stakerBurn);\n            \n                uint256 cpAllReward = stakerReward.mul(performanceFeeCompounder).div(divisor);\n                compounderReward = compounderReward.add(cpAllReward);\n            \n                uint256 feeReserve = stakerReward.mul(performanceFeeReserve).div(divisor);\n                performanceFee = performanceFee.add(feeReserve);\n                stakerReward = stakerReward.sub(stakerBurn);\n                stakerReward = stakerReward.sub(cpAllReward);\n                stakerReward = stakerReward.sub(feeReserve);\n                stakings[addressIndexes[i]].stakedAmount = stakings[addressIndexes[i]].stakedAmount.add(stakerReward);\n                totalStaked = totalStaked.add(stakerReward);\n            }    \n            stakings[addressIndexes[i]].lastBlockCompounded = block.number;\n            batchStartingIndex = batchStartingIndex.add(1);\n                        \n        }\n        if(batchStartingIndex >= addressIndexes.length){\n            if(profits.length > 0){\n                if(profits.length > 1){\n                    profits[profits.length - 1].total = profits[profits.length - 1].total.add(profits[0].remaining); \n                    profits[0] = profits[profits.length - 1];\n                    profits.pop();\n                }\n                \n                /* if(profits[0].remaining == 0 && profits[0].total > 0){\n                //rearrange array\n                \n                } */\n            }\n            batchStartingIndex = 0;\n        }\n        totalPool = totalPool.sub(totalPoolDeducted);\n        lastAutoCompoundBlock = block.number;\n        crush.burn(crushToBurn);\n        crush.transfer(msg.sender, compounderReward);\n        crush.transfer(reserveAddress, performanceFee);\n        \n    }\n\n\n    function freezeStaking (uint256 _amount, address _recipient) public {\n        //divide amount over users\n        //update user mapping to reflect frozen amount\n         require(_amount <= totalStaked.sub(totalFrozen), \"Freeze amount should be less than or equal to available funds\");\n         totalFrozen = totalFrozen.add(_amount);\n         liveWallet.addToUserWinnings(_amount, _recipient);\n         crush.transfer(address(liveWallet), _amount);\n    }\n\n    function unfreezeStaking (uint256 _amount) public {\n       //divide amount over users\n        //update user mapping to reflect deducted frozen amount\n         require(_amount <= totalFrozen, \"unfreeze amount cant be greater than currently frozen amount\");\n         totalFrozen = totalFrozen.sub(_amount);\n    }\n\n\n    /// withdraws the staked amount of user in case of emergency.\n    /// @dev drains the staked amount and sets the state variable `stakedAmount` of staking mapping to 0\n    function emergencyWithdraw() public {\n        //add check for frozen amount\n        uint256 availableStaked;\n        if(totalFrozen > 0){\n            availableStaked = stakings[msg.sender].stakedAmount.sub(totalFrozen.mul(stakings[msg.sender].stakedAmount).div(totalStaked));\n        }else {\n            availableStaked = stakings[msg.sender].stakedAmount;\n        }\n\n        crush.transfer( msg.sender, availableStaked);\n        stakings[msg.sender].stakedAmount = stakings[msg.sender].stakedAmount.sub(availableStaked);\n        \n        stakings[msg.sender].lastBlockCompounded = block.number;\n        if(stakings[msg.sender].stakedAmount == 0) {\n            staked storage staking = stakings[msg.sender];\n            if(staking.index != addressIndexes.length-1){\n                address lastAddress = addressIndexes[addressIndexes.length-1];\n                addressIndexes[staking.index] = lastAddress;\n                stakings[lastAddress].index = staking.index;\n            }\n            addressIndexes.pop();\n            crush.approve( address(this), 0);\n        }\n        \n    }\n\n    /// withdraws the total pool in case of emergency.\n    /// @dev drains the total pool and sets the state variable `totalPool` to 0\n    function emergencyTotalPoolWithdraw () public onlyOwner {\n        require(totalPool > 0, \"Total Pool need to be greater than 0\");\n        if(totalFrozen > 0){\n            crush.transfer(msg.sender, totalPool.sub(totalFrozen));\n            totalPool = totalPool.sub(totalFrozen);\n        } else {\n            crush.transfer(msg.sender, totalPool);\n            totalPool = 0;\n        }\n        \n    }\n\n    function indexesLength() public view returns(uint256 _addressesLength){\n        _addressesLength = addressIndexes.length;\n    }\n\n    /// Store `_fee`.\n    /// @param _fee the new value to store\n    /// @dev stores the fee in the state variable `performanceFeeCompounder`\n    function setPerformanceFeeCompounder (uint256 _fee) public onlyOwner{\n        require(_fee > 0, \"Fee must be greater than 0\");\n        require(_fee < MAX_FEE, \"Fee must be less than 10%\");\n        performanceFeeCompounder = _fee;\n    }\n\n    /// Store `_fee`.\n    /// @param _fee the new value to store\n    /// @dev stores the fee in the state variable `performanceFeeBurn`\n    function setPerformanceFeeBurn (uint256 _fee) public onlyOwner {\n        require(_fee > 0, \"Fee must be greater than 0\");\n        require(_fee < MAX_FEE, \"Fee must be less than 10%\");\n        performanceFeeBurn = _fee;\n    }\n\n    /// Store `_fee`.\n    /// @param _fee the new value to store\n    /// @dev stores the fee in the state variable `earlyWithdrawFee`\n    function setEarlyWithdrawFee (uint256 _fee) public onlyOwner {\n        require(_fee > 0, \"Fee must be greater than 0\");\n        require(_fee < MAX_FEE, \"Fee must be less than 10%\");\n        earlyWithdrawFee = _fee;\n    }\n\n\n    /// Store `_fee`.\n    /// @param _fee the new value to store\n    /// @dev stores the fee in the state variable `performanceFeeReserve`\n    function setPerformanceFeeReserve (uint256 _fee) public onlyOwner {\n        require(_fee > 0, \"Fee must be greater than 0\");\n        require(_fee <= MAX_FEE, \"Fee must be less than 10%\");\n        performanceFeeReserve = _fee;\n    }\n\n    /// Store `_time`.\n    /// @param _time the new value to store\n    /// @dev stores the time in the state variable `earlyWithdrawFeeTime`\n    function setEarlyWithdrawFeeTime (uint256 _time) public onlyOwner {\n        require(_time > 0, \"Time must be greater than 0\");\n        earlyWithdrawFeeTime = _time;\n    }\n\n    function setAutoCompoundLimit (uint256 _limit) public onlyOwner {\n        require(_limit > 0, \"Limit can not be 0\");\n        autoCompoundLimit = _limit;\n    }\n\n    function setProfitShare (uint256 _profitShare) public onlyOwner {\n        require(_profitShare > 0, \"Profit share can not be 0\");\n        profitShare = _profitShare;\n    }\n\n   \n}\n",
  "sourcePath": "/Users/umerali/Desktop/FRAG/bitcrush/crush_contracts/contracts/staking.sol",
  "compiler": {
    "name": "solc",
    "version": "0.6.2+commit.bacdbe57.Emscripten.clang"
  },
  "schemaVersion": "3.4.1",
  "updatedAt": "2021-10-07T08:14:37.617Z",
  "networkType": "ethereum",
  "devdoc": {
    "methods": {
      "addRewardToPool(uint256)": {
        "details": "adds the provided amount to `totalPool` state variable",
        "params": {
          "_amount": "the amount to add"
        }
      },
      "claim(bool)": {
        "details": "calculates users rewards and transfers it out while deducting reward from totalPool"
      },
      "compoundAll()": {
        "details": "compounds the rewards of all users in the pool add adds it into their staked amount while deducting fees"
      },
      "emergencyTotalPoolWithdraw()": {
        "details": "drains the total pool and sets the state variable `totalPool` to 0"
      },
      "emergencyWithdraw()": {
        "details": "drains the staked amount and sets the state variable `stakedAmount` of staking mapping to 0"
      },
      "enterStaking(uint256)": {
        "details": "stakes the provided amount",
        "params": {
          "_amount": "the amount to stake"
        }
      },
      "leaveStaking(uint256,bool)": {
        "details": "leaves staking and deducts total pool by the users reward. early withdrawal fee applied if withdraw is made before earlyWithdrawFeeTime",
        "params": {
          "_amount": "the amount to unstake"
        }
      },
      "owner()": {
        "details": "Returns the address of the current owner."
      },
      "pendingReward(address)": {
        "details": "calculates potential reward for the address provided based on crush per block",
        "params": {
          "_address": "the address to calculate the reward for"
        }
      },
      "renounceOwnership()": {
        "details": "Leaves the contract without owner. It will not be possible to call `onlyOwner` functions anymore. Can only be called by the current owner.     * NOTE: Renouncing ownership will leave the contract without an owner, thereby removing any functionality that is only available to the owner."
      },
      "setEarlyWithdrawFee(uint256)": {
        "details": "stores the fee in the state variable `earlyWithdrawFee`",
        "params": {
          "_fee": "the new value to store"
        }
      },
      "setEarlyWithdrawFeeTime(uint256)": {
        "details": "stores the time in the state variable `earlyWithdrawFeeTime`",
        "params": {
          "_time": "the new value to store"
        }
      },
      "setPerformanceFeeBurn(uint256)": {
        "details": "stores the fee in the state variable `performanceFeeBurn`",
        "params": {
          "_fee": "the new value to store"
        }
      },
      "setPerformanceFeeCompounder(uint256)": {
        "details": "stores the fee in the state variable `performanceFeeCompounder`",
        "params": {
          "_fee": "the new value to store"
        }
      },
      "setPerformanceFeeReserve(uint256)": {
        "details": "stores the fee in the state variable `performanceFeeReserve`",
        "params": {
          "_fee": "the new value to store"
        }
      },
      "singleCompound()": {
        "details": "compounds the rewards of the caller add adds it into their staked amount"
      },
      "totalPendingRewards()": {
        "details": "Calculates potential reward based on crush per block"
      },
      "transferOwnership(address)": {
        "details": "Transfers ownership of the contract to a new account (`newOwner`). Can only be called by the current owner."
      }
    }
  },
  "userdoc": {
    "methods": {
      "addRewardToPool(uint256)": {
        "notice": "Adds the provided amount to the totalPool"
      },
      "claim(bool)": {
        "notice": "transfers the rewards of a user to their address"
      },
      "compoundAll()": {
        "notice": "compounds the rewards of all users in the pool"
      },
      "emergencyTotalPoolWithdraw()": {
        "notice": "withdraws the total pool in case of emergency."
      },
      "emergencyWithdraw()": {
        "notice": "withdraws the staked amount of user in case of emergency."
      },
      "enterStaking(uint256)": {
        "notice": "Stake the provided amount"
      },
      "leaveStaking(uint256,bool)": {
        "notice": "Leaves staking for a user by the specified amount and transfering staked amount and reward to users address"
      },
      "pendingReward(address)": {
        "notice": "Get pending rewards of a user"
      },
      "setEarlyWithdrawFee(uint256)": {
        "notice": "Store `_fee`."
      },
      "setEarlyWithdrawFeeTime(uint256)": {
        "notice": "Store `_time`."
      },
      "setPerformanceFeeBurn(uint256)": {
        "notice": "Store `_fee`."
      },
      "setPerformanceFeeCompounder(uint256)": {
        "notice": "Store `_fee`."
      },
      "setPerformanceFeeReserve(uint256)": {
        "notice": "Store `_fee`."
      },
      "singleCompound()": {
        "notice": "compounds the rewards of the caller"
      },
      "totalPendingRewards()": {
        "notice": "Calculates total potential pending rewards"
      }
    }
  }
}