{
  "contractName": "BitcrushStaking",
  "abi": [
    {
      "inputs": [
        {
          "internalType": "contract CRUSHToken",
          "name": "_crush",
          "type": "address"
        },
        {
          "internalType": "uint256",
          "name": "_crushPerBlock",
          "type": "uint256"
        },
        {
          "internalType": "address",
          "name": "_reserveAddress",
          "type": "address"
        }
      ],
      "stateMutability": "nonpayable",
      "type": "constructor"
    },
    {
      "anonymous": false,
      "inputs": [
        {
          "indexed": true,
          "internalType": "address",
          "name": "previousOwner",
          "type": "address"
        },
        {
          "indexed": true,
          "internalType": "address",
          "name": "newOwner",
          "type": "address"
        }
      ],
      "name": "OwnershipTransferred",
      "type": "event"
    },
    {
      "anonymous": false,
      "inputs": [
        {
          "indexed": true,
          "internalType": "uint256",
          "name": "_totalPool",
          "type": "uint256"
        }
      ],
      "name": "RewardPoolUpdated",
      "type": "event"
    },
    {
      "anonymous": false,
      "inputs": [
        {
          "indexed": true,
          "internalType": "address",
          "name": "recipeint",
          "type": "address"
        },
        {
          "indexed": true,
          "internalType": "uint256",
          "name": "_amount",
          "type": "uint256"
        }
      ],
      "name": "StakeUpdated",
      "type": "event"
    },
    {
      "inputs": [],
      "name": "MAX_CRUSH_PER_BLOCK",
      "outputs": [
        {
          "internalType": "uint256",
          "name": "",
          "type": "uint256"
        }
      ],
      "stateMutability": "view",
      "type": "function"
    },
    {
      "inputs": [],
      "name": "MAX_FEE",
      "outputs": [
        {
          "internalType": "uint256",
          "name": "",
          "type": "uint256"
        }
      ],
      "stateMutability": "view",
      "type": "function"
    },
    {
      "inputs": [
        {
          "internalType": "uint256",
          "name": "",
          "type": "uint256"
        }
      ],
      "name": "addressIndexes",
      "outputs": [
        {
          "internalType": "address",
          "name": "",
          "type": "address"
        }
      ],
      "stateMutability": "view",
      "type": "function"
    },
    {
      "inputs": [],
      "name": "apyBoost",
      "outputs": [
        {
          "internalType": "uint256",
          "name": "",
          "type": "uint256"
        }
      ],
      "stateMutability": "view",
      "type": "function"
    },
    {
      "inputs": [],
      "name": "autoCompoundLimit",
      "outputs": [
        {
          "internalType": "uint256",
          "name": "",
          "type": "uint256"
        }
      ],
      "stateMutability": "view",
      "type": "function"
    },
    {
      "inputs": [],
      "name": "bankroll",
      "outputs": [
        {
          "internalType": "contract BitcrushBankroll",
          "name": "",
          "type": "address"
        }
      ],
      "stateMutability": "view",
      "type": "function"
    },
    {
      "inputs": [],
      "name": "batchStartingIndex",
      "outputs": [
        {
          "internalType": "uint256",
          "name": "",
          "type": "uint256"
        }
      ],
      "stateMutability": "view",
      "type": "function"
    },
    {
      "inputs": [],
      "name": "blockPerSecond",
      "outputs": [
        {
          "internalType": "uint256",
          "name": "",
          "type": "uint256"
        }
      ],
      "stateMutability": "view",
      "type": "function"
    },
    {
      "inputs": [],
      "name": "crush",
      "outputs": [
        {
          "internalType": "contract CRUSHToken",
          "name": "",
          "type": "address"
        }
      ],
      "stateMutability": "view",
      "type": "function"
    },
    {
      "inputs": [],
      "name": "crushPerBlock",
      "outputs": [
        {
          "internalType": "uint256",
          "name": "",
          "type": "uint256"
        }
      ],
      "stateMutability": "view",
      "type": "function"
    },
    {
      "inputs": [],
      "name": "deploymentTimeStamp",
      "outputs": [
        {
          "internalType": "uint256",
          "name": "",
          "type": "uint256"
        }
      ],
      "stateMutability": "view",
      "type": "function"
    },
    {
      "inputs": [],
      "name": "divisor",
      "outputs": [
        {
          "internalType": "uint256",
          "name": "",
          "type": "uint256"
        }
      ],
      "stateMutability": "view",
      "type": "function"
    },
    {
      "inputs": [],
      "name": "earlyWithdrawFee",
      "outputs": [
        {
          "internalType": "uint256",
          "name": "",
          "type": "uint256"
        }
      ],
      "stateMutability": "view",
      "type": "function"
    },
    {
      "inputs": [],
      "name": "earlyWithdrawFeeTime",
      "outputs": [
        {
          "internalType": "uint256",
          "name": "",
          "type": "uint256"
        }
      ],
      "stateMutability": "view",
      "type": "function"
    },
    {
      "inputs": [],
      "name": "frozenEarlyWithdrawFee",
      "outputs": [
        {
          "internalType": "uint256",
          "name": "",
          "type": "uint256"
        }
      ],
      "stateMutability": "view",
      "type": "function"
    },
    {
      "inputs": [],
      "name": "frozenEarlyWithdrawFeeTime",
      "outputs": [
        {
          "internalType": "uint256",
          "name": "",
          "type": "uint256"
        }
      ],
      "stateMutability": "view",
      "type": "function"
    },
    {
      "inputs": [],
      "name": "lastAutoCompoundBlock",
      "outputs": [
        {
          "internalType": "uint256",
          "name": "",
          "type": "uint256"
        }
      ],
      "stateMutability": "view",
      "type": "function"
    },
    {
      "inputs": [],
      "name": "liveWallet",
      "outputs": [
        {
          "internalType": "contract BitcrushLiveWallet",
          "name": "",
          "type": "address"
        }
      ],
      "stateMutability": "view",
      "type": "function"
    },
    {
      "inputs": [],
      "name": "owner",
      "outputs": [
        {
          "internalType": "address",
          "name": "",
          "type": "address"
        }
      ],
      "stateMutability": "view",
      "type": "function"
    },
    {
      "inputs": [],
      "name": "pendingStakedValue",
      "outputs": [
        {
          "internalType": "uint256",
          "name": "",
          "type": "uint256"
        }
      ],
      "stateMutability": "view",
      "type": "function"
    },
    {
      "inputs": [],
      "name": "performanceFeeBurn",
      "outputs": [
        {
          "internalType": "uint256",
          "name": "",
          "type": "uint256"
        }
      ],
      "stateMutability": "view",
      "type": "function"
    },
    {
      "inputs": [],
      "name": "performanceFeeCompounder",
      "outputs": [
        {
          "internalType": "uint256",
          "name": "",
          "type": "uint256"
        }
      ],
      "stateMutability": "view",
      "type": "function"
    },
    {
      "inputs": [],
      "name": "performanceFeeReserve",
      "outputs": [
        {
          "internalType": "uint256",
          "name": "",
          "type": "uint256"
        }
      ],
      "stateMutability": "view",
      "type": "function"
    },
    {
      "inputs": [
        {
          "internalType": "uint256",
          "name": "",
          "type": "uint256"
        }
      ],
      "name": "profits",
      "outputs": [
        {
          "internalType": "uint256",
          "name": "total",
          "type": "uint256"
        },
        {
          "internalType": "uint256",
          "name": "remaining",
          "type": "uint256"
        }
      ],
      "stateMutability": "view",
      "type": "function"
    },
    {
      "inputs": [],
      "name": "renounceOwnership",
      "outputs": [],
      "stateMutability": "nonpayable",
      "type": "function"
    },
    {
      "inputs": [],
      "name": "reserveAddress",
      "outputs": [
        {
          "internalType": "address",
          "name": "",
          "type": "address"
        }
      ],
      "stateMutability": "view",
      "type": "function"
    },
    {
      "inputs": [
        {
          "internalType": "address",
          "name": "",
          "type": "address"
        }
      ],
      "name": "stakings",
      "outputs": [
        {
          "internalType": "uint256",
          "name": "stakedAmount",
          "type": "uint256"
        },
        {
          "internalType": "uint256",
          "name": "lastStaking",
          "type": "uint256"
        },
        {
          "internalType": "uint256",
          "name": "claimedAmount",
          "type": "uint256"
        },
        {
          "internalType": "uint256",
          "name": "profit",
          "type": "uint256"
        },
        {
          "internalType": "uint256",
          "name": "lastBlockCompounded",
          "type": "uint256"
        },
        {
          "internalType": "uint256",
          "name": "lastBlockStaked",
          "type": "uint256"
        },
        {
          "internalType": "uint256",
          "name": "index",
          "type": "uint256"
        },
        {
          "internalType": "uint256",
          "name": "lastFrozenWithdraw",
          "type": "uint256"
        }
      ],
      "stateMutability": "view",
      "type": "function"
    },
    {
      "inputs": [],
      "name": "totalClaimed",
      "outputs": [
        {
          "internalType": "uint256",
          "name": "",
          "type": "uint256"
        }
      ],
      "stateMutability": "view",
      "type": "function"
    },
    {
      "inputs": [],
      "name": "totalFrozen",
      "outputs": [
        {
          "internalType": "uint256",
          "name": "",
          "type": "uint256"
        }
      ],
      "stateMutability": "view",
      "type": "function"
    },
    {
      "inputs": [],
      "name": "totalPool",
      "outputs": [
        {
          "internalType": "uint256",
          "name": "",
          "type": "uint256"
        }
      ],
      "stateMutability": "view",
      "type": "function"
    },
    {
      "inputs": [],
      "name": "totalProfitDistributed",
      "outputs": [
        {
          "internalType": "uint256",
          "name": "",
          "type": "uint256"
        }
      ],
      "stateMutability": "view",
      "type": "function"
    },
    {
      "inputs": [],
      "name": "totalStaked",
      "outputs": [
        {
          "internalType": "uint256",
          "name": "",
          "type": "uint256"
        }
      ],
      "stateMutability": "view",
      "type": "function"
    },
    {
      "inputs": [
        {
          "internalType": "address",
          "name": "newOwner",
          "type": "address"
        }
      ],
      "name": "transferOwnership",
      "outputs": [],
      "stateMutability": "nonpayable",
      "type": "function"
    },
    {
      "inputs": [
        {
          "internalType": "contract BitcrushBankroll",
          "name": "_bankroll",
          "type": "address"
        }
      ],
      "name": "setBankroll",
      "outputs": [],
      "stateMutability": "nonpayable",
      "type": "function"
    },
    {
      "inputs": [
        {
          "internalType": "contract BitcrushLiveWallet",
          "name": "_liveWallet",
          "type": "address"
        }
      ],
      "name": "setLiveWallet",
      "outputs": [],
      "stateMutability": "nonpayable",
      "type": "function"
    },
    {
      "inputs": [
        {
          "internalType": "uint256",
          "name": "_amount",
          "type": "uint256"
        }
      ],
      "name": "addRewardToPool",
      "outputs": [],
      "stateMutability": "nonpayable",
      "type": "function"
    },
    {
      "inputs": [
        {
          "internalType": "uint256",
          "name": "_amount",
          "type": "uint256"
        }
      ],
      "name": "setCrushPerBlock",
      "outputs": [],
      "stateMutability": "nonpayable",
      "type": "function"
    },
    {
      "inputs": [
        {
          "internalType": "uint256",
          "name": "_amount",
          "type": "uint256"
        }
      ],
      "name": "enterStaking",
      "outputs": [],
      "stateMutability": "nonpayable",
      "type": "function"
    },
    {
      "inputs": [
        {
          "internalType": "uint256",
          "name": "_amount",
          "type": "uint256"
        },
        {
          "internalType": "bool",
          "name": "_liveWallet",
          "type": "bool"
        }
      ],
      "name": "leaveStaking",
      "outputs": [],
      "stateMutability": "nonpayable",
      "type": "function"
    },
    {
      "inputs": [],
      "name": "totalPendingRewards",
      "outputs": [
        {
          "internalType": "uint256",
          "name": "",
          "type": "uint256"
        }
      ],
      "stateMutability": "view",
      "type": "function"
    },
    {
      "inputs": [
        {
          "internalType": "address",
          "name": "_address",
          "type": "address"
        }
      ],
      "name": "pendingReward",
      "outputs": [
        {
          "internalType": "uint256",
          "name": "",
          "type": "uint256"
        }
      ],
      "stateMutability": "view",
      "type": "function"
    },
    {
      "inputs": [],
      "name": "compoundAll",
      "outputs": [],
      "stateMutability": "nonpayable",
      "type": "function"
    },
    {
      "inputs": [
        {
          "internalType": "uint256",
          "name": "_amount",
          "type": "uint256"
        },
        {
          "internalType": "address",
          "name": "_recipient",
          "type": "address"
        },
        {
          "internalType": "address",
          "name": "_lwAddress",
          "type": "address"
        }
      ],
      "name": "freezeStaking",
      "outputs": [],
      "stateMutability": "nonpayable",
      "type": "function"
    },
    {
      "inputs": [
        {
          "internalType": "uint256",
          "name": "_amount",
          "type": "uint256"
        }
      ],
      "name": "unfreezeStaking",
      "outputs": [],
      "stateMutability": "nonpayable",
      "type": "function"
    },
    {
      "inputs": [],
      "name": "indexesLength",
      "outputs": [
        {
          "internalType": "uint256",
          "name": "_addressesLength",
          "type": "uint256"
        }
      ],
      "stateMutability": "view",
      "type": "function"
    },
    {
      "inputs": [
        {
          "internalType": "uint256",
          "name": "_fee",
          "type": "uint256"
        }
      ],
      "name": "setPerformanceFeeCompounder",
      "outputs": [],
      "stateMutability": "nonpayable",
      "type": "function"
    },
    {
      "inputs": [
        {
          "internalType": "uint256",
          "name": "_fee",
          "type": "uint256"
        }
      ],
      "name": "setPerformanceFeeBurn",
      "outputs": [],
      "stateMutability": "nonpayable",
      "type": "function"
    },
    {
      "inputs": [
        {
          "internalType": "uint256",
          "name": "_fee",
          "type": "uint256"
        }
      ],
      "name": "setEarlyWithdrawFee",
      "outputs": [],
      "stateMutability": "nonpayable",
      "type": "function"
    },
    {
      "inputs": [
        {
          "internalType": "uint256",
          "name": "_fee",
          "type": "uint256"
        }
      ],
      "name": "setPerformanceFeeReserve",
      "outputs": [],
      "stateMutability": "nonpayable",
      "type": "function"
    },
    {
      "inputs": [
        {
          "internalType": "uint256",
          "name": "_time",
          "type": "uint256"
        }
      ],
      "name": "setEarlyWithdrawFeeTime",
      "outputs": [],
      "stateMutability": "nonpayable",
      "type": "function"
    },
    {
      "inputs": [
        {
          "internalType": "uint256",
          "name": "_limit",
          "type": "uint256"
        }
      ],
      "name": "setAutoCompoundLimit",
      "outputs": [],
      "stateMutability": "nonpayable",
      "type": "function"
    }
  ],
  "bytecode": "0x6080604052600a600155606460025560326003556105dc60045560be600555612a3060065560036007556007546203f480816200003857fe5b046008556109c46009556000600a556000601355674c53ecdc18a6000060145560006018556000601955600a601a553480156200007457600080fd5b506040516200353b3803806200353b833981810160405260608110156200009a57600080fd5b50805160208201516040909201519091906000620000c06001600160e01b036200016c16565b600080546001600160a01b0319166001600160a01b0383169081178255604051929350917f8be0079c531659141344cd1fd0a4f28419497f9722a3daafe3b4186f6b6457e0908290a350600b80546001600160a01b0319166001600160a01b038516179055678ac7230489e8000082116200013b5760148290555b601580546001600160a01b0319166001600160a01b03929092169190911790555050600060125542601b5562000170565b3390565b6133bb80620001806000396000f3fe608060405234801561001057600080fd5b50600436106103415760003560e01c806376e9e6c0116101bd578063c53f871f116100f9578063ec1371f2116100a2578063f2fde38b1161007c578063f2fde38b146106e7578063f40f0f521461070d578063f79ed94b14610733578063fa2b8a5d1461073b57610341565b8063ec1371f2146106cf578063ecb1c924146106d7578063ecfb49a3146106df57610341565b8063dc6e13e1116100d3578063dc6e13e114610643578063e39faaa4146106aa578063e3aeeb46146106c757610341565b8063c53f871f14610616578063c61f1c0b14610633578063d54ad2a11461063b57610341565b8063a775573a11610166578063bc063e1a11610140578063bc063e1a146105c3578063bca5503d146105cb578063bde8a93e146105d3578063c22982f4146105f957610341565b8063a775573a14610596578063a80a7882146105b3578063b359a9f9146105bb57610341565b80638f44ebfc116101975780638f44ebfc146105345780639b05ddb3146105685780639e13900c1461057057610341565b806376e9e6c014610507578063817b1cd2146105245780638da5cb5b1461052c57610341565b8063445e76881161028c5780636535fc66116102355780636903d0b61161020f5780636903d0b6146104d25780636e74d2e2146104da5780636f90e046146104e2578063715018a6146104ff57610341565b80636535fc66146104a5578063668579c9146104c25780636874d620146104ca57610341565b80634bf211b8116102665780634bf211b8146104785780635832d571146104805780635d66471a1461049d57610341565b8063445e76881461044357806349535ef5146104685780634b37f0061461047057610341565b8063289bac07116102ee57806338ed019a116102c857806338ed019a146104015780633a53ed491461040957806341441d3b1461042657610341565b8063289bac07146103bb5780632e0ae2f2146103c35780632e5f6d4c146103cb57610341565b80631f2dc5ef1161031f5780631f2dc5ef1461038c5780632533830a1461039457806326cba3361461039c57610341565b80630a3960bc146103465780630c657eb0146103605780631e7f87bc14610384575b600080fd5b61034e610743565b60408051918252519081900360200190f35b610368610749565b604080516001600160a01b039092168252519081900360200190f35b61034e610758565b61034e61075e565b61034e610764565b6103b9600480360360208110156103b257600080fd5b503561076a565b005b61034e610884565b61034e61088a565b6103e8600480360360208110156103e157600080fd5b5035610890565b6040805192835260208301919091528051918290030190f35b61034e6108bb565b6103b96004803603602081101561041f57600080fd5b50356108c1565b6103b96004803603602081101561043c57600080fd5b50356109f0565b6103b96004803603604081101561045957600080fd5b50803590602001351515610cd6565b61034e61143c565b61034e611442565b61034e611448565b6103686004803603602081101561049657600080fd5b503561144e565b61034e611475565b6103b9600480360360208110156104bb57600080fd5b503561147b565b61034e611596565b61034e61159c565b61034e6115a2565b61034e6115a8565b6103b9600480360360208110156104f857600080fd5b50356115ae565b6103b9611672565b6103b96004803603602081101561051d57600080fd5b5035611733565b61034e611836565b61036861183c565b6103b96004803603606081101561054a57600080fd5b508035906001600160a01b036020820135811691604001351661184c565b6103b96119bb565b6103b96004803603602081101561058657600080fd5b50356001600160a01b031661232d565b6103b9600480360360208110156105ac57600080fd5b50356123c6565b61034e61247c565b610368612482565b61034e612491565b61034e612497565b6103b9600480360360208110156105e957600080fd5b50356001600160a01b031661249d565b6103b96004803603602081101561060f57600080fd5b5035612536565b6103b96004803603602081101561062c57600080fd5b5035612650565b61034e61276a565b61034e612770565b6106696004803603602081101561065957600080fd5b50356001600160a01b0316612776565b604080519889526020890197909752878701959095526060870193909352608086019190915260a085015260c084015260e083015251908190036101000190f35b6103b9600480360360208110156106c057600080fd5b50356127b9565b610368612872565b61034e612881565b61034e6128e9565b61034e6128ef565b6103b9600480360360208110156106fd57600080fd5b50356001600160a01b03166128f5565b61034e6004803603602081101561072357600080fd5b50356001600160a01b031661296b565b61036861297e565b61034e61298d565b60055481565b600c546001600160a01b031681565b60185481565b61271081565b60195481565b610772612999565b6000546001600160a01b039081169116146107d4576040805162461bcd60e51b815260206004820181905260248201527f4f776e61626c653a2063616c6c6572206973206e6f7420746865206f776e6572604482015290519081900360640190fd5b60008111610829576040805162461bcd60e51b815260206004820152601a60248201527f466565206d7573742062652067726561746572207468616e2030000000000000604482015290519081900360640190fd5b6103e8811061087f576040805162461bcd60e51b815260206004820152601960248201527f466565206d757374206265206c657373207468616e2031302500000000000000604482015290519081900360640190fd5b600155565b600f5490565b60045481565b6010818154811061089d57fe5b60009182526020909120600290910201805460019091015490915082565b60135481565b600b54604080517f70a08231000000000000000000000000000000000000000000000000000000008152336004820152905183926001600160a01b0316916370a08231916024808301926020929190829003018186803b15801561092457600080fd5b505afa158015610938573d6000803e3d6000fd5b505050506040513d602081101561094e57600080fd5b5051101561098d5760405162461bcd60e51b81526004018080602001828103825260268152602001806133236026913960400191505060405180910390fd5b6011546109a0908263ffffffff61299d16565b601155600b546109c1906001600160a01b031633308463ffffffff612a0016565b6011546040517f1ef37ab665f7c977b577275d7a49e72cd18d1143eccd1112f1198e4a39d1428c90600090a250565b600b54604080517f70a08231000000000000000000000000000000000000000000000000000000008152336004820152905183926001600160a01b0316916370a08231916024808301926020929190829003018186803b158015610a5357600080fd5b505afa158015610a67573d6000803e3d6000fd5b505050506040513d6020811015610a7d57600080fd5b50511015610abc5760405162461bcd60e51b81526004018080602001828103825260268152602001806133236026913960400191505060405180910390fd5b60008111610b11576040805162461bcd60e51b815260206004820152601660248201527f496e76616c6964207374616b696e6720616d6f756e7400000000000000000000604482015290519081900360640190fd5b600060115411610b68576040805162461bcd60e51b815260206004820152601560248201527f52657761726420506f6f6c204578686175737465640000000000000000000000604482015290519081900360640190fd5b600b54610b86906001600160a01b031633308463ffffffff612a0016565b601654610b9257436012555b336000908152600e6020526040902054610c1357336000818152600e60205260409020436004820155600f80546001810182557f8d1108e10bcb7c27dddfc02ed9d693a074039d026cf4ea4240b40f7d581ac80201805473ffffffffffffffffffffffffffffffffffffffff19169093179092559054600019016006909101555b610c3933610c2033612a88565b600b546001600160a01b0316919063ffffffff612c0016565b601254336000908152600e602052604090206004015411610c6c57336000908152600e6020526040902080546001909101555b336000908152600e6020526040902054610c8c908263ffffffff61299d16565b336000908152600e6020526040902090815543600590910155601654600a54610cba9163ffffffff61299d16565b600a5550336000908152600e6020526040902043600490910155565b6000610ce133612a88565b336000908152600e6020526040902043600490910155601154909150610d0d908263ffffffff612c8516565b60115560185460009015610d7957601654336000908152600e6020526040902054601854610d7292610d56929091610d4a9163ffffffff612cc716565b9063ffffffff612d2016565b336000908152600e60205260409020549063ffffffff612c8516565b9050610daa565b50336000908152600e60205260409020805460079091015415610daa57336000908152600e60205260408120600701555b83811015610de95760405162461bcd60e51b815260040180806020018281038252603f8152602001806131ee603f913960400191505060405180910390fd5b83600a5410610e0d57600a54610e05908563ffffffff612c8516565b600a55610e44565b6000610e24600a5486612c8590919063ffffffff16565b6000600a55601654909150610e3f908263ffffffff612c8516565b601655505b336000908152600e6020526040902054610e64908563ffffffff612c8516565b336000908152600e60205260409020556018541561108b57336000908152600e602052604090206007015415610ef657600654336000908152600e6020526040902060070154610eb99163ffffffff61299d16565b4211610ef65760405162461bcd60e51b81526004018080602001828103825260338152602001806132f06033913960400191505060405180910390fd5b6000610f13612710610d4a60045488612cc790919063ffffffff16565b336000908152600e60205260409020426007909101559050610f3b858263ffffffff612c8516565b9450601854811115610ff0576000610f5e60185483612c8590919063ffffffff16565b600b54600c546040805163095ea7b360e01b81526001600160a01b03928316600482015260248101859052905193945091169163095ea7b3916044808201926020929091908290030181600087803b158015610fb957600080fd5b505af1158015610fcd573d6000803e3d6000fd5b505050506040513d6020811015610fe357600080fd5b5050600060185550611007565b601854611003908263ffffffff612c8516565b6018555b600c54604080517f59c53fd40000000000000000000000000000000000000000000000000000000081526004810184905290516001600160a01b03909216916359c53fd49160248082019260009290919082900301818387803b15801561106d57600080fd5b505af1158015611081573d6000803e3d6000fd5b505050505061110e565b600854336000908152600e60205260409020600501546110b09163ffffffff61299d16565b43101561110e5760006110d4612710610d4a60035488612cc790919063ffffffff16565b90506110e6858263ffffffff612c8516565b601554600b5491965061110c916001600160a01b0390811691168363ffffffff612c0016565b505b61111e848363ffffffff61299d16565b93508261114757600b54611142906001600160a01b0316338663ffffffff612c0016565b611251565b600b54600d546040805163095ea7b360e01b81526001600160a01b039283166004820152602481018890529051919092169163095ea7b39160448083019260209291908290030181600087803b1580156111a057600080fd5b505af11580156111b4573d6000803e3d6000fd5b505050506040513d60208110156111ca57600080fd5b5050600d54604080517f7efd38130000000000000000000000000000000000000000000000000000000081526004810187905233602482015290516001600160a01b0390921691637efd38139160448082019260009290919082900301818387803b15801561123857600080fd5b505af115801561124c573d6000803e3d6000fd5b505050505b336000908152600e602052604090205461140a57336000908152600e60205260409020600f5460068201546000199091011461138e57600f805460009190600019810190811061129d57fe5b9060005260206000200160009054906101000a90046001600160a01b0316905080600f8360060154815481106112cf57fe5b6000918252602080832091909101805473ffffffffffffffffffffffffffffffffffffffff19166001600160a01b039485161790556006858101548585168452600e8352604080852090920155600b54815163095ea7b360e01b815230600482015260248101859052915194169363095ea7b393604480840194938390030190829087803b15801561136057600080fd5b505af1158015611374573d6000803e3d6000fd5b505050506040513d602081101561138a57600080fd5b5050505b600f80548061139957fe5b600082815260208082208301600019908101805473ffffffffffffffffffffffffffffffffffffffff19169055909201909255338252600e90526040812081815560018101829055600281018290556003810182905560048101829055600581018290556006810182905560070155505b6011546040517f1ef37ab665f7c977b577275d7a49e72cd18d1143eccd1112f1198e4a39d1428c90600090a250505050565b60095481565b60075481565b60125481565b600f818154811061145b57fe5b6000918252602090912001546001600160a01b0316905081565b600a5481565b611483612999565b6000546001600160a01b039081169116146114e5576040805162461bcd60e51b815260206004820181905260248201527f4f776e61626c653a2063616c6c6572206973206e6f7420746865206f776e6572604482015290519081900360640190fd5b6000811161153a576040805162461bcd60e51b815260206004820152601a60248201527f466565206d7573742062652067726561746572207468616e2030000000000000604482015290519081900360640190fd5b6103e8811115611591576040805162461bcd60e51b815260206004820152601960248201527f466565206d757374206265206c657373207468616e2031302500000000000000604482015290519081900360640190fd5b600555565b601b5481565b60065481565b60085481565b60025481565b6115b6612999565b6000546001600160a01b03908116911614611618576040805162461bcd60e51b815260206004820181905260248201527f4f776e61626c653a2063616c6c6572206973206e6f7420746865206f776e6572604482015290519081900360640190fd5b6000811161166d576040805162461bcd60e51b815260206004820152601b60248201527f54696d65206d7573742062652067726561746572207468616e20300000000000604482015290519081900360640190fd5b600855565b61167a612999565b6000546001600160a01b039081169116146116dc576040805162461bcd60e51b815260206004820181905260248201527f4f776e61626c653a2063616c6c6572206973206e6f7420746865206f776e6572604482015290519081900360640190fd5b600080546040516001600160a01b03909116907f8be0079c531659141344cd1fd0a4f28419497f9722a3daafe3b4186f6b6457e0908390a36000805473ffffffffffffffffffffffffffffffffffffffff19169055565b61173b612999565b6000546001600160a01b0390811691161461179d576040805162461bcd60e51b815260206004820181905260248201527f4f776e61626c653a2063616c6c6572206973206e6f7420746865206f776e6572604482015290519081900360640190fd5b600081116117f2576040805162461bcd60e51b815260206004820152601260248201527f4c696d69742063616e206e6f7420626520300000000000000000000000000000604482015290519081900360640190fd5b601e81106118315760405162461bcd60e51b815260040180806020018281038252602b8152602001806132a4602b913960400191505060405180910390fd5b601a55565b60165481565b6000546001600160a01b03165b90565b600c546001600160a01b031633146118ab576040805162461bcd60e51b815260206004820152601760248201527f43616c6c6574206d7573742062652062616e6b726f6c6c000000000000000000604482015290519081900360640190fd5b6018546016546118c09163ffffffff612c8516565b8311156118fe5760405162461bcd60e51b815260040180806020018281038252603d815260200180613349603d913960400191505060405180910390fd5b601854611911908463ffffffff61299d16565b601855604080517ff62cf8d0000000000000000000000000000000000000000000000000000000008152600481018590526001600160a01b0384811660248301529151839283169163f62cf8d091604480830192600092919082900301818387803b15801561197f57600080fd5b505af1158015611993573d6000803e3d6000fd5b5050600b546119b592506001600160a01b03169050838663ffffffff612c0016565b50505050565b436012541115611a12576040805162461bcd60e51b815260206004820181905260248201527f436f6d706f756e6420416c6c206e6f7420796574206170706c696361626c652e604482015290519081900360640190fd5b600060165411611a69576040805162461bcd60e51b815260206004820152601a60248201527f4e6f205374616b6564207265776172647320746f20636c61696d000000000000604482015290519081900360640190fd5b600f54601a5460009182918291829181111580611a9c5750600f54601a54601354611a999163ffffffff61299d16565b10155b15611aaa5750600f54611ac2565b601a54601354611abf9163ffffffff61299d16565b90505b600c54604080517f45c9c1d100000000000000000000000000000000000000000000000000000000815290516000926001600160a01b0316916345c9c1d191600480830192602092919082900301818787803b158015611b2157600080fd5b505af1158015611b35573d6000803e3d6000fd5b505050506040513d6020811015611b4b57600080fd5b505190508015611be757611b5d613197565b5060408051808201909152818152602081018281526010805460018101825560009190915282517f1b6847dc741a1b0cd08d278845f9d819d87b734759afb55fe2de5cb82a9ae67260029092029182015590517f1b6847dc741a1b0cd08d278845f9d819d87b734759afb55fe2de5cb82a9ae67390910155601954611be2908361299d565b601955505b601354611d305760105460011015611d3057611c4e6010600081548110611c0a57fe5b906000526020600020906002020160010154601060016010805490500381548110611c3157fe5b60009182526020909120600290910201549063ffffffff61299d16565b601080546000198101908110611c6057fe5b6000918252602090912060029091020155601080546000198101908110611c8357fe5b6000918252602090912060029091020154601080546000198101908110611ca657fe5b6000918252602090912060016002909202010155601080546000198101908110611ccc57fe5b90600052602060002090600202016010600081548110611ce857fe5b6000918252602090912082546002909202019081556001918201549101556010805480611d1157fe5b6000828152602081206002600019909301928302018181556001015590555b6013545b8281101561221d576000611d68600f8381548110611d4e57fe5b6000918252602090912001546001600160a01b0316612a88565b90508015611d9957601754611d83908263ffffffff61299d16565b601755611d96858263ffffffff61299d16565b94505b6010541561200e5760006010600081548110611db157fe5b906000526020600020906002020160010154111561200e576000809050601254600e6000600f8681548110611de257fe5b60009182526020808320909101546001600160a01b031683528201929092526040019020600401541115611e8457611e7d601654610d4a600e6000600f8881548110611e2a57fe5b60009182526020808320909101546001600160a01b031683528201929092526040018120600101546010805491929091611e6057fe5b60009182526020909120600290910201549063ffffffff612cc716565b9050611ed4565b611ed1601654610d4a600e6000600f8881548110611e9e57fe5b60009182526020808320909101546001600160a01b031683528201929092526040018120546010805491929091611e6057fe5b90505b6010600081548110611ee257fe5b906000526020600020906002020160010154811115611f1e576010600081548110611f0957fe5b90600052602060002090600202016001015490505b611f50816010600081548110611f3057fe5b906000526020600020906002020160010154612c8590919063ffffffff16565b6010600081548110611f5e57fe5b90600052602060002090600202016001018190555060056010600081548110611f8357fe5b90600052602060002090600202016001015411611ffa57611fce6010600081548110611fab57fe5b90600052602060002090600202016001015460115461299d90919063ffffffff16565b60118190555060006010600081548110611fe457fe5b9060005260206000209060020201600101819055505b61200a828263ffffffff61299d16565b9150505b80156121c3576000612031612710610d4a60025485612cc790919063ffffffff16565b9050612043898263ffffffff61299d16565b98506000612062612710610d4a60015486612cc790919063ffffffff16565b9050612074888263ffffffff61299d16565b97506000612093612710610d4a60055487612cc790919063ffffffff16565b90506120a58a8263ffffffff61299d16565b99506120b7848463ffffffff612c8516565b93506120c9848363ffffffff612c8516565b93506120db848263ffffffff612c8516565b336000908152600e6020526040902060020154909450612101908563ffffffff61299d16565b600e6000336001600160a01b03166001600160a01b031681526020019081526020016000206002018190555061217384600e6000600f898154811061214257fe5b60009182526020808320909101546001600160a01b031683528201929092526040019020549063ffffffff61299d16565b600e6000600f888154811061218457fe5b60009182526020808320909101546001600160a01b03168352820192909252604001902055600a546121bc908563ffffffff61299d16565b600a555050505b43600e6000600f85815481106121d557fe5b60009182526020808320909101546001600160a01b0316835282019290925260400190206004015560135461221190600163ffffffff61299d16565b60135550600101611d34565b50600f546013541061224c576000601355600a546016546122439163ffffffff61299d16565b6016556000600a555b60115461225f908463ffffffff612c8516565b60115543601255600b54604080517f42966c680000000000000000000000000000000000000000000000000000000081526004810189905290516001600160a01b03909216916342966c689160248082019260009290919082900301818387803b1580156122cc57600080fd5b505af11580156122e0573d6000803e3d6000fd5b5050600b5461230292506001600160a01b03169050338663ffffffff612c0016565b601554600b54612325916001600160a01b0391821691168763ffffffff612c0016565b505050505050565b612335612999565b6000546001600160a01b03908116911614612397576040805162461bcd60e51b815260206004820181905260248201527f4f776e61626c653a2063616c6c6572206973206e6f7420746865206f776e6572604482015290519081900360640190fd5b600d805473ffffffffffffffffffffffffffffffffffffffff19166001600160a01b0392909216919091179055565b6123ce612999565b6000546001600160a01b03908116911614612430576040805162461bcd60e51b815260206004820181905260248201527f4f776e61626c653a2063616c6c6572206973206e6f7420746865206f776e6572604482015290519081900360640190fd5b678ac7230489e800008111156124775760405162461bcd60e51b815260040180806020018281038252602781526020018061327d6027913960400191505060405180910390fd5b601455565b60035481565b600b546001600160a01b031681565b6103e881565b60015481565b6124a5612999565b6000546001600160a01b03908116911614612507576040805162461bcd60e51b815260206004820181905260248201527f4f776e61626c653a2063616c6c6572206973206e6f7420746865206f776e6572604482015290519081900360640190fd5b600c805473ffffffffffffffffffffffffffffffffffffffff19166001600160a01b0392909216919091179055565b61253e612999565b6000546001600160a01b039081169116146125a0576040805162461bcd60e51b815260206004820181905260248201527f4f776e61626c653a2063616c6c6572206973206e6f7420746865206f776e6572604482015290519081900360640190fd5b600081116125f5576040805162461bcd60e51b815260206004820152601a60248201527f466565206d7573742062652067726561746572207468616e2030000000000000604482015290519081900360640190fd5b6103e8811061264b576040805162461bcd60e51b815260206004820152601960248201527f466565206d757374206265206c657373207468616e2031302500000000000000604482015290519081900360640190fd5b600355565b612658612999565b6000546001600160a01b039081169116146126ba576040805162461bcd60e51b815260206004820181905260248201527f4f776e61626c653a2063616c6c6572206973206e6f7420746865206f776e6572604482015290519081900360640190fd5b6000811161270f576040805162461bcd60e51b815260206004820152601a60248201527f466565206d7573742062652067726561746572207468616e2030000000000000604482015290519081900360640190fd5b6103e88110612765576040805162461bcd60e51b815260206004820152601960248201527f466565206d757374206265206c657373207468616e2031302500000000000000604482015290519081900360640190fd5b600255565b60145481565b60175481565b600e602052600090815260409020805460018201546002830154600384015460048501546005860154600687015460079097015495969495939492939192909188565b600c546001600160a01b03163314612818576040805162461bcd60e51b815260206004820152601760248201527f43616c6c6574206d7573742062652062616e6b726f6c6c000000000000000000604482015290519081900360640190fd5b6018548111156128595760405162461bcd60e51b815260040180806020018281038252603c8152602001806131b2603c913960400191505060405180910390fd5b60185461286c908263ffffffff612c8516565b60185550565b600d546001600160a01b031681565b6000601254431161289457506000611849565b6012546128a357506000611849565b6011546128b257506000611849565b60006128c960125443612c8590919063ffffffff16565b905060006128e260145483612cc790919063ffffffff16565b9250505090565b601a5481565b60115481565b6128fd612999565b6000546001600160a01b0390811691161461295f576040805162461bcd60e51b815260206004820181905260248201527f4f776e61626c653a2063616c6c6572206973206e6f7420746865206f776e6572604482015290519081900360640190fd5b61296881612d62565b50565b600061297682612a88565b90505b919050565b6015546001600160a01b031681565b678ac7230489e8000081565b3390565b6000828201838110156129f7576040805162461bcd60e51b815260206004820152601b60248201527f536166654d6174683a206164646974696f6e206f766572666c6f770000000000604482015290519081900360640190fd5b90505b92915050565b604080516001600160a01b0380861660248301528416604482015260648082018490528251808303909101815260849091019091526020810180517bffffffffffffffffffffffffffffffffffffffffffffffffffffffff167f23b872dd000000000000000000000000000000000000000000000000000000001790526119b5908590612e0f565b6001600160a01b0381166000908152600e60205260408120600401544311612ab257506000612979565b6011541580612ac15750601654155b15612ace57506000612979565b6001600160a01b0382166000908152600e6020526040812060040154612afb90439063ffffffff612c8516565b90506000806018541115612b4f57612b48612b3b612b2c612710610d4a600954601454612cc790919063ffffffff16565b6014549063ffffffff61299d16565b839063ffffffff612cc716565b9050612b66565b601454612b6390839063ffffffff612cc716565b90505b6012546001600160a01b0385166000908152600e602052604081206004015490911015612baf57506001600160a01b0384166000908152600e6020526040902060010154612bca565b506001600160a01b0384166000908152600e60205260409020545b601654600090612be490610d4a858563ffffffff612cc716565b9050601154811115612bf557506011545b935061297992505050565b604080516001600160a01b038416602482015260448082018490528251808303909101815260649091019091526020810180517bffffffffffffffffffffffffffffffffffffffffffffffffffffffff167fa9059cbb00000000000000000000000000000000000000000000000000000000179052612c80908490612e0f565b505050565b60006129f783836040518060400160405280601e81526020017f536166654d6174683a207375627472616374696f6e206f766572666c6f770000815250612ec0565b600082612cd6575060006129fa565b82820282848281612ce357fe5b04146129f75760405162461bcd60e51b81526004018080602001828103825260218152602001806132cf6021913960400191505060405180910390fd5b60006129f783836040518060400160405280601a81526020017f536166654d6174683a206469766973696f6e206279207a65726f000000000000815250612f57565b6001600160a01b038116612da75760405162461bcd60e51b81526004018080602001828103825260268152602001806132576026913960400191505060405180910390fd5b600080546040516001600160a01b03808516939216917f8be0079c531659141344cd1fd0a4f28419497f9722a3daafe3b4186f6b6457e091a36000805473ffffffffffffffffffffffffffffffffffffffff19166001600160a01b0392909216919091179055565b6060612e64826040518060400160405280602081526020017f5361666542455032303a206c6f772d6c6576656c2063616c6c206661696c6564815250856001600160a01b0316612fbc9092919063ffffffff16565b805190915015612c8057808060200190516020811015612e8357600080fd5b5051612c805760405162461bcd60e51b815260040180806020018281038252602a81526020018061322d602a913960400191505060405180910390fd5b60008184841115612f4f5760405162461bcd60e51b81526004018080602001828103825283818151815260200191508051906020019080838360005b83811015612f14578181015183820152602001612efc565b50505050905090810190601f168015612f415780820380516001836020036101000a031916815260200191505b509250505060405180910390fd5b505050900390565b60008183612fa65760405162461bcd60e51b8152602060048201818152835160248401528351909283926044909101919085019080838360008315612f14578181015183820152602001612efc565b506000838581612fb257fe5b0495945050505050565b6060612fcb8484600085612fd3565b949350505050565b6060612fde8561315e565b61302f576040805162461bcd60e51b815260206004820152601d60248201527f416464726573733a2063616c6c20746f206e6f6e2d636f6e7472616374000000604482015290519081900360640190fd5b60006060866001600160a01b031685876040518082805190602001908083835b6020831061308c57805182527fffffffffffffffffffffffffffffffffffffffffffffffffffffffffffffffe0909201916020918201910161304f565b6001836020036101000a03801982511681845116808217855250505050505090500191505060006040518083038185875af1925050503d80600081146130ee576040519150601f19603f3d011682016040523d82523d6000602084013e6130f3565b606091505b50915091508115613107579150612fcb9050565b8051156131175780518082602001fd5b60405162461bcd60e51b8152602060048201818152865160248401528651879391928392604401919085019080838360008315612f14578181015183820152602001612efc565b6000813f7fc5d2460186f7233c927e7db2dcc703c0e500b653ca82273b7bfad8045d85a470818114801590612fcb575050151592915050565b60405180604001604052806000815260200160008152509056fe756e667265657a6520616d6f756e742063616e742062652067726561746572207468616e2063757272656e746c792066726f7a656e20616d6f756e74576974686472617720616d6f756e742063616e206e6f742062652067726561746572207468616e20617661696c61626c65207374616b656420616d6f756e745361666542455032303a204245503230206f7065726174696f6e20646964206e6f7420737563636565644f776e61626c653a206e6577206f776e657220697320746865207a65726f206164647265737343727573682050657220426c6f636b2063616e206e6f74206265206d6f7265207468616e2031304d6178206175746f636f6d706f756e64206c696d69742063616e6e6f742062652067726561746572203330536166654d6174683a206d756c7469706c69636174696f6e206f766572666c6f774f6e6c79204f6e6520576974686472617720616c6c6f77656420706572203320686f75727320647572696e6720667265657a65496e73756666696369656e7420437275736820746f6b656e7320666f72207472616e73666572467265657a6520616d6f756e742073686f756c64206265206c657373207468616e206f7220657175616c20746f20617661696c61626c652066756e6473a264697066735822122014aa20a58a8066ba2ef7ddf8afcb66ae448f14983b3cddc45fdf322eec7ba9e964736f6c63430006050033",
  "immutableReferences": {},
  "source": "//SPDX-License-Identifier: MIT\npragma solidity >=0.6.5;\n\nimport \"@pancakeswap/pancake-swap-lib/contracts/access/Ownable.sol\";\nimport \"./CrushCoin.sol\";\nimport \"@pancakeswap/pancake-swap-lib/contracts/math/SafeMath.sol\";\nimport \"@pancakeswap/pancake-swap-lib/contracts/token/BEP20/SafeBEP20.sol\";\nimport \"./HouseBankroll.sol\";\nimport \"./LiveWallet.sol\";\ncontract BitcrushStaking is Ownable {\n    using SafeMath for uint256;\n    using SafeBEP20 for CRUSHToken;\n    uint256 public constant MAX_CRUSH_PER_BLOCK = 10000000000000000000;\n    uint256 public constant MAX_FEE = 1000; // 1000/10000 * 100 = 10%\n    uint256 public performanceFeeCompounder = 10; // 10/10000 * 100 = 0.1%\n    uint256 public performanceFeeBurn       = 100; // 100/10000 * 100 = 1%\n    uint256 public constant divisor = 10000;\n    \n    uint256  public earlyWithdrawFee         = 50; // 50/10000 * 100 = 0.5% \n    uint256  public frozenEarlyWithdrawFee   = 1500; // 50/10000 * 100 = 0.5% \n    uint256  public performanceFeeReserve    = 190; // 190/10000 * 100 = 1.9%\n    \n    uint256  public frozenEarlyWithdrawFeeTime   = 10800; // 50/10000 * 100 = 0.5% \n\n    \n    uint256 public blockPerSecond = 3;\n    uint256 public earlyWithdrawFeeTime = 72 * 60 * 60 / blockPerSecond;\n    uint256 public apyBoost = 2500; //2500/10000 * 100 = 25%\n    uint256 public pendingStakedValue = 0;\n\n    \n    //address of the crush token\n    CRUSHToken public crush;\n    BitcrushBankroll public bankroll;\n    BitcrushLiveWallet public liveWallet;\n    struct staked {\n        uint256 stakedAmount;\n        uint256 lastStaking;\n        uint256 claimedAmount;\n        uint256 profit;\n        uint256 lastBlockCompounded;\n        uint256 lastBlockStaked;\n        uint256 index;\n        uint256 lastFrozenWithdraw;\n    }\n    mapping (address => staked) public stakings;\n    address[] public addressIndexes;\n\n    struct profit {\n        uint256 total;\n        uint256 remaining;\n    }\n    profit[] public profits;\n\n    uint256 public totalPool;\n    uint256 public lastAutoCompoundBlock;\n    uint256 public batchStartingIndex = 0;\n    \n    uint256 public crushPerBlock = 5500000000000000000;\n    address public reserveAddress;\n\n    uint256 public totalStaked;\n    \n    uint256 public totalClaimed;\n    uint256 public totalFrozen = 0;\n    uint256 public totalProfitDistributed = 0;\n    \n    uint256 public autoCompoundLimit = 10;\n\n    uint256 public deploymentTimeStamp;\n    event RewardPoolUpdated (uint256 indexed _totalPool);\n    \n    event StakeUpdated (address indexed recipeint, uint256 indexed _amount);\n    \n    constructor (CRUSHToken _crush, uint256 _crushPerBlock, address _reserveAddress) public{\n        crush = _crush;\n        if(_crushPerBlock <= MAX_CRUSH_PER_BLOCK){\n            crushPerBlock = _crushPerBlock;\n        }\n    \n        reserveAddress = _reserveAddress;\n        lastAutoCompoundBlock = 0;\n        deploymentTimeStamp = block.timestamp;\n        \n    }\n    /// Store `_bankroll`.\n    /// @param _bankroll the new value to store\n    /// @dev stores the _bankroll address in the state variable `bankroll`\n    function setBankroll (BitcrushBankroll _bankroll) public onlyOwner{\n        bankroll = _bankroll;\n    }\n\n    /// Store `_liveWallet`.\n    /// @param _liveWallet the new value to store\n    /// @dev stores the _liveWallet address in the state variable `liveWallet`\n    function setLiveWallet (BitcrushLiveWallet _liveWallet) public onlyOwner{\n        liveWallet = _liveWallet;\n    }\n\n    /// Adds the provided amount to the totalPool\n    /// @param _amount the amount to add\n    /// @dev adds the provided amount to `totalPool` state variable\n    function addRewardToPool (uint256 _amount) public  {\n        require(crush.balanceOf(msg.sender) >= _amount, \"Insufficient Crush tokens for transfer\");\n        totalPool = totalPool.add(_amount);\n        crush.safeTransferFrom(msg.sender, address(this), _amount);\n        emit RewardPoolUpdated(totalPool);\n    }\n\n    \n    function setCrushPerBlock (uint256 _amount) public onlyOwner {\n        require(_amount >= 0, \"Crush per Block can not be negative\" );\n        require(_amount <= MAX_CRUSH_PER_BLOCK, \"Crush Per Block can not be more than 10\");\n        crushPerBlock = _amount;\n    }\n\n\n    /// Stake the provided amount\n    /// @param _amount the amount to stake\n    /// @dev stakes the provided amount\n    function enterStaking (uint256 _amount) public  {\n        require(crush.balanceOf(msg.sender) >= _amount, \"Insufficient Crush tokens for transfer\");\n        require(_amount > 0,\"Invalid staking amount\");\n        require(totalPool > 0, \"Reward Pool Exhausted\");\n        \n        crush.safeTransferFrom(msg.sender, address(this), _amount);\n        if(totalStaked == 0){\n            lastAutoCompoundBlock = block.number;\n        }\n        if(stakings[msg.sender].stakedAmount == 0){\n            stakings[msg.sender].lastBlockCompounded = block.number;\n            addressIndexes.push(msg.sender);\n            stakings[msg.sender].index = addressIndexes.length-1;\n        }\n        crush.safeTransfer(msg.sender, getReward(msg.sender));\n        \n       \n        if(stakings[msg.sender].lastBlockCompounded <= lastAutoCompoundBlock){\n            stakings[msg.sender].lastStaking = stakings[msg.sender].stakedAmount; \n        }\n       \n        \n        \n        stakings[msg.sender].stakedAmount = stakings[msg.sender].stakedAmount.add(_amount);\n        \n        stakings[msg.sender].lastBlockStaked = block.number;\n        pendingStakedValue = pendingStakedValue.add(totalStaked);\n        //totalStaked = totalStaked.add(_amount);\n        stakings[msg.sender].lastBlockCompounded = block.number;\n        \n       \n    }\n\n\n\n    /// Leaves staking for a user by the specified amount and transfering staked amount and reward to users address\n    /// @param _amount the amount to unstake\n    /// @dev leaves staking and deducts total pool by the users reward. early withdrawal fee applied if withdraw is made before earlyWithdrawFeeTime\n    function leaveStaking (uint256 _amount, bool _liveWallet) public  {\n        uint256 reward = getReward(msg.sender);\n        stakings[msg.sender].lastBlockCompounded = block.number;\n        totalPool = totalPool.sub(reward);\n        uint256 availableStaked;\n        if(totalFrozen > 0){\n            availableStaked = stakings[msg.sender].stakedAmount.sub(totalFrozen.mul(stakings[msg.sender].stakedAmount).div(totalStaked));\n        }else {\n            availableStaked = stakings[msg.sender].stakedAmount;\n            if(stakings[msg.sender].lastFrozenWithdraw > 0){\n                stakings[msg.sender].lastFrozenWithdraw = 0;\n            }\n            \n        }\n        require(availableStaked >= _amount, \"Withdraw amount can not be greater than available staked amount\");\n        \n        if(pendingStakedValue >= _amount){\n            pendingStakedValue = pendingStakedValue.sub(_amount);\n        }else {\n            uint256 difference = _amount.sub(pendingStakedValue);\n            pendingStakedValue = 0;\n            totalStaked = totalStaked.sub(difference);\n        }\n        \n        stakings[msg.sender].stakedAmount = stakings[msg.sender].stakedAmount.sub(_amount);\n        if(totalFrozen > 0 ){\n            if(stakings[msg.sender].lastFrozenWithdraw > 0 ) {\n                require(block.timestamp > stakings[msg.sender].lastFrozenWithdraw.add(frozenEarlyWithdrawFeeTime),\"Only One Withdraw allowed per 3 hours during freeze\");\n            }\n            uint256 withdrawalFee = _amount.mul(frozenEarlyWithdrawFee).div(divisor);\n            stakings[msg.sender].lastFrozenWithdraw = block.timestamp;\n            _amount = _amount.sub(withdrawalFee);\n            //todo send to bankroll\n            if(withdrawalFee > totalFrozen){\n                uint256 remainder = withdrawalFee.sub(totalFrozen);\n                crush.approve(address(bankroll), remainder);\n                totalFrozen = 0;\n            }else {\n                totalFrozen = totalFrozen.sub(withdrawalFee);\n            }\n            \n            bankroll.recoverBankroll(withdrawalFee);\n            \n        }\n        else if(block.number < stakings[msg.sender].lastBlockStaked.add(earlyWithdrawFeeTime)){\n            //apply fee\n            uint256 withdrawalFee = _amount.mul(earlyWithdrawFee).div(divisor);\n            _amount = _amount.sub(withdrawalFee);\n            crush.safeTransfer(reserveAddress, withdrawalFee);\n        }\n        _amount = _amount.add(reward);\n        if(_liveWallet == false){\n            crush.safeTransfer(msg.sender, _amount);\n        }else {\n            crush.approve(address(liveWallet), _amount);\n            liveWallet.addbetWithAddress(_amount, msg.sender);\n        }\n        \n        //remove from array\n        if(stakings[msg.sender].stakedAmount == 0){\n            staked storage staking = stakings[msg.sender];\n            if(staking.index != addressIndexes.length-1){\n                address lastAddress = addressIndexes[addressIndexes.length-1];\n                addressIndexes[staking.index] = lastAddress;\n                stakings[lastAddress].index = staking.index;\n                crush.approve( address(this), 0);\n            }\n            addressIndexes.pop();\n            delete stakings[msg.sender];\n        }\n        emit RewardPoolUpdated(totalPool);\n    }\n\n\n    function getReward(address _address) internal view returns (uint256) {\n        if(block.number <=  stakings[_address].lastBlockCompounded){\n            return 0;\n        }else {\n            if(totalPool == 0 || totalStaked ==0 ){\n                return 0;\n            }else {\n                //if the staker reward is greater than total pool => set it to total pool\n                uint256 blocks = block.number.sub(stakings[_address].lastBlockCompounded);\n                uint256 totalReward;\n                if(totalFrozen > 0){\n                    totalReward = blocks.mul(crushPerBlock.add(crushPerBlock.mul(apyBoost).div(divisor)));    \n                }else {\n                    totalReward = blocks.mul(crushPerBlock);    \n                }\n                uint256 fundsStaked = 0;\n                if(stakings[_address].lastBlockCompounded > lastAutoCompoundBlock){\n                    fundsStaked = stakings[_address].lastStaking;\n                }else {\n                    fundsStaked = stakings[_address].stakedAmount;\n                }\n                uint256 stakerReward = totalReward.mul(fundsStaked).div(totalStaked);\n                if(stakerReward > totalPool){\n                    stakerReward = totalPool;\n                }\n                return stakerReward;\n            }\n            \n        }\n    }\n\n    /// Calculates total potential pending rewards\n    /// @dev Calculates potential reward based on crush per block\n    function totalPendingRewards () public view returns (uint256){\n            if(block.number <= lastAutoCompoundBlock){\n                return 0;\n            }else if(lastAutoCompoundBlock == 0){\n                return 0;\n            }else if (totalPool == 0){\n                return 0;\n            }\n\n            uint256 blocks = block.number.sub(lastAutoCompoundBlock);\n            uint256 totalReward = blocks.mul(crushPerBlock);\n\n            return totalReward;\n    }\n\n    /// Get pending rewards of a user\n    /// @param _address the address to calculate the reward for\n    /// @dev calculates potential reward for the address provided based on crush per block\n    function pendingReward (address _address) public view returns (uint256){\n        return getReward(_address);\n    }\n\n   \n\n    /// compounds the rewards of all users in the pool\n    /// @dev compounds the rewards of all users in the pool add adds it into their staked amount while deducting fees\n    function compoundAll () public  {\n        require(lastAutoCompoundBlock <= block.number, \"Compound All not yet applicable.\");\n        require(totalStaked > 0, \"No Staked rewards to claim\" );\n        uint256 crushToBurn = 0;\n        uint256 performanceFee = 0;\n        \n        uint256 compounderReward = 0;\n        uint totalPoolDeducted = 0;\n        \n        uint256 batchLimit = addressIndexes.length;\n        if(addressIndexes.length <= autoCompoundLimit || batchStartingIndex.add(autoCompoundLimit) >= addressIndexes.length){\n            batchLimit = addressIndexes.length;\n        }else {\n            batchLimit = batchStartingIndex.add(autoCompoundLimit);\n        }\n        uint256 newProfit = bankroll.transferProfit();\n        if(newProfit > 0){\n            //profit deduction\n            profit memory prof = profit(newProfit,newProfit);\n            profits.push(prof);\n            totalProfitDistributed = totalProfitDistributed.add(newProfit);\n        }\n        if(batchStartingIndex == 0){\n            if(profits.length > 1){\n                profits[profits.length - 1].total = profits[profits.length - 1].total.add(profits[0].remaining); \n                profits[profits.length - 1].remaining = profits[profits.length - 1].total;\n                profits[0] = profits[profits.length - 1];\n                profits.pop();\n            }\n            \n        }\n\n        for(uint256 i=batchStartingIndex; i < batchLimit; i++){\n            uint256 stakerReward = getReward(addressIndexes[i]);\n            \n            if(stakerReward > 0){\n                totalClaimed = totalClaimed.add(stakerReward);\n                totalPoolDeducted = totalPoolDeducted.add(stakerReward);\n \n            }\n            if(profits.length > 0){\n                if(profits[0].remaining > 0){\n                    uint256 profitShareUser =0;\n                    if(stakings[addressIndexes[i]].lastBlockCompounded > lastAutoCompoundBlock){   \n                        profitShareUser = profits[0].total.mul(stakings[addressIndexes[i]].lastStaking).div(totalStaked);\n                    }else {\n                        profitShareUser = profits[0].total.mul(stakings[addressIndexes[i]].stakedAmount).div(totalStaked);\n                    }\n                    //uint256 profitShareUser = profits[0].total.mul(stakings[addressIndexes[i]].stakedAmount).div(totalStaked);\n                        if(profitShareUser > profits[0].remaining){\n                            profitShareUser = profits[0].remaining;\n                        }\n                    profits[0].remaining = profits[0].remaining.sub(profitShareUser);\n                    if(profits[0].remaining <= 5){\n                       totalPool = totalPool.add(profits[0].remaining); \n                       profits[0].remaining = 0;\n                    }\n                    stakerReward = stakerReward.add(profitShareUser); \n                }\n            }\n            if(stakerReward > 0){\n                uint256 stakerBurn = stakerReward.mul(performanceFeeBurn).div(divisor);\n                crushToBurn = crushToBurn.add(stakerBurn);\n            \n                uint256 cpAllReward = stakerReward.mul(performanceFeeCompounder).div(divisor);\n                compounderReward = compounderReward.add(cpAllReward);\n            \n                uint256 feeReserve = stakerReward.mul(performanceFeeReserve).div(divisor);\n                performanceFee = performanceFee.add(feeReserve);\n                stakerReward = stakerReward.sub(stakerBurn);\n                stakerReward = stakerReward.sub(cpAllReward);\n                stakerReward = stakerReward.sub(feeReserve);\n                stakings[msg.sender].claimedAmount = stakings[msg.sender].claimedAmount.add(stakerReward);\n                stakings[addressIndexes[i]].stakedAmount = stakings[addressIndexes[i]].stakedAmount.add(stakerReward);\n                pendingStakedValue = pendingStakedValue.add(stakerReward);\n                //totalStaked = totalStaked.add(stakerReward);\n            }    \n            stakings[addressIndexes[i]].lastBlockCompounded = block.number;\n            \n            batchStartingIndex = batchStartingIndex.add(1);\n                        \n        }\n        if(batchStartingIndex >= addressIndexes.length){\n            batchStartingIndex = 0;\n            totalStaked = totalStaked.add(pendingStakedValue);\n            pendingStakedValue = 0;\n        }\n        totalPool = totalPool.sub(totalPoolDeducted);\n        lastAutoCompoundBlock = block.number;\n        crush.burn(crushToBurn);\n        crush.safeTransfer(msg.sender, compounderReward);\n        crush.safeTransfer(reserveAddress, performanceFee);\n        \n    }\n\n    /// freeze certain funds in the staking pool and transfer them to the live wallet address\n    /// @dev adds the provided amount to the total frozen variablle\n    function freezeStaking (uint256 _amount, address _recipient, address _lwAddress) public  {\n        require(msg.sender == address(bankroll), \"Callet must be bankroll\");\n        //divide amount over users\n        //update user mapping to reflect frozen amount\n         require(_amount <= totalStaked.sub(totalFrozen), \"Freeze amount should be less than or equal to available funds\");\n         totalFrozen = totalFrozen.add(_amount);\n         BitcrushLiveWallet currentLw = BitcrushLiveWallet(_lwAddress);\n         currentLw.addToUserWinnings(_amount, _recipient);\n         crush.safeTransfer(address(_lwAddress), _amount);\n    }\n    \n    /// unfreeze previously frozen funds from the staking pool\n    /// @dev deducts the provided amount from the total frozen variablle\n    function unfreezeStaking (uint256 _amount) public {\n        require(msg.sender == address(bankroll), \"Callet must be bankroll\");\n       //divide amount over users\n        //update user mapping to reflect deducted frozen amount\n         require(_amount <= totalFrozen, \"unfreeze amount cant be greater than currently frozen amount\");\n         totalFrozen = totalFrozen.sub(_amount);\n    }\n\n\n\n    /// returns the total count of users in the staking pool.\n    /// @dev returns the total stakers in the staking pool by reading length of addressIndexes array\n    function indexesLength() public view returns(uint256 _addressesLength){\n        _addressesLength = addressIndexes.length;\n    }\n\n    /// Store `_fee`.\n    /// @param _fee the new value to store\n    /// @dev stores the fee in the state variable `performanceFeeCompounder`\n    function setPerformanceFeeCompounder (uint256 _fee) public onlyOwner{\n        require(_fee > 0, \"Fee must be greater than 0\");\n        require(_fee < MAX_FEE, \"Fee must be less than 10%\");\n        performanceFeeCompounder = _fee;\n    }\n\n    /// Store `_fee`.\n    /// @param _fee the new value to store\n    /// @dev stores the fee in the state variable `performanceFeeBurn`\n    function setPerformanceFeeBurn (uint256 _fee) public onlyOwner {\n        require(_fee > 0, \"Fee must be greater than 0\");\n        require(_fee < MAX_FEE, \"Fee must be less than 10%\");\n        performanceFeeBurn = _fee;\n    }\n\n    /// Store `_fee`.\n    /// @param _fee the new value to store\n    /// @dev stores the fee in the state variable `earlyWithdrawFee`\n    function setEarlyWithdrawFee (uint256 _fee) public onlyOwner {\n        require(_fee > 0, \"Fee must be greater than 0\");\n        require(_fee < MAX_FEE, \"Fee must be less than 10%\");\n        earlyWithdrawFee = _fee;\n    }\n\n\n    /// Store `_fee`.\n    /// @param _fee the new value to store\n    /// @dev stores the fee in the state variable `performanceFeeReserve`\n    function setPerformanceFeeReserve (uint256 _fee) public onlyOwner {\n        require(_fee > 0, \"Fee must be greater than 0\");\n        require(_fee <= MAX_FEE, \"Fee must be less than 10%\");\n        performanceFeeReserve = _fee;\n    }\n\n    /// Store `_time`.\n    /// @param _time the new value to store\n    /// @dev stores the time in the state variable `earlyWithdrawFeeTime`\n    function setEarlyWithdrawFeeTime (uint256 _time) public onlyOwner {\n        require(_time > 0, \"Time must be greater than 0\");\n        earlyWithdrawFeeTime = _time;\n    }\n    /// Store `_limit`.\n    /// @param _limit the new value to store\n    /// @dev stores the limit in the state variable `autoCompoundLimit`\n    function setAutoCompoundLimit (uint256 _limit) public onlyOwner {\n        require(_limit > 0, \"Limit can not be 0\");\n        require(_limit < 30, \"Max autocompound limit cannot be greater 30\");\n        autoCompoundLimit = _limit;\n    }\n   \n\n   \n}\n",
  "sourcePath": "/Users/umerali/Desktop/FRAG/bitcrush/crush_contracts/contracts/staking.sol",
  "compiler": {
    "name": "solc",
    "version": "0.6.5+commit.f956cc89.Emscripten.clang"
  },
  "schemaVersion": "3.4.1",
  "updatedAt": "2021-10-28T17:49:36.025Z",
  "devdoc": {
    "methods": {
      "addRewardToPool(uint256)": {
        "details": "adds the provided amount to `totalPool` state variable",
        "params": {
          "_amount": "the amount to add"
        }
      },
      "compoundAll()": {
        "details": "compounds the rewards of all users in the pool add adds it into their staked amount while deducting fees"
      },
      "enterStaking(uint256)": {
        "details": "stakes the provided amount",
        "params": {
          "_amount": "the amount to stake"
        }
      },
      "freezeStaking(uint256,address,address)": {
        "details": "adds the provided amount to the total frozen variablle"
      },
      "indexesLength()": {
        "details": "returns the total stakers in the staking pool by reading length of addressIndexes array"
      },
      "leaveStaking(uint256,bool)": {
        "details": "leaves staking and deducts total pool by the users reward. early withdrawal fee applied if withdraw is made before earlyWithdrawFeeTime",
        "params": {
          "_amount": "the amount to unstake"
        }
      },
      "owner()": {
        "details": "Returns the address of the current owner."
      },
      "pendingReward(address)": {
        "details": "calculates potential reward for the address provided based on crush per block",
        "params": {
          "_address": "the address to calculate the reward for"
        }
      },
      "renounceOwnership()": {
        "details": "Leaves the contract without owner. It will not be possible to call `onlyOwner` functions anymore. Can only be called by the current owner.     * NOTE: Renouncing ownership will leave the contract without an owner, thereby removing any functionality that is only available to the owner."
      },
      "setAutoCompoundLimit(uint256)": {
        "details": "stores the limit in the state variable `autoCompoundLimit`",
        "params": {
          "_limit": "the new value to store"
        }
      },
      "setBankroll(address)": {
        "details": "stores the _bankroll address in the state variable `bankroll`",
        "params": {
          "_bankroll": "the new value to store"
        }
      },
      "setEarlyWithdrawFee(uint256)": {
        "details": "stores the fee in the state variable `earlyWithdrawFee`",
        "params": {
          "_fee": "the new value to store"
        }
      },
      "setEarlyWithdrawFeeTime(uint256)": {
        "details": "stores the time in the state variable `earlyWithdrawFeeTime`",
        "params": {
          "_time": "the new value to store"
        }
      },
      "setLiveWallet(address)": {
        "details": "stores the _liveWallet address in the state variable `liveWallet`",
        "params": {
          "_liveWallet": "the new value to store"
        }
      },
      "setPerformanceFeeBurn(uint256)": {
        "details": "stores the fee in the state variable `performanceFeeBurn`",
        "params": {
          "_fee": "the new value to store"
        }
      },
      "setPerformanceFeeCompounder(uint256)": {
        "details": "stores the fee in the state variable `performanceFeeCompounder`",
        "params": {
          "_fee": "the new value to store"
        }
      },
      "setPerformanceFeeReserve(uint256)": {
        "details": "stores the fee in the state variable `performanceFeeReserve`",
        "params": {
          "_fee": "the new value to store"
        }
      },
      "totalPendingRewards()": {
        "details": "Calculates potential reward based on crush per block"
      },
      "transferOwnership(address)": {
        "details": "Transfers ownership of the contract to a new account (`newOwner`). Can only be called by the current owner."
      },
      "unfreezeStaking(uint256)": {
        "details": "deducts the provided amount from the total frozen variablle"
      }
    }
  },
  "userdoc": {
    "methods": {
      "addRewardToPool(uint256)": {
        "notice": "Adds the provided amount to the totalPool"
      },
      "compoundAll()": {
        "notice": "compounds the rewards of all users in the pool"
      },
      "enterStaking(uint256)": {
        "notice": "Stake the provided amount"
      },
      "freezeStaking(uint256,address,address)": {
        "notice": "freeze certain funds in the staking pool and transfer them to the live wallet address"
      },
      "indexesLength()": {
        "notice": "returns the total count of users in the staking pool."
      },
      "leaveStaking(uint256,bool)": {
        "notice": "Leaves staking for a user by the specified amount and transfering staked amount and reward to users address"
      },
      "pendingReward(address)": {
        "notice": "Get pending rewards of a user"
      },
      "setAutoCompoundLimit(uint256)": {
        "notice": "Store `_limit`."
      },
      "setBankroll(address)": {
        "notice": "Store `_bankroll`."
      },
      "setEarlyWithdrawFee(uint256)": {
        "notice": "Store `_fee`."
      },
      "setEarlyWithdrawFeeTime(uint256)": {
        "notice": "Store `_time`."
      },
      "setLiveWallet(address)": {
        "notice": "Store `_liveWallet`."
      },
      "setPerformanceFeeBurn(uint256)": {
        "notice": "Store `_fee`."
      },
      "setPerformanceFeeCompounder(uint256)": {
        "notice": "Store `_fee`."
      },
      "setPerformanceFeeReserve(uint256)": {
        "notice": "Store `_fee`."
      },
      "totalPendingRewards()": {
        "notice": "Calculates total potential pending rewards"
      },
      "unfreezeStaking(uint256)": {
        "notice": "unfreeze previously frozen funds from the staking pool"
      }
    }
  }
}