{
  "contractName": "BitcrushLiveWallet",
  "abi": [
    {
      "inputs": [
        {
          "internalType": "contract CRUSHToken",
          "name": "_crush",
          "type": "address"
        },
        {
          "internalType": "contract BitcrushBankroll",
          "name": "_bankroll",
          "type": "address"
        },
        {
          "internalType": "address",
          "name": "_reserveAddress",
          "type": "address"
        }
      ],
      "stateMutability": "nonpayable",
      "type": "constructor"
    },
    {
      "anonymous": false,
      "inputs": [
        {
          "indexed": true,
          "internalType": "address",
          "name": "_address",
          "type": "address"
        },
        {
          "indexed": true,
          "internalType": "uint256",
          "name": "_amount",
          "type": "uint256"
        }
      ],
      "name": "Deposit",
      "type": "event"
    },
    {
      "anonymous": false,
      "inputs": [
        {
          "indexed": true,
          "internalType": "uint256",
          "name": "_lockPeriod",
          "type": "uint256"
        }
      ],
      "name": "LockPeriodUpdated",
      "type": "event"
    },
    {
      "anonymous": false,
      "inputs": [
        {
          "indexed": true,
          "internalType": "address",
          "name": "previousOwner",
          "type": "address"
        },
        {
          "indexed": true,
          "internalType": "address",
          "name": "newOwner",
          "type": "address"
        }
      ],
      "name": "OwnershipTransferred",
      "type": "event"
    },
    {
      "anonymous": false,
      "inputs": [
        {
          "indexed": true,
          "internalType": "address",
          "name": "_address",
          "type": "address"
        },
        {
          "indexed": true,
          "internalType": "uint256",
          "name": "_amount",
          "type": "uint256"
        }
      ],
      "name": "Withdraw",
      "type": "event"
    },
    {
      "inputs": [],
      "name": "DIVISOR",
      "outputs": [
        {
          "internalType": "uint256",
          "name": "",
          "type": "uint256"
        }
      ],
      "stateMutability": "view",
      "type": "function"
    },
    {
      "inputs": [],
      "name": "bankroll",
      "outputs": [
        {
          "internalType": "contract BitcrushBankroll",
          "name": "",
          "type": "address"
        }
      ],
      "stateMutability": "view",
      "type": "function"
    },
    {
      "inputs": [
        {
          "internalType": "address",
          "name": "",
          "type": "address"
        }
      ],
      "name": "betAmounts",
      "outputs": [
        {
          "internalType": "uint256",
          "name": "balance",
          "type": "uint256"
        },
        {
          "internalType": "uint256",
          "name": "lockTimeStamp",
          "type": "uint256"
        }
      ],
      "stateMutability": "view",
      "type": "function"
    },
    {
      "inputs": [
        {
          "internalType": "address",
          "name": "",
          "type": "address"
        }
      ],
      "name": "blacklistedUsers",
      "outputs": [
        {
          "internalType": "bool",
          "name": "blacklisted",
          "type": "bool"
        }
      ],
      "stateMutability": "view",
      "type": "function"
    },
    {
      "inputs": [],
      "name": "crush",
      "outputs": [
        {
          "internalType": "contract CRUSHToken",
          "name": "",
          "type": "address"
        }
      ],
      "stateMutability": "view",
      "type": "function"
    },
    {
      "inputs": [],
      "name": "earlyWithdrawFee",
      "outputs": [
        {
          "internalType": "uint256",
          "name": "",
          "type": "uint256"
        }
      ],
      "stateMutability": "view",
      "type": "function"
    },
    {
      "inputs": [],
      "name": "lockPeriod",
      "outputs": [
        {
          "internalType": "uint256",
          "name": "",
          "type": "uint256"
        }
      ],
      "stateMutability": "view",
      "type": "function"
    },
    {
      "inputs": [],
      "name": "lossBurn",
      "outputs": [
        {
          "internalType": "uint256",
          "name": "",
          "type": "uint256"
        }
      ],
      "stateMutability": "view",
      "type": "function"
    },
    {
      "inputs": [],
      "name": "owner",
      "outputs": [
        {
          "internalType": "address",
          "name": "",
          "type": "address"
        }
      ],
      "stateMutability": "view",
      "type": "function"
    },
    {
      "inputs": [],
      "name": "renounceOwnership",
      "outputs": [],
      "stateMutability": "nonpayable",
      "type": "function"
    },
    {
      "inputs": [],
      "name": "reserveAddress",
      "outputs": [
        {
          "internalType": "address",
          "name": "",
          "type": "address"
        }
      ],
      "stateMutability": "view",
      "type": "function"
    },
    {
      "inputs": [
        {
          "internalType": "address",
          "name": "newOwner",
          "type": "address"
        }
      ],
      "name": "transferOwnership",
      "outputs": [],
      "stateMutability": "nonpayable",
      "type": "function"
    },
    {
      "inputs": [
        {
          "internalType": "uint256",
          "name": "_amount",
          "type": "uint256"
        }
      ],
      "name": "addbet",
      "outputs": [],
      "stateMutability": "nonpayable",
      "type": "function"
    },
    {
      "inputs": [
        {
          "internalType": "uint256",
          "name": "_amount",
          "type": "uint256"
        },
        {
          "internalType": "address",
          "name": "_user",
          "type": "address"
        }
      ],
      "name": "addbetWithAddress",
      "outputs": [],
      "stateMutability": "nonpayable",
      "type": "function"
    },
    {
      "inputs": [
        {
          "internalType": "address",
          "name": "_user",
          "type": "address"
        }
      ],
      "name": "balanceOf",
      "outputs": [
        {
          "internalType": "uint256",
          "name": "",
          "type": "uint256"
        }
      ],
      "stateMutability": "view",
      "type": "function"
    },
    {
      "inputs": [
        {
          "internalType": "uint256[]",
          "name": "_wins",
          "type": "uint256[]"
        },
        {
          "internalType": "address[]",
          "name": "_users",
          "type": "address[]"
        }
      ],
      "name": "registerWin",
      "outputs": [],
      "stateMutability": "nonpayable",
      "type": "function"
    },
    {
      "inputs": [
        {
          "internalType": "uint256[]",
          "name": "_bets",
          "type": "uint256[]"
        },
        {
          "internalType": "address[]",
          "name": "_users",
          "type": "address[]"
        }
      ],
      "name": "registerLoss",
      "outputs": [],
      "stateMutability": "nonpayable",
      "type": "function"
    },
    {
      "inputs": [
        {
          "internalType": "uint256",
          "name": "_amount",
          "type": "uint256"
        }
      ],
      "name": "withdrawBet",
      "outputs": [],
      "stateMutability": "nonpayable",
      "type": "function"
    },
    {
      "inputs": [
        {
          "internalType": "uint256",
          "name": "_amount",
          "type": "uint256"
        },
        {
          "internalType": "address",
          "name": "_user",
          "type": "address"
        }
      ],
      "name": "withdrawBetForUser",
      "outputs": [],
      "stateMutability": "nonpayable",
      "type": "function"
    },
    {
      "inputs": [
        {
          "internalType": "uint256",
          "name": "_amount",
          "type": "uint256"
        },
        {
          "internalType": "address",
          "name": "_user",
          "type": "address"
        }
      ],
      "name": "addToUserWinnings",
      "outputs": [],
      "stateMutability": "nonpayable",
      "type": "function"
    },
    {
      "inputs": [
        {
          "internalType": "address[]",
          "name": "_users",
          "type": "address[]"
        }
      ],
      "name": "updateBetLock",
      "outputs": [],
      "stateMutability": "nonpayable",
      "type": "function"
    },
    {
      "inputs": [
        {
          "internalType": "address[]",
          "name": "_users",
          "type": "address[]"
        }
      ],
      "name": "releaseBetLock",
      "outputs": [],
      "stateMutability": "nonpayable",
      "type": "function"
    },
    {
      "inputs": [
        {
          "internalType": "address",
          "name": "_address",
          "type": "address"
        }
      ],
      "name": "blacklistUser",
      "outputs": [],
      "stateMutability": "nonpayable",
      "type": "function"
    },
    {
      "inputs": [
        {
          "internalType": "address",
          "name": "_address",
          "type": "address"
        }
      ],
      "name": "whitelistUser",
      "outputs": [],
      "stateMutability": "nonpayable",
      "type": "function"
    },
    {
      "inputs": [],
      "name": "blacklistSelf",
      "outputs": [],
      "stateMutability": "nonpayable",
      "type": "function"
    },
    {
      "inputs": [
        {
          "internalType": "uint256",
          "name": "_lossBurn",
          "type": "uint256"
        }
      ],
      "name": "setLossBurn",
      "outputs": [],
      "stateMutability": "nonpayable",
      "type": "function"
    },
    {
      "inputs": [
        {
          "internalType": "uint256",
          "name": "_lockPeriod",
          "type": "uint256"
        }
      ],
      "name": "setLockPeriod",
      "outputs": [],
      "stateMutability": "nonpayable",
      "type": "function"
    },
    {
      "inputs": [
        {
          "internalType": "address",
          "name": "_reserveAddress",
          "type": "address"
        }
      ],
      "name": "setReserveAddress",
      "outputs": [],
      "stateMutability": "nonpayable",
      "type": "function"
    },
    {
      "inputs": [
        {
          "internalType": "uint256",
          "name": "_earlyWithdrawFee",
          "type": "uint256"
        }
      ],
      "name": "setEarlyWithdrawFee",
      "outputs": [],
      "stateMutability": "nonpayable",
      "type": "function"
    },
    {
      "inputs": [
        {
          "internalType": "contract BitcrushBankroll",
          "name": "_bankRoll",
          "type": "address"
        }
      ],
      "name": "setBitcrushBankroll",
      "outputs": [],
      "stateMutability": "nonpayable",
      "type": "function"
    }
  ],
  "bytecode": "0x6080604052600a600555612a30600655603260085534801561002057600080fd5b506040516120ef3803806120ef8339818101604052606081101561004357600080fd5b508051602082015160409092015190919060006100676001600160e01b036100f316565b600080546001600160a01b0319166001600160a01b0383169081178255604051929350917f8be0079c531659141344cd1fd0a4f28419497f9722a3daafe3b4186f6b6457e0908290a350600380546001600160a01b039485166001600160a01b0319918216179091556004805493851693821693909317909255600780549190931691161790556100f7565b3390565b611fe9806101066000396000f3fe608060405234801561001057600080fd5b50600436106101da5760003560e01c80638da5cb5b11610104578063c22982f4116100a2578063f2fde38b11610071578063f2fde38b146107e5578063f62cf8d01461080b578063f79ed94b14610837578063fcbca4561461083f576101da565b8063c22982f414610636578063d4b9661c14610653578063ebcfcf6b1461067f578063f2150bbb146106be576101da565b8063a80a7882116100de578063a80a788214610566578063afb62d701461056e578063b359a9f914610611578063c025247d14610619576101da565b80638da5cb5b1461041a578063a2b1a2cc14610422578063a4ae1c561461043f576101da565b806370a082311161017c578063779972da1161014b578063779972da146103085780637efd381314610325578063815b738614610351578063871ee71c146103f4576101da565b806370a08231146102ca578063715018a6146102f0578063720fe1fd146102f8578063723ea11514610300576101da565b80633410fe6e116101b85780633410fe6e146102655780633fd8b02f1461027f5780634a4c560d146102875780636145b22c146102ad576101da565b80630c657eb0146101df57806314673d311461020357806322c0aec71461022b575b600080fd5b6101e7610865565b604080516001600160a01b039092168252519081900360200190f35b6102296004803603602081101561021957600080fd5b50356001600160a01b0316610874565b005b6102516004803603602081101561024157600080fd5b50356001600160a01b031661090d565b604080519115158252519081900360200190f35b61026d610922565b60408051918252519081900360200190f35b61026d610928565b6102296004803603602081101561029d57600080fd5b50356001600160a01b031661092e565b610229600480360360208110156102c357600080fd5b50356109b9565b61026d600480360360208110156102e057600080fd5b50356001600160a01b0316610b63565b610229610b7e565b61026d610c3f565b610229610c45565b6102296004803603602081101561031e57600080fd5b5035610c64565b6102296004803603604081101561033b57600080fd5b50803590602001356001600160a01b0316610d01565b6102296004803603602081101561036757600080fd5b81019060208101813564010000000081111561038257600080fd5b82018360208201111561039457600080fd5b803590602001918460208302840111640100000000831117156103b657600080fd5b919080806020026020016040519081016040528093929190818152602001838360200280828437600092019190915250929550610e93945050505050565b6102296004803603602081101561040a57600080fd5b50356001600160a01b0316610ef1565b6101e7610f8a565b6102296004803603602081101561043857600080fd5b5035610f99565b6102296004803603604081101561045557600080fd5b81019060208101813564010000000081111561047057600080fd5b82018360208201111561048257600080fd5b803590602001918460208302840111640100000000831117156104a457600080fd5b91908080602002602001604051908101604052809392919081815260200183836020028082843760009201919091525092959493602081019350359150506401000000008111156104f457600080fd5b82018360208201111561050657600080fd5b8035906020019184602083028401116401000000008311171561052857600080fd5b91908080602002602001604051908101604052809392919081815260200183836020028082843760009201919091525092955061115d945050505050565b61026d6112ee565b6102296004803603602081101561058457600080fd5b81019060208101813564010000000081111561059f57600080fd5b8201836020820111156105b157600080fd5b803590602001918460208302840111640100000000831117156105d357600080fd5b9190808060200260200160405190810160405280939291908181526020018383602002808284376000920191909152509295506112f4945050505050565b6101e761134d565b6102296004803603602081101561062f57600080fd5b503561135c565b6102296004803603602081101561064c57600080fd5b5035611420565b6102296004803603604081101561066957600080fd5b50803590602001356001600160a01b031661148f565b6106a56004803603602081101561069557600080fd5b50356001600160a01b031661171c565b6040805192835260208301919091528051918290030190f35b610229600480360360408110156106d457600080fd5b8101906020810181356401000000008111156106ef57600080fd5b82018360208201111561070157600080fd5b8035906020019184602083028401116401000000008311171561072357600080fd5b919080806020026020016040519081016040528093929190818152602001838360200280828437600092019190915250929594936020810193503591505064010000000081111561077357600080fd5b82018360208201111561078557600080fd5b803590602001918460208302840111640100000000831117156107a757600080fd5b919080806020026020016040519081016040528093929190818152602001838360200280828437600092019190915250929550611735945050505050565b610229600480360360208110156107fb57600080fd5b50356001600160a01b031661189d565b6102296004803603604081101561082157600080fd5b50803590602001356001600160a01b0316611913565b6101e761199b565b6102296004803603602081101561085557600080fd5b50356001600160a01b03166119aa565b6004546001600160a01b031681565b61087c611a3b565b6000546001600160a01b039081169116146108de576040805162461bcd60e51b815260206004820181905260248201527f4f776e61626c653a2063616c6c6572206973206e6f7420746865206f776e6572604482015290519081900360640190fd5b6007805473ffffffffffffffffffffffffffffffffffffffff19166001600160a01b0392909216919091179055565b60016020526000908152604090205460ff1681565b61271081565b60065481565b610936611a3b565b6000546001600160a01b03908116911614610998576040805162461bcd60e51b815260206004820181905260248201527f4f776e61626c653a2063616c6c6572206973206e6f7420746865206f776e6572604482015290519081900360640190fd5b6001600160a01b03166000908152600160205260409020805460ff19169055565b600081116109f85760405162461bcd60e51b8152600401808060200182810382526023815260200180611f916023913960400191505060405180910390fd5b3360009081526001602052604090205460ff1615610a5d576040805162461bcd60e51b815260206004820152601460248201527f5573657220697320626c61636b204c6973746564000000000000000000000000604482015290519081900360640190fd5b600354604080517f23b872dd0000000000000000000000000000000000000000000000000000000081523360048201523060248201526044810184905290516001600160a01b03909216916323b872dd916064808201926020929091908290030181600087803b158015610ad057600080fd5b505af1158015610ae4573d6000803e3d6000fd5b505050506040513d6020811015610afa57600080fd5b505033600090815260026020526040902054610b1c908263ffffffff611a3f16565b3360008181526002602052604080822093845542600190940193909355915183927fe1fffcc4923d04b559f4d29a8bfc6cda04eb5b0d3c460751c2402c5c5cc9109c91a350565b6001600160a01b031660009081526002602052604090205490565b610b86611a3b565b6000546001600160a01b03908116911614610be8576040805162461bcd60e51b815260206004820181905260248201527f4f776e61626c653a2063616c6c6572206973206e6f7420746865206f776e6572604482015290519081900360640190fd5b600080546040516001600160a01b03909116907f8be0079c531659141344cd1fd0a4f28419497f9722a3daafe3b4186f6b6457e0908390a36000805473ffffffffffffffffffffffffffffffffffffffff19169055565b60055481565b336000908152600160208190526040909120805460ff19169091179055565b610c6c611a3b565b6000546001600160a01b03908116911614610cce576040805162461bcd60e51b815260206004820181905260248201527f4f776e61626c653a2063616c6c6572206973206e6f7420746865206f776e6572604482015290519081900360640190fd5b600681905560405181907f8249ec545e68f6f1e1230133ca48c704d831a7f8e635ded80f3dd9e99b09bb2f90600090a250565b60008211610d405760405162461bcd60e51b8152600401808060200182810382526023815260200180611f916023913960400191505060405180910390fd5b6001600160a01b03811660009081526001602052604090205460ff1615610dae576040805162461bcd60e51b815260206004820152601460248201527f5573657220697320626c61636b204c6973746564000000000000000000000000604482015290519081900360640190fd5b600354604080517f23b872dd0000000000000000000000000000000000000000000000000000000081523360048201523060248201526044810185905290516001600160a01b03909216916323b872dd916064808201926020929091908290030181600087803b158015610e2157600080fd5b505af1158015610e35573d6000803e3d6000fd5b505050506040513d6020811015610e4b57600080fd5b50506001600160a01b038116600090815260026020526040902054610e76908363ffffffff611a3f16565b6001600160a01b0390911660009081526002602052604090205550565b60005b8151811015610eed57600060026000848481518110610eb157fe5b60200260200101516001600160a01b03166001600160a01b03168152602001908152602001600020600101819055508080600101915050610e96565b5050565b610ef9611a3b565b6000546001600160a01b03908116911614610f5b576040805162461bcd60e51b815260206004820181905260248201527f4f776e61626c653a2063616c6c6572206973206e6f7420746865206f776e6572604482015290519081900360640190fd5b6004805473ffffffffffffffffffffffffffffffffffffffff19166001600160a01b0392909216919091179055565b6000546001600160a01b031690565b33600090815260026020526040902054811115610ffd576040805162461bcd60e51b815260206004820152601d60248201527f626574206c657373207468616e20616d6f756e74207769746864726177000000604482015290519081900360640190fd5b336000908152600260205260409020600101541580611041575060065433600090815260026020526040902060010154429161103f919063ffffffff611a3f16565b105b61107c5760405162461bcd60e51b8152600401808060200182810382526029815260200180611f006029913960400191505060405180910390fd5b3360009081526002602052604090205461109c908263ffffffff611aa216565b33600081815260026020908152604080832094909455600354845163a9059cbb60e01b815260048101949094526024840186905293516001600160a01b039094169363a9059cbb93604480820194918390030190829087803b15801561110157600080fd5b505af1158015611115573d6000803e3d6000fd5b505050506040513d602081101561112b57600080fd5b5050604051819033907f884edad9ce6fa2440d8a54cc123490eb96d2768479d49ff9c7366125a942436490600090a350565b611165611a3b565b6000546001600160a01b039081169116146111c7576040805162461bcd60e51b815260206004820181905260248201527f4f776e61626c653a2063616c6c6572206973206e6f7420746865206f776e6572604482015290519081900360640190fd5b80518251146112075760405162461bcd60e51b8152600401808060200182810382526021815260200180611f4f6021913960400191505060405180910390fd5b60005b81518110156112e957600083828151811061122157fe5b602002602001015111156112e15761124b83828151811061123e57fe5b6020026020010151611ae4565b6112ac83828151811061125a57fe5b60200260200101516002600085858151811061127257fe5b60200260200101516001600160a01b03166001600160a01b0316815260200190815260200160002060000154611aa290919063ffffffff16565b600260008484815181106112bc57fe5b6020908102919091018101516001600160a01b03168252810191909152604001600020555b60010161120a565b505050565b60085481565b60005b8151811015610eed57426002600084848151811061131157fe5b60200260200101516001600160a01b03166001600160a01b031681526020019081526020016000206001018190555080806001019150506112f7565b6003546001600160a01b031681565b611364611a3b565b6000546001600160a01b039081169116146113c6576040805162461bcd60e51b815260206004820181905260248201527f4f776e61626c653a2063616c6c6572206973206e6f7420746865206f776e6572604482015290519081900360640190fd5b6000811161141b576040805162461bcd60e51b815260206004820152601360248201527f4c6f7373206275726e2063616e74206265203000000000000000000000000000604482015290519081900360640190fd5b600555565b611428611a3b565b6000546001600160a01b0390811691161461148a576040805162461bcd60e51b815260206004820181905260248201527f4f776e61626c653a2063616c6c6572206973206e6f7420746865206f776e6572604482015290519081900360640190fd5b600855565b611497611a3b565b6000546001600160a01b039081169116146114f9576040805162461bcd60e51b815260206004820181905260248201527f4f776e61626c653a2063616c6c6572206973206e6f7420746865206f776e6572604482015290519081900360640190fd5b6001600160a01b038116600090815260026020526040902054821115611566576040805162461bcd60e51b815260206004820152601d60248201527f626574206c657373207468616e20616d6f756e74207769746864726177000000604482015290519081900360640190fd5b6001600160a01b03811660009081526002602052604090205461158f908363ffffffff611aa216565b6001600160a01b03821660008181526002602052604080822093909355915184927f884edad9ce6fa2440d8a54cc123490eb96d2768479d49ff9c7366125a942436491a360006115fc6127106115f060085486611cbb90919063ffffffff16565b9063ffffffff611d1416565b905061160e838263ffffffff611aa216565b6003546007546040805163a9059cbb60e01b81526001600160a01b03928316600482015260248101869052905193965091169163a9059cbb916044808201926020929091908290030181600087803b15801561166957600080fd5b505af115801561167d573d6000803e3d6000fd5b505050506040513d602081101561169357600080fd5b50506003546040805163a9059cbb60e01b81526001600160a01b038581166004830152602482018790529151919092169163a9059cbb9160448083019260209291908290030181600087803b1580156116eb57600080fd5b505af11580156116ff573d6000803e3d6000fd5b505050506040513d602081101561171557600080fd5b5050505050565b6002602052600090815260409020805460019091015482565b61173d611a3b565b6000546001600160a01b0390811691161461179f576040805162461bcd60e51b815260206004820181905260248201527f4f776e61626c653a2063616c6c6572206973206e6f7420746865206f776e6572604482015290519081900360640190fd5b80518251146117df5760405162461bcd60e51b8152600401808060200182810382526021815260200180611f4f6021913960400191505060405180910390fd5b60005b81518110156112e95760045483516001600160a01b03909116906361433d889085908490811061180e57fe5b602002602001015184848151811061182257fe5b60200260200101516040518363ffffffff1660e01b815260040180838152602001826001600160a01b03166001600160a01b0316815260200192505050600060405180830381600087803b15801561187957600080fd5b505af115801561188d573d6000803e3d6000fd5b5050600190920191506117e29050565b6118a5611a3b565b6000546001600160a01b03908116911614611907576040805162461bcd60e51b815260206004820181905260248201527f4f776e61626c653a2063616c6c6572206973206e6f7420746865206f776e6572604482015290519081900360640190fd5b61191081611d56565b50565b6004546001600160a01b03163314611972576040805162461bcd60e51b815260206004820152601760248201527f43616c6c6572206d7573742062652062616e6b726f6c6c000000000000000000604482015290519081900360640190fd5b6001600160a01b038116600090815260026020526040902054610e76908363ffffffff611a3f16565b6007546001600160a01b031681565b6119b2611a3b565b6000546001600160a01b03908116911614611a14576040805162461bcd60e51b815260206004820181905260248201527f4f776e61626c653a2063616c6c6572206973206e6f7420746865206f776e6572604482015290519081900360640190fd5b6001600160a01b03166000908152600160208190526040909120805460ff19169091179055565b3390565b600082820183811015611a99576040805162461bcd60e51b815260206004820152601b60248201527f536166654d6174683a206164646974696f6e206f766572666c6f770000000000604482015290519081900360640190fd5b90505b92915050565b6000611a9983836040518060400160405280601e81526020017f536166654d6174683a207375627472616374696f6e206f766572666c6f770000815250611e03565b6000611b016127106115f060055485611cbb90919063ffffffff16565b600354604080517f42966c680000000000000000000000000000000000000000000000000000000081526004810184905290519293506001600160a01b03909116916342966c689160248082019260009290919082900301818387803b158015611b6a57600080fd5b505af1158015611b7e573d6000803e3d6000fd5b505050506000611b978284611aa290919063ffffffff16565b60035460048054604080517f095ea7b30000000000000000000000000000000000000000000000000000000081526001600160a01b039283169381019390935260248301859052519394509091169163095ea7b3916044808201926020929091908290030181600087803b158015611c0e57600080fd5b505af1158015611c22573d6000803e3d6000fd5b505050506040513d6020811015611c3857600080fd5b505060048054604080517fc2e50b16000000000000000000000000000000000000000000000000000000008152928301849052516001600160a01b039091169163c2e50b1691602480830192600092919082900301818387803b158015611c9e57600080fd5b505af1158015611cb2573d6000803e3d6000fd5b50505050505050565b600082611cca57506000611a9c565b82820282848281611cd757fe5b0414611a995760405162461bcd60e51b8152600401808060200182810382526021815260200180611f706021913960400191505060405180910390fd5b6000611a9983836040518060400160405280601a81526020017f536166654d6174683a206469766973696f6e206279207a65726f000000000000815250611e9a565b6001600160a01b038116611d9b5760405162461bcd60e51b8152600401808060200182810382526026815260200180611f296026913960400191505060405180910390fd5b600080546040516001600160a01b03808516939216917f8be0079c531659141344cd1fd0a4f28419497f9722a3daafe3b4186f6b6457e091a36000805473ffffffffffffffffffffffffffffffffffffffff19166001600160a01b0392909216919091179055565b60008184841115611e925760405162461bcd60e51b81526004018080602001828103825283818151815260200191508051906020019080838360005b83811015611e57578181015183820152602001611e3f565b50505050905090810190601f168015611e845780820380516001836020036101000a031916815260200191505b509250505060405180910390fd5b505050900390565b60008183611ee95760405162461bcd60e51b8152602060048201818152835160248401528351909283926044909101919085019080838360008315611e57578181015183820152602001611e3f565b506000838581611ef557fe5b049594505050505056fe42657420416d6f756e74206c6f636b65642c20706c656173652074727920616761696e206c617465724f776e61626c653a206e6577206f776e657220697320746865207a65726f2061646472657373506172616d65746572206c656e677468732073686f756c6420626520657175616c536166654d6174683a206d756c7469706c69636174696f6e206f766572666c6f7742657420616d6f756e742073686f756c642062652067726561746572207468616e2030a2646970667358221220c88f5dc8cd1ff59204d509f41a352baa5caca3813a30fc1169356cc83109189664736f6c63430006020033",
  "source": "//SPDX-License-Identifier: MIT\npragma solidity >=0.6.2;\nimport \"@pancakeswap/pancake-swap-lib/contracts/access/Ownable.sol\";\nimport \"./CrushCoin.sol\";\nimport \"./HouseBankroll.sol\";\n\nimport \"@pancakeswap/pancake-swap-lib/contracts/math/SafeMath.sol\";\ncontract BitcrushLiveWallet is Ownable {\n    using SafeMath for uint256;\n    struct wallet {\n        //rename to balance\n        uint256 balance;\n        uint256 lockTimeStamp;\n    }\n    \n    struct blackList {\n        bool blacklisted;\n    }\n    mapping (address => blackList) public blacklistedUsers;\n    //mapping users address with bet amount\n    mapping (address => wallet) public betAmounts;\n    \n    //address of the crush token\n    CRUSHToken public crush;\n    BitcrushBankroll public bankroll;\n    \n    uint256 public lossBurn = 10;\n    uint256 constant public DIVISOR = 10000;\n    uint256 public lockPeriod = 10800;\n    address public reserveAddress;\n    uint256  public earlyWithdrawFee         = 50; // 50/10000 * 100 = 0.5% \n    \n    event Withdraw (address indexed _address, uint256 indexed _amount);\n    event Deposit (address indexed _address, uint256 indexed _amount);\n    event LockPeriodUpdated (uint256 indexed _lockPeriod);\n\n    constructor (CRUSHToken _crush, BitcrushBankroll _bankroll, address _reserveAddress) public{\n        crush = _crush;\n        bankroll = _bankroll;\n        reserveAddress = _reserveAddress;\n    }\n\n    function addbet (uint256 _amount) public {\n        \n        require(_amount > 0, \"Bet amount should be greater than 0\");\n        require(blacklistedUsers[msg.sender].blacklisted == false, \"User is black Listed\");\n        crush.transferFrom(msg.sender, address(this), _amount);\n        betAmounts[msg.sender].balance = betAmounts[msg.sender].balance.add(_amount);\n        betAmounts[msg.sender].lockTimeStamp = block.timestamp;\n        emit Deposit(msg.sender, _amount);\n        \n    }\n\n    function addbetWithAddress (uint256 _amount, address _user) public {\n        require(_amount > 0, \"Bet amount should be greater than 0\");\n        require(blacklistedUsers[_user].blacklisted == false, \"User is black Listed\");\n        crush.transferFrom(msg.sender, address(this), _amount);\n        betAmounts[_user].balance = betAmounts[_user].balance.add(_amount);\n        \n    }\n\n    function balanceOf ( address _user) public view returns (uint256){\n        return betAmounts[_user].balance;\n    }\n\n    function registerWin (uint256[] memory _wins, address[] memory _users) public onlyOwner {\n        require (_wins.length == _users.length, \"Parameter lengths should be equal\");\n        for(uint256 i=0; i < _users.length; i++){\n                bankroll.payOutUserWinning(_wins[i], _users[i]);\n        }\n    }\n    \n    function registerLoss (uint256[] memory _bets, address[] memory _users) public onlyOwner {\n        require (_bets.length == _users.length, \"Parameter lengths should be equal\");\n        for(uint256 i=0; i < _users.length; i++){\n            if(_bets[i] > 0){\n            transferToBankroll(_bets[i]);\n            betAmounts[_users[i]].balance = betAmounts[_users[i]].balance.sub(_bets[i]);\n            }\n            \n        }\n    }\n\n    function transferToBankroll (uint256 _amount) internal {\n        uint256 burnShare = _amount.mul(lossBurn).div(DIVISOR);\n        crush.burn(burnShare);\n        uint256 remainingAmount = _amount.sub(burnShare);\n        crush.approve(address(bankroll), remainingAmount);\n        bankroll.addUserLoss(remainingAmount);       \n    }\n\n    function withdrawBet(uint256 _amount) public {\n        require(betAmounts[msg.sender].balance >= _amount, \"bet less than amount withdraw\");\n        require(betAmounts[msg.sender].lockTimeStamp == 0 || betAmounts[msg.sender].lockTimeStamp.add(lockPeriod) < block.timestamp, \"Bet Amount locked, please try again later\");\n        betAmounts[msg.sender].balance = betAmounts[msg.sender].balance.sub(_amount);\n        crush.transfer(msg.sender, _amount);\n        emit Withdraw(msg.sender, _amount);\n    }\n\n    function withdrawBetForUser(uint256 _amount, address _user) public onlyOwner {\n        require(betAmounts[_user].balance >= _amount, \"bet less than amount withdraw\");\n        betAmounts[_user].balance = betAmounts[_user].balance.sub(_amount);\n        emit Withdraw(_user, _amount);\n        uint256 withdrawalFee = _amount.mul(earlyWithdrawFee).div(DIVISOR);\n        _amount = _amount.sub(withdrawalFee);\n        crush.transfer(reserveAddress, withdrawalFee);\n        crush.transfer(_user, _amount);\n        \n        \n    }\n\n\n    function addToUserWinnings (uint256 _amount, address _user) public {\n        require(msg.sender == address(bankroll),\"Caller must be bankroll\");\n        betAmounts[_user].balance = betAmounts[_user].balance.add(_amount);\n\n    }\n    function updateBetLock (address[] memory _users) public {\n        for(uint256 i=0; i < _users.length; i++){\n            betAmounts[_users[i]].lockTimeStamp = block.timestamp;\n        }\n        \n    }\n\n    function releaseBetLock (address[] memory _users) public {\n        for(uint256 i=0; i < _users.length; i++){\n            betAmounts[_users[i]].lockTimeStamp = 0;\n        }\n    }\n\n    function blacklistUser (address _address) public onlyOwner {\n        blacklistedUsers[_address].blacklisted = true;\n    }\n\n    function whitelistUser (address _address) public onlyOwner {\n        delete blacklistedUsers[_address];\n    }\n\n    function blacklistSelf () public  {\n        blacklistedUsers[msg.sender].blacklisted = true;\n    }\n\n    function setLossBurn(uint256 _lossBurn) public onlyOwner {\n        require(_lossBurn > 0, \"Loss burn cant be 0\");\n        lossBurn = _lossBurn;\n    }\n    function setLockPeriod (uint256 _lockPeriod) public onlyOwner {\n        lockPeriod = _lockPeriod;\n        emit LockPeriodUpdated(lockPeriod);\n    }\n\n    function setReserveAddress (address _reserveAddress) public onlyOwner {\n        reserveAddress = _reserveAddress;\n    }\n\n    function setEarlyWithdrawFee (uint256 _earlyWithdrawFee ) public onlyOwner {\n        earlyWithdrawFee = _earlyWithdrawFee;\n    }\n    function setBitcrushBankroll (BitcrushBankroll _bankRoll) public onlyOwner {\n        bankroll = _bankRoll;\n    }\n\n}",
  "sourcePath": "/Users/umerali/Desktop/FRAG/bitcrush/crush_contracts/contracts/LiveWallet.sol",
  "compiler": {
    "name": "solc",
    "version": "0.6.2+commit.bacdbe57.Emscripten.clang"
  },
  "schemaVersion": "3.4.1",
  "updatedAt": "2021-09-30T09:24:53.875Z",
  "networkType": "ethereum",
  "devdoc": {
    "methods": {
      "owner()": {
        "details": "Returns the address of the current owner."
      },
      "renounceOwnership()": {
        "details": "Leaves the contract without owner. It will not be possible to call `onlyOwner` functions anymore. Can only be called by the current owner.     * NOTE: Renouncing ownership will leave the contract without an owner, thereby removing any functionality that is only available to the owner."
      },
      "transferOwnership(address)": {
        "details": "Transfers ownership of the contract to a new account (`newOwner`). Can only be called by the current owner."
      }
    }
  },
  "userdoc": {
    "methods": {}
  }
}