{
  "contractName": "BitcrushStaking",
  "abi": [
    {
      "inputs": [
        {
          "internalType": "contract CRUSHToken",
          "name": "_crush",
          "type": "address"
        },
        {
          "internalType": "uint256",
          "name": "_crushPerBlock",
          "type": "uint256"
        },
        {
          "internalType": "address",
          "name": "_reserveAddress",
          "type": "address"
        }
      ],
      "stateMutability": "nonpayable",
      "type": "constructor"
    },
    {
      "anonymous": false,
      "inputs": [
        {
          "indexed": true,
          "internalType": "address",
          "name": "previousOwner",
          "type": "address"
        },
        {
          "indexed": true,
          "internalType": "address",
          "name": "newOwner",
          "type": "address"
        }
      ],
      "name": "OwnershipTransferred",
      "type": "event"
    },
    {
      "anonymous": false,
      "inputs": [
        {
          "indexed": true,
          "internalType": "uint256",
          "name": "_totalPool",
          "type": "uint256"
        }
      ],
      "name": "RewardPoolUpdated",
      "type": "event"
    },
    {
      "anonymous": false,
      "inputs": [
        {
          "indexed": true,
          "internalType": "address",
          "name": "recipeint",
          "type": "address"
        },
        {
          "indexed": true,
          "internalType": "uint256",
          "name": "_amount",
          "type": "uint256"
        }
      ],
      "name": "StakeUpdated",
      "type": "event"
    },
    {
      "inputs": [
        {
          "internalType": "uint256",
          "name": "",
          "type": "uint256"
        }
      ],
      "name": "addressIndexes",
      "outputs": [
        {
          "internalType": "address",
          "name": "",
          "type": "address"
        }
      ],
      "stateMutability": "view",
      "type": "function",
      "constant": true
    },
    {
      "inputs": [],
      "name": "autoCompoundLimit",
      "outputs": [
        {
          "internalType": "uint256",
          "name": "",
          "type": "uint256"
        }
      ],
      "stateMutability": "view",
      "type": "function",
      "constant": true
    },
    {
      "inputs": [],
      "name": "bankroll",
      "outputs": [
        {
          "internalType": "contract BitcrushBankroll",
          "name": "",
          "type": "address"
        }
      ],
      "stateMutability": "view",
      "type": "function",
      "constant": true
    },
    {
      "inputs": [],
      "name": "batchStartingIndex",
      "outputs": [
        {
          "internalType": "uint256",
          "name": "",
          "type": "uint256"
        }
      ],
      "stateMutability": "view",
      "type": "function",
      "constant": true
    },
    {
      "inputs": [],
      "name": "blockPerSecond",
      "outputs": [
        {
          "internalType": "uint256",
          "name": "",
          "type": "uint256"
        }
      ],
      "stateMutability": "view",
      "type": "function",
      "constant": true
    },
    {
      "inputs": [],
      "name": "crush",
      "outputs": [
        {
          "internalType": "contract CRUSHToken",
          "name": "",
          "type": "address"
        }
      ],
      "stateMutability": "view",
      "type": "function",
      "constant": true
    },
    {
      "inputs": [],
      "name": "crushPerBlock",
      "outputs": [
        {
          "internalType": "uint256",
          "name": "",
          "type": "uint256"
        }
      ],
      "stateMutability": "view",
      "type": "function",
      "constant": true
    },
    {
      "inputs": [],
      "name": "earlyWithdrawFee",
      "outputs": [
        {
          "internalType": "uint256",
          "name": "",
          "type": "uint256"
        }
      ],
      "stateMutability": "view",
      "type": "function",
      "constant": true
    },
    {
      "inputs": [],
      "name": "earlyWithdrawFeeTime",
      "outputs": [
        {
          "internalType": "uint256",
          "name": "",
          "type": "uint256"
        }
      ],
      "stateMutability": "view",
      "type": "function",
      "constant": true
    },
    {
      "inputs": [],
      "name": "lastAutoCompoundBlock",
      "outputs": [
        {
          "internalType": "uint256",
          "name": "",
          "type": "uint256"
        }
      ],
      "stateMutability": "view",
      "type": "function",
      "constant": true
    },
    {
      "inputs": [],
      "name": "liveWallet",
      "outputs": [
        {
          "internalType": "contract BitcrushLiveWallet",
          "name": "",
          "type": "address"
        }
      ],
      "stateMutability": "view",
      "type": "function",
      "constant": true
    },
    {
      "inputs": [],
      "name": "owner",
      "outputs": [
        {
          "internalType": "address",
          "name": "",
          "type": "address"
        }
      ],
      "stateMutability": "view",
      "type": "function",
      "constant": true
    },
    {
      "inputs": [],
      "name": "performanceFeeBurn",
      "outputs": [
        {
          "internalType": "uint256",
          "name": "",
          "type": "uint256"
        }
      ],
      "stateMutability": "view",
      "type": "function",
      "constant": true
    },
    {
      "inputs": [],
      "name": "performanceFeeCompounder",
      "outputs": [
        {
          "internalType": "uint256",
          "name": "",
          "type": "uint256"
        }
      ],
      "stateMutability": "view",
      "type": "function",
      "constant": true
    },
    {
      "inputs": [],
      "name": "performanceFeeReserve",
      "outputs": [
        {
          "internalType": "uint256",
          "name": "",
          "type": "uint256"
        }
      ],
      "stateMutability": "view",
      "type": "function",
      "constant": true
    },
    {
      "inputs": [],
      "name": "profitShare",
      "outputs": [
        {
          "internalType": "uint256",
          "name": "",
          "type": "uint256"
        }
      ],
      "stateMutability": "view",
      "type": "function",
      "constant": true
    },
    {
      "inputs": [
        {
          "internalType": "uint256",
          "name": "",
          "type": "uint256"
        }
      ],
      "name": "profits",
      "outputs": [
        {
          "internalType": "uint256",
          "name": "total",
          "type": "uint256"
        },
        {
          "internalType": "uint256",
          "name": "remaining",
          "type": "uint256"
        }
      ],
      "stateMutability": "view",
      "type": "function",
      "constant": true
    },
    {
      "inputs": [],
      "name": "renounceOwnership",
      "outputs": [],
      "stateMutability": "nonpayable",
      "type": "function"
    },
    {
      "inputs": [],
      "name": "reserveAddress",
      "outputs": [
        {
          "internalType": "address",
          "name": "",
          "type": "address"
        }
      ],
      "stateMutability": "view",
      "type": "function",
      "constant": true
    },
    {
      "inputs": [
        {
          "internalType": "address",
          "name": "",
          "type": "address"
        }
      ],
      "name": "stakings",
      "outputs": [
        {
          "internalType": "uint256",
          "name": "stakedAmount",
          "type": "uint256"
        },
        {
          "internalType": "uint256",
          "name": "claimedAmount",
          "type": "uint256"
        },
        {
          "internalType": "uint256",
          "name": "profit",
          "type": "uint256"
        },
        {
          "internalType": "uint256",
          "name": "lastBlockCompounded",
          "type": "uint256"
        },
        {
          "internalType": "uint256",
          "name": "lastBlockStaked",
          "type": "uint256"
        },
        {
          "internalType": "uint256",
          "name": "index",
          "type": "uint256"
        }
      ],
      "stateMutability": "view",
      "type": "function",
      "constant": true
    },
    {
      "inputs": [],
      "name": "totalClaimed",
      "outputs": [
        {
          "internalType": "uint256",
          "name": "",
          "type": "uint256"
        }
      ],
      "stateMutability": "view",
      "type": "function",
      "constant": true
    },
    {
      "inputs": [],
      "name": "totalFrozen",
      "outputs": [
        {
          "internalType": "uint256",
          "name": "",
          "type": "uint256"
        }
      ],
      "stateMutability": "view",
      "type": "function",
      "constant": true
    },
    {
      "inputs": [],
      "name": "totalPool",
      "outputs": [
        {
          "internalType": "uint256",
          "name": "",
          "type": "uint256"
        }
      ],
      "stateMutability": "view",
      "type": "function",
      "constant": true
    },
    {
      "inputs": [],
      "name": "totalProfitDistributed",
      "outputs": [
        {
          "internalType": "uint256",
          "name": "",
          "type": "uint256"
        }
      ],
      "stateMutability": "view",
      "type": "function",
      "constant": true
    },
    {
      "inputs": [],
      "name": "totalStaked",
      "outputs": [
        {
          "internalType": "uint256",
          "name": "",
          "type": "uint256"
        }
      ],
      "stateMutability": "view",
      "type": "function",
      "constant": true
    },
    {
      "inputs": [
        {
          "internalType": "address",
          "name": "newOwner",
          "type": "address"
        }
      ],
      "name": "transferOwnership",
      "outputs": [],
      "stateMutability": "nonpayable",
      "type": "function"
    },
    {
      "inputs": [
        {
          "internalType": "contract BitcrushBankroll",
          "name": "_bankroll",
          "type": "address"
        }
      ],
      "name": "setBankroll",
      "outputs": [],
      "stateMutability": "nonpayable",
      "type": "function"
    },
    {
      "inputs": [
        {
          "internalType": "contract BitcrushLiveWallet",
          "name": "_liveWallet",
          "type": "address"
        }
      ],
      "name": "setLiveWallet",
      "outputs": [],
      "stateMutability": "nonpayable",
      "type": "function"
    },
    {
      "inputs": [
        {
          "internalType": "uint256",
          "name": "_amount",
          "type": "uint256"
        }
      ],
      "name": "addRewardToPool",
      "outputs": [],
      "stateMutability": "nonpayable",
      "type": "function"
    },
    {
      "inputs": [
        {
          "internalType": "uint256",
          "name": "_amount",
          "type": "uint256"
        }
      ],
      "name": "setCrushPerBlock",
      "outputs": [],
      "stateMutability": "nonpayable",
      "type": "function"
    },
    {
      "inputs": [
        {
          "internalType": "uint256",
          "name": "_amount",
          "type": "uint256"
        }
      ],
      "name": "enterStaking",
      "outputs": [],
      "stateMutability": "nonpayable",
      "type": "function"
    },
    {
      "inputs": [
        {
          "internalType": "uint256",
          "name": "_amount",
          "type": "uint256"
        },
        {
          "internalType": "bool",
          "name": "_liveWallet",
          "type": "bool"
        }
      ],
      "name": "leaveStaking",
      "outputs": [],
      "stateMutability": "nonpayable",
      "type": "function"
    },
    {
      "inputs": [],
      "name": "totalPendingRewards",
      "outputs": [
        {
          "internalType": "uint256",
          "name": "",
          "type": "uint256"
        }
      ],
      "stateMutability": "view",
      "type": "function",
      "constant": true
    },
    {
      "inputs": [
        {
          "internalType": "address",
          "name": "_address",
          "type": "address"
        }
      ],
      "name": "pendingReward",
      "outputs": [
        {
          "internalType": "uint256",
          "name": "",
          "type": "uint256"
        }
      ],
      "stateMutability": "view",
      "type": "function",
      "constant": true
    },
    {
      "inputs": [
        {
          "internalType": "bool",
          "name": "_liveWallet",
          "type": "bool"
        }
      ],
      "name": "claim",
      "outputs": [],
      "stateMutability": "nonpayable",
      "type": "function"
    },
    {
      "inputs": [],
      "name": "claimProfit",
      "outputs": [],
      "stateMutability": "nonpayable",
      "type": "function"
    },
    {
      "inputs": [],
      "name": "singleCompound",
      "outputs": [],
      "stateMutability": "nonpayable",
      "type": "function"
    },
    {
      "inputs": [],
      "name": "compoundAll",
      "outputs": [],
      "stateMutability": "nonpayable",
      "type": "function"
    },
    {
      "inputs": [
        {
          "internalType": "uint256",
          "name": "_amount",
          "type": "uint256"
        },
        {
          "internalType": "address",
          "name": "_recipient",
          "type": "address"
        }
      ],
      "name": "freezeStaking",
      "outputs": [],
      "stateMutability": "nonpayable",
      "type": "function"
    },
    {
      "inputs": [
        {
          "internalType": "uint256",
          "name": "_amount",
          "type": "uint256"
        }
      ],
      "name": "unfreezeStaking",
      "outputs": [],
      "stateMutability": "nonpayable",
      "type": "function"
    },
    {
      "inputs": [],
      "name": "emergencyWithdraw",
      "outputs": [],
      "stateMutability": "nonpayable",
      "type": "function"
    },
    {
      "inputs": [],
      "name": "emergencyTotalPoolWithdraw",
      "outputs": [],
      "stateMutability": "nonpayable",
      "type": "function"
    },
    {
      "inputs": [
        {
          "internalType": "uint256",
          "name": "_fee",
          "type": "uint256"
        }
      ],
      "name": "setPerformanceFeeCompounder",
      "outputs": [],
      "stateMutability": "nonpayable",
      "type": "function"
    },
    {
      "inputs": [
        {
          "internalType": "uint256",
          "name": "_fee",
          "type": "uint256"
        }
      ],
      "name": "setPerformanceFeeBurn",
      "outputs": [],
      "stateMutability": "nonpayable",
      "type": "function"
    },
    {
      "inputs": [
        {
          "internalType": "uint256",
          "name": "_fee",
          "type": "uint256"
        }
      ],
      "name": "setEarlyWithdrawFee",
      "outputs": [],
      "stateMutability": "nonpayable",
      "type": "function"
    },
    {
      "inputs": [
        {
          "internalType": "uint256",
          "name": "_fee",
          "type": "uint256"
        }
      ],
      "name": "setPerformanceFeeReserve",
      "outputs": [],
      "stateMutability": "nonpayable",
      "type": "function"
    },
    {
      "inputs": [
        {
          "internalType": "uint256",
          "name": "_time",
          "type": "uint256"
        }
      ],
      "name": "setEarlyWithdrawFeeTime",
      "outputs": [],
      "stateMutability": "nonpayable",
      "type": "function"
    },
    {
      "inputs": [
        {
          "internalType": "uint256",
          "name": "_limit",
          "type": "uint256"
        }
      ],
      "name": "setAutoCompoundLimit",
      "outputs": [],
      "stateMutability": "nonpayable",
      "type": "function"
    },
    {
      "inputs": [
        {
          "internalType": "uint256",
          "name": "_profitShare",
          "type": "uint256"
        }
      ],
      "name": "setProfitShare",
      "outputs": [],
      "stateMutability": "nonpayable",
      "type": "function"
    }
  ],
  "bytecode": "0x6080604052600a6001556064600255603260035560be600455600a60055560036006556006546203f480816200003157fe5b046007556000601055600560115560006015556000601655600a6017553480156200005b57600080fd5b506040516200361438038062003614833981810160405260608110156200008157600080fd5b50805160208201516040909201519091906000620000a76001600160e01b036200012e16565b600080546001600160a01b0319166001600160a01b0383169081178255604051929350917f8be0079c531659141344cd1fd0a4f28419497f9722a3daafe3b4186f6b6457e0908290a350600880546001600160a01b039485166001600160a01b031991821617909155601192909255601280549190931691161790556000600f5562000132565b3390565b6134d280620001426000396000f3fe608060405234801561001057600080fd5b506004361061032b5760003560e01c8063817b1cd2116101b2578063d180fd88116100f9578063ec1371f2116100a2578063f011a7af1161007c578063f011a7af146106d7578063f2fde38b146106df578063f40f0f5214610705578063f79ed94b1461072b5761032b565b8063ec1371f2146106bf578063ecb1c924146106c7578063ecfb49a3146106cf5761032b565b8063dc6e13e1116100d3578063dc6e13e114610641578063e39faaa41461069a578063e3aeeb46146106b75761032b565b8063d180fd8814610629578063d54ad2a114610631578063db2e21bc146106395761032b565b8063b359a9f91161015b578063c22982f411610135578063c22982f4146105e7578063c53f871f14610604578063c61f1c0b146106215761032b565b8063b359a9f9146105b1578063bca5503d146105b9578063bde8a93e146105c15761032b565b80639e13900c1161018c5780639e13900c14610566578063a775573a1461058c578063a80a7882146105a95761032b565b8063817b1cd21461054e5780638da5cb5b146105565780639b05ddb31461055e5761032b565b806349fb5e47116102765780636535fc661161021f5780636f90e046116101f95780636f90e0461461050c578063715018a61461052957806376e9e6c0146105315761032b565b80636535fc66146104df5780636903d0b6146104fc5780636e74d2e2146105045761032b565b8063563b6b7111610250578063563b6b711461049d5780635692f138146104ba5780635832d571146104c25761032b565b806349fb5e47146104615780634b37f0061461048d5780634bf211b8146104955761032b565b80632e5f6d4c116102d85780633e1f55e4116102b25780633e1f55e41461041757806341441d3b1461041f578063445e76881461043c5761032b565b80632e5f6d4c146103bc57806338ed019a146103f25780633a53ed49146103fa5761032b565b80632533830a116103095780632533830a1461037657806326cba3361461037e5780632d81a78e1461039d5761032b565b80630a3960bc146103305780630c657eb01461034a5780631e7f87bc1461036e575b600080fd5b610338610733565b60408051918252519081900360200190f35b610352610739565b604080516001600160a01b039092168252519081900360200190f35b610338610748565b61033861074e565b61039b6004803603602081101561039457600080fd5b5035610754565b005b61039b600480360360208110156103b357600080fd5b5035151561086e565b6103d9600480360360208110156103d257600080fd5b5035610a8d565b6040805192835260208301919091528051918290030190f35b610338610ab8565b61039b6004803603602081101561041057600080fd5b5035610abe565b610338610c6e565b61039b6004803603602081101561043557600080fd5b5035610c74565b61039b6004803603604081101561045257600080fd5b50803590602001351515611016565b61039b6004803603604081101561047757600080fd5b50803590602001356001600160a01b03166115ad565b610338611725565b61033861172b565b61039b600480360360208110156104b357600080fd5b5035611731565b61039b6117f5565b610352600480360360208110156104d857600080fd5b5035611931565b61039b600480360360208110156104f557600080fd5b5035611958565b610338611a73565b610338611a79565b61039b6004803603602081101561052257600080fd5b5035611a7f565b61039b611b43565b61039b6004803603602081101561054757600080fd5b5035611c04565b610338611cc8565b610352611cce565b61039b611cde565b61039b6004803603602081101561057c57600080fd5b50356001600160a01b03166124d6565b61039b600480360360208110156105a257600080fd5b5035612505565b6103386125b4565b6103526125ba565b6103386125c9565b61039b600480360360208110156105d757600080fd5b50356001600160a01b03166125cf565b61039b600480360360208110156105fd57600080fd5b50356125fe565b61039b6004803603602081101561061a57600080fd5b5035612718565b610338612832565b61039b612838565b610338612a3a565b61039b612a40565b6106676004803603602081101561065757600080fd5b50356001600160a01b0316612c9a565b604080519687526020870195909552858501939093526060850191909152608084015260a0830152519081900360c00190f35b61039b600480360360208110156106b057600080fd5b5035612ccf565b610352612d29565b610338612d38565b610338612da0565b610338612da6565b61039b612dac565b61039b600480360360208110156106f557600080fd5b50356001600160a01b0316612eb3565b6103386004803603602081101561071b57600080fd5b50356001600160a01b0316612f26565b610352612f39565b60045481565b6009546001600160a01b031681565b60155481565b60165481565b61075c612f48565b6000546001600160a01b039081169116146107be576040805162461bcd60e51b815260206004820181905260248201527f4f776e61626c653a2063616c6c6572206973206e6f7420746865206f776e6572604482015290519081900360640190fd5b60008111610813576040805162461bcd60e51b815260206004820152601a60248201527f466565206d7573742062652067726561746572207468616e2030000000000000604482015290519081900360640190fd5b6103e88110610869576040805162461bcd60e51b815260206004820152601960248201527f466565206d757374206265206c657373207468616e2031302500000000000000604482015290519081900360640190fd5b600155565b600061087933612f4c565b336000908152600b602052604090206001015490915061089f908263ffffffff61302916565b336000908152600b60205260409020600101558161093d576008546040805163a9059cbb60e01b81523360048201526024810184905290516001600160a01b039092169163a9059cbb916044808201926020929091908290030181600087803b15801561090b57600080fd5b505af115801561091f573d6000803e3d6000fd5b505050506040513d602081101561093557600080fd5b50610a479050565b600854600a546040805163095ea7b360e01b81526001600160a01b039283166004820152602481018590529051919092169163095ea7b39160448083019260209291908290030181600087803b15801561099657600080fd5b505af11580156109aa573d6000803e3d6000fd5b505050506040513d60208110156109c057600080fd5b5050600a54604080517f7efd38130000000000000000000000000000000000000000000000000000000081526004810184905233602482015290516001600160a01b0390921691637efd38139160448082019260009290919082900301818387803b158015610a2e57600080fd5b505af1158015610a42573d6000803e3d6000fd5b505050505b336000908152600b6020526040902043600390910155601454610a70908263ffffffff61302916565b601455600e54610a86908263ffffffff61308c16565b600e555050565b600d8181548110610a9a57fe5b60009182526020909120600290910201805460019091015490915082565b60105481565b600854604080517f70a08231000000000000000000000000000000000000000000000000000000008152336004820152905183926001600160a01b0316916370a08231916024808301926020929190829003018186803b158015610b2157600080fd5b505afa158015610b35573d6000803e3d6000fd5b505050506040513d6020811015610b4b57600080fd5b50511015610b8a5760405162461bcd60e51b815260040180806020018281038252602681526020018061343a6026913960400191505060405180910390fd5b600e54610b9d908263ffffffff61302916565b600e55600854604080517f23b872dd0000000000000000000000000000000000000000000000000000000081523360048201523060248201526044810184905290516001600160a01b03909216916323b872dd916064808201926020929091908290030181600087803b158015610c1357600080fd5b505af1158015610c27573d6000803e3d6000fd5b505050506040513d6020811015610c3d57600080fd5b5050600e546040517f1ef37ab665f7c977b577275d7a49e72cd18d1143eccd1112f1198e4a39d1428c90600090a250565b60055481565b600854604080517f70a08231000000000000000000000000000000000000000000000000000000008152336004820152905183926001600160a01b0316916370a08231916024808301926020929190829003018186803b158015610cd757600080fd5b505afa158015610ceb573d6000803e3d6000fd5b505050506040513d6020811015610d0157600080fd5b50511015610d405760405162461bcd60e51b815260040180806020018281038252602681526020018061343a6026913960400191505060405180910390fd5b60008111610d95576040805162461bcd60e51b815260206004820152601660248201527f496e76616c6964207374616b696e6720616d6f756e7400000000000000000000604482015290519081900360640190fd5b6000600e5411610dec576040805162461bcd60e51b815260206004820152601560248201527f52657761726420506f6f6c204578686175737465640000000000000000000000604482015290519081900360640190fd5b600854604080517f23b872dd0000000000000000000000000000000000000000000000000000000081523360048201523060248201526044810184905290516001600160a01b03909216916323b872dd916064808201926020929091908290030181600087803b158015610e5f57600080fd5b505af1158015610e73573d6000803e3d6000fd5b505050506040513d6020811015610e8957600080fd5b5050601354610e975743600f555b336000908152600b6020526040902054610f1857336000818152600b60205260409020436003820155600c80546001810182557fdf6966c971051c3d54ec59162606531493a51404a002842f56009d7e5cf4a8c701805473ffffffffffffffffffffffffffffffffffffffff19169093179092559054600019016005909101555b336000908152600b6020526040902054610f38908263ffffffff61302916565b336000908152600b6020526040902090815543600490910155601354610f64908263ffffffff61302916565b6013556008546001600160a01b031663a9059cbb33610f8281612f4c565b6040518363ffffffff1660e01b815260040180836001600160a01b03166001600160a01b0316815260200182815260200192505050602060405180830381600087803b158015610fd157600080fd5b505af1158015610fe5573d6000803e3d6000fd5b505050506040513d6020811015610ffb57600080fd5b5050336000908152600b602052604090204360039091015550565b600061102133612f4c565b336000908152600b6020526040902043600390910155600e5490915061104d908263ffffffff61308c16565b600e55601554600090156110b957601354336000908152600b60205260409020546015546110b29261109692909161108a9163ffffffff6130ce16565b9063ffffffff61312716565b336000908152600b60205260409020549063ffffffff61308c16565b90506110cb565b50336000908152600b60205260409020545b8381101561110a5760405162461bcd60e51b815260040180806020018281038252603f815260200180613369603f913960400191505060405180910390fd5b60135461111d908563ffffffff61308c16565b601355336000908152600b6020526040902054611140908563ffffffff61308c16565b336000908152600b6020526040902090815560075460049091015461116a9163ffffffff61302916565b43101561122957600061118e61271061108a600354886130ce90919063ffffffff16565b90506111a0858263ffffffff61308c16565b6008546012546040805163a9059cbb60e01b81526001600160a01b03928316600482015260248101869052905193985091169163a9059cbb916044808201926020929091908290030181600087803b1580156111fb57600080fd5b505af115801561120f573d6000803e3d6000fd5b505050506040513d602081101561122557600080fd5b5050505b611239848363ffffffff61302916565b9350826112c6576008546040805163a9059cbb60e01b81523360048201526024810187905290516001600160a01b039092169163a9059cbb916044808201926020929091908290030181600087803b15801561129457600080fd5b505af11580156112a8573d6000803e3d6000fd5b505050506040513d60208110156112be57600080fd5b506113d09050565b600854600a546040805163095ea7b360e01b81526001600160a01b039283166004820152602481018890529051919092169163095ea7b39160448083019260209291908290030181600087803b15801561131f57600080fd5b505af1158015611333573d6000803e3d6000fd5b505050506040513d602081101561134957600080fd5b5050600a54604080517f7efd38130000000000000000000000000000000000000000000000000000000081526004810187905233602482015290516001600160a01b0390921691637efd38139160448082019260009290919082900301818387803b1580156113b757600080fd5b505af11580156113cb573d6000803e3d6000fd5b505050505b336000908152600b602052604090205461157b57336000908152600b60205260409020600c5460058201546000199091011461150d57600c805460009190600019810190811061141c57fe5b9060005260206000200160009054906101000a90046001600160a01b0316905080600c83600501548154811061144e57fe5b6000918252602080832091909101805473ffffffffffffffffffffffffffffffffffffffff19166001600160a01b039485161790556005858101548585168452600b8352604080852090920155600854815163095ea7b360e01b815230600482015260248101859052915194169363095ea7b393604480840194938390030190829087803b1580156114df57600080fd5b505af11580156114f3573d6000803e3d6000fd5b505050506040513d602081101561150957600080fd5b5050505b600c80548061151857fe5b600082815260208082208301600019908101805473ffffffffffffffffffffffffffffffffffffffff19169055909201909255338252600b9052604081208181556001810182905560028101829055600381018290556004810182905560050155505b600e546040517f1ef37ab665f7c977b577275d7a49e72cd18d1143eccd1112f1198e4a39d1428c90600090a250505050565b6015546013546115c29163ffffffff61308c16565b8211156116005760405162461bcd60e51b815260040180806020018281038252603d815260200180613460603d913960400191505060405180910390fd5b601554611613908363ffffffff61302916565b601555600a54604080517ff62cf8d0000000000000000000000000000000000000000000000000000000008152600481018590526001600160a01b0384811660248301529151919092169163f62cf8d091604480830192600092919082900301818387803b15801561168457600080fd5b505af1158015611698573d6000803e3d6000fd5b5050600854600a546040805163a9059cbb60e01b81526001600160a01b03928316600482015260248101889052905191909216935063a9059cbb925060448083019260209291908290030181600087803b1580156116f557600080fd5b505af1158015611709573d6000803e3d6000fd5b505050506040513d602081101561171f57600080fd5b50505050565b60065481565b600f5481565b611739612f48565b6000546001600160a01b0390811691161461179b576040805162461bcd60e51b815260206004820181905260248201527f4f776e61626c653a2063616c6c6572206973206e6f7420746865206f776e6572604482015290519081900360640190fd5b600081116117f0576040805162461bcd60e51b815260206004820152601960248201527f50726f6669742073686172652063616e206e6f74206265203000000000000000604482015290519081900360640190fd5b600555565b336000908152600b6020526040902054611856576040805162461bcd60e51b815260206004820152601e60248201527f506c65617365205374616b6520437275736820746f20636f6d706f756e640000604482015290519081900360640190fd5b600061186133612f4c565b336000908152600b6020526040902054909150611884908263ffffffff61302916565b336000908152600b60205260409020556013546118a7908263ffffffff61302916565b601355336000908152600b6020526040902043600390910155600e546118d3908263ffffffff61308c16565b600e8190556040517f1ef37ab665f7c977b577275d7a49e72cd18d1143eccd1112f1198e4a39d1428c90600090a2604051819033907fab0e25dc39626189cfb41155020ba89e726b10244275733e9d7c63cf33ffccdb90600090a350565b600c818154811061193e57fe5b6000918252602090912001546001600160a01b0316905081565b611960612f48565b6000546001600160a01b039081169116146119c2576040805162461bcd60e51b815260206004820181905260248201527f4f776e61626c653a2063616c6c6572206973206e6f7420746865206f776e6572604482015290519081900360640190fd5b60008111611a17576040805162461bcd60e51b815260206004820152601a60248201527f466565206d7573742062652067726561746572207468616e2030000000000000604482015290519081900360640190fd5b6103e8811115611a6e576040805162461bcd60e51b815260206004820152601960248201527f466565206d757374206265206c657373207468616e2031302500000000000000604482015290519081900360640190fd5b600455565b60075481565b60025481565b611a87612f48565b6000546001600160a01b03908116911614611ae9576040805162461bcd60e51b815260206004820181905260248201527f4f776e61626c653a2063616c6c6572206973206e6f7420746865206f776e6572604482015290519081900360640190fd5b60008111611b3e576040805162461bcd60e51b815260206004820152601b60248201527f54696d65206d7573742062652067726561746572207468616e20300000000000604482015290519081900360640190fd5b600755565b611b4b612f48565b6000546001600160a01b03908116911614611bad576040805162461bcd60e51b815260206004820181905260248201527f4f776e61626c653a2063616c6c6572206973206e6f7420746865206f776e6572604482015290519081900360640190fd5b600080546040516001600160a01b03909116907f8be0079c531659141344cd1fd0a4f28419497f9722a3daafe3b4186f6b6457e0908390a36000805473ffffffffffffffffffffffffffffffffffffffff19169055565b611c0c612f48565b6000546001600160a01b03908116911614611c6e576040805162461bcd60e51b815260206004820181905260248201527f4f776e61626c653a2063616c6c6572206973206e6f7420746865206f776e6572604482015290519081900360640190fd5b60008111611cc3576040805162461bcd60e51b815260206004820152601260248201527f4c696d69742063616e206e6f7420626520300000000000000000000000000000604482015290519081900360640190fd5b601755565b60135481565b6000546001600160a01b03165b90565b43600f541115611d35576040805162461bcd60e51b815260206004820181905260248201527f436f6d706f756e6420416c6c206e6f7420796574206170706c696361626c652e604482015290519081900360640190fd5b600060135411611d8c576040805162461bcd60e51b815260206004820152601a60248201527f4e6f205374616b6564207265776172647320746f20636c61696d000000000000604482015290519081900360640190fd5b600c5460175460009182918291829181111580611dbf5750600c54601754601054611dbc9163ffffffff61302916565b10155b15611dcd5750600c54611de5565b601754601054611de29163ffffffff61302916565b90505b6010545b81811015612133576000611e1d600c8381548110611e0357fe5b6000918252602090912001546001600160a01b0316612f4c565b9050801561212a57611e35848263ffffffff61302916565b600d5490945015611f87576000600d600081548110611e5057fe5b9060005260206000209060020201600101541115611f87576000611ed460135461108a600b6000600c8881548110611e8457fe5b60009182526020808320909101546001600160a01b03168352820192909252604001812054600d805491929091611eb757fe5b60009182526020909120600290910201549063ffffffff6130ce16565b9050600d600081548110611ee457fe5b9060005260206000209060020201600101548110611f1f57600d600081548110611f0a57fe5b90600052602060002090600202016001015490505b611f5181600d600081548110611f3157fe5b90600052602060002090600202016001015461308c90919063ffffffff16565b600d600081548110611f5f57fe5b6000918252602090912060016002909202010155611f83828263ffffffff61302916565b9150505b6000611fa461271061108a600254856130ce90919063ffffffff16565b9050611fb6888263ffffffff61302916565b97506000611fd561271061108a600154866130ce90919063ffffffff16565b9050611fe7878263ffffffff61302916565b9650600061200661271061108a600454876130ce90919063ffffffff16565b9050612018898263ffffffff61302916565b985061202a848463ffffffff61308c16565b935061203c848363ffffffff61308c16565b935061204e848263ffffffff61308c16565b601354909450612064908563ffffffff61302916565b6013819055506120b084600b6000600c898154811061207f57fe5b60009182526020808320909101546001600160a01b031683528201929092526040019020549063ffffffff61302916565b600b6000600c88815481106120c157fe5b60009182526020808320909101546001600160a01b03168352820192909252604001812091909155600c80544392600b929091899081106120fe57fe5b60009182526020808320909101546001600160a01b031683528201929092526040019020600301555050505b50600101611de9565b50600c5460105461214a908363ffffffff61302916565b1061233257600d541561220457600d60008154811061216557fe5b90600052602060002090600202016001015460001480156121a557506000600d60008154811061219157fe5b906000526020600020906002020160000154115b80156121b25750600d5415155b1561220457600d805460001981019081106121c957fe5b9060005260206000209060020201600d6000815481106121e557fe5b6000918252602090912082546002909202019081556001918201549101555b60006010819055600954604080517f45c9c1d100000000000000000000000000000000000000000000000000000000815290516001600160a01b03909216916345c9c1d19160048082019260209290919082900301818787803b15801561226a57600080fd5b505af115801561227e573d6000803e3d6000fd5b505050506040513d602081101561229457600080fd5b505190508015612330576122a6613312565b506040805180820190915281815260208101828152600d805460018101825560009190915282517fd7b6990105719101dabeb77144f2a3385c8033acd3af97e9423a695e81ad1eb560029092029182015590517fd7b6990105719101dabeb77144f2a3385c8033acd3af97e9423a695e81ad1eb69091015560165461232b9083613029565b601655505b505b600e54612345908363ffffffff61308c16565b600e5543600f55600854604080517f42966c680000000000000000000000000000000000000000000000000000000081526004810188905290516001600160a01b03909216916342966c689160248082019260009290919082900301818387803b1580156123b257600080fd5b505af11580156123c6573d6000803e3d6000fd5b50506008546040805163a9059cbb60e01b81523360048201526024810188905290516001600160a01b03909216935063a9059cbb92506044808201926020929091908290030181600087803b15801561241e57600080fd5b505af1158015612432573d6000803e3d6000fd5b505050506040513d602081101561244857600080fd5b50506008546012546040805163a9059cbb60e01b81526001600160a01b039283166004820152602481018890529051919092169163a9059cbb9160448083019260209291908290030181600087803b1580156124a357600080fd5b505af11580156124b7573d6000803e3d6000fd5b505050506040513d60208110156124cd57600080fd5b50505050505050565b600a805473ffffffffffffffffffffffffffffffffffffffff19166001600160a01b0392909216919091179055565b61250d612f48565b6000546001600160a01b0390811691161461256f576040805162461bcd60e51b815260206004820181905260248201527f4f776e61626c653a2063616c6c6572206973206e6f7420746865206f776e6572604482015290519081900360640190fd5b600a8111156125af5760405162461bcd60e51b81526004018080602001828103825260278152602001806133ce6027913960400191505060405180910390fd5b601155565b60035481565b6008546001600160a01b031681565b60015481565b6009805473ffffffffffffffffffffffffffffffffffffffff19166001600160a01b0392909216919091179055565b612606612f48565b6000546001600160a01b03908116911614612668576040805162461bcd60e51b815260206004820181905260248201527f4f776e61626c653a2063616c6c6572206973206e6f7420746865206f776e6572604482015290519081900360640190fd5b600081116126bd576040805162461bcd60e51b815260206004820152601a60248201527f466565206d7573742062652067726561746572207468616e2030000000000000604482015290519081900360640190fd5b6103e88110612713576040805162461bcd60e51b815260206004820152601960248201527f466565206d757374206265206c657373207468616e2031302500000000000000604482015290519081900360640190fd5b600355565b612720612f48565b6000546001600160a01b03908116911614612782576040805162461bcd60e51b815260206004820181905260248201527f4f776e61626c653a2063616c6c6572206973206e6f7420746865206f776e6572604482015290519081900360640190fd5b600081116127d7576040805162461bcd60e51b815260206004820152601a60248201527f466565206d7573742062652067726561746572207468616e2030000000000000604482015290519081900360640190fd5b6103e8811061282d576040805162461bcd60e51b815260206004820152601960248201527f466565206d757374206265206c657373207468616e2031302500000000000000604482015290519081900360640190fd5b600255565b60115481565b612840612f48565b6000546001600160a01b039081169116146128a2576040805162461bcd60e51b815260206004820181905260248201527f4f776e61626c653a2063616c6c6572206973206e6f7420746865206f776e6572604482015290519081900360640190fd5b6000600e54116128e35760405162461bcd60e51b81526004018080602001828103825260248152602001806134166024913960400191505060405180910390fd5b601554156129af57600854601554600e546001600160a01b039092169163a9059cbb9133916129179163ffffffff61308c16565b6040518363ffffffff1660e01b815260040180836001600160a01b03166001600160a01b0316815260200182815260200192505050602060405180830381600087803b15801561296657600080fd5b505af115801561297a573d6000803e3d6000fd5b505050506040513d602081101561299057600080fd5b5050601554600e546129a79163ffffffff61308c16565b600e55612a38565b600854600e546040805163a9059cbb60e01b81523360048201526024810192909252516001600160a01b039092169163a9059cbb916044808201926020929091908290030181600087803b158015612a0657600080fd5b505af1158015612a1a573d6000803e3d6000fd5b505050506040513d6020811015612a3057600080fd5b50506000600e555b565b60145481565b60155460009015612a8157601354336000908152600b6020526040902054601554612a7a9261109692909161108a9163ffffffff6130ce16565b9050612a93565b50336000908152600b60205260409020545b6008546040805163a9059cbb60e01b81523360048201526024810184905290516001600160a01b039092169163a9059cbb916044808201926020929091908290030181600087803b158015612ae757600080fd5b505af1158015612afb573d6000803e3d6000fd5b505050506040513d6020811015612b1157600080fd5b5050336000908152600b6020526040902054612b33908263ffffffff61308c16565b336000908152600b6020526040902081815543600390910155612c9757336000908152600b60205260409020600c54600582015460001990910114612c0657600c8054600091906000198101908110612b8857fe5b9060005260206000200160009054906101000a90046001600160a01b0316905080600c836005015481548110612bba57fe5b6000918252602080832091909101805473ffffffffffffffffffffffffffffffffffffffff19166001600160a01b03948516179055600585810154949093168252600b90526040902001555b600c805480612c1157fe5b600082815260208082206000199084018101805473ffffffffffffffffffffffffffffffffffffffff191690559092019092556008546040805163095ea7b360e01b81523060048201526024810185905290516001600160a01b039092169363095ea7b39360448084019491939192918390030190829087803b1580156116f557600080fd5b50565b600b60205260009081526040902080546001820154600283015460038401546004850154600590950154939492939192909186565b601554811115612d105760405162461bcd60e51b815260040180806020018281038252603c81526020018061332d603c913960400191505060405180910390fd5b601554612d23908263ffffffff61308c16565b60155550565b600a546001600160a01b031681565b6000600f544311612d4b57506000611cdb565b600f54612d5a57506000611cdb565b600e54612d6957506000611cdb565b6000612d80600f544361308c90919063ffffffff16565b90506000612d99601154836130ce90919063ffffffff16565b9250505090565b60175481565b600e5481565b336000908152600b6020526040902060020154612e10576040805162461bcd60e51b815260206004820152601260248201527f4e6f2050726f66697420746f20636c61696d0000000000000000000000000000604482015290519081900360640190fd5b600854336000818152600b6020908152604080832060020154815163a9059cbb60e01b815260048101959095526024850152516001600160a01b039094169363a9059cbb93604480820194918390030190829087803b158015612e7257600080fd5b505af1158015612e86573d6000803e3d6000fd5b505050506040513d6020811015612e9c57600080fd5b5050336000908152600b6020526040812060020155565b612ebb612f48565b6000546001600160a01b03908116911614612f1d576040805162461bcd60e51b815260206004820181905260248201527f4f776e61626c653a2063616c6c6572206973206e6f7420746865206f776e6572604482015290519081900360640190fd5b612c9781613169565b6000612f3182612f4c565b90505b919050565b6012546001600160a01b031681565b3390565b6001600160a01b0381166000908152600b60205260408120600301544311612f7657506000612f34565b600e541580612f855750601354155b15612f9257506000612f34565b6001600160a01b0382166000908152600b6020526040812060030154612fbf90439063ffffffff61308c16565b90506000612fd8601154836130ce90919063ffffffff16565b6013546001600160a01b0386166000908152600b60205260408120549293509161300e919061108a90859063ffffffff6130ce16565b9050600e5481111561301f5750600e545b9250612f34915050565b600082820183811015613083576040805162461bcd60e51b815260206004820152601b60248201527f536166654d6174683a206164646974696f6e206f766572666c6f770000000000604482015290519081900360640190fd5b90505b92915050565b600061308383836040518060400160405280601e81526020017f536166654d6174683a207375627472616374696f6e206f766572666c6f770000815250613216565b6000826130dd57506000613086565b828202828482816130ea57fe5b04146130835760405162461bcd60e51b81526004018080602001828103825260218152602001806133f56021913960400191505060405180910390fd5b600061308383836040518060400160405280601a81526020017f536166654d6174683a206469766973696f6e206279207a65726f0000000000008152506132ad565b6001600160a01b0381166131ae5760405162461bcd60e51b81526004018080602001828103825260268152602001806133a86026913960400191505060405180910390fd5b600080546040516001600160a01b03808516939216917f8be0079c531659141344cd1fd0a4f28419497f9722a3daafe3b4186f6b6457e091a36000805473ffffffffffffffffffffffffffffffffffffffff19166001600160a01b0392909216919091179055565b600081848411156132a55760405162461bcd60e51b81526004018080602001828103825283818151815260200191508051906020019080838360005b8381101561326a578181015183820152602001613252565b50505050905090810190601f1680156132975780820380516001836020036101000a031916815260200191505b509250505060405180910390fd5b505050900390565b600081836132fc5760405162461bcd60e51b815260206004820181815283516024840152835190928392604490910191908501908083836000831561326a578181015183820152602001613252565b50600083858161330857fe5b0495945050505050565b60405180604001604052806000815260200160008152509056fe756e667265657a6520616d6f756e742063616e742062652067726561746572207468616e2063757272656e746c792066726f7a656e20616d6f756e74576974686472617720616d6f756e742063616e206e6f742062652067726561746572207468616e20617661696c61626c65207374616b656420616d6f756e744f776e61626c653a206e6577206f776e657220697320746865207a65726f206164647265737343727573682050657220426c6f636b2063616e206e6f74206265206d6f7265207468616e203130536166654d6174683a206d756c7469706c69636174696f6e206f766572666c6f77546f74616c20506f6f6c206e65656420746f2062652067726561746572207468616e2030496e73756666696369656e7420437275736820746f6b656e7320666f72207472616e73666572467265657a6520616d6f756e742073686f756c64206265206c657373207468616e206f7220657175616c20746f20617661696c61626c652066756e6473a2646970667358221220e5a1e8245ecae5fc434874d1fd77038914dac4e9a80b28d798b2724b15c07bb564736f6c63430006020033",
  "source": "//SPDX-License-Identifier: MIT\npragma solidity >=0.6.2;\n\nimport \"@pancakeswap/pancake-swap-lib/contracts/access/Ownable.sol\";\nimport \"./CrushCoin.sol\";\nimport \"@pancakeswap/pancake-swap-lib/contracts/math/SafeMath.sol\";\nimport \"./HouseBankroll.sol\";\nimport \"./LiveWallet.sol\";\ncontract BitcrushStaking is Ownable {\n    using SafeMath for uint256;\n    \n    uint256 constant MAX_CRUSH_PER_BLOCK = 10;\n    uint256 constant MAX_FEE = 1000; // 1000/10000 * 100 = 10%\n    uint256 public performanceFeeCompounder = 10; // 10/10000 * 100 = 0.1%\n    uint256 public performanceFeeBurn       = 100; // 100/10000 * 100 = 1%\n    uint256 constant divisor = 10000;\n    \n    uint256  public earlyWithdrawFee         = 50; // 50/10000 * 100 = 0.5% \n    uint256  public performanceFeeReserve    = 190; // 190/10000 * 100 = 1.9%\n    \n    uint256 public profitShare = 10;\n    uint256 public blockPerSecond = 3;\n    uint256 public earlyWithdrawFeeTime = 72 * 60 * 60 / blockPerSecond;\n    \n    //address of the crush token\n    CRUSHToken public crush;\n    BitcrushBankroll public bankroll;\n    BitcrushLiveWallet public liveWallet;\n    struct staked {\n        uint256 stakedAmount;\n        uint256 claimedAmount;\n        uint256 profit;\n        uint256 lastBlockCompounded;\n        uint256 lastBlockStaked;\n        uint256 index;\n    }\n    mapping (address => staked) public stakings;\n    address[] public addressIndexes;\n\n    struct profit {\n        uint256 total;\n        uint256 remaining;\n    }\n    profit[] public profits;\n\n    uint256 public totalPool;\n    uint256 public lastAutoCompoundBlock;\n    uint256 public batchStartingIndex = 0;\n    \n    uint256 public crushPerBlock = 5;\n    address public reserveAddress;\n\n    uint256 public totalStaked;\n    \n    uint256 public totalClaimed;\n    uint256 public totalFrozen = 0;\n    uint256 public totalProfitDistributed = 0;\n    \n    uint256 public autoCompoundLimit = 10;\n\n    event RewardPoolUpdated (uint256 indexed _totalPool);\n    \n    event StakeUpdated (address indexed recipeint, uint256 indexed _amount);\n    \n    constructor (CRUSHToken _crush, uint256 _crushPerBlock, address _reserveAddress) public{\n        crush = _crush;\n        crushPerBlock = _crushPerBlock;\n        reserveAddress = _reserveAddress;\n        lastAutoCompoundBlock = 0;\n        \n    }\n\n    function setBankroll (BitcrushBankroll _bankroll) public {\n        bankroll = _bankroll;\n    }\n    function setLiveWallet (BitcrushLiveWallet _liveWallet) public{\n        liveWallet = _liveWallet;\n    }\n\n    /// Adds the provided amount to the totalPool\n    /// @param _amount the amount to add\n    /// @dev adds the provided amount to `totalPool` state variable\n    function addRewardToPool (uint256 _amount) public  {\n        require(crush.balanceOf(msg.sender) >= _amount, \"Insufficient Crush tokens for transfer\");\n        totalPool = totalPool.add(_amount);\n        crush.transferFrom(msg.sender, address(this), _amount);\n        emit RewardPoolUpdated(totalPool);\n    }\n\n    \n    function setCrushPerBlock (uint256 _amount) public onlyOwner {\n        require(_amount >= 0, \"Crush per Block can not be negative\" );\n        require(_amount <= MAX_CRUSH_PER_BLOCK, \"Crush Per Block can not be more than 10\");\n        crushPerBlock = _amount;\n    }\n\n\n    /// Stake the provided amount\n    /// @param _amount the amount to stake\n    /// @dev stakes the provided amount\n    function enterStaking (uint256 _amount) public  {\n        require(crush.balanceOf(msg.sender) >= _amount, \"Insufficient Crush tokens for transfer\");\n        require(_amount > 0,\"Invalid staking amount\");\n        require(totalPool > 0, \"Reward Pool Exhausted\");\n        \n        crush.transferFrom(msg.sender, address(this), _amount);\n        if(totalStaked == 0){\n            lastAutoCompoundBlock = block.number;\n        }\n        if(stakings[msg.sender].stakedAmount == 0){\n            stakings[msg.sender].lastBlockCompounded = block.number;\n            addressIndexes.push(msg.sender);\n            stakings[msg.sender].index = addressIndexes.length-1;\n        }\n        stakings[msg.sender].stakedAmount = stakings[msg.sender].stakedAmount.add(_amount);\n        stakings[msg.sender].lastBlockStaked = block.number;\n        totalStaked = totalStaked.add(_amount);\n        crush.transfer(msg.sender, getReward(msg.sender));\n        stakings[msg.sender].lastBlockCompounded = block.number;\n        \n       \n    }\n\n\n\n    /// Leaves staking for a user by the specified amount and transfering staked amount and reward to users address\n    /// @param _amount the amount to unstake\n    /// @dev leaves staking and deducts total pool by the users reward. early withdrawal fee applied if withdraw is made before earlyWithdrawFeeTime\n    function leaveStaking (uint256 _amount, bool _liveWallet) public  {\n        uint256 reward = getReward(msg.sender);\n        stakings[msg.sender].lastBlockCompounded = block.number;\n        totalPool = totalPool.sub(reward);\n        uint256 availableStaked;\n        if(totalFrozen > 0){\n            availableStaked = stakings[msg.sender].stakedAmount.sub(totalFrozen.mul(stakings[msg.sender].stakedAmount).div(totalStaked));\n        }else {\n            availableStaked = stakings[msg.sender].stakedAmount;\n        }\n        require(availableStaked >= _amount, \"Withdraw amount can not be greater than available staked amount\");\n        totalStaked = totalStaked.sub(_amount);\n        stakings[msg.sender].stakedAmount = stakings[msg.sender].stakedAmount.sub(_amount);\n        if(block.number < stakings[msg.sender].lastBlockStaked.add(earlyWithdrawFeeTime)){\n            //apply fee\n            uint256 withdrawalFee = _amount.mul(earlyWithdrawFee).div(divisor);\n            _amount = _amount.sub(withdrawalFee);\n            crush.transfer(reserveAddress, withdrawalFee);\n        }\n        _amount = _amount.add(reward);\n        if(_liveWallet == false){\n            crush.transfer(msg.sender, _amount);\n        }else {\n            crush.approve(address(liveWallet), _amount);\n            liveWallet.addbetWithAddress(_amount, msg.sender);\n        }\n        \n        //remove from array\n        if(stakings[msg.sender].stakedAmount == 0){\n            staked storage staking = stakings[msg.sender];\n            if(staking.index != addressIndexes.length-1){\n                address lastAddress = addressIndexes[addressIndexes.length-1];\n                addressIndexes[staking.index] = lastAddress;\n                stakings[lastAddress].index = staking.index;\n                crush.approve( address(this), 0);\n            }\n            addressIndexes.pop();\n            delete stakings[msg.sender];\n        }\n        emit RewardPoolUpdated(totalPool);\n    }\n\n\n    function getReward(address _address) internal view returns (uint256) {\n        if(block.number <=  stakings[_address].lastBlockCompounded){\n            return 0;\n        }else {\n            if(totalPool == 0 || totalStaked ==0 ){\n                return 0;\n            }else {\n                //if the staker reward is greater than total pool => set it to total pool\n                uint256 blocks = block.number.sub(stakings[_address].lastBlockCompounded);\n                uint256 totalReward = blocks.mul(crushPerBlock);\n                uint256 stakerReward = totalReward.mul(stakings[_address].stakedAmount).div(totalStaked);\n                if(stakerReward > totalPool){\n                    stakerReward = totalPool;\n                }\n                return stakerReward;\n            }\n            \n        }\n    }\n\n    /// Calculates total potential pending rewards\n    /// @dev Calculates potential reward based on crush per block\n    function totalPendingRewards () public view returns (uint256){\n            if(block.number <= lastAutoCompoundBlock){\n                return 0;\n            }else if(lastAutoCompoundBlock == 0){\n                return 0;\n            }else if (totalPool == 0){\n                return 0;\n            }\n\n            uint256 blocks = block.number.sub(lastAutoCompoundBlock);\n            uint256 totalReward = blocks.mul(crushPerBlock);\n\n            return totalReward;\n    }\n\n    /// Get pending rewards of a user\n    /// @param _address the address to calculate the reward for\n    /// @dev calculates potential reward for the address provided based on crush per block\n    function pendingReward (address _address) public view returns (uint256){\n        return getReward(_address);\n    }\n\n    /// transfers the rewards of a user to their address\n    /// @dev calculates users rewards and transfers it out while deducting reward from totalPool\n    function claim (bool _liveWallet) public  {\n        uint256 reward = getReward(msg.sender);\n        stakings[msg.sender].claimedAmount = stakings[msg.sender].claimedAmount.add(reward);\n        if(_liveWallet == false){\n            crush.transfer(msg.sender, reward);\n        }else {\n            crush.approve(address(liveWallet), reward);\n            liveWallet.addbetWithAddress(reward, msg.sender);\n        }\n        stakings[msg.sender].lastBlockCompounded = block.number;\n        totalClaimed = totalClaimed.add(reward);\n        totalPool = totalPool.sub(reward); \n    }\n\n\n\n\n    function claimProfit () public {\n        require(stakings[msg.sender].profit > 0, \"No Profit to claim\");\n        crush.transfer(msg.sender, stakings[msg.sender].profit);\n        stakings[msg.sender].profit = 0;\n    }\n\n    /// compounds the rewards of the caller\n    /// @dev compounds the rewards of the caller add adds it into their staked amount\n    function singleCompound () public  {\n        require(stakings[msg.sender].stakedAmount > 0, \"Please Stake Crush to compound\");\n        uint256 reward = getReward(msg.sender);\n        stakings[msg.sender].stakedAmount = stakings[msg.sender].stakedAmount.add(reward); \n        totalStaked = totalStaked.add(reward);\n        stakings[msg.sender].lastBlockCompounded = block.number;\n        totalPool = totalPool.sub(reward);\n        emit RewardPoolUpdated(totalPool);\n        emit StakeUpdated(msg.sender,reward);\n    }\n\n  \n\n    /// compounds the rewards of all users in the pool\n    /// @dev compounds the rewards of all users in the pool add adds it into their staked amount while deducting fees\n    function compoundAll () public  {\n        require(lastAutoCompoundBlock <= block.number, \"Compound All not yet applicable.\");\n        require(totalStaked > 0, \"No Staked rewards to claim\" );\n        uint256 crushToBurn = 0;\n        uint256 performanceFee = 0;\n        \n        uint256 compounderReward = 0;\n        uint totalPoolDeducted = 0;\n        \n        uint256 batchLimit = addressIndexes.length;\n        if(addressIndexes.length <= autoCompoundLimit || batchStartingIndex.add(autoCompoundLimit) >= addressIndexes.length){\n            batchLimit = addressIndexes.length;\n        }else {\n            batchLimit = batchStartingIndex.add(autoCompoundLimit);\n        }\n        for(uint256 i=batchStartingIndex; i < batchLimit; i++){\n            uint256 stakerReward = getReward(addressIndexes[i]);\n            \n            if(stakerReward > 0){\n                totalPoolDeducted = totalPoolDeducted.add(stakerReward);\n                if(profits.length > 0){\n                    if(profits[0].remaining > 0){\n                    uint256 profitShareUser = profits[0].total.mul(stakings[addressIndexes[i]].stakedAmount).div(totalStaked);\n                    if(profitShareUser >= profits[0].remaining){\n                    profitShareUser = profits[0].remaining;\n                    }\n                    profits[0].remaining = profits[0].remaining.sub(profitShareUser);\n                    stakerReward = stakerReward.add(profitShareUser); \n                    }\n                }\n            \n                uint256 stakerBurn = stakerReward.mul(performanceFeeBurn).div(divisor);\n                crushToBurn = crushToBurn.add(stakerBurn);\n            \n                uint256 cpAllReward = stakerReward.mul(performanceFeeCompounder).div(divisor);\n                compounderReward = compounderReward.add(cpAllReward);\n            \n                uint256 feeReserve = stakerReward.mul(performanceFeeReserve).div(divisor);\n                performanceFee = performanceFee.add(feeReserve);\n\n                stakerReward = stakerReward.sub(stakerBurn);\n                stakerReward = stakerReward.sub(cpAllReward);\n                stakerReward = stakerReward.sub(feeReserve);\n            \n                totalStaked = totalStaked.add(stakerReward);\n                stakings[addressIndexes[i]].stakedAmount = stakings[addressIndexes[i]].stakedAmount.add(stakerReward);\n                stakings[addressIndexes[i]].lastBlockCompounded = block.number;\n            }\n            \n                        \n        }\n        if(batchStartingIndex.add(batchLimit) >= addressIndexes.length){\n            if(profits.length > 0){\n                if(profits[0].remaining == 0 && profits[0].total > 0 && profits.length > 0 ){\n                //rearrange array\n                profits[0] = profits[profits.length - 1];\n                profits.pop;\n\n                }\n            }\n            \n            batchStartingIndex = 0;\n            uint256 newProfit = bankroll.transferProfit();\n            if(newProfit > 0){\n                //profit deduction\n                profit memory prof = profit(newProfit,newProfit);\n                profits.push(prof);\n                totalProfitDistributed = totalProfitDistributed.add(newProfit);\n            }\n        }\n        totalPool = totalPool.sub(totalPoolDeducted);\n        lastAutoCompoundBlock = block.number;\n        crush.burn(crushToBurn);\n        crush.transfer(msg.sender, compounderReward);\n        crush.transfer(reserveAddress, performanceFee);\n        \n    }\n\n\n    function freezeStaking (uint256 _amount, address _recipient) public {\n        //divide amount over users\n        //update user mapping to reflect frozen amount\n         require(_amount <= totalStaked.sub(totalFrozen), \"Freeze amount should be less than or equal to available funds\");\n         totalFrozen = totalFrozen.add(_amount);\n         liveWallet.addToUserWinnings(_amount, _recipient);\n         crush.transfer(address(liveWallet), _amount);\n    }\n\n    function unfreezeStaking (uint256 _amount) public {\n       //divide amount over users\n        //update user mapping to reflect deducted frozen amount\n         require(_amount <= totalFrozen, \"unfreeze amount cant be greater than currently frozen amount\");\n         totalFrozen = totalFrozen.sub(_amount);\n    }\n\n\n    /// withdraws the staked amount of user in case of emergency.\n    /// @dev drains the staked amount and sets the state variable `stakedAmount` of staking mapping to 0\n    function emergencyWithdraw() public {\n        //add check for frozen amount\n        uint256 availableStaked;\n        if(totalFrozen > 0){\n            availableStaked = stakings[msg.sender].stakedAmount.sub(totalFrozen.mul(stakings[msg.sender].stakedAmount).div(totalStaked));\n        }else {\n            availableStaked = stakings[msg.sender].stakedAmount;\n        }\n\n        crush.transfer( msg.sender, availableStaked);\n        stakings[msg.sender].stakedAmount = stakings[msg.sender].stakedAmount.sub(availableStaked);\n        \n        stakings[msg.sender].lastBlockCompounded = block.number;\n        if(stakings[msg.sender].stakedAmount == 0) {\n            staked storage staking = stakings[msg.sender];\n            if(staking.index != addressIndexes.length-1){\n                address lastAddress = addressIndexes[addressIndexes.length-1];\n                addressIndexes[staking.index] = lastAddress;\n                stakings[lastAddress].index = staking.index;\n            }\n            addressIndexes.pop();\n            crush.approve( address(this), 0);\n        }\n        \n    }\n\n    /// withdraws the total pool in case of emergency.\n    /// @dev drains the total pool and sets the state variable `totalPool` to 0\n    function emergencyTotalPoolWithdraw () public onlyOwner {\n        require(totalPool > 0, \"Total Pool need to be greater than 0\");\n        if(totalFrozen > 0){\n            crush.transfer(msg.sender, totalPool.sub(totalFrozen));\n            totalPool = totalPool.sub(totalFrozen);\n        } else {\n            crush.transfer(msg.sender, totalPool);\n            totalPool = 0;\n        }\n        \n    }\n\n    /// Store `_fee`.\n    /// @param _fee the new value to store\n    /// @dev stores the fee in the state variable `performanceFeeCompounder`\n    function setPerformanceFeeCompounder (uint256 _fee) public onlyOwner{\n        require(_fee > 0, \"Fee must be greater than 0\");\n        require(_fee < MAX_FEE, \"Fee must be less than 10%\");\n        performanceFeeCompounder = _fee;\n    }\n\n    /// Store `_fee`.\n    /// @param _fee the new value to store\n    /// @dev stores the fee in the state variable `performanceFeeBurn`\n    function setPerformanceFeeBurn (uint256 _fee) public onlyOwner {\n        require(_fee > 0, \"Fee must be greater than 0\");\n        require(_fee < MAX_FEE, \"Fee must be less than 10%\");\n        performanceFeeBurn = _fee;\n    }\n\n    /// Store `_fee`.\n    /// @param _fee the new value to store\n    /// @dev stores the fee in the state variable `earlyWithdrawFee`\n    function setEarlyWithdrawFee (uint256 _fee) public onlyOwner {\n        require(_fee > 0, \"Fee must be greater than 0\");\n        require(_fee < MAX_FEE, \"Fee must be less than 10%\");\n        earlyWithdrawFee = _fee;\n    }\n\n\n    /// Store `_fee`.\n    /// @param _fee the new value to store\n    /// @dev stores the fee in the state variable `performanceFeeReserve`\n    function setPerformanceFeeReserve (uint256 _fee) public onlyOwner {\n        require(_fee > 0, \"Fee must be greater than 0\");\n        require(_fee <= MAX_FEE, \"Fee must be less than 10%\");\n        performanceFeeReserve = _fee;\n    }\n\n    /// Store `_time`.\n    /// @param _time the new value to store\n    /// @dev stores the time in the state variable `earlyWithdrawFeeTime`\n    function setEarlyWithdrawFeeTime (uint256 _time) public onlyOwner {\n        require(_time > 0, \"Time must be greater than 0\");\n        earlyWithdrawFeeTime = _time;\n    }\n\n    function setAutoCompoundLimit (uint256 _limit) public onlyOwner {\n        require(_limit > 0, \"Limit can not be 0\");\n        autoCompoundLimit = _limit;\n    }\n\n    function setProfitShare (uint256 _profitShare) public onlyOwner {\n        require(_profitShare > 0, \"Profit share can not be 0\");\n        profitShare = _profitShare;\n    }\n\n   \n}\n",
  "sourcePath": "/Users/umerali/Desktop/FRAG/bitcrush/crush_contracts/contracts/staking.sol",
  "compiler": {
    "name": "solc",
    "version": "0.6.2+commit.bacdbe57.Emscripten.clang"
  },
  "schemaVersion": "3.4.1",
  "updatedAt": "2021-09-30T09:24:53.804Z",
  "networkType": "ethereum",
  "devdoc": {
    "methods": {
      "addRewardToPool(uint256)": {
        "details": "adds the provided amount to `totalPool` state variable",
        "params": {
          "_amount": "the amount to add"
        }
      },
      "claim(bool)": {
        "details": "calculates users rewards and transfers it out while deducting reward from totalPool"
      },
      "compoundAll()": {
        "details": "compounds the rewards of all users in the pool add adds it into their staked amount while deducting fees"
      },
      "emergencyTotalPoolWithdraw()": {
        "details": "drains the total pool and sets the state variable `totalPool` to 0"
      },
      "emergencyWithdraw()": {
        "details": "drains the staked amount and sets the state variable `stakedAmount` of staking mapping to 0"
      },
      "enterStaking(uint256)": {
        "details": "stakes the provided amount",
        "params": {
          "_amount": "the amount to stake"
        }
      },
      "leaveStaking(uint256,bool)": {
        "details": "leaves staking and deducts total pool by the users reward. early withdrawal fee applied if withdraw is made before earlyWithdrawFeeTime",
        "params": {
          "_amount": "the amount to unstake"
        }
      },
      "owner()": {
        "details": "Returns the address of the current owner."
      },
      "pendingReward(address)": {
        "details": "calculates potential reward for the address provided based on crush per block",
        "params": {
          "_address": "the address to calculate the reward for"
        }
      },
      "renounceOwnership()": {
        "details": "Leaves the contract without owner. It will not be possible to call `onlyOwner` functions anymore. Can only be called by the current owner.     * NOTE: Renouncing ownership will leave the contract without an owner, thereby removing any functionality that is only available to the owner."
      },
      "setEarlyWithdrawFee(uint256)": {
        "details": "stores the fee in the state variable `earlyWithdrawFee`",
        "params": {
          "_fee": "the new value to store"
        }
      },
      "setEarlyWithdrawFeeTime(uint256)": {
        "details": "stores the time in the state variable `earlyWithdrawFeeTime`",
        "params": {
          "_time": "the new value to store"
        }
      },
      "setPerformanceFeeBurn(uint256)": {
        "details": "stores the fee in the state variable `performanceFeeBurn`",
        "params": {
          "_fee": "the new value to store"
        }
      },
      "setPerformanceFeeCompounder(uint256)": {
        "details": "stores the fee in the state variable `performanceFeeCompounder`",
        "params": {
          "_fee": "the new value to store"
        }
      },
      "setPerformanceFeeReserve(uint256)": {
        "details": "stores the fee in the state variable `performanceFeeReserve`",
        "params": {
          "_fee": "the new value to store"
        }
      },
      "singleCompound()": {
        "details": "compounds the rewards of the caller add adds it into their staked amount"
      },
      "totalPendingRewards()": {
        "details": "Calculates potential reward based on crush per block"
      },
      "transferOwnership(address)": {
        "details": "Transfers ownership of the contract to a new account (`newOwner`). Can only be called by the current owner."
      }
    }
  },
  "userdoc": {
    "methods": {
      "addRewardToPool(uint256)": {
        "notice": "Adds the provided amount to the totalPool"
      },
      "claim(bool)": {
        "notice": "transfers the rewards of a user to their address"
      },
      "compoundAll()": {
        "notice": "compounds the rewards of all users in the pool"
      },
      "emergencyTotalPoolWithdraw()": {
        "notice": "withdraws the total pool in case of emergency."
      },
      "emergencyWithdraw()": {
        "notice": "withdraws the staked amount of user in case of emergency."
      },
      "enterStaking(uint256)": {
        "notice": "Stake the provided amount"
      },
      "leaveStaking(uint256,bool)": {
        "notice": "Leaves staking for a user by the specified amount and transfering staked amount and reward to users address"
      },
      "pendingReward(address)": {
        "notice": "Get pending rewards of a user"
      },
      "setEarlyWithdrawFee(uint256)": {
        "notice": "Store `_fee`."
      },
      "setEarlyWithdrawFeeTime(uint256)": {
        "notice": "Store `_time`."
      },
      "setPerformanceFeeBurn(uint256)": {
        "notice": "Store `_fee`."
      },
      "setPerformanceFeeCompounder(uint256)": {
        "notice": "Store `_fee`."
      },
      "setPerformanceFeeReserve(uint256)": {
        "notice": "Store `_fee`."
      },
      "singleCompound()": {
        "notice": "compounds the rewards of the caller"
      },
      "totalPendingRewards()": {
        "notice": "Calculates total potential pending rewards"
      }
    }
  }
}