{
  "contractName": "BitcrushStaking",
  "abi": [
    {
      "inputs": [
        {
          "internalType": "contract CRUSHToken",
          "name": "_crush",
          "type": "address"
        },
        {
          "internalType": "uint256",
          "name": "_crushPerBlock",
          "type": "uint256"
        },
        {
          "internalType": "address",
          "name": "_reserveAddress",
          "type": "address"
        }
      ],
      "stateMutability": "nonpayable",
      "type": "constructor"
    },
    {
      "anonymous": false,
      "inputs": [
        {
          "indexed": true,
          "internalType": "address",
          "name": "previousOwner",
          "type": "address"
        },
        {
          "indexed": true,
          "internalType": "address",
          "name": "newOwner",
          "type": "address"
        }
      ],
      "name": "OwnershipTransferred",
      "type": "event"
    },
    {
      "anonymous": false,
      "inputs": [
        {
          "indexed": true,
          "internalType": "uint256",
          "name": "_totalPool",
          "type": "uint256"
        }
      ],
      "name": "RewardPoolUpdated",
      "type": "event"
    },
    {
      "anonymous": false,
      "inputs": [
        {
          "indexed": true,
          "internalType": "address",
          "name": "recipeint",
          "type": "address"
        },
        {
          "indexed": true,
          "internalType": "uint256",
          "name": "_amount",
          "type": "uint256"
        }
      ],
      "name": "StakeUpdated",
      "type": "event"
    },
    {
      "inputs": [],
      "name": "MAX_CRUSH_PER_BLOCK",
      "outputs": [
        {
          "internalType": "uint256",
          "name": "",
          "type": "uint256"
        }
      ],
      "stateMutability": "view",
      "type": "function"
    },
    {
      "inputs": [],
      "name": "MAX_FEE",
      "outputs": [
        {
          "internalType": "uint256",
          "name": "",
          "type": "uint256"
        }
      ],
      "stateMutability": "view",
      "type": "function"
    },
    {
      "inputs": [],
      "name": "accProfitPerShare",
      "outputs": [
        {
          "internalType": "uint256",
          "name": "",
          "type": "uint256"
        }
      ],
      "stateMutability": "view",
      "type": "function"
    },
    {
      "inputs": [],
      "name": "accRewardPerShare",
      "outputs": [
        {
          "internalType": "uint256",
          "name": "",
          "type": "uint256"
        }
      ],
      "stateMutability": "view",
      "type": "function"
    },
    {
      "inputs": [
        {
          "internalType": "uint256",
          "name": "",
          "type": "uint256"
        }
      ],
      "name": "addressIndexes",
      "outputs": [
        {
          "internalType": "address",
          "name": "",
          "type": "address"
        }
      ],
      "stateMutability": "view",
      "type": "function"
    },
    {
      "inputs": [],
      "name": "apyBoost",
      "outputs": [
        {
          "internalType": "uint256",
          "name": "",
          "type": "uint256"
        }
      ],
      "stateMutability": "view",
      "type": "function"
    },
    {
      "inputs": [],
      "name": "autoCompoundLimit",
      "outputs": [
        {
          "internalType": "uint256",
          "name": "",
          "type": "uint256"
        }
      ],
      "stateMutability": "view",
      "type": "function"
    },
    {
      "inputs": [],
      "name": "bankroll",
      "outputs": [
        {
          "internalType": "contract BitcrushBankroll",
          "name": "",
          "type": "address"
        }
      ],
      "stateMutability": "view",
      "type": "function"
    },
    {
      "inputs": [],
      "name": "batchStartingIndex",
      "outputs": [
        {
          "internalType": "uint256",
          "name": "",
          "type": "uint256"
        }
      ],
      "stateMutability": "view",
      "type": "function"
    },
    {
      "inputs": [],
      "name": "blockPerSecond",
      "outputs": [
        {
          "internalType": "uint256",
          "name": "",
          "type": "uint256"
        }
      ],
      "stateMutability": "view",
      "type": "function"
    },
    {
      "inputs": [],
      "name": "crush",
      "outputs": [
        {
          "internalType": "contract CRUSHToken",
          "name": "",
          "type": "address"
        }
      ],
      "stateMutability": "view",
      "type": "function"
    },
    {
      "inputs": [],
      "name": "crushPerBlock",
      "outputs": [
        {
          "internalType": "uint256",
          "name": "",
          "type": "uint256"
        }
      ],
      "stateMutability": "view",
      "type": "function"
    },
    {
      "inputs": [],
      "name": "deploymentTimeStamp",
      "outputs": [
        {
          "internalType": "uint256",
          "name": "",
          "type": "uint256"
        }
      ],
      "stateMutability": "view",
      "type": "function"
    },
    {
      "inputs": [],
      "name": "divisor",
      "outputs": [
        {
          "internalType": "uint256",
          "name": "",
          "type": "uint256"
        }
      ],
      "stateMutability": "view",
      "type": "function"
    },
    {
      "inputs": [],
      "name": "earlyWithdrawFee",
      "outputs": [
        {
          "internalType": "uint256",
          "name": "",
          "type": "uint256"
        }
      ],
      "stateMutability": "view",
      "type": "function"
    },
    {
      "inputs": [],
      "name": "earlyWithdrawFeeTime",
      "outputs": [
        {
          "internalType": "uint256",
          "name": "",
          "type": "uint256"
        }
      ],
      "stateMutability": "view",
      "type": "function"
    },
    {
      "inputs": [],
      "name": "frozenEarlyWithdrawFee",
      "outputs": [
        {
          "internalType": "uint256",
          "name": "",
          "type": "uint256"
        }
      ],
      "stateMutability": "view",
      "type": "function"
    },
    {
      "inputs": [],
      "name": "frozenEarlyWithdrawFeeTime",
      "outputs": [
        {
          "internalType": "uint256",
          "name": "",
          "type": "uint256"
        }
      ],
      "stateMutability": "view",
      "type": "function"
    },
    {
      "inputs": [],
      "name": "lastAutoCompoundBlock",
      "outputs": [
        {
          "internalType": "uint256",
          "name": "",
          "type": "uint256"
        }
      ],
      "stateMutability": "view",
      "type": "function"
    },
    {
      "inputs": [],
      "name": "lastRewardBlock",
      "outputs": [
        {
          "internalType": "uint256",
          "name": "",
          "type": "uint256"
        }
      ],
      "stateMutability": "view",
      "type": "function"
    },
    {
      "inputs": [],
      "name": "liveWallet",
      "outputs": [
        {
          "internalType": "contract BitcrushLiveWallet",
          "name": "",
          "type": "address"
        }
      ],
      "stateMutability": "view",
      "type": "function"
    },
    {
      "inputs": [],
      "name": "owner",
      "outputs": [
        {
          "internalType": "address",
          "name": "",
          "type": "address"
        }
      ],
      "stateMutability": "view",
      "type": "function"
    },
    {
      "inputs": [],
      "name": "performanceFeeBurn",
      "outputs": [
        {
          "internalType": "uint256",
          "name": "",
          "type": "uint256"
        }
      ],
      "stateMutability": "view",
      "type": "function"
    },
    {
      "inputs": [],
      "name": "performanceFeeCompounder",
      "outputs": [
        {
          "internalType": "uint256",
          "name": "",
          "type": "uint256"
        }
      ],
      "stateMutability": "view",
      "type": "function"
    },
    {
      "inputs": [],
      "name": "performanceFeeReserve",
      "outputs": [
        {
          "internalType": "uint256",
          "name": "",
          "type": "uint256"
        }
      ],
      "stateMutability": "view",
      "type": "function"
    },
    {
      "inputs": [],
      "name": "renounceOwnership",
      "outputs": [],
      "stateMutability": "nonpayable",
      "type": "function"
    },
    {
      "inputs": [],
      "name": "reserveAddress",
      "outputs": [
        {
          "internalType": "address",
          "name": "",
          "type": "address"
        }
      ],
      "stateMutability": "view",
      "type": "function"
    },
    {
      "inputs": [
        {
          "internalType": "address",
          "name": "",
          "type": "address"
        }
      ],
      "name": "stakings",
      "outputs": [
        {
          "internalType": "uint256",
          "name": "shares",
          "type": "uint256"
        },
        {
          "internalType": "uint256",
          "name": "stakedAmount",
          "type": "uint256"
        },
        {
          "internalType": "uint256",
          "name": "claimedAmount",
          "type": "uint256"
        },
        {
          "internalType": "uint256",
          "name": "lastBlockCompounded",
          "type": "uint256"
        },
        {
          "internalType": "uint256",
          "name": "lastBlockStaked",
          "type": "uint256"
        },
        {
          "internalType": "uint256",
          "name": "index",
          "type": "uint256"
        },
        {
          "internalType": "uint256",
          "name": "lastFrozenWithdraw",
          "type": "uint256"
        },
        {
          "internalType": "uint256",
          "name": "apyBaseline",
          "type": "uint256"
        },
        {
          "internalType": "uint256",
          "name": "profitBaseline",
          "type": "uint256"
        }
      ],
      "stateMutability": "view",
      "type": "function"
    },
    {
      "inputs": [],
      "name": "totalClaimed",
      "outputs": [
        {
          "internalType": "uint256",
          "name": "",
          "type": "uint256"
        }
      ],
      "stateMutability": "view",
      "type": "function"
    },
    {
      "inputs": [],
      "name": "totalFrozen",
      "outputs": [
        {
          "internalType": "uint256",
          "name": "",
          "type": "uint256"
        }
      ],
      "stateMutability": "view",
      "type": "function"
    },
    {
      "inputs": [],
      "name": "totalPool",
      "outputs": [
        {
          "internalType": "uint256",
          "name": "",
          "type": "uint256"
        }
      ],
      "stateMutability": "view",
      "type": "function"
    },
    {
      "inputs": [],
      "name": "totalProfitDistributed",
      "outputs": [
        {
          "internalType": "uint256",
          "name": "",
          "type": "uint256"
        }
      ],
      "stateMutability": "view",
      "type": "function"
    },
    {
      "inputs": [],
      "name": "totalProfitsClaimed",
      "outputs": [
        {
          "internalType": "uint256",
          "name": "",
          "type": "uint256"
        }
      ],
      "stateMutability": "view",
      "type": "function"
    },
    {
      "inputs": [],
      "name": "totalShares",
      "outputs": [
        {
          "internalType": "uint256",
          "name": "",
          "type": "uint256"
        }
      ],
      "stateMutability": "view",
      "type": "function"
    },
    {
      "inputs": [],
      "name": "totalStaked",
      "outputs": [
        {
          "internalType": "uint256",
          "name": "",
          "type": "uint256"
        }
      ],
      "stateMutability": "view",
      "type": "function"
    },
    {
      "inputs": [
        {
          "internalType": "address",
          "name": "newOwner",
          "type": "address"
        }
      ],
      "name": "transferOwnership",
      "outputs": [],
      "stateMutability": "nonpayable",
      "type": "function"
    },
    {
      "inputs": [
        {
          "internalType": "contract BitcrushBankroll",
          "name": "_bankroll",
          "type": "address"
        }
      ],
      "name": "setBankroll",
      "outputs": [],
      "stateMutability": "nonpayable",
      "type": "function"
    },
    {
      "inputs": [
        {
          "internalType": "contract BitcrushLiveWallet",
          "name": "_liveWallet",
          "type": "address"
        }
      ],
      "name": "setLiveWallet",
      "outputs": [],
      "stateMutability": "nonpayable",
      "type": "function"
    },
    {
      "inputs": [
        {
          "internalType": "uint256",
          "name": "_amount",
          "type": "uint256"
        }
      ],
      "name": "addRewardToPool",
      "outputs": [],
      "stateMutability": "nonpayable",
      "type": "function"
    },
    {
      "inputs": [],
      "name": "updateDistribution",
      "outputs": [],
      "stateMutability": "nonpayable",
      "type": "function"
    },
    {
      "inputs": [],
      "name": "updateProfits",
      "outputs": [],
      "stateMutability": "nonpayable",
      "type": "function"
    },
    {
      "inputs": [
        {
          "internalType": "uint256",
          "name": "_amount",
          "type": "uint256"
        }
      ],
      "name": "setCrushPerBlock",
      "outputs": [],
      "stateMutability": "nonpayable",
      "type": "function"
    },
    {
      "inputs": [
        {
          "internalType": "uint256",
          "name": "_amount",
          "type": "uint256"
        }
      ],
      "name": "enterStaking",
      "outputs": [],
      "stateMutability": "nonpayable",
      "type": "function"
    },
    {
      "inputs": [
        {
          "internalType": "uint256",
          "name": "_amount",
          "type": "uint256"
        },
        {
          "internalType": "bool",
          "name": "_liveWallet",
          "type": "bool"
        }
      ],
      "name": "leaveStaking",
      "outputs": [],
      "stateMutability": "nonpayable",
      "type": "function"
    },
    {
      "inputs": [
        {
          "internalType": "address",
          "name": "_address",
          "type": "address"
        }
      ],
      "name": "pendingReward",
      "outputs": [
        {
          "internalType": "uint256",
          "name": "",
          "type": "uint256"
        }
      ],
      "stateMutability": "view",
      "type": "function"
    },
    {
      "inputs": [
        {
          "internalType": "address",
          "name": "_address",
          "type": "address"
        }
      ],
      "name": "pendingProfits",
      "outputs": [
        {
          "internalType": "uint256",
          "name": "",
          "type": "uint256"
        }
      ],
      "stateMutability": "view",
      "type": "function"
    },
    {
      "inputs": [],
      "name": "compoundAll",
      "outputs": [],
      "stateMutability": "nonpayable",
      "type": "function"
    },
    {
      "inputs": [
        {
          "internalType": "uint256",
          "name": "_amount",
          "type": "uint256"
        },
        {
          "internalType": "address",
          "name": "_recipient",
          "type": "address"
        },
        {
          "internalType": "address",
          "name": "_lwAddress",
          "type": "address"
        }
      ],
      "name": "freezeStaking",
      "outputs": [],
      "stateMutability": "nonpayable",
      "type": "function"
    },
    {
      "inputs": [
        {
          "internalType": "uint256",
          "name": "_amount",
          "type": "uint256"
        }
      ],
      "name": "unfreezeStaking",
      "outputs": [],
      "stateMutability": "nonpayable",
      "type": "function"
    },
    {
      "inputs": [],
      "name": "indexesLength",
      "outputs": [
        {
          "internalType": "uint256",
          "name": "_addressesLength",
          "type": "uint256"
        }
      ],
      "stateMutability": "view",
      "type": "function"
    },
    {
      "inputs": [
        {
          "internalType": "uint256",
          "name": "_fee",
          "type": "uint256"
        }
      ],
      "name": "setPerformanceFeeCompounder",
      "outputs": [],
      "stateMutability": "nonpayable",
      "type": "function"
    },
    {
      "inputs": [
        {
          "internalType": "uint256",
          "name": "_fee",
          "type": "uint256"
        }
      ],
      "name": "setPerformanceFeeBurn",
      "outputs": [],
      "stateMutability": "nonpayable",
      "type": "function"
    },
    {
      "inputs": [
        {
          "internalType": "uint256",
          "name": "_fee",
          "type": "uint256"
        }
      ],
      "name": "setEarlyWithdrawFee",
      "outputs": [],
      "stateMutability": "nonpayable",
      "type": "function"
    },
    {
      "inputs": [
        {
          "internalType": "uint256",
          "name": "_fee",
          "type": "uint256"
        }
      ],
      "name": "setPerformanceFeeReserve",
      "outputs": [],
      "stateMutability": "nonpayable",
      "type": "function"
    },
    {
      "inputs": [
        {
          "internalType": "uint256",
          "name": "_time",
          "type": "uint256"
        }
      ],
      "name": "setEarlyWithdrawFeeTime",
      "outputs": [],
      "stateMutability": "nonpayable",
      "type": "function"
    },
    {
      "inputs": [
        {
          "internalType": "uint256",
          "name": "_limit",
          "type": "uint256"
        }
      ],
      "name": "setAutoCompoundLimit",
      "outputs": [],
      "stateMutability": "nonpayable",
      "type": "function"
    },
    {
      "inputs": [],
      "name": "emergencyWithdraw",
      "outputs": [],
      "stateMutability": "nonpayable",
      "type": "function"
    }
  ],
  "bytecode": "0x60a0604052600a600155606460025560326003556105dc60045560be600555612a3060065560036007556007546203f480816200003857fe5b046008556109c4600955674c53ecdc18a60000601255600a601c553480156200006057600080fd5b5060405162003b1d38038062003b1d833981810160405260608110156200008657600080fd5b50805160208201516040909201519091906000620000ac6001600160e01b036200016716565b600080546001600160a01b0319166001600160a01b0383169081178255604051929350917f8be0079c531659141344cd1fd0a4f28419497f9722a3daafe3b4186f6b6457e0908290a3506001600160601b0319606084901b16608052678ac7230489e8000082116200011e5760128290555b600d80546001600160a01b0319166001600160a01b039290921691909117905550506000601081905542601d556013819055601581905543601455601a819055601b556200016b565b3390565b60805160601c61393f620001de6000398061099a5280610a6d5280610b0b5280610c845280610dba528061126052806113de528061142d528061148b5280611d35528061217e52806121ea528061222a52806124eb5280612af65280612ba05280612c305280612c7a525061393f6000f3fe608060405234801561001057600080fd5b50600436106103835760003560e01c8063817b1cd2116101de578063bde8a93e1161010f578063e39faaa4116100ad578063f2fde38b1161007c578063f2fde38b1461074f578063f40f0f5214610775578063f79ed94b1461079b578063fa2b8a5d146107a357610383565b8063e39faaa41461071a578063e3aeeb4614610737578063ecb1c9241461073f578063ecfb49a31461074757610383565b8063c61f1c0b116100e9578063c61f1c0b14610695578063d54ad2a11461069d578063db2e21bc146106a5578063dc6e13e1146106ad57610383565b8063bde8a93e14610635578063c22982f41461065b578063c53f871f1461067857610383565b8063a80a78821161017c578063b249e88e11610156578063b249e88e14610615578063b359a9f91461061d578063bc063e1a14610625578063bca5503d1461062d57610383565b8063a80a7882146105fd578063a9f8d18114610605578063aa8badc11461060d57610383565b8063939d6237116101b8578063939d6237146105aa5780639b05ddb3146105b25780639e13900c146105ba578063a775573a146105e057610383565b8063817b1cd2146105665780638da5cb5b1461056e5780638f44ebfc1461057657610383565b806349535ef5116102b8578063668579c9116102565780636e74d2e2116102305780636e74d2e21461051c5780636f90e04614610524578063715018a61461054157806376e9e6c01461054957610383565b8063668579c9146105045780636874d6201461050c5780636903d0b61461051457610383565b806351496bbd1161029257806351496bbd146104ba5780635832d571146104c257806364a9c480146104df5780636535fc66146104e757610383565b806349535ef5146104a25780634b37f006146104aa5780634bf211b8146104b257610383565b80632e0ae2f2116103255780633a53ed49116102ff5780633a53ed491461043b5780633a98ef391461045857806341441d3b14610460578063445e76881461047d57610383565b80632e0ae2f21461040557806338ed019a1461040d57806339cc13781461041557610383565b80631f2dc5ef116103615780631f2dc5ef146103ce5780632533830a146103d657806326cba336146103de578063289bac07146103fd57610383565b80630a3960bc146103885780630c657eb0146103a25780631e7f87bc146103c6575b600080fd5b6103906107ab565b60408051918252519081900360200190f35b6103aa6107b1565b604080516001600160a01b039092168252519081900360200190f35b6103906107c0565b6103906107c6565b6103906107cc565b6103fb600480360360208110156103f457600080fd5b50356107d2565b005b6103906108ec565b6103906108f2565b6103906108f8565b6103906004803603602081101561042b57600080fd5b50356001600160a01b03166108fe565b6103fb6004803603602081101561045157600080fd5b503561095f565b610390610aca565b6103fb6004803603602081101561047657600080fd5b5035610ad0565b6103fb6004803603604081101561049357600080fd5b50803590602001351515610f1a565b6103906116d7565b6103906116dd565b6103906116e3565b6103fb6116e9565b6103aa600480360360208110156104d857600080fd5b50356117e0565b610390611807565b6103fb600480360360208110156104fd57600080fd5b503561180d565b610390611928565b61039061192e565b610390611934565b61039061193a565b6103fb6004803603602081101561053a57600080fd5b5035611940565b6103fb611a04565b6103fb6004803603602081101561055f57600080fd5b5035611ac5565b610390611bc8565b6103aa611bce565b6103fb6004803603606081101561058c57600080fd5b508035906001600160a01b0360208201358116916040013516611bdd565b610390611d7a565b6103fb611d80565b6103fb600480360360208110156105d057600080fd5b50356001600160a01b031661225b565b6103fb600480360360208110156105f657600080fd5b5035612352565b610390612408565b61039061240e565b6103fb612414565b6103906124e3565b6103aa6124e9565b61039061250d565b610390612513565b6103fb6004803603602081101561064b57600080fd5b50356001600160a01b0316612519565b6103fb6004803603602081101561067157600080fd5b5035612610565b6103fb6004803603602081101561068e57600080fd5b503561272a565b610390612844565b61039061284a565b6103fb612850565b6106d3600480360360208110156106c357600080fd5b50356001600160a01b0316612dc5565b60408051998a5260208a0198909852888801969096526060880194909452608087019290925260a086015260c085015260e084015261010083015251908190036101200190f35b6103fb6004803603602081101561073057600080fd5b5035612e13565b6103aa612edc565b610390612eeb565b610390612ef1565b6103fb6004803603602081101561076557600080fd5b50356001600160a01b0316612ef7565b6103906004803603602081101561078b57600080fd5b50356001600160a01b0316612f6a565b6103aa61305e565b61039061306d565b60055481565b600b546001600160a01b031681565b60195481565b61271081565b601b5481565b6107da613079565b6000546001600160a01b0390811691161461083c576040805162461bcd60e51b815260206004820181905260248201527f4f776e61626c653a2063616c6c6572206973206e6f7420746865206f776e6572604482015290519081900360640190fd5b60008111610891576040805162461bcd60e51b815260206004820152601a60248201527f466565206d7573742062652067726561746572207468616e2030000000000000604482015290519081900360640190fd5b6103e881106108e7576040805162461bcd60e51b815260206004820152601960248201527f466565206d757374206265206c657373207468616e2031302500000000000000604482015290519081900360640190fd5b600155565b600f5490565b60045481565b60115481565b6001600160a01b0381166000908152600e6020526040812060088101546015548254610958929161094c9164e8d4a5100091610940919063ffffffff61307d16565b9063ffffffff6130df16565b9063ffffffff61312116565b9392505050565b604080517f70a08231000000000000000000000000000000000000000000000000000000008152336004820152905182916001600160a01b037f000000000000000000000000000000000000000000000000000000000000000016916370a0823191602480820192602092909190829003018186803b1580156109e157600080fd5b505afa1580156109f5573d6000803e3d6000fd5b505050506040513d6020811015610a0b57600080fd5b50511015610a4a5760405162461bcd60e51b81526004018080602001828103825260268152602001806138a76026913960400191505060405180910390fd5b601654610a5d908263ffffffff61316316565b601655610a9b6001600160a01b037f00000000000000000000000000000000000000000000000000000000000000001633308463ffffffff6131bd16565b6016546040517f1ef37ab665f7c977b577275d7a49e72cd18d1143eccd1112f1198e4a39d1428c90600090a250565b600a5481565b604080517f70a08231000000000000000000000000000000000000000000000000000000008152336004820152905182916001600160a01b037f000000000000000000000000000000000000000000000000000000000000000016916370a0823191602480820192602092909190829003018186803b158015610b5257600080fd5b505afa158015610b66573d6000803e3d6000fd5b505050506040513d6020811015610b7c57600080fd5b50511015610bbb5760405162461bcd60e51b81526004018080602001828103825260268152602001806138a76026913960400191505060405180910390fd5b60008111610c10576040805162461bcd60e51b815260206004820152601660248201527f496e76616c6964207374616b696e6720616d6f756e7400000000000000000000604482015290519081900360640190fd5b600060165411610c67576040805162461bcd60e51b815260206004820152601560248201527f52657761726420506f6f6c204578686175737465640000000000000000000000604482015290519081900360640190fd5b610c6f612414565b610c776116e9565b610cb26001600160a01b037f00000000000000000000000000000000000000000000000000000000000000001633308463ffffffff6131bd16565b601754610cbe57436010555b336000908152600e602052604090206001810154610d3957436003820155600f805460018101825560008290527f8d1108e10bcb7c27dddfc02ed9d693a074039d026cf4ea4240b40f7d581ac80201805473ffffffffffffffffffffffffffffffffffffffff19163317905554600019016005820155610e31565b6000610d65826007015461094c64e8d4a51000610940601354876000015461307d90919063ffffffff16565b90506000610d93836008015461094c64e8d4a51000610940601554886000015461307d90919063ffffffff16565b9050610da5828263ffffffff61316316565b91508115610e2e57610de76001600160a01b037f000000000000000000000000000000000000000000000000000000000000000016338463ffffffff61324516565b6002830154610dfc908363ffffffff61316316565b6002840155601854610e14908363ffffffff61316316565b601855601a54610e2a908263ffffffff61316316565b601a555b50505b601754610e44908363ffffffff61316316565b601755600a5460009015610e7457610e6d601754610940600a548661307d90919063ffffffff16565b9050610e77565b50815b600a54610e8a908263ffffffff61316316565b600a558154610e9a574360038301555b8154610eac908263ffffffff61316316565b808355601554610ecc9164e8d4a51000916109409163ffffffff61307d16565b60088301558154601354610ef09164e8d4a51000916109409163ffffffff61307d16565b60078301556001820154610f0a908463ffffffff61316316565b6001830155504360049091015550565b610f22612414565b610f2a6116e9565b336000908152600e6020526040812060078101546013548254929392610f66929161094c9164e8d4a5100091610940919063ffffffff61307d16565b90506000610f94836008015461094c64e8d4a51000610940601554886000015461307d90919063ffffffff16565b601654909150610faa908363ffffffff61312116565b601655610fbd828263ffffffff61316316565b601a54909250610fd3908263ffffffff61316316565b601a5543600384015560018301546019541561105e5761101861100b601754610940876001015460195461307d90919063ffffffff16565b829063ffffffff61312116565b9050858110156110595760405162461bcd60e51b815260040180806020018281038252603681526020018061381d6036913960400191505060405180910390fd5b611070565b60068401541561107057600060068501555b858110156110af5760405162461bcd60e51b815260040180806020018281038252603f81526020018061373c603f913960400191505060405180910390fd5b6017546110c2908763ffffffff61312116565b601755600184015484546000916110e491610940908a9063ffffffff61307d16565b60018601549091506110fc908863ffffffff61312116565b60018601558454611113908263ffffffff61312116565b8555600a54611128908263ffffffff61312116565b600a55601354855461114a9164e8d4a51000916109409163ffffffff61307d16565b6007860155601554855461116e9164e8d4a51000916109409163ffffffff61307d16565b60088601556019541561137d576006850154156111d957600680549086015461119c9163ffffffff61316316565b42116111d95760405162461bcd60e51b81526004018080602001828103825260338152602001806138746033913960400191505060405180910390fd5b60006111f66127106109406004548b61307d90919063ffffffff16565b426006880155905061120e888263ffffffff61312116565b97506019548111156112e25760006112316019548361312190919063ffffffff16565b600b546040805163095ea7b360e01b81526001600160a01b0392831660048201526024810184905290519293507f00000000000000000000000000000000000000000000000000000000000000009091169163095ea7b3916044808201926020929091908290030181600087803b1580156112ab57600080fd5b505af11580156112bf573d6000803e3d6000fd5b505050506040513d60208110156112d557600080fd5b50506000601955506112f9565b6019546112f5908263ffffffff61312116565b6019555b600b54604080517f59c53fd40000000000000000000000000000000000000000000000000000000081526004810184905290516001600160a01b03909216916359c53fd49160248082019260009290919082900301818387803b15801561135f57600080fd5b505af1158015611373573d6000803e3d6000fd5b5050505050611409565b60085460048601546113949163ffffffff61316316565b4310156114095760006113b86127106109406003548b61307d90919063ffffffff16565b90506113ca888263ffffffff61312116565b600d54909850611407906001600160a01b037f00000000000000000000000000000000000000000000000000000000000000008116911683613245565b505b611419878563ffffffff61316316565b96508561145f5761145a6001600160a01b037f000000000000000000000000000000000000000000000000000000000000000016338963ffffffff61324516565b611587565b600c546040805163095ea7b360e01b81526001600160a01b039283166004820152602481018a905290517f00000000000000000000000000000000000000000000000000000000000000009092169163095ea7b3916044808201926020929091908290030181600087803b1580156114d657600080fd5b505af11580156114ea573d6000803e3d6000fd5b505050506040513d602081101561150057600080fd5b5050600c54604080517f7efd3813000000000000000000000000000000000000000000000000000000008152600481018a905233602482015290516001600160a01b0390921691637efd38139160448082019260009290919082900301818387803b15801561156e57600080fd5b505af1158015611582573d6000803e3d6000fd5b505050505b600285015461159c908563ffffffff61316316565b60028601556018546115b4908563ffffffff61316316565b60185560018501546116a257600f5460058601546000199091011461166757600f80546000919060001981019081106115e957fe5b9060005260206000200160009054906101000a90046001600160a01b0316905080600f87600501548154811061161b57fe5b6000918252602080832091909101805473ffffffffffffffffffffffffffffffffffffffff19166001600160a01b03948516179055600589810154949093168252600e90526040902001555b600f80548061167257fe5b6000828152602090208101600019908101805473ffffffffffffffffffffffffffffffffffffffff191690550190555b6016546040517f1ef37ab665f7c977b577275d7a49e72cd18d1143eccd1112f1198e4a39d1428c90600090a250505050505050565b60095481565b60075481565b60105481565b600a546116f5576117de565b600b54604080517f45c9c1d100000000000000000000000000000000000000000000000000000000815290516000926001600160a01b0316916345c9c1d191600480830192602092919082900301818787803b15801561175457600080fd5b505af1158015611768573d6000803e3d6000fd5b505050506040513d602081101561177e57600080fd5b505190508061178d57506117de565b601b546117a0908263ffffffff61316316565b601b55600a546000906117c2906109408464e8d4a5100063ffffffff61307d16565b6015549091506117d8908263ffffffff61316316565b60155550505b565b600f81815481106117ed57fe5b6000918252602090912001546001600160a01b0316905081565b601a5481565b611815613079565b6000546001600160a01b03908116911614611877576040805162461bcd60e51b815260206004820181905260248201527f4f776e61626c653a2063616c6c6572206973206e6f7420746865206f776e6572604482015290519081900360640190fd5b600081116118cc576040805162461bcd60e51b815260206004820152601a60248201527f466565206d7573742062652067726561746572207468616e2030000000000000604482015290519081900360640190fd5b6103e8811115611923576040805162461bcd60e51b815260206004820152601960248201527f466565206d757374206265206c657373207468616e2031302500000000000000604482015290519081900360640190fd5b600555565b601d5481565b60065481565b60085481565b60025481565b611948613079565b6000546001600160a01b039081169116146119aa576040805162461bcd60e51b815260206004820181905260248201527f4f776e61626c653a2063616c6c6572206973206e6f7420746865206f776e6572604482015290519081900360640190fd5b600081116119ff576040805162461bcd60e51b815260206004820152601b60248201527f54696d65206d7573742062652067726561746572207468616e20300000000000604482015290519081900360640190fd5b600855565b611a0c613079565b6000546001600160a01b03908116911614611a6e576040805162461bcd60e51b815260206004820181905260248201527f4f776e61626c653a2063616c6c6572206973206e6f7420746865206f776e6572604482015290519081900360640190fd5b600080546040516001600160a01b03909116907f8be0079c531659141344cd1fd0a4f28419497f9722a3daafe3b4186f6b6457e0908390a36000805473ffffffffffffffffffffffffffffffffffffffff19169055565b611acd613079565b6000546001600160a01b03908116911614611b2f576040805162461bcd60e51b815260206004820181905260248201527f4f776e61626c653a2063616c6c6572206973206e6f7420746865206f776e6572604482015290519081900360640190fd5b60008111611b84576040805162461bcd60e51b815260206004820152601260248201527f4c696d69742063616e206e6f7420626520300000000000000000000000000000604482015290519081900360640190fd5b601e8110611bc35760405162461bcd60e51b815260040180806020018281038252602b8152602001806137f2602b913960400191505060405180910390fd5b601c55565b60175481565b6000546001600160a01b031690565b600b546001600160a01b03163314611c3c576040805162461bcd60e51b815260206004820152601760248201527f43616c6c6574206d7573742062652062616e6b726f6c6c000000000000000000604482015290519081900360640190fd5b601954601754611c519163ffffffff61312116565b831115611c8f5760405162461bcd60e51b815260040180806020018281038252603d8152602001806138cd603d913960400191505060405180910390fd5b601954611ca2908463ffffffff61316316565b601955604080517ff62cf8d0000000000000000000000000000000000000000000000000000000008152600481018590526001600160a01b0384811660248301529151839283169163f62cf8d091604480830192600092919082900301818387803b158015611d1057600080fd5b505af1158015611d24573d6000803e3d6000fd5b50611d649250506001600160a01b037f0000000000000000000000000000000000000000000000000000000000000000169050838663ffffffff61324516565b611d6c612414565b611d746116e9565b50505050565b60135481565b436010541115611dd7576040805162461bcd60e51b815260206004820181905260248201527f436f6d706f756e6420416c6c206e6f7420796574206170706c696361626c652e604482015290519081900360640190fd5b600060175411611e2e576040805162461bcd60e51b815260206004820152601a60248201527f4e6f205374616b6564207265776172647320746f20636c61696d000000000000604482015290519081900360640190fd5b601154600f546000918291829182918110611e4c5750600f54600019015b600f54601c5481111580611e755750600f54601c54611e7290849063ffffffff61316316565b10155b15611e835750600f54611e9a565b601c54611e9790839063ffffffff61316316565b90505b611ea26116e9565b611eaa612414565b815b81811015612118576000600e6000600f8481548110611ec757fe5b60009182526020808320909101546001600160a01b03168352820192909252604001812060078101546013548254929450611f169261094c9164e8d4a51000916109409163ffffffff61307d16565b6007830154909150611f2e908263ffffffff61316316565b60078301558015611f4c57611f49868263ffffffff61316316565b95505b6000611f78836008015461094c64e8d4a51000610940601554886000015461307d90919063ffffffff16565b6008840154909150611f90908263ffffffff61316316565b6008840155611fa5828263ffffffff61316316565b915081156120f357601a54611fc0908263ffffffff61316316565b601a55601854611fd6908363ffffffff61316316565b601855600254600090611ff8906127109061094090869063ffffffff61307d16565b905061200a8b8263ffffffff61316316565b9a5060006120296127106109406001548761307d90919063ffffffff16565b905061203b8a8263ffffffff61316316565b9950600061205a6127106109406005548861307d90919063ffffffff16565b905061206c8c8263ffffffff61316316565b9b5061207e858463ffffffff61312116565b9450612090858363ffffffff61312116565b94506120a2858263ffffffff61312116565b60028701549095506120ba908663ffffffff61316316565b600287015560018601546120d4908663ffffffff61316316565b60018701556017546120ec908663ffffffff61316316565b6017555050505b43600384015561210a86600163ffffffff61316316565b601155505050600101611eac565b50600f546011541061212a5760006011555b60165461213d908463ffffffff61312116565b60165543601055604080517f42966c680000000000000000000000000000000000000000000000000000000081526004810188905290516001600160a01b037f000000000000000000000000000000000000000000000000000000000000000016916342966c6891602480830192600092919082900301818387803b1580156121c557600080fd5b505af11580156121d9573d6000803e3d6000fd5b506122199250506001600160a01b037f0000000000000000000000000000000000000000000000000000000000000000169050338663ffffffff61324516565b600d54612253906001600160a01b037f00000000000000000000000000000000000000000000000000000000000000008116911687613245565b505050505050565b612263613079565b6000546001600160a01b039081169116146122c5576040805162461bcd60e51b815260206004820181905260248201527f4f776e61626c653a2063616c6c6572206973206e6f7420746865206f776e6572604482015290519081900360640190fd5b600c546001600160a01b031615612323576040805162461bcd60e51b815260206004820152601f60248201527f4c6976652057616c6c6574206164647265737320616c72656164792073657400604482015290519081900360640190fd5b600c805473ffffffffffffffffffffffffffffffffffffffff19166001600160a01b0392909216919091179055565b61235a613079565b6000546001600160a01b039081169116146123bc576040805162461bcd60e51b815260206004820181905260248201527f4f776e61626c653a2063616c6c6572206973206e6f7420746865206f776e6572604482015290519081900360640190fd5b678ac7230489e800008111156124035760405162461bcd60e51b81526004018080602001828103825260278152602001806137cb6027913960400191505060405180910390fd5b601255565b60035481565b60145481565b6014544311612422576117de565b60175461243257436014556117de565b6012546019541561246d5761246a61245d61271061094060095460125461307d90919063ffffffff16565b829063ffffffff61316316565b90505b601654612478575060005b600061248f6014544361312190919063ffffffff16565b905060006124c1600a5461094064e8d4a510006124b5878761307d90919063ffffffff16565b9063ffffffff61307d16565b6013549091506124d7908263ffffffff61316316565b60135550504360145550565b60155481565b7f000000000000000000000000000000000000000000000000000000000000000081565b6103e881565b60015481565b612521613079565b6000546001600160a01b03908116911614612583576040805162461bcd60e51b815260206004820181905260248201527f4f776e61626c653a2063616c6c6572206973206e6f7420746865206f776e6572604482015290519081900360640190fd5b600b546001600160a01b0316156125e1576040805162461bcd60e51b815260206004820152601c60248201527f42616e6b726f6c6c206164647265737320616c72656164792073657400000000604482015290519081900360640190fd5b600b805473ffffffffffffffffffffffffffffffffffffffff19166001600160a01b0392909216919091179055565b612618613079565b6000546001600160a01b0390811691161461267a576040805162461bcd60e51b815260206004820181905260248201527f4f776e61626c653a2063616c6c6572206973206e6f7420746865206f776e6572604482015290519081900360640190fd5b600081116126cf576040805162461bcd60e51b815260206004820152601a60248201527f466565206d7573742062652067726561746572207468616e2030000000000000604482015290519081900360640190fd5b6103e88110612725576040805162461bcd60e51b815260206004820152601960248201527f466565206d757374206265206c657373207468616e2031302500000000000000604482015290519081900360640190fd5b600355565b612732613079565b6000546001600160a01b03908116911614612794576040805162461bcd60e51b815260206004820181905260248201527f4f776e61626c653a2063616c6c6572206973206e6f7420746865206f776e6572604482015290519081900360640190fd5b600081116127e9576040805162461bcd60e51b815260206004820152601a60248201527f466565206d7573742062652067726561746572207468616e2030000000000000604482015290519081900360640190fd5b6103e8811061283f576040805162461bcd60e51b815260206004820152601960248201527f466565206d757374206265206c657373207468616e2031302500000000000000604482015290519081900360640190fd5b600255565b60125481565b60185481565b612858612414565b6128606116e9565b336000908152600e602052604081206007810154601354825492939261289c929161094c9164e8d4a5100091610940919063ffffffff61307d16565b905060006128ca836008015461094c64e8d4a51000610940601554886000015461307d90919063ffffffff16565b6016549091506128e0908363ffffffff61312116565b6016554360038401556128f9828263ffffffff61316316565b600184015460195491935090156129335761292c61100b601754610940876001015460195461307d90919063ffffffff16565b9050612945565b60068401541561294557600060068501555b601754612958908263ffffffff61312116565b6017556001840154845460009161297a9161094090859063ffffffff61307d16565b6001860154909150612992908363ffffffff61312116565b600186015584546129a9908263ffffffff61312116565b8555600a546129be908263ffffffff61312116565b600a5560135485546129e09164e8d4a51000916109409163ffffffff61307d16565b60078601556015548554612a049164e8d4a51000916109409163ffffffff61307d16565b600886015560195415612bcf57600685015415612a6f576006805490860154612a329163ffffffff61316316565b4211612a6f5760405162461bcd60e51b81526004018080602001828103825260338152602001806138746033913960400191505060405180910390fd5b6000612a8c6127106109406004548661307d90919063ffffffff16565b4260068801559050612aa4838263ffffffff61312116565b9250601954811115612b78576000612ac76019548361312190919063ffffffff16565b600b546040805163095ea7b360e01b81526001600160a01b0392831660048201526024810184905290519293507f00000000000000000000000000000000000000000000000000000000000000009091169163095ea7b3916044808201926020929091908290030181600087803b158015612b4157600080fd5b505af1158015612b55573d6000803e3d6000fd5b505050506040513d6020811015612b6b57600080fd5b5050600060195550612b8f565b601954612b8b908263ffffffff61312116565b6019555b600d54612bc9906001600160a01b037f00000000000000000000000000000000000000000000000000000000000000008116911683613245565b50612c5b565b6008546004860154612be69163ffffffff61316316565b431015612c5b576000612c0a6127106109406003548661307d90919063ffffffff16565b9050612c1c838263ffffffff61312116565b600d54909350612c59906001600160a01b037f00000000000000000000000000000000000000000000000000000000000000008116911683613245565b505b612c6b828563ffffffff61316316565b9150612ca76001600160a01b037f000000000000000000000000000000000000000000000000000000000000000016338463ffffffff61324516565b6001850154612d9257600f54600586015460001990910114612d5757600f8054600091906000198101908110612cd957fe5b9060005260206000200160009054906101000a90046001600160a01b0316905080600f876005015481548110612d0b57fe5b6000918252602080832091909101805473ffffffffffffffffffffffffffffffffffffffff19166001600160a01b03948516179055600589810154949093168252600e90526040902001555b600f805480612d6257fe5b6000828152602090208101600019908101805473ffffffffffffffffffffffffffffffffffffffff191690550190555b6016546040517f1ef37ab665f7c977b577275d7a49e72cd18d1143eccd1112f1198e4a39d1428c90600090a25050505050565b600e6020528060005260406000206000915090508060000154908060010154908060020154908060030154908060040154908060050154908060060154908060070154908060080154905089565b600b546001600160a01b03163314612e72576040805162461bcd60e51b815260206004820152601760248201527f43616c6c6572206d7573742062652062616e6b726f6c6c000000000000000000604482015290519081900360640190fd5b601954811115612eb35760405162461bcd60e51b815260040180806020018281038252603c815260200180613700603c913960400191505060405180910390fd5b601954612ec6908263ffffffff61312116565b601955612ed1612414565b612ed96116e9565b50565b600c546001600160a01b031681565b601c5481565b60165481565b612eff613079565b6000546001600160a01b03908116911614612f61576040805162461bcd60e51b815260206004820181905260248201527f4f776e61626c653a2063616c6c6572206973206e6f7420746865206f776e6572604482015290519081900360640190fd5b612ed9816132ca565b6001600160a01b0381166000908152600e6020526040812060125460195415612fb057612fad61245d61271061094060095460125461307d90919063ffffffff16565b90505b601654612fbb575060005b60135460145443118015612fd05750600a5415155b1561302d576000612fec6014544361312190919063ffffffff16565b90506000613012600a5461094064e8d4a510006124b5888761307d90919063ffffffff16565b601354909150613028908263ffffffff61316316565b925050505b613055836007015461094c64e8d4a5100061094085886000015461307d90919063ffffffff16565b95945050505050565b600d546001600160a01b031681565b678ac7230489e8000081565b3390565b60008261308c575060006130d9565b8282028284828161309957fe5b04146130d65760405162461bcd60e51b81526004018080602001828103825260218152602001806138536021913960400191505060405180910390fd5b90505b92915050565b60006130d683836040518060400160405280601a81526020017f536166654d6174683a206469766973696f6e206279207a65726f000000000000815250613377565b60006130d683836040518060400160405280601e81526020017f536166654d6174683a207375627472616374696f6e206f766572666c6f770000815250613419565b6000828201838110156130d6576040805162461bcd60e51b815260206004820152601b60248201527f536166654d6174683a206164646974696f6e206f766572666c6f770000000000604482015290519081900360640190fd5b604080516001600160a01b0380861660248301528416604482015260648082018490528251808303909101815260849091019091526020810180517bffffffffffffffffffffffffffffffffffffffffffffffffffffffff167f23b872dd00000000000000000000000000000000000000000000000000000000179052611d74908590613473565b604080516001600160a01b038416602482015260448082018490528251808303909101815260649091019091526020810180517bffffffffffffffffffffffffffffffffffffffffffffffffffffffff167fa9059cbb000000000000000000000000000000000000000000000000000000001790526132c5908490613473565b505050565b6001600160a01b03811661330f5760405162461bcd60e51b81526004018080602001828103825260268152602001806137a56026913960400191505060405180910390fd5b600080546040516001600160a01b03808516939216917f8be0079c531659141344cd1fd0a4f28419497f9722a3daafe3b4186f6b6457e091a36000805473ffffffffffffffffffffffffffffffffffffffff19166001600160a01b0392909216919091179055565b600081836134035760405162461bcd60e51b81526004018080602001828103825283818151815260200191508051906020019080838360005b838110156133c85781810151838201526020016133b0565b50505050905090810190601f1680156133f55780820380516001836020036101000a031916815260200191505b509250505060405180910390fd5b50600083858161340f57fe5b0495945050505050565b6000818484111561346b5760405162461bcd60e51b81526020600482018181528351602484015283519092839260449091019190850190808383600083156133c85781810151838201526020016133b0565b505050900390565b60606134c8826040518060400160405280602081526020017f5361666542455032303a206c6f772d6c6576656c2063616c6c206661696c6564815250856001600160a01b03166135249092919063ffffffff16565b8051909150156132c5578080602001905160208110156134e757600080fd5b50516132c55760405162461bcd60e51b815260040180806020018281038252602a81526020018061377b602a913960400191505060405180910390fd5b6060613533848460008561353b565b949350505050565b6060613546856136c6565b613597576040805162461bcd60e51b815260206004820152601d60248201527f416464726573733a2063616c6c20746f206e6f6e2d636f6e7472616374000000604482015290519081900360640190fd5b60006060866001600160a01b031685876040518082805190602001908083835b602083106135f457805182527fffffffffffffffffffffffffffffffffffffffffffffffffffffffffffffffe090920191602091820191016135b7565b6001836020036101000a03801982511681845116808217855250505050505090500191505060006040518083038185875af1925050503d8060008114613656576040519150601f19603f3d011682016040523d82523d6000602084013e61365b565b606091505b5091509150811561366f5791506135339050565b80511561367f5780518082602001fd5b60405162461bcd60e51b81526020600482018181528651602484015286518793919283926044019190850190808383600083156133c85781810151838201526020016133b0565b6000813f7fc5d2460186f7233c927e7db2dcc703c0e500b653ca82273b7bfad8045d85a47081811480159061353357505015159291505056fe756e667265657a6520616d6f756e742063616e742062652067726561746572207468616e2063757272656e746c792066726f7a656e20616d6f756e74576974686472617720616d6f756e742063616e206e6f742062652067726561746572207468616e20617661696c61626c65207374616b656420616d6f756e745361666542455032303a204245503230206f7065726174696f6e20646964206e6f7420737563636565644f776e61626c653a206e6577206f776e657220697320746865207a65726f206164647265737343727573682050657220426c6f636b2063616e206e6f74206265206d6f7265207468616e2031304d6178206175746f636f6d706f756e64206c696d69742063616e6e6f74206265206772656174657220333046726f7a656e2046756e64733a2043616e2774207769746864726177206d6f7265207468616e20417661696c61626c652066756e6473536166654d6174683a206d756c7469706c69636174696f6e206f766572666c6f774f6e6c79204f6e6520576974686472617720616c6c6f77656420706572203320686f75727320647572696e6720667265657a65496e73756666696369656e7420437275736820746f6b656e7320666f72207472616e73666572467265657a6520616d6f756e742073686f756c64206265206c657373207468616e206f7220657175616c20746f20617661696c61626c652066756e6473a2646970667358221220f12043af4dbd51709589ca3394b0bd4f4812de0a44f0fc39b4c9c29b6bc786e064736f6c63430006050033",
  "immutableReferences": {
    "1952": [
      {
        "length": 32,
        "start": 2458
      },
      {
        "length": 32,
        "start": 2669
      },
      {
        "length": 32,
        "start": 2827
      },
      {
        "length": 32,
        "start": 3204
      },
      {
        "length": 32,
        "start": 3514
      },
      {
        "length": 32,
        "start": 4704
      },
      {
        "length": 32,
        "start": 5086
      },
      {
        "length": 32,
        "start": 5165
      },
      {
        "length": 32,
        "start": 5259
      },
      {
        "length": 32,
        "start": 7477
      },
      {
        "length": 32,
        "start": 8574
      },
      {
        "length": 32,
        "start": 8682
      },
      {
        "length": 32,
        "start": 8746
      },
      {
        "length": 32,
        "start": 9451
      },
      {
        "length": 32,
        "start": 10998
      },
      {
        "length": 32,
        "start": 11168
      },
      {
        "length": 32,
        "start": 11312
      },
      {
        "length": 32,
        "start": 11386
      }
    ]
  },
  "source": "//SPDX-License-Identifier: MIT\npragma solidity >=0.6.5;\n\nimport \"@pancakeswap/pancake-swap-lib/contracts/access/Ownable.sol\";\nimport \"./CrushCoin.sol\";\nimport \"@pancakeswap/pancake-swap-lib/contracts/math/SafeMath.sol\";\nimport \"@pancakeswap/pancake-swap-lib/contracts/token/BEP20/SafeBEP20.sol\";\nimport \"./HouseBankroll.sol\";\nimport \"./LiveWallet.sol\";\ncontract BitcrushStaking is Ownable {\n    using SafeMath for uint256;\n    using SafeBEP20 for CRUSHToken;\n    uint256 public constant MAX_CRUSH_PER_BLOCK = 10000000000000000000;\n    uint256 public constant MAX_FEE = 1000; // 1000/10000 * 100 = 10%\n    uint256 public performanceFeeCompounder = 10; // 10/10000 * 100 = 0.1%\n    uint256 public performanceFeeBurn       = 100; // 100/10000 * 100 = 1%\n    uint256 public constant divisor = 10000;\n    \n    uint256  public earlyWithdrawFee         = 50; // 50/10000 * 100 = 0.5% \n    uint256  public frozenEarlyWithdrawFee   = 1500; // 50/10000 * 100 = 15% \n    uint256  public performanceFeeReserve    = 190; // 190/10000 * 100 = 1.9%\n    \n    uint256  public frozenEarlyWithdrawFeeTime   = 10800;\n\n    \n    uint256 public blockPerSecond = 3;\n    uint256 public earlyWithdrawFeeTime = 72 * 60 * 60 / blockPerSecond;\n    uint256 public apyBoost = 2500; //2500/10000 * 100 = 25%\n    uint256 public totalShares;\n\n    // Contracts to Interact with\n    CRUSHToken public immutable crush;\n    BitcrushBankroll public bankroll;\n    BitcrushLiveWallet public liveWallet;\n    // Team address to maintain funds\n    address public reserveAddress;\n    \n    struct UserStaking {\n        uint256 shares;\n        uint256 stakedAmount;\n        uint256 claimedAmount;\n        uint256 lastBlockCompounded;\n        uint256 lastBlockStaked;\n        uint256 index;\n        uint256 lastFrozenWithdraw;\n        uint256 apyBaseline;\n        uint256 profitBaseline;\n    }\n    mapping (address => UserStaking) public stakings;\n    address[] public addressIndexes;\n\n    uint256 public lastAutoCompoundBlock;\n\n    uint256 public batchStartingIndex;\n    uint256 public crushPerBlock = 5500000000000000000;\n    // Pool Accumulated Reward Per Share (APY)\n    uint256 public accRewardPerShare;\n    uint256 public lastRewardBlock;\n    // Profit Accumulated Reward Per Share\n    uint256 public accProfitPerShare;\n    // Tracking Totals\n    uint256 public totalPool; // Reward for Staking\n    uint256 public totalStaked;\n    uint256 public totalClaimed; // Total Claimed as rewards\n    uint256 public totalFrozen;\n    uint256 public totalProfitsClaimed;\n    uint256 public totalProfitDistributed; // Total Claimed as Profits\n    \n    uint256 public autoCompoundLimit = 10; // Max Batch Size\n\n    uint256 public deploymentTimeStamp;\n\n    event RewardPoolUpdated (uint256 indexed _totalPool);\n    event StakeUpdated (address indexed recipeint, uint256 indexed _amount);\n    \n    constructor (CRUSHToken _crush, uint256 _crushPerBlock, address _reserveAddress) public{\n        crush = _crush;\n        if(_crushPerBlock <= MAX_CRUSH_PER_BLOCK){\n            crushPerBlock = _crushPerBlock;\n        }\n    \n        reserveAddress = _reserveAddress;\n        lastAutoCompoundBlock = 0;\n        deploymentTimeStamp = block.timestamp;\n        accRewardPerShare = 0;\n        accProfitPerShare = 0;\n        lastRewardBlock = block.number;\n        totalProfitsClaimed = 0;\n        totalProfitDistributed = 0;\n    }\n    /// Store `_bankroll`.\n    /// @param _bankroll the new value to store\n    /// @dev stores the _bankroll address in the state variable `bankroll`\n    function setBankroll (BitcrushBankroll _bankroll) public onlyOwner{\n        require(bankroll == BitcrushBankroll(0x0), \"Bankroll address already set\");\n        bankroll = _bankroll;\n    }\n\n    /// Store `_liveWallet`.\n    /// @param _liveWallet the new value to store\n    /// @dev stores the _liveWallet address in the state variable `liveWallet`\n    function setLiveWallet (BitcrushLiveWallet _liveWallet) public onlyOwner{\n        require(liveWallet == BitcrushLiveWallet(0x0), \"Live Wallet address already set\");\n        liveWallet = _liveWallet;\n    }\n\n    /// Adds the provided amount to the totalPool\n    /// @param _amount the amount to add\n    /// @dev adds the provided amount to `totalPool` state variable\n    function addRewardToPool (uint256 _amount) public  {\n        require(crush.balanceOf(msg.sender) >= _amount, \"Insufficient Crush tokens for transfer\");\n        totalPool = totalPool.add(_amount);\n        crush.safeTransferFrom(msg.sender, address(this), _amount);\n        emit RewardPoolUpdated(totalPool);\n    }\n\n    /// @notice updates accRewardPerShare based on the last block calculated and totalShares\n    /// @dev accRewardPerShare is accumulative, meaning it always holds the total historic \n    /// rewardPerShare making apyBaseline necessary to keep rewards fair\n    function updateDistribution() public {\n        if(block.number <= lastRewardBlock)\n            return;\n        if(totalStaked == 0){\n            lastRewardBlock = block.number;\n            return;\n        }\n        uint256 rewardPerBlock = crushPerBlock;\n        if(totalFrozen > 0)\n            rewardPerBlock = rewardPerBlock.add(crushPerBlock.mul(apyBoost).div(divisor));\n        if(totalPool == 0)\n            rewardPerBlock = 0;\n        uint256 blocksSinceCalc = block.number.sub(lastRewardBlock);\n        uint256 rewardCalc = blocksSinceCalc.mul(rewardPerBlock).mul(1e12).div(totalShares);\n        accRewardPerShare = accRewardPerShare.add( rewardCalc );\n        lastRewardBlock = block.number;\n    }\n\n    /// @notice updates accProfitPerShare based on current Profit available and totalShares\n    /// @dev this allows for consistent profit reporting and no change on profits to distribute\n    function updateProfits() public {\n        if(totalShares == 0)\n            return;\n        uint256 requestedProfits = bankroll.transferProfit();\n        if(requestedProfits == 0)\n            return;\n        totalProfitDistributed = totalProfitDistributed.add(requestedProfits);\n        uint256 profitCalc = requestedProfits.mul(1e12).div(totalShares);\n        accProfitPerShare = accProfitPerShare.add( profitCalc );\n    }\n\n    \n    function setCrushPerBlock (uint256 _amount) public onlyOwner {\n        require(_amount >= 0, \"Crush per Block can not be negative\" );\n        require(_amount <= MAX_CRUSH_PER_BLOCK, \"Crush Per Block can not be more than 10\");\n        crushPerBlock = _amount;\n    }\n\n\n    /// Stake the provided amount\n    /// @param _amount the amount to stake\n    /// @dev stakes the provided amount\n    function enterStaking (uint256 _amount) public  {\n        require(crush.balanceOf(msg.sender) >= _amount, \"Insufficient Crush tokens for transfer\");\n        require(_amount > 0,\"Invalid staking amount\");\n        require(totalPool > 0, \"Reward Pool Exhausted\");\n        \n        updateDistribution();\n        updateProfits();\n        crush.safeTransferFrom(msg.sender, address(this), _amount);\n        if(totalStaked == 0){\n            lastAutoCompoundBlock = block.number;\n        }\n        UserStaking storage user = stakings[msg.sender];\n\n        if(user.stakedAmount == 0) {\n            user.lastBlockCompounded = block.number;\n            addressIndexes.push(msg.sender);\n            user.index = addressIndexes.length-1;\n        }\n        else {\n            uint256 pending = user.shares.mul(accRewardPerShare).div(1e12).sub(user.apyBaseline);\n            uint256 profitPending = user.shares.mul(accProfitPerShare).div(1e12).sub(user.profitBaseline);\n            pending = pending.add(profitPending);\n            if( pending > 0) {\n                crush.safeTransfer(msg.sender, pending);\n                user.claimedAmount = user.claimedAmount.add(pending);\n                totalClaimed = totalClaimed.add(pending);\n                totalProfitsClaimed = totalProfitsClaimed.add(profitPending);\n            }\n        }\n        \n        totalStaked = totalStaked.add(_amount);\n\n        uint256 currentShares = 0;\n        if (totalShares != 0)\n            currentShares = _amount.mul(totalShares).div(totalStaked);\n        else\n            currentShares = _amount;\n\n        totalShares = totalShares.add(currentShares);\n        if( user.shares == 0){\n            user.lastBlockCompounded = block.number;\n        }\n        user.shares = user.shares.add(currentShares);\n        user.profitBaseline = accProfitPerShare.mul(user.shares).div(1e12);\n        user.apyBaseline = accRewardPerShare.mul(user.shares).div(1e12);\n        user.stakedAmount = user.stakedAmount.add(_amount);\n        user.lastBlockStaked = block.number;\n    }\n\n\n\n    /// Leaves staking for a user by the specified amount and transfering staked amount and reward to users address\n    /// @param _amount the amount to unstake\n    /// @dev leaves staking and deducts total pool by the users reward. early withdrawal fee applied if withdraw is made before earlyWithdrawFeeTime\n    function leaveStaking (uint256 _amount, bool _liveWallet) external  {\n        \n        updateDistribution();\n        updateProfits();\n        UserStaking storage user = stakings[msg.sender];\n        uint256 reward = user.shares.mul(accRewardPerShare).div(1e12).sub(user.apyBaseline);\n        uint256 profitShare = user.shares.mul(accProfitPerShare).div(1e12).sub(user.profitBaseline);\n        totalPool = totalPool.sub(reward);\n        reward = reward.add(profitShare);\n        totalProfitsClaimed = totalProfitsClaimed.add(profitShare);\n        user.lastBlockCompounded = block.number;\n        \n        uint256 availableStaked = user.stakedAmount;\n        if(totalFrozen > 0){\n            availableStaked = availableStaked.sub(totalFrozen.mul(user.stakedAmount).div(totalStaked));\n            require(availableStaked >= _amount, \"Frozen Funds: Can't withdraw more than Available funds\");\n        }else if(user.lastFrozenWithdraw > 0){\n            user.lastFrozenWithdraw = 0;\n        }\n        require(availableStaked >= _amount, \"Withdraw amount can not be greater than available staked amount\");\n        totalStaked = totalStaked.sub(_amount);\n        \n        uint256 shareReduction = _amount.mul( user.shares ).div( user.stakedAmount );\n        user.stakedAmount = user.stakedAmount.sub(_amount);\n        user.shares = user.shares.sub( shareReduction );\n        totalShares = totalShares.sub( shareReduction );\n        user.apyBaseline = user.shares.mul(accRewardPerShare).div(1e12);\n        user.profitBaseline = user.shares.mul(accProfitPerShare).div(1e12);\n        if(totalFrozen > 0 ){\n            if(user.lastFrozenWithdraw > 0 ) \n                require(block.timestamp > user.lastFrozenWithdraw.add(frozenEarlyWithdrawFeeTime),\"Only One Withdraw allowed per 3 hours during freeze\");\n            \n            uint256 withdrawalFee = _amount.mul(frozenEarlyWithdrawFee).div(divisor);\n            user.lastFrozenWithdraw = block.timestamp;\n            _amount = _amount.sub(withdrawalFee);\n            \n            if(withdrawalFee > totalFrozen){\n                uint256 remainder = withdrawalFee.sub(totalFrozen);\n                crush.approve(address(bankroll), remainder);\n                totalFrozen = 0;\n            }else\n                totalFrozen = totalFrozen.sub(withdrawalFee);\n            \n            bankroll.recoverBankroll(withdrawalFee);\n            \n        }\n        else if(block.number < user.lastBlockStaked.add(earlyWithdrawFeeTime)){\n            //apply fee\n            uint256 withdrawalFee = _amount.mul(earlyWithdrawFee).div(divisor);\n            _amount = _amount.sub(withdrawalFee);\n            crush.safeTransfer(reserveAddress, withdrawalFee);\n        }\n        _amount = _amount.add(reward);\n        if(_liveWallet == false)\n            crush.safeTransfer(msg.sender, _amount);\n        else  {\n            crush.approve(address(liveWallet), _amount);\n            liveWallet.addbetWithAddress(_amount, msg.sender);\n        }\n        user.claimedAmount = user.claimedAmount.add(reward);\n        totalClaimed = totalClaimed.add(reward);\n        //remove from batchig array\n        if(user.stakedAmount == 0){\n            if(user.index != addressIndexes.length-1){\n                address lastAddress = addressIndexes[addressIndexes.length-1];\n                addressIndexes[user.index] = lastAddress;\n                stakings[lastAddress].index = user.index;\n            }\n            addressIndexes.pop();\n        }\n        emit RewardPoolUpdated(totalPool);\n    }\n\n    /// Get pending rewards of a user for UI\n    /// @param _address the address to calculate the reward for\n    /// @dev calculates potential reward for the address provided based on crush per block\n    function pendingReward (address _address) external view returns (uint256){\n        UserStaking storage user = stakings[_address];\n        uint256 rewardPerBlock = crushPerBlock;\n        if(totalFrozen > 0)\n            rewardPerBlock = rewardPerBlock.add(crushPerBlock.mul(apyBoost).div(divisor));\n        if(totalPool == 0)\n            rewardPerBlock = 0;\n        uint256 localAccRewardPerShare = accRewardPerShare;\n        if(block.number > lastRewardBlock && totalShares !=0){\n            uint256 blocksSinceCalc = block.number.sub(lastRewardBlock);\n            uint256 rewardCalc = blocksSinceCalc.mul(rewardPerBlock).mul(1e12).div(totalShares);\n            localAccRewardPerShare = accRewardPerShare.add( rewardCalc );\n        }\n        return user.shares.mul(localAccRewardPerShare).div(1e12).sub(user.apyBaseline);\n    }\n\n    /// Get pending Profits to Claim\n    /// @param _address the user's wallet address to calculate profits\n    /// @return pending Profits to be claimed by this user\n    function pendingProfits(address _address) public view returns(uint256) {\n        UserStaking storage user = stakings[_address];\n        return user.shares.mul(accProfitPerShare).div(1e12).sub(user.profitBaseline);\n    }\n\n   \n\n    /// compounds the rewards of all users in the pool\n    /// @dev compounds the rewards of all users in the pool add adds it into their staked amount while deducting fees\n    function compoundAll () public  {\n        require(lastAutoCompoundBlock <= block.number, \"Compound All not yet applicable.\");\n        require(totalStaked > 0, \"No Staked rewards to claim\" );\n        uint256 crushToBurn = 0;\n        uint256 performanceFee = 0;\n        \n        uint256 compounderReward = 0;\n        uint totalPoolDeducted = 0;\n\n        uint256 batchStart = batchStartingIndex;\n        if( batchStartingIndex >= addressIndexes.length )\n            batchStart = addressIndexes.length - 1;\n        \n        uint256 batchLimit = addressIndexes.length;\n        if(addressIndexes.length <= autoCompoundLimit || batchStart.add(autoCompoundLimit) >= addressIndexes.length)\n            batchLimit = addressIndexes.length;\n        else\n            batchLimit = batchStart.add(autoCompoundLimit);\n\n        updateProfits();\n        updateDistribution();\n        for(uint256 i=batchStart; i < batchLimit; i++){\n            UserStaking storage currentUser = stakings[addressIndexes[i]];\n            uint256 stakerReward = currentUser.shares.mul(accRewardPerShare).div(1e12).sub(currentUser.apyBaseline);\n            currentUser.apyBaseline = currentUser.apyBaseline.add(stakerReward);\n            if(stakerReward > 0)\n                totalPoolDeducted = totalPoolDeducted.add(stakerReward);\n            uint256 profitReward = currentUser.shares.mul(accProfitPerShare).div(1e12).sub(currentUser.profitBaseline);\n            currentUser.profitBaseline = currentUser.profitBaseline.add(profitReward);\n            stakerReward = stakerReward.add(profitReward);\n            if(stakerReward > 0){\n                totalProfitsClaimed = totalProfitsClaimed.add(profitReward);\n                totalClaimed = totalClaimed.add(stakerReward);\n                uint256 stakerBurn = stakerReward.mul(performanceFeeBurn).div(divisor);\n                crushToBurn = crushToBurn.add(stakerBurn);\n            \n                uint256 cpAllReward = stakerReward.mul(performanceFeeCompounder).div(divisor);\n                compounderReward = compounderReward.add(cpAllReward);\n            \n                uint256 feeReserve = stakerReward.mul(performanceFeeReserve).div(divisor);\n                performanceFee = performanceFee.add(feeReserve);\n                stakerReward = stakerReward.sub(stakerBurn);\n                stakerReward = stakerReward.sub(cpAllReward);\n                stakerReward = stakerReward.sub(feeReserve);\n                currentUser.claimedAmount = currentUser.claimedAmount.add(stakerReward);\n                currentUser.stakedAmount = currentUser.stakedAmount.add(stakerReward);\n                \n                totalStaked = totalStaked.add(stakerReward);\n            }    \n            currentUser.lastBlockCompounded = block.number;\n            batchStartingIndex = batchStart.add(1);\n                        \n        }\n        if(batchStartingIndex >= addressIndexes.length){\n            batchStartingIndex = 0;\n        }\n        totalPool = totalPool.sub(totalPoolDeducted);\n        lastAutoCompoundBlock = block.number;\n        crush.burn(crushToBurn);\n        crush.safeTransfer(msg.sender, compounderReward);\n        crush.safeTransfer(reserveAddress, performanceFee);\n        \n    }\n\n    /// freeze certain funds in the staking pool and transfer them to the live wallet address\n    /// @dev adds the provided amount to the total frozen variablle\n    function freezeStaking (uint256 _amount, address _recipient, address _lwAddress) public  {\n        require(msg.sender == address(bankroll), \"Callet must be bankroll\");\n        //divide amount over users\n        //update user mapping to reflect frozen amount\n         require(_amount <= totalStaked.sub(totalFrozen), \"Freeze amount should be less than or equal to available funds\");\n         totalFrozen = totalFrozen.add(_amount);\n         BitcrushLiveWallet currentLw = BitcrushLiveWallet(_lwAddress);\n         currentLw.addToUserWinnings(_amount, _recipient);\n         crush.safeTransfer(address(_lwAddress), _amount);\n         updateDistribution();\n         updateProfits();\n    }\n    \n    /// unfreeze previously frozen funds from the staking pool\n    /// @dev deducts the provided amount from the total frozen variablle\n    function unfreezeStaking (uint256 _amount) public {\n        require(msg.sender == address(bankroll), \"Caller must be bankroll\");\n         require(_amount <= totalFrozen, \"unfreeze amount cant be greater than currently frozen amount\");\n         totalFrozen = totalFrozen.sub(_amount);\n         updateDistribution();\n         updateProfits();\n    }\n\n\n\n    /// returns the total count of users in the staking pool.\n    /// @dev returns the total stakers in the staking pool by reading length of addressIndexes array\n    function indexesLength() external view returns(uint256 _addressesLength){\n        _addressesLength = addressIndexes.length;\n    }\n\n    /// Store `_fee`.\n    /// @param _fee the new value to store\n    /// @dev stores the fee in the state variable `performanceFeeCompounder`\n    function setPerformanceFeeCompounder (uint256 _fee) public onlyOwner{\n        require(_fee > 0, \"Fee must be greater than 0\");\n        require(_fee < MAX_FEE, \"Fee must be less than 10%\");\n        performanceFeeCompounder = _fee;\n    }\n\n    /// Store `_fee`.\n    /// @param _fee the new value to store\n    /// @dev stores the fee in the state variable `performanceFeeBurn`\n    function setPerformanceFeeBurn (uint256 _fee) public onlyOwner {\n        require(_fee > 0, \"Fee must be greater than 0\");\n        require(_fee < MAX_FEE, \"Fee must be less than 10%\");\n        performanceFeeBurn = _fee;\n    }\n\n    /// Store `_fee`.\n    /// @param _fee the new value to store\n    /// @dev stores the fee in the state variable `earlyWithdrawFee`\n    function setEarlyWithdrawFee (uint256 _fee) public onlyOwner {\n        require(_fee > 0, \"Fee must be greater than 0\");\n        require(_fee < MAX_FEE, \"Fee must be less than 10%\");\n        earlyWithdrawFee = _fee;\n    }\n\n\n    /// Store `_fee`.\n    /// @param _fee the new value to store\n    /// @dev stores the fee in the state variable `performanceFeeReserve`\n    function setPerformanceFeeReserve (uint256 _fee) public onlyOwner {\n        require(_fee > 0, \"Fee must be greater than 0\");\n        require(_fee <= MAX_FEE, \"Fee must be less than 10%\");\n        performanceFeeReserve = _fee;\n    }\n\n    /// Store `_time`.\n    /// @param _time the new value to store\n    /// @dev stores the time in the state variable `earlyWithdrawFeeTime`\n    function setEarlyWithdrawFeeTime (uint256 _time) public onlyOwner {\n        require(_time > 0, \"Time must be greater than 0\");\n        earlyWithdrawFeeTime = _time;\n    }\n    /// Store `_limit`.\n    /// @param _limit the new value to store\n    /// @dev stores the limit in the state variable `autoCompoundLimit`\n    function setAutoCompoundLimit (uint256 _limit) public onlyOwner {\n        require(_limit > 0, \"Limit can not be 0\");\n        require(_limit < 30, \"Max autocompound limit cannot be greater 30\");\n        autoCompoundLimit = _limit;\n    }\n\n\n    /// emergency withdraw funds of users\n    /// @dev transfer all available funds of users to users wallet\n    function emergencyWithdraw () public {\n        \n        updateDistribution();\n        updateProfits();\n        UserStaking storage user = stakings[msg.sender];\n        uint256 reward = user.shares.mul(accRewardPerShare).div(1e12).sub(user.apyBaseline);\n        uint256 profitShare = user.shares.mul(accProfitPerShare).div(1e12).sub(user.profitBaseline);\n        totalPool = totalPool.sub(reward);\n        user.lastBlockCompounded = block.number;\n        reward = reward.add(profitShare);\n        uint256 availableStaked = user.stakedAmount;\n        if(totalFrozen > 0){\n            availableStaked = availableStaked.sub(totalFrozen.mul(user.stakedAmount).div(totalStaked));\n        }else if(user.lastFrozenWithdraw > 0){\n            user.lastFrozenWithdraw = 0;\n        }\n        \n        totalStaked = totalStaked.sub(availableStaked);\n        \n        uint256 shareReduction = availableStaked.mul( user.shares ).div( user.stakedAmount );\n        user.stakedAmount = user.stakedAmount.sub(availableStaked);\n        user.shares = user.shares.sub( shareReduction );\n        totalShares = totalShares.sub( shareReduction );\n        user.apyBaseline = user.shares.mul(accRewardPerShare).div(1e12);\n        user.profitBaseline = user.shares.mul(accProfitPerShare).div(1e12);\n        if(totalFrozen > 0 ){\n            if(user.lastFrozenWithdraw > 0 ) \n                require(block.timestamp > user.lastFrozenWithdraw.add(frozenEarlyWithdrawFeeTime),\"Only One Withdraw allowed per 3 hours during freeze\");\n            \n            uint256 withdrawalFee = availableStaked.mul(frozenEarlyWithdrawFee).div(divisor);\n            user.lastFrozenWithdraw = block.timestamp;\n            availableStaked = availableStaked.sub(withdrawalFee);\n            \n            if(withdrawalFee > totalFrozen){\n                uint256 remainder = withdrawalFee.sub(totalFrozen);\n                crush.approve(address(bankroll), remainder);\n                totalFrozen = 0;\n            }else\n                totalFrozen = totalFrozen.sub(withdrawalFee);\n            \n            crush.safeTransfer(reserveAddress, withdrawalFee);\n\n            \n        }\n        else if(block.number < user.lastBlockStaked.add(earlyWithdrawFeeTime)){\n            //apply fee\n            uint256 withdrawalFee = availableStaked.mul(earlyWithdrawFee).div(divisor);\n            availableStaked = availableStaked.sub(withdrawalFee);\n            crush.safeTransfer(reserveAddress, withdrawalFee);\n        }\n        availableStaked = availableStaked.add(reward);\n        \n        crush.safeTransfer(msg.sender, availableStaked);\n        \n        \n        //remove from batchig array\n        if(user.stakedAmount == 0){\n            if(user.index != addressIndexes.length-1){\n                address lastAddress = addressIndexes[addressIndexes.length-1];\n                addressIndexes[user.index] = lastAddress;\n                stakings[lastAddress].index = user.index;\n            }\n            addressIndexes.pop();\n        }\n        emit RewardPoolUpdated(totalPool);\n\n    }\n   \n\n   \n}\n",
  "sourcePath": "/home/jman/crypto/bitcrush/contracts/crush_contracts/contracts/staking.sol",
  "compiler": {
    "name": "solc",
    "version": "0.6.5+commit.f956cc89.Emscripten.clang"
  },
  "schemaVersion": "3.4.0",
  "updatedAt": "2021-11-07T17:09:46.820Z",
  "devdoc": {
    "methods": {
      "addRewardToPool(uint256)": {
        "details": "adds the provided amount to `totalPool` state variable",
        "params": {
          "_amount": "the amount to add"
        }
      },
      "compoundAll()": {
        "details": "compounds the rewards of all users in the pool add adds it into their staked amount while deducting fees"
      },
      "emergencyWithdraw()": {
        "details": "transfer all available funds of users to users wallet"
      },
      "enterStaking(uint256)": {
        "details": "stakes the provided amount",
        "params": {
          "_amount": "the amount to stake"
        }
      },
      "freezeStaking(uint256,address,address)": {
        "details": "adds the provided amount to the total frozen variablle"
      },
      "indexesLength()": {
        "details": "returns the total stakers in the staking pool by reading length of addressIndexes array"
      },
      "leaveStaking(uint256,bool)": {
        "details": "leaves staking and deducts total pool by the users reward. early withdrawal fee applied if withdraw is made before earlyWithdrawFeeTime",
        "params": {
          "_amount": "the amount to unstake"
        }
      },
      "owner()": {
        "details": "Returns the address of the current owner."
      },
      "pendingProfits(address)": {
        "params": {
          "_address": "the user's wallet address to calculate profits"
        },
        "returns": {
          "_0": "pending Profits to be claimed by this user"
        }
      },
      "pendingReward(address)": {
        "details": "calculates potential reward for the address provided based on crush per block",
        "params": {
          "_address": "the address to calculate the reward for"
        }
      },
      "renounceOwnership()": {
        "details": "Leaves the contract without owner. It will not be possible to call `onlyOwner` functions anymore. Can only be called by the current owner.     * NOTE: Renouncing ownership will leave the contract without an owner, thereby removing any functionality that is only available to the owner."
      },
      "setAutoCompoundLimit(uint256)": {
        "details": "stores the limit in the state variable `autoCompoundLimit`",
        "params": {
          "_limit": "the new value to store"
        }
      },
      "setBankroll(address)": {
        "details": "stores the _bankroll address in the state variable `bankroll`",
        "params": {
          "_bankroll": "the new value to store"
        }
      },
      "setEarlyWithdrawFee(uint256)": {
        "details": "stores the fee in the state variable `earlyWithdrawFee`",
        "params": {
          "_fee": "the new value to store"
        }
      },
      "setEarlyWithdrawFeeTime(uint256)": {
        "details": "stores the time in the state variable `earlyWithdrawFeeTime`",
        "params": {
          "_time": "the new value to store"
        }
      },
      "setLiveWallet(address)": {
        "details": "stores the _liveWallet address in the state variable `liveWallet`",
        "params": {
          "_liveWallet": "the new value to store"
        }
      },
      "setPerformanceFeeBurn(uint256)": {
        "details": "stores the fee in the state variable `performanceFeeBurn`",
        "params": {
          "_fee": "the new value to store"
        }
      },
      "setPerformanceFeeCompounder(uint256)": {
        "details": "stores the fee in the state variable `performanceFeeCompounder`",
        "params": {
          "_fee": "the new value to store"
        }
      },
      "setPerformanceFeeReserve(uint256)": {
        "details": "stores the fee in the state variable `performanceFeeReserve`",
        "params": {
          "_fee": "the new value to store"
        }
      },
      "transferOwnership(address)": {
        "details": "Transfers ownership of the contract to a new account (`newOwner`). Can only be called by the current owner."
      },
      "unfreezeStaking(uint256)": {
        "details": "deducts the provided amount from the total frozen variablle"
      },
      "updateDistribution()": {
        "details": "accRewardPerShare is accumulative, meaning it always holds the total historic  rewardPerShare making apyBaseline necessary to keep rewards fair"
      },
      "updateProfits()": {
        "details": "this allows for consistent profit reporting and no change on profits to distribute"
      }
    }
  },
  "userdoc": {
    "methods": {
      "addRewardToPool(uint256)": {
        "notice": "Adds the provided amount to the totalPool"
      },
      "compoundAll()": {
        "notice": "compounds the rewards of all users in the pool"
      },
      "emergencyWithdraw()": {
        "notice": "emergency withdraw funds of users"
      },
      "enterStaking(uint256)": {
        "notice": "Stake the provided amount"
      },
      "freezeStaking(uint256,address,address)": {
        "notice": "freeze certain funds in the staking pool and transfer them to the live wallet address"
      },
      "indexesLength()": {
        "notice": "returns the total count of users in the staking pool."
      },
      "leaveStaking(uint256,bool)": {
        "notice": "Leaves staking for a user by the specified amount and transfering staked amount and reward to users address"
      },
      "pendingProfits(address)": {
        "notice": "Get pending Profits to Claim"
      },
      "pendingReward(address)": {
        "notice": "Get pending rewards of a user for UI"
      },
      "setAutoCompoundLimit(uint256)": {
        "notice": "Store `_limit`."
      },
      "setBankroll(address)": {
        "notice": "Store `_bankroll`."
      },
      "setEarlyWithdrawFee(uint256)": {
        "notice": "Store `_fee`."
      },
      "setEarlyWithdrawFeeTime(uint256)": {
        "notice": "Store `_time`."
      },
      "setLiveWallet(address)": {
        "notice": "Store `_liveWallet`."
      },
      "setPerformanceFeeBurn(uint256)": {
        "notice": "Store `_fee`."
      },
      "setPerformanceFeeCompounder(uint256)": {
        "notice": "Store `_fee`."
      },
      "setPerformanceFeeReserve(uint256)": {
        "notice": "Store `_fee`."
      },
      "unfreezeStaking(uint256)": {
        "notice": "unfreeze previously frozen funds from the staking pool"
      },
      "updateDistribution()": {
        "notice": "updates accRewardPerShare based on the last block calculated and totalShares"
      },
      "updateProfits()": {
        "notice": "updates accProfitPerShare based on current Profit available and totalShares"
      }
    }
  }
}