{
  "contractName": "BitcrushLiveWallet",
  "abi": [
    {
      "inputs": [
        {
          "internalType": "contract CRUSHToken",
          "name": "_crush",
          "type": "address"
        },
        {
          "internalType": "contract BitcrushBankroll",
          "name": "_bankroll",
          "type": "address"
        },
        {
          "internalType": "address",
          "name": "_reserveAddress",
          "type": "address"
        }
      ],
      "stateMutability": "nonpayable",
      "type": "constructor"
    },
    {
      "anonymous": false,
      "inputs": [
        {
          "indexed": true,
          "internalType": "address",
          "name": "_address",
          "type": "address"
        },
        {
          "indexed": true,
          "internalType": "uint256",
          "name": "_amount",
          "type": "uint256"
        }
      ],
      "name": "Deposit",
      "type": "event"
    },
    {
      "anonymous": false,
      "inputs": [
        {
          "indexed": true,
          "internalType": "uint256",
          "name": "_lockPeriod",
          "type": "uint256"
        }
      ],
      "name": "LockPeriodUpdated",
      "type": "event"
    },
    {
      "anonymous": false,
      "inputs": [
        {
          "indexed": true,
          "internalType": "address",
          "name": "previousOwner",
          "type": "address"
        },
        {
          "indexed": true,
          "internalType": "address",
          "name": "newOwner",
          "type": "address"
        }
      ],
      "name": "OwnershipTransferred",
      "type": "event"
    },
    {
      "anonymous": false,
      "inputs": [
        {
          "indexed": true,
          "internalType": "address",
          "name": "_address",
          "type": "address"
        },
        {
          "indexed": true,
          "internalType": "uint256",
          "name": "_amount",
          "type": "uint256"
        }
      ],
      "name": "Withdraw",
      "type": "event"
    },
    {
      "inputs": [],
      "name": "DIVISOR",
      "outputs": [
        {
          "internalType": "uint256",
          "name": "",
          "type": "uint256"
        }
      ],
      "stateMutability": "view",
      "type": "function",
      "constant": true
    },
    {
      "inputs": [],
      "name": "bankroll",
      "outputs": [
        {
          "internalType": "contract BitcrushBankroll",
          "name": "",
          "type": "address"
        }
      ],
      "stateMutability": "view",
      "type": "function",
      "constant": true
    },
    {
      "inputs": [
        {
          "internalType": "address",
          "name": "",
          "type": "address"
        }
      ],
      "name": "betAmounts",
      "outputs": [
        {
          "internalType": "uint256",
          "name": "balance",
          "type": "uint256"
        },
        {
          "internalType": "uint256",
          "name": "lockTimeStamp",
          "type": "uint256"
        }
      ],
      "stateMutability": "view",
      "type": "function",
      "constant": true
    },
    {
      "inputs": [
        {
          "internalType": "address",
          "name": "",
          "type": "address"
        }
      ],
      "name": "blacklistedUsers",
      "outputs": [
        {
          "internalType": "bool",
          "name": "blacklisted",
          "type": "bool"
        }
      ],
      "stateMutability": "view",
      "type": "function",
      "constant": true
    },
    {
      "inputs": [],
      "name": "crush",
      "outputs": [
        {
          "internalType": "contract CRUSHToken",
          "name": "",
          "type": "address"
        }
      ],
      "stateMutability": "view",
      "type": "function",
      "constant": true
    },
    {
      "inputs": [],
      "name": "earlyWithdrawFee",
      "outputs": [
        {
          "internalType": "uint256",
          "name": "",
          "type": "uint256"
        }
      ],
      "stateMutability": "view",
      "type": "function",
      "constant": true
    },
    {
      "inputs": [],
      "name": "lockPeriod",
      "outputs": [
        {
          "internalType": "uint256",
          "name": "",
          "type": "uint256"
        }
      ],
      "stateMutability": "view",
      "type": "function",
      "constant": true
    },
    {
      "inputs": [],
      "name": "lossBurn",
      "outputs": [
        {
          "internalType": "uint256",
          "name": "",
          "type": "uint256"
        }
      ],
      "stateMutability": "view",
      "type": "function",
      "constant": true
    },
    {
      "inputs": [],
      "name": "owner",
      "outputs": [
        {
          "internalType": "address",
          "name": "",
          "type": "address"
        }
      ],
      "stateMutability": "view",
      "type": "function",
      "constant": true
    },
    {
      "inputs": [],
      "name": "renounceOwnership",
      "outputs": [],
      "stateMutability": "nonpayable",
      "type": "function"
    },
    {
      "inputs": [],
      "name": "reserveAddress",
      "outputs": [
        {
          "internalType": "address",
          "name": "",
          "type": "address"
        }
      ],
      "stateMutability": "view",
      "type": "function",
      "constant": true
    },
    {
      "inputs": [
        {
          "internalType": "address",
          "name": "newOwner",
          "type": "address"
        }
      ],
      "name": "transferOwnership",
      "outputs": [],
      "stateMutability": "nonpayable",
      "type": "function"
    },
    {
      "inputs": [
        {
          "internalType": "uint256",
          "name": "_amount",
          "type": "uint256"
        }
      ],
      "name": "addbet",
      "outputs": [],
      "stateMutability": "nonpayable",
      "type": "function"
    },
    {
      "inputs": [
        {
          "internalType": "uint256",
          "name": "_amount",
          "type": "uint256"
        },
        {
          "internalType": "address",
          "name": "_user",
          "type": "address"
        }
      ],
      "name": "addbetWithAddress",
      "outputs": [],
      "stateMutability": "nonpayable",
      "type": "function"
    },
    {
      "inputs": [
        {
          "internalType": "address",
          "name": "_user",
          "type": "address"
        }
      ],
      "name": "balanceOf",
      "outputs": [
        {
          "internalType": "uint256",
          "name": "",
          "type": "uint256"
        }
      ],
      "stateMutability": "view",
      "type": "function",
      "constant": true
    },
    {
      "inputs": [
        {
          "internalType": "uint256[]",
          "name": "_wins",
          "type": "uint256[]"
        },
        {
          "internalType": "address[]",
          "name": "_users",
          "type": "address[]"
        }
      ],
      "name": "registerWin",
      "outputs": [],
      "stateMutability": "nonpayable",
      "type": "function"
    },
    {
      "inputs": [
        {
          "internalType": "uint256[]",
          "name": "_bets",
          "type": "uint256[]"
        },
        {
          "internalType": "address[]",
          "name": "_users",
          "type": "address[]"
        }
      ],
      "name": "registerLoss",
      "outputs": [],
      "stateMutability": "nonpayable",
      "type": "function"
    },
    {
      "inputs": [
        {
          "internalType": "uint256",
          "name": "_amount",
          "type": "uint256"
        }
      ],
      "name": "withdrawBet",
      "outputs": [],
      "stateMutability": "nonpayable",
      "type": "function"
    },
    {
      "inputs": [
        {
          "internalType": "uint256",
          "name": "_amount",
          "type": "uint256"
        },
        {
          "internalType": "address",
          "name": "_user",
          "type": "address"
        }
      ],
      "name": "withdrawBetForUser",
      "outputs": [],
      "stateMutability": "nonpayable",
      "type": "function"
    },
    {
      "inputs": [
        {
          "internalType": "uint256",
          "name": "_amount",
          "type": "uint256"
        },
        {
          "internalType": "address",
          "name": "_user",
          "type": "address"
        }
      ],
      "name": "addToUserWinnings",
      "outputs": [],
      "stateMutability": "nonpayable",
      "type": "function"
    },
    {
      "inputs": [
        {
          "internalType": "address[]",
          "name": "_users",
          "type": "address[]"
        }
      ],
      "name": "updateBetLock",
      "outputs": [],
      "stateMutability": "nonpayable",
      "type": "function"
    },
    {
      "inputs": [
        {
          "internalType": "address[]",
          "name": "_users",
          "type": "address[]"
        }
      ],
      "name": "releaseBetLock",
      "outputs": [],
      "stateMutability": "nonpayable",
      "type": "function"
    },
    {
      "inputs": [
        {
          "internalType": "address",
          "name": "_address",
          "type": "address"
        }
      ],
      "name": "blacklistUser",
      "outputs": [],
      "stateMutability": "nonpayable",
      "type": "function"
    },
    {
      "inputs": [
        {
          "internalType": "address",
          "name": "_address",
          "type": "address"
        }
      ],
      "name": "whitelistUser",
      "outputs": [],
      "stateMutability": "nonpayable",
      "type": "function"
    },
    {
      "inputs": [],
      "name": "blacklistSelf",
      "outputs": [],
      "stateMutability": "nonpayable",
      "type": "function"
    },
    {
      "inputs": [
        {
          "internalType": "uint256",
          "name": "_lossBurn",
          "type": "uint256"
        }
      ],
      "name": "setLossBurn",
      "outputs": [],
      "stateMutability": "nonpayable",
      "type": "function"
    },
    {
      "inputs": [
        {
          "internalType": "uint256",
          "name": "_lockPeriod",
          "type": "uint256"
        }
      ],
      "name": "setLockPeriod",
      "outputs": [],
      "stateMutability": "nonpayable",
      "type": "function"
    },
    {
      "inputs": [
        {
          "internalType": "address",
          "name": "_reserveAddress",
          "type": "address"
        }
      ],
      "name": "setReserveAddress",
      "outputs": [],
      "stateMutability": "nonpayable",
      "type": "function"
    },
    {
      "inputs": [
        {
          "internalType": "uint256",
          "name": "_earlyWithdrawFee",
          "type": "uint256"
        }
      ],
      "name": "setEarlyWithdrawFee",
      "outputs": [],
      "stateMutability": "nonpayable",
      "type": "function"
    }
  ],
  "bytecode": "0x6080604052600a600555612a30600655603260085534801561002057600080fd5b5060405161201c38038061201c8339818101604052606081101561004357600080fd5b508051602082015160409092015190919060006100676001600160e01b036100f316565b600080546001600160a01b0319166001600160a01b0383169081178255604051929350917f8be0079c531659141344cd1fd0a4f28419497f9722a3daafe3b4186f6b6457e0908290a350600380546001600160a01b039485166001600160a01b0319918216179091556004805493851693821693909317909255600780549190931691161790556100f7565b3390565b611f16806101066000396000f3fe608060405234801561001057600080fd5b50600436106101cf5760003560e01c80638da5cb5b11610104578063c22982f4116100a2578063f2fde38b11610071578063f2fde38b146107b4578063f62cf8d0146107da578063f79ed94b14610806578063fcbca4561461080e576101cf565b8063c22982f414610605578063d4b9661c14610622578063ebcfcf6b1461064e578063f2150bbb1461068d576101cf565b8063a80a7882116100de578063a80a788214610535578063afb62d701461053d578063b359a9f9146105e0578063c025247d146105e8576101cf565b80638da5cb5b146103e9578063a2b1a2cc146103f1578063a4ae1c561461040e576101cf565b806370a0823111610171578063723ea1151161014b578063723ea115146102f5578063779972da146102fd5780637efd38131461031a578063815b738614610346576101cf565b806370a08231146102bf578063715018a6146102e5578063720fe1fd146102ed576101cf565b80633410fe6e116101ad5780633410fe6e1461025a5780633fd8b02f146102745780634a4c560d1461027c5780636145b22c146102a2576101cf565b80630c657eb0146101d457806314673d31146101f857806322c0aec714610220575b600080fd5b6101dc610834565b604080516001600160a01b039092168252519081900360200190f35b61021e6004803603602081101561020e57600080fd5b50356001600160a01b0316610843565b005b6102466004803603602081101561023657600080fd5b50356001600160a01b03166108dc565b604080519115158252519081900360200190f35b6102626108f1565b60408051918252519081900360200190f35b6102626108f7565b61021e6004803603602081101561029257600080fd5b50356001600160a01b03166108fd565b61021e600480360360208110156102b857600080fd5b5035610988565b610262600480360360208110156102d557600080fd5b50356001600160a01b0316610b29565b61021e610b44565b610262610c05565b61021e610c0b565b61021e6004803603602081101561031357600080fd5b5035610c2a565b61021e6004803603604081101561033057600080fd5b50803590602001356001600160a01b0316610cc7565b61021e6004803603602081101561035c57600080fd5b81019060208101813564010000000081111561037757600080fd5b82018360208201111561038957600080fd5b803590602001918460208302840111640100000000831117156103ab57600080fd5b919080806020026020016040519081016040528093929190818152602001838360200280828437600092019190915250929550610e59945050505050565b6101dc610eb7565b61021e6004803603602081101561040757600080fd5b5035610ec6565b61021e6004803603604081101561042457600080fd5b81019060208101813564010000000081111561043f57600080fd5b82018360208201111561045157600080fd5b8035906020019184602083028401116401000000008311171561047357600080fd5b91908080602002602001604051908101604052809392919081815260200183836020028082843760009201919091525092959493602081019350359150506401000000008111156104c357600080fd5b8201836020820111156104d557600080fd5b803590602001918460208302840111640100000000831117156104f757600080fd5b91908080602002602001604051908101604052809392919081815260200183836020028082843760009201919091525092955061108a945050505050565b61026261121b565b61021e6004803603602081101561055357600080fd5b81019060208101813564010000000081111561056e57600080fd5b82018360208201111561058057600080fd5b803590602001918460208302840111640100000000831117156105a257600080fd5b919080806020026020016040519081016040528093929190818152602001838360200280828437600092019190915250929550611221945050505050565b6101dc61127a565b61021e600480360360208110156105fe57600080fd5b5035611289565b61021e6004803603602081101561061b57600080fd5b503561134d565b61021e6004803603604081101561063857600080fd5b50803590602001356001600160a01b03166113bc565b6106746004803603602081101561066457600080fd5b50356001600160a01b0316611649565b6040805192835260208301919091528051918290030190f35b61021e600480360360408110156106a357600080fd5b8101906020810181356401000000008111156106be57600080fd5b8201836020820111156106d057600080fd5b803590602001918460208302840111640100000000831117156106f257600080fd5b919080806020026020016040519081016040528093929190818152602001838360200280828437600092019190915250929594936020810193503591505064010000000081111561074257600080fd5b82018360208201111561075457600080fd5b8035906020019184602083028401116401000000008311171561077657600080fd5b919080806020026020016040519081016040528093929190818152602001838360200280828437600092019190915250929550611662945050505050565b61021e600480360360208110156107ca57600080fd5b50356001600160a01b03166117ca565b61021e600480360360408110156107f057600080fd5b50803590602001356001600160a01b0316611840565b6101dc6118c8565b61021e6004803603602081101561082457600080fd5b50356001600160a01b03166118d7565b6004546001600160a01b031681565b61084b611968565b6000546001600160a01b039081169116146108ad576040805162461bcd60e51b815260206004820181905260248201527f4f776e61626c653a2063616c6c6572206973206e6f7420746865206f776e6572604482015290519081900360640190fd5b6007805473ffffffffffffffffffffffffffffffffffffffff19166001600160a01b0392909216919091179055565b60016020526000908152604090205460ff1681565b61271081565b60065481565b610905611968565b6000546001600160a01b03908116911614610967576040805162461bcd60e51b815260206004820181905260248201527f4f776e61626c653a2063616c6c6572206973206e6f7420746865206f776e6572604482015290519081900360640190fd5b6001600160a01b03166000908152600160205260409020805460ff19169055565b600081116109c75760405162461bcd60e51b8152600401808060200182810382526023815260200180611ebe6023913960400191505060405180910390fd5b3360009081526001602052604090205460ff1615610a2c576040805162461bcd60e51b815260206004820152601460248201527f5573657220697320626c61636b204c6973746564000000000000000000000000604482015290519081900360640190fd5b600354604080517f23b872dd0000000000000000000000000000000000000000000000000000000081523360048201523060248201526044810184905290516001600160a01b03909216916323b872dd916064808201926020929091908290030181600087803b158015610a9f57600080fd5b505af1158015610ab3573d6000803e3d6000fd5b505050506040513d6020811015610ac957600080fd5b505033600090815260026020526040902054610aeb908263ffffffff61196c16565b3360008181526002602052604080822093909355915183927fe1fffcc4923d04b559f4d29a8bfc6cda04eb5b0d3c460751c2402c5c5cc9109c91a350565b6001600160a01b031660009081526002602052604090205490565b610b4c611968565b6000546001600160a01b03908116911614610bae576040805162461bcd60e51b815260206004820181905260248201527f4f776e61626c653a2063616c6c6572206973206e6f7420746865206f776e6572604482015290519081900360640190fd5b600080546040516001600160a01b03909116907f8be0079c531659141344cd1fd0a4f28419497f9722a3daafe3b4186f6b6457e0908390a36000805473ffffffffffffffffffffffffffffffffffffffff19169055565b60055481565b336000908152600160208190526040909120805460ff19169091179055565b610c32611968565b6000546001600160a01b03908116911614610c94576040805162461bcd60e51b815260206004820181905260248201527f4f776e61626c653a2063616c6c6572206973206e6f7420746865206f776e6572604482015290519081900360640190fd5b600681905560405181907f8249ec545e68f6f1e1230133ca48c704d831a7f8e635ded80f3dd9e99b09bb2f90600090a250565b60008211610d065760405162461bcd60e51b8152600401808060200182810382526023815260200180611ebe6023913960400191505060405180910390fd5b6001600160a01b03811660009081526001602052604090205460ff1615610d74576040805162461bcd60e51b815260206004820152601460248201527f5573657220697320626c61636b204c6973746564000000000000000000000000604482015290519081900360640190fd5b600354604080517f23b872dd0000000000000000000000000000000000000000000000000000000081523360048201523060248201526044810185905290516001600160a01b03909216916323b872dd916064808201926020929091908290030181600087803b158015610de757600080fd5b505af1158015610dfb573d6000803e3d6000fd5b505050506040513d6020811015610e1157600080fd5b50506001600160a01b038116600090815260026020526040902054610e3c908363ffffffff61196c16565b6001600160a01b0390911660009081526002602052604090205550565b60005b8151811015610eb357600060026000848481518110610e7757fe5b60200260200101516001600160a01b03166001600160a01b03168152602001908152602001600020600101819055508080600101915050610e5c565b5050565b6000546001600160a01b031690565b33600090815260026020526040902054811115610f2a576040805162461bcd60e51b815260206004820152601d60248201527f626574206c657373207468616e20616d6f756e74207769746864726177000000604482015290519081900360640190fd5b336000908152600260205260409020600101541580610f6e5750600654336000908152600260205260409020600101544291610f6c919063ffffffff61196c16565b105b610fa95760405162461bcd60e51b8152600401808060200182810382526029815260200180611e2d6029913960400191505060405180910390fd5b33600090815260026020526040902054610fc9908263ffffffff6119cf16565b33600081815260026020908152604080832094909455600354845163a9059cbb60e01b815260048101949094526024840186905293516001600160a01b039094169363a9059cbb93604480820194918390030190829087803b15801561102e57600080fd5b505af1158015611042573d6000803e3d6000fd5b505050506040513d602081101561105857600080fd5b5050604051819033907f884edad9ce6fa2440d8a54cc123490eb96d2768479d49ff9c7366125a942436490600090a350565b611092611968565b6000546001600160a01b039081169116146110f4576040805162461bcd60e51b815260206004820181905260248201527f4f776e61626c653a2063616c6c6572206973206e6f7420746865206f776e6572604482015290519081900360640190fd5b80518251146111345760405162461bcd60e51b8152600401808060200182810382526021815260200180611e7c6021913960400191505060405180910390fd5b60005b815181101561121657600083828151811061114e57fe5b6020026020010151111561120e5761117883828151811061116b57fe5b6020026020010151611a11565b6111d983828151811061118757fe5b60200260200101516002600085858151811061119f57fe5b60200260200101516001600160a01b03166001600160a01b03168152602001908152602001600020600001546119cf90919063ffffffff16565b600260008484815181106111e957fe5b6020908102919091018101516001600160a01b03168252810191909152604001600020555b600101611137565b505050565b60085481565b60005b8151811015610eb357426002600084848151811061123e57fe5b60200260200101516001600160a01b03166001600160a01b03168152602001908152602001600020600101819055508080600101915050611224565b6003546001600160a01b031681565b611291611968565b6000546001600160a01b039081169116146112f3576040805162461bcd60e51b815260206004820181905260248201527f4f776e61626c653a2063616c6c6572206973206e6f7420746865206f776e6572604482015290519081900360640190fd5b60008111611348576040805162461bcd60e51b815260206004820152601360248201527f4c6f7373206275726e2063616e74206265203000000000000000000000000000604482015290519081900360640190fd5b600555565b611355611968565b6000546001600160a01b039081169116146113b7576040805162461bcd60e51b815260206004820181905260248201527f4f776e61626c653a2063616c6c6572206973206e6f7420746865206f776e6572604482015290519081900360640190fd5b600855565b6113c4611968565b6000546001600160a01b03908116911614611426576040805162461bcd60e51b815260206004820181905260248201527f4f776e61626c653a2063616c6c6572206973206e6f7420746865206f776e6572604482015290519081900360640190fd5b6001600160a01b038116600090815260026020526040902054821115611493576040805162461bcd60e51b815260206004820152601d60248201527f626574206c657373207468616e20616d6f756e74207769746864726177000000604482015290519081900360640190fd5b6001600160a01b0381166000908152600260205260409020546114bc908363ffffffff6119cf16565b6001600160a01b03821660008181526002602052604080822093909355915184927f884edad9ce6fa2440d8a54cc123490eb96d2768479d49ff9c7366125a942436491a3600061152961271061151d60085486611be890919063ffffffff16565b9063ffffffff611c4116565b905061153b838263ffffffff6119cf16565b6003546007546040805163a9059cbb60e01b81526001600160a01b03928316600482015260248101869052905193965091169163a9059cbb916044808201926020929091908290030181600087803b15801561159657600080fd5b505af11580156115aa573d6000803e3d6000fd5b505050506040513d60208110156115c057600080fd5b50506003546040805163a9059cbb60e01b81526001600160a01b038581166004830152602482018790529151919092169163a9059cbb9160448083019260209291908290030181600087803b15801561161857600080fd5b505af115801561162c573d6000803e3d6000fd5b505050506040513d602081101561164257600080fd5b5050505050565b6002602052600090815260409020805460019091015482565b61166a611968565b6000546001600160a01b039081169116146116cc576040805162461bcd60e51b815260206004820181905260248201527f4f776e61626c653a2063616c6c6572206973206e6f7420746865206f776e6572604482015290519081900360640190fd5b805182511461170c5760405162461bcd60e51b8152600401808060200182810382526021815260200180611e7c6021913960400191505060405180910390fd5b60005b81518110156112165760045483516001600160a01b03909116906361433d889085908490811061173b57fe5b602002602001015184848151811061174f57fe5b60200260200101516040518363ffffffff1660e01b815260040180838152602001826001600160a01b03166001600160a01b0316815260200192505050600060405180830381600087803b1580156117a657600080fd5b505af11580156117ba573d6000803e3d6000fd5b50506001909201915061170f9050565b6117d2611968565b6000546001600160a01b03908116911614611834576040805162461bcd60e51b815260206004820181905260248201527f4f776e61626c653a2063616c6c6572206973206e6f7420746865206f776e6572604482015290519081900360640190fd5b61183d81611c83565b50565b6004546001600160a01b0316331461189f576040805162461bcd60e51b815260206004820152601760248201527f43616c6c6572206d7573742062652062616e6b726f6c6c000000000000000000604482015290519081900360640190fd5b6001600160a01b038116600090815260026020526040902054610e3c908363ffffffff61196c16565b6007546001600160a01b031681565b6118df611968565b6000546001600160a01b03908116911614611941576040805162461bcd60e51b815260206004820181905260248201527f4f776e61626c653a2063616c6c6572206973206e6f7420746865206f776e6572604482015290519081900360640190fd5b6001600160a01b03166000908152600160208190526040909120805460ff19169091179055565b3390565b6000828201838110156119c6576040805162461bcd60e51b815260206004820152601b60248201527f536166654d6174683a206164646974696f6e206f766572666c6f770000000000604482015290519081900360640190fd5b90505b92915050565b60006119c683836040518060400160405280601e81526020017f536166654d6174683a207375627472616374696f6e206f766572666c6f770000815250611d30565b6000611a2e61271061151d60055485611be890919063ffffffff16565b600354604080517f42966c680000000000000000000000000000000000000000000000000000000081526004810184905290519293506001600160a01b03909116916342966c689160248082019260009290919082900301818387803b158015611a9757600080fd5b505af1158015611aab573d6000803e3d6000fd5b505050506000611ac482846119cf90919063ffffffff16565b60035460048054604080517f095ea7b30000000000000000000000000000000000000000000000000000000081526001600160a01b039283169381019390935260248301859052519394509091169163095ea7b3916044808201926020929091908290030181600087803b158015611b3b57600080fd5b505af1158015611b4f573d6000803e3d6000fd5b505050506040513d6020811015611b6557600080fd5b505060048054604080517fc2e50b16000000000000000000000000000000000000000000000000000000008152928301849052516001600160a01b039091169163c2e50b1691602480830192600092919082900301818387803b158015611bcb57600080fd5b505af1158015611bdf573d6000803e3d6000fd5b50505050505050565b600082611bf7575060006119c9565b82820282848281611c0457fe5b04146119c65760405162461bcd60e51b8152600401808060200182810382526021815260200180611e9d6021913960400191505060405180910390fd5b60006119c683836040518060400160405280601a81526020017f536166654d6174683a206469766973696f6e206279207a65726f000000000000815250611dc7565b6001600160a01b038116611cc85760405162461bcd60e51b8152600401808060200182810382526026815260200180611e566026913960400191505060405180910390fd5b600080546040516001600160a01b03808516939216917f8be0079c531659141344cd1fd0a4f28419497f9722a3daafe3b4186f6b6457e091a36000805473ffffffffffffffffffffffffffffffffffffffff19166001600160a01b0392909216919091179055565b60008184841115611dbf5760405162461bcd60e51b81526004018080602001828103825283818151815260200191508051906020019080838360005b83811015611d84578181015183820152602001611d6c565b50505050905090810190601f168015611db15780820380516001836020036101000a031916815260200191505b509250505060405180910390fd5b505050900390565b60008183611e165760405162461bcd60e51b8152602060048201818152835160248401528351909283926044909101919085019080838360008315611d84578181015183820152602001611d6c565b506000838581611e2257fe5b049594505050505056fe42657420416d6f756e74206c6f636b65642c20706c656173652074727920616761696e206c617465724f776e61626c653a206e6577206f776e657220697320746865207a65726f2061646472657373506172616d65746572206c656e677468732073686f756c6420626520657175616c536166654d6174683a206d756c7469706c69636174696f6e206f766572666c6f7742657420616d6f756e742073686f756c642062652067726561746572207468616e2030a2646970667358221220cf5ef7648b30db89b767595627178340340aadec9842086d3c1ce8578eb7727264736f6c63430006020033",
  "source": "//SPDX-License-Identifier: MIT\npragma solidity >=0.6.2;\nimport \"@pancakeswap/pancake-swap-lib/contracts/access/Ownable.sol\";\nimport \"./CrushCoin.sol\";\nimport \"./HouseBankroll.sol\";\n\nimport \"@pancakeswap/pancake-swap-lib/contracts/math/SafeMath.sol\";\ncontract BitcrushLiveWallet is Ownable {\n    using SafeMath for uint256;\n    struct wallet {\n        //rename to balance\n        uint256 balance;\n        uint256 lockTimeStamp;\n    }\n    \n    struct blackList {\n        bool blacklisted;\n    }\n    mapping (address => blackList) public blacklistedUsers;\n    //mapping users address with bet amount\n    mapping (address => wallet) public betAmounts;\n    \n    //address of the crush token\n    CRUSHToken public crush;\n    BitcrushBankroll public bankroll;\n    \n    uint256 public lossBurn = 10;\n    uint256 constant public DIVISOR = 10000;\n    uint256 public lockPeriod = 10800;\n    address public reserveAddress;\n    uint256  public earlyWithdrawFee         = 50; // 50/10000 * 100 = 0.5% \n    \n    event Withdraw (address indexed _address, uint256 indexed _amount);\n    event Deposit (address indexed _address, uint256 indexed _amount);\n    event LockPeriodUpdated (uint256 indexed _lockPeriod);\n\n    constructor (CRUSHToken _crush, BitcrushBankroll _bankroll, address _reserveAddress) public{\n        crush = _crush;\n        bankroll = _bankroll;\n        reserveAddress = _reserveAddress;\n    }\n\n    function addbet (uint256 _amount) public {\n        \n        require(_amount > 0, \"Bet amount should be greater than 0\");\n        require(blacklistedUsers[msg.sender].blacklisted == false, \"User is black Listed\");\n        crush.transferFrom(msg.sender, address(this), _amount);\n        betAmounts[msg.sender].balance = betAmounts[msg.sender].balance.add(_amount);\n        emit Deposit(msg.sender, _amount);\n        \n    }\n\n    function addbetWithAddress (uint256 _amount, address _user) public {\n        //todo add validation for valid game id\n        require(_amount > 0, \"Bet amount should be greater than 0\");\n        require(blacklistedUsers[_user].blacklisted == false, \"User is black Listed\");\n        crush.transferFrom(msg.sender, address(this), _amount);\n        betAmounts[_user].balance = betAmounts[_user].balance.add(_amount);\n        \n    }\n\n    function balanceOf ( address _user) public view returns (uint256){\n        return betAmounts[_user].balance;\n    }\n\n    function registerWin (uint256[] memory _wins, address[] memory _users) public onlyOwner {\n        require (_wins.length == _users.length, \"Parameter lengths should be equal\");\n        for(uint256 i=0; i < _users.length; i++){\n                bankroll.payOutUserWinning(_wins[i], _users[i]);\n        }\n    }\n    \n    function registerLoss (uint256[] memory _bets, address[] memory _users) public onlyOwner {\n        require (_bets.length == _users.length, \"Parameter lengths should be equal\");\n        for(uint256 i=0; i < _users.length; i++){\n            if(_bets[i] > 0){\n            transferToBankroll(_bets[i]);\n            betAmounts[_users[i]].balance = betAmounts[_users[i]].balance.sub(_bets[i]);\n            }\n            \n        }\n    }\n\n    function transferToBankroll (uint256 _amount) internal {\n        uint256 burnShare = _amount.mul(lossBurn).div(DIVISOR);\n        crush.burn(burnShare);\n        uint256 remainingAmount = _amount.sub(burnShare);\n        crush.approve(address(bankroll), remainingAmount);\n        bankroll.addUserLoss(remainingAmount);       \n    }\n\n    function withdrawBet(uint256 _amount) public {\n        require(betAmounts[msg.sender].balance >= _amount, \"bet less than amount withdraw\");\n        require(betAmounts[msg.sender].lockTimeStamp == 0 || betAmounts[msg.sender].lockTimeStamp.add(lockPeriod) < block.timestamp, \"Bet Amount locked, please try again later\");\n        betAmounts[msg.sender].balance = betAmounts[msg.sender].balance.sub(_amount);\n        crush.transfer(msg.sender, _amount);\n        emit Withdraw(msg.sender, _amount);\n    }\n\n    function withdrawBetForUser(uint256 _amount, address _user) public onlyOwner {\n        require(betAmounts[_user].balance >= _amount, \"bet less than amount withdraw\");\n        betAmounts[_user].balance = betAmounts[_user].balance.sub(_amount);\n        emit Withdraw(_user, _amount);\n        uint256 withdrawalFee = _amount.mul(earlyWithdrawFee).div(DIVISOR);\n        _amount = _amount.sub(withdrawalFee);\n        crush.transfer(reserveAddress, withdrawalFee);\n        crush.transfer(_user, _amount);\n        \n        \n    }\n\n\n    function addToUserWinnings (uint256 _amount, address _user) public {\n        require(msg.sender == address(bankroll),\"Caller must be bankroll\");\n        betAmounts[_user].balance = betAmounts[_user].balance.add(_amount);\n\n    }\n    function updateBetLock (address[] memory _users) public {\n        for(uint256 i=0; i < _users.length; i++){\n            betAmounts[_users[i]].lockTimeStamp = block.timestamp;\n        }\n        \n    }\n\n    function releaseBetLock (address[] memory _users) public {\n        for(uint256 i=0; i < _users.length; i++){\n            betAmounts[_users[i]].lockTimeStamp = 0;\n        }\n    }\n\n    function blacklistUser (address _address) public onlyOwner {\n        blacklistedUsers[_address].blacklisted = true;\n    }\n\n    function whitelistUser (address _address) public onlyOwner {\n        delete blacklistedUsers[_address];\n    }\n\n    function blacklistSelf () public  {\n        blacklistedUsers[msg.sender].blacklisted = true;\n    }\n\n    function setLossBurn(uint256 _lossBurn) public onlyOwner {\n        require(_lossBurn > 0, \"Loss burn cant be 0\");\n        lossBurn = _lossBurn;\n    }\n    function setLockPeriod (uint256 _lockPeriod) public onlyOwner {\n        lockPeriod = _lockPeriod;\n        emit LockPeriodUpdated(lockPeriod);\n    }\n\n    function setReserveAddress (address _reserveAddress) public onlyOwner {\n        reserveAddress = _reserveAddress;\n    }\n\n    function setEarlyWithdrawFee (uint256 _earlyWithdrawFee ) public onlyOwner {\n        earlyWithdrawFee = _earlyWithdrawFee;\n    }\n\n}",
  "sourcePath": "/Users/umerali/Desktop/FRAG/bitcrush/crush_contracts/contracts/LiveWallet.sol",
  "compiler": {
    "name": "solc",
    "version": "0.6.2+commit.bacdbe57.Emscripten.clang"
  },
  "schemaVersion": "3.4.1",
  "updatedAt": "2021-09-07T10:50:27.624Z",
  "networkType": "ethereum",
  "devdoc": {
    "methods": {
      "owner()": {
        "details": "Returns the address of the current owner."
      },
      "renounceOwnership()": {
        "details": "Leaves the contract without owner. It will not be possible to call `onlyOwner` functions anymore. Can only be called by the current owner.     * NOTE: Renouncing ownership will leave the contract without an owner, thereby removing any functionality that is only available to the owner."
      },
      "transferOwnership(address)": {
        "details": "Transfers ownership of the contract to a new account (`newOwner`). Can only be called by the current owner."
      }
    }
  },
  "userdoc": {
    "methods": {}
  }
}