{
  "contractName": "BitcrushBankroll",
  "abi": [
    {
      "inputs": [
        {
          "internalType": "contract CRUSHToken",
          "name": "_crush",
          "type": "address"
        },
        {
          "internalType": "contract BitcrushStaking",
          "name": "_stakingPool",
          "type": "address"
        },
        {
          "internalType": "address",
          "name": "_reserve",
          "type": "address"
        },
        {
          "internalType": "address",
          "name": "_lottery",
          "type": "address"
        },
        {
          "internalType": "uint256",
          "name": "_profitShare",
          "type": "uint256"
        },
        {
          "internalType": "uint256",
          "name": "_houseBankrollShare",
          "type": "uint256"
        },
        {
          "internalType": "uint256",
          "name": "_lotteryShare",
          "type": "uint256"
        },
        {
          "internalType": "uint256",
          "name": "_reserveShare",
          "type": "uint256"
        }
      ],
      "stateMutability": "nonpayable",
      "type": "constructor"
    },
    {
      "anonymous": false,
      "inputs": [
        {
          "indexed": true,
          "internalType": "address",
          "name": "previousOwner",
          "type": "address"
        },
        {
          "indexed": true,
          "internalType": "address",
          "name": "newOwner",
          "type": "address"
        }
      ],
      "name": "OwnershipTransferred",
      "type": "event"
    },
    {
      "anonymous": false,
      "inputs": [
        {
          "indexed": false,
          "internalType": "uint256",
          "name": "_houseBankrollShare",
          "type": "uint256"
        },
        {
          "indexed": false,
          "internalType": "uint256",
          "name": "_profitShare",
          "type": "uint256"
        },
        {
          "indexed": false,
          "internalType": "uint256",
          "name": "_lotteryShare",
          "type": "uint256"
        },
        {
          "indexed": false,
          "internalType": "uint256",
          "name": "_reserveShare",
          "type": "uint256"
        }
      ],
      "name": "SharesUpdated",
      "type": "event"
    },
    {
      "inputs": [],
      "name": "BURN_RATE",
      "outputs": [
        {
          "internalType": "uint256",
          "name": "",
          "type": "uint256"
        }
      ],
      "stateMutability": "view",
      "type": "function"
    },
    {
      "inputs": [],
      "name": "DIVISOR",
      "outputs": [
        {
          "internalType": "uint256",
          "name": "",
          "type": "uint256"
        }
      ],
      "stateMutability": "view",
      "type": "function"
    },
    {
      "inputs": [
        {
          "internalType": "address",
          "name": "",
          "type": "address"
        }
      ],
      "name": "authorizedAddresses",
      "outputs": [
        {
          "internalType": "bool",
          "name": "",
          "type": "bool"
        }
      ],
      "stateMutability": "view",
      "type": "function"
    },
    {
      "inputs": [],
      "name": "brSinceCompound",
      "outputs": [
        {
          "internalType": "uint256",
          "name": "",
          "type": "uint256"
        }
      ],
      "stateMutability": "view",
      "type": "function"
    },
    {
      "inputs": [],
      "name": "crush",
      "outputs": [
        {
          "internalType": "contract CRUSHToken",
          "name": "",
          "type": "address"
        }
      ],
      "stateMutability": "view",
      "type": "function"
    },
    {
      "inputs": [],
      "name": "houseBankrollShare",
      "outputs": [
        {
          "internalType": "uint256",
          "name": "",
          "type": "uint256"
        }
      ],
      "stateMutability": "view",
      "type": "function"
    },
    {
      "inputs": [],
      "name": "lottery",
      "outputs": [
        {
          "internalType": "address",
          "name": "",
          "type": "address"
        }
      ],
      "stateMutability": "view",
      "type": "function"
    },
    {
      "inputs": [],
      "name": "lotteryShare",
      "outputs": [
        {
          "internalType": "uint256",
          "name": "",
          "type": "uint256"
        }
      ],
      "stateMutability": "view",
      "type": "function"
    },
    {
      "inputs": [],
      "name": "negativeBankroll",
      "outputs": [
        {
          "internalType": "uint256",
          "name": "",
          "type": "uint256"
        }
      ],
      "stateMutability": "view",
      "type": "function"
    },
    {
      "inputs": [],
      "name": "negativeBrSinceCompound",
      "outputs": [
        {
          "internalType": "uint256",
          "name": "",
          "type": "uint256"
        }
      ],
      "stateMutability": "view",
      "type": "function"
    },
    {
      "inputs": [],
      "name": "owner",
      "outputs": [
        {
          "internalType": "address",
          "name": "",
          "type": "address"
        }
      ],
      "stateMutability": "view",
      "type": "function"
    },
    {
      "inputs": [],
      "name": "poolDepleted",
      "outputs": [
        {
          "internalType": "bool",
          "name": "",
          "type": "bool"
        }
      ],
      "stateMutability": "view",
      "type": "function"
    },
    {
      "inputs": [],
      "name": "profitShare",
      "outputs": [
        {
          "internalType": "uint256",
          "name": "",
          "type": "uint256"
        }
      ],
      "stateMutability": "view",
      "type": "function"
    },
    {
      "inputs": [],
      "name": "profitThreshold",
      "outputs": [
        {
          "internalType": "uint256",
          "name": "",
          "type": "uint256"
        }
      ],
      "stateMutability": "view",
      "type": "function"
    },
    {
      "inputs": [],
      "name": "renounceOwnership",
      "outputs": [],
      "stateMutability": "nonpayable",
      "type": "function"
    },
    {
      "inputs": [],
      "name": "reserve",
      "outputs": [
        {
          "internalType": "address",
          "name": "",
          "type": "address"
        }
      ],
      "stateMutability": "view",
      "type": "function"
    },
    {
      "inputs": [],
      "name": "reserveShare",
      "outputs": [
        {
          "internalType": "uint256",
          "name": "",
          "type": "uint256"
        }
      ],
      "stateMutability": "view",
      "type": "function"
    },
    {
      "inputs": [],
      "name": "stakingPool",
      "outputs": [
        {
          "internalType": "contract BitcrushStaking",
          "name": "",
          "type": "address"
        }
      ],
      "stateMutability": "view",
      "type": "function"
    },
    {
      "inputs": [],
      "name": "totalBankroll",
      "outputs": [
        {
          "internalType": "uint256",
          "name": "",
          "type": "uint256"
        }
      ],
      "stateMutability": "view",
      "type": "function"
    },
    {
      "inputs": [],
      "name": "totalProfit",
      "outputs": [
        {
          "internalType": "uint256",
          "name": "",
          "type": "uint256"
        }
      ],
      "stateMutability": "view",
      "type": "function"
    },
    {
      "inputs": [],
      "name": "totalWinnings",
      "outputs": [
        {
          "internalType": "uint256",
          "name": "",
          "type": "uint256"
        }
      ],
      "stateMutability": "view",
      "type": "function"
    },
    {
      "inputs": [
        {
          "internalType": "address",
          "name": "newOwner",
          "type": "address"
        }
      ],
      "name": "transferOwnership",
      "outputs": [],
      "stateMutability": "nonpayable",
      "type": "function"
    },
    {
      "inputs": [
        {
          "internalType": "address",
          "name": "_address",
          "type": "address"
        }
      ],
      "name": "authorizeAddress",
      "outputs": [],
      "stateMutability": "nonpayable",
      "type": "function"
    },
    {
      "inputs": [
        {
          "internalType": "address",
          "name": "_address",
          "type": "address"
        }
      ],
      "name": "removeAuthorization",
      "outputs": [],
      "stateMutability": "nonpayable",
      "type": "function"
    },
    {
      "inputs": [
        {
          "internalType": "uint256",
          "name": "_amount",
          "type": "uint256"
        }
      ],
      "name": "addToBankroll",
      "outputs": [],
      "stateMutability": "nonpayable",
      "type": "function"
    },
    {
      "inputs": [
        {
          "internalType": "uint256",
          "name": "_amount",
          "type": "uint256"
        }
      ],
      "name": "addUserLoss",
      "outputs": [],
      "stateMutability": "nonpayable",
      "type": "function"
    },
    {
      "inputs": [
        {
          "internalType": "uint256",
          "name": "_amount",
          "type": "uint256"
        }
      ],
      "name": "recoverBankroll",
      "outputs": [],
      "stateMutability": "nonpayable",
      "type": "function"
    },
    {
      "inputs": [
        {
          "internalType": "uint256",
          "name": "_amount",
          "type": "uint256"
        },
        {
          "internalType": "address",
          "name": "_winner",
          "type": "address"
        }
      ],
      "name": "payOutUserWinning",
      "outputs": [],
      "stateMutability": "nonpayable",
      "type": "function"
    },
    {
      "inputs": [],
      "name": "transferProfit",
      "outputs": [
        {
          "internalType": "uint256",
          "name": "",
          "type": "uint256"
        }
      ],
      "stateMutability": "nonpayable",
      "type": "function"
    },
    {
      "inputs": [
        {
          "internalType": "uint256",
          "name": "_threshold",
          "type": "uint256"
        }
      ],
      "name": "setProfitThreshold",
      "outputs": [],
      "stateMutability": "nonpayable",
      "type": "function"
    },
    {
      "inputs": [
        {
          "internalType": "uint256",
          "name": "_houseBankrollShare",
          "type": "uint256"
        },
        {
          "internalType": "uint256",
          "name": "_profitShare",
          "type": "uint256"
        },
        {
          "internalType": "uint256",
          "name": "_lotteryShare",
          "type": "uint256"
        },
        {
          "internalType": "uint256",
          "name": "_reserveShare",
          "type": "uint256"
        }
      ],
      "name": "setShares",
      "outputs": [],
      "stateMutability": "nonpayable",
      "type": "function"
    },
    {
      "inputs": [],
      "name": "initiateAuthorizationTimelock",
      "outputs": [],
      "stateMutability": "nonpayable",
      "type": "function"
    },
    {
      "inputs": [
        {
          "internalType": "address",
          "name": "_reserve",
          "type": "address"
        }
      ],
      "name": "setReserveAddress",
      "outputs": [],
      "stateMutability": "nonpayable",
      "type": "function"
    },
    {
      "inputs": [],
      "name": "initiateReserveTimelock",
      "outputs": [],
      "stateMutability": "nonpayable",
      "type": "function"
    },
    {
      "inputs": [
        {
          "internalType": "address",
          "name": "_lottery",
          "type": "address"
        }
      ],
      "name": "setLotteryAddress",
      "outputs": [],
      "stateMutability": "nonpayable",
      "type": "function"
    },
    {
      "inputs": [],
      "name": "initiateLotteryTimelock",
      "outputs": [],
      "stateMutability": "nonpayable",
      "type": "function"
    }
  ],
  "bytecode": "0x60c060405234801561001057600080fd5b506040516125ef3803806125ef833981810160405261010081101561003457600080fd5b508051602082015160408301516060840151608085015160a086015160c087015160e090970151959694959394929391929091600061007a6001600160e01b0361012516565b600080546001600160a01b0319166001600160a01b0383169081178255604051929350917f8be0079c531659141344cd1fd0a4f28419497f9722a3daafe3b4186f6b6457e0908290a3506001600160601b0319606098891b81166080529690971b90951660a052600480546001600160a01b039586166001600160a01b0319918216179091556005805494909516931692909217909255600791909155600855600955600a55610129565b3390565b60805160601c60a05160601c61241b6101d46000398061051a5280610711528061076f528061088352806108b05280610c205280610edf528061106d528061126252806115f65280611654528061176852806117955250806107355280610809528061086052806109565280610d245280610d8a5280610dd75280610ebd528061111d5280611518528061161a52806116ee5280611745528061183b5280611d3a525061241b6000f3fe608060405234801561001057600080fd5b506004361061025c5760003560e01c80638da5cb5b11610145578063c4d7d6e0116100bd578063f03b6ffc1161008c578063f2fde38b11610071578063f2fde38b146104e2578063f846a88514610508578063f974821a146105105761025c565b8063f03b6ffc1461048d578063f19e207e146104bc5761025c565b8063c4d7d6e01461046d578063cd3293de14610475578063e3fd80dd1461047d578063e7cb3d67146104855761025c565b8063b359a9f911610114578063b72481f8116100f9578063b72481f814610440578063ba13a57214610448578063c2e50b16146104505761025c565b8063b359a9f914610430578063b4055d15146104385761025c565b80638da5cb5b146103f25780638e4a6142146103fa57806394f3f81d14610402578063aabaf249146104285761025c565b806341921f13116101d857806359c53fd4116101a7578063715018a61161018c578063715018a6146103da5780637d903ecc146103e257806386001519146103ea5761025c565b806359c53fd41461039157806361433d88146103ae5761025c565b806341921f131461035357806345c9c1d11461035b5780634a5db3b5146103635780634e584e11146103895761025c565b8063288211821161022f5780632feda8d4116102145780632feda8d4146103295780633410fe6e146103435780633e1f55e41461034b5761025c565b806328821182146102e65780632a332b2a146103035761025c565b80630c56ae3b1461026157806314673d3114610285578063151fac7b146102ad578063203c27a6146102ca575b600080fd5b610269610518565b604080516001600160a01b039092168252519081900360200190f35b6102ab6004803603602081101561029b57600080fd5b50356001600160a01b031661053c565b005b6102ab600480360360208110156102c357600080fd5b503561066f565b6102d261099e565b604080519115158252519081900360200190f35b6102ab600480360360208110156102fc57600080fd5b50356109a7565b6102ab6004803603602081101561031957600080fd5b50356001600160a01b0316610a5e565b610331610b91565b60408051918252519081900360200190f35b610331610b97565b610331610b9d565b6102ab610ba3565b610331610c13565b6102ab6004803603602081101561037957600080fd5b50356001600160a01b0316610f34565b61033161105c565b6102ab600480360360208110156103a757600080fd5b5035611062565b6102ab600480360360408110156103c457600080fd5b50803590602001356001600160a01b0316611180565b6102ab611339565b6103316113fa565b610331611400565b610269611406565b610331611415565b6102ab6004803603602081101561041857600080fd5b50356001600160a01b031661141b565b6102ab6114a6565b610269611516565b61033161153a565b610331611540565b610269611546565b6102ab6004803603602081101561046657600080fd5b5035611555565b6102ab611889565b6102696118f9565b610331611908565b61033161190e565b6102ab600480360360808110156104a357600080fd5b5080359060208101359060408101359060600135611914565b6102d2600480360360208110156104d257600080fd5b50356001600160a01b0316611a43565b6102ab600480360360208110156104f857600080fd5b50356001600160a01b0316611a58565b610331611acb565b610331611ad0565b7f000000000000000000000000000000000000000000000000000000000000000081565b610544611ad6565b6000546001600160a01b039081169116146105a6576040805162461bcd60e51b815260206004820181905260248201527f4f776e61626c653a2063616c6c6572206973206e6f7420746865206f776e6572604482015290519081900360640190fd5b6010546105bc906201518063ffffffff611ada16565b42101580156105e057506010546105dc9062015f9063ffffffff611ada16565b4211155b806105eb5750601054155b61063c576040805162461bcd60e51b815260206004820152601b60248201527f54696d656c6f636b20636f6e646974696f6e73206e6f74206d65740000000000604482015290519081900360640190fd5b6004805473ffffffffffffffffffffffffffffffffffffffff19166001600160a01b039290921691909117905542601055565b610677611ad6565b6000546001600160a01b039081169116146106d9576040805162461bcd60e51b815260206004820181905260248201527f4f776e61626c653a2063616c6c6572206973206e6f7420746865206f776e6572604482015290519081900360640190fd5b60025460ff1615156001141561094957600354811061085357600061070960035483611b3d90919063ffffffff16565b905061076d337f00000000000000000000000000000000000000000000000000000000000000006003547f00000000000000000000000000000000000000000000000000000000000000006001600160a01b0316611b7f909392919063ffffffff16565b7f00000000000000000000000000000000000000000000000000000000000000006001600160a01b031663e39faaa46003546040518263ffffffff1660e01b815260040180828152602001915050600060405180830381600087803b1580156107d557600080fd5b505af11580156107e9573d6000803e3d6000fd5b5050600060035550506002805460ff191690556108376001600160a01b037f00000000000000000000000000000000000000000000000000000000000000001633308463ffffffff611b7f16565b60015461084a908263ffffffff611ada16565b60015550610944565b6108ae6001600160a01b037f000000000000000000000000000000000000000000000000000000000000000016337f00000000000000000000000000000000000000000000000000000000000000008463ffffffff611b7f16565b7f00000000000000000000000000000000000000000000000000000000000000006001600160a01b031663e39faaa4826040518263ffffffff1660e01b815260040180828152602001915050600060405180830381600087803b15801561091457600080fd5b505af1158015610928573d6000803e3d6000fd5b5050600354610940925090508263ffffffff611b3d16565b6003555b61099b565b6109846001600160a01b037f00000000000000000000000000000000000000000000000000000000000000001633308463ffffffff611b7f16565b600154610997908263ffffffff611ada16565b6001555b50565b60025460ff1681565b6109af611ad6565b6000546001600160a01b03908116911614610a11576040805162461bcd60e51b815260206004820181905260248201527f4f776e61626c653a2063616c6c6572206973206e6f7420746865206f776e6572604482015290519081900360640190fd5b69152d02c7e14af68000008110610a595760405162461bcd60e51b81526004018080602001828103825260348152602001806123b26034913960400191505060405180910390fd5b600655565b610a66611ad6565b6000546001600160a01b03908116911614610ac8576040805162461bcd60e51b815260206004820181905260248201527f4f776e61626c653a2063616c6c6572206973206e6f7420746865206f776e6572604482015290519081900360640190fd5b601154610ade906201518063ffffffff611ada16565b4210158015610b025750601154610afe9062015f9063ffffffff611ada16565b4211155b80610b0d5750601154155b610b5e576040805162461bcd60e51b815260206004820152601b60248201527f54696d656c6f636b20636f6e646974696f6e73206e6f74206d65740000000000604482015290519081900360640190fd5b6005805473ffffffffffffffffffffffffffffffffffffffff19166001600160a01b039290921691909117905542601155565b60085481565b61271081565b60075481565b610bab611ad6565b6000546001600160a01b03908116911614610c0d576040805162461bcd60e51b815260206004820181905260248201527f4f776e61626c653a2063616c6c6572206973206e6f7420746865206f776e6572604482015290519081900360640190fd5b42601155565b6000336001600160a01b037f00000000000000000000000000000000000000000000000000000000000000001614610c92576040805162461bcd60e51b815260206004820152601b60248201527f43616c6c6572206d757374206265207374616b696e6720706f6f6c0000000000604482015290519081900360640190fd5b600654600b5410610f2d5760075460009015610ce9576000610cd3612710610cc7600754600b54611c0d90919063ffffffff16565b9063ffffffff611c6616565b9050610ce5828263ffffffff611ada16565b9150505b600a5415610d4f576000610d10612710610cc7600a54600b54611c0d90919063ffffffff16565b600454909150610d4d906001600160a01b037f00000000000000000000000000000000000000000000000000000000000000008116911683611ca8565b505b60095415610db5576000610d76612710610cc7600954600b54611c0d90919063ffffffff16565b600554909150610db3906001600160a01b037f00000000000000000000000000000000000000000000000000000000000000008116911683611ca8565b505b6000610dd3612710610cc76064600b54611c0d90919063ffffffff16565b90507f00000000000000000000000000000000000000000000000000000000000000006001600160a01b03166342966c68826040518263ffffffff1660e01b815260040180828152602001915050600060405180830381600087803b158015610e3b57600080fd5b505af1158015610e4f573d6000803e3d6000fd5b5050505060006008541115610e98576000610e7d612710610cc7600854600b54611c0d90919063ffffffff16565b600b54909150610e93908263ffffffff611b3d16565b600b55505b600b54600154610ead9163ffffffff611b3d16565b600155610f0a6001600160a01b037f0000000000000000000000000000000000000000000000000000000000000000167f00000000000000000000000000000000000000000000000000000000000000008463ffffffff611ca816565b600e54610f1d908363ffffffff611ada16565b600e55506000600b559050610f31565b5060005b90565b610f3c611ad6565b6000546001600160a01b03908116911614610f9e576040805162461bcd60e51b815260206004820181905260248201527f4f776e61626c653a2063616c6c6572206973206e6f7420746865206f776e6572604482015290519081900360640190fd5b600f54610fb4906201518063ffffffff611ada16565b4210158015610fd85750600f54610fd49062015f9063ffffffff611ada16565b4211155b80610fe35750600f54155b611034576040805162461bcd60e51b815260206004820152601b60248201527f54696d656c6f636b20636f6e646974696f6e73206e6f74206d65740000000000604482015290519081900360640190fd5b6001600160a01b03166000908152601260205260409020805460ff1916600117905542600f55565b60095481565b336001600160a01b037f000000000000000000000000000000000000000000000000000000000000000016146110df576040805162461bcd60e51b815260206004820152601b60248201527f43616c6c6572206d757374206265207374616b696e6720706f6f6c0000000000604482015290519081900360640190fd5b60035481106111675760006110ff60035483611b3d90919063ffffffff16565b60006003556002805460ff19169055905061114b6001600160a01b037f00000000000000000000000000000000000000000000000000000000000000001633308463ffffffff611b7f16565b60015461115e908263ffffffff611ada16565b6001555061099b565b60035461117a908263ffffffff611b3d16565b60035550565b3360009081526012602052604090205460ff1615156001146111e9576040805162461bcd60e51b815260206004820152601960248201527f43616c6c6572206d75737420626520617574686f72697a656400000000000000604482015290519081900360640190fd5b6001548211156112f557600061120a60015484611b3d90919063ffffffff16565b6002805460ff19166001179055604080517f8f44ebfc000000000000000000000000000000000000000000000000000000008152600481018390526001600160a01b03858116602483015233604483015291519293507f00000000000000000000000000000000000000000000000000000000000000009190911691638f44ebfc9160648082019260009290919082900301818387803b1580156112ad57600080fd5b505af11580156112c1573d6000803e3d6000fd5b50506003546112d9925090508263ffffffff611ada16565b6003556001546112ea908333611d2d565b506000600155611316565b600154611308908363ffffffff611b3d16565b600155611316828233611d2d565b61131f82611df0565b600d54611332908363ffffffff611ada16565b600d555050565b611341611ad6565b6000546001600160a01b039081169116146113a3576040805162461bcd60e51b815260206004820181905260248201527f4f776e61626c653a2063616c6c6572206973206e6f7420746865206f776e6572604482015290519081900360640190fd5b600080546040516001600160a01b03909116907f8be0079c531659141344cd1fd0a4f28419497f9722a3daafe3b4186f6b6457e0908390a36000805473ffffffffffffffffffffffffffffffffffffffff19169055565b600b5481565b600e5481565b6000546001600160a01b031690565b600c5481565b611423611ad6565b6000546001600160a01b03908116911614611485576040805162461bcd60e51b815260206004820181905260248201527f4f776e61626c653a2063616c6c6572206973206e6f7420746865206f776e6572604482015290519081900360640190fd5b6001600160a01b03166000908152601260205260409020805460ff19169055565b6114ae611ad6565b6000546001600160a01b03908116911614611510576040805162461bcd60e51b815260206004820181905260248201527f4f776e61626c653a2063616c6c6572206973206e6f7420746865206f776e6572604482015290519081900360640190fd5b42601055565b7f000000000000000000000000000000000000000000000000000000000000000081565b60015481565b600d5481565b6005546001600160a01b031681565b3360009081526012602052604090205460ff1615156001146115be576040805162461bcd60e51b815260206004820152601960248201527f43616c6c6572206d75737420626520617574686f72697a656400000000000000604482015290519081900360640190fd5b60025460ff1615156001141561182e5760035481106117385760006115ee60035483611b3d90919063ffffffff16565b9050611652337f00000000000000000000000000000000000000000000000000000000000000006003547f00000000000000000000000000000000000000000000000000000000000000006001600160a01b0316611b7f909392919063ffffffff16565b7f00000000000000000000000000000000000000000000000000000000000000006001600160a01b031663e39faaa46003546040518263ffffffff1660e01b815260040180828152602001915050600060405180830381600087803b1580156116ba57600080fd5b505af11580156116ce573d6000803e3d6000fd5b5050600060035550506002805460ff1916905561171c6001600160a01b037f00000000000000000000000000000000000000000000000000000000000000001633308463ffffffff611b7f16565b60015461172f908263ffffffff611ada16565b60015550611829565b6117936001600160a01b037f000000000000000000000000000000000000000000000000000000000000000016337f00000000000000000000000000000000000000000000000000000000000000008463ffffffff611b7f16565b7f00000000000000000000000000000000000000000000000000000000000000006001600160a01b031663e39faaa4826040518263ffffffff1660e01b815260040180828152602001915050600060405180830381600087803b1580156117f957600080fd5b505af115801561180d573d6000803e3d6000fd5b5050600354611825925090508263ffffffff611b3d16565b6003555b611880565b6118696001600160a01b037f00000000000000000000000000000000000000000000000000000000000000001633308463ffffffff611b7f16565b60015461187c908263ffffffff611ada16565b6001555b61099b81611e71565b611891611ad6565b6000546001600160a01b039081169116146118f3576040805162461bcd60e51b815260206004820181905260248201527f4f776e61626c653a2063616c6c6572206973206e6f7420746865206f776e6572604482015290519081900360640190fd5b42600f55565b6004546001600160a01b031681565b60035481565b600a5481565b61191c611ad6565b6000546001600160a01b0390811691161461197e576040805162461bcd60e51b815260206004820181905260248201527f4f776e61626c653a2063616c6c6572206973206e6f7420746865206f776e6572604482015290519081900360640190fd5b6127106119a6606461199a848187818b8b63ffffffff611ada16565b9063ffffffff611ada16565b146119e25760405162461bcd60e51b815260040180806020018281038252602781526020018061236a6027913960400191505060405180910390fd5b600884905560078390556009829055600a81905560408051858152602081018590528082018490526060810183905290517f1ab182163a0683cd3182c000705483ef0ccdc375a845ab7b68678f89d90de4d79181900360800190a150505050565b60126020526000908152604090205460ff1681565b611a60611ad6565b6000546001600160a01b03908116911614611ac2576040805162461bcd60e51b815260206004820181905260248201527f4f776e61626c653a2063616c6c6572206973206e6f7420746865206f776e6572604482015290519081900360640190fd5b61099b81611ee4565b606481565b60065481565b3390565b600082820183811015611b34576040805162461bcd60e51b815260206004820152601b60248201527f536166654d6174683a206164646974696f6e206f766572666c6f770000000000604482015290519081900360640190fd5b90505b92915050565b6000611b3483836040518060400160405280601e81526020017f536166654d6174683a207375627472616374696f6e206f766572666c6f770000815250611f91565b604080516001600160a01b0380861660248301528416604482015260648082018490528251808303909101815260849091019091526020810180517bffffffffffffffffffffffffffffffffffffffffffffffffffffffff167f23b872dd00000000000000000000000000000000000000000000000000000000179052611c07908590612028565b50505050565b600082611c1c57506000611b37565b82820282848281611c2957fe5b0414611b345760405162461bcd60e51b81526004018080602001828103825260218152602001806123916021913960400191505060405180910390fd5b6000611b3483836040518060400160405280601a81526020017f536166654d6174683a206469766973696f6e206279207a65726f0000000000008152506120d9565b604080516001600160a01b038416602482015260448082018490528251808303909101815260649091019091526020810180517bffffffffffffffffffffffffffffffffffffffffffffffffffffffff167fa9059cbb00000000000000000000000000000000000000000000000000000000179052611d28908490612028565b505050565b611d676001600160a01b037f000000000000000000000000000000000000000000000000000000000000000016828563ffffffff611ca816565b604080517ff62cf8d0000000000000000000000000000000000000000000000000000000008152600481018590526001600160a01b0384811660248301529151839283169163f62cf8d091604480830192600092919082900301818387803b158015611dd257600080fd5b505af1158015611de6573d6000803e3d6000fd5b5050505050505050565b600c5415611e1357600c54611e0b908263ffffffff611ada16565b600c5561099b565b600b54811115611e58576000611e34600b5483611b3d90919063ffffffff16565b6000600b55600c54909150611e4f908263ffffffff611ada16565b600c555061099b565b600b54611e6b908263ffffffff611b3d16565b600b5550565b600c5415611ed157600c54811115611ebe576000611e9a600c5483611b3d90919063ffffffff16565b6000600c55600b54909150611eb5908263ffffffff611ada16565b600b5550610944565b600c54611e0b908263ffffffff611b3d16565b600b54611e6b908263ffffffff611ada16565b6001600160a01b038116611f295760405162461bcd60e51b81526004018080602001828103825260268152602001806123446026913960400191505060405180910390fd5b600080546040516001600160a01b03808516939216917f8be0079c531659141344cd1fd0a4f28419497f9722a3daafe3b4186f6b6457e091a36000805473ffffffffffffffffffffffffffffffffffffffff19166001600160a01b0392909216919091179055565b600081848411156120205760405162461bcd60e51b81526004018080602001828103825283818151815260200191508051906020019080838360005b83811015611fe5578181015183820152602001611fcd565b50505050905090810190601f1680156120125780820380516001836020036101000a031916815260200191505b509250505060405180910390fd5b505050900390565b606061207d826040518060400160405280602081526020017f5361666542455032303a206c6f772d6c6576656c2063616c6c206661696c6564815250856001600160a01b031661213e9092919063ffffffff16565b805190915015611d285780806020019051602081101561209c57600080fd5b5051611d285760405162461bcd60e51b815260040180806020018281038252602a81526020018061231a602a913960400191505060405180910390fd5b600081836121285760405162461bcd60e51b8152602060048201818152835160248401528351909283926044909101919085019080838360008315611fe5578181015183820152602001611fcd565b50600083858161213457fe5b0495945050505050565b606061214d8484600085612155565b949350505050565b6060612160856122e0565b6121b1576040805162461bcd60e51b815260206004820152601d60248201527f416464726573733a2063616c6c20746f206e6f6e2d636f6e7472616374000000604482015290519081900360640190fd5b60006060866001600160a01b031685876040518082805190602001908083835b6020831061220e57805182527fffffffffffffffffffffffffffffffffffffffffffffffffffffffffffffffe090920191602091820191016121d1565b6001836020036101000a03801982511681845116808217855250505050505090500191505060006040518083038185875af1925050503d8060008114612270576040519150601f19603f3d011682016040523d82523d6000602084013e612275565b606091505b5091509150811561228957915061214d9050565b8051156122995780518082602001fd5b60405162461bcd60e51b8152602060048201818152865160248401528651879391928392604401919085019080838360008315611fe5578181015183820152602001611fcd565b6000813f7fc5d2460186f7233c927e7db2dcc703c0e500b653ca82273b7bfad8045d85a47081811480159061214d57505015159291505056fe5361666542455032303a204245503230206f7065726174696f6e20646964206e6f7420737563636565644f776e61626c653a206e6577206f776e657220697320746865207a65726f206164647265737353756d206f6620616c6c207368617265732073686f756c642061646420757020746f2031303025536166654d6174683a206d756c7469706c69636174696f6e206f766572666c6f774d61782070726f666974207468726573686f6c642063616e742062652067726561746572207468616e203130306b204372757368a2646970667358221220759e7824488ea1b6281cf92e7b702cb47521453c2d3e1620e75d2dd74e52c93464736f6c63430006050033",
  "immutableReferences": {
    "107": [
      {
        "length": 32,
        "start": 1845
      },
      {
        "length": 32,
        "start": 2057
      },
      {
        "length": 32,
        "start": 2144
      },
      {
        "length": 32,
        "start": 2390
      },
      {
        "length": 32,
        "start": 3364
      },
      {
        "length": 32,
        "start": 3466
      },
      {
        "length": 32,
        "start": 3543
      },
      {
        "length": 32,
        "start": 3773
      },
      {
        "length": 32,
        "start": 4381
      },
      {
        "length": 32,
        "start": 5400
      },
      {
        "length": 32,
        "start": 5658
      },
      {
        "length": 32,
        "start": 5870
      },
      {
        "length": 32,
        "start": 5957
      },
      {
        "length": 32,
        "start": 6203
      },
      {
        "length": 32,
        "start": 7482
      }
    ],
    "109": [
      {
        "length": 32,
        "start": 1306
      },
      {
        "length": 32,
        "start": 1809
      },
      {
        "length": 32,
        "start": 1903
      },
      {
        "length": 32,
        "start": 2179
      },
      {
        "length": 32,
        "start": 2224
      },
      {
        "length": 32,
        "start": 3104
      },
      {
        "length": 32,
        "start": 3807
      },
      {
        "length": 32,
        "start": 4205
      },
      {
        "length": 32,
        "start": 4706
      },
      {
        "length": 32,
        "start": 5622
      },
      {
        "length": 32,
        "start": 5716
      },
      {
        "length": 32,
        "start": 5992
      },
      {
        "length": 32,
        "start": 6037
      }
    ]
  },
  "source": "//SPDX-License-Identifier: MIT\npragma solidity >=0.6.5;\nimport \"@pancakeswap/pancake-swap-lib/contracts/access/Ownable.sol\";\nimport \"./CrushCoin.sol\";\nimport \"@pancakeswap/pancake-swap-lib/contracts/math/SafeMath.sol\";\nimport \"@pancakeswap/pancake-swap-lib/contracts/token/BEP20/SafeBEP20.sol\";\nimport \"./staking.sol\";\nimport \"./HouseBankroll.sol\";\nimport \"./LiveWallet.sol\";\ncontract BitcrushBankroll is Ownable {\n    \n    using SafeMath for uint256;\n    using SafeBEP20 for CRUSHToken;\n    uint256 public totalBankroll;\n    bool public poolDepleted;\n    uint256 public negativeBankroll;\n    //address of the crush token\n    CRUSHToken public immutable crush;\n    BitcrushStaking public immutable stakingPool;\n    \n    address public reserve;\n    address public lottery;\n    \n    uint256 public constant DIVISOR = 10000;\n    uint256 public constant BURN_RATE = 100;\n    uint256 public profitThreshold ;\n    \n    //consistent 1% burn\n    uint256 public profitShare;\n    uint256 public houseBankrollShare;\n    uint256 public lotteryShare;\n    uint256 public reserveShare;\n    \n    //profit tracking\n    uint256 public brSinceCompound;\n    uint256 public negativeBrSinceCompound;\n\n    //tracking historical winnings and profits\n    uint256 public totalWinnings;\n    uint256 public totalProfit;\n    \n    //time lock variables\n    uint256 authorizationTimeLock;\n    uint256 reserveAddressTimeLock;\n    uint256 lotteryAddressTimeLock;\n\n\n    //authorized addresses\n    mapping (address => bool) public authorizedAddresses;\n    event SharesUpdated (uint256  _houseBankrollShare, uint256  _profitShare, uint256  _lotteryShare,  uint256  _reserveShare);\n    constructor(\n        CRUSHToken _crush,\n        BitcrushStaking _stakingPool,\n        address _reserve,\n        address _lottery,\n        uint256 _profitShare,\n        uint256 _houseBankrollShare,\n        uint256 _lotteryShare,\n        uint256 _reserveShare\n    ) public {\n        crush = _crush;\n        stakingPool = _stakingPool;\n        reserve = _reserve;\n        lottery = _lottery;\n        profitShare = _profitShare;\n        houseBankrollShare = _houseBankrollShare;\n        lotteryShare = _lotteryShare;\n        reserveShare = _reserveShare;\n\n    }\n\n    \n    /// authorize address to register wins and losses\n    /// @param _address the address to be authorized\n    /// @dev updates the authorizedAddresses mapping to true for given address\n    function authorizeAddress (address _address) public onlyOwner {\n        require((block.timestamp >= authorizationTimeLock.add(86400) && block.timestamp <= authorizationTimeLock.add(90000)) || authorizationTimeLock == 0,\"Timelock conditions not met\");\n        authorizedAddresses[_address] = true;\n        authorizationTimeLock = block.timestamp;\n    }\n\n    /// remove authorization of an address from register wins and losses\n    /// @param _address the address to be removed\n    /// @dev updates the authorizedAddresses mapping by deleting entry for given address\n    function removeAuthorization (address _address) public onlyOwner {\n        delete authorizedAddresses[_address];\n    }\n    \n    /// Add funds to the bankroll\n    /// @param _amount the amount to add\n    /// @dev adds funds to the bankroll\n    function addToBankroll(uint256 _amount) public onlyOwner {\n\n        \n        if (poolDepleted == true) {\n            if (_amount >= negativeBankroll) {\n                uint256 remainder = _amount.sub(negativeBankroll);\n                crush.safeTransferFrom(\n                    msg.sender,\n                    address(stakingPool),\n                    negativeBankroll\n                );\n                stakingPool.unfreezeStaking(negativeBankroll);\n                negativeBankroll = 0;\n                poolDepleted = false;\n                crush.safeTransferFrom(msg.sender, address(this), remainder);\n                totalBankroll = totalBankroll.add(remainder);\n                \n            } else {\n                crush.safeTransferFrom(msg.sender, address(stakingPool), _amount);\n                stakingPool.unfreezeStaking(_amount);\n                negativeBankroll = negativeBankroll.sub(_amount);\n            }\n        } else {\n            crush.safeTransferFrom(msg.sender, address(this), _amount);\n            totalBankroll = totalBankroll.add(_amount);\n            \n        }\n\n\n\n\n        \n    }\n\n    /// Add users loss to the bankroll\n    /// @param _amount the amount to add\n    /// @dev adds funds to the bankroll if bankroll is in positive, otherwise its transfered to the staking pool to recover frozen funds\n    function addUserLoss(uint256 _amount) public {\n        require(\n            authorizedAddresses[msg.sender] == true,\n            \"Caller must be authorized\"\n        );\n        //make game specific\n        //check if bankroll is in negative\n        //uint is unsigned, keep a bool to track\n        //if negative send to staking to replenish\n        //otherwise add to bankroll and check for profit\n        if (poolDepleted == true) {\n            if (_amount >= negativeBankroll) {\n                uint256 remainder = _amount.sub(negativeBankroll);\n                crush.safeTransferFrom(\n                    msg.sender,\n                    address(stakingPool),\n                    negativeBankroll\n                );\n                stakingPool.unfreezeStaking(negativeBankroll);\n                negativeBankroll = 0;\n                poolDepleted = false;\n                crush.safeTransferFrom(msg.sender, address(this), remainder);\n                totalBankroll = totalBankroll.add(remainder);\n                \n            } else {\n                crush.safeTransferFrom(msg.sender, address(stakingPool), _amount);\n                stakingPool.unfreezeStaking(_amount);\n                negativeBankroll = negativeBankroll.sub(_amount);\n            }\n        } else {\n            crush.safeTransferFrom(msg.sender, address(this), _amount);\n            totalBankroll = totalBankroll.add(_amount);\n            \n        }\n        addToBrSinceCompound(_amount);\n    }\n\n\n    function recoverBankroll (uint256 _amount) public {\n        require(\n            msg.sender == address(stakingPool),\n            \"Caller must be staking pool\"\n        );\n        if (_amount >= negativeBankroll) {\n                uint256 remainder = _amount.sub(negativeBankroll);\n                negativeBankroll = 0;\n                poolDepleted = false;\n                crush.safeTransferFrom(msg.sender, address(this), remainder);\n                totalBankroll = totalBankroll.add(remainder);\n                \n            } else {\n                \n                negativeBankroll = negativeBankroll.sub(_amount);\n            }\n    }\n\n\n    /// Deduct users win from the bankroll\n    /// @param _amount the amount to deduct\n    /// @dev deducts funds from the bankroll if bankroll is in positive, otherwise theyre pulled from staking pool and bankroll marked as negative\n    function payOutUserWinning(\n        uint256 _amount,\n        address _winner\n    ) public {\n        require(\n            authorizedAddresses[msg.sender] == true,\n            \"Caller must be authorized\"\n        );\n        \n        \n        //check if bankroll has funds available\n        //if not dip into staking pool for any remainder\n        // update bankroll accordingly\n        if (_amount > totalBankroll) {\n            uint256 remainder = _amount.sub(totalBankroll);\n            poolDepleted = true;\n            stakingPool.freezeStaking(remainder, _winner, msg.sender);\n            negativeBankroll = negativeBankroll.add(remainder);\n            transferWinnings(totalBankroll, _winner, msg.sender);\n\n            totalBankroll = 0;\n        } else {\n            totalBankroll = totalBankroll.sub(_amount);\n            transferWinnings(_amount, _winner, msg.sender);\n        }\n        removeFromBrSinceCompound(_amount);\n        totalWinnings = totalWinnings.add(_amount);\n    }\n\n    /// transfer winnings from bankroll contract to live wallet\n    /// @param _amount the amount to tranfer\n    /// @param _winner the winners address\n    /// @dev transfers funds from the bankroll to the live wallet as users winnings\n    function transferWinnings(\n        uint256 _amount,\n        address _winner,\n        address _lwAddress\n    ) internal {\n        crush.safeTransfer(_lwAddress, _amount);\n        BitcrushLiveWallet currentLw = BitcrushLiveWallet( _lwAddress);\n        currentLw.addToUserWinnings(_amount, _winner);\n    }\n\n    /// track funds added since last compound and profit transfer\n    /// @param _amount the amount to add\n    /// @dev add funds to the variable brSinceCompound\n    function addToBrSinceCompound (uint256 _amount) internal{\n        if(negativeBrSinceCompound > 0){\n            if(_amount > negativeBrSinceCompound){\n                uint256 difference = _amount.sub(negativeBrSinceCompound);\n                negativeBrSinceCompound = 0;\n                brSinceCompound = brSinceCompound.add(difference);\n            }else {\n                negativeBrSinceCompound = negativeBrSinceCompound.sub(_amount);\n            }\n        }else {\n            brSinceCompound = brSinceCompound.add(_amount);\n        }\n    }\n\n    /// track funds remvoed since last compound and profit transfer\n    /// @param _amount the amount to remove\n    /// @dev deduct funds to the variable brSinceCompound\n    function removeFromBrSinceCompound (uint256 _amount) internal{\n        if(negativeBrSinceCompound > 0 ){\n            negativeBrSinceCompound = negativeBrSinceCompound.add(_amount);\n            \n        }else {\n            if(_amount > brSinceCompound){\n                uint256 difference = _amount.sub(brSinceCompound);\n                brSinceCompound = 0;\n                negativeBrSinceCompound = negativeBrSinceCompound.add(difference);\n            }else {\n                brSinceCompound = brSinceCompound.sub(_amount);\n            }\n        }\n    }\n\n    /// transfer profits to staking pool to be ditributed to stakers.\n    /// @dev transfer profits since last compound to the staking pool while taking out necessary fees.\n    function transferProfit() public returns (uint256) {\n        require(\n            msg.sender == address(stakingPool),\n            \"Caller must be staking pool\"\n        );\n        if (brSinceCompound >= profitThreshold) {\n\n            //-----\n            uint256 profit = 0;\n            if(profitShare > 0 ){\n                uint256 stakingBankrollProfit = brSinceCompound.mul(profitShare).div(DIVISOR);\n                profit = profit.add(stakingBankrollProfit);\n            }\n            if(reserveShare > 0 ){\n                uint256 reserveCrush = brSinceCompound.mul(reserveShare).div(DIVISOR);\n                crush.safeTransfer(reserve, reserveCrush);\n            }\n            if(lotteryShare > 0){\n                uint256 lotteryCrush = brSinceCompound.mul(lotteryShare).div(DIVISOR);\n                crush.safeTransfer(lottery, lotteryCrush);\n            }\n            \n            uint256 burn = brSinceCompound.mul(BURN_RATE).div(DIVISOR);\n            crush.burn(burn); \n\n            if(houseBankrollShare > 0){\n                uint256 bankrollShare = brSinceCompound.mul(houseBankrollShare).div(DIVISOR);\n                brSinceCompound = brSinceCompound.sub(bankrollShare);\n            }\n\n            totalBankroll = totalBankroll.sub(brSinceCompound);\n            //-----\n            crush.safeTransfer(address(stakingPool), profit);\n            totalProfit= totalProfit.add(profit);\n            brSinceCompound = 0;\n            return profit;\n        } else {\n            return 0;\n        }\n    }\n\n    /// Store `_threshold`.\n    /// @param _threshold the new value to store\n    /// @dev stores the _threshold address in the state variable `profitThreshold`\n    function setProfitThreshold(uint256 _threshold) public onlyOwner {\n        require(_threshold < 100000000000000000000000, \"Max profit threshold cant be greater than 100k Crush\");\n        profitThreshold = _threshold;\n    }\n\n    /// updates all share percentage values\n    /// @param _houseBankrollShare the new value to store\n    /// @param _profitShare the new value to store\n    /// @param _lotteryShare the new value to store\n    /// @param _reserveShare the new value to store\n    /// @dev stores the _houseBankrollShare address in the state variable `houseBankrollShare`\n    function setShares (uint256 _houseBankrollShare, uint256 _profitShare, uint256 _lotteryShare,  uint256 _reserveShare) public onlyOwner {\n        require(\n            _houseBankrollShare\n            .add(_profitShare)\n            .add(_lotteryShare)\n            .add(_reserveShare)\n            .add(BURN_RATE) == DIVISOR,\n            \"Sum of all shares should add up to 100%\"\n            );\n        houseBankrollShare = _houseBankrollShare;   \n        profitShare = _profitShare;\n        lotteryShare = _lotteryShare;\n        reserveShare = _reserveShare;\n        emit SharesUpdated(_houseBankrollShare, _profitShare, _lotteryShare,  _reserveShare);\n    }\n\n    /// initates authorization timelock for adding live wallet address\n    /// @dev sets the timelock variable to current time. after 24 hours a window of 1 hour will be open for using the associated setter\n    function initiateAuthorizationTimelock () public onlyOwner {\n        authorizationTimeLock = block.timestamp;\n    }\n\n    ///store new address in reserve address\n    /// @param _reserve the new address to store\n    /// @dev changes the address which recieves reserve fees\n    function setReserveAddress (address _reserve ) public onlyOwner {\n        require((block.timestamp >= reserveAddressTimeLock.add(86400) && block.timestamp <= reserveAddressTimeLock.add(90000)) || reserveAddressTimeLock == 0,\"Timelock conditions not met\");\n        reserve = _reserve;\n        reserveAddressTimeLock = block.timestamp;\n    }\n    /// initates authorization timelock for updating reserve address\n    /// @dev sets the timelock variable to current time. after 24 hours a window of 1 hour will be open for using the associated setter\n    function initiateReserveTimelock () public onlyOwner {\n        reserveAddressTimeLock = block.timestamp;\n    }\n\n    ///store new address in lottery address\n    /// @param _lottery the new address to store\n    /// @dev changes the address which recieves lottery fees\n    function setLotteryAddress (address _lottery) public onlyOwner {\n        require((block.timestamp >= lotteryAddressTimeLock.add(86400) && block.timestamp <= lotteryAddressTimeLock.add(90000)) || lotteryAddressTimeLock == 0,\"Timelock conditions not met\");\n        lottery = _lottery;\n        lotteryAddressTimeLock = block.timestamp;\n    }\n\n    /// initates authorization timelock for updating lottery address\n    /// @dev sets the timelock variable to current time. after 24 hours a window of 1 hour will be open for using the associated setter\n    function initiateLotteryTimelock () public onlyOwner {\n        lotteryAddressTimeLock = block.timestamp;\n    }\n   \n\n}\n",
  "sourcePath": "/home/jman/crypto/bitcrush/contracts/crush_contracts/contracts/HouseBankroll.sol",
  "compiler": {
    "name": "solc",
    "version": "0.6.5+commit.f956cc89.Emscripten.clang"
  },
  "schemaVersion": "3.4.0",
  "updatedAt": "2021-11-07T15:50:41.036Z",
  "devdoc": {
    "methods": {
      "addToBankroll(uint256)": {
        "details": "adds funds to the bankroll",
        "params": {
          "_amount": "the amount to add"
        }
      },
      "addUserLoss(uint256)": {
        "details": "adds funds to the bankroll if bankroll is in positive, otherwise its transfered to the staking pool to recover frozen funds",
        "params": {
          "_amount": "the amount to add"
        }
      },
      "authorizeAddress(address)": {
        "details": "updates the authorizedAddresses mapping to true for given address",
        "params": {
          "_address": "the address to be authorized"
        }
      },
      "initiateAuthorizationTimelock()": {
        "details": "sets the timelock variable to current time. after 24 hours a window of 1 hour will be open for using the associated setter"
      },
      "initiateLotteryTimelock()": {
        "details": "sets the timelock variable to current time. after 24 hours a window of 1 hour will be open for using the associated setter"
      },
      "initiateReserveTimelock()": {
        "details": "sets the timelock variable to current time. after 24 hours a window of 1 hour will be open for using the associated setter"
      },
      "owner()": {
        "details": "Returns the address of the current owner."
      },
      "payOutUserWinning(uint256,address)": {
        "details": "deducts funds from the bankroll if bankroll is in positive, otherwise theyre pulled from staking pool and bankroll marked as negative",
        "params": {
          "_amount": "the amount to deduct"
        }
      },
      "removeAuthorization(address)": {
        "details": "updates the authorizedAddresses mapping by deleting entry for given address",
        "params": {
          "_address": "the address to be removed"
        }
      },
      "renounceOwnership()": {
        "details": "Leaves the contract without owner. It will not be possible to call `onlyOwner` functions anymore. Can only be called by the current owner.     * NOTE: Renouncing ownership will leave the contract without an owner, thereby removing any functionality that is only available to the owner."
      },
      "setLotteryAddress(address)": {
        "details": "changes the address which recieves lottery fees",
        "params": {
          "_lottery": "the new address to store"
        }
      },
      "setProfitThreshold(uint256)": {
        "details": "stores the _threshold address in the state variable `profitThreshold`",
        "params": {
          "_threshold": "the new value to store"
        }
      },
      "setReserveAddress(address)": {
        "details": "changes the address which recieves reserve fees",
        "params": {
          "_reserve": "the new address to store"
        }
      },
      "setShares(uint256,uint256,uint256,uint256)": {
        "details": "stores the _houseBankrollShare address in the state variable `houseBankrollShare`",
        "params": {
          "_houseBankrollShare": "the new value to store",
          "_lotteryShare": "the new value to store",
          "_profitShare": "the new value to store",
          "_reserveShare": "the new value to store"
        }
      },
      "transferOwnership(address)": {
        "details": "Transfers ownership of the contract to a new account (`newOwner`). Can only be called by the current owner."
      },
      "transferProfit()": {
        "details": "transfer profits since last compound to the staking pool while taking out necessary fees."
      }
    }
  },
  "userdoc": {
    "methods": {
      "addToBankroll(uint256)": {
        "notice": "Add funds to the bankroll"
      },
      "addUserLoss(uint256)": {
        "notice": "Add users loss to the bankroll"
      },
      "authorizeAddress(address)": {
        "notice": "authorize address to register wins and losses"
      },
      "initiateAuthorizationTimelock()": {
        "notice": "initates authorization timelock for adding live wallet address"
      },
      "initiateLotteryTimelock()": {
        "notice": "initates authorization timelock for updating lottery address"
      },
      "initiateReserveTimelock()": {
        "notice": "initates authorization timelock for updating reserve address"
      },
      "payOutUserWinning(uint256,address)": {
        "notice": "Deduct users win from the bankroll"
      },
      "removeAuthorization(address)": {
        "notice": "remove authorization of an address from register wins and losses"
      },
      "setLotteryAddress(address)": {
        "notice": "store new address in lottery address"
      },
      "setProfitThreshold(uint256)": {
        "notice": "Store `_threshold`."
      },
      "setReserveAddress(address)": {
        "notice": "store new address in reserve address"
      },
      "setShares(uint256,uint256,uint256,uint256)": {
        "notice": "updates all share percentage values"
      },
      "transferProfit()": {
        "notice": "transfer profits to staking pool to be ditributed to stakers."
      }
    }
  }
}