{
  "contractName": "BitcrushBankroll",
  "abi": [
    {
      "inputs": [
        {
          "internalType": "contract CRUSHToken",
          "name": "_crush",
          "type": "address"
        },
        {
          "internalType": "contract BitcrushStaking",
          "name": "_stakingPool",
          "type": "address"
        },
        {
          "internalType": "address",
          "name": "_reserve",
          "type": "address"
        },
        {
          "internalType": "address",
          "name": "_lottery",
          "type": "address"
        },
        {
          "internalType": "uint256",
          "name": "_profitShare",
          "type": "uint256"
        },
        {
          "internalType": "uint256",
          "name": "_houseBankrollShare",
          "type": "uint256"
        },
        {
          "internalType": "uint256",
          "name": "_lotteryShare",
          "type": "uint256"
        },
        {
          "internalType": "uint256",
          "name": "_reserveShare",
          "type": "uint256"
        }
      ],
      "stateMutability": "nonpayable",
      "type": "constructor"
    },
    {
      "anonymous": false,
      "inputs": [
        {
          "indexed": true,
          "internalType": "address",
          "name": "previousOwner",
          "type": "address"
        },
        {
          "indexed": true,
          "internalType": "address",
          "name": "newOwner",
          "type": "address"
        }
      ],
      "name": "OwnershipTransferred",
      "type": "event"
    },
    {
      "anonymous": false,
      "inputs": [
        {
          "indexed": false,
          "internalType": "uint256",
          "name": "_houseBankrollShare",
          "type": "uint256"
        },
        {
          "indexed": false,
          "internalType": "uint256",
          "name": "_profitShare",
          "type": "uint256"
        },
        {
          "indexed": false,
          "internalType": "uint256",
          "name": "_lotteryShare",
          "type": "uint256"
        },
        {
          "indexed": false,
          "internalType": "uint256",
          "name": "_reserveShare",
          "type": "uint256"
        }
      ],
      "name": "SharesUpdated",
      "type": "event"
    },
    {
      "inputs": [],
      "name": "BURN_RATE",
      "outputs": [
        {
          "internalType": "uint256",
          "name": "",
          "type": "uint256"
        }
      ],
      "stateMutability": "view",
      "type": "function"
    },
    {
      "inputs": [],
      "name": "DIVISOR",
      "outputs": [
        {
          "internalType": "uint256",
          "name": "",
          "type": "uint256"
        }
      ],
      "stateMutability": "view",
      "type": "function"
    },
    {
      "inputs": [
        {
          "internalType": "address",
          "name": "",
          "type": "address"
        }
      ],
      "name": "authorizedAddresses",
      "outputs": [
        {
          "internalType": "bool",
          "name": "",
          "type": "bool"
        }
      ],
      "stateMutability": "view",
      "type": "function"
    },
    {
      "inputs": [],
      "name": "brSinceCompound",
      "outputs": [
        {
          "internalType": "uint256",
          "name": "",
          "type": "uint256"
        }
      ],
      "stateMutability": "view",
      "type": "function"
    },
    {
      "inputs": [],
      "name": "crush",
      "outputs": [
        {
          "internalType": "contract CRUSHToken",
          "name": "",
          "type": "address"
        }
      ],
      "stateMutability": "view",
      "type": "function"
    },
    {
      "inputs": [],
      "name": "houseBankrollShare",
      "outputs": [
        {
          "internalType": "uint256",
          "name": "",
          "type": "uint256"
        }
      ],
      "stateMutability": "view",
      "type": "function"
    },
    {
      "inputs": [],
      "name": "liveWallet",
      "outputs": [
        {
          "internalType": "contract BitcrushLiveWallet",
          "name": "",
          "type": "address"
        }
      ],
      "stateMutability": "view",
      "type": "function"
    },
    {
      "inputs": [],
      "name": "lottery",
      "outputs": [
        {
          "internalType": "address",
          "name": "",
          "type": "address"
        }
      ],
      "stateMutability": "view",
      "type": "function"
    },
    {
      "inputs": [],
      "name": "lotteryShare",
      "outputs": [
        {
          "internalType": "uint256",
          "name": "",
          "type": "uint256"
        }
      ],
      "stateMutability": "view",
      "type": "function"
    },
    {
      "inputs": [],
      "name": "negativeBankroll",
      "outputs": [
        {
          "internalType": "uint256",
          "name": "",
          "type": "uint256"
        }
      ],
      "stateMutability": "view",
      "type": "function"
    },
    {
      "inputs": [],
      "name": "negativeBrSinceCompound",
      "outputs": [
        {
          "internalType": "uint256",
          "name": "",
          "type": "uint256"
        }
      ],
      "stateMutability": "view",
      "type": "function"
    },
    {
      "inputs": [],
      "name": "owner",
      "outputs": [
        {
          "internalType": "address",
          "name": "",
          "type": "address"
        }
      ],
      "stateMutability": "view",
      "type": "function"
    },
    {
      "inputs": [],
      "name": "poolDepleted",
      "outputs": [
        {
          "internalType": "bool",
          "name": "",
          "type": "bool"
        }
      ],
      "stateMutability": "view",
      "type": "function"
    },
    {
      "inputs": [],
      "name": "profitShare",
      "outputs": [
        {
          "internalType": "uint256",
          "name": "",
          "type": "uint256"
        }
      ],
      "stateMutability": "view",
      "type": "function"
    },
    {
      "inputs": [],
      "name": "profitThreshold",
      "outputs": [
        {
          "internalType": "uint256",
          "name": "",
          "type": "uint256"
        }
      ],
      "stateMutability": "view",
      "type": "function"
    },
    {
      "inputs": [],
      "name": "renounceOwnership",
      "outputs": [],
      "stateMutability": "nonpayable",
      "type": "function"
    },
    {
      "inputs": [],
      "name": "reserve",
      "outputs": [
        {
          "internalType": "address",
          "name": "",
          "type": "address"
        }
      ],
      "stateMutability": "view",
      "type": "function"
    },
    {
      "inputs": [],
      "name": "reserveShare",
      "outputs": [
        {
          "internalType": "uint256",
          "name": "",
          "type": "uint256"
        }
      ],
      "stateMutability": "view",
      "type": "function"
    },
    {
      "inputs": [],
      "name": "stakingPool",
      "outputs": [
        {
          "internalType": "contract BitcrushStaking",
          "name": "",
          "type": "address"
        }
      ],
      "stateMutability": "view",
      "type": "function"
    },
    {
      "inputs": [],
      "name": "totalBankroll",
      "outputs": [
        {
          "internalType": "uint256",
          "name": "",
          "type": "uint256"
        }
      ],
      "stateMutability": "view",
      "type": "function"
    },
    {
      "inputs": [],
      "name": "totalProfit",
      "outputs": [
        {
          "internalType": "uint256",
          "name": "",
          "type": "uint256"
        }
      ],
      "stateMutability": "view",
      "type": "function"
    },
    {
      "inputs": [],
      "name": "totalWinnings",
      "outputs": [
        {
          "internalType": "uint256",
          "name": "",
          "type": "uint256"
        }
      ],
      "stateMutability": "view",
      "type": "function"
    },
    {
      "inputs": [
        {
          "internalType": "address",
          "name": "newOwner",
          "type": "address"
        }
      ],
      "name": "transferOwnership",
      "outputs": [],
      "stateMutability": "nonpayable",
      "type": "function"
    },
    {
      "inputs": [
        {
          "internalType": "contract BitcrushLiveWallet",
          "name": "_liveWallet",
          "type": "address"
        }
      ],
      "name": "setLiveWallet",
      "outputs": [],
      "stateMutability": "nonpayable",
      "type": "function"
    },
    {
      "inputs": [
        {
          "internalType": "address",
          "name": "_address",
          "type": "address"
        }
      ],
      "name": "authorizeAddress",
      "outputs": [],
      "stateMutability": "nonpayable",
      "type": "function"
    },
    {
      "inputs": [
        {
          "internalType": "address",
          "name": "_address",
          "type": "address"
        }
      ],
      "name": "removeAuthorization",
      "outputs": [],
      "stateMutability": "nonpayable",
      "type": "function"
    },
    {
      "inputs": [
        {
          "internalType": "uint256",
          "name": "_amount",
          "type": "uint256"
        }
      ],
      "name": "addToBankroll",
      "outputs": [],
      "stateMutability": "nonpayable",
      "type": "function"
    },
    {
      "inputs": [
        {
          "internalType": "uint256",
          "name": "_amount",
          "type": "uint256"
        }
      ],
      "name": "addUserLoss",
      "outputs": [],
      "stateMutability": "nonpayable",
      "type": "function"
    },
    {
      "inputs": [
        {
          "internalType": "uint256",
          "name": "_amount",
          "type": "uint256"
        }
      ],
      "name": "recoverBankroll",
      "outputs": [],
      "stateMutability": "nonpayable",
      "type": "function"
    },
    {
      "inputs": [
        {
          "internalType": "uint256",
          "name": "_amount",
          "type": "uint256"
        },
        {
          "internalType": "address",
          "name": "_winner",
          "type": "address"
        }
      ],
      "name": "payOutUserWinning",
      "outputs": [],
      "stateMutability": "nonpayable",
      "type": "function"
    },
    {
      "inputs": [],
      "name": "transferProfit",
      "outputs": [
        {
          "internalType": "uint256",
          "name": "",
          "type": "uint256"
        }
      ],
      "stateMutability": "nonpayable",
      "type": "function"
    },
    {
      "inputs": [
        {
          "internalType": "uint256",
          "name": "_threshold",
          "type": "uint256"
        }
      ],
      "name": "setProfitThreshold",
      "outputs": [],
      "stateMutability": "nonpayable",
      "type": "function"
    },
    {
      "inputs": [
        {
          "internalType": "uint256",
          "name": "_houseBankrollShare",
          "type": "uint256"
        },
        {
          "internalType": "uint256",
          "name": "_profitShare",
          "type": "uint256"
        },
        {
          "internalType": "uint256",
          "name": "_lotteryShare",
          "type": "uint256"
        },
        {
          "internalType": "uint256",
          "name": "_reserveShare",
          "type": "uint256"
        }
      ],
      "name": "setShares",
      "outputs": [],
      "stateMutability": "nonpayable",
      "type": "function"
    },
    {
      "inputs": [
        {
          "internalType": "contract BitcrushStaking",
          "name": "_stakingPool",
          "type": "address"
        }
      ],
      "name": "setBitcrushStaking",
      "outputs": [],
      "stateMutability": "nonpayable",
      "type": "function"
    }
  ],
  "bytecode": "0x608060405234801561001057600080fd5b50604051611f2e380380611f2e833981810160405261010081101561003457600080fd5b508051602082015160408301516060840151608085015160a086015160c087015160e090970151959694959394929391929091600061007a6001600160e01b0361012f16565b600080546001600160a01b0319166001600160a01b0383169081178255604051929350917f8be0079c531659141344cd1fd0a4f28419497f9722a3daafe3b4186f6b6457e0908290a350600480546001600160a01b03998a166001600160a01b03199182161790915560058054988a1698821698909817909755600780549689169688169690961790955560088054949097169390951692909217909455600a93909355600b92909255600c55600d55610133565b3390565b611dec806101426000396000f3fe608060405234801561001057600080fd5b50600436106102265760003560e01c806394f3f81d1161012a578063cd3293de116100bd578063f03b6ffc1161008c578063f2fde38b11610071578063f2fde38b1461049c578063f846a885146104c2578063f974821a146104ca57610226565b8063f03b6ffc14610447578063f19e207e1461047657610226565b8063cd3293de14610427578063e3aeeb461461042f578063e3fd80dd14610437578063e7cb3d671461043f57610226565b8063b72481f8116100f9578063b72481f8146103d4578063b825d003146103dc578063ba13a57214610402578063c2e50b161461040a57610226565b806394f3f81d146103785780639e13900c1461039e578063b359a9f9146103c4578063b4055d15146103cc57610226565b80634a5db3b5116101bd578063715018a61161018c578063860015191161017157806386001519146103605780638da5cb5b146103685780638e4a61421461037057610226565b8063715018a6146103505780637d903ecc1461035857610226565b80634a5db3b5146102d95780634e584e11146102ff57806359c53fd41461030757806361433d881461032457610226565b80632feda8d4116101f95780632feda8d4146102a75780633410fe6e146102c15780633e1f55e4146102c957806345c9c1d1146102d157610226565b80630c56ae3b1461022b578063151fac7b1461024f578063203c27a61461026e578063288211821461028a575b600080fd5b6102336104d2565b604080516001600160a01b039092168252519081900360200190f35b61026c6004803603602081101561026557600080fd5b50356104e1565b005b610276610737565b604080519115158252519081900360200190f35b61026c600480360360208110156102a057600080fd5b5035610740565b6102af6107f7565b60408051918252519081900360200190f35b6102af6107fd565b6102af610803565b6102af610809565b61026c600480360360208110156102ef57600080fd5b50356001600160a01b0316610aa6565b6102af610b34565b61026c6004803603602081101561031d57600080fd5b5035610b3a565b61026c6004803603604081101561033a57600080fd5b50803590602001356001600160a01b0316610c1e565b61026c610db7565b6102af610e78565b6102af610e7e565b610233610e84565b6102af610e93565b61026c6004803603602081101561038e57600080fd5b50356001600160a01b0316610e99565b61026c600480360360208110156103b457600080fd5b50356001600160a01b0316610f24565b610233610fbd565b6102af610fcc565b6102af610fd2565b61026c600480360360208110156103f257600080fd5b50356001600160a01b0316610fd8565b610233611071565b61026c6004803603602081101561042057600080fd5b5035611080565b6102336112db565b6102336112ea565b6102af6112f9565b6102af6112ff565b61026c6004803603608081101561045d57600080fd5b5080359060208101359060408101359060600135611305565b6102766004803603602081101561048c57600080fd5b50356001600160a01b0316611431565b61026c600480360360208110156104b257600080fd5b50356001600160a01b0316611446565b6102af6114b9565b6102af6114be565b6005546001600160a01b031681565b6104e96114c4565b6000546001600160a01b0390811691161461054b576040805162461bcd60e51b815260206004820181905260248201527f4f776e61626c653a2063616c6c6572206973206e6f7420746865206f776e6572604482015290519081900360640190fd5b60025460ff161515600114156106ff57600354811061065857600061057b600354836114c890919063ffffffff16565b6005546003546004549293506105a7926001600160a01b0390811692339291169063ffffffff61151316565b600554600354604080516338e7eaa960e21b81526004810192909252516001600160a01b039092169163e39faaa49160248082019260009290919082900301818387803b1580156105f757600080fd5b505af115801561060b573d6000803e3d6000fd5b5050600060035550506002805460ff1916905560045461063c906001600160a01b031633308463ffffffff61151316565b60015461064f908263ffffffff6115a116565b600155506106fa565b60055460045461067d916001600160a01b03918216913391168463ffffffff61151316565b600554604080516338e7eaa960e21b81526004810184905290516001600160a01b039092169163e39faaa49160248082019260009290919082900301818387803b1580156106ca57600080fd5b505af11580156106de573d6000803e3d6000fd5b50506003546106f6925090508263ffffffff6114c816565b6003555b610734565b60045461071d906001600160a01b031633308463ffffffff61151316565b600154610730908263ffffffff6115a116565b6001555b50565b60025460ff1681565b6107486114c4565b6000546001600160a01b039081169116146107aa576040805162461bcd60e51b815260206004820181905260248201527f4f776e61626c653a2063616c6c6572206973206e6f7420746865206f776e6572604482015290519081900360640190fd5b69152d02c7e14af680000081106107f25760405162461bcd60e51b8152600401808060200182810382526034815260200180611d836034913960400191505060405180910390fd5b600955565b600b5481565b61271081565b600a5481565b6005546000906001600160a01b0316331461086b576040805162461bcd60e51b815260206004820152601b60248201527f43616c6c6572206d757374206265207374616b696e6720706f6f6c0000000000604482015290519081900360640190fd5b600954600e5410610a9f57600a54600090156108c25760006108ac6127106108a0600a54600e546115fb90919063ffffffff16565b9063ffffffff61165416565b90506108be828263ffffffff6115a116565b9150505b600d54156109115760006108e96127106108a0600d54600e546115fb90919063ffffffff16565b60075460045491925061090f916001600160a01b0390811691168363ffffffff61169616565b505b600c54156109605760006109386127106108a0600c54600e546115fb90919063ffffffff16565b60085460045491925061095e916001600160a01b0390811691168363ffffffff61169616565b505b600061097e6127106108a06064600e546115fb90919063ffffffff16565b60048054604080517f42966c68000000000000000000000000000000000000000000000000000000008152928301849052519293506001600160a01b0316916342966c689160248082019260009290919082900301818387803b1580156109e457600080fd5b505af11580156109f8573d6000803e3d6000fd5b505050506000600b541115610a41576000610a266127106108a0600b54600e546115fb90919063ffffffff16565b600e54909150610a3c908263ffffffff6114c816565b600e55505b600e54600154610a569163ffffffff6114c816565b600155600554600454610a7c916001600160a01b0391821691168463ffffffff61169616565b601154610a8f908363ffffffff6115a116565b601155506000600e559050610aa3565b5060005b90565b610aae6114c4565b6000546001600160a01b03908116911614610b10576040805162461bcd60e51b815260206004820181905260248201527f4f776e61626c653a2063616c6c6572206973206e6f7420746865206f776e6572604482015290519081900360640190fd5b6001600160a01b03166000908152601260205260409020805460ff19166001179055565b600c5481565b6005546001600160a01b03163314610b99576040805162461bcd60e51b815260206004820152601b60248201527f43616c6c6572206d757374206265207374616b696e6720706f6f6c0000000000604482015290519081900360640190fd5b6003548110610c05576000610bb9600354836114c890919063ffffffff16565b60006003556002805460ff19169055600454909150610be9906001600160a01b031633308463ffffffff61151316565b600154610bfc908263ffffffff6115a116565b60015550610734565b600354610c18908263ffffffff6114c816565b60035550565b3360009081526012602052604090205460ff161515600114610c87576040805162461bcd60e51b815260206004820152601960248201527f43616c6c6572206d75737420626520617574686f72697a656400000000000000604482015290519081900360640190fd5b600154821115610d73576000610ca8600154846114c890919063ffffffff16565b6002805460ff19166001179055600554604080517f8f44ebfc000000000000000000000000000000000000000000000000000000008152600481018490526001600160a01b0386811660248301523360448301529151939450911691638f44ebfc9160648082019260009290919082900301818387803b158015610d2b57600080fd5b505af1158015610d3f573d6000803e3d6000fd5b5050600354610d57925090508263ffffffff6115a116565b600355600154610d6890833361171b565b506000600155610d94565b600154610d86908363ffffffff6114c816565b600155610d9482823361171b565b610d9d826117c1565b601054610db0908363ffffffff6115a116565b6010555050565b610dbf6114c4565b6000546001600160a01b03908116911614610e21576040805162461bcd60e51b815260206004820181905260248201527f4f776e61626c653a2063616c6c6572206973206e6f7420746865206f776e6572604482015290519081900360640190fd5b600080546040516001600160a01b03909116907f8be0079c531659141344cd1fd0a4f28419497f9722a3daafe3b4186f6b6457e0908390a36000805473ffffffffffffffffffffffffffffffffffffffff19169055565b600e5481565b60115481565b6000546001600160a01b031690565b600f5481565b610ea16114c4565b6000546001600160a01b03908116911614610f03576040805162461bcd60e51b815260206004820181905260248201527f4f776e61626c653a2063616c6c6572206973206e6f7420746865206f776e6572604482015290519081900360640190fd5b6001600160a01b03166000908152601260205260409020805460ff19169055565b610f2c6114c4565b6000546001600160a01b03908116911614610f8e576040805162461bcd60e51b815260206004820181905260248201527f4f776e61626c653a2063616c6c6572206973206e6f7420746865206f776e6572604482015290519081900360640190fd5b6006805473ffffffffffffffffffffffffffffffffffffffff19166001600160a01b0392909216919091179055565b6004546001600160a01b031681565b60015481565b60105481565b610fe06114c4565b6000546001600160a01b03908116911614611042576040805162461bcd60e51b815260206004820181905260248201527f4f776e61626c653a2063616c6c6572206973206e6f7420746865206f776e6572604482015290519081900360640190fd5b6005805473ffffffffffffffffffffffffffffffffffffffff19166001600160a01b0392909216919091179055565b6008546001600160a01b031681565b3360009081526012602052604090205460ff1615156001146110e9576040805162461bcd60e51b815260206004820152601960248201527f43616c6c6572206d75737420626520617574686f72697a656400000000000000604482015290519081900360640190fd5b60025460ff1615156001141561129d5760035481106111f6576000611119600354836114c890919063ffffffff16565b600554600354600454929350611145926001600160a01b0390811692339291169063ffffffff61151316565b600554600354604080516338e7eaa960e21b81526004810192909252516001600160a01b039092169163e39faaa49160248082019260009290919082900301818387803b15801561119557600080fd5b505af11580156111a9573d6000803e3d6000fd5b5050600060035550506002805460ff191690556004546111da906001600160a01b031633308463ffffffff61151316565b6001546111ed908263ffffffff6115a116565b60015550611298565b60055460045461121b916001600160a01b03918216913391168463ffffffff61151316565b600554604080516338e7eaa960e21b81526004810184905290516001600160a01b039092169163e39faaa49160248082019260009290919082900301818387803b15801561126857600080fd5b505af115801561127c573d6000803e3d6000fd5b5050600354611294925090508263ffffffff6114c816565b6003555b6112d2565b6004546112bb906001600160a01b031633308463ffffffff61151316565b6001546112ce908263ffffffff6115a116565b6001555b61073481611842565b6007546001600160a01b031681565b6006546001600160a01b031681565b60035481565b600d5481565b61130d6114c4565b6000546001600160a01b0390811691161461136f576040805162461bcd60e51b815260206004820181905260248201527f4f776e61626c653a2063616c6c6572206973206e6f7420746865206f776e6572604482015290519081900360640190fd5b612710611394826113888581898963ffffffff6115a116565b9063ffffffff6115a116565b146113d05760405162461bcd60e51b8152600401808060200182810382526027815260200180611d3b6027913960400191505060405180910390fd5b600b849055600a839055600c829055600d81905560408051858152602081018590528082018490526060810183905290517f1ab182163a0683cd3182c000705483ef0ccdc375a845ab7b68678f89d90de4d79181900360800190a150505050565b60126020526000908152604090205460ff1681565b61144e6114c4565b6000546001600160a01b039081169116146114b0576040805162461bcd60e51b815260206004820181905260248201527f4f776e61626c653a2063616c6c6572206973206e6f7420746865206f776e6572604482015290519081900360640190fd5b610734816118b5565b606481565b60095481565b3390565b600061150a83836040518060400160405280601e81526020017f536166654d6174683a207375627472616374696f6e206f766572666c6f770000815250611962565b90505b92915050565b604080516001600160a01b0380861660248301528416604482015260648082018490528251808303909101815260849091019091526020810180517bffffffffffffffffffffffffffffffffffffffffffffffffffffffff167f23b872dd0000000000000000000000000000000000000000000000000000000017905261159b9085906119f9565b50505050565b60008282018381101561150a576040805162461bcd60e51b815260206004820152601b60248201527f536166654d6174683a206164646974696f6e206f766572666c6f770000000000604482015290519081900360640190fd5b60008261160a5750600061150d565b8282028284828161161757fe5b041461150a5760405162461bcd60e51b8152600401808060200182810382526021815260200180611d626021913960400191505060405180910390fd5b600061150a83836040518060400160405280601a81526020017f536166654d6174683a206469766973696f6e206279207a65726f000000000000815250611aaa565b604080516001600160a01b038416602482015260448082018490528251808303909101815260649091019091526020810180517bffffffffffffffffffffffffffffffffffffffffffffffffffffffff167fa9059cbb000000000000000000000000000000000000000000000000000000001790526117169084906119f9565b505050565b600454611738906001600160a01b0316828563ffffffff61169616565b604080517ff62cf8d0000000000000000000000000000000000000000000000000000000008152600481018590526001600160a01b0384811660248301529151839283169163f62cf8d091604480830192600092919082900301818387803b1580156117a357600080fd5b505af11580156117b7573d6000803e3d6000fd5b5050505050505050565b600f54156117e457600f546117dc908263ffffffff6115a116565b600f55610734565b600e54811115611829576000611805600e54836114c890919063ffffffff16565b6000600e55600f54909150611820908263ffffffff6115a116565b600f5550610734565b600e5461183c908263ffffffff6114c816565b600e5550565b600f54156118a257600f5481111561188f57600061186b600f54836114c890919063ffffffff16565b6000600f55600e54909150611886908263ffffffff6115a116565b600e55506106fa565b600f546117dc908263ffffffff6114c816565b600e5461183c908263ffffffff6115a116565b6001600160a01b0381166118fa5760405162461bcd60e51b8152600401808060200182810382526026815260200180611d156026913960400191505060405180910390fd5b600080546040516001600160a01b03808516939216917f8be0079c531659141344cd1fd0a4f28419497f9722a3daafe3b4186f6b6457e091a36000805473ffffffffffffffffffffffffffffffffffffffff19166001600160a01b0392909216919091179055565b600081848411156119f15760405162461bcd60e51b81526004018080602001828103825283818151815260200191508051906020019080838360005b838110156119b657818101518382015260200161199e565b50505050905090810190601f1680156119e35780820380516001836020036101000a031916815260200191505b509250505060405180910390fd5b505050900390565b6060611a4e826040518060400160405280602081526020017f5361666542455032303a206c6f772d6c6576656c2063616c6c206661696c6564815250856001600160a01b0316611b0f9092919063ffffffff16565b80519091501561171657808060200190516020811015611a6d57600080fd5b50516117165760405162461bcd60e51b815260040180806020018281038252602a815260200180611ceb602a913960400191505060405180910390fd5b60008183611af95760405162461bcd60e51b81526020600482018181528351602484015283519092839260449091019190850190808383600083156119b657818101518382015260200161199e565b506000838581611b0557fe5b0495945050505050565b6060611b1e8484600085611b26565b949350505050565b6060611b3185611cb1565b611b82576040805162461bcd60e51b815260206004820152601d60248201527f416464726573733a2063616c6c20746f206e6f6e2d636f6e7472616374000000604482015290519081900360640190fd5b60006060866001600160a01b031685876040518082805190602001908083835b60208310611bdf57805182527fffffffffffffffffffffffffffffffffffffffffffffffffffffffffffffffe09092019160209182019101611ba2565b6001836020036101000a03801982511681845116808217855250505050505090500191505060006040518083038185875af1925050503d8060008114611c41576040519150601f19603f3d011682016040523d82523d6000602084013e611c46565b606091505b50915091508115611c5a579150611b1e9050565b805115611c6a5780518082602001fd5b60405162461bcd60e51b81526020600482018181528651602484015286518793919283926044019190850190808383600083156119b657818101518382015260200161199e565b6000813f7fc5d2460186f7233c927e7db2dcc703c0e500b653ca82273b7bfad8045d85a470818114801590611b1e57505015159291505056fe5361666542455032303a204245503230206f7065726174696f6e20646964206e6f7420737563636565644f776e61626c653a206e6577206f776e657220697320746865207a65726f206164647265737353756d206f6620616c6c207368617265732073686f756c642061646420757020746f2031303025536166654d6174683a206d756c7469706c69636174696f6e206f766572666c6f774d61782070726f666974207468726573686f6c642063616e742062652067726561746572207468616e203130306b204372757368a2646970667358221220a03f51ea4d3228964aab48d0c54b3a28d8a45cf7ffa69088ef6258a59a522f0f64736f6c63430006050033",
  "immutableReferences": {},
  "source": "//SPDX-License-Identifier: MIT\npragma solidity >=0.6.5;\nimport \"@pancakeswap/pancake-swap-lib/contracts/access/Ownable.sol\";\nimport \"./CrushCoin.sol\";\nimport \"@pancakeswap/pancake-swap-lib/contracts/math/SafeMath.sol\";\nimport \"@pancakeswap/pancake-swap-lib/contracts/token/BEP20/SafeBEP20.sol\";\nimport \"./staking.sol\";\nimport \"./HouseBankroll.sol\";\nimport \"./LiveWallet.sol\";\ncontract BitcrushBankroll is Ownable {\n    \n    using SafeMath for uint256;\n    using SafeBEP20 for CRUSHToken;\n    uint256 public totalBankroll;\n    bool public poolDepleted;\n    uint256 public negativeBankroll;\n    //address of the crush token\n    CRUSHToken public crush;\n    BitcrushStaking public stakingPool;\n    BitcrushLiveWallet public liveWallet;\n    address public reserve;\n    address public lottery;\n    \n    uint256 public constant DIVISOR = 10000;\n    uint256 public constant BURN_RATE = 100;\n    uint256 public profitThreshold ;\n    \n    //consistent 1% burn\n    uint256 public profitShare;\n    uint256 public houseBankrollShare;\n    uint256 public lotteryShare;\n    uint256 public reserveShare;\n    \n    //profit tracking\n    uint256 public brSinceCompound;\n    uint256 public negativeBrSinceCompound;\n\n    //tracking historical winnings and profits\n    uint256 public totalWinnings;\n    uint256 public totalProfit;\n    \n\n    //authorized addresses\n    mapping (address => bool) public authorizedAddresses;\n    event SharesUpdated (uint256  _houseBankrollShare, uint256  _profitShare, uint256  _lotteryShare,  uint256  _reserveShare);\n    constructor(\n        CRUSHToken _crush,\n        BitcrushStaking _stakingPool,\n        address _reserve,\n        address _lottery,\n        uint256 _profitShare,\n        uint256 _houseBankrollShare,\n        uint256 _lotteryShare,\n        uint256 _reserveShare\n    ) public {\n        crush = _crush;\n        stakingPool = _stakingPool;\n        reserve = _reserve;\n        lottery = _lottery;\n        profitShare = _profitShare;\n        houseBankrollShare = _houseBankrollShare;\n        lotteryShare = _lotteryShare;\n        reserveShare = _reserveShare;\n\n    }\n\n    /// Store `_liveWallet`.\n    /// @param _liveWallet the new value to store\n    /// @dev stores the _liveWallet address in the state variable `liveWallet`\n    function setLiveWallet(BitcrushLiveWallet _liveWallet) public onlyOwner{\n        liveWallet = _liveWallet;\n    }\n\n    /// authorize address to register wins and losses\n    /// @param _address the address to be authorized\n    /// @dev updates the authorizedAddresses mapping to true for given address\n    function authorizeAddress (address _address) public onlyOwner {\n        authorizedAddresses[_address] = true;\n    }\n\n    /// remove authorization of an address from register wins and losses\n    /// @param _address the address to be removed\n    /// @dev updates the authorizedAddresses mapping by deleting entry for given address\n    function removeAuthorization (address _address) public onlyOwner {\n        delete authorizedAddresses[_address];\n    }\n    \n    /// Add funds to the bankroll\n    /// @param _amount the amount to add\n    /// @dev adds funds to the bankroll\n    function addToBankroll(uint256 _amount) public onlyOwner {\n\n        \n        if (poolDepleted == true) {\n            if (_amount >= negativeBankroll) {\n                uint256 remainder = _amount.sub(negativeBankroll);\n                crush.safeTransferFrom(\n                    msg.sender,\n                    address(stakingPool),\n                    negativeBankroll\n                );\n                stakingPool.unfreezeStaking(negativeBankroll);\n                negativeBankroll = 0;\n                poolDepleted = false;\n                crush.safeTransferFrom(msg.sender, address(this), remainder);\n                totalBankroll = totalBankroll.add(remainder);\n                \n            } else {\n                crush.safeTransferFrom(msg.sender, address(stakingPool), _amount);\n                stakingPool.unfreezeStaking(_amount);\n                negativeBankroll = negativeBankroll.sub(_amount);\n            }\n        } else {\n            crush.safeTransferFrom(msg.sender, address(this), _amount);\n            totalBankroll = totalBankroll.add(_amount);\n            \n        }\n\n\n\n\n        \n    }\n\n    /// Add users loss to the bankroll\n    /// @param _amount the amount to add\n    /// @dev adds funds to the bankroll if bankroll is in positive, otherwise its transfered to the staking pool to recover frozen funds\n    function addUserLoss(uint256 _amount) public {\n        require(\n            authorizedAddresses[msg.sender] == true,\n            \"Caller must be authorized\"\n        );\n        //make game specific\n        //check if bankroll is in negative\n        //uint is unsigned, keep a bool to track\n        //if negative send to staking to replenish\n        //otherwise add to bankroll and check for profit\n        if (poolDepleted == true) {\n            if (_amount >= negativeBankroll) {\n                uint256 remainder = _amount.sub(negativeBankroll);\n                crush.safeTransferFrom(\n                    msg.sender,\n                    address(stakingPool),\n                    negativeBankroll\n                );\n                stakingPool.unfreezeStaking(negativeBankroll);\n                negativeBankroll = 0;\n                poolDepleted = false;\n                crush.safeTransferFrom(msg.sender, address(this), remainder);\n                totalBankroll = totalBankroll.add(remainder);\n                \n            } else {\n                crush.safeTransferFrom(msg.sender, address(stakingPool), _amount);\n                stakingPool.unfreezeStaking(_amount);\n                negativeBankroll = negativeBankroll.sub(_amount);\n            }\n        } else {\n            crush.safeTransferFrom(msg.sender, address(this), _amount);\n            totalBankroll = totalBankroll.add(_amount);\n            \n        }\n        addToBrSinceCompound(_amount);\n    }\n\n\n    function recoverBankroll (uint256 _amount) public {\n        require(\n            msg.sender == address(stakingPool),\n            \"Caller must be staking pool\"\n        );\n        if (_amount >= negativeBankroll) {\n                uint256 remainder = _amount.sub(negativeBankroll);\n                negativeBankroll = 0;\n                poolDepleted = false;\n                crush.safeTransferFrom(msg.sender, address(this), remainder);\n                totalBankroll = totalBankroll.add(remainder);\n                \n            } else {\n                \n                negativeBankroll = negativeBankroll.sub(_amount);\n            }\n    }\n\n\n    /// Deduct users win from the bankroll\n    /// @param _amount the amount to deduct\n    /// @dev deducts funds from the bankroll if bankroll is in positive, otherwise theyre pulled from staking pool and bankroll marked as negative\n    function payOutUserWinning(\n        uint256 _amount,\n        address _winner\n    ) public {\n        require(\n            authorizedAddresses[msg.sender] == true,\n            \"Caller must be authorized\"\n        );\n        \n        \n        //check if bankroll has funds available\n        //if not dip into staking pool for any remainder\n        // update bankroll accordingly\n        if (_amount > totalBankroll) {\n            uint256 remainder = _amount.sub(totalBankroll);\n            poolDepleted = true;\n            stakingPool.freezeStaking(remainder, _winner, msg.sender);\n            negativeBankroll = negativeBankroll.add(remainder);\n            transferWinnings(totalBankroll, _winner, msg.sender);\n\n            totalBankroll = 0;\n        } else {\n            totalBankroll = totalBankroll.sub(_amount);\n            transferWinnings(_amount, _winner, msg.sender);\n        }\n        removeFromBrSinceCompound(_amount);\n        totalWinnings = totalWinnings.add(_amount);\n    }\n\n    /// transfer winnings from bankroll contract to live wallet\n    /// @param _amount the amount to tranfer\n    /// @param _winner the winners address\n    /// @dev transfers funds from the bankroll to the live wallet as users winnings\n    function transferWinnings(\n        uint256 _amount,\n        address _winner,\n        address _lwAddress\n    ) internal {\n        crush.safeTransfer(_lwAddress, _amount);\n        BitcrushLiveWallet currentLw = BitcrushLiveWallet( _lwAddress);\n        currentLw.addToUserWinnings(_amount, _winner);\n    }\n\n    /// track funds added since last compound and profit transfer\n    /// @param _amount the amount to add\n    /// @dev add funds to the variable brSinceCompound\n    function addToBrSinceCompound (uint256 _amount) internal{\n        if(negativeBrSinceCompound > 0){\n            if(_amount > negativeBrSinceCompound){\n                uint256 difference = _amount.sub(negativeBrSinceCompound);\n                negativeBrSinceCompound = 0;\n                brSinceCompound = brSinceCompound.add(difference);\n            }else {\n                negativeBrSinceCompound = negativeBrSinceCompound.sub(_amount);\n            }\n        }else {\n            brSinceCompound = brSinceCompound.add(_amount);\n        }\n    }\n\n    /// track funds remvoed since last compound and profit transfer\n    /// @param _amount the amount to remove\n    /// @dev deduct funds to the variable brSinceCompound\n    function removeFromBrSinceCompound (uint256 _amount) internal{\n        if(negativeBrSinceCompound > 0 ){\n            negativeBrSinceCompound = negativeBrSinceCompound.add(_amount);\n            \n        }else {\n            if(_amount > brSinceCompound){\n                uint256 difference = _amount.sub(brSinceCompound);\n                brSinceCompound = 0;\n                negativeBrSinceCompound = negativeBrSinceCompound.add(difference);\n            }else {\n                brSinceCompound = brSinceCompound.sub(_amount);\n            }\n        }\n    }\n\n    /// transfer profits to staking pool to be ditributed to stakers.\n    /// @dev transfer profits since last compound to the staking pool while taking out necessary fees.\n    function transferProfit() public returns (uint256) {\n        require(\n            msg.sender == address(stakingPool),\n            \"Caller must be staking pool\"\n        );\n        if (brSinceCompound >= profitThreshold) {\n\n            //-----\n            uint256 profit = 0;\n            if(profitShare > 0 ){\n                uint256 stakingBakrollProfit = brSinceCompound.mul(profitShare).div(DIVISOR);\n                profit = profit.add(stakingBakrollProfit);\n            }\n            if(reserveShare > 0 ){\n                uint256 reserveCrush = brSinceCompound.mul(reserveShare).div(DIVISOR);\n                crush.safeTransfer(reserve, reserveCrush);\n            }\n            if(lotteryShare > 0){\n                uint256 lotteryCrush = brSinceCompound.mul(lotteryShare).div(DIVISOR);\n                crush.safeTransfer(lottery, lotteryCrush);\n            }\n            \n            uint256 burn = brSinceCompound.mul(BURN_RATE).div(DIVISOR);\n            crush.burn(burn); \n\n            if(houseBankrollShare > 0){\n                uint256 bankrollShare = brSinceCompound.mul(houseBankrollShare).div(DIVISOR);\n                brSinceCompound = brSinceCompound.sub(bankrollShare);\n            }\n\n            totalBankroll = totalBankroll.sub(brSinceCompound);\n            //-----\n            crush.safeTransfer(address(stakingPool), profit);\n            totalProfit= totalProfit.add(profit);\n            brSinceCompound = 0;\n            return profit;\n        } else {\n            return 0;\n        }\n    }\n\n    /// Store `_threshold`.\n    /// @param _threshold the new value to store\n    /// @dev stores the _threshold address in the state variable `profitThreshold`\n    function setProfitThreshold(uint256 _threshold) public onlyOwner {\n        require(_threshold < 100000000000000000000000, \"Max profit threshold cant be greater than 100k Crush\");\n        profitThreshold = _threshold;\n    }\n\n    /// updates all share percentage values\n    /// @param _houseBankrollShare the new value to store\n    /// @param _profitShare the new value to store\n    /// @param _lotteryShare the new value to store\n    /// @param _reserveShare the new value to store\n    /// @dev stores the _houseBankrollShare address in the state variable `houseBankrollShare`\n    function setShares (uint256 _houseBankrollShare, uint256 _profitShare, uint256 _lotteryShare,  uint256 _reserveShare) public onlyOwner {\n        require(\n            _houseBankrollShare\n            .add(_profitShare)\n            .add(_lotteryShare)\n            .add(_reserveShare) == DIVISOR,\n            \"Sum of all shares should add up to 100%\"\n            );\n        houseBankrollShare = _houseBankrollShare;   \n        profitShare = _profitShare;\n        lotteryShare = _lotteryShare;\n        reserveShare = _reserveShare;\n        emit SharesUpdated(_houseBankrollShare, _profitShare, _lotteryShare,  _reserveShare);\n    }\n\n    /// Store `_stakingPool`.\n    /// @param _stakingPool the new value to store\n    /// @dev stores the _stakingPool address in the state variable `stakingPool`\n    function setBitcrushStaking (BitcrushStaking _stakingPool)public onlyOwner{\n        stakingPool = _stakingPool;\n    }\n\n}\n",
  "sourcePath": "/Users/umerali/Desktop/FRAG/bitcrush/crush_contracts/contracts/HouseBankroll.sol",
  "compiler": {
    "name": "solc",
    "version": "0.6.5+commit.f956cc89.Emscripten.clang"
  },
  "schemaVersion": "3.4.1",
  "updatedAt": "2021-10-28T17:49:35.975Z",
  "devdoc": {
    "methods": {
      "addToBankroll(uint256)": {
        "details": "adds funds to the bankroll",
        "params": {
          "_amount": "the amount to add"
        }
      },
      "addUserLoss(uint256)": {
        "details": "adds funds to the bankroll if bankroll is in positive, otherwise its transfered to the staking pool to recover frozen funds",
        "params": {
          "_amount": "the amount to add"
        }
      },
      "authorizeAddress(address)": {
        "details": "updates the authorizedAddresses mapping to true for given address",
        "params": {
          "_address": "the address to be authorized"
        }
      },
      "owner()": {
        "details": "Returns the address of the current owner."
      },
      "payOutUserWinning(uint256,address)": {
        "details": "deducts funds from the bankroll if bankroll is in positive, otherwise theyre pulled from staking pool and bankroll marked as negative",
        "params": {
          "_amount": "the amount to deduct"
        }
      },
      "removeAuthorization(address)": {
        "details": "updates the authorizedAddresses mapping by deleting entry for given address",
        "params": {
          "_address": "the address to be removed"
        }
      },
      "renounceOwnership()": {
        "details": "Leaves the contract without owner. It will not be possible to call `onlyOwner` functions anymore. Can only be called by the current owner.     * NOTE: Renouncing ownership will leave the contract without an owner, thereby removing any functionality that is only available to the owner."
      },
      "setBitcrushStaking(address)": {
        "details": "stores the _stakingPool address in the state variable `stakingPool`",
        "params": {
          "_stakingPool": "the new value to store"
        }
      },
      "setLiveWallet(address)": {
        "details": "stores the _liveWallet address in the state variable `liveWallet`",
        "params": {
          "_liveWallet": "the new value to store"
        }
      },
      "setProfitThreshold(uint256)": {
        "details": "stores the _threshold address in the state variable `profitThreshold`",
        "params": {
          "_threshold": "the new value to store"
        }
      },
      "setShares(uint256,uint256,uint256,uint256)": {
        "details": "stores the _houseBankrollShare address in the state variable `houseBankrollShare`",
        "params": {
          "_houseBankrollShare": "the new value to store",
          "_lotteryShare": "the new value to store",
          "_profitShare": "the new value to store",
          "_reserveShare": "the new value to store"
        }
      },
      "transferOwnership(address)": {
        "details": "Transfers ownership of the contract to a new account (`newOwner`). Can only be called by the current owner."
      },
      "transferProfit()": {
        "details": "transfer profits since last compound to the staking pool while taking out necessary fees."
      }
    }
  },
  "userdoc": {
    "methods": {
      "addToBankroll(uint256)": {
        "notice": "Add funds to the bankroll"
      },
      "addUserLoss(uint256)": {
        "notice": "Add users loss to the bankroll"
      },
      "authorizeAddress(address)": {
        "notice": "authorize address to register wins and losses"
      },
      "payOutUserWinning(uint256,address)": {
        "notice": "Deduct users win from the bankroll"
      },
      "removeAuthorization(address)": {
        "notice": "remove authorization of an address from register wins and losses"
      },
      "setBitcrushStaking(address)": {
        "notice": "Store `_stakingPool`."
      },
      "setLiveWallet(address)": {
        "notice": "Store `_liveWallet`."
      },
      "setProfitThreshold(uint256)": {
        "notice": "Store `_threshold`."
      },
      "setShares(uint256,uint256,uint256,uint256)": {
        "notice": "updates all share percentage values"
      },
      "transferProfit()": {
        "notice": "transfer profits to staking pool to be ditributed to stakers."
      }
    }
  }
}