{
  "contractName": "BitcrushLiveWallet",
  "abi": [
    {
      "inputs": [
        {
          "internalType": "contract CRUSHToken",
          "name": "_crush",
          "type": "address"
        },
        {
          "internalType": "contract BitcrushBankroll",
          "name": "_bankroll",
          "type": "address"
        },
        {
          "internalType": "address",
          "name": "_reserveAddress",
          "type": "address"
        }
      ],
      "stateMutability": "nonpayable",
      "type": "constructor"
    },
    {
      "anonymous": false,
      "inputs": [
        {
          "indexed": true,
          "internalType": "address",
          "name": "_address",
          "type": "address"
        },
        {
          "indexed": true,
          "internalType": "uint256",
          "name": "_amount",
          "type": "uint256"
        }
      ],
      "name": "Deposit",
      "type": "event"
    },
    {
      "anonymous": false,
      "inputs": [
        {
          "indexed": true,
          "internalType": "uint256",
          "name": "_lockPeriod",
          "type": "uint256"
        }
      ],
      "name": "LockPeriodUpdated",
      "type": "event"
    },
    {
      "anonymous": false,
      "inputs": [
        {
          "indexed": true,
          "internalType": "address",
          "name": "previousOwner",
          "type": "address"
        },
        {
          "indexed": true,
          "internalType": "address",
          "name": "newOwner",
          "type": "address"
        }
      ],
      "name": "OwnershipTransferred",
      "type": "event"
    },
    {
      "anonymous": false,
      "inputs": [
        {
          "indexed": true,
          "internalType": "address",
          "name": "_address",
          "type": "address"
        },
        {
          "indexed": true,
          "internalType": "uint256",
          "name": "_amount",
          "type": "uint256"
        }
      ],
      "name": "Withdraw",
      "type": "event"
    },
    {
      "inputs": [],
      "name": "DIVISOR",
      "outputs": [
        {
          "internalType": "uint256",
          "name": "",
          "type": "uint256"
        }
      ],
      "stateMutability": "view",
      "type": "function"
    },
    {
      "inputs": [],
      "name": "bankroll",
      "outputs": [
        {
          "internalType": "contract BitcrushBankroll",
          "name": "",
          "type": "address"
        }
      ],
      "stateMutability": "view",
      "type": "function"
    },
    {
      "inputs": [
        {
          "internalType": "address",
          "name": "",
          "type": "address"
        }
      ],
      "name": "betAmounts",
      "outputs": [
        {
          "internalType": "uint256",
          "name": "balance",
          "type": "uint256"
        },
        {
          "internalType": "uint256",
          "name": "lockTimeStamp",
          "type": "uint256"
        }
      ],
      "stateMutability": "view",
      "type": "function"
    },
    {
      "inputs": [
        {
          "internalType": "address",
          "name": "",
          "type": "address"
        }
      ],
      "name": "blacklistedUsers",
      "outputs": [
        {
          "internalType": "bool",
          "name": "",
          "type": "bool"
        }
      ],
      "stateMutability": "view",
      "type": "function"
    },
    {
      "inputs": [],
      "name": "crush",
      "outputs": [
        {
          "internalType": "contract CRUSHToken",
          "name": "",
          "type": "address"
        }
      ],
      "stateMutability": "view",
      "type": "function"
    },
    {
      "inputs": [],
      "name": "earlyWithdrawFee",
      "outputs": [
        {
          "internalType": "uint256",
          "name": "",
          "type": "uint256"
        }
      ],
      "stateMutability": "view",
      "type": "function"
    },
    {
      "inputs": [],
      "name": "lockPeriod",
      "outputs": [
        {
          "internalType": "uint256",
          "name": "",
          "type": "uint256"
        }
      ],
      "stateMutability": "view",
      "type": "function"
    },
    {
      "inputs": [],
      "name": "owner",
      "outputs": [
        {
          "internalType": "address",
          "name": "",
          "type": "address"
        }
      ],
      "stateMutability": "view",
      "type": "function"
    },
    {
      "inputs": [],
      "name": "renounceOwnership",
      "outputs": [],
      "stateMutability": "nonpayable",
      "type": "function"
    },
    {
      "inputs": [],
      "name": "reserveAddress",
      "outputs": [
        {
          "internalType": "address",
          "name": "",
          "type": "address"
        }
      ],
      "stateMutability": "view",
      "type": "function"
    },
    {
      "inputs": [],
      "name": "stakingPool",
      "outputs": [
        {
          "internalType": "contract BitcrushStaking",
          "name": "",
          "type": "address"
        }
      ],
      "stateMutability": "view",
      "type": "function"
    },
    {
      "inputs": [
        {
          "internalType": "address",
          "name": "newOwner",
          "type": "address"
        }
      ],
      "name": "transferOwnership",
      "outputs": [],
      "stateMutability": "nonpayable",
      "type": "function"
    },
    {
      "inputs": [
        {
          "internalType": "uint256",
          "name": "_amount",
          "type": "uint256"
        }
      ],
      "name": "addbet",
      "outputs": [],
      "stateMutability": "nonpayable",
      "type": "function"
    },
    {
      "inputs": [
        {
          "internalType": "uint256",
          "name": "_amount",
          "type": "uint256"
        },
        {
          "internalType": "address",
          "name": "_user",
          "type": "address"
        }
      ],
      "name": "addbetWithAddress",
      "outputs": [],
      "stateMutability": "nonpayable",
      "type": "function"
    },
    {
      "inputs": [
        {
          "internalType": "address",
          "name": "_user",
          "type": "address"
        }
      ],
      "name": "balanceOf",
      "outputs": [
        {
          "internalType": "uint256",
          "name": "",
          "type": "uint256"
        }
      ],
      "stateMutability": "view",
      "type": "function"
    },
    {
      "inputs": [
        {
          "internalType": "uint256[]",
          "name": "_wins",
          "type": "uint256[]"
        },
        {
          "internalType": "address[]",
          "name": "_users",
          "type": "address[]"
        }
      ],
      "name": "registerWin",
      "outputs": [],
      "stateMutability": "nonpayable",
      "type": "function"
    },
    {
      "inputs": [
        {
          "internalType": "uint256[]",
          "name": "_bets",
          "type": "uint256[]"
        },
        {
          "internalType": "address[]",
          "name": "_users",
          "type": "address[]"
        }
      ],
      "name": "registerLoss",
      "outputs": [],
      "stateMutability": "nonpayable",
      "type": "function"
    },
    {
      "inputs": [
        {
          "internalType": "uint256",
          "name": "_amount",
          "type": "uint256"
        }
      ],
      "name": "withdrawBet",
      "outputs": [],
      "stateMutability": "nonpayable",
      "type": "function"
    },
    {
      "inputs": [
        {
          "internalType": "uint256",
          "name": "_amount",
          "type": "uint256"
        },
        {
          "internalType": "address",
          "name": "_user",
          "type": "address"
        }
      ],
      "name": "withdrawBetForUser",
      "outputs": [],
      "stateMutability": "nonpayable",
      "type": "function"
    },
    {
      "inputs": [
        {
          "internalType": "uint256",
          "name": "_amount",
          "type": "uint256"
        },
        {
          "internalType": "address",
          "name": "_user",
          "type": "address"
        }
      ],
      "name": "addToUserWinnings",
      "outputs": [],
      "stateMutability": "nonpayable",
      "type": "function"
    },
    {
      "inputs": [
        {
          "internalType": "address[]",
          "name": "_users",
          "type": "address[]"
        }
      ],
      "name": "updateBetLock",
      "outputs": [],
      "stateMutability": "nonpayable",
      "type": "function"
    },
    {
      "inputs": [
        {
          "internalType": "address[]",
          "name": "_users",
          "type": "address[]"
        }
      ],
      "name": "releaseBetLock",
      "outputs": [],
      "stateMutability": "nonpayable",
      "type": "function"
    },
    {
      "inputs": [
        {
          "internalType": "address",
          "name": "_address",
          "type": "address"
        }
      ],
      "name": "blacklistUser",
      "outputs": [],
      "stateMutability": "nonpayable",
      "type": "function"
    },
    {
      "inputs": [
        {
          "internalType": "address",
          "name": "_address",
          "type": "address"
        }
      ],
      "name": "whitelistUser",
      "outputs": [],
      "stateMutability": "nonpayable",
      "type": "function"
    },
    {
      "inputs": [],
      "name": "blacklistSelf",
      "outputs": [],
      "stateMutability": "nonpayable",
      "type": "function"
    },
    {
      "inputs": [
        {
          "internalType": "uint256",
          "name": "_lockPeriod",
          "type": "uint256"
        }
      ],
      "name": "setLockPeriod",
      "outputs": [],
      "stateMutability": "nonpayable",
      "type": "function"
    },
    {
      "inputs": [
        {
          "internalType": "address",
          "name": "_reserveAddress",
          "type": "address"
        }
      ],
      "name": "setReserveAddress",
      "outputs": [],
      "stateMutability": "nonpayable",
      "type": "function"
    },
    {
      "inputs": [
        {
          "internalType": "uint256",
          "name": "_earlyWithdrawFee",
          "type": "uint256"
        }
      ],
      "name": "setEarlyWithdrawFee",
      "outputs": [],
      "stateMutability": "nonpayable",
      "type": "function"
    },
    {
      "inputs": [
        {
          "internalType": "contract BitcrushStaking",
          "name": "_stakingPool",
          "type": "address"
        }
      ],
      "name": "setStakingPool",
      "outputs": [],
      "stateMutability": "nonpayable",
      "type": "function"
    }
  ],
  "bytecode": "0x60a0604052612a30600555603260075534801561001b57600080fd5b5060405161244f38038061244f8339818101604052606081101561003e57600080fd5b508051602082015160409092015190919060006100626001600160e01b036100f116565b600080546001600160a01b0319166001600160a01b0383169081178255604051929350917f8be0079c531659141344cd1fd0a4f28419497f9722a3daafe3b4186f6b6457e0908290a35060609290921b6001600160601b031916608052600380546001600160a01b03199081166001600160a01b039384161790915560068054909116919092161790556100f5565b3390565b60805160601c61231f61013060003980610b485280610e71528061110c52806113cd528061163152806116675280611bcb525061231f6000f3fe608060405234801561001057600080fd5b50600436106101cf5760003560e01c8063815b738611610104578063c22982f4116100a2578063f2fde38b11610071578063f2fde38b146107bd578063f62cf8d0146107e3578063f79ed94b1461080f578063fcbca45614610817576101cf565b8063c22982f41461060e578063d4b9661c1461062b578063ebcfcf6b14610657578063f2150bbb14610696576101cf565b8063a4ae1c56116100de578063a4ae1c5614610434578063a80a78821461055b578063afb62d7014610563578063b359a9f914610606576101cf565b8063815b73861461036c5780638da5cb5b1461040f578063a2b1a2cc14610417576101cf565b80634a4c560d11610171578063715018a61161014b578063715018a614610313578063723ea1151461031b578063779972da146103235780637efd381314610340576101cf565b80634a4c560d146102aa5780636145b22c146102d057806370a08231146102ed576101cf565b806322c0aec7116101ad57806322c0aec7146102285780633028f63a146102625780633410fe6e146102885780633fd8b02f146102a2576101cf565b80630c56ae3b146101d45780630c657eb0146101f857806314673d3114610200575b600080fd5b6101dc61083d565b604080516001600160a01b039092168252519081900360200190f35b6101dc61084c565b6102266004803603602081101561021657600080fd5b50356001600160a01b031661085b565b005b61024e6004803603602081101561023e57600080fd5b50356001600160a01b03166108f4565b604080519115158252519081900360200190f35b6102266004803603602081101561027857600080fd5b50356001600160a01b0316610909565b610290610a00565b60408051918252519081900360200190f35b610290610a06565b610226600480360360208110156102c057600080fd5b50356001600160a01b0316610a0c565b610226600480360360208110156102e657600080fd5b5035610a97565b6102906004803603602081101561030357600080fd5b50356001600160a01b0316610bdd565b610226610bf8565b610226610cb9565b6102266004803603602081101561033957600080fd5b5035610cd8565b6102266004803603604081101561035657600080fd5b50803590602001356001600160a01b0316610db7565b6102266004803603602081101561038257600080fd5b81019060208101813564010000000081111561039d57600080fd5b8201836020820111156103af57600080fd5b803590602001918460208302840111640100000000831117156103d157600080fd5b919080806020026020016040519081016040528093929190818152602001838360200280828437600092019190915250929550610f19945050505050565b6101dc610fe1565b6102266004803603602081101561042d57600080fd5b5035610ff0565b6102266004803603604081101561044a57600080fd5b81019060208101813564010000000081111561046557600080fd5b82018360208201111561047757600080fd5b8035906020019184602083028401116401000000008311171561049957600080fd5b91908080602002602001604051908101604052809392919081815260200183836020028082843760009201919091525092959493602081019350359150506401000000008111156104e957600080fd5b8201836020820111156104fb57600080fd5b8035906020019184602083028401116401000000008311171561051d57600080fd5b919080806020026020016040519081016040528093929190818152602001838360200280828437600092019190915250929550611171945050505050565b610290611302565b6102266004803603602081101561057957600080fd5b81019060208101813564010000000081111561059457600080fd5b8201836020820111156105a657600080fd5b803590602001918460208302840111640100000000831117156105c857600080fd5b919080806020026020016040519081016040528093929190818152602001838360200280828437600092019190915250929550611308945050505050565b6101dc6113cb565b6102266004803603602081101561062457600080fd5b50356113ef565b6102266004803603604081101561064157600080fd5b50803590602001356001600160a01b031661149e565b61067d6004803603602081101561066d57600080fd5b50356001600160a01b0316611694565b6040805192835260208301919091528051918290030190f35b610226600480360360408110156106ac57600080fd5b8101906020810181356401000000008111156106c757600080fd5b8201836020820111156106d957600080fd5b803590602001918460208302840111640100000000831117156106fb57600080fd5b919080806020026020016040519081016040528093929190818152602001838360200280828437600092019190915250929594936020810193503591505064010000000081111561074b57600080fd5b82018360208201111561075d57600080fd5b8035906020019184602083028401116401000000008311171561077f57600080fd5b9190808060200260200160405190810160405280939291908181526020018383602002808284376000920191909152509295506116ad945050505050565b610226600480360360208110156107d357600080fd5b50356001600160a01b0316611815565b610226600480360360408110156107f957600080fd5b50803590602001356001600160a01b031661188b565b6101dc61192f565b6102266004803603602081101561082d57600080fd5b50356001600160a01b031661193e565b6004546001600160a01b031681565b6003546001600160a01b031681565b6108636119cf565b6000546001600160a01b039081169116146108c5576040805162461bcd60e51b815260206004820181905260248201527f4f776e61626c653a2063616c6c6572206973206e6f7420746865206f776e6572604482015290519081900360640190fd5b6006805473ffffffffffffffffffffffffffffffffffffffff19166001600160a01b0392909216919091179055565b60016020526000908152604090205460ff1681565b6109116119cf565b6000546001600160a01b03908116911614610973576040805162461bcd60e51b815260206004820181905260248201527f4f776e61626c653a2063616c6c6572206973206e6f7420746865206f776e6572604482015290519081900360640190fd5b6004546001600160a01b0316156109d1576040805162461bcd60e51b815260206004820181905260248201527f7374616b696e6720706f6f6c206164647265737320616c726561647920736574604482015290519081900360640190fd5b6004805473ffffffffffffffffffffffffffffffffffffffff19166001600160a01b0392909216919091179055565b61271081565b60055481565b610a146119cf565b6000546001600160a01b03908116911614610a76576040805162461bcd60e51b815260206004820181905260248201527f4f776e61626c653a2063616c6c6572206973206e6f7420746865206f776e6572604482015290519081900360640190fd5b6001600160a01b03166000908152600160205260409020805460ff19169055565b60008111610ad65760405162461bcd60e51b81526004018080602001828103825260238152602001806122c76023913960400191505060405180910390fd5b3360009081526001602052604090205460ff1615610b3b576040805162461bcd60e51b815260206004820152601460248201527f5573657220697320626c61636b204c6973746564000000000000000000000000604482015290519081900360640190fd5b610b766001600160a01b037f00000000000000000000000000000000000000000000000000000000000000001633308463ffffffff6119d316565b33600090815260026020526040902054610b96908263ffffffff611a6116565b3360008181526002602052604080822093845542600190940193909355915183927fe1fffcc4923d04b559f4d29a8bfc6cda04eb5b0d3c460751c2402c5c5cc9109c91a350565b6001600160a01b031660009081526002602052604090205490565b610c006119cf565b6000546001600160a01b03908116911614610c62576040805162461bcd60e51b815260206004820181905260248201527f4f776e61626c653a2063616c6c6572206973206e6f7420746865206f776e6572604482015290519081900360640190fd5b600080546040516001600160a01b03909116907f8be0079c531659141344cd1fd0a4f28419497f9722a3daafe3b4186f6b6457e0908390a36000805473ffffffffffffffffffffffffffffffffffffffff19169055565b336000908152600160208190526040909120805460ff19169091179055565b610ce06119cf565b6000546001600160a01b03908116911614610d42576040805162461bcd60e51b815260206004820181905260248201527f4f776e61626c653a2063616c6c6572206973206e6f7420746865206f776e6572604482015290519081900360640190fd5b62093a80811115610d845760405162461bcd60e51b815260040180806020018281038252602981526020018061222e6029913960400191505060405180910390fd5b600581905560405181907f8249ec545e68f6f1e1230133ca48c704d831a7f8e635ded80f3dd9e99b09bb2f90600090a250565b60008211610df65760405162461bcd60e51b81526004018080602001828103825260238152602001806122c76023913960400191505060405180910390fd5b6001600160a01b03811660009081526001602052604090205460ff1615610e64576040805162461bcd60e51b815260206004820152601460248201527f5573657220697320626c61636b204c6973746564000000000000000000000000604482015290519081900360640190fd5b610e9f6001600160a01b037f00000000000000000000000000000000000000000000000000000000000000001633308563ffffffff6119d316565b6001600160a01b038116600090815260026020526040902054610ec8908363ffffffff611a6116565b6001600160a01b03821660008181526002602052604080822093845542600190940193909355915184927fe1fffcc4923d04b559f4d29a8bfc6cda04eb5b0d3c460751c2402c5c5cc9109c91a35050565b610f216119cf565b6000546001600160a01b03908116911614610f83576040805162461bcd60e51b815260206004820181905260248201527f4f776e61626c653a2063616c6c6572206973206e6f7420746865206f776e6572604482015290519081900360640190fd5b60005b8151811015610fdd57600060026000848481518110610fa157fe5b60200260200101516001600160a01b03166001600160a01b03168152602001908152602001600020600101819055508080600101915050610f86565b5050565b6000546001600160a01b031690565b33600090815260026020526040902054811115611054576040805162461bcd60e51b815260206004820152601d60248201527f626574206c657373207468616e20616d6f756e74207769746864726177000000604482015290519081900360640190fd5b3360009081526002602052604090206001015415806110985750600554336000908152600260205260409020600101544291611096919063ffffffff611a6116565b105b6110d35760405162461bcd60e51b81526004018080602001828103825260298152602001806121946029913960400191505060405180910390fd5b336000908152600260205260409020546110f3908263ffffffff611ac416565b33600081815260026020526040902091909155611141907f00000000000000000000000000000000000000000000000000000000000000006001600160a01b0316908363ffffffff611b0616565b604051819033907f884edad9ce6fa2440d8a54cc123490eb96d2768479d49ff9c7366125a942436490600090a350565b6111796119cf565b6000546001600160a01b039081169116146111db576040805162461bcd60e51b815260206004820181905260248201527f4f776e61626c653a2063616c6c6572206973206e6f7420746865206f776e6572604482015290519081900360640190fd5b805182511461121b5760405162461bcd60e51b815260040180806020018281038252602181526020018061220d6021913960400191505060405180910390fd5b60005b81518110156112fd57600083828151811061123557fe5b602002602001015111156112f55761125f83828151811061125257fe5b6020026020010151611b86565b6112c083828151811061126e57fe5b60200260200101516002600085858151811061128657fe5b60200260200101516001600160a01b03166001600160a01b0316815260200190815260200160002060000154611ac490919063ffffffff16565b600260008484815181106112d057fe5b6020908102919091018101516001600160a01b03168252810191909152604001600020555b60010161121e565b505050565b60075481565b6113106119cf565b6000546001600160a01b03908116911614611372576040805162461bcd60e51b815260206004820181905260248201527f4f776e61626c653a2063616c6c6572206973206e6f7420746865206f776e6572604482015290519081900360640190fd5b60005b8151811015610fdd57426002600084848151811061138f57fe5b60200260200101516001600160a01b03166001600160a01b03168152602001908152602001600020600101819055508080600101915050611375565b7f000000000000000000000000000000000000000000000000000000000000000081565b6113f76119cf565b6000546001600160a01b03908116911614611459576040805162461bcd60e51b815260206004820181905260248201527f4f776e61626c653a2063616c6c6572206973206e6f7420746865206f776e6572604482015290519081900360640190fd5b610fa081106114995760405162461bcd60e51b81526004018080602001828103825260288152602001806122786028913960400191505060405180910390fd5b600755565b6114a66119cf565b6000546001600160a01b03908116911614611508576040805162461bcd60e51b815260206004820181905260248201527f4f776e61626c653a2063616c6c6572206973206e6f7420746865206f776e6572604482015290519081900360640190fd5b6001600160a01b038116600090815260026020526040902054821115611575576040805162461bcd60e51b815260206004820152601d60248201527f626574206c657373207468616e20616d6f756e74207769746864726177000000604482015290519081900360640190fd5b6001600160a01b03811660009081526002602052604090205461159e908363ffffffff611ac416565b6001600160a01b03821660008181526002602052604080822093909355915184927f884edad9ce6fa2440d8a54cc123490eb96d2768479d49ff9c7366125a942436491a3600061160b6127106115ff60075486611cc390919063ffffffff16565b9063ffffffff611d1c16565b905061161d838263ffffffff611ac416565b60065490935061165a906001600160a01b037f00000000000000000000000000000000000000000000000000000000000000008116911683611b06565b6112fd6001600160a01b037f000000000000000000000000000000000000000000000000000000000000000016838563ffffffff611b0616565b6002602052600090815260409020805460019091015482565b6116b56119cf565b6000546001600160a01b03908116911614611717576040805162461bcd60e51b815260206004820181905260248201527f4f776e61626c653a2063616c6c6572206973206e6f7420746865206f776e6572604482015290519081900360640190fd5b80518251146117575760405162461bcd60e51b815260040180806020018281038252602181526020018061220d6021913960400191505060405180910390fd5b60005b81518110156112fd5760035483516001600160a01b03909116906361433d889085908490811061178657fe5b602002602001015184848151811061179a57fe5b60200260200101516040518363ffffffff1660e01b815260040180838152602001826001600160a01b03166001600160a01b0316815260200192505050600060405180830381600087803b1580156117f157600080fd5b505af1158015611805573d6000803e3d6000fd5b50506001909201915061175a9050565b61181d6119cf565b6000546001600160a01b0390811691161461187f576040805162461bcd60e51b815260206004820181905260248201527f4f776e61626c653a2063616c6c6572206973206e6f7420746865206f776e6572604482015290519081900360640190fd5b61188881611d5e565b50565b6003546001600160a01b03163314806118ae57506004546001600160a01b031633145b6118e95760405162461bcd60e51b81526004018080602001828103825260278152602001806122a06027913960400191505060405180910390fd5b6001600160a01b038116600090815260026020526040902054611912908363ffffffff611a6116565b6001600160a01b0390911660009081526002602052604090205550565b6006546001600160a01b031681565b6119466119cf565b6000546001600160a01b039081169116146119a8576040805162461bcd60e51b815260206004820181905260248201527f4f776e61626c653a2063616c6c6572206973206e6f7420746865206f776e6572604482015290519081900360640190fd5b6001600160a01b03166000908152600160208190526040909120805460ff19169091179055565b3390565b604080516001600160a01b0380861660248301528416604482015260648082018490528251808303909101815260849091019091526020810180517bffffffffffffffffffffffffffffffffffffffffffffffffffffffff167f23b872dd00000000000000000000000000000000000000000000000000000000179052611a5b908590611e0b565b50505050565b600082820183811015611abb576040805162461bcd60e51b815260206004820152601b60248201527f536166654d6174683a206164646974696f6e206f766572666c6f770000000000604482015290519081900360640190fd5b90505b92915050565b6000611abb83836040518060400160405280601e81526020017f536166654d6174683a207375627472616374696f6e206f766572666c6f770000815250611ebc565b604080516001600160a01b038416602482015260448082018490528251808303909101815260649091019091526020810180517bffffffffffffffffffffffffffffffffffffffffffffffffffffffff167fa9059cbb000000000000000000000000000000000000000000000000000000001790526112fd908490611e0b565b600354604080517f095ea7b30000000000000000000000000000000000000000000000000000000081526001600160a01b0392831660048201526024810184905290517f00000000000000000000000000000000000000000000000000000000000000009092169163095ea7b3916044808201926020929091908290030181600087803b158015611c1657600080fd5b505af1158015611c2a573d6000803e3d6000fd5b505050506040513d6020811015611c4057600080fd5b5050600354604080517fc2e50b160000000000000000000000000000000000000000000000000000000081526004810184905290516001600160a01b039092169163c2e50b169160248082019260009290919082900301818387803b158015611ca857600080fd5b505af1158015611cbc573d6000803e3d6000fd5b5050505050565b600082611cd257506000611abe565b82820282848281611cdf57fe5b0414611abb5760405162461bcd60e51b81526004018080602001828103825260218152602001806122576021913960400191505060405180910390fd5b6000611abb83836040518060400160405280601a81526020017f536166654d6174683a206469766973696f6e206279207a65726f000000000000815250611f53565b6001600160a01b038116611da35760405162461bcd60e51b81526004018080602001828103825260268152602001806121e76026913960400191505060405180910390fd5b600080546040516001600160a01b03808516939216917f8be0079c531659141344cd1fd0a4f28419497f9722a3daafe3b4186f6b6457e091a36000805473ffffffffffffffffffffffffffffffffffffffff19166001600160a01b0392909216919091179055565b6060611e60826040518060400160405280602081526020017f5361666542455032303a206c6f772d6c6576656c2063616c6c206661696c6564815250856001600160a01b0316611fb89092919063ffffffff16565b8051909150156112fd57808060200190516020811015611e7f57600080fd5b50516112fd5760405162461bcd60e51b815260040180806020018281038252602a8152602001806121bd602a913960400191505060405180910390fd5b60008184841115611f4b5760405162461bcd60e51b81526004018080602001828103825283818151815260200191508051906020019080838360005b83811015611f10578181015183820152602001611ef8565b50505050905090810190601f168015611f3d5780820380516001836020036101000a031916815260200191505b509250505060405180910390fd5b505050900390565b60008183611fa25760405162461bcd60e51b8152602060048201818152835160248401528351909283926044909101919085019080838360008315611f10578181015183820152602001611ef8565b506000838581611fae57fe5b0495945050505050565b6060611fc78484600085611fcf565b949350505050565b6060611fda8561215a565b61202b576040805162461bcd60e51b815260206004820152601d60248201527f416464726573733a2063616c6c20746f206e6f6e2d636f6e7472616374000000604482015290519081900360640190fd5b60006060866001600160a01b031685876040518082805190602001908083835b6020831061208857805182527fffffffffffffffffffffffffffffffffffffffffffffffffffffffffffffffe0909201916020918201910161204b565b6001836020036101000a03801982511681845116808217855250505050505090500191505060006040518083038185875af1925050503d80600081146120ea576040519150601f19603f3d011682016040523d82523d6000602084013e6120ef565b606091505b50915091508115612103579150611fc79050565b8051156121135780518082602001fd5b60405162461bcd60e51b8152602060048201818152865160248401528651879391928392604401919085019080838360008315611f10578181015183820152602001611ef8565b6000813f7fc5d2460186f7233c927e7db2dcc703c0e500b653ca82273b7bfad8045d85a470818114801590611fc757505015159291505056fe42657420416d6f756e74206c6f636b65642c20706c656173652074727920616761696e206c617465725361666542455032303a204245503230206f7065726174696f6e20646964206e6f7420737563636565644f776e61626c653a206e6577206f776e657220697320746865207a65726f2061646472657373506172616d65746572206c656e677468732073686f756c6420626520657175616c4c6f636b20706572696f642063616e6e6f742062652067726561746572207468616e2031207765656b536166654d6174683a206d756c7469706c69636174696f6e206f766572666c6f774561726c7920776974686472617720666565206d757374206265206c657373207468616e2034302543616c6c6572206d7573742062652062616e6b726f6c6c206f72207374616b696e6720706f6f6c42657420616d6f756e742073686f756c642062652067726561746572207468616e2030a26469706673582212202d42500adc486009e22e71ff3a23d08ef74a68d9e4eedf3dede7a35af390ad0464736f6c63430006050033",
  "immutableReferences": {
    "1191": [
      {
        "length": 32,
        "start": 2888
      },
      {
        "length": 32,
        "start": 3697
      },
      {
        "length": 32,
        "start": 4364
      },
      {
        "length": 32,
        "start": 5069
      },
      {
        "length": 32,
        "start": 5681
      },
      {
        "length": 32,
        "start": 5735
      },
      {
        "length": 32,
        "start": 7115
      }
    ]
  },
  "source": "//SPDX-License-Identifier: MIT\npragma solidity >=0.6.5;\nimport \"@pancakeswap/pancake-swap-lib/contracts/access/Ownable.sol\";\nimport \"./CrushCoin.sol\";\nimport \"./HouseBankroll.sol\";\nimport \"./staking.sol\";\nimport \"@pancakeswap/pancake-swap-lib/contracts/token/BEP20/SafeBEP20.sol\";\nimport \"@pancakeswap/pancake-swap-lib/contracts/math/SafeMath.sol\";\ncontract BitcrushLiveWallet is Ownable {\n    using SafeMath for uint256;\n    using SafeBEP20 for CRUSHToken;\n    struct wallet {\n        //rename to balance\n        uint256 balance;\n        uint256 lockTimeStamp;\n    }\n    \n    \n    mapping (address => bool) public blacklistedUsers;\n    //mapping users address with bet amount\n    mapping (address => wallet) public betAmounts;\n    \n    //address of the crush token\n    CRUSHToken public immutable crush;\n    BitcrushBankroll public bankroll;\n    BitcrushStaking public stakingPool;\n    \n    \n    uint256 constant public DIVISOR = 10000;\n    uint256 public lockPeriod = 10800;\n    address public reserveAddress;\n    uint256  public earlyWithdrawFee         = 50; // 50/10000 * 100 = 0.5% \n    \n    event Withdraw (address indexed _address, uint256 indexed _amount);\n    event Deposit (address indexed _address, uint256 indexed _amount);\n    event LockPeriodUpdated (uint256 indexed _lockPeriod);\n\n    constructor (CRUSHToken _crush, BitcrushBankroll _bankroll, address _reserveAddress) public {\n        crush = _crush;\n        bankroll = _bankroll;\n        reserveAddress = _reserveAddress;\n    }\n\n    /// add funds to the senders live wallet \n    /// @dev adds funds to the sender user's live wallets\n    function addbet (uint256 _amount) public {\n        require(_amount > 0, \"Bet amount should be greater than 0\");\n        require(blacklistedUsers[msg.sender] == false, \"User is black Listed\");\n        crush.safeTransferFrom(msg.sender, address(this), _amount);\n        betAmounts[msg.sender].balance = betAmounts[msg.sender].balance.add(_amount);\n        betAmounts[msg.sender].lockTimeStamp = block.timestamp;\n        emit Deposit(msg.sender, _amount);\n        \n    }\n\n    /// add funds to the provided users live wallet \n    /// @dev adds funds to the specified users live wallets\n    function addbetWithAddress (uint256 _amount, address _user) public {\n        require(_amount > 0, \"Bet amount should be greater than 0\");\n        require(blacklistedUsers[_user] == false, \"User is black Listed\");\n        crush.safeTransferFrom(msg.sender, address(this), _amount);\n        betAmounts[_user].balance = betAmounts[_user].balance.add(_amount);\n        betAmounts[_user].lockTimeStamp = block.timestamp;\n        emit Deposit(_user, _amount);\n    }\n\n    /// return the current balance of user in the live wallet\n    /// @dev return current the balance of provided user addrss in the live wallet\n    function balanceOf ( address _user) public view returns (uint256){\n        return betAmounts[_user].balance;\n    }\n\n    /// register wins for users in game with amounts\n    /// @dev register wins for users during gameplay. wins are reported in aggregated form from the game server.\n    function registerWin (uint256[] memory _wins, address[] memory _users) public onlyOwner {\n        require (_wins.length == _users.length, \"Parameter lengths should be equal\");\n        for(uint256 i=0; i < _users.length; i++){\n                bankroll.payOutUserWinning(_wins[i], _users[i]);\n        }\n    }\n    \n    /// register loss for users in game with amounts\n    /// @dev register loss for users during gameplay. loss is reported in aggregated form from the game server.\n    function registerLoss (uint256[] memory _bets, address[] memory _users) public onlyOwner {\n        require (_bets.length == _users.length, \"Parameter lengths should be equal\");\n        for(uint256 i=0; i < _users.length; i++){\n            if(_bets[i] > 0){\n            transferToBankroll(_bets[i]);\n            betAmounts[_users[i]].balance = betAmounts[_users[i]].balance.sub(_bets[i]);\n            }\n            \n        }\n    }\n\n    /// transfer funds from live wallet to the bankroll on user loss\n    /// @dev transfer funds to the bankroll contract when users lose in game\n    function transferToBankroll (uint256 _amount) internal { \n        crush.approve(address(bankroll), _amount);\n        bankroll.addUserLoss(_amount);       \n    }\n\n    /// withdraw funds from live wallet of the senders address\n    /// @dev withdraw amount from users wallet if betlock isnt enabled\n    function withdrawBet(uint256 _amount) public {\n        require(betAmounts[msg.sender].balance >= _amount, \"bet less than amount withdraw\");\n        require(betAmounts[msg.sender].lockTimeStamp == 0 || betAmounts[msg.sender].lockTimeStamp.add(lockPeriod) < block.timestamp, \"Bet Amount locked, please try again later\");\n        betAmounts[msg.sender].balance = betAmounts[msg.sender].balance.sub(_amount);\n        crush.safeTransfer(msg.sender, _amount);\n        emit Withdraw(msg.sender, _amount);\n    }\n\n    /// owner only function to override timelock and withdraw funds on behalf of user\n    /// @dev withdraw preapproved amount from users wallet sidestepping the timelock on withdrawals\n    function withdrawBetForUser(uint256 _amount, address _user) public onlyOwner {\n        require(betAmounts[_user].balance >= _amount, \"bet less than amount withdraw\");\n        betAmounts[_user].balance = betAmounts[_user].balance.sub(_amount);\n        emit Withdraw(_user, _amount);\n        uint256 withdrawalFee = _amount.mul(earlyWithdrawFee).div(DIVISOR);\n        _amount = _amount.sub(withdrawalFee);\n        crush.safeTransfer(reserveAddress, withdrawalFee);\n        crush.safeTransfer(_user, _amount);\n        \n        \n    }\n\n    /// add funds to the users live wallet on wins by either the bankroll or the staking pool\n    /// @dev add funds to the users live wallet as winnings\n    function addToUserWinnings (uint256 _amount, address _user) public {\n        require(msg.sender == address(bankroll)  || msg.sender == address(stakingPool) ,\"Caller must be bankroll or staking pool\");\n        betAmounts[_user].balance = betAmounts[_user].balance.add(_amount);\n\n    }\n    \n    /// update the lockTimeStamp of provided users to current timestamp to prevent withdraws\n    /// @dev update bet lock to prevent withdraws during gameplay\n    function updateBetLock (address[] memory _users) public onlyOwner {\n        for(uint256 i=0; i < _users.length; i++){\n            betAmounts[_users[i]].lockTimeStamp = block.timestamp;\n        }\n        \n    }\n    /// update the lockTimeStamp of provided users to 0 to allow withdraws\n    /// @dev update bet lock to allow withdraws after gameplay\n    function releaseBetLock (address[] memory _users) public onlyOwner {\n        for(uint256 i=0; i < _users.length; i++){\n            betAmounts[_users[i]].lockTimeStamp = 0;\n        }\n    }\n\n    /// blacklist specified address from adding more funds to the pool\n    /// @dev prevent specified address from adding funds to the live wallet\n    function blacklistUser (address _address) public onlyOwner {\n        blacklistedUsers[_address] = true;\n    }\n\n    /// whitelist sender address from adding more funds to the pool\n    /// @dev allow previously blacklisted sender address to add funds to the live wallet\n    function whitelistUser (address _address) public onlyOwner {\n        delete blacklistedUsers[_address];\n    }\n\n    /// blacklist sender address from adding more funds to the pool\n    /// @dev prevent sender address from adding funds to the live wallet\n    function blacklistSelf () public  {\n        blacklistedUsers[msg.sender] = true;\n    }\n\n\n    /// Store `_lockPeriod`.\n    /// @param _lockPeriod the new value to store\n    /// @dev stores the _lockPeriod in the state variable `lockPeriod`\n    function setLockPeriod (uint256 _lockPeriod) public onlyOwner {\n        require(_lockPeriod <= 604800, \"Lock period cannot be greater than 1 week\");\n        lockPeriod = _lockPeriod;\n        emit LockPeriodUpdated(lockPeriod);\n    }\n\n    /// Store `_reserveAddress`.\n    /// @param _reserveAddress the new value to store\n    /// @dev stores the _reserveAddress in the state variable `reserveAddress`\n    function setReserveAddress (address _reserveAddress) public onlyOwner {\n        reserveAddress = _reserveAddress;\n    }\n\n    /// Store `_earlyWithdrawFee`.\n    /// @param _earlyWithdrawFee the new value to store\n    /// @dev stores the _earlyWithdrawFee in the state variable `earlyWithdrawFee`\n    function setEarlyWithdrawFee (uint256 _earlyWithdrawFee ) public onlyOwner {\n        require(_earlyWithdrawFee < 4000, \"Early withdraw fee must be less than 40%\");\n        earlyWithdrawFee = _earlyWithdrawFee;\n    }\n\n   \n\n    /// Store `_stakingPool`.\n    /// @param _stakingPool the new value to store\n    /// @dev stores the _stakingPool address in the state variable `stakingPool`\n    function setStakingPool (BitcrushStaking _stakingPool) public onlyOwner {\n        require(stakingPool == BitcrushStaking(0x0), \"staking pool address already set\");\n        stakingPool = _stakingPool;\n    }\n\n}",
  "sourcePath": "/home/jman/crypto/bitcrush/contracts/crush_contracts/contracts/LiveWallet.sol",
  "compiler": {
    "name": "solc",
    "version": "0.6.5+commit.f956cc89.Emscripten.clang"
  },
  "schemaVersion": "3.4.0",
  "updatedAt": "2021-11-07T15:50:41.078Z",
  "devdoc": {
    "methods": {
      "addToUserWinnings(uint256,address)": {
        "details": "add funds to the users live wallet as winnings"
      },
      "addbet(uint256)": {
        "details": "adds funds to the sender user's live wallets"
      },
      "addbetWithAddress(uint256,address)": {
        "details": "adds funds to the specified users live wallets"
      },
      "balanceOf(address)": {
        "details": "return current the balance of provided user addrss in the live wallet"
      },
      "blacklistSelf()": {
        "details": "prevent sender address from adding funds to the live wallet"
      },
      "blacklistUser(address)": {
        "details": "prevent specified address from adding funds to the live wallet"
      },
      "owner()": {
        "details": "Returns the address of the current owner."
      },
      "registerLoss(uint256[],address[])": {
        "details": "register loss for users during gameplay. loss is reported in aggregated form from the game server."
      },
      "registerWin(uint256[],address[])": {
        "details": "register wins for users during gameplay. wins are reported in aggregated form from the game server."
      },
      "releaseBetLock(address[])": {
        "details": "update bet lock to allow withdraws after gameplay"
      },
      "renounceOwnership()": {
        "details": "Leaves the contract without owner. It will not be possible to call `onlyOwner` functions anymore. Can only be called by the current owner.     * NOTE: Renouncing ownership will leave the contract without an owner, thereby removing any functionality that is only available to the owner."
      },
      "setEarlyWithdrawFee(uint256)": {
        "details": "stores the _earlyWithdrawFee in the state variable `earlyWithdrawFee`",
        "params": {
          "_earlyWithdrawFee": "the new value to store"
        }
      },
      "setLockPeriod(uint256)": {
        "details": "stores the _lockPeriod in the state variable `lockPeriod`",
        "params": {
          "_lockPeriod": "the new value to store"
        }
      },
      "setReserveAddress(address)": {
        "details": "stores the _reserveAddress in the state variable `reserveAddress`",
        "params": {
          "_reserveAddress": "the new value to store"
        }
      },
      "setStakingPool(address)": {
        "details": "stores the _stakingPool address in the state variable `stakingPool`",
        "params": {
          "_stakingPool": "the new value to store"
        }
      },
      "transferOwnership(address)": {
        "details": "Transfers ownership of the contract to a new account (`newOwner`). Can only be called by the current owner."
      },
      "updateBetLock(address[])": {
        "details": "update bet lock to prevent withdraws during gameplay"
      },
      "whitelistUser(address)": {
        "details": "allow previously blacklisted sender address to add funds to the live wallet"
      },
      "withdrawBet(uint256)": {
        "details": "withdraw amount from users wallet if betlock isnt enabled"
      },
      "withdrawBetForUser(uint256,address)": {
        "details": "withdraw preapproved amount from users wallet sidestepping the timelock on withdrawals"
      }
    }
  },
  "userdoc": {
    "methods": {
      "addToUserWinnings(uint256,address)": {
        "notice": "add funds to the users live wallet on wins by either the bankroll or the staking pool"
      },
      "addbet(uint256)": {
        "notice": "add funds to the senders live wallet "
      },
      "addbetWithAddress(uint256,address)": {
        "notice": "add funds to the provided users live wallet "
      },
      "balanceOf(address)": {
        "notice": "return the current balance of user in the live wallet"
      },
      "blacklistSelf()": {
        "notice": "blacklist sender address from adding more funds to the pool"
      },
      "blacklistUser(address)": {
        "notice": "blacklist specified address from adding more funds to the pool"
      },
      "registerLoss(uint256[],address[])": {
        "notice": "register loss for users in game with amounts"
      },
      "registerWin(uint256[],address[])": {
        "notice": "register wins for users in game with amounts"
      },
      "releaseBetLock(address[])": {
        "notice": "update the lockTimeStamp of provided users to 0 to allow withdraws"
      },
      "setEarlyWithdrawFee(uint256)": {
        "notice": "Store `_earlyWithdrawFee`."
      },
      "setLockPeriod(uint256)": {
        "notice": "Store `_lockPeriod`."
      },
      "setReserveAddress(address)": {
        "notice": "Store `_reserveAddress`."
      },
      "setStakingPool(address)": {
        "notice": "Store `_stakingPool`."
      },
      "updateBetLock(address[])": {
        "notice": "update the lockTimeStamp of provided users to current timestamp to prevent withdraws"
      },
      "whitelistUser(address)": {
        "notice": "whitelist sender address from adding more funds to the pool"
      },
      "withdrawBet(uint256)": {
        "notice": "withdraw funds from live wallet of the senders address"
      },
      "withdrawBetForUser(uint256,address)": {
        "notice": "owner only function to override timelock and withdraw funds on behalf of user"
      }
    }
  }
}