{
  "contractName": "BitcrushLiveWallet",
  "abi": [
    {
      "inputs": [
        {
          "internalType": "contract CRUSHToken",
          "name": "_crush",
          "type": "address"
        },
        {
          "internalType": "contract BitcrushBankroll",
          "name": "_bankroll",
          "type": "address"
        },
        {
          "internalType": "address",
          "name": "_reserveAddress",
          "type": "address"
        }
      ],
      "stateMutability": "nonpayable",
      "type": "constructor"
    },
    {
      "anonymous": false,
      "inputs": [
        {
          "indexed": true,
          "internalType": "address",
          "name": "_address",
          "type": "address"
        },
        {
          "indexed": true,
          "internalType": "uint256",
          "name": "_amount",
          "type": "uint256"
        }
      ],
      "name": "Deposit",
      "type": "event"
    },
    {
      "anonymous": false,
      "inputs": [
        {
          "indexed": true,
          "internalType": "uint256",
          "name": "_lockPeriod",
          "type": "uint256"
        }
      ],
      "name": "LockPeriodUpdated",
      "type": "event"
    },
    {
      "anonymous": false,
      "inputs": [
        {
          "indexed": true,
          "internalType": "address",
          "name": "previousOwner",
          "type": "address"
        },
        {
          "indexed": true,
          "internalType": "address",
          "name": "newOwner",
          "type": "address"
        }
      ],
      "name": "OwnershipTransferred",
      "type": "event"
    },
    {
      "anonymous": false,
      "inputs": [
        {
          "indexed": true,
          "internalType": "address",
          "name": "_address",
          "type": "address"
        },
        {
          "indexed": true,
          "internalType": "uint256",
          "name": "_amount",
          "type": "uint256"
        }
      ],
      "name": "Withdraw",
      "type": "event"
    },
    {
      "inputs": [],
      "name": "DIVISOR",
      "outputs": [
        {
          "internalType": "uint256",
          "name": "",
          "type": "uint256"
        }
      ],
      "stateMutability": "view",
      "type": "function",
      "constant": true
    },
    {
      "inputs": [],
      "name": "bankroll",
      "outputs": [
        {
          "internalType": "contract BitcrushBankroll",
          "name": "",
          "type": "address"
        }
      ],
      "stateMutability": "view",
      "type": "function",
      "constant": true
    },
    {
      "inputs": [
        {
          "internalType": "address",
          "name": "",
          "type": "address"
        }
      ],
      "name": "betAmounts",
      "outputs": [
        {
          "internalType": "uint256",
          "name": "balance",
          "type": "uint256"
        },
        {
          "internalType": "uint256",
          "name": "lockTimeStamp",
          "type": "uint256"
        }
      ],
      "stateMutability": "view",
      "type": "function",
      "constant": true
    },
    {
      "inputs": [
        {
          "internalType": "address",
          "name": "",
          "type": "address"
        }
      ],
      "name": "blacklistedUsers",
      "outputs": [
        {
          "internalType": "bool",
          "name": "",
          "type": "bool"
        }
      ],
      "stateMutability": "view",
      "type": "function",
      "constant": true
    },
    {
      "inputs": [],
      "name": "crush",
      "outputs": [
        {
          "internalType": "contract CRUSHToken",
          "name": "",
          "type": "address"
        }
      ],
      "stateMutability": "view",
      "type": "function",
      "constant": true
    },
    {
      "inputs": [],
      "name": "earlyWithdrawFee",
      "outputs": [
        {
          "internalType": "uint256",
          "name": "",
          "type": "uint256"
        }
      ],
      "stateMutability": "view",
      "type": "function",
      "constant": true
    },
    {
      "inputs": [],
      "name": "lockPeriod",
      "outputs": [
        {
          "internalType": "uint256",
          "name": "",
          "type": "uint256"
        }
      ],
      "stateMutability": "view",
      "type": "function",
      "constant": true
    },
    {
      "inputs": [],
      "name": "lossBurn",
      "outputs": [
        {
          "internalType": "uint256",
          "name": "",
          "type": "uint256"
        }
      ],
      "stateMutability": "view",
      "type": "function",
      "constant": true
    },
    {
      "inputs": [],
      "name": "owner",
      "outputs": [
        {
          "internalType": "address",
          "name": "",
          "type": "address"
        }
      ],
      "stateMutability": "view",
      "type": "function",
      "constant": true
    },
    {
      "inputs": [],
      "name": "renounceOwnership",
      "outputs": [],
      "stateMutability": "nonpayable",
      "type": "function"
    },
    {
      "inputs": [],
      "name": "reserveAddress",
      "outputs": [
        {
          "internalType": "address",
          "name": "",
          "type": "address"
        }
      ],
      "stateMutability": "view",
      "type": "function",
      "constant": true
    },
    {
      "inputs": [],
      "name": "stakingPool",
      "outputs": [
        {
          "internalType": "contract BitcrushStaking",
          "name": "",
          "type": "address"
        }
      ],
      "stateMutability": "view",
      "type": "function",
      "constant": true
    },
    {
      "inputs": [
        {
          "internalType": "address",
          "name": "newOwner",
          "type": "address"
        }
      ],
      "name": "transferOwnership",
      "outputs": [],
      "stateMutability": "nonpayable",
      "type": "function"
    },
    {
      "inputs": [
        {
          "internalType": "uint256",
          "name": "_amount",
          "type": "uint256"
        }
      ],
      "name": "addbet",
      "outputs": [],
      "stateMutability": "nonpayable",
      "type": "function"
    },
    {
      "inputs": [
        {
          "internalType": "uint256",
          "name": "_amount",
          "type": "uint256"
        },
        {
          "internalType": "address",
          "name": "_user",
          "type": "address"
        }
      ],
      "name": "addbetWithAddress",
      "outputs": [],
      "stateMutability": "nonpayable",
      "type": "function"
    },
    {
      "inputs": [
        {
          "internalType": "address",
          "name": "_user",
          "type": "address"
        }
      ],
      "name": "balanceOf",
      "outputs": [
        {
          "internalType": "uint256",
          "name": "",
          "type": "uint256"
        }
      ],
      "stateMutability": "view",
      "type": "function",
      "constant": true
    },
    {
      "inputs": [
        {
          "internalType": "uint256[]",
          "name": "_wins",
          "type": "uint256[]"
        },
        {
          "internalType": "address[]",
          "name": "_users",
          "type": "address[]"
        }
      ],
      "name": "registerWin",
      "outputs": [],
      "stateMutability": "nonpayable",
      "type": "function"
    },
    {
      "inputs": [
        {
          "internalType": "uint256[]",
          "name": "_bets",
          "type": "uint256[]"
        },
        {
          "internalType": "address[]",
          "name": "_users",
          "type": "address[]"
        }
      ],
      "name": "registerLoss",
      "outputs": [],
      "stateMutability": "nonpayable",
      "type": "function"
    },
    {
      "inputs": [
        {
          "internalType": "uint256",
          "name": "_amount",
          "type": "uint256"
        }
      ],
      "name": "withdrawBet",
      "outputs": [],
      "stateMutability": "nonpayable",
      "type": "function"
    },
    {
      "inputs": [
        {
          "internalType": "uint256",
          "name": "_amount",
          "type": "uint256"
        },
        {
          "internalType": "address",
          "name": "_user",
          "type": "address"
        }
      ],
      "name": "withdrawBetForUser",
      "outputs": [],
      "stateMutability": "nonpayable",
      "type": "function"
    },
    {
      "inputs": [
        {
          "internalType": "uint256",
          "name": "_amount",
          "type": "uint256"
        },
        {
          "internalType": "address",
          "name": "_user",
          "type": "address"
        }
      ],
      "name": "addToUserWinnings",
      "outputs": [],
      "stateMutability": "nonpayable",
      "type": "function"
    },
    {
      "inputs": [
        {
          "internalType": "address[]",
          "name": "_users",
          "type": "address[]"
        }
      ],
      "name": "updateBetLock",
      "outputs": [],
      "stateMutability": "nonpayable",
      "type": "function"
    },
    {
      "inputs": [
        {
          "internalType": "address[]",
          "name": "_users",
          "type": "address[]"
        }
      ],
      "name": "releaseBetLock",
      "outputs": [],
      "stateMutability": "nonpayable",
      "type": "function"
    },
    {
      "inputs": [
        {
          "internalType": "address",
          "name": "_address",
          "type": "address"
        }
      ],
      "name": "blacklistUser",
      "outputs": [],
      "stateMutability": "nonpayable",
      "type": "function"
    },
    {
      "inputs": [
        {
          "internalType": "address",
          "name": "_address",
          "type": "address"
        }
      ],
      "name": "whitelistUser",
      "outputs": [],
      "stateMutability": "nonpayable",
      "type": "function"
    },
    {
      "inputs": [],
      "name": "blacklistSelf",
      "outputs": [],
      "stateMutability": "nonpayable",
      "type": "function"
    },
    {
      "inputs": [
        {
          "internalType": "uint256",
          "name": "_lossBurn",
          "type": "uint256"
        }
      ],
      "name": "setLossBurn",
      "outputs": [],
      "stateMutability": "nonpayable",
      "type": "function"
    },
    {
      "inputs": [
        {
          "internalType": "uint256",
          "name": "_lockPeriod",
          "type": "uint256"
        }
      ],
      "name": "setLockPeriod",
      "outputs": [],
      "stateMutability": "nonpayable",
      "type": "function"
    },
    {
      "inputs": [
        {
          "internalType": "address",
          "name": "_reserveAddress",
          "type": "address"
        }
      ],
      "name": "setReserveAddress",
      "outputs": [],
      "stateMutability": "nonpayable",
      "type": "function"
    },
    {
      "inputs": [
        {
          "internalType": "uint256",
          "name": "_earlyWithdrawFee",
          "type": "uint256"
        }
      ],
      "name": "setEarlyWithdrawFee",
      "outputs": [],
      "stateMutability": "nonpayable",
      "type": "function"
    },
    {
      "inputs": [
        {
          "internalType": "contract BitcrushBankroll",
          "name": "_bankRoll",
          "type": "address"
        }
      ],
      "name": "setBitcrushBankroll",
      "outputs": [],
      "stateMutability": "nonpayable",
      "type": "function"
    },
    {
      "inputs": [
        {
          "internalType": "contract BitcrushStaking",
          "name": "_stakingPool",
          "type": "address"
        }
      ],
      "name": "setStakingPool",
      "outputs": [],
      "stateMutability": "nonpayable",
      "type": "function"
    }
  ],
  "bytecode": "0x6080604052600a600655612a30600755603260095534801561002057600080fd5b506040516122153803806122158339818101604052606081101561004357600080fd5b508051602082015160409092015190919060006100676001600160e01b036100f316565b600080546001600160a01b0319166001600160a01b0383169081178255604051929350917f8be0079c531659141344cd1fd0a4f28419497f9722a3daafe3b4186f6b6457e0908290a350600380546001600160a01b039485166001600160a01b0319918216179091556004805493851693821693909317909255600880549190931691161790556100f7565b3390565b61210f806101066000396000f3fe608060405234801561001057600080fd5b50600436106101f05760003560e01c8063871ee71c1161010f578063c22982f4116100a2578063f2fde38b11610071578063f2fde38b14610829578063f62cf8d01461084f578063f79ed94b1461087b578063fcbca45614610883576101f0565b8063c22982f41461067a578063d4b9661c14610697578063ebcfcf6b146106c3578063f2150bbb14610702576101f0565b8063a80a7882116100de578063a80a7882146105aa578063afb62d70146105b2578063b359a9f914610655578063c025247d1461065d576101f0565b8063871ee71c146104385780638da5cb5b1461045e578063a2b1a2cc14610466578063a4ae1c5614610483576101f0565b80636145b22c11610187578063723ea11511610156578063723ea11514610344578063779972da1461034c5780637efd381314610369578063815b738614610395576101f0565b80636145b22c146102f157806370a082311461030e578063715018a614610334578063720fe1fd1461033c576101f0565b80633028f63a116101c35780633028f63a146102835780633410fe6e146102a95780633fd8b02f146102c35780634a4c560d146102cb576101f0565b80630c56ae3b146101f55780630c657eb01461021957806314673d311461022157806322c0aec714610249575b600080fd5b6101fd6108a9565b604080516001600160a01b039092168252519081900360200190f35b6101fd6108b8565b6102476004803603602081101561023757600080fd5b50356001600160a01b03166108c7565b005b61026f6004803603602081101561025f57600080fd5b50356001600160a01b0316610960565b604080519115158252519081900360200190f35b6102476004803603602081101561029957600080fd5b50356001600160a01b0316610975565b6102b1610a0e565b60408051918252519081900360200190f35b6102b1610a14565b610247600480360360208110156102e157600080fd5b50356001600160a01b0316610a1a565b6102476004803603602081101561030757600080fd5b5035610aa5565b6102b16004803603602081101561032457600080fd5b50356001600160a01b0316610c4f565b610247610c6a565b6102b1610d2b565b610247610d31565b6102476004803603602081101561036257600080fd5b5035610d50565b6102476004803603604081101561037f57600080fd5b50803590602001356001600160a01b0316610ded565b610247600480360360208110156103ab57600080fd5b8101906020810181356401000000008111156103c657600080fd5b8201836020820111156103d857600080fd5b803590602001918460208302840111640100000000831117156103fa57600080fd5b919080806020026020016040519081016040528093929190818152602001838360200280828437600092019190915250929550610f7f945050505050565b6102476004803603602081101561044e57600080fd5b50356001600160a01b0316611047565b6101fd6110e0565b6102476004803603602081101561047c57600080fd5b50356110ef565b6102476004803603604081101561049957600080fd5b8101906020810181356401000000008111156104b457600080fd5b8201836020820111156104c657600080fd5b803590602001918460208302840111640100000000831117156104e857600080fd5b919080806020026020016040519081016040528093929190818152602001838360200280828437600092019190915250929594936020810193503591505064010000000081111561053857600080fd5b82018360208201111561054a57600080fd5b8035906020019184602083028401116401000000008311171561056c57600080fd5b9190808060200260200160405190810160405280939291908181526020018383602002808284376000920191909152509295506112b3945050505050565b6102b1611444565b610247600480360360208110156105c857600080fd5b8101906020810181356401000000008111156105e357600080fd5b8201836020820111156105f557600080fd5b8035906020019184602083028401116401000000008311171561061757600080fd5b91908080602002602001604051908101604052809392919081815260200183836020028082843760009201919091525092955061144a945050505050565b6101fd61150d565b6102476004803603602081101561067357600080fd5b503561151c565b6102476004803603602081101561069057600080fd5b50356115e0565b610247600480360360408110156106ad57600080fd5b50803590602001356001600160a01b031661164f565b6106e9600480360360208110156106d957600080fd5b50356001600160a01b03166118dc565b6040805192835260208301919091528051918290030190f35b6102476004803603604081101561071857600080fd5b81019060208101813564010000000081111561073357600080fd5b82018360208201111561074557600080fd5b8035906020019184602083028401116401000000008311171561076757600080fd5b91908080602002602001604051908101604052809392919081815260200183836020028082843760009201919091525092959493602081019350359150506401000000008111156107b757600080fd5b8201836020820111156107c957600080fd5b803590602001918460208302840111640100000000831117156107eb57600080fd5b9190808060200260200160405190810160405280939291908181526020018383602002808284376000920191909152509295506118f5945050505050565b6102476004803603602081101561083f57600080fd5b50356001600160a01b0316611a5d565b6102476004803603604081101561086557600080fd5b50803590602001356001600160a01b0316611ad3565b6101fd611b5a565b6102476004803603602081101561089957600080fd5b50356001600160a01b0316611b69565b6005546001600160a01b031681565b6004546001600160a01b031681565b6108cf611bfa565b6000546001600160a01b03908116911614610931576040805162461bcd60e51b815260206004820181905260248201527f4f776e61626c653a2063616c6c6572206973206e6f7420746865206f776e6572604482015290519081900360640190fd5b6008805473ffffffffffffffffffffffffffffffffffffffff19166001600160a01b0392909216919091179055565b60016020526000908152604090205460ff1681565b61097d611bfa565b6000546001600160a01b039081169116146109df576040805162461bcd60e51b815260206004820181905260248201527f4f776e61626c653a2063616c6c6572206973206e6f7420746865206f776e6572604482015290519081900360640190fd5b6005805473ffffffffffffffffffffffffffffffffffffffff19166001600160a01b0392909216919091179055565b61271081565b60075481565b610a22611bfa565b6000546001600160a01b03908116911614610a84576040805162461bcd60e51b815260206004820181905260248201527f4f776e61626c653a2063616c6c6572206973206e6f7420746865206f776e6572604482015290519081900360640190fd5b6001600160a01b03166000908152600160205260409020805460ff19169055565b60008111610ae45760405162461bcd60e51b81526004018080602001828103825260238152602001806120b76023913960400191505060405180910390fd5b3360009081526001602052604090205460ff1615610b49576040805162461bcd60e51b815260206004820152601460248201527f5573657220697320626c61636b204c6973746564000000000000000000000000604482015290519081900360640190fd5b600354604080517f23b872dd0000000000000000000000000000000000000000000000000000000081523360048201523060248201526044810184905290516001600160a01b03909216916323b872dd916064808201926020929091908290030181600087803b158015610bbc57600080fd5b505af1158015610bd0573d6000803e3d6000fd5b505050506040513d6020811015610be657600080fd5b505033600090815260026020526040902054610c08908263ffffffff611bfe16565b3360008181526002602052604080822093845542600190940193909355915183927fe1fffcc4923d04b559f4d29a8bfc6cda04eb5b0d3c460751c2402c5c5cc9109c91a350565b6001600160a01b031660009081526002602052604090205490565b610c72611bfa565b6000546001600160a01b03908116911614610cd4576040805162461bcd60e51b815260206004820181905260248201527f4f776e61626c653a2063616c6c6572206973206e6f7420746865206f776e6572604482015290519081900360640190fd5b600080546040516001600160a01b03909116907f8be0079c531659141344cd1fd0a4f28419497f9722a3daafe3b4186f6b6457e0908390a36000805473ffffffffffffffffffffffffffffffffffffffff19169055565b60065481565b336000908152600160208190526040909120805460ff19169091179055565b610d58611bfa565b6000546001600160a01b03908116911614610dba576040805162461bcd60e51b815260206004820181905260248201527f4f776e61626c653a2063616c6c6572206973206e6f7420746865206f776e6572604482015290519081900360640190fd5b600781905560405181907f8249ec545e68f6f1e1230133ca48c704d831a7f8e635ded80f3dd9e99b09bb2f90600090a250565b60008211610e2c5760405162461bcd60e51b81526004018080602001828103825260238152602001806120b76023913960400191505060405180910390fd5b6001600160a01b03811660009081526001602052604090205460ff1615610e9a576040805162461bcd60e51b815260206004820152601460248201527f5573657220697320626c61636b204c6973746564000000000000000000000000604482015290519081900360640190fd5b600354604080517f23b872dd0000000000000000000000000000000000000000000000000000000081523360048201523060248201526044810185905290516001600160a01b03909216916323b872dd916064808201926020929091908290030181600087803b158015610f0d57600080fd5b505af1158015610f21573d6000803e3d6000fd5b505050506040513d6020811015610f3757600080fd5b50506001600160a01b038116600090815260026020526040902054610f62908363ffffffff611bfe16565b6001600160a01b0390911660009081526002602052604090205550565b610f87611bfa565b6000546001600160a01b03908116911614610fe9576040805162461bcd60e51b815260206004820181905260248201527f4f776e61626c653a2063616c6c6572206973206e6f7420746865206f776e6572604482015290519081900360640190fd5b60005b81518110156110435760006002600084848151811061100757fe5b60200260200101516001600160a01b03166001600160a01b03168152602001908152602001600020600101819055508080600101915050610fec565b5050565b61104f611bfa565b6000546001600160a01b039081169116146110b1576040805162461bcd60e51b815260206004820181905260248201527f4f776e61626c653a2063616c6c6572206973206e6f7420746865206f776e6572604482015290519081900360640190fd5b6004805473ffffffffffffffffffffffffffffffffffffffff19166001600160a01b0392909216919091179055565b6000546001600160a01b031690565b33600090815260026020526040902054811115611153576040805162461bcd60e51b815260206004820152601d60248201527f626574206c657373207468616e20616d6f756e74207769746864726177000000604482015290519081900360640190fd5b3360009081526002602052604090206001015415806111975750600754336000908152600260205260409020600101544291611195919063ffffffff611bfe16565b105b6111d25760405162461bcd60e51b8152600401808060200182810382526029815260200180611fff6029913960400191505060405180910390fd5b336000908152600260205260409020546111f2908263ffffffff611c6116565b33600081815260026020908152604080832094909455600354845163a9059cbb60e01b815260048101949094526024840186905293516001600160a01b039094169363a9059cbb93604480820194918390030190829087803b15801561125757600080fd5b505af115801561126b573d6000803e3d6000fd5b505050506040513d602081101561128157600080fd5b5050604051819033907f884edad9ce6fa2440d8a54cc123490eb96d2768479d49ff9c7366125a942436490600090a350565b6112bb611bfa565b6000546001600160a01b0390811691161461131d576040805162461bcd60e51b815260206004820181905260248201527f4f776e61626c653a2063616c6c6572206973206e6f7420746865206f776e6572604482015290519081900360640190fd5b805182511461135d5760405162461bcd60e51b815260040180806020018281038252602181526020018061204e6021913960400191505060405180910390fd5b60005b815181101561143f57600083828151811061137757fe5b60200260200101511115611437576113a183828151811061139457fe5b6020026020010151611ca3565b6114028382815181106113b057fe5b6020026020010151600260008585815181106113c857fe5b60200260200101516001600160a01b03166001600160a01b0316815260200190815260200160002060000154611c6190919063ffffffff16565b6002600084848151811061141257fe5b6020908102919091018101516001600160a01b03168252810191909152604001600020555b600101611360565b505050565b60095481565b611452611bfa565b6000546001600160a01b039081169116146114b4576040805162461bcd60e51b815260206004820181905260248201527f4f776e61626c653a2063616c6c6572206973206e6f7420746865206f776e6572604482015290519081900360640190fd5b60005b81518110156110435742600260008484815181106114d157fe5b60200260200101516001600160a01b03166001600160a01b031681526020019081526020016000206001018190555080806001019150506114b7565b6003546001600160a01b031681565b611524611bfa565b6000546001600160a01b03908116911614611586576040805162461bcd60e51b815260206004820181905260248201527f4f776e61626c653a2063616c6c6572206973206e6f7420746865206f776e6572604482015290519081900360640190fd5b600081116115db576040805162461bcd60e51b815260206004820152601360248201527f4c6f7373206275726e2063616e74206265203000000000000000000000000000604482015290519081900360640190fd5b600655565b6115e8611bfa565b6000546001600160a01b0390811691161461164a576040805162461bcd60e51b815260206004820181905260248201527f4f776e61626c653a2063616c6c6572206973206e6f7420746865206f776e6572604482015290519081900360640190fd5b600955565b611657611bfa565b6000546001600160a01b039081169116146116b9576040805162461bcd60e51b815260206004820181905260248201527f4f776e61626c653a2063616c6c6572206973206e6f7420746865206f776e6572604482015290519081900360640190fd5b6001600160a01b038116600090815260026020526040902054821115611726576040805162461bcd60e51b815260206004820152601d60248201527f626574206c657373207468616e20616d6f756e74207769746864726177000000604482015290519081900360640190fd5b6001600160a01b03811660009081526002602052604090205461174f908363ffffffff611c6116565b6001600160a01b03821660008181526002602052604080822093909355915184927f884edad9ce6fa2440d8a54cc123490eb96d2768479d49ff9c7366125a942436491a360006117bc6127106117b060095486611dba90919063ffffffff16565b9063ffffffff611e1316565b90506117ce838263ffffffff611c6116565b6003546008546040805163a9059cbb60e01b81526001600160a01b03928316600482015260248101869052905193965091169163a9059cbb916044808201926020929091908290030181600087803b15801561182957600080fd5b505af115801561183d573d6000803e3d6000fd5b505050506040513d602081101561185357600080fd5b50506003546040805163a9059cbb60e01b81526001600160a01b038581166004830152602482018790529151919092169163a9059cbb9160448083019260209291908290030181600087803b1580156118ab57600080fd5b505af11580156118bf573d6000803e3d6000fd5b505050506040513d60208110156118d557600080fd5b5050505050565b6002602052600090815260409020805460019091015482565b6118fd611bfa565b6000546001600160a01b0390811691161461195f576040805162461bcd60e51b815260206004820181905260248201527f4f776e61626c653a2063616c6c6572206973206e6f7420746865206f776e6572604482015290519081900360640190fd5b805182511461199f5760405162461bcd60e51b815260040180806020018281038252602181526020018061204e6021913960400191505060405180910390fd5b60005b815181101561143f5760045483516001600160a01b03909116906361433d88908590849081106119ce57fe5b60200260200101518484815181106119e257fe5b60200260200101516040518363ffffffff1660e01b815260040180838152602001826001600160a01b03166001600160a01b0316815260200192505050600060405180830381600087803b158015611a3957600080fd5b505af1158015611a4d573d6000803e3d6000fd5b5050600190920191506119a29050565b611a65611bfa565b6000546001600160a01b03908116911614611ac7576040805162461bcd60e51b815260206004820181905260248201527f4f776e61626c653a2063616c6c6572206973206e6f7420746865206f776e6572604482015290519081900360640190fd5b611ad081611e55565b50565b6004546001600160a01b0316331480611af657506005546001600160a01b031633145b611b315760405162461bcd60e51b81526004018080602001828103825260278152602001806120906027913960400191505060405180910390fd5b6001600160a01b038116600090815260026020526040902054610f62908363ffffffff611bfe16565b6008546001600160a01b031681565b611b71611bfa565b6000546001600160a01b03908116911614611bd3576040805162461bcd60e51b815260206004820181905260248201527f4f776e61626c653a2063616c6c6572206973206e6f7420746865206f776e6572604482015290519081900360640190fd5b6001600160a01b03166000908152600160208190526040909120805460ff19169091179055565b3390565b600082820183811015611c58576040805162461bcd60e51b815260206004820152601b60248201527f536166654d6174683a206164646974696f6e206f766572666c6f770000000000604482015290519081900360640190fd5b90505b92915050565b6000611c5883836040518060400160405280601e81526020017f536166654d6174683a207375627472616374696f6e206f766572666c6f770000815250611f02565b60035460048054604080517f095ea7b30000000000000000000000000000000000000000000000000000000081526001600160a01b0392831693810193909352602483018590525192169163095ea7b3916044808201926020929091908290030181600087803b158015611d1657600080fd5b505af1158015611d2a573d6000803e3d6000fd5b505050506040513d6020811015611d4057600080fd5b505060048054604080517fc2e50b16000000000000000000000000000000000000000000000000000000008152928301849052516001600160a01b039091169163c2e50b1691602480830192600092919082900301818387803b158015611da657600080fd5b505af11580156118d5573d6000803e3d6000fd5b600082611dc957506000611c5b565b82820282848281611dd657fe5b0414611c585760405162461bcd60e51b815260040180806020018281038252602181526020018061206f6021913960400191505060405180910390fd5b6000611c5883836040518060400160405280601a81526020017f536166654d6174683a206469766973696f6e206279207a65726f000000000000815250611f99565b6001600160a01b038116611e9a5760405162461bcd60e51b81526004018080602001828103825260268152602001806120286026913960400191505060405180910390fd5b600080546040516001600160a01b03808516939216917f8be0079c531659141344cd1fd0a4f28419497f9722a3daafe3b4186f6b6457e091a36000805473ffffffffffffffffffffffffffffffffffffffff19166001600160a01b0392909216919091179055565b60008184841115611f915760405162461bcd60e51b81526004018080602001828103825283818151815260200191508051906020019080838360005b83811015611f56578181015183820152602001611f3e565b50505050905090810190601f168015611f835780820380516001836020036101000a031916815260200191505b509250505060405180910390fd5b505050900390565b60008183611fe85760405162461bcd60e51b8152602060048201818152835160248401528351909283926044909101919085019080838360008315611f56578181015183820152602001611f3e565b506000838581611ff457fe5b049594505050505056fe42657420416d6f756e74206c6f636b65642c20706c656173652074727920616761696e206c617465724f776e61626c653a206e6577206f776e657220697320746865207a65726f2061646472657373506172616d65746572206c656e677468732073686f756c6420626520657175616c536166654d6174683a206d756c7469706c69636174696f6e206f766572666c6f7743616c6c6572206d7573742062652062616e6b726f6c6c206f72207374616b696e6720706f6f6c42657420616d6f756e742073686f756c642062652067726561746572207468616e2030a2646970667358221220795bea57bf95c0a3698d73ed4a7719eca668f8753efc9dabc178dbd8d3b963f064736f6c63430006020033",
  "source": "//SPDX-License-Identifier: MIT\npragma solidity >=0.6.2;\nimport \"@pancakeswap/pancake-swap-lib/contracts/access/Ownable.sol\";\nimport \"./CrushCoin.sol\";\nimport \"./HouseBankroll.sol\";\nimport \"./staking.sol\";\n\nimport \"@pancakeswap/pancake-swap-lib/contracts/math/SafeMath.sol\";\ncontract BitcrushLiveWallet is Ownable {\n    using SafeMath for uint256;\n    struct wallet {\n        //rename to balance\n        uint256 balance;\n        uint256 lockTimeStamp;\n    }\n    \n    \n    mapping (address => bool) public blacklistedUsers;\n    //mapping users address with bet amount\n    mapping (address => wallet) public betAmounts;\n    \n    //address of the crush token\n    CRUSHToken public crush;\n    BitcrushBankroll public bankroll;\n    BitcrushStaking public stakingPool;\n    \n    uint256 public lossBurn = 10;\n    uint256 constant public DIVISOR = 10000;\n    uint256 public lockPeriod = 10800;\n    address public reserveAddress;\n    uint256  public earlyWithdrawFee         = 50; // 50/10000 * 100 = 0.5% \n    \n    event Withdraw (address indexed _address, uint256 indexed _amount);\n    event Deposit (address indexed _address, uint256 indexed _amount);\n    event LockPeriodUpdated (uint256 indexed _lockPeriod);\n\n    constructor (CRUSHToken _crush, BitcrushBankroll _bankroll, address _reserveAddress) public{\n        crush = _crush;\n        bankroll = _bankroll;\n        reserveAddress = _reserveAddress;\n    }\n\n    /// add funds to the senders live wallet \n    /// @dev adds funds to the sender user's live wallets\n    function addbet (uint256 _amount) public {\n        require(_amount > 0, \"Bet amount should be greater than 0\");\n        require(blacklistedUsers[msg.sender] == false, \"User is black Listed\");\n        crush.transferFrom(msg.sender, address(this), _amount);\n        betAmounts[msg.sender].balance = betAmounts[msg.sender].balance.add(_amount);\n        betAmounts[msg.sender].lockTimeStamp = block.timestamp;\n        emit Deposit(msg.sender, _amount);\n        \n    }\n\n    /// add funds to the provided users live wallet \n    /// @dev adds funds to the specified users live wallets\n    function addbetWithAddress (uint256 _amount, address _user) public {\n        require(_amount > 0, \"Bet amount should be greater than 0\");\n        require(blacklistedUsers[_user] == false, \"User is black Listed\");\n        crush.transferFrom(msg.sender, address(this), _amount);\n        betAmounts[_user].balance = betAmounts[_user].balance.add(_amount);\n        \n    }\n\n    /// return the current balance of user in the live wallet\n    /// @dev return current the balance of provided user addrss in the live wallet\n    function balanceOf ( address _user) public view returns (uint256){\n        return betAmounts[_user].balance;\n    }\n\n    /// register wins for users in game with amounts\n    /// @dev register wins for users during gameplay. wins are reported in aggregated form from the game server.\n    function registerWin (uint256[] memory _wins, address[] memory _users) public onlyOwner {\n        require (_wins.length == _users.length, \"Parameter lengths should be equal\");\n        for(uint256 i=0; i < _users.length; i++){\n                bankroll.payOutUserWinning(_wins[i], _users[i]);\n        }\n    }\n    \n    /// register loss for users in game with amounts\n    /// @dev register loss for users during gameplay. loss is reported in aggregated form from the game server.\n    function registerLoss (uint256[] memory _bets, address[] memory _users) public onlyOwner {\n        require (_bets.length == _users.length, \"Parameter lengths should be equal\");\n        for(uint256 i=0; i < _users.length; i++){\n            if(_bets[i] > 0){\n            transferToBankroll(_bets[i]);\n            betAmounts[_users[i]].balance = betAmounts[_users[i]].balance.sub(_bets[i]);\n            }\n            \n        }\n    }\n\n    /// transfer funds from live wallet to the bankroll on user loss\n    /// @dev transfer funds to the bankroll contract when users lose in game\n    function transferToBankroll (uint256 _amount) internal { \n        crush.approve(address(bankroll), _amount);\n        bankroll.addUserLoss(_amount);       \n    }\n\n    /// withdraw funds from live wallet of the senders address\n    /// @dev withdraw amount from users wallet if betlock isnt enabled\n    function withdrawBet(uint256 _amount) public {\n        require(betAmounts[msg.sender].balance >= _amount, \"bet less than amount withdraw\");\n        require(betAmounts[msg.sender].lockTimeStamp == 0 || betAmounts[msg.sender].lockTimeStamp.add(lockPeriod) < block.timestamp, \"Bet Amount locked, please try again later\");\n        betAmounts[msg.sender].balance = betAmounts[msg.sender].balance.sub(_amount);\n        crush.transfer(msg.sender, _amount);\n        emit Withdraw(msg.sender, _amount);\n    }\n\n    /// owner only function to override timelock and withdraw funds on behalf of user\n    /// @dev withdraw preapproved amount from users wallet sidestepping the timelock on withdrawals\n    function withdrawBetForUser(uint256 _amount, address _user) public onlyOwner {\n        require(betAmounts[_user].balance >= _amount, \"bet less than amount withdraw\");\n        betAmounts[_user].balance = betAmounts[_user].balance.sub(_amount);\n        emit Withdraw(_user, _amount);\n        uint256 withdrawalFee = _amount.mul(earlyWithdrawFee).div(DIVISOR);\n        _amount = _amount.sub(withdrawalFee);\n        crush.transfer(reserveAddress, withdrawalFee);\n        crush.transfer(_user, _amount);\n        \n        \n    }\n\n    /// add funds to the users live wallet on wins by either the bankroll or the staking pool\n    /// @dev add funds to the users live wallet as winnings\n    function addToUserWinnings (uint256 _amount, address _user) public {\n        require(msg.sender == address(bankroll)  || msg.sender == address(stakingPool) ,\"Caller must be bankroll or staking pool\");\n        betAmounts[_user].balance = betAmounts[_user].balance.add(_amount);\n\n    }\n    \n    /// update the lockTimeStamp of provided users to current timestamp to prevent withdraws\n    /// @dev update bet lock to prevent withdraws during gameplay\n    function updateBetLock (address[] memory _users) public onlyOwner {\n        for(uint256 i=0; i < _users.length; i++){\n            betAmounts[_users[i]].lockTimeStamp = block.timestamp;\n        }\n        \n    }\n    /// update the lockTimeStamp of provided users to 0 to allow withdraws\n    /// @dev update bet lock to allow withdraws after gameplay\n    function releaseBetLock (address[] memory _users) public onlyOwner {\n        for(uint256 i=0; i < _users.length; i++){\n            betAmounts[_users[i]].lockTimeStamp = 0;\n        }\n    }\n\n    /// blacklist specified address from adding more funds to the pool\n    /// @dev prevent specified address from adding funds to the live wallet\n    function blacklistUser (address _address) public onlyOwner {\n        blacklistedUsers[_address] = true;\n    }\n\n    /// whitelist sender address from adding more funds to the pool\n    /// @dev allow previously blacklisted sender address to add funds to the live wallet\n    function whitelistUser (address _address) public onlyOwner {\n        delete blacklistedUsers[_address];\n    }\n\n    /// blacklist sender address from adding more funds to the pool\n    /// @dev prevent sender address from adding funds to the live wallet\n    function blacklistSelf () public  {\n        blacklistedUsers[msg.sender] = true;\n    }\n\n    /// Store `_lossBurn`.\n    /// @param _lossBurn the new value to store\n    /// @dev stores the _lossBurn in the state variable `lossBurn`\n    function setLossBurn(uint256 _lossBurn) public onlyOwner {\n        require(_lossBurn > 0, \"Loss burn cant be 0\");\n        lossBurn = _lossBurn;\n    }\n\n    /// Store `_lockPeriod`.\n    /// @param _lockPeriod the new value to store\n    /// @dev stores the _lockPeriod in the state variable `lockPeriod`\n    function setLockPeriod (uint256 _lockPeriod) public onlyOwner {\n        lockPeriod = _lockPeriod;\n        emit LockPeriodUpdated(lockPeriod);\n    }\n\n    /// Store `_reserveAddress`.\n    /// @param _reserveAddress the new value to store\n    /// @dev stores the _reserveAddress in the state variable `reserveAddress`\n    function setReserveAddress (address _reserveAddress) public onlyOwner {\n        reserveAddress = _reserveAddress;\n    }\n\n    /// Store `_earlyWithdrawFee`.\n    /// @param _earlyWithdrawFee the new value to store\n    /// @dev stores the _earlyWithdrawFee in the state variable `earlyWithdrawFee`\n    function setEarlyWithdrawFee (uint256 _earlyWithdrawFee ) public onlyOwner {\n        earlyWithdrawFee = _earlyWithdrawFee;\n    }\n\n    /// Store `_bankRoll`.\n    /// @param _bankRoll the new value to store\n    /// @dev stores the _bankRoll address in the state variable `bankroll`\n    function setBitcrushBankroll (BitcrushBankroll _bankRoll) public onlyOwner {\n        bankroll = _bankRoll;\n    }\n\n    /// Store `_stakingPool`.\n    /// @param _stakingPool the new value to store\n    /// @dev stores the _stakingPool address in the state variable `stakingPool`\n    function setStakingPool (BitcrushStaking _stakingPool) public onlyOwner {\n        stakingPool = _stakingPool;\n    }\n\n}",
  "sourcePath": "/Users/umerali/Desktop/FRAG/bitcrush/crush_contracts/contracts/LiveWallet.sol",
  "compiler": {
    "name": "solc",
    "version": "0.6.2+commit.bacdbe57.Emscripten.clang"
  },
  "schemaVersion": "3.4.1",
  "updatedAt": "2021-10-21T10:06:43.812Z",
  "networkType": "ethereum",
  "devdoc": {
    "methods": {
      "addToUserWinnings(uint256,address)": {
        "details": "add funds to the users live wallet as winnings"
      },
      "addbet(uint256)": {
        "details": "adds funds to the sender user's live wallets"
      },
      "addbetWithAddress(uint256,address)": {
        "details": "adds funds to the specified users live wallets"
      },
      "balanceOf(address)": {
        "details": "return current the balance of provided user addrss in the live wallet"
      },
      "blacklistSelf()": {
        "details": "prevent sender address from adding funds to the live wallet"
      },
      "blacklistUser(address)": {
        "details": "prevent specified address from adding funds to the live wallet"
      },
      "owner()": {
        "details": "Returns the address of the current owner."
      },
      "registerLoss(uint256[],address[])": {
        "details": "register loss for users during gameplay. loss is reported in aggregated form from the game server."
      },
      "registerWin(uint256[],address[])": {
        "details": "register wins for users during gameplay. wins are reported in aggregated form from the game server."
      },
      "releaseBetLock(address[])": {
        "details": "update bet lock to allow withdraws after gameplay"
      },
      "renounceOwnership()": {
        "details": "Leaves the contract without owner. It will not be possible to call `onlyOwner` functions anymore. Can only be called by the current owner.     * NOTE: Renouncing ownership will leave the contract without an owner, thereby removing any functionality that is only available to the owner."
      },
      "setBitcrushBankroll(address)": {
        "details": "stores the _bankRoll address in the state variable `bankroll`",
        "params": {
          "_bankRoll": "the new value to store"
        }
      },
      "setEarlyWithdrawFee(uint256)": {
        "details": "stores the _earlyWithdrawFee in the state variable `earlyWithdrawFee`",
        "params": {
          "_earlyWithdrawFee": "the new value to store"
        }
      },
      "setLockPeriod(uint256)": {
        "details": "stores the _lockPeriod in the state variable `lockPeriod`",
        "params": {
          "_lockPeriod": "the new value to store"
        }
      },
      "setLossBurn(uint256)": {
        "details": "stores the _lossBurn in the state variable `lossBurn`",
        "params": {
          "_lossBurn": "the new value to store"
        }
      },
      "setReserveAddress(address)": {
        "details": "stores the _reserveAddress in the state variable `reserveAddress`",
        "params": {
          "_reserveAddress": "the new value to store"
        }
      },
      "setStakingPool(address)": {
        "details": "stores the _stakingPool address in the state variable `stakingPool`",
        "params": {
          "_stakingPool": "the new value to store"
        }
      },
      "transferOwnership(address)": {
        "details": "Transfers ownership of the contract to a new account (`newOwner`). Can only be called by the current owner."
      },
      "updateBetLock(address[])": {
        "details": "update bet lock to prevent withdraws during gameplay"
      },
      "whitelistUser(address)": {
        "details": "allow previously blacklisted sender address to add funds to the live wallet"
      },
      "withdrawBet(uint256)": {
        "details": "withdraw amount from users wallet if betlock isnt enabled"
      },
      "withdrawBetForUser(uint256,address)": {
        "details": "withdraw preapproved amount from users wallet sidestepping the timelock on withdrawals"
      }
    }
  },
  "userdoc": {
    "methods": {
      "addToUserWinnings(uint256,address)": {
        "notice": "add funds to the users live wallet on wins by either the bankroll or the staking pool"
      },
      "addbet(uint256)": {
        "notice": "add funds to the senders live wallet "
      },
      "addbetWithAddress(uint256,address)": {
        "notice": "add funds to the provided users live wallet "
      },
      "balanceOf(address)": {
        "notice": "return the current balance of user in the live wallet"
      },
      "blacklistSelf()": {
        "notice": "blacklist sender address from adding more funds to the pool"
      },
      "blacklistUser(address)": {
        "notice": "blacklist specified address from adding more funds to the pool"
      },
      "registerLoss(uint256[],address[])": {
        "notice": "register loss for users in game with amounts"
      },
      "registerWin(uint256[],address[])": {
        "notice": "register wins for users in game with amounts"
      },
      "releaseBetLock(address[])": {
        "notice": "update the lockTimeStamp of provided users to 0 to allow withdraws"
      },
      "setBitcrushBankroll(address)": {
        "notice": "Store `_bankRoll`."
      },
      "setEarlyWithdrawFee(uint256)": {
        "notice": "Store `_earlyWithdrawFee`."
      },
      "setLockPeriod(uint256)": {
        "notice": "Store `_lockPeriod`."
      },
      "setLossBurn(uint256)": {
        "notice": "Store `_lossBurn`."
      },
      "setReserveAddress(address)": {
        "notice": "Store `_reserveAddress`."
      },
      "setStakingPool(address)": {
        "notice": "Store `_stakingPool`."
      },
      "updateBetLock(address[])": {
        "notice": "update the lockTimeStamp of provided users to current timestamp to prevent withdraws"
      },
      "whitelistUser(address)": {
        "notice": "whitelist sender address from adding more funds to the pool"
      },
      "withdrawBet(uint256)": {
        "notice": "withdraw funds from live wallet of the senders address"
      },
      "withdrawBetForUser(uint256,address)": {
        "notice": "owner only function to override timelock and withdraw funds on behalf of user"
      }
    }
  }
}