{
  "contractName": "BitcrushBankroll",
  "abi": [
    {
      "inputs": [
        {
          "internalType": "contract CRUSHToken",
          "name": "_crush",
          "type": "address"
        },
        {
          "internalType": "contract BitcrushStaking",
          "name": "_stakingPool",
          "type": "address"
        },
        {
          "internalType": "address",
          "name": "_reserve",
          "type": "address"
        },
        {
          "internalType": "address",
          "name": "_lottery",
          "type": "address"
        },
        {
          "internalType": "uint256",
          "name": "_profitShare",
          "type": "uint256"
        },
        {
          "internalType": "uint256",
          "name": "_houseBankrollShare",
          "type": "uint256"
        },
        {
          "internalType": "uint256",
          "name": "_lotteryShare",
          "type": "uint256"
        },
        {
          "internalType": "uint256",
          "name": "_reserveShare",
          "type": "uint256"
        }
      ],
      "stateMutability": "nonpayable",
      "type": "constructor"
    },
    {
      "anonymous": false,
      "inputs": [
        {
          "indexed": true,
          "internalType": "address",
          "name": "previousOwner",
          "type": "address"
        },
        {
          "indexed": true,
          "internalType": "address",
          "name": "newOwner",
          "type": "address"
        }
      ],
      "name": "OwnershipTransferred",
      "type": "event"
    },
    {
      "inputs": [],
      "name": "BURN_RATE",
      "outputs": [
        {
          "internalType": "uint256",
          "name": "",
          "type": "uint256"
        }
      ],
      "stateMutability": "view",
      "type": "function",
      "constant": true
    },
    {
      "inputs": [],
      "name": "DIVISOR",
      "outputs": [
        {
          "internalType": "uint256",
          "name": "",
          "type": "uint256"
        }
      ],
      "stateMutability": "view",
      "type": "function",
      "constant": true
    },
    {
      "inputs": [],
      "name": "brSinceCompound",
      "outputs": [
        {
          "internalType": "uint256",
          "name": "",
          "type": "uint256"
        }
      ],
      "stateMutability": "view",
      "type": "function",
      "constant": true
    },
    {
      "inputs": [],
      "name": "crush",
      "outputs": [
        {
          "internalType": "contract CRUSHToken",
          "name": "",
          "type": "address"
        }
      ],
      "stateMutability": "view",
      "type": "function",
      "constant": true
    },
    {
      "inputs": [],
      "name": "houseBankrollShare",
      "outputs": [
        {
          "internalType": "uint256",
          "name": "",
          "type": "uint256"
        }
      ],
      "stateMutability": "view",
      "type": "function",
      "constant": true
    },
    {
      "inputs": [],
      "name": "liveWallet",
      "outputs": [
        {
          "internalType": "contract BitcrushLiveWallet",
          "name": "",
          "type": "address"
        }
      ],
      "stateMutability": "view",
      "type": "function",
      "constant": true
    },
    {
      "inputs": [],
      "name": "lottery",
      "outputs": [
        {
          "internalType": "address",
          "name": "",
          "type": "address"
        }
      ],
      "stateMutability": "view",
      "type": "function",
      "constant": true
    },
    {
      "inputs": [],
      "name": "lotteryShare",
      "outputs": [
        {
          "internalType": "uint256",
          "name": "",
          "type": "uint256"
        }
      ],
      "stateMutability": "view",
      "type": "function",
      "constant": true
    },
    {
      "inputs": [],
      "name": "negativeBrSinceCompound",
      "outputs": [
        {
          "internalType": "uint256",
          "name": "",
          "type": "uint256"
        }
      ],
      "stateMutability": "view",
      "type": "function",
      "constant": true
    },
    {
      "inputs": [],
      "name": "owner",
      "outputs": [
        {
          "internalType": "address",
          "name": "",
          "type": "address"
        }
      ],
      "stateMutability": "view",
      "type": "function",
      "constant": true
    },
    {
      "inputs": [],
      "name": "profitShare",
      "outputs": [
        {
          "internalType": "uint256",
          "name": "",
          "type": "uint256"
        }
      ],
      "stateMutability": "view",
      "type": "function",
      "constant": true
    },
    {
      "inputs": [],
      "name": "profitThreshold",
      "outputs": [
        {
          "internalType": "uint256",
          "name": "",
          "type": "uint256"
        }
      ],
      "stateMutability": "view",
      "type": "function",
      "constant": true
    },
    {
      "inputs": [],
      "name": "renounceOwnership",
      "outputs": [],
      "stateMutability": "nonpayable",
      "type": "function"
    },
    {
      "inputs": [],
      "name": "reserve",
      "outputs": [
        {
          "internalType": "address",
          "name": "",
          "type": "address"
        }
      ],
      "stateMutability": "view",
      "type": "function",
      "constant": true
    },
    {
      "inputs": [],
      "name": "reserveShare",
      "outputs": [
        {
          "internalType": "uint256",
          "name": "",
          "type": "uint256"
        }
      ],
      "stateMutability": "view",
      "type": "function",
      "constant": true
    },
    {
      "inputs": [],
      "name": "stakingPool",
      "outputs": [
        {
          "internalType": "contract BitcrushStaking",
          "name": "",
          "type": "address"
        }
      ],
      "stateMutability": "view",
      "type": "function",
      "constant": true
    },
    {
      "inputs": [],
      "name": "totalBankroll",
      "outputs": [
        {
          "internalType": "uint256",
          "name": "",
          "type": "uint256"
        }
      ],
      "stateMutability": "view",
      "type": "function",
      "constant": true
    },
    {
      "inputs": [],
      "name": "totalProfit",
      "outputs": [
        {
          "internalType": "uint256",
          "name": "",
          "type": "uint256"
        }
      ],
      "stateMutability": "view",
      "type": "function",
      "constant": true
    },
    {
      "inputs": [],
      "name": "totalWinnings",
      "outputs": [
        {
          "internalType": "uint256",
          "name": "",
          "type": "uint256"
        }
      ],
      "stateMutability": "view",
      "type": "function",
      "constant": true
    },
    {
      "inputs": [
        {
          "internalType": "address",
          "name": "newOwner",
          "type": "address"
        }
      ],
      "name": "transferOwnership",
      "outputs": [],
      "stateMutability": "nonpayable",
      "type": "function"
    },
    {
      "inputs": [
        {
          "internalType": "contract BitcrushLiveWallet",
          "name": "_liveWallet",
          "type": "address"
        }
      ],
      "name": "setLiveWallet",
      "outputs": [],
      "stateMutability": "nonpayable",
      "type": "function"
    },
    {
      "inputs": [
        {
          "internalType": "uint256",
          "name": "_amount",
          "type": "uint256"
        }
      ],
      "name": "addToBankroll",
      "outputs": [],
      "stateMutability": "nonpayable",
      "type": "function"
    },
    {
      "inputs": [
        {
          "internalType": "uint256",
          "name": "_amount",
          "type": "uint256"
        }
      ],
      "name": "addUserLoss",
      "outputs": [],
      "stateMutability": "nonpayable",
      "type": "function"
    },
    {
      "inputs": [
        {
          "internalType": "uint256",
          "name": "_amount",
          "type": "uint256"
        },
        {
          "internalType": "address",
          "name": "_winner",
          "type": "address"
        }
      ],
      "name": "payOutUserWinning",
      "outputs": [],
      "stateMutability": "nonpayable",
      "type": "function"
    },
    {
      "inputs": [],
      "name": "transferProfit",
      "outputs": [
        {
          "internalType": "uint256",
          "name": "",
          "type": "uint256"
        }
      ],
      "stateMutability": "nonpayable",
      "type": "function"
    },
    {
      "inputs": [
        {
          "internalType": "uint256",
          "name": "_threshold",
          "type": "uint256"
        }
      ],
      "name": "setProfitThreshold",
      "outputs": [],
      "stateMutability": "nonpayable",
      "type": "function"
    },
    {
      "inputs": [
        {
          "internalType": "uint256",
          "name": "_houseBankrollShare",
          "type": "uint256"
        }
      ],
      "name": "setHouseBankrollShare",
      "outputs": [],
      "stateMutability": "nonpayable",
      "type": "function"
    },
    {
      "inputs": [
        {
          "internalType": "uint256",
          "name": "_profitShare",
          "type": "uint256"
        }
      ],
      "name": "setProfitShare",
      "outputs": [],
      "stateMutability": "nonpayable",
      "type": "function"
    },
    {
      "inputs": [
        {
          "internalType": "uint256",
          "name": "_lotteryShare",
          "type": "uint256"
        }
      ],
      "name": "setLotteryShare",
      "outputs": [],
      "stateMutability": "nonpayable",
      "type": "function"
    },
    {
      "inputs": [
        {
          "internalType": "uint256",
          "name": "_reserveShare",
          "type": "uint256"
        }
      ],
      "name": "setReserveShare",
      "outputs": [],
      "stateMutability": "nonpayable",
      "type": "function"
    },
    {
      "inputs": [],
      "name": "EmergencyWithdrawBankroll",
      "outputs": [],
      "stateMutability": "nonpayable",
      "type": "function"
    },
    {
      "inputs": [
        {
          "internalType": "contract BitcrushStaking",
          "name": "_stakingPool",
          "type": "address"
        }
      ],
      "name": "setBitcrushStaking",
      "outputs": [],
      "stateMutability": "nonpayable",
      "type": "function"
    }
  ],
  "bytecode": "0x60806040526002805460ff1916905560006009819055601081905560115534801561002957600080fd5b50604051611b43380380611b43833981810160405261010081101561004d57600080fd5b508051602082015160408301516060840151608085015160a086015160c087015160e09097015195969495939492939192909160006100936001600160e01b0361014816565b600080546001600160a01b0319166001600160a01b0383169081178255604051929350917f8be0079c531659141344cd1fd0a4f28419497f9722a3daafe3b4186f6b6457e0908290a350600480546001600160a01b03998a166001600160a01b03199182161790915560058054988a1698821698909817909755600780549689169688169690961790955560088054949097169390951692909217909455600a93909355600b92909255600c55600d5561014c565b3390565b6119e88061015b6000396000f3fe608060405234801561001057600080fd5b50600436106101f05760003560e01c80638e4a61421161010f578063c2e50b16116100a2578063ee93466611610071578063ee934666146103e3578063f2fde38b14610400578063f846a88514610426578063f974821a1461042e576101f0565b8063c2e50b16146103ae578063cd3293de146103cb578063e3aeeb46146103d3578063e7cb3d67146103db576101f0565b8063b4055d15116100de578063b4055d1514610370578063b72481f814610378578063b825d00314610380578063ba13a572146103a6576101f0565b80638e4a6142146103325780639e13900c1461033a578063abfe0b3414610360578063b359a9f914610368576101f0565b806345c9c1d111610187578063715018a611610156578063715018a6146103125780637d903ecc1461031a57806386001519146103225780638da5cb5b1461032a576101f0565b806345c9c1d1146102b95780634e584e11146102c1578063563b6b71146102c957806361433d88146102e6576101f0565b80632feda8d4116101c35780632feda8d4146102725780633410fe6e1461028c5780633e1f55e41461029457806341112c4c1461029c576101f0565b80630c56ae3b146101f5578063149c3bf914610219578063151fac7b146102385780632882118214610255575b600080fd5b6101fd610436565b604080516001600160a01b039092168252519081900360200190f35b6102366004803603602081101561022f57600080fd5b5035610445565b005b6102366004803603602081101561024e57600080fd5b50356104b4565b6102366004803603602081101561026b57600080fd5b50356105be565b61027a61062d565b60408051918252519081900360200190f35b61027a610633565b61027a610639565b610236600480360360208110156102b257600080fd5b503561063f565b61027a6106ae565b61027a610a5b565b610236600480360360208110156102df57600080fd5b5035610a61565b610236600480360360408110156102fc57600080fd5b50803590602001356001600160a01b0316610ad0565b610236610c41565b61027a610d02565b61027a610d08565b6101fd610d0e565b61027a610d1d565b6102366004803603602081101561035057600080fd5b50356001600160a01b0316610d23565b610236610d52565b6101fd610e48565b61027a610e57565b61027a610e5d565b6102366004803603602081101561039657600080fd5b50356001600160a01b0316610e63565b6101fd610efc565b610236600480360360208110156103c457600080fd5b5035610f0b565b6101fd611339565b6101fd611348565b61027a611357565b610236600480360360208110156103f957600080fd5b503561135d565b6102366004803603602081101561041657600080fd5b50356001600160a01b03166113cc565b61027a611442565b61027a611447565b6005546001600160a01b031681565b61044d61144d565b6000546001600160a01b039081169116146104af576040805162461bcd60e51b815260206004820181905260248201527f4f776e61626c653a2063616c6c6572206973206e6f7420746865206f776e6572604482015290519081900360640190fd5b600d55565b6104bc61144d565b6000546001600160a01b0390811691161461051e576040805162461bcd60e51b815260206004820181905260248201527f4f776e61626c653a2063616c6c6572206973206e6f7420746865206f776e6572604482015290519081900360640190fd5b60048054604080516323b872dd60e01b8152339381019390935230602484015260448301849052516001600160a01b03909116916323b872dd9160648083019260209291908290030181600087803b15801561057957600080fd5b505af115801561058d573d6000803e3d6000fd5b505050506040513d60208110156105a357600080fd5b50506001546105b8908263ffffffff61145116565b60015550565b6105c661144d565b6000546001600160a01b03908116911614610628576040805162461bcd60e51b815260206004820181905260248201527f4f776e61626c653a2063616c6c6572206973206e6f7420746865206f776e6572604482015290519081900360640190fd5b600955565b600b5481565b61271081565b600a5481565b61064761144d565b6000546001600160a01b039081169116146106a9576040805162461bcd60e51b815260206004820181905260248201527f4f776e61626c653a2063616c6c6572206973206e6f7420746865206f776e6572604482015290519081900360640190fd5b600b55565b6005546000906001600160a01b03163314610710576040805162461bcd60e51b815260206004820152601b60248201527f43616c6c6572206d757374206265207374616b696e6720706f6f6c0000000000604482015290519081900360640190fd5b600954600e5410610a5457600a5460009015610767576000610751612710610745600a54600e546114b490919063ffffffff16565b9063ffffffff61150d16565b9050610763828263ffffffff61145116565b9150505b600d541561081857600061078e612710610745600d54600e546114b490919063ffffffff16565b600480546007546040805163a9059cbb60e01b81526001600160a01b03928316948101949094526024840185905251939450169163a9059cbb916044808201926020929091908290030181600087803b1580156107ea57600080fd5b505af11580156107fe573d6000803e3d6000fd5b505050506040513d602081101561081457600080fd5b5050505b600c54156108c957600061083f612710610745600c54600e546114b490919063ffffffff16565b600480546008546040805163a9059cbb60e01b81526001600160a01b03928316948101949094526024840185905251939450169163a9059cbb916044808201926020929091908290030181600087803b15801561089b57600080fd5b505af11580156108af573d6000803e3d6000fd5b505050506040513d60208110156108c557600080fd5b5050505b60006108e76127106107456064600e546114b490919063ffffffff16565b60048054604080517f42966c68000000000000000000000000000000000000000000000000000000008152928301849052519293506001600160a01b0316916342966c689160248082019260009290919082900301818387803b15801561094d57600080fd5b505af1158015610961573d6000803e3d6000fd5b505050506000600b5411156109aa57600061098f612710610745600b54600e546114b490919063ffffffff16565b600e549091506109a5908263ffffffff61154f16565b600e55505b600e546001546109bf9163ffffffff61154f16565b600155600480546005546040805163a9059cbb60e01b81526001600160a01b0392831694810194909452602484018690525191169163a9059cbb9160448083019260209291908290030181600087803b158015610a1b57600080fd5b505af1158015610a2f573d6000803e3d6000fd5b505050506040513d6020811015610a4557600080fd5b50506000600e55509050610a58565b5060005b90565b600c5481565b610a6961144d565b6000546001600160a01b03908116911614610acb576040805162461bcd60e51b815260206004820181905260248201527f4f776e61626c653a2063616c6c6572206973206e6f7420746865206f776e6572604482015290519081900360640190fd5b600a55565b6006546001600160a01b03163314610b195760405162461bcd60e51b81526004018080602001828103825260238152602001806119906023913960400191505060405180910390fd5b600154821115610bfe576000610b3a6001548461154f90919063ffffffff16565b6002805460ff19166001179055600554604080517f49fb5e47000000000000000000000000000000000000000000000000000000008152600481018490526001600160a01b03868116602483015291519394509116916349fb5e479160448082019260009290919082900301818387803b158015610bb757600080fd5b505af1158015610bcb573d6000803e3d6000fd5b5050600354610be3925090508263ffffffff61145116565b600355600154610bf39083611591565b506000600155610c1e565b600154610c11908363ffffffff61154f16565b600155610c1e8282611591565b610c27826116a0565b601054610c3a908363ffffffff61145116565b6010555050565b610c4961144d565b6000546001600160a01b03908116911614610cab576040805162461bcd60e51b815260206004820181905260248201527f4f776e61626c653a2063616c6c6572206973206e6f7420746865206f776e6572604482015290519081900360640190fd5b600080546040516001600160a01b03909116907f8be0079c531659141344cd1fd0a4f28419497f9722a3daafe3b4186f6b6457e0908390a36000805473ffffffffffffffffffffffffffffffffffffffff19169055565b600e5481565b60115481565b6000546001600160a01b031690565b600f5481565b6006805473ffffffffffffffffffffffffffffffffffffffff19166001600160a01b0392909216919091179055565b610d5a61144d565b6000546001600160a01b03908116911614610dbc576040805162461bcd60e51b815260206004820181905260248201527f4f776e61626c653a2063616c6c6572206973206e6f7420746865206f776e6572604482015290519081900360640190fd5b600480546001546040805163a9059cbb60e01b815233948101949094526024840191909152516001600160a01b039091169163a9059cbb9160448083019260209291908290030181600087803b158015610e1557600080fd5b505af1158015610e29573d6000803e3d6000fd5b505050506040513d6020811015610e3f57600080fd5b50506000600155565b6004546001600160a01b031681565b60015481565b60105481565b610e6b61144d565b6000546001600160a01b03908116911614610ecd576040805162461bcd60e51b815260206004820181905260248201527f4f776e61626c653a2063616c6c6572206973206e6f7420746865206f776e6572604482015290519081900360640190fd5b6005805473ffffffffffffffffffffffffffffffffffffffff19166001600160a01b0392909216919091179055565b6008546001600160a01b031681565b6006546001600160a01b03163314610f545760405162461bcd60e51b81526004018080602001828103825260238152602001806119906023913960400191505060405180910390fd5b60025460ff1615156001141561127a576003548110611154576000610f846003548361154f90919063ffffffff16565b60048054600554600354604080516323b872dd60e01b815233958101959095526001600160a01b03928316602486015260448501919091525193945016916323b872dd916064808201926020929091908290030181600087803b158015610fea57600080fd5b505af1158015610ffe573d6000803e3d6000fd5b505050506040513d602081101561101457600080fd5b5050600554600354604080517fe39faaa40000000000000000000000000000000000000000000000000000000081526004810192909252516001600160a01b039092169163e39faaa49160248082019260009290919082900301818387803b15801561107f57600080fd5b505af1158015611093573d6000803e3d6000fd5b5050600060038190556002805460ff1916905560048054604080516323b872dd60e01b8152339381019390935230602484015260448301879052516001600160a01b0390911694506323b872dd935060648083019360209383900390910190829087803b15801561110357600080fd5b505af1158015611117573d6000803e3d6000fd5b505050506040513d602081101561112d57600080fd5b5050600154611142908263ffffffff61145116565b60015561114e81611721565b50611275565b60048054600554604080516323b872dd60e01b815233948101949094526001600160a01b03918216602485015260448401859052519116916323b872dd9160648083019260209291908290030181600087803b1580156111b357600080fd5b505af11580156111c7573d6000803e3d6000fd5b505050506040513d60208110156111dd57600080fd5b5050600554604080517fe39faaa40000000000000000000000000000000000000000000000000000000081526004810184905290516001600160a01b039092169163e39faaa49160248082019260009290919082900301818387803b15801561124557600080fd5b505af1158015611259573d6000803e3d6000fd5b5050600354611271925090508263ffffffff61154f16565b6003555b611320565b60048054604080516323b872dd60e01b8152339381019390935230602484015260448301849052516001600160a01b03909116916323b872dd9160648083019260209291908290030181600087803b1580156112d557600080fd5b505af11580156112e9573d6000803e3d6000fd5b505050506040513d60208110156112ff57600080fd5b5050600154611314908263ffffffff61145116565b60015561132081611721565b601154611333908263ffffffff61145116565b60115550565b6007546001600160a01b031681565b6006546001600160a01b031681565b600d5481565b61136561144d565b6000546001600160a01b039081169116146113c7576040805162461bcd60e51b815260206004820181905260248201527f4f776e61626c653a2063616c6c6572206973206e6f7420746865206f776e6572604482015290519081900360640190fd5b600c55565b6113d461144d565b6000546001600160a01b03908116911614611436576040805162461bcd60e51b815260206004820181905260248201527f4f776e61626c653a2063616c6c6572206973206e6f7420746865206f776e6572604482015290519081900360640190fd5b61143f8161179f565b50565b606481565b60095481565b3390565b6000828201838110156114ab576040805162461bcd60e51b815260206004820152601b60248201527f536166654d6174683a206164646974696f6e206f766572666c6f770000000000604482015290519081900360640190fd5b90505b92915050565b6000826114c3575060006114ae565b828202828482816114d057fe5b04146114ab5760405162461bcd60e51b815260040180806020018281038252602181526020018061196f6021913960400191505060405180910390fd5b60006114ab83836040518060400160405280601a81526020017f536166654d6174683a206469766973696f6e206279207a65726f00000000000081525061184c565b60006114ab83836040518060400160405280601e81526020017f536166654d6174683a207375627472616374696f6e206f766572666c6f7700008152506118ee565b600480546006546040805163a9059cbb60e01b81526001600160a01b0392831694810194909452602484018690525191169163a9059cbb9160448083019260209291908290030181600087803b1580156115ea57600080fd5b505af11580156115fe573d6000803e3d6000fd5b505050506040513d602081101561161457600080fd5b5050600654604080517ff62cf8d0000000000000000000000000000000000000000000000000000000008152600481018590526001600160a01b0384811660248301529151919092169163f62cf8d091604480830192600092919082900301818387803b15801561168457600080fd5b505af1158015611698573d6000803e3d6000fd5b505050505050565b600f54156116c357600f546116bb908263ffffffff61145116565b600f5561143f565b600e548111156117085760006116e4600e548361154f90919063ffffffff16565b6000600e55600f549091506116ff908263ffffffff61145116565b600f555061143f565b600f5461171b908263ffffffff61145116565b600f5550565b600f541561178657600f5481111561176e57600061174a600f548361154f90919063ffffffff16565b6000600f55600e54909150611765908263ffffffff61145116565b600e5550611781565b600f546116bb908263ffffffff61154f16565b61143f565b600e54611799908263ffffffff61145116565b600e5550565b6001600160a01b0381166117e45760405162461bcd60e51b81526004018080602001828103825260268152602001806119496026913960400191505060405180910390fd5b600080546040516001600160a01b03808516939216917f8be0079c531659141344cd1fd0a4f28419497f9722a3daafe3b4186f6b6457e091a36000805473ffffffffffffffffffffffffffffffffffffffff19166001600160a01b0392909216919091179055565b600081836118d85760405162461bcd60e51b81526004018080602001828103825283818151815260200191508051906020019080838360005b8381101561189d578181015183820152602001611885565b50505050905090810190601f1680156118ca5780820380516001836020036101000a031916815260200191505b509250505060405180910390fd5b5060008385816118e457fe5b0495945050505050565b600081848411156119405760405162461bcd60e51b815260206004820181815283516024840152835190928392604490910191908501908083836000831561189d578181015183820152602001611885565b50505090039056fe4f776e61626c653a206e6577206f776e657220697320746865207a65726f2061646472657373536166654d6174683a206d756c7469706c69636174696f6e206f766572666c6f7743616c6c6572206d757374206265206269746372757368206c6976652077616c6c6574a2646970667358221220881dc1d223ed40f7928c3a5c3073ef86f4ebdfaf62aa82c2eaedb0b6cfe8783d64736f6c63430006020033",
  "source": "//SPDX-License-Identifier: MIT\npragma solidity >=0.6.2;\nimport \"@pancakeswap/pancake-swap-lib/contracts/access/Ownable.sol\";\nimport \"./CrushCoin.sol\";\nimport \"@pancakeswap/pancake-swap-lib/contracts/math/SafeMath.sol\";\nimport \"./staking.sol\";\nimport \"./HouseBankroll.sol\";\nimport \"./LiveWallet.sol\";\ncontract BitcrushBankroll is Ownable {\n    \n    using SafeMath for uint256;\n\n    uint256 public totalBankroll;\n    bool poolDepleted = false;\n    uint256 negativeBankroll;\n    //address of the crush token\n    CRUSHToken public crush;\n    BitcrushStaking public stakingPool;\n    BitcrushLiveWallet public liveWallet;\n    address public reserve;\n    address public lottery;\n    \n    uint256 public constant DIVISOR = 10000;\n    uint256 public constant BURN_RATE = 100;\n    uint256 public profitThreshold = 0;\n    \n    //consistent 1% burn\n    uint256 public profitShare;\n    uint256 public houseBankrollShare;\n    uint256 public lotteryShare;\n    uint256 public reserveShare;\n    \n    //profit tracking\n    uint256 public brSinceCompound;\n    uint256 public negativeBrSinceCompound;\n\n    //tracking historical winnings and profits\n    uint256 public totalWinnings = 0;\n    uint256 public totalProfit = 0;\n\n    constructor(\n        CRUSHToken _crush,\n        BitcrushStaking _stakingPool,\n        address _reserve,\n        address _lottery,\n        uint256 _profitShare,\n        uint256 _houseBankrollShare,\n        uint256 _lotteryShare,\n        uint256 _reserveShare\n    ) public {\n        crush = _crush;\n        stakingPool = _stakingPool;\n        reserve = _reserve;\n        lottery = _lottery;\n        profitShare = _profitShare;\n        houseBankrollShare = _houseBankrollShare;\n        lotteryShare = _lotteryShare;\n        reserveShare = _reserveShare;\n\n    }\n\n    function setLiveWallet(BitcrushLiveWallet _liveWallet) public {\n        liveWallet = _liveWallet;\n    }\n\n    \n\n    function addToBankroll(uint256 _amount) public onlyOwner {\n        crush.transferFrom(msg.sender, address(this), _amount);\n        totalBankroll = totalBankroll.add(_amount);\n    }\n\n    function addUserLoss(uint256 _amount) public {\n        require(\n            msg.sender == address(liveWallet),\n            \"Caller must be bitcrush live wallet\"\n        );\n        //make game specific\n        //check if bankroll is in negative\n        //uint is unsigned, keep a bool to track\n        //if negative send to staking to replenish\n        //otherwise add to bankroll and check for profit\n        if (poolDepleted == true) {\n            if (_amount >= negativeBankroll) {\n                uint256 remainder = _amount.sub(negativeBankroll);\n                crush.transferFrom(\n                    msg.sender,\n                    address(stakingPool),\n                    negativeBankroll\n                );\n                stakingPool.unfreezeStaking(negativeBankroll);\n                negativeBankroll = 0;\n                poolDepleted = false;\n                crush.transferFrom(msg.sender, address(this), remainder);\n                totalBankroll = totalBankroll.add(remainder);\n                addToBrSinceCompound(remainder);\n            } else {\n                crush.transferFrom(msg.sender, address(stakingPool), _amount);\n                stakingPool.unfreezeStaking(_amount);\n                negativeBankroll = negativeBankroll.sub(_amount);\n            }\n        } else {\n            crush.transferFrom(msg.sender, address(this), _amount);\n            totalBankroll = totalBankroll.add(_amount);\n            addToBrSinceCompound(_amount);\n        }\n        totalProfit = totalProfit.add(_amount);\n    }\n\n    function payOutUserWinning(\n        uint256 _amount,\n        address _winner\n    ) public {\n        require(\n            msg.sender == address(liveWallet),\n            \"Caller must be bitcrush live wallet\"\n        );\n        \n        \n        //check if bankroll has funds available\n        //if not dip into staking pool for any remainder\n        // update bankroll accordingly\n        if (_amount > totalBankroll) {\n            uint256 remainder = _amount.sub(totalBankroll);\n            poolDepleted = true;\n            stakingPool.freezeStaking(remainder, _winner);\n            negativeBankroll = negativeBankroll.add(remainder);\n            transferWinnings(totalBankroll, _winner);\n\n            totalBankroll = 0;\n        } else {\n            totalBankroll = totalBankroll.sub(_amount);\n            transferWinnings(_amount, _winner);\n        }\n        removeFromBrSinceCompound(_amount);\n        totalWinnings = totalWinnings.add(_amount);\n    }\n\n    function transferWinnings(\n        uint256 _amount,\n        address _winner\n    ) internal {\n        crush.transfer(address(liveWallet), _amount);\n        liveWallet.addToUserWinnings(_amount, _winner);\n    }\n\n\n    function addToBrSinceCompound (uint256 _amount) internal{\n        if(negativeBrSinceCompound > 0){\n            if(_amount > negativeBrSinceCompound){\n                uint256 difference = _amount.sub(negativeBrSinceCompound);\n                negativeBrSinceCompound = 0;\n                brSinceCompound = brSinceCompound.add(difference);\n            }else {\n                negativeBrSinceCompound = negativeBrSinceCompound.sub(_amount);\n            }\n        }else {\n            brSinceCompound = brSinceCompound.add(_amount);\n        }\n    }\n    function removeFromBrSinceCompound (uint256 _amount) internal{\n        if(negativeBrSinceCompound > 0 ){\n            negativeBrSinceCompound = negativeBrSinceCompound.add(_amount);\n            \n        }else {\n            if(_amount > brSinceCompound){\n                uint256 difference = _amount.sub(brSinceCompound);\n                brSinceCompound = 0;\n                negativeBrSinceCompound = negativeBrSinceCompound.add(difference);\n            }else {\n                negativeBrSinceCompound = negativeBrSinceCompound.add(_amount);\n            }\n        }\n    }\n\n    function transferProfit() public returns (uint256) {\n        require(\n            msg.sender == address(stakingPool),\n            \"Caller must be staking pool\"\n        );\n        if (brSinceCompound >= profitThreshold) {\n\n            //-----\n            uint256 profit = 0;\n            if(profitShare > 0 ){\n                uint256 stakingBakrollProfit = brSinceCompound.mul(profitShare).div(DIVISOR);\n                profit = profit.add(stakingBakrollProfit);\n            }\n            if(reserveShare > 0 ){\n                uint256 reserveCrush = brSinceCompound.mul(reserveShare).div(DIVISOR);\n                crush.transfer(reserve, reserveCrush);\n            }\n            if(lotteryShare > 0){\n                uint256 lotteryCrush = brSinceCompound.mul(lotteryShare).div(DIVISOR);\n                crush.transfer(lottery, lotteryCrush);\n            }\n            \n            uint256 burn = brSinceCompound.mul(BURN_RATE).div(DIVISOR);\n            crush.burn(burn); \n\n            if(houseBankrollShare > 0){\n                uint256 bankrollShare = brSinceCompound.mul(houseBankrollShare).div(DIVISOR);\n                brSinceCompound = brSinceCompound.sub(bankrollShare);\n            }\n\n            totalBankroll = totalBankroll.sub(brSinceCompound);\n            //-----\n            crush.transfer(address(stakingPool), profit);\n            brSinceCompound = 0;\n            return profit;\n        } else {\n            return 0;\n        }\n    }\n\n    function setProfitThreshold(uint256 _threshold) public onlyOwner {\n        profitThreshold = _threshold;\n    }\n\n    function setHouseBankrollShare (uint256 _houseBankrollShare) public onlyOwner {\n        houseBankrollShare = _houseBankrollShare;\n    }\n\n    function setProfitShare (uint256 _profitShare) public onlyOwner {\n        profitShare = _profitShare;\n    }\n\n    function setLotteryShare (uint256 _lotteryShare) public onlyOwner {\n        lotteryShare = _lotteryShare;\n    }\n\n    function setReserveShare (uint256 _reserveShare) public onlyOwner {\n        reserveShare = _reserveShare;\n    }\n\n    function EmergencyWithdrawBankroll () public onlyOwner {\n        crush.transfer(msg.sender, totalBankroll);\n        totalBankroll = 0;\n    }\n    function setBitcrushStaking (BitcrushStaking _stakingPool)public onlyOwner{\n        stakingPool = _stakingPool;\n    }\n\n}\n",
  "sourcePath": "/Users/umerali/Desktop/FRAG/bitcrush/crush_contracts/contracts/HouseBankroll.sol",
  "compiler": {
    "name": "solc",
    "version": "0.6.2+commit.bacdbe57.Emscripten.clang"
  },
  "schemaVersion": "3.4.1",
  "updatedAt": "2021-09-30T09:24:53.856Z",
  "networkType": "ethereum",
  "devdoc": {
    "methods": {
      "owner()": {
        "details": "Returns the address of the current owner."
      },
      "renounceOwnership()": {
        "details": "Leaves the contract without owner. It will not be possible to call `onlyOwner` functions anymore. Can only be called by the current owner.     * NOTE: Renouncing ownership will leave the contract without an owner, thereby removing any functionality that is only available to the owner."
      },
      "transferOwnership(address)": {
        "details": "Transfers ownership of the contract to a new account (`newOwner`). Can only be called by the current owner."
      }
    }
  },
  "userdoc": {
    "methods": {}
  }
}