{
  "contractName": "BitcrushLiveWallet",
  "abi": [
    {
      "inputs": [
        {
          "internalType": "contract CRUSHToken",
          "name": "_crush",
          "type": "address"
        },
        {
          "internalType": "contract BitcrushBankroll",
          "name": "_bankroll",
          "type": "address"
        }
      ],
      "stateMutability": "nonpayable",
      "type": "constructor"
    },
    {
      "anonymous": false,
      "inputs": [
        {
          "indexed": true,
          "internalType": "address",
          "name": "_address",
          "type": "address"
        },
        {
          "indexed": true,
          "internalType": "uint256",
          "name": "_amount",
          "type": "uint256"
        }
      ],
      "name": "Deposit",
      "type": "event"
    },
    {
      "anonymous": false,
      "inputs": [
        {
          "indexed": true,
          "internalType": "address",
          "name": "previousOwner",
          "type": "address"
        },
        {
          "indexed": true,
          "internalType": "address",
          "name": "newOwner",
          "type": "address"
        }
      ],
      "name": "OwnershipTransferred",
      "type": "event"
    },
    {
      "anonymous": false,
      "inputs": [
        {
          "indexed": true,
          "internalType": "address",
          "name": "_address",
          "type": "address"
        },
        {
          "indexed": true,
          "internalType": "uint256",
          "name": "_amount",
          "type": "uint256"
        }
      ],
      "name": "Withdraw",
      "type": "event"
    },
    {
      "inputs": [],
      "name": "DIVISOR",
      "outputs": [
        {
          "internalType": "uint256",
          "name": "",
          "type": "uint256"
        }
      ],
      "stateMutability": "view",
      "type": "function",
      "constant": true
    },
    {
      "inputs": [],
      "name": "bankroll",
      "outputs": [
        {
          "internalType": "contract BitcrushBankroll",
          "name": "",
          "type": "address"
        }
      ],
      "stateMutability": "view",
      "type": "function",
      "constant": true
    },
    {
      "inputs": [
        {
          "internalType": "address",
          "name": "",
          "type": "address"
        }
      ],
      "name": "betAmounts",
      "outputs": [
        {
          "internalType": "uint256",
          "name": "balance",
          "type": "uint256"
        }
      ],
      "stateMutability": "view",
      "type": "function",
      "constant": true
    },
    {
      "inputs": [
        {
          "internalType": "address",
          "name": "",
          "type": "address"
        }
      ],
      "name": "blacklistedUsers",
      "outputs": [
        {
          "internalType": "bool",
          "name": "blacklisted",
          "type": "bool"
        }
      ],
      "stateMutability": "view",
      "type": "function",
      "constant": true
    },
    {
      "inputs": [],
      "name": "crush",
      "outputs": [
        {
          "internalType": "contract CRUSHToken",
          "name": "",
          "type": "address"
        }
      ],
      "stateMutability": "view",
      "type": "function",
      "constant": true
    },
    {
      "inputs": [],
      "name": "lossBurn",
      "outputs": [
        {
          "internalType": "uint256",
          "name": "",
          "type": "uint256"
        }
      ],
      "stateMutability": "view",
      "type": "function",
      "constant": true
    },
    {
      "inputs": [],
      "name": "owner",
      "outputs": [
        {
          "internalType": "address",
          "name": "",
          "type": "address"
        }
      ],
      "stateMutability": "view",
      "type": "function",
      "constant": true
    },
    {
      "inputs": [],
      "name": "renounceOwnership",
      "outputs": [],
      "stateMutability": "nonpayable",
      "type": "function"
    },
    {
      "inputs": [
        {
          "internalType": "address",
          "name": "newOwner",
          "type": "address"
        }
      ],
      "name": "transferOwnership",
      "outputs": [],
      "stateMutability": "nonpayable",
      "type": "function"
    },
    {
      "inputs": [
        {
          "internalType": "uint256",
          "name": "_amount",
          "type": "uint256"
        }
      ],
      "name": "addbet",
      "outputs": [],
      "stateMutability": "nonpayable",
      "type": "function"
    },
    {
      "inputs": [
        {
          "internalType": "uint256",
          "name": "_amount",
          "type": "uint256"
        },
        {
          "internalType": "address",
          "name": "_user",
          "type": "address"
        }
      ],
      "name": "addbetWithAddress",
      "outputs": [],
      "stateMutability": "nonpayable",
      "type": "function"
    },
    {
      "inputs": [
        {
          "internalType": "address",
          "name": "_user",
          "type": "address"
        }
      ],
      "name": "balanceOf",
      "outputs": [
        {
          "internalType": "uint256",
          "name": "",
          "type": "uint256"
        }
      ],
      "stateMutability": "view",
      "type": "function",
      "constant": true
    },
    {
      "inputs": [
        {
          "internalType": "uint256[]",
          "name": "_wins",
          "type": "uint256[]"
        },
        {
          "internalType": "address[]",
          "name": "_users",
          "type": "address[]"
        }
      ],
      "name": "registerWin",
      "outputs": [],
      "stateMutability": "nonpayable",
      "type": "function"
    },
    {
      "inputs": [
        {
          "internalType": "uint256[]",
          "name": "_bets",
          "type": "uint256[]"
        },
        {
          "internalType": "address[]",
          "name": "_users",
          "type": "address[]"
        }
      ],
      "name": "registerLoss",
      "outputs": [],
      "stateMutability": "nonpayable",
      "type": "function"
    },
    {
      "inputs": [
        {
          "internalType": "uint256",
          "name": "_amount",
          "type": "uint256"
        }
      ],
      "name": "withdrawBet",
      "outputs": [],
      "stateMutability": "nonpayable",
      "type": "function"
    },
    {
      "inputs": [
        {
          "internalType": "uint256",
          "name": "_amount",
          "type": "uint256"
        },
        {
          "internalType": "address",
          "name": "_user",
          "type": "address"
        }
      ],
      "name": "addToUserWinnings",
      "outputs": [],
      "stateMutability": "nonpayable",
      "type": "function"
    },
    {
      "inputs": [
        {
          "internalType": "address",
          "name": "_address",
          "type": "address"
        }
      ],
      "name": "blacklistUser",
      "outputs": [],
      "stateMutability": "nonpayable",
      "type": "function"
    },
    {
      "inputs": [
        {
          "internalType": "address",
          "name": "_address",
          "type": "address"
        }
      ],
      "name": "whitelistUser",
      "outputs": [],
      "stateMutability": "nonpayable",
      "type": "function"
    },
    {
      "inputs": [],
      "name": "blacklistSelf",
      "outputs": [],
      "stateMutability": "nonpayable",
      "type": "function"
    },
    {
      "inputs": [
        {
          "internalType": "uint256",
          "name": "_lossBurn",
          "type": "uint256"
        }
      ],
      "name": "setLossBurn",
      "outputs": [],
      "stateMutability": "nonpayable",
      "type": "function"
    }
  ],
  "bytecode": "0x6080604052600a60055534801561001557600080fd5b506040516118173803806118178339818101604052604081101561003857600080fd5b50805160209091015160006100546001600160e01b036100cf16565b600080546001600160a01b0319166001600160a01b0383169081178255604051929350917f8be0079c531659141344cd1fd0a4f28419497f9722a3daafe3b4186f6b6457e0908290a350600380546001600160a01b039384166001600160a01b031991821617909155600480549290931691161790556100d3565b3390565b611735806100e26000396000f3fe608060405234801561001057600080fd5b506004361061016c5760003560e01c80638da5cb5b116100cd578063ebcfcf6b11610081578063f2fde38b11610066578063f2fde38b14610556578063f62cf8d01461057c578063fcbca456146105a85761016c565b8063ebcfcf6b14610409578063f2150bbb1461042f5761016c565b8063a4ae1c56116100b2578063a4ae1c56146102bd578063b359a9f9146103e4578063c025247d146103ec5761016c565b80638da5cb5b14610298578063a2b1a2cc146102a05761016c565b806370a0823111610124578063720fe1fd11610109578063720fe1fd1461025c578063723ea115146102645780637efd38131461026c5761016c565b806370a082311461022e578063715018a6146102545761016c565b80633410fe6e116101555780633410fe6e146101cf5780634a4c560d146101e95780636145b22c146102115761016c565b80630c657eb01461017157806322c0aec714610195575b600080fd5b6101796105ce565b604080516001600160a01b039092168252519081900360200190f35b6101bb600480360360208110156101ab57600080fd5b50356001600160a01b03166105dd565b604080519115158252519081900360200190f35b6101d76105f2565b60408051918252519081900360200190f35b61020f600480360360208110156101ff57600080fd5b50356001600160a01b03166105f8565b005b61020f6004803603602081101561022757600080fd5b5035610683565b6101d76004803603602081101561024457600080fd5b50356001600160a01b0316610824565b61020f61083f565b6101d761090b565b61020f610911565b61020f6004803603604081101561028257600080fd5b50803590602001356001600160a01b0316610930565b610179610ac4565b61020f600480360360208110156102b657600080fd5b5035610ad3565b61020f600480360360408110156102d357600080fd5b8101906020810181356401000000008111156102ee57600080fd5b82018360208201111561030057600080fd5b8035906020019184602083028401116401000000008311171561032257600080fd5b919080806020026020016040519081016040528093929190818152602001838360200280828437600092019190915250929594936020810193503591505064010000000081111561037257600080fd5b82018360208201111561038457600080fd5b803590602001918460208302840111640100000000831117156103a657600080fd5b919080806020026020016040519081016040528093929190818152602001838360200280828437600092019190915250929550610c31945050505050565b610179610dc2565b61020f6004803603602081101561040257600080fd5b5035610dd1565b6101d76004803603602081101561041f57600080fd5b50356001600160a01b0316610e95565b61020f6004803603604081101561044557600080fd5b81019060208101813564010000000081111561046057600080fd5b82018360208201111561047257600080fd5b8035906020019184602083028401116401000000008311171561049457600080fd5b91908080602002602001604051908101604052809392919081815260200183836020028082843760009201919091525092959493602081019350359150506401000000008111156104e457600080fd5b8201836020820111156104f657600080fd5b8035906020019184602083028401116401000000008311171561051857600080fd5b919080806020026020016040519081016040528093929190818152602001838360200280828437600092019190915250929550610ea7945050505050565b61020f6004803603602081101561056c57600080fd5b50356001600160a01b031661100f565b61020f6004803603604081101561059257600080fd5b50803590602001356001600160a01b0316611085565b61020f600480360360208110156105be57600080fd5b50356001600160a01b031661110d565b6004546001600160a01b031681565b60016020526000908152604090205460ff1681565b61271081565b61060061119e565b6000546001600160a01b03908116911614610662576040805162461bcd60e51b815260206004820181905260248201527f4f776e61626c653a2063616c6c6572206973206e6f7420746865206f776e6572604482015290519081900360640190fd5b6001600160a01b03166000908152600160205260409020805460ff19169055565b600081116106c25760405162461bcd60e51b81526004018080602001828103825260238152602001806116dd6023913960400191505060405180910390fd5b3360009081526001602052604090205460ff1615610727576040805162461bcd60e51b815260206004820152601460248201527f5573657220697320626c61636b204c6973746564000000000000000000000000604482015290519081900360640190fd5b600354604080517f23b872dd0000000000000000000000000000000000000000000000000000000081523360048201523060248201526044810184905290516001600160a01b03909216916323b872dd916064808201926020929091908290030181600087803b15801561079a57600080fd5b505af11580156107ae573d6000803e3d6000fd5b505050506040513d60208110156107c457600080fd5b5050336000908152600260205260409020546107e6908263ffffffff6111a216565b3360008181526002602052604080822093909355915183927f884edad9ce6fa2440d8a54cc123490eb96d2768479d49ff9c7366125a942436491a350565b6001600160a01b031660009081526002602052604090205490565b61084761119e565b6000546001600160a01b039081169116146108a9576040805162461bcd60e51b815260206004820181905260248201527f4f776e61626c653a2063616c6c6572206973206e6f7420746865206f776e6572604482015290519081900360640190fd5b600080546040516001600160a01b03909116907f8be0079c531659141344cd1fd0a4f28419497f9722a3daafe3b4186f6b6457e0908390a3600080547fffffffffffffffffffffffff0000000000000000000000000000000000000000169055565b60055481565b336000908152600160208190526040909120805460ff19169091179055565b6000821161096f5760405162461bcd60e51b81526004018080602001828103825260238152602001806116dd6023913960400191505060405180910390fd5b6001600160a01b03811660009081526001602052604090205460ff16156109dd576040805162461bcd60e51b815260206004820152601460248201527f5573657220697320626c61636b204c6973746564000000000000000000000000604482015290519081900360640190fd5b600354604080517f23b872dd0000000000000000000000000000000000000000000000000000000081526001600160a01b03848116600483015230602483015260448201869052915191909216916323b872dd9160648083019260209291908290030181600087803b158015610a5257600080fd5b505af1158015610a66573d6000803e3d6000fd5b505050506040513d6020811015610a7c57600080fd5b50506001600160a01b038116600090815260026020526040902054610aa7908363ffffffff6111a216565b6001600160a01b0390911660009081526002602052604090205550565b6000546001600160a01b031690565b33600090815260026020526040902054811115610b37576040805162461bcd60e51b815260206004820152601d60248201527f626574206c657373207468616e20616d6f756e74207769746864726177000000604482015290519081900360640190fd5b33600090815260026020526040902054610b57908263ffffffff61120516565b3360008181526002602090815260408083209490945560035484517fa9059cbb00000000000000000000000000000000000000000000000000000000815260048101949094526024840186905293516001600160a01b039094169363a9059cbb93604480820194918390030190829087803b158015610bd557600080fd5b505af1158015610be9573d6000803e3d6000fd5b505050506040513d6020811015610bff57600080fd5b5050604051819033907f884edad9ce6fa2440d8a54cc123490eb96d2768479d49ff9c7366125a942436490600090a350565b610c3961119e565b6000546001600160a01b03908116911614610c9b576040805162461bcd60e51b815260206004820181905260248201527f4f776e61626c653a2063616c6c6572206973206e6f7420746865206f776e6572604482015290519081900360640190fd5b8051825114610cdb5760405162461bcd60e51b815260040180806020018281038252602181526020018061169b6021913960400191505060405180910390fd5b60005b8151811015610dbd576000838281518110610cf557fe5b60200260200101511115610db557610d1f838281518110610d1257fe5b6020026020010151611247565b610d80838281518110610d2e57fe5b602002602001015160026000858581518110610d4657fe5b60200260200101516001600160a01b03166001600160a01b031681526020019081526020016000206000015461120590919063ffffffff16565b60026000848481518110610d9057fe5b6020908102919091018101516001600160a01b03168252810191909152604001600020555b600101610cde565b505050565b6003546001600160a01b031681565b610dd961119e565b6000546001600160a01b03908116911614610e3b576040805162461bcd60e51b815260206004820181905260248201527f4f776e61626c653a2063616c6c6572206973206e6f7420746865206f776e6572604482015290519081900360640190fd5b60008111610e90576040805162461bcd60e51b815260206004820152601360248201527f4c6f7373206275726e2063616e74206265203000000000000000000000000000604482015290519081900360640190fd5b600555565b60026020526000908152604090205481565b610eaf61119e565b6000546001600160a01b03908116911614610f11576040805162461bcd60e51b815260206004820181905260248201527f4f776e61626c653a2063616c6c6572206973206e6f7420746865206f776e6572604482015290519081900360640190fd5b8051825114610f515760405162461bcd60e51b815260040180806020018281038252602181526020018061169b6021913960400191505060405180910390fd5b60005b8151811015610dbd5760045483516001600160a01b03909116906361433d8890859084908110610f8057fe5b6020026020010151848481518110610f9457fe5b60200260200101516040518363ffffffff1660e01b815260040180838152602001826001600160a01b03166001600160a01b0316815260200192505050600060405180830381600087803b158015610feb57600080fd5b505af1158015610fff573d6000803e3d6000fd5b505060019092019150610f549050565b61101761119e565b6000546001600160a01b03908116911614611079576040805162461bcd60e51b815260206004820181905260248201527f4f776e61626c653a2063616c6c6572206973206e6f7420746865206f776e6572604482015290519081900360640190fd5b6110828161142a565b50565b6004546001600160a01b031633146110e4576040805162461bcd60e51b815260206004820152601760248201527f43616c6c6572206d7573742062652062616e6b726f6c6c000000000000000000604482015290519081900360640190fd5b6001600160a01b038116600090815260026020526040902054610aa7908363ffffffff6111a216565b61111561119e565b6000546001600160a01b03908116911614611177576040805162461bcd60e51b815260206004820181905260248201527f4f776e61626c653a2063616c6c6572206973206e6f7420746865206f776e6572604482015290519081900360640190fd5b6001600160a01b03166000908152600160208190526040909120805460ff19169091179055565b3390565b6000828201838110156111fc576040805162461bcd60e51b815260206004820152601b60248201527f536166654d6174683a206164646974696f6e206f766572666c6f770000000000604482015290519081900360640190fd5b90505b92915050565b60006111fc83836040518060400160405280601e81526020017f536166654d6174683a207375627472616374696f6e206f766572666c6f7700008152506114e2565b60006112706127106112646005548561157990919063ffffffff16565b9063ffffffff6115d216565b600354604080517f42966c680000000000000000000000000000000000000000000000000000000081526004810184905290519293506001600160a01b03909116916342966c689160248082019260009290919082900301818387803b1580156112d957600080fd5b505af11580156112ed573d6000803e3d6000fd5b505050506000611306828461120590919063ffffffff16565b60035460048054604080517f095ea7b30000000000000000000000000000000000000000000000000000000081526001600160a01b039283169381019390935260248301859052519394509091169163095ea7b3916044808201926020929091908290030181600087803b15801561137d57600080fd5b505af1158015611391573d6000803e3d6000fd5b505050506040513d60208110156113a757600080fd5b505060048054604080517fc2e50b16000000000000000000000000000000000000000000000000000000008152928301849052516001600160a01b039091169163c2e50b1691602480830192600092919082900301818387803b15801561140d57600080fd5b505af1158015611421573d6000803e3d6000fd5b50505050505050565b6001600160a01b03811661146f5760405162461bcd60e51b81526004018080602001828103825260268152602001806116756026913960400191505060405180910390fd5b600080546040516001600160a01b03808516939216917f8be0079c531659141344cd1fd0a4f28419497f9722a3daafe3b4186f6b6457e091a3600080547fffffffffffffffffffffffff0000000000000000000000000000000000000000166001600160a01b0392909216919091179055565b600081848411156115715760405162461bcd60e51b81526004018080602001828103825283818151815260200191508051906020019080838360005b8381101561153657818101518382015260200161151e565b50505050905090810190601f1680156115635780820380516001836020036101000a031916815260200191505b509250505060405180910390fd5b505050900390565b600082611588575060006111ff565b8282028284828161159557fe5b04146111fc5760405162461bcd60e51b81526004018080602001828103825260218152602001806116bc6021913960400191505060405180910390fd5b60006111fc83836040518060400160405280601a81526020017f536166654d6174683a206469766973696f6e206279207a65726f0000000000008152506000818361165e5760405162461bcd60e51b815260206004820181815283516024840152835190928392604490910191908501908083836000831561153657818101518382015260200161151e565b50600083858161166a57fe5b049594505050505056fe4f776e61626c653a206e6577206f776e657220697320746865207a65726f2061646472657373506172616d65746572206c656e677468732073686f756c6420626520657175616c536166654d6174683a206d756c7469706c69636174696f6e206f766572666c6f7742657420616d6f756e742073686f756c642062652067726561746572207468616e2030a264697066735822122002a181aa86e940417c0cc53ea3944188d13dce13b3fb3ed6322c023eadc9ee5164736f6c63430006020033",
  "source": "//SPDX-License-Identifier: MIT\npragma solidity >=0.6.2;\nimport \"@pancakeswap/pancake-swap-lib/contracts/access/Ownable.sol\";\nimport \"./CrushCoin.sol\";\nimport \"./HouseBankroll.sol\";\n\nimport \"@pancakeswap/pancake-swap-lib/contracts/math/SafeMath.sol\";\ncontract BitcrushLiveWallet is Ownable {\n    using SafeMath for uint256;\n    struct wallet {\n        //rename to balance\n        uint256 balance;\n        //uint256 winnings;\n    }\n    \n    struct blackList {\n        bool blacklisted;\n    }\n    mapping (address => blackList) public blacklistedUsers;\n    //mapping users address with bet amount\n    mapping (address => wallet) public betAmounts;\n    \n    //address of the crush token\n    CRUSHToken public crush;\n    BitcrushBankroll public bankroll;\n    \n    uint256 public lossBurn = 10;\n    uint256 constant public DIVISOR = 10000;\n\n    \n    event Withdraw (address indexed _address, uint256 indexed _amount);\n    event Deposit (address indexed _address, uint256 indexed _amount);\n\n    constructor (CRUSHToken _crush, BitcrushBankroll _bankroll) public{\n        crush = _crush;\n        bankroll = _bankroll;\n    }\n\n    function addbet (uint256 _amount) public {\n        \n        require(_amount > 0, \"Bet amount should be greater than 0\");\n        require(blacklistedUsers[msg.sender].blacklisted == false, \"User is black Listed\");\n        crush.transferFrom(msg.sender, address(this), _amount);\n        betAmounts[msg.sender].balance = betAmounts[msg.sender].balance.add(_amount);\n        emit Withdraw(msg.sender, _amount);\n        \n    }\n\n    function addbetWithAddress (uint256 _amount, address _user) public {\n        //todo add validation for valid game id\n        require(_amount > 0, \"Bet amount should be greater than 0\");\n        require(blacklistedUsers[_user].blacklisted == false, \"User is black Listed\");\n        crush.transferFrom(_user, address(this), _amount);\n        betAmounts[_user].balance = betAmounts[_user].balance.add(_amount);\n        \n    }\n\n    function balanceOf ( address _user) public view returns (uint256){\n        return betAmounts[_user].balance;\n    }\n\n    function registerWin (uint256[] memory _wins, address[] memory _users) public onlyOwner {\n        require (_wins.length == _users.length, \"Parameter lengths should be equal\");\n        for(uint256 i=0; i < _users.length; i++){\n                bankroll.payOutUserWinning(_wins[i], _users[i]);\n        }\n    }\n    \n    function registerLoss (uint256[] memory _bets, address[] memory _users) public onlyOwner {\n        require (_bets.length == _users.length, \"Parameter lengths should be equal\");\n        for(uint256 i=0; i < _users.length; i++){\n            if(_bets[i] > 0){\n            transferToBankroll(_bets[i]);\n            betAmounts[_users[i]].balance = betAmounts[_users[i]].balance.sub(_bets[i]);\n            }\n            \n        }\n    }\n\n    function transferToBankroll (uint256 _amount) internal {\n        uint256 burnShare = _amount.mul(lossBurn).div(DIVISOR);\n        crush.burn(burnShare);\n        uint256 remainingAmount = _amount.sub(burnShare);\n        crush.approve(address(bankroll), remainingAmount);\n        bankroll.addUserLoss(remainingAmount);       \n    }\n\n    function withdrawBet(uint256 _amount) public {\n        require(betAmounts[msg.sender].balance >= _amount, \"bet less than amount withdraw\");\n        betAmounts[msg.sender].balance = betAmounts[msg.sender].balance.sub(_amount);\n        crush.transfer(msg.sender, _amount);\n        emit Withdraw(msg.sender, _amount);\n    }\n\n    function addToUserWinnings (uint256 _amount, address _user) public {\n        require(msg.sender == address(bankroll),\"Caller must be bankroll\");\n        betAmounts[_user].balance = betAmounts[_user].balance.add(_amount);\n\n    }\n\n    function blacklistUser (address _address) public onlyOwner {\n        blacklistedUsers[_address].blacklisted = true;\n    }\n\n    function whitelistUser (address _address) public onlyOwner {\n        delete blacklistedUsers[_address];\n    }\n\n    function blacklistSelf () public  {\n        blacklistedUsers[msg.sender].blacklisted = true;\n    }\n\n    function setLossBurn(uint256 _lossBurn) public onlyOwner {\n        require(_lossBurn > 0, \"Loss burn cant be 0\");\n        lossBurn = _lossBurn;\n    }\n\n}",
  "sourcePath": "/Users/umerali/Desktop/FRAG/bitcrush/crush_contracts/contracts/LiveWallet.sol",
  "compiler": {
    "name": "solc",
    "version": "0.6.2+commit.bacdbe57.Emscripten.clang"
  },
  "schemaVersion": "3.4.1",
  "updatedAt": "2021-08-27T06:34:23.161Z",
  "networkType": "ethereum",
  "devdoc": {
    "methods": {
      "owner()": {
        "details": "Returns the address of the current owner."
      },
      "renounceOwnership()": {
        "details": "Leaves the contract without owner. It will not be possible to call `onlyOwner` functions anymore. Can only be called by the current owner.     * NOTE: Renouncing ownership will leave the contract without an owner, thereby removing any functionality that is only available to the owner."
      },
      "transferOwnership(address)": {
        "details": "Transfers ownership of the contract to a new account (`newOwner`). Can only be called by the current owner."
      }
    }
  },
  "userdoc": {
    "methods": {}
  }
}