{
  "contractName": "BitcrushStaking",
  "abi": [
    {
      "inputs": [
        {
          "internalType": "contract CRUSHToken",
          "name": "_crush",
          "type": "address"
        },
        {
          "internalType": "uint256",
          "name": "_crushPerBlock",
          "type": "uint256"
        },
        {
          "internalType": "address",
          "name": "_reserveAddress",
          "type": "address"
        }
      ],
      "stateMutability": "nonpayable",
      "type": "constructor"
    },
    {
      "anonymous": false,
      "inputs": [
        {
          "indexed": true,
          "internalType": "address",
          "name": "previousOwner",
          "type": "address"
        },
        {
          "indexed": true,
          "internalType": "address",
          "name": "newOwner",
          "type": "address"
        }
      ],
      "name": "OwnershipTransferred",
      "type": "event"
    },
    {
      "anonymous": false,
      "inputs": [
        {
          "indexed": true,
          "internalType": "uint256",
          "name": "_totalPool",
          "type": "uint256"
        }
      ],
      "name": "RewardPoolUpdated",
      "type": "event"
    },
    {
      "anonymous": false,
      "inputs": [
        {
          "indexed": true,
          "internalType": "address",
          "name": "recipeint",
          "type": "address"
        },
        {
          "indexed": true,
          "internalType": "uint256",
          "name": "_amount",
          "type": "uint256"
        }
      ],
      "name": "StakeUpdated",
      "type": "event"
    },
    {
      "inputs": [
        {
          "internalType": "uint256",
          "name": "",
          "type": "uint256"
        }
      ],
      "name": "addressIndexes",
      "outputs": [
        {
          "internalType": "address",
          "name": "",
          "type": "address"
        }
      ],
      "stateMutability": "view",
      "type": "function",
      "constant": true
    },
    {
      "inputs": [],
      "name": "autoCompoundLimit",
      "outputs": [
        {
          "internalType": "uint256",
          "name": "",
          "type": "uint256"
        }
      ],
      "stateMutability": "view",
      "type": "function",
      "constant": true
    },
    {
      "inputs": [],
      "name": "bankroll",
      "outputs": [
        {
          "internalType": "contract BitcrushBankroll",
          "name": "",
          "type": "address"
        }
      ],
      "stateMutability": "view",
      "type": "function",
      "constant": true
    },
    {
      "inputs": [],
      "name": "batchStartingIndex",
      "outputs": [
        {
          "internalType": "uint256",
          "name": "",
          "type": "uint256"
        }
      ],
      "stateMutability": "view",
      "type": "function",
      "constant": true
    },
    {
      "inputs": [],
      "name": "blockPerSecond",
      "outputs": [
        {
          "internalType": "uint256",
          "name": "",
          "type": "uint256"
        }
      ],
      "stateMutability": "view",
      "type": "function",
      "constant": true
    },
    {
      "inputs": [],
      "name": "crush",
      "outputs": [
        {
          "internalType": "contract CRUSHToken",
          "name": "",
          "type": "address"
        }
      ],
      "stateMutability": "view",
      "type": "function",
      "constant": true
    },
    {
      "inputs": [],
      "name": "crushPerBlock",
      "outputs": [
        {
          "internalType": "uint256",
          "name": "",
          "type": "uint256"
        }
      ],
      "stateMutability": "view",
      "type": "function",
      "constant": true
    },
    {
      "inputs": [],
      "name": "deploymentTimeStamp",
      "outputs": [
        {
          "internalType": "uint256",
          "name": "",
          "type": "uint256"
        }
      ],
      "stateMutability": "view",
      "type": "function",
      "constant": true
    },
    {
      "inputs": [],
      "name": "earlyWithdrawFee",
      "outputs": [
        {
          "internalType": "uint256",
          "name": "",
          "type": "uint256"
        }
      ],
      "stateMutability": "view",
      "type": "function",
      "constant": true
    },
    {
      "inputs": [],
      "name": "earlyWithdrawFeeTime",
      "outputs": [
        {
          "internalType": "uint256",
          "name": "",
          "type": "uint256"
        }
      ],
      "stateMutability": "view",
      "type": "function",
      "constant": true
    },
    {
      "inputs": [],
      "name": "lastAutoCompoundBlock",
      "outputs": [
        {
          "internalType": "uint256",
          "name": "",
          "type": "uint256"
        }
      ],
      "stateMutability": "view",
      "type": "function",
      "constant": true
    },
    {
      "inputs": [],
      "name": "liveWallet",
      "outputs": [
        {
          "internalType": "contract BitcrushLiveWallet",
          "name": "",
          "type": "address"
        }
      ],
      "stateMutability": "view",
      "type": "function",
      "constant": true
    },
    {
      "inputs": [],
      "name": "owner",
      "outputs": [
        {
          "internalType": "address",
          "name": "",
          "type": "address"
        }
      ],
      "stateMutability": "view",
      "type": "function",
      "constant": true
    },
    {
      "inputs": [],
      "name": "pendingStakedValue",
      "outputs": [
        {
          "internalType": "uint256",
          "name": "",
          "type": "uint256"
        }
      ],
      "stateMutability": "view",
      "type": "function",
      "constant": true
    },
    {
      "inputs": [],
      "name": "performanceFeeBurn",
      "outputs": [
        {
          "internalType": "uint256",
          "name": "",
          "type": "uint256"
        }
      ],
      "stateMutability": "view",
      "type": "function",
      "constant": true
    },
    {
      "inputs": [],
      "name": "performanceFeeCompounder",
      "outputs": [
        {
          "internalType": "uint256",
          "name": "",
          "type": "uint256"
        }
      ],
      "stateMutability": "view",
      "type": "function",
      "constant": true
    },
    {
      "inputs": [],
      "name": "performanceFeeReserve",
      "outputs": [
        {
          "internalType": "uint256",
          "name": "",
          "type": "uint256"
        }
      ],
      "stateMutability": "view",
      "type": "function",
      "constant": true
    },
    {
      "inputs": [],
      "name": "profitShare",
      "outputs": [
        {
          "internalType": "uint256",
          "name": "",
          "type": "uint256"
        }
      ],
      "stateMutability": "view",
      "type": "function",
      "constant": true
    },
    {
      "inputs": [
        {
          "internalType": "uint256",
          "name": "",
          "type": "uint256"
        }
      ],
      "name": "profits",
      "outputs": [
        {
          "internalType": "uint256",
          "name": "total",
          "type": "uint256"
        },
        {
          "internalType": "uint256",
          "name": "remaining",
          "type": "uint256"
        }
      ],
      "stateMutability": "view",
      "type": "function",
      "constant": true
    },
    {
      "inputs": [],
      "name": "renounceOwnership",
      "outputs": [],
      "stateMutability": "nonpayable",
      "type": "function"
    },
    {
      "inputs": [],
      "name": "reserveAddress",
      "outputs": [
        {
          "internalType": "address",
          "name": "",
          "type": "address"
        }
      ],
      "stateMutability": "view",
      "type": "function",
      "constant": true
    },
    {
      "inputs": [
        {
          "internalType": "address",
          "name": "",
          "type": "address"
        }
      ],
      "name": "stakings",
      "outputs": [
        {
          "internalType": "uint256",
          "name": "stakedAmount",
          "type": "uint256"
        },
        {
          "internalType": "uint256",
          "name": "claimedAmount",
          "type": "uint256"
        },
        {
          "internalType": "uint256",
          "name": "profit",
          "type": "uint256"
        },
        {
          "internalType": "uint256",
          "name": "lastBlockCompounded",
          "type": "uint256"
        },
        {
          "internalType": "uint256",
          "name": "lastBlockStaked",
          "type": "uint256"
        },
        {
          "internalType": "uint256",
          "name": "index",
          "type": "uint256"
        }
      ],
      "stateMutability": "view",
      "type": "function",
      "constant": true
    },
    {
      "inputs": [],
      "name": "totalClaimed",
      "outputs": [
        {
          "internalType": "uint256",
          "name": "",
          "type": "uint256"
        }
      ],
      "stateMutability": "view",
      "type": "function",
      "constant": true
    },
    {
      "inputs": [],
      "name": "totalFrozen",
      "outputs": [
        {
          "internalType": "uint256",
          "name": "",
          "type": "uint256"
        }
      ],
      "stateMutability": "view",
      "type": "function",
      "constant": true
    },
    {
      "inputs": [],
      "name": "totalPool",
      "outputs": [
        {
          "internalType": "uint256",
          "name": "",
          "type": "uint256"
        }
      ],
      "stateMutability": "view",
      "type": "function",
      "constant": true
    },
    {
      "inputs": [],
      "name": "totalProfitDistributed",
      "outputs": [
        {
          "internalType": "uint256",
          "name": "",
          "type": "uint256"
        }
      ],
      "stateMutability": "view",
      "type": "function",
      "constant": true
    },
    {
      "inputs": [],
      "name": "totalStaked",
      "outputs": [
        {
          "internalType": "uint256",
          "name": "",
          "type": "uint256"
        }
      ],
      "stateMutability": "view",
      "type": "function",
      "constant": true
    },
    {
      "inputs": [
        {
          "internalType": "address",
          "name": "newOwner",
          "type": "address"
        }
      ],
      "name": "transferOwnership",
      "outputs": [],
      "stateMutability": "nonpayable",
      "type": "function"
    },
    {
      "inputs": [
        {
          "internalType": "contract BitcrushBankroll",
          "name": "_bankroll",
          "type": "address"
        }
      ],
      "name": "setBankroll",
      "outputs": [],
      "stateMutability": "nonpayable",
      "type": "function"
    },
    {
      "inputs": [
        {
          "internalType": "contract BitcrushLiveWallet",
          "name": "_liveWallet",
          "type": "address"
        }
      ],
      "name": "setLiveWallet",
      "outputs": [],
      "stateMutability": "nonpayable",
      "type": "function"
    },
    {
      "inputs": [
        {
          "internalType": "uint256",
          "name": "_amount",
          "type": "uint256"
        }
      ],
      "name": "addRewardToPool",
      "outputs": [],
      "stateMutability": "nonpayable",
      "type": "function"
    },
    {
      "inputs": [
        {
          "internalType": "uint256",
          "name": "_amount",
          "type": "uint256"
        }
      ],
      "name": "setCrushPerBlock",
      "outputs": [],
      "stateMutability": "nonpayable",
      "type": "function"
    },
    {
      "inputs": [
        {
          "internalType": "uint256",
          "name": "_amount",
          "type": "uint256"
        }
      ],
      "name": "enterStaking",
      "outputs": [],
      "stateMutability": "nonpayable",
      "type": "function"
    },
    {
      "inputs": [
        {
          "internalType": "uint256",
          "name": "_amount",
          "type": "uint256"
        },
        {
          "internalType": "bool",
          "name": "_liveWallet",
          "type": "bool"
        }
      ],
      "name": "leaveStaking",
      "outputs": [],
      "stateMutability": "nonpayable",
      "type": "function"
    },
    {
      "inputs": [],
      "name": "totalPendingRewards",
      "outputs": [
        {
          "internalType": "uint256",
          "name": "",
          "type": "uint256"
        }
      ],
      "stateMutability": "view",
      "type": "function",
      "constant": true
    },
    {
      "inputs": [
        {
          "internalType": "address",
          "name": "_address",
          "type": "address"
        }
      ],
      "name": "pendingReward",
      "outputs": [
        {
          "internalType": "uint256",
          "name": "",
          "type": "uint256"
        }
      ],
      "stateMutability": "view",
      "type": "function",
      "constant": true
    },
    {
      "inputs": [
        {
          "internalType": "bool",
          "name": "_liveWallet",
          "type": "bool"
        }
      ],
      "name": "claim",
      "outputs": [],
      "stateMutability": "nonpayable",
      "type": "function"
    },
    {
      "inputs": [],
      "name": "singleCompound",
      "outputs": [],
      "stateMutability": "nonpayable",
      "type": "function"
    },
    {
      "inputs": [],
      "name": "compoundAll",
      "outputs": [],
      "stateMutability": "nonpayable",
      "type": "function"
    },
    {
      "inputs": [
        {
          "internalType": "uint256",
          "name": "_amount",
          "type": "uint256"
        },
        {
          "internalType": "address",
          "name": "_recipient",
          "type": "address"
        }
      ],
      "name": "freezeStaking",
      "outputs": [],
      "stateMutability": "nonpayable",
      "type": "function"
    },
    {
      "inputs": [
        {
          "internalType": "uint256",
          "name": "_amount",
          "type": "uint256"
        }
      ],
      "name": "unfreezeStaking",
      "outputs": [],
      "stateMutability": "nonpayable",
      "type": "function"
    },
    {
      "inputs": [],
      "name": "emergencyWithdraw",
      "outputs": [],
      "stateMutability": "nonpayable",
      "type": "function"
    },
    {
      "inputs": [],
      "name": "emergencyTotalPoolWithdraw",
      "outputs": [],
      "stateMutability": "nonpayable",
      "type": "function"
    },
    {
      "inputs": [],
      "name": "indexesLength",
      "outputs": [
        {
          "internalType": "uint256",
          "name": "_addressesLength",
          "type": "uint256"
        }
      ],
      "stateMutability": "view",
      "type": "function",
      "constant": true
    },
    {
      "inputs": [
        {
          "internalType": "uint256",
          "name": "_fee",
          "type": "uint256"
        }
      ],
      "name": "setPerformanceFeeCompounder",
      "outputs": [],
      "stateMutability": "nonpayable",
      "type": "function"
    },
    {
      "inputs": [
        {
          "internalType": "uint256",
          "name": "_fee",
          "type": "uint256"
        }
      ],
      "name": "setPerformanceFeeBurn",
      "outputs": [],
      "stateMutability": "nonpayable",
      "type": "function"
    },
    {
      "inputs": [
        {
          "internalType": "uint256",
          "name": "_fee",
          "type": "uint256"
        }
      ],
      "name": "setEarlyWithdrawFee",
      "outputs": [],
      "stateMutability": "nonpayable",
      "type": "function"
    },
    {
      "inputs": [
        {
          "internalType": "uint256",
          "name": "_fee",
          "type": "uint256"
        }
      ],
      "name": "setPerformanceFeeReserve",
      "outputs": [],
      "stateMutability": "nonpayable",
      "type": "function"
    },
    {
      "inputs": [
        {
          "internalType": "uint256",
          "name": "_time",
          "type": "uint256"
        }
      ],
      "name": "setEarlyWithdrawFeeTime",
      "outputs": [],
      "stateMutability": "nonpayable",
      "type": "function"
    },
    {
      "inputs": [
        {
          "internalType": "uint256",
          "name": "_limit",
          "type": "uint256"
        }
      ],
      "name": "setAutoCompoundLimit",
      "outputs": [],
      "stateMutability": "nonpayable",
      "type": "function"
    },
    {
      "inputs": [
        {
          "internalType": "uint256",
          "name": "_profitShare",
          "type": "uint256"
        }
      ],
      "name": "setProfitShare",
      "outputs": [],
      "stateMutability": "nonpayable",
      "type": "function"
    }
  ],
  "bytecode": "0x6080604052600a6001556064600255603260035560be600455600a60055560036006556006546203f480816200003157fe5b0460075560006008556000601155600560125560006016556000601755600a6018553480156200006057600080fd5b506040516200362338038062003623833981810160405260608110156200008657600080fd5b50805160208201516040909201519091906000620000ac6001600160e01b036200013716565b600080546001600160a01b0319166001600160a01b0383169081178255604051929350917f8be0079c531659141344cd1fd0a4f28419497f9722a3daafe3b4186f6b6457e0908290a350600980546001600160a01b039485166001600160a01b031991821617909155601292909255601380549190931691161790556000601055426019556200013b565b3390565b6134d8806200014b6000396000f3fe608060405234801561001057600080fd5b50600436106103415760003560e01c8063715018a6116101bd578063c61f1c0b116100f9578063e3aeeb46116100a2578063ecfb49a31161007c578063ecfb49a3146106fd578063f2fde38b14610705578063f40f0f521461072b578063f79ed94b1461075157610341565b8063e3aeeb46146106e5578063ec1371f2146106ed578063ecb1c924146106f557610341565b8063db2e21bc116100d3578063db2e21bc14610667578063dc6e13e11461066f578063e39faaa4146106c857610341565b8063c61f1c0b1461064f578063d180fd8814610657578063d54ad2a11461065f57610341565b8063a775573a11610166578063bca5503d11610140578063bca5503d146105e7578063bde8a93e146105ef578063c22982f414610615578063c53f871f1461063257610341565b8063a775573a146105ba578063a80a7882146105d7578063b359a9f9146105df57610341565b80638da5cb5b116101975780638da5cb5b146105845780639b05ddb31461058c5780639e13900c1461059457610341565b8063715018a61461055757806376e9e6c01461055f578063817b1cd21461057c57610341565b8063445e76881161028c5780635832d57111610235578063668579c91161020f578063668579c9146105225780636903d0b61461052a5780636e74d2e2146105325780636f90e0461461053a57610341565b80635832d571146104e05780635d66471a146104fd5780636535fc661461050557610341565b80634bf211b8116102665780634bf211b8146104b3578063563b6b71146104bb5780635692f138146104d857610341565b8063445e76881461045a57806349fb5e471461047f5780634b37f006146104ab57610341565b80632d81a78e116102ee5780633a53ed49116102c85780633a53ed49146104185780633e1f55e41461043557806341441d3b1461043d57610341565b80632d81a78e146103bb5780632e5f6d4c146103da57806338ed019a1461041057610341565b80632533830a1161031f5780632533830a1461038c57806326cba33614610394578063289bac07146103b357610341565b80630a3960bc146103465780630c657eb0146103605780631e7f87bc14610384575b600080fd5b61034e610759565b60408051918252519081900360200190f35b61036861075f565b604080516001600160a01b039092168252519081900360200190f35b61034e61076e565b61034e610774565b6103b1600480360360208110156103aa57600080fd5b503561077a565b005b61034e610894565b6103b1600480360360208110156103d157600080fd5b5035151561089a565b6103f7600480360360208110156103f057600080fd5b5035610ab9565b6040805192835260208301919091528051918290030190f35b61034e610ae4565b6103b16004803603602081101561042e57600080fd5b5035610aea565b61034e610c9a565b6103b16004803603602081101561045357600080fd5b5035610ca0565b6103b16004803603604081101561047057600080fd5b50803590602001351515611042565b6103b16004803603604081101561049557600080fd5b50803590602001356001600160a01b031661161e565b61034e611796565b61034e61179c565b6103b1600480360360208110156104d157600080fd5b50356117a2565b6103b1611866565b610368600480360360208110156104f657600080fd5b50356119a2565b61034e6119c9565b6103b16004803603602081101561051b57600080fd5b50356119cf565b61034e611aea565b61034e611af0565b61034e611af6565b6103b16004803603602081101561055057600080fd5b5035611afc565b6103b1611bc0565b6103b16004803603602081101561057557600080fd5b5035611c81565b61034e611d45565b610368611d4b565b6103b1611d5b565b6103b1600480360360208110156105aa57600080fd5b50356001600160a01b03166125dc565b6103b1600480360360208110156105d057600080fd5b503561260b565b61034e6126c1565b6103686126c7565b61034e6126d6565b6103b16004803603602081101561060557600080fd5b50356001600160a01b03166126dc565b6103b16004803603602081101561062b57600080fd5b503561270b565b6103b16004803603602081101561064857600080fd5b5035612825565b61034e61293f565b6103b1612945565b61034e612b47565b6103b1612b4d565b6106956004803603602081101561068557600080fd5b50356001600160a01b0316612da7565b604080519687526020870195909552858501939093526060850191909152608084015260a0830152519081900360c00190f35b6103b1600480360360208110156106de57600080fd5b5035612ddc565b610368612e36565b61034e612e45565b61034e612ead565b61034e612eb3565b6103b16004803603602081101561071b57600080fd5b50356001600160a01b0316612eb9565b61034e6004803603602081101561074157600080fd5b50356001600160a01b0316612f2c565b610368612f3f565b60045481565b600a546001600160a01b031681565b60165481565b60175481565b610782612f4e565b6000546001600160a01b039081169116146107e4576040805162461bcd60e51b815260206004820181905260248201527f4f776e61626c653a2063616c6c6572206973206e6f7420746865206f776e6572604482015290519081900360640190fd5b60008111610839576040805162461bcd60e51b815260206004820152601a60248201527f466565206d7573742062652067726561746572207468616e2030000000000000604482015290519081900360640190fd5b6103e8811061088f576040805162461bcd60e51b815260206004820152601960248201527f466565206d757374206265206c657373207468616e2031302500000000000000604482015290519081900360640190fd5b600155565b600d5490565b60006108a533612f52565b336000908152600c60205260409020600101549091506108cb908263ffffffff61302f16565b336000908152600c602052604090206001015581610969576009546040805163a9059cbb60e01b81523360048201526024810184905290516001600160a01b039092169163a9059cbb916044808201926020929091908290030181600087803b15801561093757600080fd5b505af115801561094b573d6000803e3d6000fd5b505050506040513d602081101561096157600080fd5b50610a739050565b600954600b546040805163095ea7b360e01b81526001600160a01b039283166004820152602481018590529051919092169163095ea7b39160448083019260209291908290030181600087803b1580156109c257600080fd5b505af11580156109d6573d6000803e3d6000fd5b505050506040513d60208110156109ec57600080fd5b5050600b54604080517f7efd38130000000000000000000000000000000000000000000000000000000081526004810184905233602482015290516001600160a01b0390921691637efd38139160448082019260009290919082900301818387803b158015610a5a57600080fd5b505af1158015610a6e573d6000803e3d6000fd5b505050505b336000908152600c6020526040902043600390910155601554610a9c908263ffffffff61302f16565b601555600f54610ab2908263ffffffff61309216565b600f555050565b600e8181548110610ac657fe5b60009182526020909120600290910201805460019091015490915082565b60115481565b600954604080517f70a08231000000000000000000000000000000000000000000000000000000008152336004820152905183926001600160a01b0316916370a08231916024808301926020929190829003018186803b158015610b4d57600080fd5b505afa158015610b61573d6000803e3d6000fd5b505050506040513d6020811015610b7757600080fd5b50511015610bb65760405162461bcd60e51b81526004018080602001828103825260268152602001806134406026913960400191505060405180910390fd5b600f54610bc9908263ffffffff61302f16565b600f55600954604080517f23b872dd0000000000000000000000000000000000000000000000000000000081523360048201523060248201526044810184905290516001600160a01b03909216916323b872dd916064808201926020929091908290030181600087803b158015610c3f57600080fd5b505af1158015610c53573d6000803e3d6000fd5b505050506040513d6020811015610c6957600080fd5b5050600f546040517f1ef37ab665f7c977b577275d7a49e72cd18d1143eccd1112f1198e4a39d1428c90600090a250565b60055481565b600954604080517f70a08231000000000000000000000000000000000000000000000000000000008152336004820152905183926001600160a01b0316916370a08231916024808301926020929190829003018186803b158015610d0357600080fd5b505afa158015610d17573d6000803e3d6000fd5b505050506040513d6020811015610d2d57600080fd5b50511015610d6c5760405162461bcd60e51b81526004018080602001828103825260268152602001806134406026913960400191505060405180910390fd5b60008111610dc1576040805162461bcd60e51b815260206004820152601660248201527f496e76616c6964207374616b696e6720616d6f756e7400000000000000000000604482015290519081900360640190fd5b6000600f5411610e18576040805162461bcd60e51b815260206004820152601560248201527f52657761726420506f6f6c204578686175737465640000000000000000000000604482015290519081900360640190fd5b600954604080517f23b872dd0000000000000000000000000000000000000000000000000000000081523360048201523060248201526044810184905290516001600160a01b03909216916323b872dd916064808201926020929091908290030181600087803b158015610e8b57600080fd5b505af1158015610e9f573d6000803e3d6000fd5b505050506040513d6020811015610eb557600080fd5b5050601454610ec357436010555b336000908152600c6020526040902054610f4457336000818152600c60205260409020436003820155600d80546001810182557fd7b6990105719101dabeb77144f2a3385c8033acd3af97e9423a695e81ad1eb501805473ffffffffffffffffffffffffffffffffffffffff19169093179092559054600019016005909101555b336000908152600c6020526040902054610f64908263ffffffff61302f16565b336000908152600c6020526040902090815543600490910155601454610f90908263ffffffff61302f16565b6014556009546001600160a01b031663a9059cbb33610fae81612f52565b6040518363ffffffff1660e01b815260040180836001600160a01b03166001600160a01b0316815260200182815260200192505050602060405180830381600087803b158015610ffd57600080fd5b505af1158015611011573d6000803e3d6000fd5b505050506040513d602081101561102757600080fd5b5050336000908152600c602052604090204360039091015550565b600061104d33612f52565b336000908152600c6020526040902043600390910155600f54909150611079908263ffffffff61309216565b600f55601654600090156110e557601454336000908152600c60205260409020546016546110de926110c29290916110b69163ffffffff6130d416565b9063ffffffff61312d16565b336000908152600c60205260409020549063ffffffff61309216565b90506110f7565b50336000908152600c60205260409020545b838110156111365760405162461bcd60e51b815260040180806020018281038252603f81526020018061336f603f913960400191505060405180910390fd5b836008541061115a57600854611152908563ffffffff61309216565b600855611191565b60006111716008548661309290919063ffffffff16565b600060085560145490915061118c908263ffffffff61309216565b601455505b336000908152600c60205260409020546111b1908563ffffffff61309216565b336000908152600c602052604090209081556007546004909101546111db9163ffffffff61302f16565b43101561129a5760006111ff6127106110b6600354886130d490919063ffffffff16565b9050611211858263ffffffff61309216565b6009546013546040805163a9059cbb60e01b81526001600160a01b03928316600482015260248101869052905193985091169163a9059cbb916044808201926020929091908290030181600087803b15801561126c57600080fd5b505af1158015611280573d6000803e3d6000fd5b505050506040513d602081101561129657600080fd5b5050505b6112aa848363ffffffff61302f16565b935082611337576009546040805163a9059cbb60e01b81523360048201526024810187905290516001600160a01b039092169163a9059cbb916044808201926020929091908290030181600087803b15801561130557600080fd5b505af1158015611319573d6000803e3d6000fd5b505050506040513d602081101561132f57600080fd5b506114419050565b600954600b546040805163095ea7b360e01b81526001600160a01b039283166004820152602481018890529051919092169163095ea7b39160448083019260209291908290030181600087803b15801561139057600080fd5b505af11580156113a4573d6000803e3d6000fd5b505050506040513d60208110156113ba57600080fd5b5050600b54604080517f7efd38130000000000000000000000000000000000000000000000000000000081526004810187905233602482015290516001600160a01b0390921691637efd38139160448082019260009290919082900301818387803b15801561142857600080fd5b505af115801561143c573d6000803e3d6000fd5b505050505b336000908152600c60205260409020546115ec57336000908152600c60205260409020600d5460058201546000199091011461157e57600d805460009190600019810190811061148d57fe5b9060005260206000200160009054906101000a90046001600160a01b0316905080600d8360050154815481106114bf57fe5b6000918252602080832091909101805473ffffffffffffffffffffffffffffffffffffffff19166001600160a01b039485161790556005858101548585168452600c8352604080852090920155600954815163095ea7b360e01b815230600482015260248101859052915194169363095ea7b393604480840194938390030190829087803b15801561155057600080fd5b505af1158015611564573d6000803e3d6000fd5b505050506040513d602081101561157a57600080fd5b5050505b600d80548061158957fe5b600082815260208082208301600019908101805473ffffffffffffffffffffffffffffffffffffffff19169055909201909255338252600c9052604081208181556001810182905560028101829055600381018290556004810182905560050155505b600f546040517f1ef37ab665f7c977b577275d7a49e72cd18d1143eccd1112f1198e4a39d1428c90600090a250505050565b6016546014546116339163ffffffff61309216565b8211156116715760405162461bcd60e51b815260040180806020018281038252603d815260200180613466603d913960400191505060405180910390fd5b601654611684908363ffffffff61302f16565b601655600b54604080517ff62cf8d0000000000000000000000000000000000000000000000000000000008152600481018590526001600160a01b0384811660248301529151919092169163f62cf8d091604480830192600092919082900301818387803b1580156116f557600080fd5b505af1158015611709573d6000803e3d6000fd5b5050600954600b546040805163a9059cbb60e01b81526001600160a01b03928316600482015260248101889052905191909216935063a9059cbb925060448083019260209291908290030181600087803b15801561176657600080fd5b505af115801561177a573d6000803e3d6000fd5b505050506040513d602081101561179057600080fd5b50505050565b60065481565b60105481565b6117aa612f4e565b6000546001600160a01b0390811691161461180c576040805162461bcd60e51b815260206004820181905260248201527f4f776e61626c653a2063616c6c6572206973206e6f7420746865206f776e6572604482015290519081900360640190fd5b60008111611861576040805162461bcd60e51b815260206004820152601960248201527f50726f6669742073686172652063616e206e6f74206265203000000000000000604482015290519081900360640190fd5b600555565b336000908152600c60205260409020546118c7576040805162461bcd60e51b815260206004820152601e60248201527f506c65617365205374616b6520437275736820746f20636f6d706f756e640000604482015290519081900360640190fd5b60006118d233612f52565b336000908152600c60205260409020549091506118f5908263ffffffff61302f16565b336000908152600c6020526040902055601454611918908263ffffffff61302f16565b601455336000908152600c6020526040902043600390910155600f54611944908263ffffffff61309216565b600f8190556040517f1ef37ab665f7c977b577275d7a49e72cd18d1143eccd1112f1198e4a39d1428c90600090a2604051819033907fab0e25dc39626189cfb41155020ba89e726b10244275733e9d7c63cf33ffccdb90600090a350565b600d81815481106119af57fe5b6000918252602090912001546001600160a01b0316905081565b60085481565b6119d7612f4e565b6000546001600160a01b03908116911614611a39576040805162461bcd60e51b815260206004820181905260248201527f4f776e61626c653a2063616c6c6572206973206e6f7420746865206f776e6572604482015290519081900360640190fd5b60008111611a8e576040805162461bcd60e51b815260206004820152601a60248201527f466565206d7573742062652067726561746572207468616e2030000000000000604482015290519081900360640190fd5b6103e8811115611ae5576040805162461bcd60e51b815260206004820152601960248201527f466565206d757374206265206c657373207468616e2031302500000000000000604482015290519081900360640190fd5b600455565b60195481565b60075481565b60025481565b611b04612f4e565b6000546001600160a01b03908116911614611b66576040805162461bcd60e51b815260206004820181905260248201527f4f776e61626c653a2063616c6c6572206973206e6f7420746865206f776e6572604482015290519081900360640190fd5b60008111611bbb576040805162461bcd60e51b815260206004820152601b60248201527f54696d65206d7573742062652067726561746572207468616e20300000000000604482015290519081900360640190fd5b600755565b611bc8612f4e565b6000546001600160a01b03908116911614611c2a576040805162461bcd60e51b815260206004820181905260248201527f4f776e61626c653a2063616c6c6572206973206e6f7420746865206f776e6572604482015290519081900360640190fd5b600080546040516001600160a01b03909116907f8be0079c531659141344cd1fd0a4f28419497f9722a3daafe3b4186f6b6457e0908390a36000805473ffffffffffffffffffffffffffffffffffffffff19169055565b611c89612f4e565b6000546001600160a01b03908116911614611ceb576040805162461bcd60e51b815260206004820181905260248201527f4f776e61626c653a2063616c6c6572206973206e6f7420746865206f776e6572604482015290519081900360640190fd5b60008111611d40576040805162461bcd60e51b815260206004820152601260248201527f4c696d69742063616e206e6f7420626520300000000000000000000000000000604482015290519081900360640190fd5b601855565b60145481565b6000546001600160a01b03165b90565b436010541115611db2576040805162461bcd60e51b815260206004820181905260248201527f436f6d706f756e6420416c6c206e6f7420796574206170706c696361626c652e604482015290519081900360640190fd5b600060145411611e09576040805162461bcd60e51b815260206004820152601a60248201527f4e6f205374616b6564207265776172647320746f20636c61696d000000000000604482015290519081900360640190fd5b600d5460185460009182918291829181111580611e3c5750600d54601854601154611e399163ffffffff61302f16565b10155b15611e4a5750600d54611e62565b601854601154611e5f9163ffffffff61302f16565b90505b600a54604080517f45c9c1d100000000000000000000000000000000000000000000000000000000815290516000926001600160a01b0316916345c9c1d191600480830192602092919082900301818787803b158015611ec157600080fd5b505af1158015611ed5573d6000803e3d6000fd5b505050506040513d6020811015611eeb57600080fd5b505190508015611f8757611efd613318565b506040805180820190915281815260208101828152600e805460018101825560009190915282517fbb7b4a454dc3493923482f07822329ed19e8244eff582cc204f8554c3620c3fd60029092029182015590517fbb7b4a454dc3493923482f07822329ed19e8244eff582cc204f8554c3620c3fe90910155601754611f82908361302f565b601755505b6011546120ad57600e541561208f57600e546001101561208f57611ff6600e600081548110611fb257fe5b906000526020600020906002020160010154600e6001600e805490500381548110611fd957fe5b60009182526020909120600290910201549063ffffffff61302f16565b600e8054600019810190811061200857fe5b6000918252602090912060029091020155600e8054600019810190811061202b57fe5b9060005260206000209060020201600e60008154811061204757fe5b600091825260209091208254600290920201908155600191820154910155600e80548061207057fe5b6000828152602081206002600019909301928302018181556001015590555b6008546014546120a49163ffffffff61302f16565b60145560006008555b6011545b828110156124255760006120e5600d83815481106120cb57fe5b6000918252602090912001546001600160a01b0316612f52565b9050801561211657601554612100908263ffffffff61302f16565b601555612113858263ffffffff61302f16565b94505b600e5415612266576000600e60008154811061212e57fe5b90600052602060002090600202016001015411156122665760006121b26014546110b6600c6000600d888154811061216257fe5b60009182526020808320909101546001600160a01b03168352820192909252604001812054600e80549192909161219557fe5b60009182526020909120600290910201549063ffffffff6130d416565b9050600e6000815481106121c257fe5b9060005260206000209060020201600101548111156121fe57600e6000815481106121e957fe5b90600052602060002090600202016001015490505b61223081600e60008154811061221057fe5b90600052602060002090600202016001015461309290919063ffffffff16565b600e60008154811061223e57fe5b6000918252602090912060016002909202010155612262828263ffffffff61302f16565b9150505b80156123cb5760006122896127106110b6600254856130d490919063ffffffff16565b905061229b898263ffffffff61302f16565b985060006122ba6127106110b6600154866130d490919063ffffffff16565b90506122cc888263ffffffff61302f16565b975060006122eb6127106110b6600454876130d490919063ffffffff16565b90506122fd8a8263ffffffff61302f16565b995061230f848463ffffffff61309216565b9350612321848363ffffffff61309216565b9350612333848263ffffffff61309216565b935061237b84600c6000600d898154811061234a57fe5b60009182526020808320909101546001600160a01b031683528201929092526040019020549063ffffffff61302f16565b600c6000600d888154811061238c57fe5b60009182526020808320909101546001600160a01b031683528201929092526040019020556008546123c4908563ffffffff61302f16565b6008555050505b43600c6000600d85815481106123dd57fe5b60009182526020808320909101546001600160a01b0316835282019290925260400190206003015560115461241990600163ffffffff61302f16565b601155506001016120b1565b50600d54601154106124375760006011555b600f5461244a908463ffffffff61309216565b600f5543601055600954604080517f42966c680000000000000000000000000000000000000000000000000000000081526004810189905290516001600160a01b03909216916342966c689160248082019260009290919082900301818387803b1580156124b757600080fd5b505af11580156124cb573d6000803e3d6000fd5b50506009546040805163a9059cbb60e01b81523360048201526024810189905290516001600160a01b03909216935063a9059cbb92506044808201926020929091908290030181600087803b15801561252357600080fd5b505af1158015612537573d6000803e3d6000fd5b505050506040513d602081101561254d57600080fd5b50506009546013546040805163a9059cbb60e01b81526001600160a01b039283166004820152602481018990529051919092169163a9059cbb9160448083019260209291908290030181600087803b1580156125a857600080fd5b505af11580156125bc573d6000803e3d6000fd5b505050506040513d60208110156125d257600080fd5b5050505050505050565b600b805473ffffffffffffffffffffffffffffffffffffffff19166001600160a01b0392909216919091179055565b612613612f4e565b6000546001600160a01b03908116911614612675576040805162461bcd60e51b815260206004820181905260248201527f4f776e61626c653a2063616c6c6572206973206e6f7420746865206f776e6572604482015290519081900360640190fd5b678ac7230489e800008111156126bc5760405162461bcd60e51b81526004018080602001828103825260278152602001806133d46027913960400191505060405180910390fd5b601255565b60035481565b6009546001600160a01b031681565b60015481565b600a805473ffffffffffffffffffffffffffffffffffffffff19166001600160a01b0392909216919091179055565b612713612f4e565b6000546001600160a01b03908116911614612775576040805162461bcd60e51b815260206004820181905260248201527f4f776e61626c653a2063616c6c6572206973206e6f7420746865206f776e6572604482015290519081900360640190fd5b600081116127ca576040805162461bcd60e51b815260206004820152601a60248201527f466565206d7573742062652067726561746572207468616e2030000000000000604482015290519081900360640190fd5b6103e88110612820576040805162461bcd60e51b815260206004820152601960248201527f466565206d757374206265206c657373207468616e2031302500000000000000604482015290519081900360640190fd5b600355565b61282d612f4e565b6000546001600160a01b0390811691161461288f576040805162461bcd60e51b815260206004820181905260248201527f4f776e61626c653a2063616c6c6572206973206e6f7420746865206f776e6572604482015290519081900360640190fd5b600081116128e4576040805162461bcd60e51b815260206004820152601a60248201527f466565206d7573742062652067726561746572207468616e2030000000000000604482015290519081900360640190fd5b6103e8811061293a576040805162461bcd60e51b815260206004820152601960248201527f466565206d757374206265206c657373207468616e2031302500000000000000604482015290519081900360640190fd5b600255565b60125481565b61294d612f4e565b6000546001600160a01b039081169116146129af576040805162461bcd60e51b815260206004820181905260248201527f4f776e61626c653a2063616c6c6572206973206e6f7420746865206f776e6572604482015290519081900360640190fd5b6000600f54116129f05760405162461bcd60e51b815260040180806020018281038252602481526020018061341c6024913960400191505060405180910390fd5b60165415612abc57600954601654600f546001600160a01b039092169163a9059cbb913391612a249163ffffffff61309216565b6040518363ffffffff1660e01b815260040180836001600160a01b03166001600160a01b0316815260200182815260200192505050602060405180830381600087803b158015612a7357600080fd5b505af1158015612a87573d6000803e3d6000fd5b505050506040513d6020811015612a9d57600080fd5b5050601654600f54612ab49163ffffffff61309216565b600f55612b45565b600954600f546040805163a9059cbb60e01b81523360048201526024810192909252516001600160a01b039092169163a9059cbb916044808201926020929091908290030181600087803b158015612b1357600080fd5b505af1158015612b27573d6000803e3d6000fd5b505050506040513d6020811015612b3d57600080fd5b50506000600f555b565b60155481565b60165460009015612b8e57601454336000908152600c6020526040902054601654612b87926110c29290916110b69163ffffffff6130d416565b9050612ba0565b50336000908152600c60205260409020545b6009546040805163a9059cbb60e01b81523360048201526024810184905290516001600160a01b039092169163a9059cbb916044808201926020929091908290030181600087803b158015612bf457600080fd5b505af1158015612c08573d6000803e3d6000fd5b505050506040513d6020811015612c1e57600080fd5b5050336000908152600c6020526040902054612c40908263ffffffff61309216565b336000908152600c6020526040902081815543600390910155612da457336000908152600c60205260409020600d54600582015460001990910114612d1357600d8054600091906000198101908110612c9557fe5b9060005260206000200160009054906101000a90046001600160a01b0316905080600d836005015481548110612cc757fe5b6000918252602080832091909101805473ffffffffffffffffffffffffffffffffffffffff19166001600160a01b03948516179055600585810154949093168252600c90526040902001555b600d805480612d1e57fe5b600082815260208082206000199084018101805473ffffffffffffffffffffffffffffffffffffffff191690559092019092556009546040805163095ea7b360e01b81523060048201526024810185905290516001600160a01b039092169363095ea7b39360448084019491939192918390030190829087803b15801561176657600080fd5b50565b600c60205260009081526040902080546001820154600283015460038401546004850154600590950154939492939192909186565b601654811115612e1d5760405162461bcd60e51b815260040180806020018281038252603c815260200180613333603c913960400191505060405180910390fd5b601654612e30908263ffffffff61309216565b60165550565b600b546001600160a01b031681565b60006010544311612e5857506000611d58565b601054612e6757506000611d58565b600f54612e7657506000611d58565b6000612e8d6010544361309290919063ffffffff16565b90506000612ea6601254836130d490919063ffffffff16565b9250505090565b60185481565b600f5481565b612ec1612f4e565b6000546001600160a01b03908116911614612f23576040805162461bcd60e51b815260206004820181905260248201527f4f776e61626c653a2063616c6c6572206973206e6f7420746865206f776e6572604482015290519081900360640190fd5b612da48161316f565b6000612f3782612f52565b90505b919050565b6013546001600160a01b031681565b3390565b6001600160a01b0381166000908152600c60205260408120600301544311612f7c57506000612f3a565b600f541580612f8b5750601454155b15612f9857506000612f3a565b6001600160a01b0382166000908152600c6020526040812060030154612fc590439063ffffffff61309216565b90506000612fde601254836130d490919063ffffffff16565b6014546001600160a01b0386166000908152600c60205260408120549293509161301491906110b690859063ffffffff6130d416565b9050600f548111156130255750600f545b9250612f3a915050565b600082820183811015613089576040805162461bcd60e51b815260206004820152601b60248201527f536166654d6174683a206164646974696f6e206f766572666c6f770000000000604482015290519081900360640190fd5b90505b92915050565b600061308983836040518060400160405280601e81526020017f536166654d6174683a207375627472616374696f6e206f766572666c6f77000081525061321c565b6000826130e35750600061308c565b828202828482816130f057fe5b04146130895760405162461bcd60e51b81526004018080602001828103825260218152602001806133fb6021913960400191505060405180910390fd5b600061308983836040518060400160405280601a81526020017f536166654d6174683a206469766973696f6e206279207a65726f0000000000008152506132b3565b6001600160a01b0381166131b45760405162461bcd60e51b81526004018080602001828103825260268152602001806133ae6026913960400191505060405180910390fd5b600080546040516001600160a01b03808516939216917f8be0079c531659141344cd1fd0a4f28419497f9722a3daafe3b4186f6b6457e091a36000805473ffffffffffffffffffffffffffffffffffffffff19166001600160a01b0392909216919091179055565b600081848411156132ab5760405162461bcd60e51b81526004018080602001828103825283818151815260200191508051906020019080838360005b83811015613270578181015183820152602001613258565b50505050905090810190601f16801561329d5780820380516001836020036101000a031916815260200191505b509250505060405180910390fd5b505050900390565b600081836133025760405162461bcd60e51b8152602060048201818152835160248401528351909283926044909101919085019080838360008315613270578181015183820152602001613258565b50600083858161330e57fe5b0495945050505050565b60405180604001604052806000815260200160008152509056fe756e667265657a6520616d6f756e742063616e742062652067726561746572207468616e2063757272656e746c792066726f7a656e20616d6f756e74576974686472617720616d6f756e742063616e206e6f742062652067726561746572207468616e20617661696c61626c65207374616b656420616d6f756e744f776e61626c653a206e6577206f776e657220697320746865207a65726f206164647265737343727573682050657220426c6f636b2063616e206e6f74206265206d6f7265207468616e203130536166654d6174683a206d756c7469706c69636174696f6e206f766572666c6f77546f74616c20506f6f6c206e65656420746f2062652067726561746572207468616e2030496e73756666696369656e7420437275736820746f6b656e7320666f72207472616e73666572467265657a6520616d6f756e742073686f756c64206265206c657373207468616e206f7220657175616c20746f20617661696c61626c652066756e6473a264697066735822122069a9388380918df32418af83030af54c59aa34952ee3c58870df4af008a5d24d64736f6c63430006020033",
  "source": "//SPDX-License-Identifier: MIT\npragma solidity >=0.6.2;\n\nimport \"@pancakeswap/pancake-swap-lib/contracts/access/Ownable.sol\";\nimport \"./CrushCoin.sol\";\nimport \"@pancakeswap/pancake-swap-lib/contracts/math/SafeMath.sol\";\nimport \"./HouseBankroll.sol\";\nimport \"./LiveWallet.sol\";\ncontract BitcrushStaking is Ownable {\n    using SafeMath for uint256;\n    \n    uint256 constant MAX_CRUSH_PER_BLOCK = 10000000000000000000;\n    uint256 constant MAX_FEE = 1000; // 1000/10000 * 100 = 10%\n    uint256 public performanceFeeCompounder = 10; // 10/10000 * 100 = 0.1%\n    uint256 public performanceFeeBurn       = 100; // 100/10000 * 100 = 1%\n    uint256 constant divisor = 10000;\n    \n    uint256  public earlyWithdrawFee         = 50; // 50/10000 * 100 = 0.5% \n    uint256  public performanceFeeReserve    = 190; // 190/10000 * 100 = 1.9%\n    \n    uint256 public profitShare = 10;\n    uint256 public blockPerSecond = 3;\n    uint256 public earlyWithdrawFeeTime = 72 * 60 * 60 / blockPerSecond;\n\n    uint256 public pendingStakedValue = 0;\n    \n    //address of the crush token\n    CRUSHToken public crush;\n    BitcrushBankroll public bankroll;\n    BitcrushLiveWallet public liveWallet;\n    struct staked {\n        uint256 stakedAmount;\n        uint256 claimedAmount;\n        uint256 profit;\n        uint256 lastBlockCompounded;\n        uint256 lastBlockStaked;\n        uint256 index;\n    }\n    mapping (address => staked) public stakings;\n    address[] public addressIndexes;\n\n    struct profit {\n        uint256 total;\n        uint256 remaining;\n    }\n    profit[] public profits;\n\n    uint256 public totalPool;\n    uint256 public lastAutoCompoundBlock;\n    uint256 public batchStartingIndex = 0;\n    \n    uint256 public crushPerBlock = 5;\n    address public reserveAddress;\n\n    uint256 public totalStaked;\n    \n    uint256 public totalClaimed;\n    uint256 public totalFrozen = 0;\n    uint256 public totalProfitDistributed = 0;\n    \n    uint256 public autoCompoundLimit = 10;\n\n    uint256 public deploymentTimeStamp;\n    event RewardPoolUpdated (uint256 indexed _totalPool);\n    \n    event StakeUpdated (address indexed recipeint, uint256 indexed _amount);\n    \n    constructor (CRUSHToken _crush, uint256 _crushPerBlock, address _reserveAddress) public{\n        crush = _crush;\n        crushPerBlock = _crushPerBlock;\n        reserveAddress = _reserveAddress;\n        lastAutoCompoundBlock = 0;\n        deploymentTimeStamp = block.timestamp;\n        \n    }\n    /// Store `_bankroll`.\n    /// @param _bankroll the new value to store\n    /// @dev stores the _bankroll address in the state variable `bankroll`\n    function setBankroll (BitcrushBankroll _bankroll) public {\n        bankroll = _bankroll;\n    }\n\n    /// Store `_liveWallet`.\n    /// @param _liveWallet the new value to store\n    /// @dev stores the _liveWallet address in the state variable `liveWallet`\n    function setLiveWallet (BitcrushLiveWallet _liveWallet) public{\n        liveWallet = _liveWallet;\n    }\n\n    /// Adds the provided amount to the totalPool\n    /// @param _amount the amount to add\n    /// @dev adds the provided amount to `totalPool` state variable\n    function addRewardToPool (uint256 _amount) public  {\n        require(crush.balanceOf(msg.sender) >= _amount, \"Insufficient Crush tokens for transfer\");\n        totalPool = totalPool.add(_amount);\n        crush.transferFrom(msg.sender, address(this), _amount);\n        emit RewardPoolUpdated(totalPool);\n    }\n\n    \n    function setCrushPerBlock (uint256 _amount) public onlyOwner {\n        require(_amount >= 0, \"Crush per Block can not be negative\" );\n        require(_amount <= MAX_CRUSH_PER_BLOCK, \"Crush Per Block can not be more than 10\");\n        crushPerBlock = _amount;\n    }\n\n\n    /// Stake the provided amount\n    /// @param _amount the amount to stake\n    /// @dev stakes the provided amount\n    function enterStaking (uint256 _amount) public  {\n        require(crush.balanceOf(msg.sender) >= _amount, \"Insufficient Crush tokens for transfer\");\n        require(_amount > 0,\"Invalid staking amount\");\n        require(totalPool > 0, \"Reward Pool Exhausted\");\n        \n        crush.transferFrom(msg.sender, address(this), _amount);\n        if(totalStaked == 0){\n            lastAutoCompoundBlock = block.number;\n        }\n        if(stakings[msg.sender].stakedAmount == 0){\n            stakings[msg.sender].lastBlockCompounded = block.number;\n            addressIndexes.push(msg.sender);\n            stakings[msg.sender].index = addressIndexes.length-1;\n        }\n        stakings[msg.sender].stakedAmount = stakings[msg.sender].stakedAmount.add(_amount);\n        stakings[msg.sender].lastBlockStaked = block.number;\n        totalStaked = totalStaked.add(_amount);\n        crush.transfer(msg.sender, getReward(msg.sender));\n        stakings[msg.sender].lastBlockCompounded = block.number;\n        \n       \n    }\n\n\n\n    /// Leaves staking for a user by the specified amount and transfering staked amount and reward to users address\n    /// @param _amount the amount to unstake\n    /// @dev leaves staking and deducts total pool by the users reward. early withdrawal fee applied if withdraw is made before earlyWithdrawFeeTime\n    function leaveStaking (uint256 _amount, bool _liveWallet) public  {\n        uint256 reward = getReward(msg.sender);\n        stakings[msg.sender].lastBlockCompounded = block.number;\n        totalPool = totalPool.sub(reward);\n        uint256 availableStaked;\n        if(totalFrozen > 0){\n            availableStaked = stakings[msg.sender].stakedAmount.sub(totalFrozen.mul(stakings[msg.sender].stakedAmount).div(totalStaked));\n        }else {\n            availableStaked = stakings[msg.sender].stakedAmount;\n        }\n        require(availableStaked >= _amount, \"Withdraw amount can not be greater than available staked amount\");\n        if(pendingStakedValue >= _amount){\n            pendingStakedValue = pendingStakedValue.sub(_amount);\n        }else {\n            uint256 difference = _amount.sub(pendingStakedValue);\n            pendingStakedValue = 0;\n            totalStaked = totalStaked.sub(difference);\n        }\n        \n        stakings[msg.sender].stakedAmount = stakings[msg.sender].stakedAmount.sub(_amount);\n        if(block.number < stakings[msg.sender].lastBlockStaked.add(earlyWithdrawFeeTime)){\n            //apply fee\n            uint256 withdrawalFee = _amount.mul(earlyWithdrawFee).div(divisor);\n            _amount = _amount.sub(withdrawalFee);\n            crush.transfer(reserveAddress, withdrawalFee);\n        }\n        _amount = _amount.add(reward);\n        if(_liveWallet == false){\n            crush.transfer(msg.sender, _amount);\n        }else {\n            crush.approve(address(liveWallet), _amount);\n            liveWallet.addbetWithAddress(_amount, msg.sender);\n        }\n        \n        //remove from array\n        if(stakings[msg.sender].stakedAmount == 0){\n            staked storage staking = stakings[msg.sender];\n            if(staking.index != addressIndexes.length-1){\n                address lastAddress = addressIndexes[addressIndexes.length-1];\n                addressIndexes[staking.index] = lastAddress;\n                stakings[lastAddress].index = staking.index;\n                crush.approve( address(this), 0);\n            }\n            addressIndexes.pop();\n            delete stakings[msg.sender];\n        }\n        emit RewardPoolUpdated(totalPool);\n    }\n\n\n    function getReward(address _address) internal view returns (uint256) {\n        if(block.number <=  stakings[_address].lastBlockCompounded){\n            return 0;\n        }else {\n            if(totalPool == 0 || totalStaked ==0 ){\n                return 0;\n            }else {\n                //if the staker reward is greater than total pool => set it to total pool\n                uint256 blocks = block.number.sub(stakings[_address].lastBlockCompounded);\n                uint256 totalReward = blocks.mul(crushPerBlock);\n                uint256 stakerReward = totalReward.mul(stakings[_address].stakedAmount).div(totalStaked);\n                if(stakerReward > totalPool){\n                    stakerReward = totalPool;\n                }\n                return stakerReward;\n            }\n            \n        }\n    }\n\n    /// Calculates total potential pending rewards\n    /// @dev Calculates potential reward based on crush per block\n    function totalPendingRewards () public view returns (uint256){\n            if(block.number <= lastAutoCompoundBlock){\n                return 0;\n            }else if(lastAutoCompoundBlock == 0){\n                return 0;\n            }else if (totalPool == 0){\n                return 0;\n            }\n\n            uint256 blocks = block.number.sub(lastAutoCompoundBlock);\n            uint256 totalReward = blocks.mul(crushPerBlock);\n\n            return totalReward;\n    }\n\n    /// Get pending rewards of a user\n    /// @param _address the address to calculate the reward for\n    /// @dev calculates potential reward for the address provided based on crush per block\n    function pendingReward (address _address) public view returns (uint256){\n        return getReward(_address);\n    }\n\n    /// transfers the rewards of a user to their address\n    /// @dev calculates users rewards and transfers it out while deducting reward from totalPool\n    function claim (bool _liveWallet) public  {\n        uint256 reward = getReward(msg.sender);\n        stakings[msg.sender].claimedAmount = stakings[msg.sender].claimedAmount.add(reward);\n        if(_liveWallet == false){\n            crush.transfer(msg.sender, reward);\n        }else {\n            crush.approve(address(liveWallet), reward);\n            liveWallet.addbetWithAddress(reward, msg.sender);\n        }\n        stakings[msg.sender].lastBlockCompounded = block.number;\n        totalClaimed = totalClaimed.add(reward);\n        totalPool = totalPool.sub(reward); \n    }\n\n\n\n\n  \n    /// compounds the rewards of the caller\n    /// @dev compounds the rewards of the caller add adds it into their staked amount\n    function singleCompound () public  {\n        require(stakings[msg.sender].stakedAmount > 0, \"Please Stake Crush to compound\");\n        uint256 reward = getReward(msg.sender);\n        stakings[msg.sender].stakedAmount = stakings[msg.sender].stakedAmount.add(reward); \n        totalStaked = totalStaked.add(reward);\n        stakings[msg.sender].lastBlockCompounded = block.number;\n        totalPool = totalPool.sub(reward);\n        emit RewardPoolUpdated(totalPool);\n        emit StakeUpdated(msg.sender,reward);\n    }\n\n  \n\n    /// compounds the rewards of all users in the pool\n    /// @dev compounds the rewards of all users in the pool add adds it into their staked amount while deducting fees\n    function compoundAll () public  {\n        require(lastAutoCompoundBlock <= block.number, \"Compound All not yet applicable.\");\n        require(totalStaked > 0, \"No Staked rewards to claim\" );\n        uint256 crushToBurn = 0;\n        uint256 performanceFee = 0;\n        \n        uint256 compounderReward = 0;\n        uint totalPoolDeducted = 0;\n        \n        uint256 batchLimit = addressIndexes.length;\n        if(addressIndexes.length <= autoCompoundLimit || batchStartingIndex.add(autoCompoundLimit) >= addressIndexes.length){\n            batchLimit = addressIndexes.length;\n        }else {\n            batchLimit = batchStartingIndex.add(autoCompoundLimit);\n        }\n        uint256 newProfit = bankroll.transferProfit();\n        if(newProfit > 0){\n            //profit deduction\n            profit memory prof = profit(newProfit,newProfit);\n            profits.push(prof);\n            totalProfitDistributed = totalProfitDistributed.add(newProfit);\n        }\n        if(batchStartingIndex == 0){\n            if(profits.length > 0){\n                if(profits.length > 1){\n                    profits[profits.length - 1].total = profits[profits.length - 1].total.add(profits[0].remaining); \n                    profits[0] = profits[profits.length - 1];\n                    profits.pop();\n                }\n            }\n            totalStaked = totalStaked.add(pendingStakedValue);\n            pendingStakedValue = 0;\n        }\n\n        for(uint256 i=batchStartingIndex; i < batchLimit; i++){\n            uint256 stakerReward = getReward(addressIndexes[i]);\n            \n            if(stakerReward > 0){\n                totalClaimed = totalClaimed.add(stakerReward);\n                totalPoolDeducted = totalPoolDeducted.add(stakerReward);\n \n            }\n            if(profits.length > 0){\n                if(profits[0].remaining > 0){\n                    uint256 profitShareUser = profits[0].total.mul(stakings[addressIndexes[i]].stakedAmount).div(totalStaked);\n                        if(profitShareUser > profits[0].remaining){\n                            profitShareUser = profits[0].remaining;\n                        }\n                    profits[0].remaining = profits[0].remaining.sub(profitShareUser);\n                    stakerReward = stakerReward.add(profitShareUser); \n                }\n            }\n            if(stakerReward > 0){\n                uint256 stakerBurn = stakerReward.mul(performanceFeeBurn).div(divisor);\n                crushToBurn = crushToBurn.add(stakerBurn);\n            \n                uint256 cpAllReward = stakerReward.mul(performanceFeeCompounder).div(divisor);\n                compounderReward = compounderReward.add(cpAllReward);\n            \n                uint256 feeReserve = stakerReward.mul(performanceFeeReserve).div(divisor);\n                performanceFee = performanceFee.add(feeReserve);\n                stakerReward = stakerReward.sub(stakerBurn);\n                stakerReward = stakerReward.sub(cpAllReward);\n                stakerReward = stakerReward.sub(feeReserve);\n                stakings[addressIndexes[i]].stakedAmount = stakings[addressIndexes[i]].stakedAmount.add(stakerReward);\n                pendingStakedValue = pendingStakedValue.add(stakerReward);\n                //totalStaked = totalStaked.add(stakerReward);\n            }    \n            stakings[addressIndexes[i]].lastBlockCompounded = block.number;\n            batchStartingIndex = batchStartingIndex.add(1);\n                        \n        }\n        if(batchStartingIndex >= addressIndexes.length){\n            batchStartingIndex = 0;\n        }\n        totalPool = totalPool.sub(totalPoolDeducted);\n        lastAutoCompoundBlock = block.number;\n        crush.burn(crushToBurn);\n        crush.transfer(msg.sender, compounderReward);\n        crush.transfer(reserveAddress, performanceFee);\n        \n    }\n\n    /// freeze certain funds in the staking pool and transfer them to the live wallet address\n    /// @dev adds the provided amount to the total frozen variablle\n    function freezeStaking (uint256 _amount, address _recipient) public {\n        //divide amount over users\n        //update user mapping to reflect frozen amount\n         require(_amount <= totalStaked.sub(totalFrozen), \"Freeze amount should be less than or equal to available funds\");\n         totalFrozen = totalFrozen.add(_amount);\n         liveWallet.addToUserWinnings(_amount, _recipient);\n         crush.transfer(address(liveWallet), _amount);\n    }\n    \n    /// unfreeze previously frozen funds from the staking pool\n    /// @dev deducts the provided amount from the total frozen variablle\n    function unfreezeStaking (uint256 _amount) public {\n       //divide amount over users\n        //update user mapping to reflect deducted frozen amount\n         require(_amount <= totalFrozen, \"unfreeze amount cant be greater than currently frozen amount\");\n         totalFrozen = totalFrozen.sub(_amount);\n    }\n\n\n    /// withdraws the staked amount of user in case of emergency.\n    /// @dev drains the staked amount and sets the state variable `stakedAmount` of staking mapping to 0\n    function emergencyWithdraw() public {\n        //add check for frozen amount\n        uint256 availableStaked;\n        if(totalFrozen > 0){\n            availableStaked = stakings[msg.sender].stakedAmount.sub(totalFrozen.mul(stakings[msg.sender].stakedAmount).div(totalStaked));\n        }else {\n            availableStaked = stakings[msg.sender].stakedAmount;\n        }\n\n        crush.transfer( msg.sender, availableStaked);\n        stakings[msg.sender].stakedAmount = stakings[msg.sender].stakedAmount.sub(availableStaked);\n        \n        stakings[msg.sender].lastBlockCompounded = block.number;\n        if(stakings[msg.sender].stakedAmount == 0) {\n            staked storage staking = stakings[msg.sender];\n            if(staking.index != addressIndexes.length-1){\n                address lastAddress = addressIndexes[addressIndexes.length-1];\n                addressIndexes[staking.index] = lastAddress;\n                stakings[lastAddress].index = staking.index;\n            }\n            addressIndexes.pop();\n            crush.approve( address(this), 0);\n        }\n        \n    }\n\n    /// withdraws the total pool in case of emergency.\n    /// @dev drains the total pool and sets the state variable `totalPool` to 0\n    function emergencyTotalPoolWithdraw () public onlyOwner {\n        require(totalPool > 0, \"Total Pool need to be greater than 0\");\n        if(totalFrozen > 0){\n            crush.transfer(msg.sender, totalPool.sub(totalFrozen));\n            totalPool = totalPool.sub(totalFrozen);\n        } else {\n            crush.transfer(msg.sender, totalPool);\n            totalPool = 0;\n        }\n        \n    }\n\n    /// returns the total count of users in the staking pool.\n    /// @dev returns the total stakers in the staking pool by reading length of addressIndexes array\n    function indexesLength() public view returns(uint256 _addressesLength){\n        _addressesLength = addressIndexes.length;\n    }\n\n    /// Store `_fee`.\n    /// @param _fee the new value to store\n    /// @dev stores the fee in the state variable `performanceFeeCompounder`\n    function setPerformanceFeeCompounder (uint256 _fee) public onlyOwner{\n        require(_fee > 0, \"Fee must be greater than 0\");\n        require(_fee < MAX_FEE, \"Fee must be less than 10%\");\n        performanceFeeCompounder = _fee;\n    }\n\n    /// Store `_fee`.\n    /// @param _fee the new value to store\n    /// @dev stores the fee in the state variable `performanceFeeBurn`\n    function setPerformanceFeeBurn (uint256 _fee) public onlyOwner {\n        require(_fee > 0, \"Fee must be greater than 0\");\n        require(_fee < MAX_FEE, \"Fee must be less than 10%\");\n        performanceFeeBurn = _fee;\n    }\n\n    /// Store `_fee`.\n    /// @param _fee the new value to store\n    /// @dev stores the fee in the state variable `earlyWithdrawFee`\n    function setEarlyWithdrawFee (uint256 _fee) public onlyOwner {\n        require(_fee > 0, \"Fee must be greater than 0\");\n        require(_fee < MAX_FEE, \"Fee must be less than 10%\");\n        earlyWithdrawFee = _fee;\n    }\n\n\n    /// Store `_fee`.\n    /// @param _fee the new value to store\n    /// @dev stores the fee in the state variable `performanceFeeReserve`\n    function setPerformanceFeeReserve (uint256 _fee) public onlyOwner {\n        require(_fee > 0, \"Fee must be greater than 0\");\n        require(_fee <= MAX_FEE, \"Fee must be less than 10%\");\n        performanceFeeReserve = _fee;\n    }\n\n    /// Store `_time`.\n    /// @param _time the new value to store\n    /// @dev stores the time in the state variable `earlyWithdrawFeeTime`\n    function setEarlyWithdrawFeeTime (uint256 _time) public onlyOwner {\n        require(_time > 0, \"Time must be greater than 0\");\n        earlyWithdrawFeeTime = _time;\n    }\n    /// Store `_limit`.\n    /// @param _limit the new value to store\n    /// @dev stores the limit in the state variable `autoCompoundLimit`\n    function setAutoCompoundLimit (uint256 _limit) public onlyOwner {\n        require(_limit > 0, \"Limit can not be 0\");\n        autoCompoundLimit = _limit;\n    }\n    /// Store `_profitShare`.\n    /// @param _profitShare the new value to store\n    /// @dev stores the profitShare in the state variable `profitShare`\n    function setProfitShare (uint256 _profitShare) public onlyOwner {\n        require(_profitShare > 0, \"Profit share can not be 0\");\n        profitShare = _profitShare;\n    }\n\n   \n}\n",
  "sourcePath": "/Users/umerali/Desktop/FRAG/bitcrush/crush_contracts/contracts/staking.sol",
  "compiler": {
    "name": "solc",
    "version": "0.6.2+commit.bacdbe57.Emscripten.clang"
  },
  "schemaVersion": "3.4.1",
  "updatedAt": "2021-10-23T13:38:53.275Z",
  "networkType": "ethereum",
  "devdoc": {
    "methods": {
      "addRewardToPool(uint256)": {
        "details": "adds the provided amount to `totalPool` state variable",
        "params": {
          "_amount": "the amount to add"
        }
      },
      "claim(bool)": {
        "details": "calculates users rewards and transfers it out while deducting reward from totalPool"
      },
      "compoundAll()": {
        "details": "compounds the rewards of all users in the pool add adds it into their staked amount while deducting fees"
      },
      "emergencyTotalPoolWithdraw()": {
        "details": "drains the total pool and sets the state variable `totalPool` to 0"
      },
      "emergencyWithdraw()": {
        "details": "drains the staked amount and sets the state variable `stakedAmount` of staking mapping to 0"
      },
      "enterStaking(uint256)": {
        "details": "stakes the provided amount",
        "params": {
          "_amount": "the amount to stake"
        }
      },
      "freezeStaking(uint256,address)": {
        "details": "adds the provided amount to the total frozen variablle"
      },
      "indexesLength()": {
        "details": "returns the total stakers in the staking pool by reading length of addressIndexes array"
      },
      "leaveStaking(uint256,bool)": {
        "details": "leaves staking and deducts total pool by the users reward. early withdrawal fee applied if withdraw is made before earlyWithdrawFeeTime",
        "params": {
          "_amount": "the amount to unstake"
        }
      },
      "owner()": {
        "details": "Returns the address of the current owner."
      },
      "pendingReward(address)": {
        "details": "calculates potential reward for the address provided based on crush per block",
        "params": {
          "_address": "the address to calculate the reward for"
        }
      },
      "renounceOwnership()": {
        "details": "Leaves the contract without owner. It will not be possible to call `onlyOwner` functions anymore. Can only be called by the current owner.     * NOTE: Renouncing ownership will leave the contract without an owner, thereby removing any functionality that is only available to the owner."
      },
      "setAutoCompoundLimit(uint256)": {
        "details": "stores the limit in the state variable `autoCompoundLimit`",
        "params": {
          "_limit": "the new value to store"
        }
      },
      "setBankroll(address)": {
        "details": "stores the _bankroll address in the state variable `bankroll`",
        "params": {
          "_bankroll": "the new value to store"
        }
      },
      "setEarlyWithdrawFee(uint256)": {
        "details": "stores the fee in the state variable `earlyWithdrawFee`",
        "params": {
          "_fee": "the new value to store"
        }
      },
      "setEarlyWithdrawFeeTime(uint256)": {
        "details": "stores the time in the state variable `earlyWithdrawFeeTime`",
        "params": {
          "_time": "the new value to store"
        }
      },
      "setLiveWallet(address)": {
        "details": "stores the _liveWallet address in the state variable `liveWallet`",
        "params": {
          "_liveWallet": "the new value to store"
        }
      },
      "setPerformanceFeeBurn(uint256)": {
        "details": "stores the fee in the state variable `performanceFeeBurn`",
        "params": {
          "_fee": "the new value to store"
        }
      },
      "setPerformanceFeeCompounder(uint256)": {
        "details": "stores the fee in the state variable `performanceFeeCompounder`",
        "params": {
          "_fee": "the new value to store"
        }
      },
      "setPerformanceFeeReserve(uint256)": {
        "details": "stores the fee in the state variable `performanceFeeReserve`",
        "params": {
          "_fee": "the new value to store"
        }
      },
      "setProfitShare(uint256)": {
        "details": "stores the profitShare in the state variable `profitShare`",
        "params": {
          "_profitShare": "the new value to store"
        }
      },
      "singleCompound()": {
        "details": "compounds the rewards of the caller add adds it into their staked amount"
      },
      "totalPendingRewards()": {
        "details": "Calculates potential reward based on crush per block"
      },
      "transferOwnership(address)": {
        "details": "Transfers ownership of the contract to a new account (`newOwner`). Can only be called by the current owner."
      },
      "unfreezeStaking(uint256)": {
        "details": "deducts the provided amount from the total frozen variablle"
      }
    }
  },
  "userdoc": {
    "methods": {
      "addRewardToPool(uint256)": {
        "notice": "Adds the provided amount to the totalPool"
      },
      "claim(bool)": {
        "notice": "transfers the rewards of a user to their address"
      },
      "compoundAll()": {
        "notice": "compounds the rewards of all users in the pool"
      },
      "emergencyTotalPoolWithdraw()": {
        "notice": "withdraws the total pool in case of emergency."
      },
      "emergencyWithdraw()": {
        "notice": "withdraws the staked amount of user in case of emergency."
      },
      "enterStaking(uint256)": {
        "notice": "Stake the provided amount"
      },
      "freezeStaking(uint256,address)": {
        "notice": "freeze certain funds in the staking pool and transfer them to the live wallet address"
      },
      "indexesLength()": {
        "notice": "returns the total count of users in the staking pool."
      },
      "leaveStaking(uint256,bool)": {
        "notice": "Leaves staking for a user by the specified amount and transfering staked amount and reward to users address"
      },
      "pendingReward(address)": {
        "notice": "Get pending rewards of a user"
      },
      "setAutoCompoundLimit(uint256)": {
        "notice": "Store `_limit`."
      },
      "setBankroll(address)": {
        "notice": "Store `_bankroll`."
      },
      "setEarlyWithdrawFee(uint256)": {
        "notice": "Store `_fee`."
      },
      "setEarlyWithdrawFeeTime(uint256)": {
        "notice": "Store `_time`."
      },
      "setLiveWallet(address)": {
        "notice": "Store `_liveWallet`."
      },
      "setPerformanceFeeBurn(uint256)": {
        "notice": "Store `_fee`."
      },
      "setPerformanceFeeCompounder(uint256)": {
        "notice": "Store `_fee`."
      },
      "setPerformanceFeeReserve(uint256)": {
        "notice": "Store `_fee`."
      },
      "setProfitShare(uint256)": {
        "notice": "Store `_profitShare`."
      },
      "singleCompound()": {
        "notice": "compounds the rewards of the caller"
      },
      "totalPendingRewards()": {
        "notice": "Calculates total potential pending rewards"
      },
      "unfreezeStaking(uint256)": {
        "notice": "unfreeze previously frozen funds from the staking pool"
      }
    }
  }
}