{
  "contractName": "BitcrushStaking",
  "abi": [
    {
      "inputs": [
        {
          "internalType": "contract CRUSHToken",
          "name": "_crush",
          "type": "address"
        },
        {
          "internalType": "uint256",
          "name": "_crushPerBlock",
          "type": "uint256"
        },
        {
          "internalType": "address",
          "name": "_reserveAddress",
          "type": "address"
        }
      ],
      "stateMutability": "nonpayable",
      "type": "constructor"
    },
    {
      "anonymous": false,
      "inputs": [
        {
          "indexed": true,
          "internalType": "address",
          "name": "previousOwner",
          "type": "address"
        },
        {
          "indexed": true,
          "internalType": "address",
          "name": "newOwner",
          "type": "address"
        }
      ],
      "name": "OwnershipTransferred",
      "type": "event"
    },
    {
      "anonymous": false,
      "inputs": [
        {
          "indexed": true,
          "internalType": "uint256",
          "name": "_totalPool",
          "type": "uint256"
        }
      ],
      "name": "RewardPoolUpdated",
      "type": "event"
    },
    {
      "anonymous": false,
      "inputs": [
        {
          "indexed": true,
          "internalType": "address",
          "name": "recipeint",
          "type": "address"
        },
        {
          "indexed": true,
          "internalType": "uint256",
          "name": "_amount",
          "type": "uint256"
        }
      ],
      "name": "StakeUpdated",
      "type": "event"
    },
    {
      "inputs": [],
      "name": "MAX_CRUSH_PER_BLOCK",
      "outputs": [
        {
          "internalType": "uint256",
          "name": "",
          "type": "uint256"
        }
      ],
      "stateMutability": "view",
      "type": "function"
    },
    {
      "inputs": [],
      "name": "MAX_FEE",
      "outputs": [
        {
          "internalType": "uint256",
          "name": "",
          "type": "uint256"
        }
      ],
      "stateMutability": "view",
      "type": "function"
    },
    {
      "inputs": [
        {
          "internalType": "uint256",
          "name": "",
          "type": "uint256"
        }
      ],
      "name": "addressIndexes",
      "outputs": [
        {
          "internalType": "address",
          "name": "",
          "type": "address"
        }
      ],
      "stateMutability": "view",
      "type": "function"
    },
    {
      "inputs": [],
      "name": "apyBoost",
      "outputs": [
        {
          "internalType": "uint256",
          "name": "",
          "type": "uint256"
        }
      ],
      "stateMutability": "view",
      "type": "function"
    },
    {
      "inputs": [],
      "name": "autoCompoundLimit",
      "outputs": [
        {
          "internalType": "uint256",
          "name": "",
          "type": "uint256"
        }
      ],
      "stateMutability": "view",
      "type": "function"
    },
    {
      "inputs": [],
      "name": "bankroll",
      "outputs": [
        {
          "internalType": "contract BitcrushBankroll",
          "name": "",
          "type": "address"
        }
      ],
      "stateMutability": "view",
      "type": "function"
    },
    {
      "inputs": [],
      "name": "batchStartingIndex",
      "outputs": [
        {
          "internalType": "uint256",
          "name": "",
          "type": "uint256"
        }
      ],
      "stateMutability": "view",
      "type": "function"
    },
    {
      "inputs": [],
      "name": "blockPerSecond",
      "outputs": [
        {
          "internalType": "uint256",
          "name": "",
          "type": "uint256"
        }
      ],
      "stateMutability": "view",
      "type": "function"
    },
    {
      "inputs": [],
      "name": "crush",
      "outputs": [
        {
          "internalType": "contract CRUSHToken",
          "name": "",
          "type": "address"
        }
      ],
      "stateMutability": "view",
      "type": "function"
    },
    {
      "inputs": [],
      "name": "crushPerBlock",
      "outputs": [
        {
          "internalType": "uint256",
          "name": "",
          "type": "uint256"
        }
      ],
      "stateMutability": "view",
      "type": "function"
    },
    {
      "inputs": [],
      "name": "deploymentTimeStamp",
      "outputs": [
        {
          "internalType": "uint256",
          "name": "",
          "type": "uint256"
        }
      ],
      "stateMutability": "view",
      "type": "function"
    },
    {
      "inputs": [],
      "name": "divisor",
      "outputs": [
        {
          "internalType": "uint256",
          "name": "",
          "type": "uint256"
        }
      ],
      "stateMutability": "view",
      "type": "function"
    },
    {
      "inputs": [],
      "name": "earlyWithdrawFee",
      "outputs": [
        {
          "internalType": "uint256",
          "name": "",
          "type": "uint256"
        }
      ],
      "stateMutability": "view",
      "type": "function"
    },
    {
      "inputs": [],
      "name": "earlyWithdrawFeeTime",
      "outputs": [
        {
          "internalType": "uint256",
          "name": "",
          "type": "uint256"
        }
      ],
      "stateMutability": "view",
      "type": "function"
    },
    {
      "inputs": [],
      "name": "frozenEarlyWithdrawFee",
      "outputs": [
        {
          "internalType": "uint256",
          "name": "",
          "type": "uint256"
        }
      ],
      "stateMutability": "view",
      "type": "function"
    },
    {
      "inputs": [],
      "name": "frozenEarlyWithdrawFeeTime",
      "outputs": [
        {
          "internalType": "uint256",
          "name": "",
          "type": "uint256"
        }
      ],
      "stateMutability": "view",
      "type": "function"
    },
    {
      "inputs": [],
      "name": "lastAutoCompoundBlock",
      "outputs": [
        {
          "internalType": "uint256",
          "name": "",
          "type": "uint256"
        }
      ],
      "stateMutability": "view",
      "type": "function"
    },
    {
      "inputs": [],
      "name": "liveWallet",
      "outputs": [
        {
          "internalType": "contract BitcrushLiveWallet",
          "name": "",
          "type": "address"
        }
      ],
      "stateMutability": "view",
      "type": "function"
    },
    {
      "inputs": [],
      "name": "owner",
      "outputs": [
        {
          "internalType": "address",
          "name": "",
          "type": "address"
        }
      ],
      "stateMutability": "view",
      "type": "function"
    },
    {
      "inputs": [],
      "name": "performanceFeeBurn",
      "outputs": [
        {
          "internalType": "uint256",
          "name": "",
          "type": "uint256"
        }
      ],
      "stateMutability": "view",
      "type": "function"
    },
    {
      "inputs": [],
      "name": "performanceFeeCompounder",
      "outputs": [
        {
          "internalType": "uint256",
          "name": "",
          "type": "uint256"
        }
      ],
      "stateMutability": "view",
      "type": "function"
    },
    {
      "inputs": [],
      "name": "performanceFeeReserve",
      "outputs": [
        {
          "internalType": "uint256",
          "name": "",
          "type": "uint256"
        }
      ],
      "stateMutability": "view",
      "type": "function"
    },
    {
      "inputs": [
        {
          "internalType": "uint256",
          "name": "",
          "type": "uint256"
        }
      ],
      "name": "profits",
      "outputs": [
        {
          "internalType": "uint256",
          "name": "total",
          "type": "uint256"
        },
        {
          "internalType": "uint256",
          "name": "remaining",
          "type": "uint256"
        }
      ],
      "stateMutability": "view",
      "type": "function"
    },
    {
      "inputs": [],
      "name": "renounceOwnership",
      "outputs": [],
      "stateMutability": "nonpayable",
      "type": "function"
    },
    {
      "inputs": [],
      "name": "reserveAddress",
      "outputs": [
        {
          "internalType": "address",
          "name": "",
          "type": "address"
        }
      ],
      "stateMutability": "view",
      "type": "function"
    },
    {
      "inputs": [
        {
          "internalType": "address",
          "name": "",
          "type": "address"
        }
      ],
      "name": "stakings",
      "outputs": [
        {
          "internalType": "uint256",
          "name": "shares",
          "type": "uint256"
        },
        {
          "internalType": "uint256",
          "name": "stakedAmount",
          "type": "uint256"
        },
        {
          "internalType": "uint256",
          "name": "claimedAmount",
          "type": "uint256"
        },
        {
          "internalType": "uint256",
          "name": "profit",
          "type": "uint256"
        },
        {
          "internalType": "uint256",
          "name": "lastBlockCompounded",
          "type": "uint256"
        },
        {
          "internalType": "uint256",
          "name": "lastBlockStaked",
          "type": "uint256"
        },
        {
          "internalType": "uint256",
          "name": "index",
          "type": "uint256"
        },
        {
          "internalType": "uint256",
          "name": "lastFrozenWithdraw",
          "type": "uint256"
        }
      ],
      "stateMutability": "view",
      "type": "function"
    },
    {
      "inputs": [],
      "name": "totalClaimed",
      "outputs": [
        {
          "internalType": "uint256",
          "name": "",
          "type": "uint256"
        }
      ],
      "stateMutability": "view",
      "type": "function"
    },
    {
      "inputs": [],
      "name": "totalFrozen",
      "outputs": [
        {
          "internalType": "uint256",
          "name": "",
          "type": "uint256"
        }
      ],
      "stateMutability": "view",
      "type": "function"
    },
    {
      "inputs": [],
      "name": "totalPool",
      "outputs": [
        {
          "internalType": "uint256",
          "name": "",
          "type": "uint256"
        }
      ],
      "stateMutability": "view",
      "type": "function"
    },
    {
      "inputs": [],
      "name": "totalProfitDistributed",
      "outputs": [
        {
          "internalType": "uint256",
          "name": "",
          "type": "uint256"
        }
      ],
      "stateMutability": "view",
      "type": "function"
    },
    {
      "inputs": [],
      "name": "totalShares",
      "outputs": [
        {
          "internalType": "uint256",
          "name": "",
          "type": "uint256"
        }
      ],
      "stateMutability": "view",
      "type": "function"
    },
    {
      "inputs": [],
      "name": "totalStaked",
      "outputs": [
        {
          "internalType": "uint256",
          "name": "",
          "type": "uint256"
        }
      ],
      "stateMutability": "view",
      "type": "function"
    },
    {
      "inputs": [
        {
          "internalType": "address",
          "name": "newOwner",
          "type": "address"
        }
      ],
      "name": "transferOwnership",
      "outputs": [],
      "stateMutability": "nonpayable",
      "type": "function"
    },
    {
      "inputs": [
        {
          "internalType": "contract BitcrushBankroll",
          "name": "_bankroll",
          "type": "address"
        }
      ],
      "name": "setBankroll",
      "outputs": [],
      "stateMutability": "nonpayable",
      "type": "function"
    },
    {
      "inputs": [
        {
          "internalType": "contract BitcrushLiveWallet",
          "name": "_liveWallet",
          "type": "address"
        }
      ],
      "name": "setLiveWallet",
      "outputs": [],
      "stateMutability": "nonpayable",
      "type": "function"
    },
    {
      "inputs": [
        {
          "internalType": "uint256",
          "name": "_amount",
          "type": "uint256"
        }
      ],
      "name": "addRewardToPool",
      "outputs": [],
      "stateMutability": "nonpayable",
      "type": "function"
    },
    {
      "inputs": [
        {
          "internalType": "uint256",
          "name": "_amount",
          "type": "uint256"
        }
      ],
      "name": "setCrushPerBlock",
      "outputs": [],
      "stateMutability": "nonpayable",
      "type": "function"
    },
    {
      "inputs": [
        {
          "internalType": "uint256",
          "name": "_amount",
          "type": "uint256"
        }
      ],
      "name": "enterStaking",
      "outputs": [],
      "stateMutability": "nonpayable",
      "type": "function"
    },
    {
      "inputs": [
        {
          "internalType": "uint256",
          "name": "_amount",
          "type": "uint256"
        },
        {
          "internalType": "bool",
          "name": "_liveWallet",
          "type": "bool"
        }
      ],
      "name": "leaveStaking",
      "outputs": [],
      "stateMutability": "nonpayable",
      "type": "function"
    },
    {
      "inputs": [],
      "name": "totalPendingRewards",
      "outputs": [
        {
          "internalType": "uint256",
          "name": "",
          "type": "uint256"
        }
      ],
      "stateMutability": "view",
      "type": "function"
    },
    {
      "inputs": [
        {
          "internalType": "address",
          "name": "_address",
          "type": "address"
        }
      ],
      "name": "pendingReward",
      "outputs": [
        {
          "internalType": "uint256",
          "name": "",
          "type": "uint256"
        }
      ],
      "stateMutability": "view",
      "type": "function"
    },
    {
      "inputs": [],
      "name": "compoundAll",
      "outputs": [],
      "stateMutability": "nonpayable",
      "type": "function"
    },
    {
      "inputs": [
        {
          "internalType": "uint256",
          "name": "_amount",
          "type": "uint256"
        },
        {
          "internalType": "address",
          "name": "_recipient",
          "type": "address"
        },
        {
          "internalType": "address",
          "name": "_lwAddress",
          "type": "address"
        }
      ],
      "name": "freezeStaking",
      "outputs": [],
      "stateMutability": "nonpayable",
      "type": "function"
    },
    {
      "inputs": [
        {
          "internalType": "uint256",
          "name": "_amount",
          "type": "uint256"
        }
      ],
      "name": "unfreezeStaking",
      "outputs": [],
      "stateMutability": "nonpayable",
      "type": "function"
    },
    {
      "inputs": [],
      "name": "indexesLength",
      "outputs": [
        {
          "internalType": "uint256",
          "name": "_addressesLength",
          "type": "uint256"
        }
      ],
      "stateMutability": "view",
      "type": "function"
    },
    {
      "inputs": [
        {
          "internalType": "uint256",
          "name": "_fee",
          "type": "uint256"
        }
      ],
      "name": "setPerformanceFeeCompounder",
      "outputs": [],
      "stateMutability": "nonpayable",
      "type": "function"
    },
    {
      "inputs": [
        {
          "internalType": "uint256",
          "name": "_fee",
          "type": "uint256"
        }
      ],
      "name": "setPerformanceFeeBurn",
      "outputs": [],
      "stateMutability": "nonpayable",
      "type": "function"
    },
    {
      "inputs": [
        {
          "internalType": "uint256",
          "name": "_fee",
          "type": "uint256"
        }
      ],
      "name": "setEarlyWithdrawFee",
      "outputs": [],
      "stateMutability": "nonpayable",
      "type": "function"
    },
    {
      "inputs": [
        {
          "internalType": "uint256",
          "name": "_fee",
          "type": "uint256"
        }
      ],
      "name": "setPerformanceFeeReserve",
      "outputs": [],
      "stateMutability": "nonpayable",
      "type": "function"
    },
    {
      "inputs": [
        {
          "internalType": "uint256",
          "name": "_time",
          "type": "uint256"
        }
      ],
      "name": "setEarlyWithdrawFeeTime",
      "outputs": [],
      "stateMutability": "nonpayable",
      "type": "function"
    },
    {
      "inputs": [
        {
          "internalType": "uint256",
          "name": "_limit",
          "type": "uint256"
        }
      ],
      "name": "setAutoCompoundLimit",
      "outputs": [],
      "stateMutability": "nonpayable",
      "type": "function"
    }
  ],
  "bytecode": "0x60a0604052600a600155606460025560326003556105dc60045560be600555612a3060065560036007556007546203f480816200003857fe5b046008556109c46009556000601255674c53ecdc18a6000060135560006017556000601855600a6019553480156200006f57600080fd5b506040516200342838038062003428833981810160405260608110156200009557600080fd5b50805160208201516040909201519091906000620000bb6001600160e01b036200015e16565b600080546001600160a01b0319166001600160a01b0383169081178255604051929350917f8be0079c531659141344cd1fd0a4f28419497f9722a3daafe3b4186f6b6457e0908290a3506001600160601b0319606084901b16608052678ac7230489e8000082116200012d5760138290555b601480546001600160a01b0319166001600160a01b03929092169190911790555050600060115542601a5562000162565b3390565b60805160601c613267620001c1600039806108fc52806109cf5280610a6d5280610bd65280610ca25280610fc752806111455280611194528061120b5280611988528061215f52806121cb528061220b528061239352506132676000f3fe608060405234801561001057600080fd5b50600436106103415760003560e01c806376e9e6c0116101bd578063c53f871f116100f9578063ec1371f2116100a2578063f2fde38b1161007c578063f2fde38b146106e7578063f40f0f521461070d578063f79ed94b14610733578063fa2b8a5d1461073b57610341565b8063ec1371f2146106cf578063ecb1c924146106d7578063ecfb49a3146106df57610341565b8063dc6e13e1116100d3578063dc6e13e114610643578063e39faaa4146106aa578063e3aeeb46146106c757610341565b8063c53f871f14610616578063c61f1c0b14610633578063d54ad2a11461063b57610341565b8063a775573a11610166578063bc063e1a11610140578063bc063e1a146105c3578063bca5503d146105cb578063bde8a93e146105d3578063c22982f4146105f957610341565b8063a775573a14610596578063a80a7882146105b3578063b359a9f9146105bb57610341565b80638f44ebfc116101975780638f44ebfc146105345780639b05ddb3146105685780639e13900c1461057057610341565b806376e9e6c014610507578063817b1cd2146105245780638da5cb5b1461052c57610341565b806341441d3b1161028c5780636535fc66116102355780636903d0b61161020f5780636903d0b6146104d25780636e74d2e2146104da5780636f90e046146104e2578063715018a6146104ff57610341565b80636535fc66146104a5578063668579c9146104c25780636874d620146104ca57610341565b80634b37f006116102665780634b37f006146104785780634bf211b8146104805780635832d5711461048857610341565b806341441d3b1461042e578063445e76881461044b57806349535ef51461047057610341565b8063289bac07116102ee57806338ed019a116102c857806338ed019a146104015780633a53ed49146104095780633a98ef391461042657610341565b8063289bac07146103bb5780632e0ae2f2146103c35780632e5f6d4c146103cb57610341565b80631f2dc5ef1161031f5780631f2dc5ef1461038c5780632533830a1461039457806326cba3361461039c57610341565b80630a3960bc146103465780630c657eb0146103605780631e7f87bc14610384575b600080fd5b61034e610743565b60408051918252519081900360200190f35b610368610749565b604080516001600160a01b039092168252519081900360200190f35b61034e610758565b61034e61075e565b61034e610764565b6103b9600480360360208110156103b257600080fd5b503561076a565b005b61034e610884565b61034e61088a565b6103e8600480360360208110156103e157600080fd5b5035610890565b6040805192835260208301919091528051918290030190f35b61034e6108bb565b6103b96004803603602081101561041f57600080fd5b50356108c1565b61034e610a2c565b6103b96004803603602081101561044457600080fd5b5035610a32565b6103b96004803603604081101561046157600080fd5b50803590602001351515610d77565b61034e611426565b61034e61142c565b61034e611432565b6103686004803603602081101561049e57600080fd5b5035611438565b6103b9600480360360208110156104bb57600080fd5b503561145f565b61034e61157a565b61034e611580565b61034e611586565b61034e61158c565b6103b9600480360360208110156104f857600080fd5b5035611592565b6103b9611656565b6103b96004803603602081101561051d57600080fd5b5035611717565b61034e61181a565b610368611820565b6103b96004803603606081101561054a57600080fd5b508035906001600160a01b0360208201358116916040013516611830565b6103b96119bd565b6103b96004803603602081101561058657600080fd5b50356001600160a01b031661223c565b6103b9600480360360208110156105ac57600080fd5b50356122d5565b61034e61238b565b610368612391565b61034e6123b5565b61034e6123bb565b6103b9600480360360208110156105e957600080fd5b50356001600160a01b03166123c1565b6103b96004803603602081101561060f57600080fd5b503561245a565b6103b96004803603602081101561062c57600080fd5b5035612574565b61034e61268e565b61034e612694565b6106696004803603602081101561065957600080fd5b50356001600160a01b031661269a565b604080519889526020890197909752878701959095526060870193909352608086019190915260a085015260c084015260e083015251908190036101000190f35b6103b9600480360360208110156106c057600080fd5b50356126dd565b610368612796565b61034e6127a5565b61034e61280d565b61034e612813565b6103b9600480360360208110156106fd57600080fd5b50356001600160a01b0316612819565b61034e6004803603602081101561072357600080fd5b50356001600160a01b031661288f565b6103686128a2565b61034e6128b1565b60055481565b600b546001600160a01b031681565b60175481565b61271081565b60185481565b6107726128bd565b6000546001600160a01b039081169116146107d4576040805162461bcd60e51b815260206004820181905260248201527f4f776e61626c653a2063616c6c6572206973206e6f7420746865206f776e6572604482015290519081900360640190fd5b60008111610829576040805162461bcd60e51b815260206004820152601a60248201527f466565206d7573742062652067726561746572207468616e2030000000000000604482015290519081900360640190fd5b6103e8811061087f576040805162461bcd60e51b815260206004820152601960248201527f466565206d757374206265206c657373207468616e2031302500000000000000604482015290519081900360640190fd5b600155565b600e5490565b60045481565b600f818154811061089d57fe5b60009182526020909120600290910201805460019091015490915082565b60125481565b604080517f70a08231000000000000000000000000000000000000000000000000000000008152336004820152905182916001600160a01b037f000000000000000000000000000000000000000000000000000000000000000016916370a0823191602480820192602092909190829003018186803b15801561094357600080fd5b505afa158015610957573d6000803e3d6000fd5b505050506040513d602081101561096d57600080fd5b505110156109ac5760405162461bcd60e51b81526004018080602001828103825260268152602001806131cf6026913960400191505060405180910390fd5b6010546109bf908263ffffffff6128c116565b6010556109fd6001600160a01b037f00000000000000000000000000000000000000000000000000000000000000001633308463ffffffff61292416565b6010546040517f1ef37ab665f7c977b577275d7a49e72cd18d1143eccd1112f1198e4a39d1428c90600090a250565b600a5481565b604080517f70a08231000000000000000000000000000000000000000000000000000000008152336004820152905182916001600160a01b037f000000000000000000000000000000000000000000000000000000000000000016916370a0823191602480820192602092909190829003018186803b158015610ab457600080fd5b505afa158015610ac8573d6000803e3d6000fd5b505050506040513d6020811015610ade57600080fd5b50511015610b1d5760405162461bcd60e51b81526004018080602001828103825260268152602001806131cf6026913960400191505060405180910390fd5b60008111610b72576040805162461bcd60e51b815260206004820152601660248201527f496e76616c6964207374616b696e6720616d6f756e7400000000000000000000604482015290519081900360640190fd5b600060105411610bc9576040805162461bcd60e51b815260206004820152601560248201527f52657761726420506f6f6c204578686175737465640000000000000000000000604482015290519081900360640190fd5b610c046001600160a01b037f00000000000000000000000000000000000000000000000000000000000000001633308463ffffffff61292416565b601554610c1057436011555b336000908152600d602052604090206001810154610c8b57436004820155600e805460018101825560008290527fbb7b4a454dc3493923482f07822329ed19e8244eff582cc204f8554c3620c3fd01805473ffffffffffffffffffffffffffffffffffffffff19163317905554600019016006820155610ccf565b610ccf33610c98336129ac565b6001600160a01b037f000000000000000000000000000000000000000000000000000000000000000016919063ffffffff612aac16565b601554610ce2908363ffffffff6128c116565b601555600a5460009015610d1e57610d17601554610d0b600a5486612b3190919063ffffffff16565b9063ffffffff612b8a16565b9050610d21565b50815b8154610d33908263ffffffff6128c116565b8255600a54610d48908263ffffffff6128c116565b600a556001820154610d60908463ffffffff6128c116565b600183015550436005820181905560049091015550565b6000610d82336129ac565b336000908152600d6020526040902043600482015560105491925090610dae908363ffffffff612bcc16565b601055600181015460175415610df457610ded610de0601554610d0b8560010154601754612b3190919063ffffffff16565b829063ffffffff612bcc16565b9050610e06565b600782015415610e0657600060078301555b84811015610e455760405162461bcd60e51b815260040180806020018281038252603f81526020018061309a603f913960400191505060405180910390fd5b601554610e58908663ffffffff612bcc16565b60155560018201548254600091610e7a91610d0b90899063ffffffff612b3116565b6001840154909150610e92908763ffffffff612bcc16565b60018401558254610ea9908263ffffffff612bcc16565b8355600a54610ebe908263ffffffff612bcc16565b600a55601754156110e457600783015415610f27576006546007840154610eea9163ffffffff6128c116565b4211610f275760405162461bcd60e51b815260040180806020018281038252603381526020018061319c6033913960400191505060405180910390fd5b6000610f44612710610d0b6004548a612b3190919063ffffffff16565b4260078601559050610f5c878263ffffffff612bcc16565b9650601754811115611049576000610f7f60175483612bcc90919063ffffffff16565b600b54604080517f095ea7b30000000000000000000000000000000000000000000000000000000081526001600160a01b0392831660048201526024810184905290519293507f00000000000000000000000000000000000000000000000000000000000000009091169163095ea7b3916044808201926020929091908290030181600087803b15801561101257600080fd5b505af1158015611026573d6000803e3d6000fd5b505050506040513d602081101561103c57600080fd5b5050600060175550611060565b60175461105c908263ffffffff612bcc16565b6017555b600b54604080517f59c53fd40000000000000000000000000000000000000000000000000000000081526004810184905290516001600160a01b03909216916359c53fd49160248082019260009290919082900301818387803b1580156110c657600080fd5b505af11580156110da573d6000803e3d6000fd5b5050505050611170565b60085460058401546110fb9163ffffffff6128c116565b43101561117057600061111f612710610d0b6003548a612b3190919063ffffffff16565b9050611131878263ffffffff612bcc16565b60145490975061116e906001600160a01b037f00000000000000000000000000000000000000000000000000000000000000008116911683612aac565b505b611180868563ffffffff6128c116565b9550846111c6576111c16001600160a01b037f000000000000000000000000000000000000000000000000000000000000000016338863ffffffff612aac16565b611307565b600c54604080517f095ea7b30000000000000000000000000000000000000000000000000000000081526001600160a01b0392831660048201526024810189905290517f00000000000000000000000000000000000000000000000000000000000000009092169163095ea7b3916044808201926020929091908290030181600087803b15801561125657600080fd5b505af115801561126a573d6000803e3d6000fd5b505050506040513d602081101561128057600080fd5b5050600c54604080517f7efd38130000000000000000000000000000000000000000000000000000000081526004810189905233602482015290516001600160a01b0390921691637efd38139160448082019260009290919082900301818387803b1580156112ee57600080fd5b505af1158015611302573d6000803e3d6000fd5b505050505b60018301546113f257600e546006840154600019909101146113b757600e805460009190600019810190811061133957fe5b9060005260206000200160009054906101000a90046001600160a01b0316905080600e85600601548154811061136b57fe5b6000918252602080832091909101805473ffffffffffffffffffffffffffffffffffffffff19166001600160a01b03948516179055600687810154949093168252600d90526040902001555b600e8054806113c257fe5b6000828152602090208101600019908101805473ffffffffffffffffffffffffffffffffffffffff191690550190555b6010546040517f1ef37ab665f7c977b577275d7a49e72cd18d1143eccd1112f1198e4a39d1428c90600090a2505050505050565b60095481565b60075481565b60115481565b600e818154811061144557fe5b6000918252602090912001546001600160a01b0316905081565b6114676128bd565b6000546001600160a01b039081169116146114c9576040805162461bcd60e51b815260206004820181905260248201527f4f776e61626c653a2063616c6c6572206973206e6f7420746865206f776e6572604482015290519081900360640190fd5b6000811161151e576040805162461bcd60e51b815260206004820152601a60248201527f466565206d7573742062652067726561746572207468616e2030000000000000604482015290519081900360640190fd5b6103e8811115611575576040805162461bcd60e51b815260206004820152601960248201527f466565206d757374206265206c657373207468616e2031302500000000000000604482015290519081900360640190fd5b600555565b601a5481565b60065481565b60085481565b60025481565b61159a6128bd565b6000546001600160a01b039081169116146115fc576040805162461bcd60e51b815260206004820181905260248201527f4f776e61626c653a2063616c6c6572206973206e6f7420746865206f776e6572604482015290519081900360640190fd5b60008111611651576040805162461bcd60e51b815260206004820152601b60248201527f54696d65206d7573742062652067726561746572207468616e20300000000000604482015290519081900360640190fd5b600855565b61165e6128bd565b6000546001600160a01b039081169116146116c0576040805162461bcd60e51b815260206004820181905260248201527f4f776e61626c653a2063616c6c6572206973206e6f7420746865206f776e6572604482015290519081900360640190fd5b600080546040516001600160a01b03909116907f8be0079c531659141344cd1fd0a4f28419497f9722a3daafe3b4186f6b6457e0908390a36000805473ffffffffffffffffffffffffffffffffffffffff19169055565b61171f6128bd565b6000546001600160a01b03908116911614611781576040805162461bcd60e51b815260206004820181905260248201527f4f776e61626c653a2063616c6c6572206973206e6f7420746865206f776e6572604482015290519081900360640190fd5b600081116117d6576040805162461bcd60e51b815260206004820152601260248201527f4c696d69742063616e206e6f7420626520300000000000000000000000000000604482015290519081900360640190fd5b601e81106118155760405162461bcd60e51b815260040180806020018281038252602b815260200180613150602b913960400191505060405180910390fd5b601955565b60155481565b6000546001600160a01b03165b90565b600b546001600160a01b0316331461188f576040805162461bcd60e51b815260206004820152601760248201527f43616c6c6574206d7573742062652062616e6b726f6c6c000000000000000000604482015290519081900360640190fd5b6017546015546118a49163ffffffff612bcc16565b8311156118e25760405162461bcd60e51b815260040180806020018281038252603d8152602001806131f5603d913960400191505060405180910390fd5b6017546118f5908463ffffffff6128c116565b601755604080517ff62cf8d0000000000000000000000000000000000000000000000000000000008152600481018590526001600160a01b0384811660248301529151839283169163f62cf8d091604480830192600092919082900301818387803b15801561196357600080fd5b505af1158015611977573d6000803e3d6000fd5b506119b79250506001600160a01b037f0000000000000000000000000000000000000000000000000000000000000000169050838663ffffffff612aac16565b50505050565b436011541115611a14576040805162461bcd60e51b815260206004820181905260248201527f436f6d706f756e6420416c6c206e6f7420796574206170706c696361626c652e604482015290519081900360640190fd5b600060155411611a6b576040805162461bcd60e51b815260206004820152601a60248201527f4e6f205374616b6564207265776172647320746f20636c61696d000000000000604482015290519081900360640190fd5b600e5460195460009182918291829181111580611a9e5750600e54601954601254611a9b9163ffffffff6128c116565b10155b15611aac5750600e54611ac4565b601954601254611ac19163ffffffff6128c116565b90505b600b54604080517f45c9c1d100000000000000000000000000000000000000000000000000000000815290516000926001600160a01b0316916345c9c1d191600480830192602092919082900301818787803b158015611b2357600080fd5b505af1158015611b37573d6000803e3d6000fd5b505050506040513d6020811015611b4d57600080fd5b505190508015611be957611b5f613043565b506040805180820190915281815260208101828152600f805460018101825560009190915282517f8d1108e10bcb7c27dddfc02ed9d693a074039d026cf4ea4240b40f7d581ac80260029092029182015590517f8d1108e10bcb7c27dddfc02ed9d693a074039d026cf4ea4240b40f7d581ac80390910155601854611be490836128c1565b601855505b601254611d3257600f5460011015611d3257611c50600f600081548110611c0c57fe5b906000526020600020906002020160010154600f6001600f805490500381548110611c3357fe5b60009182526020909120600290910201549063ffffffff6128c116565b600f80546000198101908110611c6257fe5b6000918252602090912060029091020155600f80546000198101908110611c8557fe5b6000918252602090912060029091020154600f80546000198101908110611ca857fe5b6000918252602090912060016002909202010155600f80546000198101908110611cce57fe5b9060005260206000209060020201600f600081548110611cea57fe5b600091825260209091208254600290920201908155600191820154910155600f805480611d1357fe5b6000828152602081206002600019909301928302018181556001015590555b6012545b828110156120f9576000611d6a600e8381548110611d5057fe5b6000918252602090912001546001600160a01b03166129ac565b90506000600d6000600e8581548110611d7f57fe5b60009182526020808320909101546001600160a01b03168352820192909252604001902090508115611dd457601654611dbe908363ffffffff6128c116565b601655611dd1868363ffffffff6128c116565b95505b600f5415611f7e576000600f600081548110611dec57fe5b9060005260206000209060020201600101541115611f7e576000809050611e42600a54610d0b8460000154600f600081548110611e2557fe5b60009182526020909120600290910201549063ffffffff612b3116565b9050600f600081548110611e5257fe5b906000526020600020906002020160010154811115611e8e57600f600081548110611e7957fe5b90600052602060002090600202016001015490505b611ec081600f600081548110611ea057fe5b906000526020600020906002020160010154612bcc90919063ffffffff16565b600f600081548110611ece57fe5b9060005260206000209060020201600101819055506005600f600081548110611ef357fe5b90600052602060002090600202016001015411611f6a57611f3e600f600081548110611f1b57fe5b9060005260206000209060020201600101546010546128c190919063ffffffff16565b6010819055506000600f600081548110611f5457fe5b9060005260206000209060020201600101819055505b611f7a838263ffffffff6128c116565b9250505b81156120d2576000611fa1612710610d0b60025486612b3190919063ffffffff16565b9050611fb38a8263ffffffff6128c116565b99506000611fd2612710610d0b60015487612b3190919063ffffffff16565b9050611fe4898263ffffffff6128c116565b98506000612003612710610d0b60055488612b3190919063ffffffff16565b90506120158b8263ffffffff6128c116565b9a50612027858463ffffffff612bcc16565b9450612039858363ffffffff612bcc16565b945061204b858263ffffffff612bcc16565b6002850154909550612063908663ffffffff6128c116565b6002850155600184015461207d908663ffffffff6128c116565b6001850155601554600a546000916120a091610d0b90899063ffffffff612b3116565b600a549091506120b6908263ffffffff6128c116565b600a5584546120cb908263ffffffff6128c116565b8555505050505b4360048201556012546120ec90600163ffffffff6128c116565b6012555050600101611d36565b50600e546012541061210b5760006012555b60105461211e908463ffffffff612bcc16565b60105543601155604080517f42966c680000000000000000000000000000000000000000000000000000000081526004810188905290516001600160a01b037f000000000000000000000000000000000000000000000000000000000000000016916342966c6891602480830192600092919082900301818387803b1580156121a657600080fd5b505af11580156121ba573d6000803e3d6000fd5b506121fa9250506001600160a01b037f0000000000000000000000000000000000000000000000000000000000000000169050338663ffffffff612aac16565b601454612234906001600160a01b037f00000000000000000000000000000000000000000000000000000000000000008116911687612aac565b505050505050565b6122446128bd565b6000546001600160a01b039081169116146122a6576040805162461bcd60e51b815260206004820181905260248201527f4f776e61626c653a2063616c6c6572206973206e6f7420746865206f776e6572604482015290519081900360640190fd5b600c805473ffffffffffffffffffffffffffffffffffffffff19166001600160a01b0392909216919091179055565b6122dd6128bd565b6000546001600160a01b0390811691161461233f576040805162461bcd60e51b815260206004820181905260248201527f4f776e61626c653a2063616c6c6572206973206e6f7420746865206f776e6572604482015290519081900360640190fd5b678ac7230489e800008111156123865760405162461bcd60e51b81526004018080602001828103825260278152602001806131296027913960400191505060405180910390fd5b601355565b60035481565b7f000000000000000000000000000000000000000000000000000000000000000081565b6103e881565b60015481565b6123c96128bd565b6000546001600160a01b0390811691161461242b576040805162461bcd60e51b815260206004820181905260248201527f4f776e61626c653a2063616c6c6572206973206e6f7420746865206f776e6572604482015290519081900360640190fd5b600b805473ffffffffffffffffffffffffffffffffffffffff19166001600160a01b0392909216919091179055565b6124626128bd565b6000546001600160a01b039081169116146124c4576040805162461bcd60e51b815260206004820181905260248201527f4f776e61626c653a2063616c6c6572206973206e6f7420746865206f776e6572604482015290519081900360640190fd5b60008111612519576040805162461bcd60e51b815260206004820152601a60248201527f466565206d7573742062652067726561746572207468616e2030000000000000604482015290519081900360640190fd5b6103e8811061256f576040805162461bcd60e51b815260206004820152601960248201527f466565206d757374206265206c657373207468616e2031302500000000000000604482015290519081900360640190fd5b600355565b61257c6128bd565b6000546001600160a01b039081169116146125de576040805162461bcd60e51b815260206004820181905260248201527f4f776e61626c653a2063616c6c6572206973206e6f7420746865206f776e6572604482015290519081900360640190fd5b60008111612633576040805162461bcd60e51b815260206004820152601a60248201527f466565206d7573742062652067726561746572207468616e2030000000000000604482015290519081900360640190fd5b6103e88110612689576040805162461bcd60e51b815260206004820152601960248201527f466565206d757374206265206c657373207468616e2031302500000000000000604482015290519081900360640190fd5b600255565b60135481565b60165481565b600d602052600090815260409020805460018201546002830154600384015460048501546005860154600687015460079097015495969495939492939192909188565b600b546001600160a01b0316331461273c576040805162461bcd60e51b815260206004820152601760248201527f43616c6c6574206d7573742062652062616e6b726f6c6c000000000000000000604482015290519081900360640190fd5b60175481111561277d5760405162461bcd60e51b815260040180806020018281038252603c81526020018061305e603c913960400191505060405180910390fd5b601754612790908263ffffffff612bcc16565b60175550565b600c546001600160a01b031681565b600060115443116127b85750600061182d565b6011546127c75750600061182d565b6010546127d65750600061182d565b60006127ed60115443612bcc90919063ffffffff16565b9050600061280660135483612b3190919063ffffffff16565b9250505090565b60195481565b60105481565b6128216128bd565b6000546001600160a01b03908116911614612883576040805162461bcd60e51b815260206004820181905260248201527f4f776e61626c653a2063616c6c6572206973206e6f7420746865206f776e6572604482015290519081900360640190fd5b61288c81612c0e565b50565b600061289a826129ac565b90505b919050565b6014546001600160a01b031681565b678ac7230489e8000081565b3390565b60008282018381101561291b576040805162461bcd60e51b815260206004820152601b60248201527f536166654d6174683a206164646974696f6e206f766572666c6f770000000000604482015290519081900360640190fd5b90505b92915050565b604080516001600160a01b0380861660248301528416604482015260648082018490528251808303909101815260849091019091526020810180517bffffffffffffffffffffffffffffffffffffffffffffffffffffffff167f23b872dd000000000000000000000000000000000000000000000000000000001790526119b7908590612cbb565b6001600160a01b0381166000908152600d602052604081206004810154431115806129d75750601054155b806129e25750601554155b156129f157600091505061289d565b6000612a0a826004015443612bcc90919063ffffffff16565b90506000806017541115612a5e57612a57612a4a612a3b612710610d0b600954601354612b3190919063ffffffff16565b6013549063ffffffff6128c116565b839063ffffffff612b3116565b9050612a75565b601354612a7290839063ffffffff612b3116565b90505b600a548354600091612a9291610d0b90859063ffffffff612b3116565b9050601054811115612aa357506010545b95945050505050565b604080516001600160a01b038416602482015260448082018490528251808303909101815260649091019091526020810180517bffffffffffffffffffffffffffffffffffffffffffffffffffffffff167fa9059cbb00000000000000000000000000000000000000000000000000000000179052612b2c908490612cbb565b505050565b600082612b405750600061291e565b82820282848281612b4d57fe5b041461291b5760405162461bcd60e51b815260040180806020018281038252602181526020018061317b6021913960400191505060405180910390fd5b600061291b83836040518060400160405280601a81526020017f536166654d6174683a206469766973696f6e206279207a65726f000000000000815250612d6c565b600061291b83836040518060400160405280601e81526020017f536166654d6174683a207375627472616374696f6e206f766572666c6f770000815250612e0e565b6001600160a01b038116612c535760405162461bcd60e51b81526004018080602001828103825260268152602001806131036026913960400191505060405180910390fd5b600080546040516001600160a01b03808516939216917f8be0079c531659141344cd1fd0a4f28419497f9722a3daafe3b4186f6b6457e091a36000805473ffffffffffffffffffffffffffffffffffffffff19166001600160a01b0392909216919091179055565b6060612d10826040518060400160405280602081526020017f5361666542455032303a206c6f772d6c6576656c2063616c6c206661696c6564815250856001600160a01b0316612e689092919063ffffffff16565b805190915015612b2c57808060200190516020811015612d2f57600080fd5b5051612b2c5760405162461bcd60e51b815260040180806020018281038252602a8152602001806130d9602a913960400191505060405180910390fd5b60008183612df85760405162461bcd60e51b81526004018080602001828103825283818151815260200191508051906020019080838360005b83811015612dbd578181015183820152602001612da5565b50505050905090810190601f168015612dea5780820380516001836020036101000a031916815260200191505b509250505060405180910390fd5b506000838581612e0457fe5b0495945050505050565b60008184841115612e605760405162461bcd60e51b8152602060048201818152835160248401528351909283926044909101919085019080838360008315612dbd578181015183820152602001612da5565b505050900390565b6060612e778484600085612e7f565b949350505050565b6060612e8a8561300a565b612edb576040805162461bcd60e51b815260206004820152601d60248201527f416464726573733a2063616c6c20746f206e6f6e2d636f6e7472616374000000604482015290519081900360640190fd5b60006060866001600160a01b031685876040518082805190602001908083835b60208310612f3857805182527fffffffffffffffffffffffffffffffffffffffffffffffffffffffffffffffe09092019160209182019101612efb565b6001836020036101000a03801982511681845116808217855250505050505090500191505060006040518083038185875af1925050503d8060008114612f9a576040519150601f19603f3d011682016040523d82523d6000602084013e612f9f565b606091505b50915091508115612fb3579150612e779050565b805115612fc35780518082602001fd5b60405162461bcd60e51b8152602060048201818152865160248401528651879391928392604401919085019080838360008315612dbd578181015183820152602001612da5565b6000813f7fc5d2460186f7233c927e7db2dcc703c0e500b653ca82273b7bfad8045d85a470818114801590612e77575050151592915050565b60405180604001604052806000815260200160008152509056fe756e667265657a6520616d6f756e742063616e742062652067726561746572207468616e2063757272656e746c792066726f7a656e20616d6f756e74576974686472617720616d6f756e742063616e206e6f742062652067726561746572207468616e20617661696c61626c65207374616b656420616d6f756e745361666542455032303a204245503230206f7065726174696f6e20646964206e6f7420737563636565644f776e61626c653a206e6577206f776e657220697320746865207a65726f206164647265737343727573682050657220426c6f636b2063616e206e6f74206265206d6f7265207468616e2031304d6178206175746f636f6d706f756e64206c696d69742063616e6e6f742062652067726561746572203330536166654d6174683a206d756c7469706c69636174696f6e206f766572666c6f774f6e6c79204f6e6520576974686472617720616c6c6f77656420706572203320686f75727320647572696e6720667265657a65496e73756666696369656e7420437275736820746f6b656e7320666f72207472616e73666572467265657a6520616d6f756e742073686f756c64206265206c657373207468616e206f7220657175616c20746f20617661696c61626c652066756e6473a264697066735822122097790541266364f6a9702421b7537ce16258092ffaf856e0e9cfa5f8dcde44be64736f6c63430006050033",
  "immutableReferences": {
    "1826": [
      {
        "length": 32,
        "start": 2300
      },
      {
        "length": 32,
        "start": 2511
      },
      {
        "length": 32,
        "start": 2669
      },
      {
        "length": 32,
        "start": 3030
      },
      {
        "length": 32,
        "start": 3234
      },
      {
        "length": 32,
        "start": 4039
      },
      {
        "length": 32,
        "start": 4421
      },
      {
        "length": 32,
        "start": 4500
      },
      {
        "length": 32,
        "start": 4619
      },
      {
        "length": 32,
        "start": 6536
      },
      {
        "length": 32,
        "start": 8543
      },
      {
        "length": 32,
        "start": 8651
      },
      {
        "length": 32,
        "start": 8715
      },
      {
        "length": 32,
        "start": 9107
      }
    ]
  },
  "source": "//SPDX-License-Identifier: MIT\npragma solidity >=0.6.5;\n\nimport \"@pancakeswap/pancake-swap-lib/contracts/access/Ownable.sol\";\nimport \"./CrushCoin.sol\";\nimport \"@pancakeswap/pancake-swap-lib/contracts/math/SafeMath.sol\";\nimport \"@pancakeswap/pancake-swap-lib/contracts/token/BEP20/SafeBEP20.sol\";\nimport \"./HouseBankroll.sol\";\nimport \"./LiveWallet.sol\";\ncontract BitcrushStaking is Ownable {\n    using SafeMath for uint256;\n    using SafeBEP20 for CRUSHToken;\n    uint256 public constant MAX_CRUSH_PER_BLOCK = 10000000000000000000;\n    uint256 public constant MAX_FEE = 1000; // 1000/10000 * 100 = 10%\n    uint256 public performanceFeeCompounder = 10; // 10/10000 * 100 = 0.1%\n    uint256 public performanceFeeBurn       = 100; // 100/10000 * 100 = 1%\n    uint256 public constant divisor = 10000;\n    \n    uint256  public earlyWithdrawFee         = 50; // 50/10000 * 100 = 0.5% \n    uint256  public frozenEarlyWithdrawFee   = 1500; // 50/10000 * 100 = 0.5% \n    uint256  public performanceFeeReserve    = 190; // 190/10000 * 100 = 1.9%\n    \n    uint256  public frozenEarlyWithdrawFeeTime   = 10800; // 50/10000 * 100 = 0.5% \n\n    \n    uint256 public blockPerSecond = 3;\n    uint256 public earlyWithdrawFeeTime = 72 * 60 * 60 / blockPerSecond;\n    uint256 public apyBoost = 2500; //2500/10000 * 100 = 25%\n    uint256 public totalShares;\n\n    \n    //address of the crush token\n    CRUSHToken public immutable crush;\n    BitcrushBankroll public bankroll;\n    BitcrushLiveWallet public liveWallet;\n    struct UserStaking {\n        uint256 shares;\n        uint256 stakedAmount;\n        uint256 claimedAmount;\n        uint256 profit;\n        uint256 lastBlockCompounded;\n        uint256 lastBlockStaked;\n        uint256 index;\n        uint256 lastFrozenWithdraw;\n    }\n    mapping (address => UserStaking) public stakings;\n    address[] public addressIndexes;\n\n    struct profit {\n        uint256 total;\n        uint256 remaining;\n    }\n    profit[] public profits;\n\n    uint256 public totalPool;\n    uint256 public lastAutoCompoundBlock;\n    uint256 public batchStartingIndex = 0;\n    \n    uint256 public crushPerBlock = 5500000000000000000;\n    address public reserveAddress;\n\n    uint256 public totalStaked;\n    \n    uint256 public totalClaimed;\n    uint256 public totalFrozen = 0;\n    uint256 public totalProfitDistributed = 0;\n    \n    uint256 public autoCompoundLimit = 10;\n\n    uint256 public deploymentTimeStamp;\n    event RewardPoolUpdated (uint256 indexed _totalPool);\n    \n    event StakeUpdated (address indexed recipeint, uint256 indexed _amount);\n    \n    constructor (CRUSHToken _crush, uint256 _crushPerBlock, address _reserveAddress) public{\n        crush = _crush;\n        if(_crushPerBlock <= MAX_CRUSH_PER_BLOCK){\n            crushPerBlock = _crushPerBlock;\n        }\n    \n        reserveAddress = _reserveAddress;\n        lastAutoCompoundBlock = 0;\n        deploymentTimeStamp = block.timestamp;\n        \n    }\n    /// Store `_bankroll`.\n    /// @param _bankroll the new value to store\n    /// @dev stores the _bankroll address in the state variable `bankroll`\n    function setBankroll (BitcrushBankroll _bankroll) public onlyOwner{\n        bankroll = _bankroll;\n    }\n\n    /// Store `_liveWallet`.\n    /// @param _liveWallet the new value to store\n    /// @dev stores the _liveWallet address in the state variable `liveWallet`\n    function setLiveWallet (BitcrushLiveWallet _liveWallet) public onlyOwner{\n        liveWallet = _liveWallet;\n    }\n\n    /// Adds the provided amount to the totalPool\n    /// @param _amount the amount to add\n    /// @dev adds the provided amount to `totalPool` state variable\n    function addRewardToPool (uint256 _amount) public  {\n        require(crush.balanceOf(msg.sender) >= _amount, \"Insufficient Crush tokens for transfer\");\n        totalPool = totalPool.add(_amount);\n        crush.safeTransferFrom(msg.sender, address(this), _amount);\n        emit RewardPoolUpdated(totalPool);\n    }\n\n    \n    function setCrushPerBlock (uint256 _amount) public onlyOwner {\n        require(_amount >= 0, \"Crush per Block can not be negative\" );\n        require(_amount <= MAX_CRUSH_PER_BLOCK, \"Crush Per Block can not be more than 10\");\n        crushPerBlock = _amount;\n    }\n\n\n    /// Stake the provided amount\n    /// @param _amount the amount to stake\n    /// @dev stakes the provided amount\n    function enterStaking (uint256 _amount) public  {\n        require(crush.balanceOf(msg.sender) >= _amount, \"Insufficient Crush tokens for transfer\");\n        require(_amount > 0,\"Invalid staking amount\");\n        require(totalPool > 0, \"Reward Pool Exhausted\");\n        \n        crush.safeTransferFrom(msg.sender, address(this), _amount);\n        if(totalStaked == 0){\n            lastAutoCompoundBlock = block.number;\n        }\n        UserStaking storage user = stakings[msg.sender];\n\n        if(user.stakedAmount == 0){\n            user.lastBlockCompounded = block.number;\n            addressIndexes.push(msg.sender);\n            user.index = addressIndexes.length-1;\n        }\n        else{\n            crush.safeTransfer(msg.sender, getReward(msg.sender));\n        }\n        \n        totalStaked = totalStaked.add(_amount);\n\n        uint256 currentShares = 0;\n        if (totalShares != 0) {\n            currentShares = _amount.mul(totalShares).div(totalStaked);\n        } else {\n            currentShares = _amount;\n        }\n        user.shares = user.shares.add(currentShares);\n        totalShares = totalShares.add(currentShares);\n\n        user.stakedAmount = user.stakedAmount.add(_amount);\n        \n        user.lastBlockStaked = block.number;\n        \n        user.lastBlockCompounded = block.number;\n    }\n\n\n\n    /// Leaves staking for a user by the specified amount and transfering staked amount and reward to users address\n    /// @param _amount the amount to unstake\n    /// @dev leaves staking and deducts total pool by the users reward. early withdrawal fee applied if withdraw is made before earlyWithdrawFeeTime\n    function leaveStaking (uint256 _amount, bool _liveWallet) external  {\n        uint256 reward = getReward(msg.sender);\n        UserStaking storage user = stakings[msg.sender];\n        user.lastBlockCompounded = block.number;\n        totalPool = totalPool.sub(reward);\n        uint256 availableStaked = user.stakedAmount;\n        if(totalFrozen > 0){\n            availableStaked = availableStaked.sub(totalFrozen.mul(user.stakedAmount).div(totalStaked));\n        }else if(user.lastFrozenWithdraw > 0){\n            user.lastFrozenWithdraw = 0;\n        }\n        require(availableStaked >= _amount, \"Withdraw amount can not be greater than available staked amount\");\n        totalStaked = totalStaked.sub(_amount);\n        \n        uint256 shareReduction = _amount.mul( user.shares ).div( user.stakedAmount );\n        user.stakedAmount = user.stakedAmount.sub(_amount);\n        user.shares = user.shares.sub( shareReduction );\n        totalShares = totalShares.sub( shareReduction );\n\n        if(totalFrozen > 0 ){\n            if(user.lastFrozenWithdraw > 0 ) {\n                require(block.timestamp > user.lastFrozenWithdraw.add(frozenEarlyWithdrawFeeTime),\"Only One Withdraw allowed per 3 hours during freeze\");\n            }\n            uint256 withdrawalFee = _amount.mul(frozenEarlyWithdrawFee).div(divisor);\n            user.lastFrozenWithdraw = block.timestamp;\n            _amount = _amount.sub(withdrawalFee);\n            \n            if(withdrawalFee > totalFrozen){\n                uint256 remainder = withdrawalFee.sub(totalFrozen);\n                crush.approve(address(bankroll), remainder);\n                totalFrozen = 0;\n            }else {\n                totalFrozen = totalFrozen.sub(withdrawalFee);\n            }\n            \n            bankroll.recoverBankroll(withdrawalFee);\n            \n        }\n        else if(block.number < user.lastBlockStaked.add(earlyWithdrawFeeTime)){\n            //apply fee\n            uint256 withdrawalFee = _amount.mul(earlyWithdrawFee).div(divisor);\n            _amount = _amount.sub(withdrawalFee);\n            crush.safeTransfer(reserveAddress, withdrawalFee);\n        }\n        _amount = _amount.add(reward);\n        if(_liveWallet == false){\n            crush.safeTransfer(msg.sender, _amount);\n        }else {\n            crush.approve(address(liveWallet), _amount);\n            liveWallet.addbetWithAddress(_amount, msg.sender);\n        }\n        \n        //remove from array\n        if(user.stakedAmount == 0){\n            if(user.index != addressIndexes.length-1){\n                address lastAddress = addressIndexes[addressIndexes.length-1];\n                addressIndexes[user.index] = lastAddress;\n                stakings[lastAddress].index = user.index;\n            }\n            addressIndexes.pop();\n        }\n        emit RewardPoolUpdated(totalPool);\n    }\n\n\n    function getReward(address _address) internal view returns (uint256) {\n        UserStaking storage user = stakings[_address];\n        if(block.number <= user.lastBlockCompounded || totalPool == 0 || totalStaked ==0){\n            return 0;\n        }\n        //if the staker reward is greater than total pool => set it to total pool\n        uint256 blocks = block.number.sub(user.lastBlockCompounded);\n        uint256 totalReward;\n        if(totalFrozen > 0){\n            totalReward = blocks.mul(crushPerBlock.add(crushPerBlock.mul(apyBoost).div(divisor)));\n        }else {\n            totalReward = blocks.mul(crushPerBlock);\n        }\n        uint256 stakerReward = totalReward.mul(user.shares).div(totalShares);\n        if(stakerReward > totalPool){\n            stakerReward = totalPool;\n        }\n        return stakerReward;\n    }\n\n    /// Calculates total potential pending rewards\n    /// @dev Calculates potential reward based on crush per block\n    function totalPendingRewards () public view returns (uint256){\n            if(block.number <= lastAutoCompoundBlock){\n                return 0;\n            }else if(lastAutoCompoundBlock == 0){\n                return 0;\n            }else if (totalPool == 0){\n                return 0;\n            }\n\n            uint256 blocks = block.number.sub(lastAutoCompoundBlock);\n            uint256 totalReward = blocks.mul(crushPerBlock);\n\n            return totalReward;\n    }\n\n    /// Get pending rewards of a user\n    /// @param _address the address to calculate the reward for\n    /// @dev calculates potential reward for the address provided based on crush per block\n    function pendingReward (address _address) external view returns (uint256){\n        return getReward(_address);\n    }\n\n   \n\n    /// compounds the rewards of all users in the pool\n    /// @dev compounds the rewards of all users in the pool add adds it into their staked amount while deducting fees\n    function compoundAll () public  {\n        require(lastAutoCompoundBlock <= block.number, \"Compound All not yet applicable.\");\n        require(totalStaked > 0, \"No Staked rewards to claim\" );\n        uint256 crushToBurn = 0;\n        uint256 performanceFee = 0;\n        \n        uint256 compounderReward = 0;\n        uint totalPoolDeducted = 0;\n        \n        uint256 batchLimit = addressIndexes.length;\n        if(addressIndexes.length <= autoCompoundLimit || batchStartingIndex.add(autoCompoundLimit) >= addressIndexes.length){\n            batchLimit = addressIndexes.length;\n        }else {\n            batchLimit = batchStartingIndex.add(autoCompoundLimit);\n        }\n        uint256 newProfit = bankroll.transferProfit();\n        if(newProfit > 0){\n            //profit deduction\n            profit memory prof = profit(newProfit,newProfit);\n            profits.push(prof);\n            totalProfitDistributed = totalProfitDistributed.add(newProfit);\n        }\n        if(batchStartingIndex == 0){\n            if(profits.length > 1){\n                profits[profits.length - 1].total = profits[profits.length - 1].total.add(profits[0].remaining); \n                profits[profits.length - 1].remaining = profits[profits.length - 1].total;\n                profits[0] = profits[profits.length - 1];\n                profits.pop();\n            }\n        }\n\n        for(uint256 i=batchStartingIndex; i < batchLimit; i++){\n            uint256 stakerReward = getReward(addressIndexes[i]);\n            UserStaking storage currentUser = stakings[addressIndexes[i]];\n            if(stakerReward > 0){\n                totalClaimed = totalClaimed.add(stakerReward);\n                totalPoolDeducted = totalPoolDeducted.add(stakerReward);\n            }\n            if(profits.length > 0){\n                if(profits[0].remaining > 0){\n                    uint256 profitShareUser =0;\n                    profitShareUser = profits[0].total.mul( currentUser.shares).div(totalShares);\n                    if(profitShareUser > profits[0].remaining){\n                        profitShareUser = profits[0].remaining;\n                    }\n                    profits[0].remaining = profits[0].remaining.sub(profitShareUser);\n                    if(profits[0].remaining <= 5){\n                       totalPool = totalPool.add(profits[0].remaining); \n                       profits[0].remaining = 0;\n                    }\n                    stakerReward = stakerReward.add(profitShareUser); \n                }\n            }\n            if(stakerReward > 0){\n                uint256 stakerBurn = stakerReward.mul(performanceFeeBurn).div(divisor);\n                crushToBurn = crushToBurn.add(stakerBurn);\n            \n                uint256 cpAllReward = stakerReward.mul(performanceFeeCompounder).div(divisor);\n                compounderReward = compounderReward.add(cpAllReward);\n            \n                uint256 feeReserve = stakerReward.mul(performanceFeeReserve).div(divisor);\n                performanceFee = performanceFee.add(feeReserve);\n                stakerReward = stakerReward.sub(stakerBurn);\n                stakerReward = stakerReward.sub(cpAllReward);\n                stakerReward = stakerReward.sub(feeReserve);\n                currentUser.claimedAmount = currentUser.claimedAmount.add(stakerReward);\n                currentUser.stakedAmount = currentUser.stakedAmount.add(stakerReward);\n                \n                uint256 rewardShares = stakerReward.mul(totalShares).div(totalStaked);\n                totalShares = totalShares.add( rewardShares );\n                currentUser.shares = currentUser.shares.add(rewardShares);\n            }    \n            currentUser.lastBlockCompounded = block.number;\n            batchStartingIndex = batchStartingIndex.add(1);\n                        \n        }\n        if(batchStartingIndex >= addressIndexes.length){\n            batchStartingIndex = 0;\n        }\n        totalPool = totalPool.sub(totalPoolDeducted);\n        lastAutoCompoundBlock = block.number;\n        crush.burn(crushToBurn);\n        crush.safeTransfer(msg.sender, compounderReward);\n        crush.safeTransfer(reserveAddress, performanceFee);\n        \n    }\n\n    /// freeze certain funds in the staking pool and transfer them to the live wallet address\n    /// @dev adds the provided amount to the total frozen variablle\n    function freezeStaking (uint256 _amount, address _recipient, address _lwAddress) public  {\n        require(msg.sender == address(bankroll), \"Callet must be bankroll\");\n        //divide amount over users\n        //update user mapping to reflect frozen amount\n         require(_amount <= totalStaked.sub(totalFrozen), \"Freeze amount should be less than or equal to available funds\");\n         totalFrozen = totalFrozen.add(_amount);\n         BitcrushLiveWallet currentLw = BitcrushLiveWallet(_lwAddress);\n         currentLw.addToUserWinnings(_amount, _recipient);\n         crush.safeTransfer(address(_lwAddress), _amount);\n    }\n    \n    /// unfreeze previously frozen funds from the staking pool\n    /// @dev deducts the provided amount from the total frozen variablle\n    function unfreezeStaking (uint256 _amount) public {\n        require(msg.sender == address(bankroll), \"Callet must be bankroll\");\n       //divide amount over users\n        //update user mapping to reflect deducted frozen amount\n         require(_amount <= totalFrozen, \"unfreeze amount cant be greater than currently frozen amount\");\n         totalFrozen = totalFrozen.sub(_amount);\n    }\n\n\n\n    /// returns the total count of users in the staking pool.\n    /// @dev returns the total stakers in the staking pool by reading length of addressIndexes array\n    function indexesLength() external view returns(uint256 _addressesLength){\n        _addressesLength = addressIndexes.length;\n    }\n\n    /// Store `_fee`.\n    /// @param _fee the new value to store\n    /// @dev stores the fee in the state variable `performanceFeeCompounder`\n    function setPerformanceFeeCompounder (uint256 _fee) public onlyOwner{\n        require(_fee > 0, \"Fee must be greater than 0\");\n        require(_fee < MAX_FEE, \"Fee must be less than 10%\");\n        performanceFeeCompounder = _fee;\n    }\n\n    /// Store `_fee`.\n    /// @param _fee the new value to store\n    /// @dev stores the fee in the state variable `performanceFeeBurn`\n    function setPerformanceFeeBurn (uint256 _fee) public onlyOwner {\n        require(_fee > 0, \"Fee must be greater than 0\");\n        require(_fee < MAX_FEE, \"Fee must be less than 10%\");\n        performanceFeeBurn = _fee;\n    }\n\n    /// Store `_fee`.\n    /// @param _fee the new value to store\n    /// @dev stores the fee in the state variable `earlyWithdrawFee`\n    function setEarlyWithdrawFee (uint256 _fee) public onlyOwner {\n        require(_fee > 0, \"Fee must be greater than 0\");\n        require(_fee < MAX_FEE, \"Fee must be less than 10%\");\n        earlyWithdrawFee = _fee;\n    }\n\n\n    /// Store `_fee`.\n    /// @param _fee the new value to store\n    /// @dev stores the fee in the state variable `performanceFeeReserve`\n    function setPerformanceFeeReserve (uint256 _fee) public onlyOwner {\n        require(_fee > 0, \"Fee must be greater than 0\");\n        require(_fee <= MAX_FEE, \"Fee must be less than 10%\");\n        performanceFeeReserve = _fee;\n    }\n\n    /// Store `_time`.\n    /// @param _time the new value to store\n    /// @dev stores the time in the state variable `earlyWithdrawFeeTime`\n    function setEarlyWithdrawFeeTime (uint256 _time) public onlyOwner {\n        require(_time > 0, \"Time must be greater than 0\");\n        earlyWithdrawFeeTime = _time;\n    }\n    /// Store `_limit`.\n    /// @param _limit the new value to store\n    /// @dev stores the limit in the state variable `autoCompoundLimit`\n    function setAutoCompoundLimit (uint256 _limit) public onlyOwner {\n        require(_limit > 0, \"Limit can not be 0\");\n        require(_limit < 30, \"Max autocompound limit cannot be greater 30\");\n        autoCompoundLimit = _limit;\n    }\n   \n\n   \n}\n",
  "sourcePath": "/Users/ant/crypto/crush_contracts/contracts/staking.sol",
  "compiler": {
    "name": "solc",
    "version": "0.6.5+commit.f956cc89.Emscripten.clang"
  },
  "schemaVersion": "3.3.4",
  "updatedAt": "2021-11-03T03:01:11.740Z",
  "devdoc": {
    "methods": {
      "addRewardToPool(uint256)": {
        "details": "adds the provided amount to `totalPool` state variable",
        "params": {
          "_amount": "the amount to add"
        }
      },
      "compoundAll()": {
        "details": "compounds the rewards of all users in the pool add adds it into their staked amount while deducting fees"
      },
      "enterStaking(uint256)": {
        "details": "stakes the provided amount",
        "params": {
          "_amount": "the amount to stake"
        }
      },
      "freezeStaking(uint256,address,address)": {
        "details": "adds the provided amount to the total frozen variablle"
      },
      "indexesLength()": {
        "details": "returns the total stakers in the staking pool by reading length of addressIndexes array"
      },
      "leaveStaking(uint256,bool)": {
        "details": "leaves staking and deducts total pool by the users reward. early withdrawal fee applied if withdraw is made before earlyWithdrawFeeTime",
        "params": {
          "_amount": "the amount to unstake"
        }
      },
      "owner()": {
        "details": "Returns the address of the current owner."
      },
      "pendingReward(address)": {
        "details": "calculates potential reward for the address provided based on crush per block",
        "params": {
          "_address": "the address to calculate the reward for"
        }
      },
      "renounceOwnership()": {
        "details": "Leaves the contract without owner. It will not be possible to call `onlyOwner` functions anymore. Can only be called by the current owner.     * NOTE: Renouncing ownership will leave the contract without an owner, thereby removing any functionality that is only available to the owner."
      },
      "setAutoCompoundLimit(uint256)": {
        "details": "stores the limit in the state variable `autoCompoundLimit`",
        "params": {
          "_limit": "the new value to store"
        }
      },
      "setBankroll(address)": {
        "details": "stores the _bankroll address in the state variable `bankroll`",
        "params": {
          "_bankroll": "the new value to store"
        }
      },
      "setEarlyWithdrawFee(uint256)": {
        "details": "stores the fee in the state variable `earlyWithdrawFee`",
        "params": {
          "_fee": "the new value to store"
        }
      },
      "setEarlyWithdrawFeeTime(uint256)": {
        "details": "stores the time in the state variable `earlyWithdrawFeeTime`",
        "params": {
          "_time": "the new value to store"
        }
      },
      "setLiveWallet(address)": {
        "details": "stores the _liveWallet address in the state variable `liveWallet`",
        "params": {
          "_liveWallet": "the new value to store"
        }
      },
      "setPerformanceFeeBurn(uint256)": {
        "details": "stores the fee in the state variable `performanceFeeBurn`",
        "params": {
          "_fee": "the new value to store"
        }
      },
      "setPerformanceFeeCompounder(uint256)": {
        "details": "stores the fee in the state variable `performanceFeeCompounder`",
        "params": {
          "_fee": "the new value to store"
        }
      },
      "setPerformanceFeeReserve(uint256)": {
        "details": "stores the fee in the state variable `performanceFeeReserve`",
        "params": {
          "_fee": "the new value to store"
        }
      },
      "totalPendingRewards()": {
        "details": "Calculates potential reward based on crush per block"
      },
      "transferOwnership(address)": {
        "details": "Transfers ownership of the contract to a new account (`newOwner`). Can only be called by the current owner."
      },
      "unfreezeStaking(uint256)": {
        "details": "deducts the provided amount from the total frozen variablle"
      }
    }
  },
  "userdoc": {
    "methods": {
      "addRewardToPool(uint256)": {
        "notice": "Adds the provided amount to the totalPool"
      },
      "compoundAll()": {
        "notice": "compounds the rewards of all users in the pool"
      },
      "enterStaking(uint256)": {
        "notice": "Stake the provided amount"
      },
      "freezeStaking(uint256,address,address)": {
        "notice": "freeze certain funds in the staking pool and transfer them to the live wallet address"
      },
      "indexesLength()": {
        "notice": "returns the total count of users in the staking pool."
      },
      "leaveStaking(uint256,bool)": {
        "notice": "Leaves staking for a user by the specified amount and transfering staked amount and reward to users address"
      },
      "pendingReward(address)": {
        "notice": "Get pending rewards of a user"
      },
      "setAutoCompoundLimit(uint256)": {
        "notice": "Store `_limit`."
      },
      "setBankroll(address)": {
        "notice": "Store `_bankroll`."
      },
      "setEarlyWithdrawFee(uint256)": {
        "notice": "Store `_fee`."
      },
      "setEarlyWithdrawFeeTime(uint256)": {
        "notice": "Store `_time`."
      },
      "setLiveWallet(address)": {
        "notice": "Store `_liveWallet`."
      },
      "setPerformanceFeeBurn(uint256)": {
        "notice": "Store `_fee`."
      },
      "setPerformanceFeeCompounder(uint256)": {
        "notice": "Store `_fee`."
      },
      "setPerformanceFeeReserve(uint256)": {
        "notice": "Store `_fee`."
      },
      "totalPendingRewards()": {
        "notice": "Calculates total potential pending rewards"
      },
      "unfreezeStaking(uint256)": {
        "notice": "unfreeze previously frozen funds from the staking pool"
      }
    }
  }
}