{
  "contractName": "BitcrushStaking",
  "abi": [
    {
      "inputs": [
        {
          "internalType": "contract CRUSHToken",
          "name": "_crush",
          "type": "address"
        },
        {
          "internalType": "uint256",
          "name": "_crushPerBlock",
          "type": "uint256"
        },
        {
          "internalType": "address",
          "name": "_reserveAddress",
          "type": "address"
        }
      ],
      "stateMutability": "nonpayable",
      "type": "constructor"
    },
    {
      "anonymous": false,
      "inputs": [],
      "name": "CompoundAll",
      "type": "event"
    },
    {
      "anonymous": false,
      "inputs": [
        {
          "indexed": true,
          "internalType": "address",
          "name": "previousOwner",
          "type": "address"
        },
        {
          "indexed": true,
          "internalType": "address",
          "name": "newOwner",
          "type": "address"
        }
      ],
      "name": "OwnershipTransferred",
      "type": "event"
    },
    {
      "anonymous": false,
      "inputs": [
        {
          "indexed": false,
          "internalType": "uint256",
          "name": "_totalPool",
          "type": "uint256"
        }
      ],
      "name": "RewardPoolUpdated",
      "type": "event"
    },
    {
      "inputs": [],
      "name": "EarlyWithdrawFee",
      "outputs": [
        {
          "internalType": "uint256",
          "name": "",
          "type": "uint256"
        }
      ],
      "stateMutability": "view",
      "type": "function"
    },
    {
      "inputs": [],
      "name": "PerformanceFeeBurn",
      "outputs": [
        {
          "internalType": "uint256",
          "name": "",
          "type": "uint256"
        }
      ],
      "stateMutability": "view",
      "type": "function"
    },
    {
      "inputs": [],
      "name": "PerformanceFeeCompounder",
      "outputs": [
        {
          "internalType": "uint256",
          "name": "",
          "type": "uint256"
        }
      ],
      "stateMutability": "view",
      "type": "function"
    },
    {
      "inputs": [],
      "name": "PerformanceFeeReserve",
      "outputs": [
        {
          "internalType": "uint256",
          "name": "",
          "type": "uint256"
        }
      ],
      "stateMutability": "view",
      "type": "function"
    },
    {
      "inputs": [
        {
          "internalType": "uint256",
          "name": "",
          "type": "uint256"
        }
      ],
      "name": "addressIndexes",
      "outputs": [
        {
          "internalType": "address",
          "name": "",
          "type": "address"
        }
      ],
      "stateMutability": "view",
      "type": "function"
    },
    {
      "inputs": [],
      "name": "crushPerBlock",
      "outputs": [
        {
          "internalType": "uint256",
          "name": "",
          "type": "uint256"
        }
      ],
      "stateMutability": "view",
      "type": "function"
    },
    {
      "inputs": [],
      "name": "lastAutoCompoundBlock",
      "outputs": [
        {
          "internalType": "uint256",
          "name": "",
          "type": "uint256"
        }
      ],
      "stateMutability": "view",
      "type": "function"
    },
    {
      "inputs": [],
      "name": "owner",
      "outputs": [
        {
          "internalType": "address",
          "name": "",
          "type": "address"
        }
      ],
      "stateMutability": "view",
      "type": "function"
    },
    {
      "inputs": [],
      "name": "renounceOwnership",
      "outputs": [],
      "stateMutability": "nonpayable",
      "type": "function"
    },
    {
      "inputs": [],
      "name": "reserveAddress",
      "outputs": [
        {
          "internalType": "address",
          "name": "",
          "type": "address"
        }
      ],
      "stateMutability": "view",
      "type": "function"
    },
    {
      "inputs": [
        {
          "internalType": "address",
          "name": "",
          "type": "address"
        }
      ],
      "name": "stakings",
      "outputs": [
        {
          "internalType": "uint256",
          "name": "stakedAmount",
          "type": "uint256"
        },
        {
          "internalType": "uint256",
          "name": "claimedAmount",
          "type": "uint256"
        },
        {
          "internalType": "uint256",
          "name": "compoundedAmount",
          "type": "uint256"
        },
        {
          "internalType": "uint256",
          "name": "lastBlockCompounded",
          "type": "uint256"
        },
        {
          "internalType": "uint256",
          "name": "lastBlockStaked",
          "type": "uint256"
        },
        {
          "internalType": "uint256",
          "name": "index",
          "type": "uint256"
        }
      ],
      "stateMutability": "view",
      "type": "function"
    },
    {
      "inputs": [],
      "name": "totalClaimed",
      "outputs": [
        {
          "internalType": "uint256",
          "name": "",
          "type": "uint256"
        }
      ],
      "stateMutability": "view",
      "type": "function"
    },
    {
      "inputs": [],
      "name": "totalCompound",
      "outputs": [
        {
          "internalType": "uint256",
          "name": "",
          "type": "uint256"
        }
      ],
      "stateMutability": "view",
      "type": "function"
    },
    {
      "inputs": [],
      "name": "totalPool",
      "outputs": [
        {
          "internalType": "uint256",
          "name": "",
          "type": "uint256"
        }
      ],
      "stateMutability": "view",
      "type": "function"
    },
    {
      "inputs": [],
      "name": "totalStaked",
      "outputs": [
        {
          "internalType": "uint256",
          "name": "",
          "type": "uint256"
        }
      ],
      "stateMutability": "view",
      "type": "function"
    },
    {
      "inputs": [
        {
          "internalType": "address",
          "name": "newOwner",
          "type": "address"
        }
      ],
      "name": "transferOwnership",
      "outputs": [],
      "stateMutability": "nonpayable",
      "type": "function"
    },
    {
      "inputs": [
        {
          "internalType": "uint256",
          "name": "_amount",
          "type": "uint256"
        }
      ],
      "name": "addRewardToPool",
      "outputs": [],
      "stateMutability": "nonpayable",
      "type": "function"
    },
    {
      "inputs": [
        {
          "internalType": "uint256",
          "name": "_amount",
          "type": "uint256"
        }
      ],
      "name": "setCrushPerBlock",
      "outputs": [],
      "stateMutability": "nonpayable",
      "type": "function"
    },
    {
      "inputs": [
        {
          "internalType": "uint256",
          "name": "_amount",
          "type": "uint256"
        }
      ],
      "name": "enterStaking",
      "outputs": [],
      "stateMutability": "nonpayable",
      "type": "function"
    },
    {
      "inputs": [
        {
          "internalType": "uint256",
          "name": "_amount",
          "type": "uint256"
        }
      ],
      "name": "leaveStaking",
      "outputs": [],
      "stateMutability": "nonpayable",
      "type": "function"
    },
    {
      "inputs": [],
      "name": "totalPendingRewards",
      "outputs": [
        {
          "internalType": "uint256",
          "name": "",
          "type": "uint256"
        }
      ],
      "stateMutability": "view",
      "type": "function"
    },
    {
      "inputs": [
        {
          "internalType": "address",
          "name": "_address",
          "type": "address"
        }
      ],
      "name": "pendingReward",
      "outputs": [
        {
          "internalType": "uint256",
          "name": "",
          "type": "uint256"
        }
      ],
      "stateMutability": "view",
      "type": "function"
    },
    {
      "inputs": [],
      "name": "claim",
      "outputs": [],
      "stateMutability": "nonpayable",
      "type": "function"
    },
    {
      "inputs": [],
      "name": "singleCompound",
      "outputs": [],
      "stateMutability": "nonpayable",
      "type": "function"
    },
    {
      "inputs": [],
      "name": "compoundAll",
      "outputs": [],
      "stateMutability": "nonpayable",
      "type": "function"
    }
  ],
  "bytecode": "0x60806040523480156200001157600080fd5b5060405162002e6a38038062002e6a833981810160405260608110156200003757600080fd5b8101908080519060200190929190805190602001909291908051906020019092919050505060006200006e620001a560201b60201c565b9050806000806101000a81548173ffffffffffffffffffffffffffffffffffffffff021916908373ffffffffffffffffffffffffffffffffffffffff1602179055508073ffffffffffffffffffffffffffffffffffffffff16600073ffffffffffffffffffffffffffffffffffffffff167f8be0079c531659141344cd1fd0a4f28419497f9722a3daafe3b4186f6b6457e060405160405180910390a35082600160006101000a81548173ffffffffffffffffffffffffffffffffffffffff021916908373ffffffffffffffffffffffffffffffffffffffff1602179055508160068190555080600760006101000a81548173ffffffffffffffffffffffffffffffffffffffff021916908373ffffffffffffffffffffffffffffffffffffffff16021790555043600581905550505050620001ad565b600033905090565b612cad80620001bd6000396000f3fe608060405234801561001057600080fd5b50600436106101735760003560e01c80638da5cb5b116100de578063d54ad2a111610097578063ecfb49a311610071578063ecfb49a3146104b7578063f2fde38b146104d5578063f40f0f5214610519578063f79ed94b1461057157610173565b8063d54ad2a114610400578063dc6e13e11461041e578063ec1371f21461049957610173565b80638da5cb5b146103245780639b05ddb31461036e5780639d7fe12514610378578063a775573a14610396578063b4cd9418146103c4578063c61f1c0b146103e257610173565b8063555db7d611610130578063555db7d6146102485780635692f138146102665780635832d57114610270578063715018a6146102de5780637db07c9d146102e8578063817b1cd21461030657610173565b806301a4bb45146101785780631058d281146101965780633a53ed49146101c457806341441d3b146101f25780634bf211b8146102205780634e71d92d1461023e575b600080fd5b6101806105bb565b6040518082815260200191505060405180910390f35b6101c2600480360360208110156101ac57600080fd5b81019080803590602001909291905050506105c0565b005b6101f0600480360360208110156101da57600080fd5b8101908080359060200190929190505050610e6a565b005b61021e6004803603602081101561020857600080fd5b81019080803590602001909291905050506110fb565b005b6102286115f3565b6040518082815260200191505060405180910390f35b6102466115f9565b005b6102506119d7565b6040518082815260200191505060405180910390f35b61026e6119dc565b005b61029c6004803603602081101561028657600080fd5b8101908080359060200190929190505050611aec565b604051808273ffffffffffffffffffffffffffffffffffffffff1673ffffffffffffffffffffffffffffffffffffffff16815260200191505060405180910390f35b6102e6611b28565b005b6102f0611cb0565b6040518082815260200191505060405180910390f35b61030e611cb6565b6040518082815260200191505060405180910390f35b61032c611cbc565b604051808273ffffffffffffffffffffffffffffffffffffffff1673ffffffffffffffffffffffffffffffffffffffff16815260200191505060405180910390f35b610376611ce5565b005b61038061230a565b6040518082815260200191505060405180910390f35b6103c2600480360360208110156103ac57600080fd5b810190808035906020019092919050505061230f565b005b6103cc61243c565b6040518082815260200191505060405180910390f35b6103ea612441565b6040518082815260200191505060405180910390f35b610408612447565b6040518082815260200191505060405180910390f35b6104606004803603602081101561043457600080fd5b81019080803573ffffffffffffffffffffffffffffffffffffffff16906020019092919050505061244d565b60405180878152602001868152602001858152602001848152602001838152602001828152602001965050505050505060405180910390f35b6104a1612489565b6040518082815260200191505060405180910390f35b6104bf6124c4565b6040518082815260200191505060405180910390f35b610517600480360360208110156104eb57600080fd5b81019080803573ffffffffffffffffffffffffffffffffffffffff1690602001909291905050506124ca565b005b61055b6004803603602081101561052f57600080fd5b81019080803573ffffffffffffffffffffffffffffffffffffffff16906020019092919050505061259f565b6040518082815260200191505060405180910390f35b6105796125b1565b604051808273ffffffffffffffffffffffffffffffffffffffff1673ffffffffffffffffffffffffffffffffffffffff16815260200191505060405180910390f35b600181565b80600260003373ffffffffffffffffffffffffffffffffffffffff1673ffffffffffffffffffffffffffffffffffffffff16815260200190815260200160002060000154101561065b576040517f08c379a0000000000000000000000000000000000000000000000000000000008152600401808060200182810382526035815260200180612c436035913960400191505060405180910390fd5b6000610666336125d7565b905080600260003373ffffffffffffffffffffffffffffffffffffffff1673ffffffffffffffffffffffffffffffffffffffff1681526020019081526020016000206002016000828254019250508190555043600260003373ffffffffffffffffffffffffffffffffffffffff1673ffffffffffffffffffffffffffffffffffffffff168152602001908152602001600020600301819055506000809050610717838261271690919063ffffffff16565b905061076e600260003373ffffffffffffffffffffffffffffffffffffffff1673ffffffffffffffffffffffffffffffffffffffff168152602001908152602001600020600201548261271690919063ffffffff16565b90506107858160045461279e90919063ffffffff16565b6004819055506107a08160085461279e90919063ffffffff16565b6008819055506107fd600260003373ffffffffffffffffffffffffffffffffffffffff1673ffffffffffffffffffffffffffffffffffffffff1681526020019081526020016000206002015460095461279e90919063ffffffff16565b600981905550600260003373ffffffffffffffffffffffffffffffffffffffff1673ffffffffffffffffffffffffffffffffffffffff16815260200190815260200160002060020154600260003373ffffffffffffffffffffffffffffffffffffffff1673ffffffffffffffffffffffffffffffffffffffff1681526020019081526020016000206001016000828254019250508190555062015180600260003373ffffffffffffffffffffffffffffffffffffffff1673ffffffffffffffffffffffffffffffffffffffff1681526020019081526020016000206004015401431115610a6257600061090e6108ff6103e860056127e890919063ffffffff16565b8361283290919063ffffffff16565b9050610923818361279e90919063ffffffff16565b9150600160009054906101000a900473ffffffffffffffffffffffffffffffffffffffff1673ffffffffffffffffffffffffffffffffffffffff166323b872dd30600760009054906101000a900473ffffffffffffffffffffffffffffffffffffffff16846040518463ffffffff1660e01b8152600401808473ffffffffffffffffffffffffffffffffffffffff1673ffffffffffffffffffffffffffffffffffffffff1681526020018373ffffffffffffffffffffffffffffffffffffffff1673ffffffffffffffffffffffffffffffffffffffff1681526020018281526020019350505050602060405180830381600087803b158015610a2457600080fd5b505af1158015610a38573d6000803e3d6000fd5b505050506040513d6020811015610a4e57600080fd5b810190808051906020019092919050505050505b600160009054906101000a900473ffffffffffffffffffffffffffffffffffffffff1673ffffffffffffffffffffffffffffffffffffffff166323b872dd3033846040518463ffffffff1660e01b8152600401808473ffffffffffffffffffffffffffffffffffffffff1673ffffffffffffffffffffffffffffffffffffffff1681526020018373ffffffffffffffffffffffffffffffffffffffff1673ffffffffffffffffffffffffffffffffffffffff1681526020018281526020019350505050602060405180830381600087803b158015610b3f57600080fd5b505af1158015610b53573d6000803e3d6000fd5b505050506040513d6020811015610b6957600080fd5b810190808051906020019092919050505050610bd083600260003373ffffffffffffffffffffffffffffffffffffffff1673ffffffffffffffffffffffffffffffffffffffff1681526020019081526020016000206000015461279e90919063ffffffff16565b600260003373ffffffffffffffffffffffffffffffffffffffff1673ffffffffffffffffffffffffffffffffffffffff168152602001908152602001600020600001819055506000600260003373ffffffffffffffffffffffffffffffffffffffff1673ffffffffffffffffffffffffffffffffffffffff168152602001908152602001600020600201819055506000600260003373ffffffffffffffffffffffffffffffffffffffff1673ffffffffffffffffffffffffffffffffffffffff168152602001908152602001600020600001541415610e2c576000600260003373ffffffffffffffffffffffffffffffffffffffff1673ffffffffffffffffffffffffffffffffffffffff1681526020019081526020016000209050600160038054905003816005015414610dea576000600360016003805490500381548110610d1657fe5b9060005260206000200160009054906101000a900473ffffffffffffffffffffffffffffffffffffffff169050806003836005015481548110610d5557fe5b9060005260206000200160006101000a81548173ffffffffffffffffffffffffffffffffffffffff021916908373ffffffffffffffffffffffffffffffffffffffff1602179055508160050154600260008373ffffffffffffffffffffffffffffffffffffffff1673ffffffffffffffffffffffffffffffffffffffff16815260200190815260200160002060050181905550505b6003805480610df557fe5b6001900381819060005260206000200160006101000a81549073ffffffffffffffffffffffffffffffffffffffff02191690559055505b7f1ef37ab665f7c977b577275d7a49e72cd18d1143eccd1112f1198e4a39d1428c6004546040518082815260200191505060405180910390a1505050565b80600160009054906101000a900473ffffffffffffffffffffffffffffffffffffffff1673ffffffffffffffffffffffffffffffffffffffff166370a08231336040518263ffffffff1660e01b8152600401808273ffffffffffffffffffffffffffffffffffffffff1673ffffffffffffffffffffffffffffffffffffffff16815260200191505060206040518083038186803b158015610f0a57600080fd5b505afa158015610f1e573d6000803e3d6000fd5b505050506040513d6020811015610f3457600080fd5b810190808051906020019092919050505011610f9b576040517f08c379a0000000000000000000000000000000000000000000000000000000008152600401808060200182810382526026815260200180612c1d6026913960400191505060405180910390fd5b8060045401600481905550600160009054906101000a900473ffffffffffffffffffffffffffffffffffffffff1673ffffffffffffffffffffffffffffffffffffffff166323b872dd3330846040518463ffffffff1660e01b8152600401808473ffffffffffffffffffffffffffffffffffffffff1673ffffffffffffffffffffffffffffffffffffffff1681526020018373ffffffffffffffffffffffffffffffffffffffff1673ffffffffffffffffffffffffffffffffffffffff1681526020018281526020019350505050602060405180830381600087803b15801561108357600080fd5b505af1158015611097573d6000803e3d6000fd5b505050506040513d60208110156110ad57600080fd5b8101908080519060200190929190505050507f1ef37ab665f7c977b577275d7a49e72cd18d1143eccd1112f1198e4a39d1428c6004546040518082815260200191505060405180910390a150565b80600160009054906101000a900473ffffffffffffffffffffffffffffffffffffffff1673ffffffffffffffffffffffffffffffffffffffff166370a08231336040518263ffffffff1660e01b8152600401808273ffffffffffffffffffffffffffffffffffffffff1673ffffffffffffffffffffffffffffffffffffffff16815260200191505060206040518083038186803b15801561119b57600080fd5b505afa1580156111af573d6000803e3d6000fd5b505050506040513d60208110156111c557600080fd5b81019080805190602001909291905050501161122c576040517f08c379a0000000000000000000000000000000000000000000000000000000008152600401808060200182810382526026815260200180612c1d6026913960400191505060405180910390fd5b6000600454116112a4576040517f08c379a00000000000000000000000000000000000000000000000000000000081526004018080602001828103825260158152602001807f52657761726420506f6f6c20457868617573746564000000000000000000000081525060200191505060405180910390fd5b600160009054906101000a900473ffffffffffffffffffffffffffffffffffffffff1673ffffffffffffffffffffffffffffffffffffffff166323b872dd3330846040518463ffffffff1660e01b8152600401808473ffffffffffffffffffffffffffffffffffffffff1673ffffffffffffffffffffffffffffffffffffffff1681526020018373ffffffffffffffffffffffffffffffffffffffff1673ffffffffffffffffffffffffffffffffffffffff1681526020018281526020019350505050602060405180830381600087803b15801561138157600080fd5b505af1158015611395573d6000803e3d6000fd5b505050506040513d60208110156113ab57600080fd5b8101908080519060200190929190505050506000600260003373ffffffffffffffffffffffffffffffffffffffff1673ffffffffffffffffffffffffffffffffffffffff1681526020019081526020016000206000015414156115495743600260003373ffffffffffffffffffffffffffffffffffffffff1673ffffffffffffffffffffffffffffffffffffffff1681526020019081526020016000206003018190555043600260003373ffffffffffffffffffffffffffffffffffffffff1673ffffffffffffffffffffffffffffffffffffffff168152602001908152602001600020600401819055506003339080600181540180825580915050600190039060005260206000200160009091909190916101000a81548173ffffffffffffffffffffffffffffffffffffffff021916908373ffffffffffffffffffffffffffffffffffffffff160217905550600160038054905003600260003373ffffffffffffffffffffffffffffffffffffffff1673ffffffffffffffffffffffffffffffffffffffff168152602001908152602001600020600501819055505b80600260003373ffffffffffffffffffffffffffffffffffffffff1673ffffffffffffffffffffffffffffffffffffffff1681526020019081526020016000206000016000828254019250508190555043600260003373ffffffffffffffffffffffffffffffffffffffff1673ffffffffffffffffffffffffffffffffffffffff168152602001908152602001600020600401819055508060086000828254019250508190555050565b60055481565b6000600260003373ffffffffffffffffffffffffffffffffffffffff1673ffffffffffffffffffffffffffffffffffffffff1681526020019081526020016000206002015411611694576040517f08c379a0000000000000000000000000000000000000000000000000000000008152600401808060200182810382526028815260200180612bf56028913960400191505060405180910390fd5b600260003373ffffffffffffffffffffffffffffffffffffffff1673ffffffffffffffffffffffffffffffffffffffff16815260200190815260200160002060020154600260003373ffffffffffffffffffffffffffffffffffffffff1673ffffffffffffffffffffffffffffffffffffffff16815260200190815260200160002060010160008282540192505081905550600160009054906101000a900473ffffffffffffffffffffffffffffffffffffffff1673ffffffffffffffffffffffffffffffffffffffff166323b872dd3033600260003373ffffffffffffffffffffffffffffffffffffffff1673ffffffffffffffffffffffffffffffffffffffff168152602001908152602001600020600201546040518463ffffffff1660e01b8152600401808473ffffffffffffffffffffffffffffffffffffffff1673ffffffffffffffffffffffffffffffffffffffff1681526020018373ffffffffffffffffffffffffffffffffffffffff1673ffffffffffffffffffffffffffffffffffffffff1681526020018281526020019350505050602060405180830381600087803b15801561184557600080fd5b505af1158015611859573d6000803e3d6000fd5b505050506040513d602081101561186f57600080fd5b8101908080519060200190929190505050506118d8600260003373ffffffffffffffffffffffffffffffffffffffff1673ffffffffffffffffffffffffffffffffffffffff1681526020019081526020016000206002015460085461279e90919063ffffffff16565b600881905550611935600260003373ffffffffffffffffffffffffffffffffffffffff1673ffffffffffffffffffffffffffffffffffffffff1681526020019081526020016000206002015460095461279e90919063ffffffff16565b600981905550600260003373ffffffffffffffffffffffffffffffffffffffff1673ffffffffffffffffffffffffffffffffffffffff16815260200190815260200160002060020154600a600082825401925050819055506000600260003373ffffffffffffffffffffffffffffffffffffffff1673ffffffffffffffffffffffffffffffffffffffff16815260200190815260200160002060020181905550565b601381565b60006119e7336125d7565b905080600260003373ffffffffffffffffffffffffffffffffffffffff1673ffffffffffffffffffffffffffffffffffffffff168152602001908152602001600020600201600082825401925050819055508060086000828254019250508190555043600260003373ffffffffffffffffffffffffffffffffffffffff1673ffffffffffffffffffffffffffffffffffffffff1681526020019081526020016000206003018190555080600860008282540192505081905550806009600082825401925050819055507f1ef37ab665f7c977b577275d7a49e72cd18d1143eccd1112f1198e4a39d1428c6004546040518082815260200191505060405180910390a150565b60038181548110611af957fe5b906000526020600020016000915054906101000a900473ffffffffffffffffffffffffffffffffffffffff1681565b611b306128b8565b73ffffffffffffffffffffffffffffffffffffffff166000809054906101000a900473ffffffffffffffffffffffffffffffffffffffff1673ffffffffffffffffffffffffffffffffffffffff1614611bf1576040517f08c379a00000000000000000000000000000000000000000000000000000000081526004018080602001828103825260208152602001807f4f776e61626c653a2063616c6c6572206973206e6f7420746865206f776e657281525060200191505060405180910390fd5b600073ffffffffffffffffffffffffffffffffffffffff166000809054906101000a900473ffffffffffffffffffffffffffffffffffffffff1673ffffffffffffffffffffffffffffffffffffffff167f8be0079c531659141344cd1fd0a4f28419497f9722a3daafe3b4186f6b6457e060405160405180910390a360008060006101000a81548173ffffffffffffffffffffffffffffffffffffffff021916908373ffffffffffffffffffffffffffffffffffffffff160217905550565b60095481565b60085481565b60008060009054906101000a900473ffffffffffffffffffffffffffffffffffffffff16905090565b600080905060008090506000809050600080905060008090505b600380549050811015611f9b576000611d4e60038381548110611d1e57fe5b9060005260206000200160009054906101000a900473ffffffffffffffffffffffffffffffffffffffff166125d7565b905080600860008282540192505081905550611d73818461271690919063ffffffff16565b9250806009600082825401925050819055506000611dae611d9f606460016127e890919063ffffffff16565b8361283290919063ffffffff16565b9050611dc3818861271690919063ffffffff16565b96506000611dee611ddf606460016127e890919063ffffffff16565b8461283290919063ffffffff16565b9050611e03818861271690919063ffffffff16565b96506000611e2f611e206103e860136127e890919063ffffffff16565b8561283290919063ffffffff16565b9050611e44818861271690919063ffffffff16565b9650611e59838561279e90919063ffffffff16565b9350611e6e828561279e90919063ffffffff16565b9350611e83818561279e90919063ffffffff16565b9350836002600060038881548110611e9757fe5b9060005260206000200160009054906101000a900473ffffffffffffffffffffffffffffffffffffffff1673ffffffffffffffffffffffffffffffffffffffff1673ffffffffffffffffffffffffffffffffffffffff16815260200190815260200160002060020160008282540192505081905550436002600060038881548110611f1e57fe5b9060005260206000200160009054906101000a900473ffffffffffffffffffffffffffffffffffffffff1673ffffffffffffffffffffffffffffffffffffffff1673ffffffffffffffffffffffffffffffffffffffff16815260200190815260200160002060030181905550505050508080600101915050611cff565b5043600581905550600160009054906101000a900473ffffffffffffffffffffffffffffffffffffffff1673ffffffffffffffffffffffffffffffffffffffff166342966c68856040518263ffffffff1660e01b815260040180828152602001915050600060405180830381600087803b15801561201857600080fd5b505af115801561202c573d6000803e3d6000fd5b50505050600160009054906101000a900473ffffffffffffffffffffffffffffffffffffffff1673ffffffffffffffffffffffffffffffffffffffff166323b872dd3033866040518463ffffffff1660e01b8152600401808473ffffffffffffffffffffffffffffffffffffffff1673ffffffffffffffffffffffffffffffffffffffff1681526020018373ffffffffffffffffffffffffffffffffffffffff1673ffffffffffffffffffffffffffffffffffffffff1681526020018281526020019350505050602060405180830381600087803b15801561210d57600080fd5b505af1158015612121573d6000803e3d6000fd5b505050506040513d602081101561213757600080fd5b810190808051906020019092919050505050600160009054906101000a900473ffffffffffffffffffffffffffffffffffffffff1673ffffffffffffffffffffffffffffffffffffffff166323b872dd30600760009054906101000a900473ffffffffffffffffffffffffffffffffffffffff16856040518463ffffffff1660e01b8152600401808473ffffffffffffffffffffffffffffffffffffffff1673ffffffffffffffffffffffffffffffffffffffff1681526020018373ffffffffffffffffffffffffffffffffffffffff1673ffffffffffffffffffffffffffffffffffffffff1681526020018281526020019350505050602060405180830381600087803b15801561224857600080fd5b505af115801561225c573d6000803e3d6000fd5b505050506040513d602081101561227257600080fd5b8101908080519060200190929190505050506122998160045461279e90919063ffffffff16565b6004819055507f698b3a0edc6b3c65b95358361ae6fc603b7bca78d8eb96dcc0b6bbeb937afb5960405160405180910390a17f1ef37ab665f7c977b577275d7a49e72cd18d1143eccd1112f1198e4a39d1428c6004546040518082815260200191505060405180910390a150505050565b600581565b6123176128b8565b73ffffffffffffffffffffffffffffffffffffffff166000809054906101000a900473ffffffffffffffffffffffffffffffffffffffff1673ffffffffffffffffffffffffffffffffffffffff16146123d8576040517f08c379a00000000000000000000000000000000000000000000000000000000081526004018080602001828103825260208152602001807f4f776e61626c653a2063616c6c6572206973206e6f7420746865206f776e657281525060200191505060405180910390fd5b6000811015612432576040517f08c379a0000000000000000000000000000000000000000000000000000000008152600401808060200182810382526023815260200180612bd26023913960400191505060405180910390fd5b8060068190555050565b600181565b60065481565b600a5481565b60026020528060005260406000206000915090508060000154908060010154908060020154908060030154908060040154908060050154905086565b6000806124a16005544361279e90919063ffffffff16565b905060006124ba6006548361283290919063ffffffff16565b9050809250505090565b60045481565b6124d26128b8565b73ffffffffffffffffffffffffffffffffffffffff166000809054906101000a900473ffffffffffffffffffffffffffffffffffffffff1673ffffffffffffffffffffffffffffffffffffffff1614612593576040517f08c379a00000000000000000000000000000000000000000000000000000000081526004018080602001828103825260208152602001807f4f776e61626c653a2063616c6c6572206973206e6f7420746865206f776e657281525060200191505060405180910390fd5b61259c816128c0565b50565b60006125aa826125d7565b9050919050565b600760009054906101000a900473ffffffffffffffffffffffffffffffffffffffff1681565b6000600260008373ffffffffffffffffffffffffffffffffffffffff1673ffffffffffffffffffffffffffffffffffffffff16815260200190815260200160002060030154431161262b5760009050612711565b6000612682600260008573ffffffffffffffffffffffffffffffffffffffff1673ffffffffffffffffffffffffffffffffffffffff168152602001908152602001600020600301544361279e90919063ffffffff16565b9050600061269b6006548361283290919063ffffffff16565b905060006127086126f9600454600260008973ffffffffffffffffffffffffffffffffffffffff1673ffffffffffffffffffffffffffffffffffffffff168152602001908152602001600020600001546127e890919063ffffffff16565b8361283290919063ffffffff16565b90508093505050505b919050565b600080828401905083811015612794576040517f08c379a000000000000000000000000000000000000000000000000000000000815260040180806020018281038252601b8152602001807f536166654d6174683a206164646974696f6e206f766572666c6f77000000000081525060200191505060405180910390fd5b8091505092915050565b60006127e083836040518060400160405280601e81526020017f536166654d6174683a207375627472616374696f6e206f766572666c6f770000815250612a04565b905092915050565b600061282a83836040518060400160405280601a81526020017f536166654d6174683a206469766973696f6e206279207a65726f000000000000815250612ac4565b905092915050565b60008083141561284557600090506128b2565b600082840290508284828161285657fe5b04146128ad576040517f08c379a0000000000000000000000000000000000000000000000000000000008152600401808060200182810382526021815260200180612bb16021913960400191505060405180910390fd5b809150505b92915050565b600033905090565b600073ffffffffffffffffffffffffffffffffffffffff168173ffffffffffffffffffffffffffffffffffffffff161415612946576040517f08c379a0000000000000000000000000000000000000000000000000000000008152600401808060200182810382526026815260200180612b8b6026913960400191505060405180910390fd5b8073ffffffffffffffffffffffffffffffffffffffff166000809054906101000a900473ffffffffffffffffffffffffffffffffffffffff1673ffffffffffffffffffffffffffffffffffffffff167f8be0079c531659141344cd1fd0a4f28419497f9722a3daafe3b4186f6b6457e060405160405180910390a3806000806101000a81548173ffffffffffffffffffffffffffffffffffffffff021916908373ffffffffffffffffffffffffffffffffffffffff16021790555050565b6000838311158290612ab1576040517f08c379a00000000000000000000000000000000000000000000000000000000081526004018080602001828103825283818151815260200191508051906020019080838360005b83811015612a76578082015181840152602081019050612a5b565b50505050905090810190601f168015612aa35780820380516001836020036101000a031916815260200191505b509250505060405180910390fd5b5060008385039050809150509392505050565b60008083118290612b70576040517f08c379a00000000000000000000000000000000000000000000000000000000081526004018080602001828103825283818151815260200191508051906020019080838360005b83811015612b35578082015181840152602081019050612b1a565b50505050905090810190601f168015612b625780820380516001836020036101000a031916815260200191505b509250505060405180910390fd5b506000838581612b7c57fe5b04905080915050939250505056fe4f776e61626c653a206e6577206f776e657220697320746865207a65726f2061646472657373536166654d6174683a206d756c7469706c69636174696f6e206f766572666c6f7743727573682070657220426c6f636b2063616e206e6f74206265206e65676174697665436f6d706f756e64656420416d6f756e74206d7573742062652067726561746572207468616e2030496e73756666696369656e7420437275736820746f6b656e7320666f72207472616e73666572576974686472617720616d6f756e742063616e206e6f742062652067726561746572207468616e207374616b656420616d6f756e74a26469706673582212209efc24c8c163b44d19873857da105c8a804bb4d3eb65cb57025220228868c07464736f6c63430006020033",
  "source": "//SPDX-License-Identifier: UNLICENSED\npragma solidity >=0.6.2;\n\nimport \"@pancakeswap/pancake-swap-lib/contracts/access/Ownable.sol\";\nimport \"./CrushCoin.sol\";\nimport \"@pancakeswap/pancake-swap-lib/contracts/math/SafeMath.sol\";\ncontract BitcrushStaking is Ownable {\n    using SafeMath for uint256;\n    \n    // Constants\n    uint256 constant public PerformanceFeeCompounder = 1;\n    uint256 constant public PerformanceFeeBurn       = 1;\n    uint256 constant DivisorA = 100;\n    \n    uint256 constant public EarlyWithdrawFee         = 5;\n    uint256 constant public PerformanceFeeReserve    = 19;\n    uint256 constant DivisorB = 1000;\n\n    uint256 constant EarlyWithdrawFeeTime = 72 * 60 * 60 / 3;\n    \n    CRUSHToken crush;\n\n    struct staked {\n        uint256 stakedAmount;\n        uint256 claimedAmount;\n        uint256 compoundedAmount;\n        uint256 lastBlockCompounded;\n        uint256 lastBlockStaked;\n        uint256 index;\n    }\n    mapping (address => staked) public stakings;\n    address[] public addressIndexes;\n\n    uint256 public totalPool;\n    uint256 public lastAutoCompoundBlock;\n    uint256 public crushPerBlock;\n    address public reserveAddress;\n\n    uint256 public totalStaked;\n    uint256 public totalCompound;\n    uint256 public totalClaimed;\n\n    event RewardPoolUpdated (uint256 _totalPool);\n    event CompoundAll ();\n\n    constructor (CRUSHToken _crush, uint256 _crushPerBlock, address _reserveAddress) public{\n        crush = _crush;\n        crushPerBlock = _crushPerBlock;\n        reserveAddress = _reserveAddress;\n        lastAutoCompoundBlock = block.number;\n    }\n\n    //Increases the CRUSH prize pool by receiving tokens\n    //Receive/Transfer the amount of CRUSH specified in _amount into itself from msg.sender\n    //Increase TotalPool\n    function addRewardToPool (uint256 _amount) public  {\n        require(crush.balanceOf(msg.sender) > _amount, \"Insufficient Crush tokens for transfer\");\n        totalPool = totalPool + _amount;\n        crush.transferFrom(msg.sender, address(this), _amount);\n        emit RewardPoolUpdated(totalPool);\n    }\n\n    //Edits CrushPerBlock to be equal to _amount\n    function setCrushPerBlock (uint256 _amount) public onlyOwner {\n        require(_amount >= 0, \"Crush per Block can not be negative\" );\n        crushPerBlock = _amount;\n    }\n\n\n    //Stake CRUSH in Contract\n    //Transfer CRUSH from msg.sender to Contract \n    //Add user to Staked Mapping, if user exists, update Staked amount\n    function enterStaking (uint256 _amount) public  {\n        require(crush.balanceOf(msg.sender) > _amount, \"Insufficient Crush tokens for transfer\");\n        require(totalPool > 0, \"Reward Pool Exhausted\");\n        \n        crush.transferFrom(msg.sender, address(this), _amount);\n        if(stakings[msg.sender].stakedAmount == 0){\n            stakings[msg.sender].lastBlockCompounded = block.number;\n            stakings[msg.sender].lastBlockStaked = block.number;\n            addressIndexes.push(msg.sender);\n            stakings[msg.sender].index = addressIndexes.length-1;\n        }\n        stakings[msg.sender].stakedAmount += _amount;\n        stakings[msg.sender].lastBlockStaked = block.number;\n        totalStaked += _amount;\n       \n    }\n\n    //Withdraw CRUSH from staking and claim rewards\n    //Decrease Staked Amount from Staked\n    //Transfer CRUSH from Contract to msg.sender, amount to be determined by \n    function leaveStaking (uint256 _amount) public  {\n        //check time\n        //impose penalty if time limit not met\n        //check amount is less than staked amount\n        //transfer reward and amount specified\n        require(stakings[msg.sender].stakedAmount >= _amount, \"Withdraw amount can not be greater than staked amount\");\n        uint256 reward = getReward(msg.sender);\n        stakings[msg.sender].compoundedAmount += reward;\n        stakings[msg.sender].lastBlockCompounded = block.number;\n        uint256 payout = 0;\n        payout = payout.add(_amount);\n        payout = payout.add(stakings[msg.sender].compoundedAmount);\n        totalPool = totalPool.sub(payout);\n        totalStaked = totalStaked.sub(payout);\n        totalCompound = totalCompound.sub(stakings[msg.sender].compoundedAmount);\n        stakings[msg.sender].claimedAmount += stakings[msg.sender].compoundedAmount;\n        if(block.number > stakings[msg.sender].lastBlockStaked + EarlyWithdrawFeeTime ){\n            //apply fee\n            uint256 withdrawalFee = payout.mul(EarlyWithdrawFee.div(DivisorB));\n            payout = payout.sub(withdrawalFee);\n            crush.transferFrom(address(this), reserveAddress, withdrawalFee);\n        }\n        crush.transferFrom(address(this), msg.sender, payout);\n        stakings[msg.sender].stakedAmount = stakings[msg.sender].stakedAmount.sub(_amount); \n        stakings[msg.sender].compoundedAmount = 0;\n\n        //remove from array\n        if(stakings[msg.sender].stakedAmount == 0){\n            staked storage staking = stakings[msg.sender];\n            if(staking.index != addressIndexes.length-1){\n                address lastAddress = addressIndexes[addressIndexes.length-1];\n                addressIndexes[staking.index] = lastAddress;\n                stakings[lastAddress].index = staking.index;\n            }\n            addressIndexes.pop();\n        }\n        emit RewardPoolUpdated(totalPool);\n    }\n\n\n    function getReward(address _address) internal view returns (uint256) {\n        if(block.number <=  stakings[_address].lastBlockCompounded){\n            return 0;\n        }else {\n            uint256 blocks = block.number.sub(stakings[_address].lastBlockCompounded);\n            uint256 totalReward = blocks.mul(crushPerBlock);\n            uint256 stakerReward = totalReward.mul(stakings[_address].stakedAmount.div(totalPool));\n            return stakerReward;\n        }\n    }\n\n    function totalPendingRewards () public view returns (uint256){\n            uint256 blocks = block.number.sub(lastAutoCompoundBlock);\n            uint256 totalReward = blocks.mul(crushPerBlock);\n            return totalReward;\n    }\n\n    function pendingReward (address _address) public view returns (uint256){\n        return getReward(_address);\n    }\n\n    //Send Rewards only to msg.sender\n    function claim () public  {\n        require(stakings[msg.sender].compoundedAmount > 0, \"Compounded Amount must be greater than 0\");\n        stakings[msg.sender].claimedAmount += stakings[msg.sender].compoundedAmount;\n        crush.transferFrom(address(this), msg.sender, stakings[msg.sender].compoundedAmount);\n        totalStaked = totalStaked.sub(stakings[msg.sender].compoundedAmount);\n        totalCompound = totalCompound.sub(stakings[msg.sender].compoundedAmount);\n        totalClaimed += stakings[msg.sender].compoundedAmount;\n        stakings[msg.sender].compoundedAmount = 0;\n        \n    }\n\n    //Update staked values on a single User.\n    function singleCompound () public  {\n        uint256 reward = getReward(msg.sender);\n        stakings[msg.sender].compoundedAmount += reward;\n        totalStaked += reward;\n        stakings[msg.sender].lastBlockCompounded = block.number;\n        totalStaked += reward;\n        totalCompound += reward;\n        emit RewardPoolUpdated(totalPool);\n    }\n\n    //Compound all of the rewards for all stakers\n    function compoundAll () public  {\n        uint256 crushToBurn = 0;\n        uint256 reward = 0;\n        uint256 performanceFee = 0;\n        uint256 totalReward = 0;\n        for(uint256 i=0; i < addressIndexes.length; i++){\n            uint256 stakerReward = getReward(addressIndexes[i]);\n            totalStaked += stakerReward;\n            totalReward = totalReward.add(stakerReward);\n            totalCompound += stakerReward;\n            uint256 stakerBurn = stakerReward.mul(PerformanceFeeBurn.div(DivisorA));\n            crushToBurn = crushToBurn.add(stakerBurn);\n            \n            uint256 cpAllReward = stakerReward.mul(PerformanceFeeCompounder.div(DivisorA));\n            reward = reward.add(cpAllReward);\n            \n            uint256 feeReserve = stakerReward.mul(PerformanceFeeReserve.div(DivisorB));\n            performanceFee = performanceFee.add(feeReserve);\n            \n\n            stakerReward = stakerReward.sub(stakerBurn);\n            stakerReward = stakerReward.sub(cpAllReward);\n            stakerReward = stakerReward.sub(feeReserve);\n            stakings[addressIndexes[i]].compoundedAmount += stakerReward;\n            stakings[addressIndexes[i]].lastBlockCompounded = block.number;\n        }\n        lastAutoCompoundBlock = block.number;\n        crush.burn(crushToBurn);\n        crush.transferFrom(address(this), msg.sender, reward);\n        crush.transferFrom(address(this), reserveAddress, performanceFee);\n        totalPool = totalPool.sub(totalReward);\n        emit CompoundAll();\n        emit RewardPoolUpdated(totalPool);\n    }\n\n\n    \n}",
  "sourcePath": "/Users/umerali/Desktop/FRAG/bitcrush/new staking contract/contracts/staking.sol",
  "compiler": {
    "name": "solc",
    "version": "0.6.2+commit.bacdbe57.Emscripten.clang"
  },
  "schemaVersion": "3.4.1",
  "updatedAt": "2021-06-21T12:15:24.845Z",
  "devdoc": {
    "methods": {
      "owner()": {
        "details": "Returns the address of the current owner."
      },
      "renounceOwnership()": {
        "details": "Leaves the contract without owner. It will not be possible to call `onlyOwner` functions anymore. Can only be called by the current owner.     * NOTE: Renouncing ownership will leave the contract without an owner, thereby removing any functionality that is only available to the owner."
      },
      "transferOwnership(address)": {
        "details": "Transfers ownership of the contract to a new account (`newOwner`). Can only be called by the current owner."
      }
    }
  },
  "userdoc": {
    "methods": {}
  }
}