{
  "contractName": "BitcrushStaking",
  "abi": [
    {
      "inputs": [
        {
          "internalType": "contract CRUSHToken",
          "name": "_crush",
          "type": "address"
        },
        {
          "internalType": "uint256",
          "name": "_crushPerBlock",
          "type": "uint256"
        },
        {
          "internalType": "address",
          "name": "_reserveAddress",
          "type": "address"
        }
      ],
      "stateMutability": "nonpayable",
      "type": "constructor"
    },
    {
      "anonymous": false,
      "inputs": [],
      "name": "CompoundAll",
      "type": "event"
    },
    {
      "anonymous": false,
      "inputs": [
        {
          "indexed": true,
          "internalType": "address",
          "name": "previousOwner",
          "type": "address"
        },
        {
          "indexed": true,
          "internalType": "address",
          "name": "newOwner",
          "type": "address"
        }
      ],
      "name": "OwnershipTransferred",
      "type": "event"
    },
    {
      "anonymous": false,
      "inputs": [
        {
          "indexed": false,
          "internalType": "uint256",
          "name": "_totalPool",
          "type": "uint256"
        }
      ],
      "name": "RewardPoolUpdated",
      "type": "event"
    },
    {
      "inputs": [],
      "name": "Divisor",
      "outputs": [
        {
          "internalType": "uint256",
          "name": "",
          "type": "uint256"
        }
      ],
      "stateMutability": "view",
      "type": "function",
      "constant": true
    },
    {
      "inputs": [],
      "name": "EarlyWithdrawFee",
      "outputs": [
        {
          "internalType": "uint256",
          "name": "",
          "type": "uint256"
        }
      ],
      "stateMutability": "view",
      "type": "function",
      "constant": true
    },
    {
      "inputs": [],
      "name": "EarlyWithdrawFeeTime",
      "outputs": [
        {
          "internalType": "uint256",
          "name": "",
          "type": "uint256"
        }
      ],
      "stateMutability": "view",
      "type": "function",
      "constant": true
    },
    {
      "inputs": [],
      "name": "PerformanceFeeBurn",
      "outputs": [
        {
          "internalType": "uint256",
          "name": "",
          "type": "uint256"
        }
      ],
      "stateMutability": "view",
      "type": "function",
      "constant": true
    },
    {
      "inputs": [],
      "name": "PerformanceFeeCompounder",
      "outputs": [
        {
          "internalType": "uint256",
          "name": "",
          "type": "uint256"
        }
      ],
      "stateMutability": "view",
      "type": "function",
      "constant": true
    },
    {
      "inputs": [],
      "name": "PerformanceFeeReserve",
      "outputs": [
        {
          "internalType": "uint256",
          "name": "",
          "type": "uint256"
        }
      ],
      "stateMutability": "view",
      "type": "function",
      "constant": true
    },
    {
      "inputs": [
        {
          "internalType": "uint256",
          "name": "",
          "type": "uint256"
        }
      ],
      "name": "addressIndexes",
      "outputs": [
        {
          "internalType": "address",
          "name": "",
          "type": "address"
        }
      ],
      "stateMutability": "view",
      "type": "function",
      "constant": true
    },
    {
      "inputs": [],
      "name": "crushPerBlock",
      "outputs": [
        {
          "internalType": "uint256",
          "name": "",
          "type": "uint256"
        }
      ],
      "stateMutability": "view",
      "type": "function",
      "constant": true
    },
    {
      "inputs": [],
      "name": "lastAutoCompoundBlock",
      "outputs": [
        {
          "internalType": "uint256",
          "name": "",
          "type": "uint256"
        }
      ],
      "stateMutability": "view",
      "type": "function",
      "constant": true
    },
    {
      "inputs": [],
      "name": "owner",
      "outputs": [
        {
          "internalType": "address",
          "name": "",
          "type": "address"
        }
      ],
      "stateMutability": "view",
      "type": "function",
      "constant": true
    },
    {
      "inputs": [],
      "name": "renounceOwnership",
      "outputs": [],
      "stateMutability": "nonpayable",
      "type": "function"
    },
    {
      "inputs": [],
      "name": "reserveAddress",
      "outputs": [
        {
          "internalType": "address",
          "name": "",
          "type": "address"
        }
      ],
      "stateMutability": "view",
      "type": "function",
      "constant": true
    },
    {
      "inputs": [
        {
          "internalType": "address",
          "name": "",
          "type": "address"
        }
      ],
      "name": "stakings",
      "outputs": [
        {
          "internalType": "uint256",
          "name": "stakedAmount",
          "type": "uint256"
        },
        {
          "internalType": "uint256",
          "name": "claimedAmount",
          "type": "uint256"
        },
        {
          "internalType": "uint256",
          "name": "compoundedAmount",
          "type": "uint256"
        },
        {
          "internalType": "uint256",
          "name": "lastBlockCompounded",
          "type": "uint256"
        },
        {
          "internalType": "uint256",
          "name": "lastBlockStaked",
          "type": "uint256"
        },
        {
          "internalType": "uint256",
          "name": "index",
          "type": "uint256"
        }
      ],
      "stateMutability": "view",
      "type": "function",
      "constant": true
    },
    {
      "inputs": [],
      "name": "totalClaimed",
      "outputs": [
        {
          "internalType": "uint256",
          "name": "",
          "type": "uint256"
        }
      ],
      "stateMutability": "view",
      "type": "function",
      "constant": true
    },
    {
      "inputs": [],
      "name": "totalCompound",
      "outputs": [
        {
          "internalType": "uint256",
          "name": "",
          "type": "uint256"
        }
      ],
      "stateMutability": "view",
      "type": "function",
      "constant": true
    },
    {
      "inputs": [],
      "name": "totalPool",
      "outputs": [
        {
          "internalType": "uint256",
          "name": "",
          "type": "uint256"
        }
      ],
      "stateMutability": "view",
      "type": "function",
      "constant": true
    },
    {
      "inputs": [],
      "name": "totalStaked",
      "outputs": [
        {
          "internalType": "uint256",
          "name": "",
          "type": "uint256"
        }
      ],
      "stateMutability": "view",
      "type": "function",
      "constant": true
    },
    {
      "inputs": [
        {
          "internalType": "address",
          "name": "newOwner",
          "type": "address"
        }
      ],
      "name": "transferOwnership",
      "outputs": [],
      "stateMutability": "nonpayable",
      "type": "function"
    },
    {
      "inputs": [
        {
          "internalType": "uint256",
          "name": "_amount",
          "type": "uint256"
        }
      ],
      "name": "addRewardToPool",
      "outputs": [],
      "stateMutability": "nonpayable",
      "type": "function"
    },
    {
      "inputs": [
        {
          "internalType": "uint256",
          "name": "_amount",
          "type": "uint256"
        }
      ],
      "name": "setCrushPerBlock",
      "outputs": [],
      "stateMutability": "nonpayable",
      "type": "function"
    },
    {
      "inputs": [
        {
          "internalType": "uint256",
          "name": "_amount",
          "type": "uint256"
        }
      ],
      "name": "enterStaking",
      "outputs": [],
      "stateMutability": "nonpayable",
      "type": "function"
    },
    {
      "inputs": [
        {
          "internalType": "uint256",
          "name": "_amount",
          "type": "uint256"
        }
      ],
      "name": "leaveStaking",
      "outputs": [],
      "stateMutability": "nonpayable",
      "type": "function"
    },
    {
      "inputs": [],
      "name": "totalPendingRewards",
      "outputs": [
        {
          "internalType": "uint256",
          "name": "",
          "type": "uint256"
        }
      ],
      "stateMutability": "view",
      "type": "function",
      "constant": true
    },
    {
      "inputs": [
        {
          "internalType": "address",
          "name": "_address",
          "type": "address"
        }
      ],
      "name": "pendingReward",
      "outputs": [
        {
          "internalType": "uint256",
          "name": "",
          "type": "uint256"
        }
      ],
      "stateMutability": "view",
      "type": "function",
      "constant": true
    },
    {
      "inputs": [],
      "name": "claim",
      "outputs": [],
      "stateMutability": "nonpayable",
      "type": "function"
    },
    {
      "inputs": [],
      "name": "singleCompound",
      "outputs": [],
      "stateMutability": "nonpayable",
      "type": "function"
    },
    {
      "inputs": [],
      "name": "compoundAll",
      "outputs": [],
      "stateMutability": "nonpayable",
      "type": "function"
    },
    {
      "inputs": [],
      "name": "emergencyWithdraw",
      "outputs": [],
      "stateMutability": "nonpayable",
      "type": "function"
    },
    {
      "inputs": [],
      "name": "emergencyTotalPoolWithdraw",
      "outputs": [],
      "stateMutability": "nonpayable",
      "type": "function"
    },
    {
      "inputs": [
        {
          "internalType": "uint256",
          "name": "_fee",
          "type": "uint256"
        }
      ],
      "name": "setPerformanceFeeCompounder",
      "outputs": [],
      "stateMutability": "nonpayable",
      "type": "function"
    },
    {
      "inputs": [
        {
          "internalType": "uint256",
          "name": "_fee",
          "type": "uint256"
        }
      ],
      "name": "setPerformanceFeeBurn",
      "outputs": [],
      "stateMutability": "nonpayable",
      "type": "function"
    },
    {
      "inputs": [
        {
          "internalType": "uint256",
          "name": "_fee",
          "type": "uint256"
        }
      ],
      "name": "setEarlyWithdrawFee",
      "outputs": [],
      "stateMutability": "nonpayable",
      "type": "function"
    },
    {
      "inputs": [
        {
          "internalType": "uint256",
          "name": "_fee",
          "type": "uint256"
        }
      ],
      "name": "setPerformanceFeeReserve",
      "outputs": [],
      "stateMutability": "nonpayable",
      "type": "function"
    },
    {
      "inputs": [
        {
          "internalType": "uint256",
          "name": "_time",
          "type": "uint256"
        }
      ],
      "name": "setEarlyWithdrawFeeTime",
      "outputs": [],
      "stateMutability": "nonpayable",
      "type": "function"
    },
    {
      "inputs": [
        {
          "internalType": "uint256",
          "name": "_divisor",
          "type": "uint256"
        }
      ],
      "name": "setFeeDivisor",
      "outputs": [],
      "stateMutability": "nonpayable",
      "type": "function"
    }
  ],
  "bytecode": "0x608060405260646001556064600255612710600355603260045560be600555620151806006553480156200003257600080fd5b50604051620042e3380380620042e3833981810160405260608110156200005857600080fd5b8101908080519060200190929190805190602001909291908051906020019092919050505060006200008f620001c660201b60201c565b9050806000806101000a81548173ffffffffffffffffffffffffffffffffffffffff021916908373ffffffffffffffffffffffffffffffffffffffff1602179055508073ffffffffffffffffffffffffffffffffffffffff16600073ffffffffffffffffffffffffffffffffffffffff167f8be0079c531659141344cd1fd0a4f28419497f9722a3daafe3b4186f6b6457e060405160405180910390a35082600760006101000a81548173ffffffffffffffffffffffffffffffffffffffff021916908373ffffffffffffffffffffffffffffffffffffffff16021790555081600c8190555080600d60006101000a81548173ffffffffffffffffffffffffffffffffffffffff021916908373ffffffffffffffffffffffffffffffffffffffff16021790555043600b81905550505050620001ce565b600033905090565b61410580620001de6000396000f3fe608060405234801561001057600080fd5b50600436106102115760003560e01c80639b05ddb311610125578063d54ad2a1116100ad578063ecfb49a31161007c578063ecfb49a31461069b578063f2fde38b146106b9578063f3754e1f146106fd578063f40f0f521461071b578063f79ed94b1461077357610211565b8063d54ad2a1146105da578063db2e21bc146105f8578063dc6e13e114610602578063ec1371f21461067d57610211565b8063b4cd9418116100f4578063b4cd941814610538578063c22982f414610556578063c53f871f14610584578063c61f1c0b146105b2578063d180fd88146105d057610211565b80639b05ddb3146104c45780639d7fe125146104ce578063a775573a146104ec578063b01e70d71461051a57610211565b8063555db7d6116101a85780636f90e046116101775780636f90e04614610406578063715018a6146104345780637db07c9d1461043e578063817b1cd21461045c5780638da5cb5b1461047a57610211565b8063555db7d6146103425780635692f138146103605780635832d5711461036a5780636535fc66146103d857610211565b80633a53ed49116101e45780633a53ed49146102be57806341441d3b146102ec5780634bf211b81461031a5780634e71d92d1461033857610211565b806301a4bb4514610216578063043531b1146102345780631058d2811461026257806326cba33614610290575b600080fd5b61021e6107bd565b6040518082815260200191505060405180910390f35b6102606004803603602081101561024a57600080fd5b81019080803590602001909291905050506107c3565b005b61028e6004803603602081101561027857600080fd5b810190808035906020019092919050505061090c565b005b6102bc600480360360208110156102a657600080fd5b810190808035906020019092919050505061153c565b005b6102ea600480360360208110156102d457600080fd5b8101908080359060200190929190505050611685565b005b6103186004803603602081101561030257600080fd5b8101908080359060200190929190505050611916565b005b610322611dc7565b6040518082815260200191505060405180910390f35b610340611dcd565b005b61034a6121c6565b6040518082815260200191505060405180910390f35b6103686121cc565b005b6103966004803603602081101561038057600080fd5b8101908080359060200190929190505050612348565b604051808273ffffffffffffffffffffffffffffffffffffffff1673ffffffffffffffffffffffffffffffffffffffff16815260200191505060405180910390f35b610404600480360360208110156103ee57600080fd5b8101908080359060200190929190505050612384565b005b6104326004803603602081101561041c57600080fd5b81019080803590602001909291905050506124cd565b005b61043c612616565b005b61044661279e565b6040518082815260200191505060405180910390f35b6104646127a4565b6040518082815260200191505060405180910390f35b6104826127aa565b604051808273ffffffffffffffffffffffffffffffffffffffff1673ffffffffffffffffffffffffffffffffffffffff16815260200191505060405180910390f35b6104cc6127d3565b005b6104d6612e05565b6040518082815260200191505060405180910390f35b6105186004803603602081101561050257600080fd5b8101908080359060200190929190505050612e0b565b005b610522612f38565b6040518082815260200191505060405180910390f35b610540612f3e565b6040518082815260200191505060405180910390f35b6105826004803603602081101561056c57600080fd5b8101908080359060200190929190505050612f44565b005b6105b06004803603602081101561059a57600080fd5b810190808035906020019092919050505061308d565b005b6105ba6131d6565b6040518082815260200191505060405180910390f35b6105d86131dc565b005b6105e26133f1565b6040518082815260200191505060405180910390f35b6106006133f7565b005b6106446004803603602081101561061857600080fd5b81019080803573ffffffffffffffffffffffffffffffffffffffff16906020019092919050505061385f565b60405180878152602001868152602001858152602001848152602001838152602001828152602001965050505050505060405180910390f35b61068561389b565b6040518082815260200191505060405180910390f35b6106a36138d6565b6040518082815260200191505060405180910390f35b6106fb600480360360208110156106cf57600080fd5b81019080803573ffffffffffffffffffffffffffffffffffffffff1690602001909291905050506138dc565b005b6107056139b1565b6040518082815260200191505060405180910390f35b61075d6004803603602081101561073157600080fd5b81019080803573ffffffffffffffffffffffffffffffffffffffff1690602001909291905050506139b7565b6040518082815260200191505060405180910390f35b61077b6139c9565b604051808273ffffffffffffffffffffffffffffffffffffffff1673ffffffffffffffffffffffffffffffffffffffff16815260200191505060405180910390f35b60015481565b6107cb6139ef565b73ffffffffffffffffffffffffffffffffffffffff166000809054906101000a900473ffffffffffffffffffffffffffffffffffffffff1673ffffffffffffffffffffffffffffffffffffffff161461088c576040517f08c379a00000000000000000000000000000000000000000000000000000000081526004018080602001828103825260208152602001807f4f776e61626c653a2063616c6c6572206973206e6f7420746865206f776e657281525060200191505060405180910390fd5b60008111610902576040517f08c379a000000000000000000000000000000000000000000000000000000000815260040180806020018281038252601e8152602001807f44697669736f72206d7573742062652067726561746572207468616e2030000081525060200191505060405180910390fd5b8060038190555050565b6000610917336139f7565b905061092e81600f54613b5990919063ffffffff16565b600f8190555061094981600e54613b5990919063ffffffff16565b600e819055506109a481600860003373ffffffffffffffffffffffffffffffffffffffff1673ffffffffffffffffffffffffffffffffffffffff16815260200190815260200160002060020154613b5990919063ffffffff16565b600860003373ffffffffffffffffffffffffffffffffffffffff1673ffffffffffffffffffffffffffffffffffffffff1681526020019081526020016000206002018190555043600860003373ffffffffffffffffffffffffffffffffffffffff1673ffffffffffffffffffffffffffffffffffffffff1681526020019081526020016000206003018190555081610ac9600860003373ffffffffffffffffffffffffffffffffffffffff1673ffffffffffffffffffffffffffffffffffffffff16815260200190815260200160002060020154600860003373ffffffffffffffffffffffffffffffffffffffff1673ffffffffffffffffffffffffffffffffffffffff16815260200190815260200160002060000154613b5990919063ffffffff16565b1015610b20576040517f08c379a000000000000000000000000000000000000000000000000000000000815260040180806020018281038252603581526020018061409b6035913960400191505060405180910390fd5b6000809050610b3a83600e54613be190919063ffffffff16565b600e8190555082600860003373ffffffffffffffffffffffffffffffffffffffff1673ffffffffffffffffffffffffffffffffffffffff1681526020019081526020016000206002015410610cfa57610bde83600860003373ffffffffffffffffffffffffffffffffffffffff1673ffffffffffffffffffffffffffffffffffffffff16815260200190815260200160002060020154613be190919063ffffffff16565b600860003373ffffffffffffffffffffffffffffffffffffffff1673ffffffffffffffffffffffffffffffffffffffff16815260200190815260200160002060020181905550610c3983600f54613be190919063ffffffff16565b600f81905550610c9483600860003373ffffffffffffffffffffffffffffffffffffffff1673ffffffffffffffffffffffffffffffffffffffff16815260200190815260200160002060010154613b5990919063ffffffff16565b600860003373ffffffffffffffffffffffffffffffffffffffff1673ffffffffffffffffffffffffffffffffffffffff16815260200190815260200160002060010181905550610cef83600a54613be190919063ffffffff16565b600a81905550610fcc565b610d51600860003373ffffffffffffffffffffffffffffffffffffffff1673ffffffffffffffffffffffffffffffffffffffff16815260200190815260200160002060020154600a54613be190919063ffffffff16565b600a81905550610dac600860003373ffffffffffffffffffffffffffffffffffffffff1673ffffffffffffffffffffffffffffffffffffffff1681526020019081526020016000206002015484613be190919063ffffffff16565b9050610e05600860003373ffffffffffffffffffffffffffffffffffffffff1673ffffffffffffffffffffffffffffffffffffffff16815260200190815260200160002060020154600f54613be190919063ffffffff16565b600f81905550610ea2600860003373ffffffffffffffffffffffffffffffffffffffff1673ffffffffffffffffffffffffffffffffffffffff16815260200190815260200160002060020154600860003373ffffffffffffffffffffffffffffffffffffffff1673ffffffffffffffffffffffffffffffffffffffff16815260200190815260200160002060010154613b5990919063ffffffff16565b600860003373ffffffffffffffffffffffffffffffffffffffff1673ffffffffffffffffffffffffffffffffffffffff168152602001908152602001600020600101819055506000600860003373ffffffffffffffffffffffffffffffffffffffff1673ffffffffffffffffffffffffffffffffffffffff16815260200190815260200160002060020181905550610f8581600860003373ffffffffffffffffffffffffffffffffffffffff1673ffffffffffffffffffffffffffffffffffffffff16815260200190815260200160002060000154613be190919063ffffffff16565b600860003373ffffffffffffffffffffffffffffffffffffffff1673ffffffffffffffffffffffffffffffffffffffff168152602001908152602001600020600001819055505b600654600860003373ffffffffffffffffffffffffffffffffffffffff1673ffffffffffffffffffffffffffffffffffffffff168152602001908152602001600020600401540143101561116557600061104560035461103760045487613c2b90919063ffffffff16565b613cb190919063ffffffff16565b905061105a8185613be190919063ffffffff16565b9350600760009054906101000a900473ffffffffffffffffffffffffffffffffffffffff1673ffffffffffffffffffffffffffffffffffffffff1663a9059cbb600d60009054906101000a900473ffffffffffffffffffffffffffffffffffffffff16836040518363ffffffff1660e01b8152600401808373ffffffffffffffffffffffffffffffffffffffff1673ffffffffffffffffffffffffffffffffffffffff16815260200182815260200192505050602060405180830381600087803b15801561112757600080fd5b505af115801561113b573d6000803e3d6000fd5b505050506040513d602081101561115157600080fd5b810190808051906020019092919050505050505b600760009054906101000a900473ffffffffffffffffffffffffffffffffffffffff1673ffffffffffffffffffffffffffffffffffffffff1663a9059cbb33856040518363ffffffff1660e01b8152600401808373ffffffffffffffffffffffffffffffffffffffff1673ffffffffffffffffffffffffffffffffffffffff16815260200182815260200192505050602060405180830381600087803b15801561120e57600080fd5b505af1158015611222573d6000803e3d6000fd5b505050506040513d602081101561123857600080fd5b8101908080519060200190929190505050506000600860003373ffffffffffffffffffffffffffffffffffffffff1673ffffffffffffffffffffffffffffffffffffffff1681526020019081526020016000206000015414156114fe576000600860003373ffffffffffffffffffffffffffffffffffffffff1673ffffffffffffffffffffffffffffffffffffffff16815260200190815260200160002090506001600980549050038160050154146114bc57600060096001600980549050038154811061130257fe5b9060005260206000200160009054906101000a900473ffffffffffffffffffffffffffffffffffffffff16905080600983600501548154811061134157fe5b9060005260206000200160006101000a81548173ffffffffffffffffffffffffffffffffffffffff021916908373ffffffffffffffffffffffffffffffffffffffff1602179055508160050154600860008373ffffffffffffffffffffffffffffffffffffffff1673ffffffffffffffffffffffffffffffffffffffff16815260200190815260200160002060050181905550600760009054906101000a900473ffffffffffffffffffffffffffffffffffffffff1673ffffffffffffffffffffffffffffffffffffffff1663095ea7b33060006040518363ffffffff1660e01b8152600401808373ffffffffffffffffffffffffffffffffffffffff1673ffffffffffffffffffffffffffffffffffffffff16815260200182815260200192505050602060405180830381600087803b15801561147e57600080fd5b505af1158015611492573d6000803e3d6000fd5b505050506040513d60208110156114a857600080fd5b810190808051906020019092919050505050505b60098054806114c757fe5b6001900381819060005260206000200160006101000a81549073ffffffffffffffffffffffffffffffffffffffff02191690559055505b7f1ef37ab665f7c977b577275d7a49e72cd18d1143eccd1112f1198e4a39d1428c600a546040518082815260200191505060405180910390a1505050565b6115446139ef565b73ffffffffffffffffffffffffffffffffffffffff166000809054906101000a900473ffffffffffffffffffffffffffffffffffffffff1673ffffffffffffffffffffffffffffffffffffffff1614611605576040517f08c379a00000000000000000000000000000000000000000000000000000000081526004018080602001828103825260208152602001807f4f776e61626c653a2063616c6c6572206973206e6f7420746865206f776e657281525060200191505060405180910390fd5b6000811161167b576040517f08c379a000000000000000000000000000000000000000000000000000000000815260040180806020018281038252601a8152602001807f466565206d7573742062652067726561746572207468616e203000000000000081525060200191505060405180910390fd5b8060018190555050565b80600760009054906101000a900473ffffffffffffffffffffffffffffffffffffffff1673ffffffffffffffffffffffffffffffffffffffff166370a08231336040518263ffffffff1660e01b8152600401808273ffffffffffffffffffffffffffffffffffffffff1673ffffffffffffffffffffffffffffffffffffffff16815260200191505060206040518083038186803b15801561172557600080fd5b505afa158015611739573d6000803e3d6000fd5b505050506040513d602081101561174f57600080fd5b8101908080519060200190929190505050116117b6576040517f08c379a00000000000000000000000000000000000000000000000000000000081526004018080602001828103825260268152602001806140756026913960400191505060405180910390fd5b80600a5401600a81905550600760009054906101000a900473ffffffffffffffffffffffffffffffffffffffff1673ffffffffffffffffffffffffffffffffffffffff166323b872dd3330846040518463ffffffff1660e01b8152600401808473ffffffffffffffffffffffffffffffffffffffff1673ffffffffffffffffffffffffffffffffffffffff1681526020018373ffffffffffffffffffffffffffffffffffffffff1673ffffffffffffffffffffffffffffffffffffffff1681526020018281526020019350505050602060405180830381600087803b15801561189e57600080fd5b505af11580156118b2573d6000803e3d6000fd5b505050506040513d60208110156118c857600080fd5b8101908080519060200190929190505050507f1ef37ab665f7c977b577275d7a49e72cd18d1143eccd1112f1198e4a39d1428c600a546040518082815260200191505060405180910390a150565b80600760009054906101000a900473ffffffffffffffffffffffffffffffffffffffff1673ffffffffffffffffffffffffffffffffffffffff166370a08231336040518263ffffffff1660e01b8152600401808273ffffffffffffffffffffffffffffffffffffffff1673ffffffffffffffffffffffffffffffffffffffff16815260200191505060206040518083038186803b1580156119b657600080fd5b505afa1580156119ca573d6000803e3d6000fd5b505050506040513d60208110156119e057600080fd5b810190808051906020019092919050505011611a47576040517f08c379a00000000000000000000000000000000000000000000000000000000081526004018080602001828103825260268152602001806140756026913960400191505060405180910390fd5b6000600a5411611abf576040517f08c379a00000000000000000000000000000000000000000000000000000000081526004018080602001828103825260158152602001807f52657761726420506f6f6c20457868617573746564000000000000000000000081525060200191505060405180910390fd5b600760009054906101000a900473ffffffffffffffffffffffffffffffffffffffff1673ffffffffffffffffffffffffffffffffffffffff166323b872dd3330846040518463ffffffff1660e01b8152600401808473ffffffffffffffffffffffffffffffffffffffff1673ffffffffffffffffffffffffffffffffffffffff1681526020018373ffffffffffffffffffffffffffffffffffffffff1673ffffffffffffffffffffffffffffffffffffffff1681526020018281526020019350505050602060405180830381600087803b158015611b9c57600080fd5b505af1158015611bb0573d6000803e3d6000fd5b505050506040513d6020811015611bc657600080fd5b8101908080519060200190929190505050506000600860003373ffffffffffffffffffffffffffffffffffffffff1673ffffffffffffffffffffffffffffffffffffffff168152602001908152602001600020600001541415611d1d5743600860003373ffffffffffffffffffffffffffffffffffffffff1673ffffffffffffffffffffffffffffffffffffffff168152602001908152602001600020600301819055506009339080600181540180825580915050600190039060005260206000200160009091909190916101000a81548173ffffffffffffffffffffffffffffffffffffffff021916908373ffffffffffffffffffffffffffffffffffffffff160217905550600160098054905003600860003373ffffffffffffffffffffffffffffffffffffffff1673ffffffffffffffffffffffffffffffffffffffff168152602001908152602001600020600501819055505b80600860003373ffffffffffffffffffffffffffffffffffffffff1673ffffffffffffffffffffffffffffffffffffffff1681526020019081526020016000206000016000828254019250508190555043600860003373ffffffffffffffffffffffffffffffffffffffff1673ffffffffffffffffffffffffffffffffffffffff1681526020019081526020016000206004018190555080600e6000828254019250508190555050565b600b5481565b611dd56121cc565b6000600860003373ffffffffffffffffffffffffffffffffffffffff1673ffffffffffffffffffffffffffffffffffffffff1681526020019081526020016000206002015411156121c457600a54600860003373ffffffffffffffffffffffffffffffffffffffff1673ffffffffffffffffffffffffffffffffffffffff168152602001908152602001600020600201541115611eb657600a54600860003373ffffffffffffffffffffffffffffffffffffffff1673ffffffffffffffffffffffffffffffffffffffff168152602001908152602001600020600201819055505b600860003373ffffffffffffffffffffffffffffffffffffffff1673ffffffffffffffffffffffffffffffffffffffff16815260200190815260200160002060020154600860003373ffffffffffffffffffffffffffffffffffffffff1673ffffffffffffffffffffffffffffffffffffffff16815260200190815260200160002060010160008282540192505081905550600760009054906101000a900473ffffffffffffffffffffffffffffffffffffffff1673ffffffffffffffffffffffffffffffffffffffff1663a9059cbb33600860003373ffffffffffffffffffffffffffffffffffffffff1673ffffffffffffffffffffffffffffffffffffffff168152602001908152602001600020600201546040518363ffffffff1660e01b8152600401808373ffffffffffffffffffffffffffffffffffffffff1673ffffffffffffffffffffffffffffffffffffffff16815260200182815260200192505050602060405180830381600087803b15801561203357600080fd5b505af1158015612047573d6000803e3d6000fd5b505050506040513d602081101561205d57600080fd5b8101908080519060200190929190505050506120c6600860003373ffffffffffffffffffffffffffffffffffffffff1673ffffffffffffffffffffffffffffffffffffffff16815260200190815260200160002060020154600e54613be190919063ffffffff16565b600e81905550612123600860003373ffffffffffffffffffffffffffffffffffffffff1673ffffffffffffffffffffffffffffffffffffffff16815260200190815260200160002060020154600f54613be190919063ffffffff16565b600f81905550600860003373ffffffffffffffffffffffffffffffffffffffff1673ffffffffffffffffffffffffffffffffffffffff168152602001908152602001600020600201546010600082825401925050819055506000600860003373ffffffffffffffffffffffffffffffffffffffff1673ffffffffffffffffffffffffffffffffffffffff168152602001908152602001600020600201819055505b565b60055481565b60006121d7336139f7565b905061222e81600860003373ffffffffffffffffffffffffffffffffffffffff1673ffffffffffffffffffffffffffffffffffffffff16815260200190815260200160002060020154613b5990919063ffffffff16565b600860003373ffffffffffffffffffffffffffffffffffffffff1673ffffffffffffffffffffffffffffffffffffffff1681526020019081526020016000206002018190555061228981600e54613b5990919063ffffffff16565b600e8190555043600860003373ffffffffffffffffffffffffffffffffffffffff1673ffffffffffffffffffffffffffffffffffffffff168152602001908152602001600020600301819055506122eb81600f54613b5990919063ffffffff16565b600f8190555061230681600a54613be190919063ffffffff16565b600a819055507f1ef37ab665f7c977b577275d7a49e72cd18d1143eccd1112f1198e4a39d1428c600a546040518082815260200191505060405180910390a150565b6009818154811061235557fe5b906000526020600020016000915054906101000a900473ffffffffffffffffffffffffffffffffffffffff1681565b61238c6139ef565b73ffffffffffffffffffffffffffffffffffffffff166000809054906101000a900473ffffffffffffffffffffffffffffffffffffffff1673ffffffffffffffffffffffffffffffffffffffff161461244d576040517f08c379a00000000000000000000000000000000000000000000000000000000081526004018080602001828103825260208152602001807f4f776e61626c653a2063616c6c6572206973206e6f7420746865206f776e657281525060200191505060405180910390fd5b600081116124c3576040517f08c379a000000000000000000000000000000000000000000000000000000000815260040180806020018281038252601a8152602001807f466565206d7573742062652067726561746572207468616e203000000000000081525060200191505060405180910390fd5b8060058190555050565b6124d56139ef565b73ffffffffffffffffffffffffffffffffffffffff166000809054906101000a900473ffffffffffffffffffffffffffffffffffffffff1673ffffffffffffffffffffffffffffffffffffffff1614612596576040517f08c379a00000000000000000000000000000000000000000000000000000000081526004018080602001828103825260208152602001807f4f776e61626c653a2063616c6c6572206973206e6f7420746865206f776e657281525060200191505060405180910390fd5b6000811161260c576040517f08c379a000000000000000000000000000000000000000000000000000000000815260040180806020018281038252601b8152602001807f54696d65206d7573742062652067726561746572207468616e2030000000000081525060200191505060405180910390fd5b8060068190555050565b61261e6139ef565b73ffffffffffffffffffffffffffffffffffffffff166000809054906101000a900473ffffffffffffffffffffffffffffffffffffffff1673ffffffffffffffffffffffffffffffffffffffff16146126df576040517f08c379a00000000000000000000000000000000000000000000000000000000081526004018080602001828103825260208152602001807f4f776e61626c653a2063616c6c6572206973206e6f7420746865206f776e657281525060200191505060405180910390fd5b600073ffffffffffffffffffffffffffffffffffffffff166000809054906101000a900473ffffffffffffffffffffffffffffffffffffffff1673ffffffffffffffffffffffffffffffffffffffff167f8be0079c531659141344cd1fd0a4f28419497f9722a3daafe3b4186f6b6457e060405160405180910390a360008060006101000a81548173ffffffffffffffffffffffffffffffffffffffff021916908373ffffffffffffffffffffffffffffffffffffffff160217905550565b600f5481565b600e5481565b60008060009054906101000a900473ffffffffffffffffffffffffffffffffffffffff16905090565b43600b541061282d576040517f08c379a0000000000000000000000000000000000000000000000000000000008152600401808060200182810382526021815260200180613fec6021913960400191505060405180910390fd5b600080905060008090506000809050600080905060008090505b600980549050811015612afe5760006128966009838154811061286657fe5b9060005260206000200160009054906101000a900473ffffffffffffffffffffffffffffffffffffffff166139f7565b905060006128c36003546128b560025485613c2b90919063ffffffff16565b613cb190919063ffffffff16565b90506128d88188613b5990919063ffffffff16565b965060006129056003546128f760015486613c2b90919063ffffffff16565b613cb190919063ffffffff16565b905061291a8188613b5990919063ffffffff16565b9650600061294760035461293960055487613c2b90919063ffffffff16565b613cb190919063ffffffff16565b905061295c8188613b5990919063ffffffff16565b96506129718385613be190919063ffffffff16565b93506129868285613be190919063ffffffff16565b935061299b8185613be190919063ffffffff16565b93506129b284600e54613b5990919063ffffffff16565b600e819055506129cb8487613b5990919063ffffffff16565b95506129e284600f54613b5990919063ffffffff16565b600f819055508360086000600988815481106129fa57fe5b9060005260206000200160009054906101000a900473ffffffffffffffffffffffffffffffffffffffff1673ffffffffffffffffffffffffffffffffffffffff1673ffffffffffffffffffffffffffffffffffffffff16815260200190815260200160002060020160008282540192505081905550436008600060098881548110612a8157fe5b9060005260206000200160009054906101000a900473ffffffffffffffffffffffffffffffffffffffff1673ffffffffffffffffffffffffffffffffffffffff1673ffffffffffffffffffffffffffffffffffffffff16815260200190815260200160002060030181905550505050508080600101915050612847565b5043600b81905550600760009054906101000a900473ffffffffffffffffffffffffffffffffffffffff1673ffffffffffffffffffffffffffffffffffffffff166342966c68856040518263ffffffff1660e01b815260040180828152602001915050600060405180830381600087803b158015612b7b57600080fd5b505af1158015612b8f573d6000803e3d6000fd5b50505050600760009054906101000a900473ffffffffffffffffffffffffffffffffffffffff1673ffffffffffffffffffffffffffffffffffffffff1663a9059cbb33856040518363ffffffff1660e01b8152600401808373ffffffffffffffffffffffffffffffffffffffff1673ffffffffffffffffffffffffffffffffffffffff16815260200182815260200192505050602060405180830381600087803b158015612c3c57600080fd5b505af1158015612c50573d6000803e3d6000fd5b505050506040513d6020811015612c6657600080fd5b810190808051906020019092919050505050600760009054906101000a900473ffffffffffffffffffffffffffffffffffffffff1673ffffffffffffffffffffffffffffffffffffffff1663a9059cbb600d60009054906101000a900473ffffffffffffffffffffffffffffffffffffffff16846040518363ffffffff1660e01b8152600401808373ffffffffffffffffffffffffffffffffffffffff1673ffffffffffffffffffffffffffffffffffffffff16815260200182815260200192505050602060405180830381600087803b158015612d4357600080fd5b505af1158015612d57573d6000803e3d6000fd5b505050506040513d6020811015612d6d57600080fd5b810190808051906020019092919050505050612d9481600a54613be190919063ffffffff16565b600a819055507f698b3a0edc6b3c65b95358361ae6fc603b7bca78d8eb96dcc0b6bbeb937afb5960405160405180910390a17f1ef37ab665f7c977b577275d7a49e72cd18d1143eccd1112f1198e4a39d1428c600a546040518082815260200191505060405180910390a150505050565b60045481565b612e136139ef565b73ffffffffffffffffffffffffffffffffffffffff166000809054906101000a900473ffffffffffffffffffffffffffffffffffffffff1673ffffffffffffffffffffffffffffffffffffffff1614612ed4576040517f08c379a00000000000000000000000000000000000000000000000000000000081526004018080602001828103825260208152602001807f4f776e61626c653a2063616c6c6572206973206e6f7420746865206f776e657281525060200191505060405180910390fd5b6000811015612f2e576040517f08c379a00000000000000000000000000000000000000000000000000000000081526004018080602001828103825260238152602001806140526023913960400191505060405180910390fd5b80600c8190555050565b60065481565b60025481565b612f4c6139ef565b73ffffffffffffffffffffffffffffffffffffffff166000809054906101000a900473ffffffffffffffffffffffffffffffffffffffff1673ffffffffffffffffffffffffffffffffffffffff161461300d576040517f08c379a00000000000000000000000000000000000000000000000000000000081526004018080602001828103825260208152602001807f4f776e61626c653a2063616c6c6572206973206e6f7420746865206f776e657281525060200191505060405180910390fd5b60008111613083576040517f08c379a000000000000000000000000000000000000000000000000000000000815260040180806020018281038252601a8152602001807f466565206d7573742062652067726561746572207468616e203000000000000081525060200191505060405180910390fd5b8060048190555050565b6130956139ef565b73ffffffffffffffffffffffffffffffffffffffff166000809054906101000a900473ffffffffffffffffffffffffffffffffffffffff1673ffffffffffffffffffffffffffffffffffffffff1614613156576040517f08c379a00000000000000000000000000000000000000000000000000000000081526004018080602001828103825260208152602001807f4f776e61626c653a2063616c6c6572206973206e6f7420746865206f776e657281525060200191505060405180910390fd5b600081116131cc576040517f08c379a000000000000000000000000000000000000000000000000000000000815260040180806020018281038252601a8152602001807f466565206d7573742062652067726561746572207468616e203000000000000081525060200191505060405180910390fd5b8060028190555050565b600c5481565b6131e46139ef565b73ffffffffffffffffffffffffffffffffffffffff166000809054906101000a900473ffffffffffffffffffffffffffffffffffffffff1673ffffffffffffffffffffffffffffffffffffffff16146132a5576040517f08c379a00000000000000000000000000000000000000000000000000000000081526004018080602001828103825260208152602001807f4f776e61626c653a2063616c6c6572206973206e6f7420746865206f776e657281525060200191505060405180910390fd5b6000600a5411613300576040517f08c379a000000000000000000000000000000000000000000000000000000000815260040180806020018281038252602481526020018061402e6024913960400191505060405180910390fd5b600760009054906101000a900473ffffffffffffffffffffffffffffffffffffffff1673ffffffffffffffffffffffffffffffffffffffff1663a9059cbb33600a546040518363ffffffff1660e01b8152600401808373ffffffffffffffffffffffffffffffffffffffff1673ffffffffffffffffffffffffffffffffffffffff16815260200182815260200192505050602060405180830381600087803b1580156133ab57600080fd5b505af11580156133bf573d6000803e3d6000fd5b505050506040513d60208110156133d557600080fd5b8101908080519060200190929190505050506000600a81905550565b60105481565b600760009054906101000a900473ffffffffffffffffffffffffffffffffffffffff1673ffffffffffffffffffffffffffffffffffffffff1663a9059cbb33600860003373ffffffffffffffffffffffffffffffffffffffff1673ffffffffffffffffffffffffffffffffffffffff168152602001908152602001600020600001546040518363ffffffff1660e01b8152600401808373ffffffffffffffffffffffffffffffffffffffff1673ffffffffffffffffffffffffffffffffffffffff16815260200182815260200192505050602060405180830381600087803b1580156134e257600080fd5b505af11580156134f6573d6000803e3d6000fd5b505050506040513d602081101561350c57600080fd5b8101908080519060200190929190505050506000600860003373ffffffffffffffffffffffffffffffffffffffff1673ffffffffffffffffffffffffffffffffffffffff168152602001908152602001600020600001819055506000600860003373ffffffffffffffffffffffffffffffffffffffff1673ffffffffffffffffffffffffffffffffffffffff1681526020019081526020016000206002018190555043600860003373ffffffffffffffffffffffffffffffffffffffff1673ffffffffffffffffffffffffffffffffffffffff168152602001908152602001600020600301819055506000600860003373ffffffffffffffffffffffffffffffffffffffff1673ffffffffffffffffffffffffffffffffffffffff168152602001908152602001600020905060016009805490500381600501541461373657600060096001600980549050038154811061366257fe5b9060005260206000200160009054906101000a900473ffffffffffffffffffffffffffffffffffffffff1690508060098360050154815481106136a157fe5b9060005260206000200160006101000a81548173ffffffffffffffffffffffffffffffffffffffff021916908373ffffffffffffffffffffffffffffffffffffffff1602179055508160050154600860008373ffffffffffffffffffffffffffffffffffffffff1673ffffffffffffffffffffffffffffffffffffffff16815260200190815260200160002060050181905550505b600980548061374157fe5b6001900381819060005260206000200160006101000a81549073ffffffffffffffffffffffffffffffffffffffff02191690559055600760009054906101000a900473ffffffffffffffffffffffffffffffffffffffff1673ffffffffffffffffffffffffffffffffffffffff1663095ea7b33060006040518363ffffffff1660e01b8152600401808373ffffffffffffffffffffffffffffffffffffffff1673ffffffffffffffffffffffffffffffffffffffff16815260200182815260200192505050602060405180830381600087803b15801561382057600080fd5b505af1158015613834573d6000803e3d6000fd5b505050506040513d602081101561384a57600080fd5b81019080805190602001909291905050505050565b60086020528060005260406000206000915090508060000154908060010154908060020154908060030154908060040154908060050154905086565b6000806138b3600b5443613be190919063ffffffff16565b905060006138cc600c5483613c2b90919063ffffffff16565b9050809250505090565b600a5481565b6138e46139ef565b73ffffffffffffffffffffffffffffffffffffffff166000809054906101000a900473ffffffffffffffffffffffffffffffffffffffff1673ffffffffffffffffffffffffffffffffffffffff16146139a5576040517f08c379a00000000000000000000000000000000000000000000000000000000081526004018080602001828103825260208152602001807f4f776e61626c653a2063616c6c6572206973206e6f7420746865206f776e657281525060200191505060405180910390fd5b6139ae81613cfb565b50565b60035481565b60006139c2826139f7565b9050919050565b600d60009054906101000a900473ffffffffffffffffffffffffffffffffffffffff1681565b600033905090565b6000600860008373ffffffffffffffffffffffffffffffffffffffff1673ffffffffffffffffffffffffffffffffffffffff168152602001908152602001600020600301544311613a4b5760009050613b54565b6000600a54111580613a6057506000600e5411155b15613a6e5760009050613b54565b6000613ac5600860008573ffffffffffffffffffffffffffffffffffffffff1673ffffffffffffffffffffffffffffffffffffffff1681526020019081526020016000206003015443613be190919063ffffffff16565b90506000613ade600c5483613c2b90919063ffffffff16565b90506000613b4b600e54613b3d600860008973ffffffffffffffffffffffffffffffffffffffff1673ffffffffffffffffffffffffffffffffffffffff1681526020019081526020016000206000015485613c2b90919063ffffffff16565b613cb190919063ffffffff16565b90508093505050505b919050565b600080828401905083811015613bd7576040517f08c379a000000000000000000000000000000000000000000000000000000000815260040180806020018281038252601b8152602001807f536166654d6174683a206164646974696f6e206f766572666c6f77000000000081525060200191505060405180910390fd5b8091505092915050565b6000613c2383836040518060400160405280601e81526020017f536166654d6174683a207375627472616374696f6e206f766572666c6f770000815250613e3f565b905092915050565b600080831415613c3e5760009050613cab565b6000828402905082848281613c4f57fe5b0414613ca6576040517f08c379a000000000000000000000000000000000000000000000000000000000815260040180806020018281038252602181526020018061400d6021913960400191505060405180910390fd5b809150505b92915050565b6000613cf383836040518060400160405280601a81526020017f536166654d6174683a206469766973696f6e206279207a65726f000000000000815250613eff565b905092915050565b600073ffffffffffffffffffffffffffffffffffffffff168173ffffffffffffffffffffffffffffffffffffffff161415613d81576040517f08c379a0000000000000000000000000000000000000000000000000000000008152600401808060200182810382526026815260200180613fc66026913960400191505060405180910390fd5b8073ffffffffffffffffffffffffffffffffffffffff166000809054906101000a900473ffffffffffffffffffffffffffffffffffffffff1673ffffffffffffffffffffffffffffffffffffffff167f8be0079c531659141344cd1fd0a4f28419497f9722a3daafe3b4186f6b6457e060405160405180910390a3806000806101000a81548173ffffffffffffffffffffffffffffffffffffffff021916908373ffffffffffffffffffffffffffffffffffffffff16021790555050565b6000838311158290613eec576040517f08c379a00000000000000000000000000000000000000000000000000000000081526004018080602001828103825283818151815260200191508051906020019080838360005b83811015613eb1578082015181840152602081019050613e96565b50505050905090810190601f168015613ede5780820380516001836020036101000a031916815260200191505b509250505060405180910390fd5b5060008385039050809150509392505050565b60008083118290613fab576040517f08c379a00000000000000000000000000000000000000000000000000000000081526004018080602001828103825283818151815260200191508051906020019080838360005b83811015613f70578082015181840152602081019050613f55565b50505050905090810190601f168015613f9d5780820380516001836020036101000a031916815260200191505b509250505060405180910390fd5b506000838581613fb757fe5b04905080915050939250505056fe4f776e61626c653a206e6577206f776e657220697320746865207a65726f2061646472657373436f6d706f756e6420416c6c206e6f7420796574206170706c69636174696f6e2e536166654d6174683a206d756c7469706c69636174696f6e206f766572666c6f77546f74616c20506f6f6c206e65656420746f2062652067726561746572207468616e203043727573682070657220426c6f636b2063616e206e6f74206265206e65676174697665496e73756666696369656e7420437275736820746f6b656e7320666f72207472616e73666572576974686472617720616d6f756e742063616e206e6f742062652067726561746572207468616e207374616b656420616d6f756e74a2646970667358221220e27051b8e0114a0147f4e8b4886c2b4ca6a5ecf54e20e097699ed849e7b8f78364736f6c63430006020033",
  "source": "//SPDX-License-Identifier: UNLICENSED\npragma solidity >=0.6.2;\n\nimport \"@pancakeswap/pancake-swap-lib/contracts/access/Ownable.sol\";\nimport \"./CrushCoin.sol\";\nimport \"@pancakeswap/pancake-swap-lib/contracts/math/SafeMath.sol\";\ncontract BitcrushStaking is Ownable {\n    using SafeMath for uint256;\n    \n    // Constants\n    uint256  public PerformanceFeeCompounder = 100;\n    uint256  public PerformanceFeeBurn       = 100;\n    uint256  public Divisor = 10000;\n    \n    uint256  public EarlyWithdrawFee         = 50;\n    uint256  public PerformanceFeeReserve    = 190;\n    \n\n    uint256 public EarlyWithdrawFeeTime = 72 * 60 * 60 / 3;\n    \n    CRUSHToken crush;\n\n    struct staked {\n        uint256 stakedAmount;\n        uint256 claimedAmount;\n        uint256 compoundedAmount;\n        uint256 lastBlockCompounded;\n        uint256 lastBlockStaked;\n        uint256 index;\n    }\n    mapping (address => staked) public stakings;\n    address[] public addressIndexes;\n\n    uint256 public totalPool;\n    uint256 public lastAutoCompoundBlock;\n    uint256 public crushPerBlock;\n    address public reserveAddress;\n\n    uint256 public totalStaked;\n    uint256 public totalCompound;\n    uint256 public totalClaimed;\n\n    event RewardPoolUpdated (uint256 _totalPool);\n    event CompoundAll ();\n\n    constructor (CRUSHToken _crush, uint256 _crushPerBlock, address _reserveAddress) public{\n        crush = _crush;\n        crushPerBlock = _crushPerBlock;\n        reserveAddress = _reserveAddress;\n        lastAutoCompoundBlock = block.number;\n    }\n\n    //Increases the CRUSH prize pool by receiving tokens\n    //Receive/Transfer the amount of CRUSH specified in _amount into itself from msg.sender\n    //Increase TotalPool\n    function addRewardToPool (uint256 _amount) public  {\n        require(crush.balanceOf(msg.sender) > _amount, \"Insufficient Crush tokens for transfer\");\n        totalPool = totalPool + _amount;\n        crush.transferFrom(msg.sender, address(this), _amount);\n        emit RewardPoolUpdated(totalPool);\n    }\n\n    //Edits CrushPerBlock to be equal to _amount\n    function setCrushPerBlock (uint256 _amount) public onlyOwner {\n        require(_amount >= 0, \"Crush per Block can not be negative\" );\n        crushPerBlock = _amount;\n    }\n\n\n    //Stake CRUSH in Contract\n    //Transfer CRUSH from msg.sender to Contract \n    //Add user to Staked Mapping, if user exists, update Staked amount\n    function enterStaking (uint256 _amount) public  {\n        require(crush.balanceOf(msg.sender) > _amount, \"Insufficient Crush tokens for transfer\");\n        require(totalPool > 0, \"Reward Pool Exhausted\");\n        \n        crush.transferFrom(msg.sender, address(this), _amount);\n        if(stakings[msg.sender].stakedAmount == 0){\n            stakings[msg.sender].lastBlockCompounded = block.number;\n            addressIndexes.push(msg.sender);\n            stakings[msg.sender].index = addressIndexes.length-1;\n        }\n        stakings[msg.sender].stakedAmount += _amount;\n        stakings[msg.sender].lastBlockStaked = block.number;\n        totalStaked += _amount;\n       \n    }\n\n    //Withdraw CRUSH from staking and claim rewards\n    //Decrease Staked Amount from Staked\n    //Transfer CRUSH from Contract to msg.sender, amount to be determined by \n    function leaveStaking (uint256 _amount) public  {\n        //check time\n        //impose penalty if time limit not met\n        //check amount is less than staked amount\n        //transfer reward and amount specified\n        uint256 reward = getReward(msg.sender);\n        totalCompound = totalCompound.add(reward);\n        totalStaked = totalStaked.add(reward);\n        stakings[msg.sender].compoundedAmount = stakings[msg.sender].compoundedAmount.add(reward);\n        stakings[msg.sender].lastBlockCompounded = block.number;\n        require(stakings[msg.sender].stakedAmount.add(stakings[msg.sender].compoundedAmount) >= _amount, \"Withdraw amount can not be greater than staked amount\");\n\n        uint256 difference = 0;\n        totalStaked = totalStaked.sub(_amount);\n            if(stakings[msg.sender].compoundedAmount >= _amount){\n                stakings[msg.sender].compoundedAmount = stakings[msg.sender].compoundedAmount.sub(_amount);\n                totalCompound = totalCompound.sub(_amount);\n                stakings[msg.sender].claimedAmount = stakings[msg.sender].claimedAmount.add(_amount);\n                totalPool = totalPool.sub(_amount);\n            }else {\n                totalPool = totalPool.sub( stakings[msg.sender].compoundedAmount );\n                difference = _amount.sub(stakings[msg.sender].compoundedAmount);\n                totalCompound = totalCompound.sub(stakings[msg.sender].compoundedAmount);\n                stakings[msg.sender].claimedAmount = stakings[msg.sender].claimedAmount.add(stakings[msg.sender].compoundedAmount);\n                stakings[msg.sender].compoundedAmount = 0;\n                stakings[msg.sender].stakedAmount = stakings[msg.sender].stakedAmount.sub(difference);\n            }\n\n        \n        //totalCompound = totalCompound.sub(stakings[msg.sender].compoundedAmount.sub(reward));\n        //stakings[msg.sender].claimedAmount = stakings[msg.sender].claimedAmount.add(stakings[msg.sender].compoundedAmount) ;\n        if(block.number < stakings[msg.sender].lastBlockStaked + EarlyWithdrawFeeTime ){\n            //apply fee\n            uint256 withdrawalFee = _amount.mul(EarlyWithdrawFee).div(Divisor);\n            _amount = _amount.sub(withdrawalFee);\n            crush.transfer(reserveAddress, withdrawalFee);\n        }\n        crush.transfer(msg.sender, _amount);\n        //remove from array\n        if(stakings[msg.sender].stakedAmount == 0){\n            staked storage staking = stakings[msg.sender];\n            if(staking.index != addressIndexes.length-1){\n                address lastAddress = addressIndexes[addressIndexes.length-1];\n                addressIndexes[staking.index] = lastAddress;\n                stakings[lastAddress].index = staking.index;\n                crush.approve( address(this), 0);\n            }\n            addressIndexes.pop();\n        }\n        emit RewardPoolUpdated(totalPool);\n    }\n\n\n    function getReward(address _address) internal view returns (uint256) {\n        if(block.number <=  stakings[_address].lastBlockCompounded){\n            return 0;\n        }else {\n            if(totalPool <= 0 || totalStaked <=0 ){\n                return 0;\n            }else {\n                uint256 blocks = block.number.sub(stakings[_address].lastBlockCompounded);\n                uint256 totalReward = blocks.mul(crushPerBlock);\n                uint256 stakerReward = totalReward.mul(stakings[_address].stakedAmount).div(totalStaked);\n                return stakerReward;\n            }\n            \n        }\n    }\n\n    function totalPendingRewards () public view returns (uint256){\n            uint256 blocks = block.number.sub(lastAutoCompoundBlock);\n            uint256 totalReward = blocks.mul(crushPerBlock);\n\n            return totalReward;\n    }\n\n    function pendingReward (address _address) public view returns (uint256){\n        return getReward(_address);\n    }\n\n    //Send Rewards only to msg.sender\n    function claim () public  {\n        singleCompound();\n        if(stakings[msg.sender].compoundedAmount > 0){\n        //require(stakings[msg.sender].compoundedAmount > 0, \"Compounded Amount must be greater than 0\");\n        if(stakings[msg.sender].compoundedAmount > totalPool){\n                stakings[msg.sender].compoundedAmount = totalPool;\n        }\n        stakings[msg.sender].claimedAmount += stakings[msg.sender].compoundedAmount;\n        crush.transfer(msg.sender, stakings[msg.sender].compoundedAmount);\n        totalStaked = totalStaked.sub(stakings[msg.sender].compoundedAmount);\n        totalCompound = totalCompound.sub(stakings[msg.sender].compoundedAmount);\n        totalClaimed += stakings[msg.sender].compoundedAmount;\n        stakings[msg.sender].compoundedAmount = 0;\n        }\n        \n    }\n\n    //Update staked values on a single User.\n    function singleCompound () public  {\n        uint256 reward = getReward(msg.sender);\n        stakings[msg.sender].compoundedAmount = stakings[msg.sender].compoundedAmount.add(reward);\n        totalStaked = totalStaked.add(reward);\n        stakings[msg.sender].lastBlockCompounded = block.number;\n        totalCompound = totalCompound.add(reward);\n        totalPool = totalPool.sub(reward);\n        emit RewardPoolUpdated(totalPool);\n    }\n\n    //Compound all of the rewards for all stakers\n    function compoundAll () public  {\n        require(lastAutoCompoundBlock < block.number, \"Compound All not yet application.\");\n        uint256 crushToBurn = 0;\n        uint256 reward = 0;\n        uint256 performanceFee = 0;\n        uint256 totalReward = 0;\n        for(uint256 i=0; i < addressIndexes.length; i++){\n            uint256 stakerReward = getReward(addressIndexes[i]);\n            \n            uint256 stakerBurn = stakerReward.mul(PerformanceFeeBurn).div(Divisor);\n            crushToBurn = crushToBurn.add(stakerBurn);\n            \n            uint256 cpAllReward = stakerReward.mul(PerformanceFeeCompounder).div(Divisor);\n            reward = reward.add(cpAllReward);\n            \n            uint256 feeReserve = stakerReward.mul(PerformanceFeeReserve).div(Divisor);\n            performanceFee = performanceFee.add(feeReserve);\n            \n\n            stakerReward = stakerReward.sub(stakerBurn);\n            stakerReward = stakerReward.sub(cpAllReward);\n            stakerReward = stakerReward.sub(feeReserve);\n\n            totalStaked = totalStaked.add(stakerReward);\n            totalReward = totalReward.add(stakerReward);\n            totalCompound = totalCompound.add(stakerReward); \n            stakings[addressIndexes[i]].compoundedAmount += stakerReward;\n            stakings[addressIndexes[i]].lastBlockCompounded = block.number;\n        }\n        lastAutoCompoundBlock = block.number;\n        crush.burn(crushToBurn);\n        crush.transfer(msg.sender, reward);\n        crush.transfer(reserveAddress, performanceFee);\n        totalPool = totalPool.sub(totalReward);\n        emit CompoundAll();\n        emit RewardPoolUpdated(totalPool);\n    }\n\n    //emergency withdraw without caring about reward\n    function emergencyWithdraw() public{\n        crush.transfer( msg.sender, stakings[msg.sender].stakedAmount);\n        stakings[msg.sender].stakedAmount = 0;\n        stakings[msg.sender].compoundedAmount = 0;\n        stakings[msg.sender].lastBlockCompounded = block.number;\n        staked storage staking = stakings[msg.sender];\n        if(staking.index != addressIndexes.length-1){\n            address lastAddress = addressIndexes[addressIndexes.length-1];\n            addressIndexes[staking.index] = lastAddress;\n            stakings[lastAddress].index = staking.index;\n        }\n        addressIndexes.pop();\n        crush.approve( address(this), 0);\n    }\n\n    function emergencyTotalPoolWithdraw () public onlyOwner {\n        require(totalPool > 0, \"Total Pool need to be greater than 0\");\n        crush.transfer(msg.sender, totalPool);\n        totalPool = 0;\n    }\n\n    function setPerformanceFeeCompounder (uint256 _fee) public onlyOwner{\n        require(_fee > 0, \"Fee must be greater than 0\");\n        PerformanceFeeCompounder = _fee;\n    }\n\n    function setPerformanceFeeBurn (uint256 _fee) public onlyOwner {\n        require(_fee > 0, \"Fee must be greater than 0\");\n        PerformanceFeeBurn = _fee;\n    }\n\n    function setEarlyWithdrawFee (uint256 _fee) public onlyOwner {\n        require(_fee > 0, \"Fee must be greater than 0\");\n        EarlyWithdrawFee = _fee;\n    }\n\n    function setPerformanceFeeReserve (uint256 _fee) public onlyOwner {\n        require(_fee > 0, \"Fee must be greater than 0\");\n        PerformanceFeeReserve = _fee;\n    }\n    \n    function setEarlyWithdrawFeeTime (uint256 _time) public onlyOwner {\n        require(_time > 0, \"Time must be greater than 0\");\n        EarlyWithdrawFeeTime = _time;\n    }\n\n    function setFeeDivisor (uint256 _divisor) public onlyOwner {\n        require(_divisor > 0, \"Divisor must be greater than 0\");\n        Divisor = _divisor;\n    }\n    \n}\n",
  "sourcePath": "/Users/umerali/Desktop/FRAG/bitcrush/new staking contract/contracts/staking.sol",
  "compiler": {
    "name": "solc",
    "version": "0.6.2+commit.bacdbe57.Emscripten.clang"
  },
  "schemaVersion": "3.4.1",
  "updatedAt": "2021-06-25T21:33:42.176Z",
  "networkType": "ethereum",
  "devdoc": {
    "methods": {
      "owner()": {
        "details": "Returns the address of the current owner."
      },
      "renounceOwnership()": {
        "details": "Leaves the contract without owner. It will not be possible to call `onlyOwner` functions anymore. Can only be called by the current owner.     * NOTE: Renouncing ownership will leave the contract without an owner, thereby removing any functionality that is only available to the owner."
      },
      "transferOwnership(address)": {
        "details": "Transfers ownership of the contract to a new account (`newOwner`). Can only be called by the current owner."
      }
    }
  },
  "userdoc": {
    "methods": {}
  }
}