{
  "contractName": "BitcrushStaking",
  "abi": [
    {
      "inputs": [
        {
          "internalType": "contract CRUSHToken",
          "name": "_crush",
          "type": "address"
        },
        {
          "internalType": "uint256",
          "name": "_crushPerBlock",
          "type": "uint256"
        },
        {
          "internalType": "address",
          "name": "_reserveAddress",
          "type": "address"
        }
      ],
      "stateMutability": "nonpayable",
      "type": "constructor"
    },
    {
      "anonymous": false,
      "inputs": [
        {
          "indexed": true,
          "internalType": "address",
          "name": "previousOwner",
          "type": "address"
        },
        {
          "indexed": true,
          "internalType": "address",
          "name": "newOwner",
          "type": "address"
        }
      ],
      "name": "OwnershipTransferred",
      "type": "event"
    },
    {
      "anonymous": false,
      "inputs": [
        {
          "indexed": true,
          "internalType": "uint256",
          "name": "_totalPool",
          "type": "uint256"
        }
      ],
      "name": "RewardPoolUpdated",
      "type": "event"
    },
    {
      "anonymous": false,
      "inputs": [
        {
          "indexed": true,
          "internalType": "address",
          "name": "recipeint",
          "type": "address"
        },
        {
          "indexed": true,
          "internalType": "uint256",
          "name": "_amount",
          "type": "uint256"
        }
      ],
      "name": "StakeUpdated",
      "type": "event"
    },
    {
      "inputs": [],
      "name": "MAX_CRUSH_PER_BLOCK",
      "outputs": [
        {
          "internalType": "uint256",
          "name": "",
          "type": "uint256"
        }
      ],
      "stateMutability": "view",
      "type": "function"
    },
    {
      "inputs": [],
      "name": "MAX_FEE",
      "outputs": [
        {
          "internalType": "uint256",
          "name": "",
          "type": "uint256"
        }
      ],
      "stateMutability": "view",
      "type": "function"
    },
    {
      "inputs": [],
      "name": "accProfitPerShare",
      "outputs": [
        {
          "internalType": "uint256",
          "name": "",
          "type": "uint256"
        }
      ],
      "stateMutability": "view",
      "type": "function"
    },
    {
      "inputs": [],
      "name": "accRewardPerShare",
      "outputs": [
        {
          "internalType": "uint256",
          "name": "",
          "type": "uint256"
        }
      ],
      "stateMutability": "view",
      "type": "function"
    },
    {
      "inputs": [
        {
          "internalType": "uint256",
          "name": "",
          "type": "uint256"
        }
      ],
      "name": "addressIndexes",
      "outputs": [
        {
          "internalType": "address",
          "name": "",
          "type": "address"
        }
      ],
      "stateMutability": "view",
      "type": "function"
    },
    {
      "inputs": [],
      "name": "apyBoost",
      "outputs": [
        {
          "internalType": "uint256",
          "name": "",
          "type": "uint256"
        }
      ],
      "stateMutability": "view",
      "type": "function"
    },
    {
      "inputs": [],
      "name": "autoCompoundLimit",
      "outputs": [
        {
          "internalType": "uint256",
          "name": "",
          "type": "uint256"
        }
      ],
      "stateMutability": "view",
      "type": "function"
    },
    {
      "inputs": [],
      "name": "bankroll",
      "outputs": [
        {
          "internalType": "contract BitcrushBankroll",
          "name": "",
          "type": "address"
        }
      ],
      "stateMutability": "view",
      "type": "function"
    },
    {
      "inputs": [],
      "name": "batchStartingIndex",
      "outputs": [
        {
          "internalType": "uint256",
          "name": "",
          "type": "uint256"
        }
      ],
      "stateMutability": "view",
      "type": "function"
    },
    {
      "inputs": [],
      "name": "blockPerSecond",
      "outputs": [
        {
          "internalType": "uint256",
          "name": "",
          "type": "uint256"
        }
      ],
      "stateMutability": "view",
      "type": "function"
    },
    {
      "inputs": [],
      "name": "crush",
      "outputs": [
        {
          "internalType": "contract CRUSHToken",
          "name": "",
          "type": "address"
        }
      ],
      "stateMutability": "view",
      "type": "function"
    },
    {
      "inputs": [],
      "name": "crushPerBlock",
      "outputs": [
        {
          "internalType": "uint256",
          "name": "",
          "type": "uint256"
        }
      ],
      "stateMutability": "view",
      "type": "function"
    },
    {
      "inputs": [],
      "name": "deploymentTimeStamp",
      "outputs": [
        {
          "internalType": "uint256",
          "name": "",
          "type": "uint256"
        }
      ],
      "stateMutability": "view",
      "type": "function"
    },
    {
      "inputs": [],
      "name": "divisor",
      "outputs": [
        {
          "internalType": "uint256",
          "name": "",
          "type": "uint256"
        }
      ],
      "stateMutability": "view",
      "type": "function"
    },
    {
      "inputs": [],
      "name": "earlyWithdrawFee",
      "outputs": [
        {
          "internalType": "uint256",
          "name": "",
          "type": "uint256"
        }
      ],
      "stateMutability": "view",
      "type": "function"
    },
    {
      "inputs": [],
      "name": "earlyWithdrawFeeTime",
      "outputs": [
        {
          "internalType": "uint256",
          "name": "",
          "type": "uint256"
        }
      ],
      "stateMutability": "view",
      "type": "function"
    },
    {
      "inputs": [],
      "name": "frozenEarlyWithdrawFee",
      "outputs": [
        {
          "internalType": "uint256",
          "name": "",
          "type": "uint256"
        }
      ],
      "stateMutability": "view",
      "type": "function"
    },
    {
      "inputs": [],
      "name": "frozenEarlyWithdrawFeeTime",
      "outputs": [
        {
          "internalType": "uint256",
          "name": "",
          "type": "uint256"
        }
      ],
      "stateMutability": "view",
      "type": "function"
    },
    {
      "inputs": [],
      "name": "lastAutoCompoundBlock",
      "outputs": [
        {
          "internalType": "uint256",
          "name": "",
          "type": "uint256"
        }
      ],
      "stateMutability": "view",
      "type": "function"
    },
    {
      "inputs": [],
      "name": "lastRewardBlock",
      "outputs": [
        {
          "internalType": "uint256",
          "name": "",
          "type": "uint256"
        }
      ],
      "stateMutability": "view",
      "type": "function"
    },
    {
      "inputs": [],
      "name": "liveWallet",
      "outputs": [
        {
          "internalType": "contract BitcrushLiveWallet",
          "name": "",
          "type": "address"
        }
      ],
      "stateMutability": "view",
      "type": "function"
    },
    {
      "inputs": [],
      "name": "owner",
      "outputs": [
        {
          "internalType": "address",
          "name": "",
          "type": "address"
        }
      ],
      "stateMutability": "view",
      "type": "function"
    },
    {
      "inputs": [],
      "name": "performanceFeeBurn",
      "outputs": [
        {
          "internalType": "uint256",
          "name": "",
          "type": "uint256"
        }
      ],
      "stateMutability": "view",
      "type": "function"
    },
    {
      "inputs": [],
      "name": "performanceFeeCompounder",
      "outputs": [
        {
          "internalType": "uint256",
          "name": "",
          "type": "uint256"
        }
      ],
      "stateMutability": "view",
      "type": "function"
    },
    {
      "inputs": [],
      "name": "performanceFeeReserve",
      "outputs": [
        {
          "internalType": "uint256",
          "name": "",
          "type": "uint256"
        }
      ],
      "stateMutability": "view",
      "type": "function"
    },
    {
      "inputs": [],
      "name": "renounceOwnership",
      "outputs": [],
      "stateMutability": "nonpayable",
      "type": "function"
    },
    {
      "inputs": [],
      "name": "reserveAddress",
      "outputs": [
        {
          "internalType": "address",
          "name": "",
          "type": "address"
        }
      ],
      "stateMutability": "view",
      "type": "function"
    },
    {
      "inputs": [
        {
          "internalType": "address",
          "name": "",
          "type": "address"
        }
      ],
      "name": "stakings",
      "outputs": [
        {
          "internalType": "uint256",
          "name": "shares",
          "type": "uint256"
        },
        {
          "internalType": "uint256",
          "name": "stakedAmount",
          "type": "uint256"
        },
        {
          "internalType": "uint256",
          "name": "claimedAmount",
          "type": "uint256"
        },
        {
          "internalType": "uint256",
          "name": "lastBlockCompounded",
          "type": "uint256"
        },
        {
          "internalType": "uint256",
          "name": "lastBlockStaked",
          "type": "uint256"
        },
        {
          "internalType": "uint256",
          "name": "index",
          "type": "uint256"
        },
        {
          "internalType": "uint256",
          "name": "lastFrozenWithdraw",
          "type": "uint256"
        },
        {
          "internalType": "uint256",
          "name": "apyBaseline",
          "type": "uint256"
        },
        {
          "internalType": "uint256",
          "name": "profitBaseline",
          "type": "uint256"
        }
      ],
      "stateMutability": "view",
      "type": "function"
    },
    {
      "inputs": [],
      "name": "totalClaimed",
      "outputs": [
        {
          "internalType": "uint256",
          "name": "",
          "type": "uint256"
        }
      ],
      "stateMutability": "view",
      "type": "function"
    },
    {
      "inputs": [],
      "name": "totalFrozen",
      "outputs": [
        {
          "internalType": "uint256",
          "name": "",
          "type": "uint256"
        }
      ],
      "stateMutability": "view",
      "type": "function"
    },
    {
      "inputs": [],
      "name": "totalPool",
      "outputs": [
        {
          "internalType": "uint256",
          "name": "",
          "type": "uint256"
        }
      ],
      "stateMutability": "view",
      "type": "function"
    },
    {
      "inputs": [],
      "name": "totalProfitDistributed",
      "outputs": [
        {
          "internalType": "uint256",
          "name": "",
          "type": "uint256"
        }
      ],
      "stateMutability": "view",
      "type": "function"
    },
    {
      "inputs": [],
      "name": "totalShares",
      "outputs": [
        {
          "internalType": "uint256",
          "name": "",
          "type": "uint256"
        }
      ],
      "stateMutability": "view",
      "type": "function"
    },
    {
      "inputs": [],
      "name": "totalStaked",
      "outputs": [
        {
          "internalType": "uint256",
          "name": "",
          "type": "uint256"
        }
      ],
      "stateMutability": "view",
      "type": "function"
    },
    {
      "inputs": [
        {
          "internalType": "address",
          "name": "newOwner",
          "type": "address"
        }
      ],
      "name": "transferOwnership",
      "outputs": [],
      "stateMutability": "nonpayable",
      "type": "function"
    },
    {
      "inputs": [
        {
          "internalType": "contract BitcrushBankroll",
          "name": "_bankroll",
          "type": "address"
        }
      ],
      "name": "setBankroll",
      "outputs": [],
      "stateMutability": "nonpayable",
      "type": "function"
    },
    {
      "inputs": [
        {
          "internalType": "contract BitcrushLiveWallet",
          "name": "_liveWallet",
          "type": "address"
        }
      ],
      "name": "setLiveWallet",
      "outputs": [],
      "stateMutability": "nonpayable",
      "type": "function"
    },
    {
      "inputs": [
        {
          "internalType": "uint256",
          "name": "_amount",
          "type": "uint256"
        }
      ],
      "name": "addRewardToPool",
      "outputs": [],
      "stateMutability": "nonpayable",
      "type": "function"
    },
    {
      "inputs": [],
      "name": "updateDistribution",
      "outputs": [],
      "stateMutability": "nonpayable",
      "type": "function"
    },
    {
      "inputs": [],
      "name": "updateProfits",
      "outputs": [],
      "stateMutability": "nonpayable",
      "type": "function"
    },
    {
      "inputs": [
        {
          "internalType": "uint256",
          "name": "_amount",
          "type": "uint256"
        }
      ],
      "name": "setCrushPerBlock",
      "outputs": [],
      "stateMutability": "nonpayable",
      "type": "function"
    },
    {
      "inputs": [
        {
          "internalType": "uint256",
          "name": "_amount",
          "type": "uint256"
        }
      ],
      "name": "enterStaking",
      "outputs": [],
      "stateMutability": "nonpayable",
      "type": "function"
    },
    {
      "inputs": [
        {
          "internalType": "uint256",
          "name": "_amount",
          "type": "uint256"
        },
        {
          "internalType": "bool",
          "name": "_liveWallet",
          "type": "bool"
        }
      ],
      "name": "leaveStaking",
      "outputs": [],
      "stateMutability": "nonpayable",
      "type": "function"
    },
    {
      "inputs": [
        {
          "internalType": "address",
          "name": "_address",
          "type": "address"
        }
      ],
      "name": "pendingReward",
      "outputs": [
        {
          "internalType": "uint256",
          "name": "",
          "type": "uint256"
        }
      ],
      "stateMutability": "view",
      "type": "function"
    },
    {
      "inputs": [
        {
          "internalType": "address",
          "name": "_address",
          "type": "address"
        }
      ],
      "name": "pendingProfits",
      "outputs": [
        {
          "internalType": "uint256",
          "name": "",
          "type": "uint256"
        }
      ],
      "stateMutability": "view",
      "type": "function"
    },
    {
      "inputs": [],
      "name": "compoundAll",
      "outputs": [],
      "stateMutability": "nonpayable",
      "type": "function"
    },
    {
      "inputs": [
        {
          "internalType": "uint256",
          "name": "_amount",
          "type": "uint256"
        },
        {
          "internalType": "address",
          "name": "_recipient",
          "type": "address"
        },
        {
          "internalType": "address",
          "name": "_lwAddress",
          "type": "address"
        }
      ],
      "name": "freezeStaking",
      "outputs": [],
      "stateMutability": "nonpayable",
      "type": "function"
    },
    {
      "inputs": [
        {
          "internalType": "uint256",
          "name": "_amount",
          "type": "uint256"
        }
      ],
      "name": "unfreezeStaking",
      "outputs": [],
      "stateMutability": "nonpayable",
      "type": "function"
    },
    {
      "inputs": [],
      "name": "indexesLength",
      "outputs": [
        {
          "internalType": "uint256",
          "name": "_addressesLength",
          "type": "uint256"
        }
      ],
      "stateMutability": "view",
      "type": "function"
    },
    {
      "inputs": [
        {
          "internalType": "uint256",
          "name": "_fee",
          "type": "uint256"
        }
      ],
      "name": "setPerformanceFeeCompounder",
      "outputs": [],
      "stateMutability": "nonpayable",
      "type": "function"
    },
    {
      "inputs": [
        {
          "internalType": "uint256",
          "name": "_fee",
          "type": "uint256"
        }
      ],
      "name": "setPerformanceFeeBurn",
      "outputs": [],
      "stateMutability": "nonpayable",
      "type": "function"
    },
    {
      "inputs": [
        {
          "internalType": "uint256",
          "name": "_fee",
          "type": "uint256"
        }
      ],
      "name": "setEarlyWithdrawFee",
      "outputs": [],
      "stateMutability": "nonpayable",
      "type": "function"
    },
    {
      "inputs": [
        {
          "internalType": "uint256",
          "name": "_fee",
          "type": "uint256"
        }
      ],
      "name": "setPerformanceFeeReserve",
      "outputs": [],
      "stateMutability": "nonpayable",
      "type": "function"
    },
    {
      "inputs": [
        {
          "internalType": "uint256",
          "name": "_time",
          "type": "uint256"
        }
      ],
      "name": "setEarlyWithdrawFeeTime",
      "outputs": [],
      "stateMutability": "nonpayable",
      "type": "function"
    },
    {
      "inputs": [
        {
          "internalType": "uint256",
          "name": "_limit",
          "type": "uint256"
        }
      ],
      "name": "setAutoCompoundLimit",
      "outputs": [],
      "stateMutability": "nonpayable",
      "type": "function"
    },
    {
      "inputs": [],
      "name": "emergencyWithdraw",
      "outputs": [],
      "stateMutability": "nonpayable",
      "type": "function"
    }
  ],
  "bytecode": "0x60a0604052600a600155606460025560326003556105dc60045560be600555612a3060065560036007556007546203f480816200003857fe5b046008556109c4600955674c53ecdc18a60000601255600a601b553480156200006057600080fd5b5060405162003ab838038062003ab8833981810160405260608110156200008657600080fd5b50805160208201516040909201519091906000620000ac6001600160e01b036200015d16565b600080546001600160a01b0319166001600160a01b0383169081178255604051929350917f8be0079c531659141344cd1fd0a4f28419497f9722a3daafe3b4186f6b6457e0908290a3506001600160601b0319606084901b16608052678ac7230489e8000082116200011e5760128290555b600d80546001600160a01b0319166001600160a01b039290921691909117905550506000601081905542601c5560138190556015554360145562000161565b3390565b60805160601c6138e4620001d4600039806109875280610a5a5280610af85280610c715280610da75280611221528061139f52806113ee528061144c5280611cf05280612123528061218f52806121cf52806124905280612a9b5280612b455280612bd55280612c1f52506138e46000f3fe608060405234801561001057600080fd5b50600436106103785760003560e01c80638da5cb5b116101d3578063c22982f411610104578063e3aeeb46116100a2578063f2fde38b1161007c578063f2fde38b1461073c578063f40f0f5214610762578063f79ed94b14610788578063fa2b8a5d1461079057610378565b8063e3aeeb4614610724578063ecb1c9241461072c578063ecfb49a31461073457610378565b8063d54ad2a1116100de578063d54ad2a11461068a578063db2e21bc14610692578063dc6e13e11461069a578063e39faaa41461070757610378565b8063c22982f414610648578063c53f871f14610665578063c61f1c0b1461068257610378565b8063a9f8d18111610171578063b359a9f91161014b578063b359a9f91461060a578063bc063e1a14610612578063bca5503d1461061a578063bde8a93e1461062257610378565b8063a9f8d181146105f2578063aa8badc1146105fa578063b249e88e1461060257610378565b80639b05ddb3116101ad5780639b05ddb31461059f5780639e13900c146105a7578063a775573a146105cd578063a80a7882146105ea57610378565b80638da5cb5b1461055b5780638f44ebfc14610563578063939d62371461059757610378565b806349535ef5116102ad5780636874d6201161024b5780636f90e046116102255780636f90e04614610511578063715018a61461052e57806376e9e6c014610536578063817b1cd21461055357610378565b80636874d620146104f95780636903d0b6146105015780636e74d2e21461050957610378565b806351496bbd1161028757806351496bbd146104af5780635832d571146104b75780636535fc66146104d4578063668579c9146104f157610378565b806349535ef5146104975780634b37f0061461049f5780634bf211b8146104a757610378565b80632e0ae2f21161031a5780633a53ed49116102f45780633a53ed49146104305780633a98ef391461044d57806341441d3b14610455578063445e76881461047257610378565b80632e0ae2f2146103fa57806338ed019a1461040257806339cc13781461040a57610378565b80631f2dc5ef116103565780631f2dc5ef146103c35780632533830a146103cb57806326cba336146103d3578063289bac07146103f257610378565b80630a3960bc1461037d5780630c657eb0146103975780631e7f87bc146103bb575b600080fd5b610385610798565b60408051918252519081900360200190f35b61039f61079e565b604080516001600160a01b039092168252519081900360200190f35b6103856107ad565b6103856107b3565b6103856107b9565b6103f0600480360360208110156103e957600080fd5b50356107bf565b005b6103856108d9565b6103856108df565b6103856108e5565b6103856004803603602081101561042057600080fd5b50356001600160a01b03166108eb565b6103f06004803603602081101561044657600080fd5b503561094c565b610385610ab7565b6103f06004803603602081101561046b57600080fd5b5035610abd565b6103f06004803603604081101561048857600080fd5b50803590602001351515610ef0565b610385611698565b61038561169e565b6103856116a4565b6103f06116aa565b61039f600480360360208110156104cd57600080fd5b50356117a1565b6103f0600480360360208110156104ea57600080fd5b50356117c8565b6103856118e3565b6103856118e9565b6103856118ef565b6103856118f5565b6103f06004803603602081101561052757600080fd5b50356118fb565b6103f06119bf565b6103f06004803603602081101561054c57600080fd5b5035611a80565b610385611b83565b61039f611b89565b6103f06004803603606081101561057957600080fd5b508035906001600160a01b0360208201358116916040013516611b98565b610385611d35565b6103f0611d3b565b6103f0600480360360208110156105bd57600080fd5b50356001600160a01b0316612200565b6103f0600480360360208110156105e357600080fd5b50356122f7565b6103856123ad565b6103856123b3565b6103f06123b9565b610385612488565b61039f61248e565b6103856124b2565b6103856124b8565b6103f06004803603602081101561063857600080fd5b50356001600160a01b03166124be565b6103f06004803603602081101561065e57600080fd5b50356125b5565b6103f06004803603602081101561067b57600080fd5b50356126cf565b6103856127e9565b6103856127ef565b6103f06127f5565b6106c0600480360360208110156106b057600080fd5b50356001600160a01b0316612d6a565b60408051998a5260208a0198909852888801969096526060880194909452608087019290925260a086015260c085015260e084015261010083015251908190036101200190f35b6103f06004803603602081101561071d57600080fd5b5035612db8565b61039f612e81565b610385612e90565b610385612e96565b6103f06004803603602081101561075257600080fd5b50356001600160a01b0316612e9c565b6103856004803603602081101561077857600080fd5b50356001600160a01b0316612f0f565b61039f613003565b610385613012565b60055481565b600b546001600160a01b031681565b60195481565b61271081565b601a5481565b6107c761301e565b6000546001600160a01b03908116911614610829576040805162461bcd60e51b815260206004820181905260248201527f4f776e61626c653a2063616c6c6572206973206e6f7420746865206f776e6572604482015290519081900360640190fd5b6000811161087e576040805162461bcd60e51b815260206004820152601a60248201527f466565206d7573742062652067726561746572207468616e2030000000000000604482015290519081900360640190fd5b6103e881106108d4576040805162461bcd60e51b815260206004820152601960248201527f466565206d757374206265206c657373207468616e2031302500000000000000604482015290519081900360640190fd5b600155565b600f5490565b60045481565b60115481565b6001600160a01b0381166000908152600e602052604081206008810154601554825461094592916109399164e8d4a510009161092d919063ffffffff61302216565b9063ffffffff61308416565b9063ffffffff6130c616565b9392505050565b604080517f70a08231000000000000000000000000000000000000000000000000000000008152336004820152905182916001600160a01b037f000000000000000000000000000000000000000000000000000000000000000016916370a0823191602480820192602092909190829003018186803b1580156109ce57600080fd5b505afa1580156109e2573d6000803e3d6000fd5b505050506040513d60208110156109f857600080fd5b50511015610a375760405162461bcd60e51b815260040180806020018281038252602681526020018061384c6026913960400191505060405180910390fd5b601654610a4a908263ffffffff61310816565b601655610a886001600160a01b037f00000000000000000000000000000000000000000000000000000000000000001633308463ffffffff61316216565b6016546040517f1ef37ab665f7c977b577275d7a49e72cd18d1143eccd1112f1198e4a39d1428c90600090a250565b600a5481565b604080517f70a08231000000000000000000000000000000000000000000000000000000008152336004820152905182916001600160a01b037f000000000000000000000000000000000000000000000000000000000000000016916370a0823191602480820192602092909190829003018186803b158015610b3f57600080fd5b505afa158015610b53573d6000803e3d6000fd5b505050506040513d6020811015610b6957600080fd5b50511015610ba85760405162461bcd60e51b815260040180806020018281038252602681526020018061384c6026913960400191505060405180910390fd5b60008111610bfd576040805162461bcd60e51b815260206004820152601660248201527f496e76616c6964207374616b696e6720616d6f756e7400000000000000000000604482015290519081900360640190fd5b600060165411610c54576040805162461bcd60e51b815260206004820152601560248201527f52657761726420506f6f6c204578686175737465640000000000000000000000604482015290519081900360640190fd5b610c5c6123b9565b610c646116aa565b610c9f6001600160a01b037f00000000000000000000000000000000000000000000000000000000000000001633308463ffffffff61316216565b601754610cab57436010555b336000908152600e602052604090206001810154610d2657436003820155600f805460018101825560008290527f8d1108e10bcb7c27dddfc02ed9d693a074039d026cf4ea4240b40f7d581ac80201805473ffffffffffffffffffffffffffffffffffffffff19163317905554600019016005820155610e08565b6000610d52826007015461093964e8d4a5100061092d601354876000015461302290919063ffffffff16565b90506000610d80836008015461093964e8d4a5100061092d601554886000015461302290919063ffffffff16565b9050610d92828263ffffffff61310816565b91508115610e0557610dd46001600160a01b037f000000000000000000000000000000000000000000000000000000000000000016338463ffffffff6131ea16565b6002830154610de9908363ffffffff61310816565b6002840155601854610e01908363ffffffff61310816565b6018555b50505b601754610e1b908363ffffffff61310816565b601755600a5460009015610e4b57610e4460175461092d600a548661302290919063ffffffff16565b9050610e4e565b50815b600a54610e61908263ffffffff61310816565b600a558154610e71574360038301555b610e8f64e8d4a5100061092d8360155461302290919063ffffffff16565b6008830155601354610eb29064e8d4a510009061092d908463ffffffff61302216565b60078301558154610ec9908263ffffffff61310816565b82556001820154610ee0908463ffffffff61310816565b6001830155504360049091015550565b610ef86123b9565b610f006116aa565b336000908152600e6020526040812060078101546013548254929392610f3c92916109399164e8d4a510009161092d919063ffffffff61302216565b90506000610f6a836008015461093964e8d4a5100061092d601554886000015461302290919063ffffffff16565b601654909150610f80908363ffffffff6130c616565b601655610f93828263ffffffff61310816565b4360038501556001840154601954919350901561101f57610fd9610fcc60175461092d876001015460195461302290919063ffffffff16565b829063ffffffff6130c616565b90508581101561101a5760405162461bcd60e51b81526004018080602001828103825260368152602001806137c26036913960400191505060405180910390fd5b611031565b60068401541561103157600060068501555b858110156110705760405162461bcd60e51b815260040180806020018281038252603f8152602001806136e1603f913960400191505060405180910390fd5b601754611083908763ffffffff6130c616565b601755600184015484546000916110a59161092d908a9063ffffffff61302216565b60018601549091506110bd908863ffffffff6130c616565b600186015584546110d4908263ffffffff6130c616565b8555600a546110e9908263ffffffff6130c616565b600a55601354855461110b9164e8d4a510009161092d9163ffffffff61302216565b6007860155601554855461112f9164e8d4a510009161092d9163ffffffff61302216565b60088601556019541561133e5760068501541561119a57600680549086015461115d9163ffffffff61310816565b421161119a5760405162461bcd60e51b81526004018080602001828103825260338152602001806138196033913960400191505060405180910390fd5b60006111b761271061092d6004548b61302290919063ffffffff16565b42600688015590506111cf888263ffffffff6130c616565b97506019548111156112a35760006111f2601954836130c690919063ffffffff16565b600b546040805163095ea7b360e01b81526001600160a01b0392831660048201526024810184905290519293507f00000000000000000000000000000000000000000000000000000000000000009091169163095ea7b3916044808201926020929091908290030181600087803b15801561126c57600080fd5b505af1158015611280573d6000803e3d6000fd5b505050506040513d602081101561129657600080fd5b50506000601955506112ba565b6019546112b6908263ffffffff6130c616565b6019555b600b54604080517f59c53fd40000000000000000000000000000000000000000000000000000000081526004810184905290516001600160a01b03909216916359c53fd49160248082019260009290919082900301818387803b15801561132057600080fd5b505af1158015611334573d6000803e3d6000fd5b50505050506113ca565b60085460048601546113559163ffffffff61310816565b4310156113ca57600061137961271061092d6003548b61302290919063ffffffff16565b905061138b888263ffffffff6130c616565b600d549098506113c8906001600160a01b037f000000000000000000000000000000000000000000000000000000000000000081169116836131ea565b505b6113da878563ffffffff61310816565b9650856114205761141b6001600160a01b037f000000000000000000000000000000000000000000000000000000000000000016338963ffffffff6131ea16565b611548565b600c546040805163095ea7b360e01b81526001600160a01b039283166004820152602481018a905290517f00000000000000000000000000000000000000000000000000000000000000009092169163095ea7b3916044808201926020929091908290030181600087803b15801561149757600080fd5b505af11580156114ab573d6000803e3d6000fd5b505050506040513d60208110156114c157600080fd5b5050600c54604080517f7efd3813000000000000000000000000000000000000000000000000000000008152600481018a905233602482015290516001600160a01b0390921691637efd38139160448082019260009290919082900301818387803b15801561152f57600080fd5b505af1158015611543573d6000803e3d6000fd5b505050505b600285015461155d908563ffffffff61310816565b6002860155601854611575908563ffffffff61310816565b601855600185015461166357600f5460058601546000199091011461162857600f80546000919060001981019081106115aa57fe5b9060005260206000200160009054906101000a90046001600160a01b0316905080600f8760050154815481106115dc57fe5b6000918252602080832091909101805473ffffffffffffffffffffffffffffffffffffffff19166001600160a01b03948516179055600589810154949093168252600e90526040902001555b600f80548061163357fe5b6000828152602090208101600019908101805473ffffffffffffffffffffffffffffffffffffffff191690550190555b6016546040517f1ef37ab665f7c977b577275d7a49e72cd18d1143eccd1112f1198e4a39d1428c90600090a250505050505050565b60095481565b60075481565b60105481565b600a546116b65761179f565b600b54604080517f45c9c1d100000000000000000000000000000000000000000000000000000000815290516000926001600160a01b0316916345c9c1d191600480830192602092919082900301818787803b15801561171557600080fd5b505af1158015611729573d6000803e3d6000fd5b505050506040513d602081101561173f57600080fd5b505190508061174e575061179f565b601a54611761908263ffffffff61310816565b601a55600a546000906117839061092d8464e8d4a5100063ffffffff61302216565b601554909150611799908263ffffffff61310816565b60155550505b565b600f81815481106117ae57fe5b6000918252602090912001546001600160a01b0316905081565b6117d061301e565b6000546001600160a01b03908116911614611832576040805162461bcd60e51b815260206004820181905260248201527f4f776e61626c653a2063616c6c6572206973206e6f7420746865206f776e6572604482015290519081900360640190fd5b60008111611887576040805162461bcd60e51b815260206004820152601a60248201527f466565206d7573742062652067726561746572207468616e2030000000000000604482015290519081900360640190fd5b6103e88111156118de576040805162461bcd60e51b815260206004820152601960248201527f466565206d757374206265206c657373207468616e2031302500000000000000604482015290519081900360640190fd5b600555565b601c5481565b60065481565b60085481565b60025481565b61190361301e565b6000546001600160a01b03908116911614611965576040805162461bcd60e51b815260206004820181905260248201527f4f776e61626c653a2063616c6c6572206973206e6f7420746865206f776e6572604482015290519081900360640190fd5b600081116119ba576040805162461bcd60e51b815260206004820152601b60248201527f54696d65206d7573742062652067726561746572207468616e20300000000000604482015290519081900360640190fd5b600855565b6119c761301e565b6000546001600160a01b03908116911614611a29576040805162461bcd60e51b815260206004820181905260248201527f4f776e61626c653a2063616c6c6572206973206e6f7420746865206f776e6572604482015290519081900360640190fd5b600080546040516001600160a01b03909116907f8be0079c531659141344cd1fd0a4f28419497f9722a3daafe3b4186f6b6457e0908390a36000805473ffffffffffffffffffffffffffffffffffffffff19169055565b611a8861301e565b6000546001600160a01b03908116911614611aea576040805162461bcd60e51b815260206004820181905260248201527f4f776e61626c653a2063616c6c6572206973206e6f7420746865206f776e6572604482015290519081900360640190fd5b60008111611b3f576040805162461bcd60e51b815260206004820152601260248201527f4c696d69742063616e206e6f7420626520300000000000000000000000000000604482015290519081900360640190fd5b601e8110611b7e5760405162461bcd60e51b815260040180806020018281038252602b815260200180613797602b913960400191505060405180910390fd5b601b55565b60175481565b6000546001600160a01b031690565b600b546001600160a01b03163314611bf7576040805162461bcd60e51b815260206004820152601760248201527f43616c6c6574206d7573742062652062616e6b726f6c6c000000000000000000604482015290519081900360640190fd5b601954601754611c0c9163ffffffff6130c616565b831115611c4a5760405162461bcd60e51b815260040180806020018281038252603d815260200180613872603d913960400191505060405180910390fd5b601954611c5d908463ffffffff61310816565b601955604080517ff62cf8d0000000000000000000000000000000000000000000000000000000008152600481018590526001600160a01b0384811660248301529151839283169163f62cf8d091604480830192600092919082900301818387803b158015611ccb57600080fd5b505af1158015611cdf573d6000803e3d6000fd5b50611d1f9250506001600160a01b037f0000000000000000000000000000000000000000000000000000000000000000169050838663ffffffff6131ea16565b611d276123b9565b611d2f6116aa565b50505050565b60135481565b436010541115611d92576040805162461bcd60e51b815260206004820181905260248201527f436f6d706f756e6420416c6c206e6f7420796574206170706c696361626c652e604482015290519081900360640190fd5b600060175411611de9576040805162461bcd60e51b815260206004820152601a60248201527f4e6f205374616b6564207265776172647320746f20636c61696d000000000000604482015290519081900360640190fd5b601154600f546000918291829182918110611e075750600f54600019015b600f54601b5481111580611e305750600f54601b54611e2d90849063ffffffff61310816565b10155b15611e3e5750600f54611e55565b601b54611e5290839063ffffffff61310816565b90505b611e5d6116aa565b611e656123b9565b815b818110156120bd576000600e6000600f8481548110611e8257fe5b60009182526020808320909101546001600160a01b03168352820192909252604001812060078101546013548254929450611ed1926109399164e8d4a510009161092d9163ffffffff61302216565b6007830154909150611ee9908263ffffffff61310816565b60078301558015611f0757611f04868263ffffffff61310816565b95505b6000611f33836008015461093964e8d4a5100061092d601554886000015461302290919063ffffffff16565b6008840154909150611f4b908263ffffffff61310816565b6008840155611f60828263ffffffff61310816565b9150811561209857601854611f7b908363ffffffff61310816565b601855600254600090611f9d906127109061092d90869063ffffffff61302216565b9050611faf8b8263ffffffff61310816565b9a506000611fce61271061092d6001548761302290919063ffffffff16565b9050611fe08a8263ffffffff61310816565b99506000611fff61271061092d6005548861302290919063ffffffff16565b90506120118c8263ffffffff61310816565b9b50612023858463ffffffff6130c616565b9450612035858363ffffffff6130c616565b9450612047858263ffffffff6130c616565b600287015490955061205f908663ffffffff61310816565b60028701556001860154612079908663ffffffff61310816565b6001870155601754612091908663ffffffff61310816565b6017555050505b4360038401556120af86600163ffffffff61310816565b601155505050600101611e67565b50600f54601154106120cf5760006011555b6016546120e2908463ffffffff6130c616565b60165543601055604080517f42966c680000000000000000000000000000000000000000000000000000000081526004810188905290516001600160a01b037f000000000000000000000000000000000000000000000000000000000000000016916342966c6891602480830192600092919082900301818387803b15801561216a57600080fd5b505af115801561217e573d6000803e3d6000fd5b506121be9250506001600160a01b037f0000000000000000000000000000000000000000000000000000000000000000169050338663ffffffff6131ea16565b600d546121f8906001600160a01b037f000000000000000000000000000000000000000000000000000000000000000081169116876131ea565b505050505050565b61220861301e565b6000546001600160a01b0390811691161461226a576040805162461bcd60e51b815260206004820181905260248201527f4f776e61626c653a2063616c6c6572206973206e6f7420746865206f776e6572604482015290519081900360640190fd5b600c546001600160a01b0316156122c8576040805162461bcd60e51b815260206004820152601f60248201527f4c6976652057616c6c6574206164647265737320616c72656164792073657400604482015290519081900360640190fd5b600c805473ffffffffffffffffffffffffffffffffffffffff19166001600160a01b0392909216919091179055565b6122ff61301e565b6000546001600160a01b03908116911614612361576040805162461bcd60e51b815260206004820181905260248201527f4f776e61626c653a2063616c6c6572206973206e6f7420746865206f776e6572604482015290519081900360640190fd5b678ac7230489e800008111156123a85760405162461bcd60e51b81526004018080602001828103825260278152602001806137706027913960400191505060405180910390fd5b601255565b60035481565b60145481565b60145443116123c75761179f565b6017546123d7574360145561179f565b601254601954156124125761240f61240261271061092d60095460125461302290919063ffffffff16565b829063ffffffff61310816565b90505b60165461241d575060005b6000612434601454436130c690919063ffffffff16565b90506000612466600a5461092d64e8d4a5100061245a878761302290919063ffffffff16565b9063ffffffff61302216565b60135490915061247c908263ffffffff61310816565b60135550504360145550565b60155481565b7f000000000000000000000000000000000000000000000000000000000000000081565b6103e881565b60015481565b6124c661301e565b6000546001600160a01b03908116911614612528576040805162461bcd60e51b815260206004820181905260248201527f4f776e61626c653a2063616c6c6572206973206e6f7420746865206f776e6572604482015290519081900360640190fd5b600b546001600160a01b031615612586576040805162461bcd60e51b815260206004820152601c60248201527f42616e6b726f6c6c206164647265737320616c72656164792073657400000000604482015290519081900360640190fd5b600b805473ffffffffffffffffffffffffffffffffffffffff19166001600160a01b0392909216919091179055565b6125bd61301e565b6000546001600160a01b0390811691161461261f576040805162461bcd60e51b815260206004820181905260248201527f4f776e61626c653a2063616c6c6572206973206e6f7420746865206f776e6572604482015290519081900360640190fd5b60008111612674576040805162461bcd60e51b815260206004820152601a60248201527f466565206d7573742062652067726561746572207468616e2030000000000000604482015290519081900360640190fd5b6103e881106126ca576040805162461bcd60e51b815260206004820152601960248201527f466565206d757374206265206c657373207468616e2031302500000000000000604482015290519081900360640190fd5b600355565b6126d761301e565b6000546001600160a01b03908116911614612739576040805162461bcd60e51b815260206004820181905260248201527f4f776e61626c653a2063616c6c6572206973206e6f7420746865206f776e6572604482015290519081900360640190fd5b6000811161278e576040805162461bcd60e51b815260206004820152601a60248201527f466565206d7573742062652067726561746572207468616e2030000000000000604482015290519081900360640190fd5b6103e881106127e4576040805162461bcd60e51b815260206004820152601960248201527f466565206d757374206265206c657373207468616e2031302500000000000000604482015290519081900360640190fd5b600255565b60125481565b60185481565b6127fd6123b9565b6128056116aa565b336000908152600e602052604081206007810154601354825492939261284192916109399164e8d4a510009161092d919063ffffffff61302216565b9050600061286f836008015461093964e8d4a5100061092d601554886000015461302290919063ffffffff16565b601654909150612885908363ffffffff6130c616565b60165543600384015561289e828263ffffffff61310816565b600184015460195491935090156128d8576128d1610fcc60175461092d876001015460195461302290919063ffffffff16565b90506128ea565b6006840154156128ea57600060068501555b6017546128fd908263ffffffff6130c616565b6017556001840154845460009161291f9161092d90859063ffffffff61302216565b6001860154909150612937908363ffffffff6130c616565b6001860155845461294e908263ffffffff6130c616565b8555600a54612963908263ffffffff6130c616565b600a5560135485546129859164e8d4a510009161092d9163ffffffff61302216565b600786015560155485546129a99164e8d4a510009161092d9163ffffffff61302216565b600886015560195415612b7457600685015415612a145760068054908601546129d79163ffffffff61310816565b4211612a145760405162461bcd60e51b81526004018080602001828103825260338152602001806138196033913960400191505060405180910390fd5b6000612a3161271061092d6004548661302290919063ffffffff16565b4260068801559050612a49838263ffffffff6130c616565b9250601954811115612b1d576000612a6c601954836130c690919063ffffffff16565b600b546040805163095ea7b360e01b81526001600160a01b0392831660048201526024810184905290519293507f00000000000000000000000000000000000000000000000000000000000000009091169163095ea7b3916044808201926020929091908290030181600087803b158015612ae657600080fd5b505af1158015612afa573d6000803e3d6000fd5b505050506040513d6020811015612b1057600080fd5b5050600060195550612b34565b601954612b30908263ffffffff6130c616565b6019555b600d54612b6e906001600160a01b037f000000000000000000000000000000000000000000000000000000000000000081169116836131ea565b50612c00565b6008546004860154612b8b9163ffffffff61310816565b431015612c00576000612baf61271061092d6003548661302290919063ffffffff16565b9050612bc1838263ffffffff6130c616565b600d54909350612bfe906001600160a01b037f000000000000000000000000000000000000000000000000000000000000000081169116836131ea565b505b612c10828563ffffffff61310816565b9150612c4c6001600160a01b037f000000000000000000000000000000000000000000000000000000000000000016338463ffffffff6131ea16565b6001850154612d3757600f54600586015460001990910114612cfc57600f8054600091906000198101908110612c7e57fe5b9060005260206000200160009054906101000a90046001600160a01b0316905080600f876005015481548110612cb057fe5b6000918252602080832091909101805473ffffffffffffffffffffffffffffffffffffffff19166001600160a01b03948516179055600589810154949093168252600e90526040902001555b600f805480612d0757fe5b6000828152602090208101600019908101805473ffffffffffffffffffffffffffffffffffffffff191690550190555b6016546040517f1ef37ab665f7c977b577275d7a49e72cd18d1143eccd1112f1198e4a39d1428c90600090a25050505050565b600e6020528060005260406000206000915090508060000154908060010154908060020154908060030154908060040154908060050154908060060154908060070154908060080154905089565b600b546001600160a01b03163314612e17576040805162461bcd60e51b815260206004820152601760248201527f43616c6c6572206d7573742062652062616e6b726f6c6c000000000000000000604482015290519081900360640190fd5b601954811115612e585760405162461bcd60e51b815260040180806020018281038252603c8152602001806136a5603c913960400191505060405180910390fd5b601954612e6b908263ffffffff6130c616565b601955612e766123b9565b612e7e6116aa565b50565b600c546001600160a01b031681565b601b5481565b60165481565b612ea461301e565b6000546001600160a01b03908116911614612f06576040805162461bcd60e51b815260206004820181905260248201527f4f776e61626c653a2063616c6c6572206973206e6f7420746865206f776e6572604482015290519081900360640190fd5b612e7e8161326f565b6001600160a01b0381166000908152600e6020526040812060125460195415612f5557612f5261240261271061092d60095460125461302290919063ffffffff16565b90505b601654612f60575060005b60135460145443118015612f755750600a5415155b15612fd2576000612f91601454436130c690919063ffffffff16565b90506000612fb7600a5461092d64e8d4a5100061245a888761302290919063ffffffff16565b601354909150612fcd908263ffffffff61310816565b925050505b612ffa836007015461093964e8d4a5100061092d85886000015461302290919063ffffffff16565b95945050505050565b600d546001600160a01b031681565b678ac7230489e8000081565b3390565b6000826130315750600061307e565b8282028284828161303e57fe5b041461307b5760405162461bcd60e51b81526004018080602001828103825260218152602001806137f86021913960400191505060405180910390fd5b90505b92915050565b600061307b83836040518060400160405280601a81526020017f536166654d6174683a206469766973696f6e206279207a65726f00000000000081525061331c565b600061307b83836040518060400160405280601e81526020017f536166654d6174683a207375627472616374696f6e206f766572666c6f7700008152506133be565b60008282018381101561307b576040805162461bcd60e51b815260206004820152601b60248201527f536166654d6174683a206164646974696f6e206f766572666c6f770000000000604482015290519081900360640190fd5b604080516001600160a01b0380861660248301528416604482015260648082018490528251808303909101815260849091019091526020810180517bffffffffffffffffffffffffffffffffffffffffffffffffffffffff167f23b872dd00000000000000000000000000000000000000000000000000000000179052611d2f908590613418565b604080516001600160a01b038416602482015260448082018490528251808303909101815260649091019091526020810180517bffffffffffffffffffffffffffffffffffffffffffffffffffffffff167fa9059cbb0000000000000000000000000000000000000000000000000000000017905261326a908490613418565b505050565b6001600160a01b0381166132b45760405162461bcd60e51b815260040180806020018281038252602681526020018061374a6026913960400191505060405180910390fd5b600080546040516001600160a01b03808516939216917f8be0079c531659141344cd1fd0a4f28419497f9722a3daafe3b4186f6b6457e091a36000805473ffffffffffffffffffffffffffffffffffffffff19166001600160a01b0392909216919091179055565b600081836133a85760405162461bcd60e51b81526004018080602001828103825283818151815260200191508051906020019080838360005b8381101561336d578181015183820152602001613355565b50505050905090810190601f16801561339a5780820380516001836020036101000a031916815260200191505b509250505060405180910390fd5b5060008385816133b457fe5b0495945050505050565b600081848411156134105760405162461bcd60e51b815260206004820181815283516024840152835190928392604490910191908501908083836000831561336d578181015183820152602001613355565b505050900390565b606061346d826040518060400160405280602081526020017f5361666542455032303a206c6f772d6c6576656c2063616c6c206661696c6564815250856001600160a01b03166134c99092919063ffffffff16565b80519091501561326a5780806020019051602081101561348c57600080fd5b505161326a5760405162461bcd60e51b815260040180806020018281038252602a815260200180613720602a913960400191505060405180910390fd5b60606134d884846000856134e0565b949350505050565b60606134eb8561366b565b61353c576040805162461bcd60e51b815260206004820152601d60248201527f416464726573733a2063616c6c20746f206e6f6e2d636f6e7472616374000000604482015290519081900360640190fd5b60006060866001600160a01b031685876040518082805190602001908083835b6020831061359957805182527fffffffffffffffffffffffffffffffffffffffffffffffffffffffffffffffe0909201916020918201910161355c565b6001836020036101000a03801982511681845116808217855250505050505090500191505060006040518083038185875af1925050503d80600081146135fb576040519150601f19603f3d011682016040523d82523d6000602084013e613600565b606091505b509150915081156136145791506134d89050565b8051156136245780518082602001fd5b60405162461bcd60e51b815260206004820181815286516024840152865187939192839260440191908501908083836000831561336d578181015183820152602001613355565b6000813f7fc5d2460186f7233c927e7db2dcc703c0e500b653ca82273b7bfad8045d85a4708181148015906134d857505015159291505056fe756e667265657a6520616d6f756e742063616e742062652067726561746572207468616e2063757272656e746c792066726f7a656e20616d6f756e74576974686472617720616d6f756e742063616e206e6f742062652067726561746572207468616e20617661696c61626c65207374616b656420616d6f756e745361666542455032303a204245503230206f7065726174696f6e20646964206e6f7420737563636565644f776e61626c653a206e6577206f776e657220697320746865207a65726f206164647265737343727573682050657220426c6f636b2063616e206e6f74206265206d6f7265207468616e2031304d6178206175746f636f6d706f756e64206c696d69742063616e6e6f74206265206772656174657220333046726f7a656e2046756e64733a2043616e2774207769746864726177206d6f7265207468616e20417661696c61626c652066756e6473536166654d6174683a206d756c7469706c69636174696f6e206f766572666c6f774f6e6c79204f6e6520576974686472617720616c6c6f77656420706572203320686f75727320647572696e6720667265657a65496e73756666696369656e7420437275736820746f6b656e7320666f72207472616e73666572467265657a6520616d6f756e742073686f756c64206265206c657373207468616e206f7220657175616c20746f20617661696c61626c652066756e6473a264697066735822122090d38dfce619c15fc21aad9cc0b7fda3fdf9d6d915060c444bbf0aca110de3d864736f6c63430006050033",
  "immutableReferences": {
    "1952": [
      {
        "length": 32,
        "start": 2439
      },
      {
        "length": 32,
        "start": 2650
      },
      {
        "length": 32,
        "start": 2808
      },
      {
        "length": 32,
        "start": 3185
      },
      {
        "length": 32,
        "start": 3495
      },
      {
        "length": 32,
        "start": 4641
      },
      {
        "length": 32,
        "start": 5023
      },
      {
        "length": 32,
        "start": 5102
      },
      {
        "length": 32,
        "start": 5196
      },
      {
        "length": 32,
        "start": 7408
      },
      {
        "length": 32,
        "start": 8483
      },
      {
        "length": 32,
        "start": 8591
      },
      {
        "length": 32,
        "start": 8655
      },
      {
        "length": 32,
        "start": 9360
      },
      {
        "length": 32,
        "start": 10907
      },
      {
        "length": 32,
        "start": 11077
      },
      {
        "length": 32,
        "start": 11221
      },
      {
        "length": 32,
        "start": 11295
      }
    ]
  },
  "source": "//SPDX-License-Identifier: MIT\npragma solidity >=0.6.5;\n\nimport \"@pancakeswap/pancake-swap-lib/contracts/access/Ownable.sol\";\nimport \"./CrushCoin.sol\";\nimport \"@pancakeswap/pancake-swap-lib/contracts/math/SafeMath.sol\";\nimport \"@pancakeswap/pancake-swap-lib/contracts/token/BEP20/SafeBEP20.sol\";\nimport \"./HouseBankroll.sol\";\nimport \"./LiveWallet.sol\";\ncontract BitcrushStaking is Ownable {\n    using SafeMath for uint256;\n    using SafeBEP20 for CRUSHToken;\n    uint256 public constant MAX_CRUSH_PER_BLOCK = 10000000000000000000;\n    uint256 public constant MAX_FEE = 1000; // 1000/10000 * 100 = 10%\n    uint256 public performanceFeeCompounder = 10; // 10/10000 * 100 = 0.1%\n    uint256 public performanceFeeBurn       = 100; // 100/10000 * 100 = 1%\n    uint256 public constant divisor = 10000;\n    \n    uint256  public earlyWithdrawFee         = 50; // 50/10000 * 100 = 0.5% \n    uint256  public frozenEarlyWithdrawFee   = 1500; // 50/10000 * 100 = 15% \n    uint256  public performanceFeeReserve    = 190; // 190/10000 * 100 = 1.9%\n    \n    uint256  public frozenEarlyWithdrawFeeTime   = 10800;\n\n    \n    uint256 public blockPerSecond = 3;\n    uint256 public earlyWithdrawFeeTime = 72 * 60 * 60 / blockPerSecond;\n    uint256 public apyBoost = 2500; //2500/10000 * 100 = 25%\n    uint256 public totalShares;\n\n    // Contracts to Interact with\n    CRUSHToken public immutable crush;\n    BitcrushBankroll public bankroll;\n    BitcrushLiveWallet public liveWallet;\n    // Team address to maintain funds\n    address public reserveAddress;\n    \n    struct UserStaking {\n        uint256 shares;\n        uint256 stakedAmount;\n        uint256 claimedAmount;\n        uint256 lastBlockCompounded;\n        uint256 lastBlockStaked;\n        uint256 index;\n        uint256 lastFrozenWithdraw;\n        uint256 apyBaseline;\n        uint256 profitBaseline;\n    }\n    mapping (address => UserStaking) public stakings;\n    address[] public addressIndexes;\n\n    uint256 public lastAutoCompoundBlock;\n\n    uint256 public batchStartingIndex;\n    uint256 public crushPerBlock = 5500000000000000000;\n    // Pool Accumulated Reward Per Share (APY)\n    uint256 public accRewardPerShare;\n    uint256 public lastRewardBlock;\n    // Profit Accumulated Reward Per Share\n    uint256 public accProfitPerShare;\n    // Tracking Totals\n    uint256 public totalPool; // Reward for Staking\n    uint256 public totalStaked;\n    uint256 public totalClaimed; // Total Claimed as rewards\n    uint256 public totalFrozen;\n    uint256 public totalProfitDistributed; // Total Claimed as Profits\n    \n    uint256 public autoCompoundLimit = 10; // Max Batch Size\n\n    uint256 public deploymentTimeStamp;\n\n    event RewardPoolUpdated (uint256 indexed _totalPool);\n    event StakeUpdated (address indexed recipeint, uint256 indexed _amount);\n    \n    constructor (CRUSHToken _crush, uint256 _crushPerBlock, address _reserveAddress) public{\n        crush = _crush;\n        if(_crushPerBlock <= MAX_CRUSH_PER_BLOCK){\n            crushPerBlock = _crushPerBlock;\n        }\n    \n        reserveAddress = _reserveAddress;\n        lastAutoCompoundBlock = 0;\n        deploymentTimeStamp = block.timestamp;\n        accRewardPerShare = 0;\n        accProfitPerShare = 0;\n        lastRewardBlock = block.number;\n    }\n    /// Store `_bankroll`.\n    /// @param _bankroll the new value to store\n    /// @dev stores the _bankroll address in the state variable `bankroll`\n    function setBankroll (BitcrushBankroll _bankroll) public onlyOwner{\n        require(bankroll == BitcrushBankroll(0x0), \"Bankroll address already set\");\n        bankroll = _bankroll;\n    }\n\n    /// Store `_liveWallet`.\n    /// @param _liveWallet the new value to store\n    /// @dev stores the _liveWallet address in the state variable `liveWallet`\n    function setLiveWallet (BitcrushLiveWallet _liveWallet) public onlyOwner{\n        require(liveWallet == BitcrushLiveWallet(0x0), \"Live Wallet address already set\");\n        liveWallet = _liveWallet;\n    }\n\n    /// Adds the provided amount to the totalPool\n    /// @param _amount the amount to add\n    /// @dev adds the provided amount to `totalPool` state variable\n    function addRewardToPool (uint256 _amount) public  {\n        require(crush.balanceOf(msg.sender) >= _amount, \"Insufficient Crush tokens for transfer\");\n        totalPool = totalPool.add(_amount);\n        crush.safeTransferFrom(msg.sender, address(this), _amount);\n        emit RewardPoolUpdated(totalPool);\n    }\n\n    /// @notice updates accRewardPerShare based on the last block calculated and totalShares\n    /// @dev accRewardPerShare is accumulative, meaning it always holds the total historic \n    /// rewardPerShare making apyBaseline necessary to keep rewards fair\n    function updateDistribution() public {\n        if(block.number <= lastRewardBlock)\n            return;\n        if(totalStaked == 0){\n            lastRewardBlock = block.number;\n            return;\n        }\n        uint256 rewardPerBlock = crushPerBlock;\n        if(totalFrozen > 0)\n            rewardPerBlock = rewardPerBlock.add(crushPerBlock.mul(apyBoost).div(divisor));\n        if(totalPool == 0)\n            rewardPerBlock = 0;\n        uint256 blocksSinceCalc = block.number.sub(lastRewardBlock);\n        uint256 rewardCalc = blocksSinceCalc.mul(rewardPerBlock).mul(1e12).div(totalShares);\n        accRewardPerShare = accRewardPerShare.add( rewardCalc );\n        lastRewardBlock = block.number;\n    }\n\n    /// @notice updates accProfitPerShare based on current Profit available and totalShares\n    /// @dev this allows for consistent profit reporting and no change on profits to distribute\n    function updateProfits() public {\n        if(totalShares == 0)\n            return;\n        uint256 requestedProfits = bankroll.transferProfit();\n        if(requestedProfits == 0)\n            return;\n        totalProfitDistributed = totalProfitDistributed.add(requestedProfits);\n        uint256 profitCalc = requestedProfits.mul(1e12).div(totalShares);\n        accProfitPerShare = accProfitPerShare.add( profitCalc );\n    }\n\n    \n    function setCrushPerBlock (uint256 _amount) public onlyOwner {\n        require(_amount >= 0, \"Crush per Block can not be negative\" );\n        require(_amount <= MAX_CRUSH_PER_BLOCK, \"Crush Per Block can not be more than 10\");\n        crushPerBlock = _amount;\n    }\n\n\n    /// Stake the provided amount\n    /// @param _amount the amount to stake\n    /// @dev stakes the provided amount\n    function enterStaking (uint256 _amount) public  {\n        require(crush.balanceOf(msg.sender) >= _amount, \"Insufficient Crush tokens for transfer\");\n        require(_amount > 0,\"Invalid staking amount\");\n        require(totalPool > 0, \"Reward Pool Exhausted\");\n        \n        updateDistribution();\n        updateProfits();\n        crush.safeTransferFrom(msg.sender, address(this), _amount);\n        if(totalStaked == 0){\n            lastAutoCompoundBlock = block.number;\n        }\n        UserStaking storage user = stakings[msg.sender];\n\n        if(user.stakedAmount == 0) {\n            user.lastBlockCompounded = block.number;\n            addressIndexes.push(msg.sender);\n            user.index = addressIndexes.length-1;\n        }\n        else {\n            uint256 pending = user.shares.mul(accRewardPerShare).div(1e12).sub(user.apyBaseline);\n            uint256 profitPending = user.shares.mul(accProfitPerShare).div(1e12).sub(user.profitBaseline);\n            pending = pending.add(profitPending);\n            if( pending > 0) {\n                crush.safeTransfer(msg.sender, pending);\n                user.claimedAmount = user.claimedAmount.add(pending);\n                totalClaimed = totalClaimed.add(pending);\n            }\n        }\n        \n        totalStaked = totalStaked.add(_amount);\n\n        uint256 currentShares = 0;\n        if (totalShares != 0)\n            currentShares = _amount.mul(totalShares).div(totalStaked);\n        else\n            currentShares = _amount;\n\n        totalShares = totalShares.add(currentShares);\n        if( user.shares == 0){\n            user.lastBlockCompounded = block.number;\n        }\n        user.profitBaseline = accProfitPerShare.mul(currentShares).div(1e12);\n        user.apyBaseline = accRewardPerShare.mul(currentShares).div(1e12);\n        user.shares = user.shares.add(currentShares);\n        user.stakedAmount = user.stakedAmount.add(_amount);\n        user.lastBlockStaked = block.number;\n    }\n\n\n\n    /// Leaves staking for a user by the specified amount and transfering staked amount and reward to users address\n    /// @param _amount the amount to unstake\n    /// @dev leaves staking and deducts total pool by the users reward. early withdrawal fee applied if withdraw is made before earlyWithdrawFeeTime\n    function leaveStaking (uint256 _amount, bool _liveWallet) external  {\n        \n        updateDistribution();\n        updateProfits();\n        UserStaking storage user = stakings[msg.sender];\n        uint256 reward = user.shares.mul(accRewardPerShare).div(1e12).sub(user.apyBaseline);\n        uint256 profitShare = user.shares.mul(accProfitPerShare).div(1e12).sub(user.profitBaseline);\n        totalPool = totalPool.sub(reward);\n        reward = reward.add(profitShare);\n        user.lastBlockCompounded = block.number;\n        \n        uint256 availableStaked = user.stakedAmount;\n        if(totalFrozen > 0){\n            availableStaked = availableStaked.sub(totalFrozen.mul(user.stakedAmount).div(totalStaked));\n            require(availableStaked >= _amount, \"Frozen Funds: Can't withdraw more than Available funds\");\n        }else if(user.lastFrozenWithdraw > 0){\n            user.lastFrozenWithdraw = 0;\n        }\n        require(availableStaked >= _amount, \"Withdraw amount can not be greater than available staked amount\");\n        totalStaked = totalStaked.sub(_amount);\n        \n        uint256 shareReduction = _amount.mul( user.shares ).div( user.stakedAmount );\n        user.stakedAmount = user.stakedAmount.sub(_amount);\n        user.shares = user.shares.sub( shareReduction );\n        totalShares = totalShares.sub( shareReduction );\n        user.apyBaseline = user.shares.mul(accRewardPerShare).div(1e12);\n        user.profitBaseline = user.shares.mul(accProfitPerShare).div(1e12);\n        if(totalFrozen > 0 ){\n            if(user.lastFrozenWithdraw > 0 ) \n                require(block.timestamp > user.lastFrozenWithdraw.add(frozenEarlyWithdrawFeeTime),\"Only One Withdraw allowed per 3 hours during freeze\");\n            \n            uint256 withdrawalFee = _amount.mul(frozenEarlyWithdrawFee).div(divisor);\n            user.lastFrozenWithdraw = block.timestamp;\n            _amount = _amount.sub(withdrawalFee);\n            \n            if(withdrawalFee > totalFrozen){\n                uint256 remainder = withdrawalFee.sub(totalFrozen);\n                crush.approve(address(bankroll), remainder);\n                totalFrozen = 0;\n            }else\n                totalFrozen = totalFrozen.sub(withdrawalFee);\n            \n            bankroll.recoverBankroll(withdrawalFee);\n            \n        }\n        else if(block.number < user.lastBlockStaked.add(earlyWithdrawFeeTime)){\n            //apply fee\n            uint256 withdrawalFee = _amount.mul(earlyWithdrawFee).div(divisor);\n            _amount = _amount.sub(withdrawalFee);\n            crush.safeTransfer(reserveAddress, withdrawalFee);\n        }\n        _amount = _amount.add(reward);\n        if(_liveWallet == false)\n            crush.safeTransfer(msg.sender, _amount);\n        else  {\n            crush.approve(address(liveWallet), _amount);\n            liveWallet.addbetWithAddress(_amount, msg.sender);\n        }\n        user.claimedAmount = user.claimedAmount.add(reward);\n        totalClaimed = totalClaimed.add(reward);\n        //remove from batchig array\n        if(user.stakedAmount == 0){\n            if(user.index != addressIndexes.length-1){\n                address lastAddress = addressIndexes[addressIndexes.length-1];\n                addressIndexes[user.index] = lastAddress;\n                stakings[lastAddress].index = user.index;\n            }\n            addressIndexes.pop();\n        }\n        emit RewardPoolUpdated(totalPool);\n    }\n\n    /// Get pending rewards of a user for UI\n    /// @param _address the address to calculate the reward for\n    /// @dev calculates potential reward for the address provided based on crush per block\n    function pendingReward (address _address) external view returns (uint256){\n        UserStaking storage user = stakings[_address];\n        uint256 rewardPerBlock = crushPerBlock;\n        if(totalFrozen > 0)\n            rewardPerBlock = rewardPerBlock.add(crushPerBlock.mul(apyBoost).div(divisor));\n        if(totalPool == 0)\n            rewardPerBlock = 0;\n        uint256 localAccRewardPerShare = accRewardPerShare;\n        if(block.number > lastRewardBlock && totalShares !=0){\n            uint256 blocksSinceCalc = block.number.sub(lastRewardBlock);\n            uint256 rewardCalc = blocksSinceCalc.mul(rewardPerBlock).mul(1e12).div(totalShares);\n            localAccRewardPerShare = accRewardPerShare.add( rewardCalc );\n        }\n        return user.shares.mul(localAccRewardPerShare).div(1e12).sub(user.apyBaseline);\n    }\n\n    /// Get pending Profits to Claim\n    /// @param _address the user's wallet address to calculate profits\n    /// @return pending Profits to be claimed by this user\n    function pendingProfits(address _address) public view returns(uint256) {\n        UserStaking storage user = stakings[_address];\n        return user.shares.mul(accProfitPerShare).div(1e12).sub(user.profitBaseline);\n    }\n\n   \n\n    /// compounds the rewards of all users in the pool\n    /// @dev compounds the rewards of all users in the pool add adds it into their staked amount while deducting fees\n    function compoundAll () public  {\n        require(lastAutoCompoundBlock <= block.number, \"Compound All not yet applicable.\");\n        require(totalStaked > 0, \"No Staked rewards to claim\" );\n        uint256 crushToBurn = 0;\n        uint256 performanceFee = 0;\n        \n        uint256 compounderReward = 0;\n        uint totalPoolDeducted = 0;\n\n        uint256 batchStart = batchStartingIndex;\n        if( batchStartingIndex >= addressIndexes.length )\n            batchStart = addressIndexes.length - 1;\n        \n        uint256 batchLimit = addressIndexes.length;\n        if(addressIndexes.length <= autoCompoundLimit || batchStart.add(autoCompoundLimit) >= addressIndexes.length)\n            batchLimit = addressIndexes.length;\n        else\n            batchLimit = batchStart.add(autoCompoundLimit);\n\n        updateProfits();\n        updateDistribution();\n        for(uint256 i=batchStart; i < batchLimit; i++){\n            UserStaking storage currentUser = stakings[addressIndexes[i]];\n            uint256 stakerReward = currentUser.shares.mul(accRewardPerShare).div(1e12).sub(currentUser.apyBaseline);\n            currentUser.apyBaseline = currentUser.apyBaseline.add(stakerReward);\n            if(stakerReward > 0)\n                totalPoolDeducted = totalPoolDeducted.add(stakerReward);\n            uint256 profitReward = currentUser.shares.mul(accProfitPerShare).div(1e12).sub(currentUser.profitBaseline);\n            currentUser.profitBaseline = currentUser.profitBaseline.add(profitReward);\n            stakerReward = stakerReward.add(profitReward);\n            if(stakerReward > 0){\n                totalClaimed = totalClaimed.add(stakerReward);\n                uint256 stakerBurn = stakerReward.mul(performanceFeeBurn).div(divisor);\n                crushToBurn = crushToBurn.add(stakerBurn);\n            \n                uint256 cpAllReward = stakerReward.mul(performanceFeeCompounder).div(divisor);\n                compounderReward = compounderReward.add(cpAllReward);\n            \n                uint256 feeReserve = stakerReward.mul(performanceFeeReserve).div(divisor);\n                performanceFee = performanceFee.add(feeReserve);\n                stakerReward = stakerReward.sub(stakerBurn);\n                stakerReward = stakerReward.sub(cpAllReward);\n                stakerReward = stakerReward.sub(feeReserve);\n                currentUser.claimedAmount = currentUser.claimedAmount.add(stakerReward);\n                currentUser.stakedAmount = currentUser.stakedAmount.add(stakerReward);\n                \n                totalStaked = totalStaked.add(stakerReward);\n            }    \n            currentUser.lastBlockCompounded = block.number;\n            batchStartingIndex = batchStart.add(1);\n                        \n        }\n        if(batchStartingIndex >= addressIndexes.length){\n            batchStartingIndex = 0;\n        }\n        totalPool = totalPool.sub(totalPoolDeducted);\n        lastAutoCompoundBlock = block.number;\n        crush.burn(crushToBurn);\n        crush.safeTransfer(msg.sender, compounderReward);\n        crush.safeTransfer(reserveAddress, performanceFee);\n        \n    }\n\n    /// freeze certain funds in the staking pool and transfer them to the live wallet address\n    /// @dev adds the provided amount to the total frozen variablle\n    function freezeStaking (uint256 _amount, address _recipient, address _lwAddress) public  {\n        require(msg.sender == address(bankroll), \"Callet must be bankroll\");\n        //divide amount over users\n        //update user mapping to reflect frozen amount\n         require(_amount <= totalStaked.sub(totalFrozen), \"Freeze amount should be less than or equal to available funds\");\n         totalFrozen = totalFrozen.add(_amount);\n         BitcrushLiveWallet currentLw = BitcrushLiveWallet(_lwAddress);\n         currentLw.addToUserWinnings(_amount, _recipient);\n         crush.safeTransfer(address(_lwAddress), _amount);\n         updateDistribution();\n         updateProfits();\n    }\n    \n    /// unfreeze previously frozen funds from the staking pool\n    /// @dev deducts the provided amount from the total frozen variablle\n    function unfreezeStaking (uint256 _amount) public {\n        require(msg.sender == address(bankroll), \"Caller must be bankroll\");\n         require(_amount <= totalFrozen, \"unfreeze amount cant be greater than currently frozen amount\");\n         totalFrozen = totalFrozen.sub(_amount);\n         updateDistribution();\n         updateProfits();\n    }\n\n\n\n    /// returns the total count of users in the staking pool.\n    /// @dev returns the total stakers in the staking pool by reading length of addressIndexes array\n    function indexesLength() external view returns(uint256 _addressesLength){\n        _addressesLength = addressIndexes.length;\n    }\n\n    /// Store `_fee`.\n    /// @param _fee the new value to store\n    /// @dev stores the fee in the state variable `performanceFeeCompounder`\n    function setPerformanceFeeCompounder (uint256 _fee) public onlyOwner{\n        require(_fee > 0, \"Fee must be greater than 0\");\n        require(_fee < MAX_FEE, \"Fee must be less than 10%\");\n        performanceFeeCompounder = _fee;\n    }\n\n    /// Store `_fee`.\n    /// @param _fee the new value to store\n    /// @dev stores the fee in the state variable `performanceFeeBurn`\n    function setPerformanceFeeBurn (uint256 _fee) public onlyOwner {\n        require(_fee > 0, \"Fee must be greater than 0\");\n        require(_fee < MAX_FEE, \"Fee must be less than 10%\");\n        performanceFeeBurn = _fee;\n    }\n\n    /// Store `_fee`.\n    /// @param _fee the new value to store\n    /// @dev stores the fee in the state variable `earlyWithdrawFee`\n    function setEarlyWithdrawFee (uint256 _fee) public onlyOwner {\n        require(_fee > 0, \"Fee must be greater than 0\");\n        require(_fee < MAX_FEE, \"Fee must be less than 10%\");\n        earlyWithdrawFee = _fee;\n    }\n\n\n    /// Store `_fee`.\n    /// @param _fee the new value to store\n    /// @dev stores the fee in the state variable `performanceFeeReserve`\n    function setPerformanceFeeReserve (uint256 _fee) public onlyOwner {\n        require(_fee > 0, \"Fee must be greater than 0\");\n        require(_fee <= MAX_FEE, \"Fee must be less than 10%\");\n        performanceFeeReserve = _fee;\n    }\n\n    /// Store `_time`.\n    /// @param _time the new value to store\n    /// @dev stores the time in the state variable `earlyWithdrawFeeTime`\n    function setEarlyWithdrawFeeTime (uint256 _time) public onlyOwner {\n        require(_time > 0, \"Time must be greater than 0\");\n        earlyWithdrawFeeTime = _time;\n    }\n    /// Store `_limit`.\n    /// @param _limit the new value to store\n    /// @dev stores the limit in the state variable `autoCompoundLimit`\n    function setAutoCompoundLimit (uint256 _limit) public onlyOwner {\n        require(_limit > 0, \"Limit can not be 0\");\n        require(_limit < 30, \"Max autocompound limit cannot be greater 30\");\n        autoCompoundLimit = _limit;\n    }\n\n\n    /// emergency withdraw funds of users\n    /// @dev transfer all available funds of users to users wallet\n    function emergencyWithdraw () public {\n        \n        updateDistribution();\n        updateProfits();\n        UserStaking storage user = stakings[msg.sender];\n        uint256 reward = user.shares.mul(accRewardPerShare).div(1e12).sub(user.apyBaseline);\n        uint256 profitShare = user.shares.mul(accProfitPerShare).div(1e12).sub(user.profitBaseline);\n        totalPool = totalPool.sub(reward);\n        user.lastBlockCompounded = block.number;\n        reward = reward.add(profitShare);\n        uint256 availableStaked = user.stakedAmount;\n        if(totalFrozen > 0){\n            availableStaked = availableStaked.sub(totalFrozen.mul(user.stakedAmount).div(totalStaked));\n        }else if(user.lastFrozenWithdraw > 0){\n            user.lastFrozenWithdraw = 0;\n        }\n        \n        totalStaked = totalStaked.sub(availableStaked);\n        \n        uint256 shareReduction = availableStaked.mul( user.shares ).div( user.stakedAmount );\n        user.stakedAmount = user.stakedAmount.sub(availableStaked);\n        user.shares = user.shares.sub( shareReduction );\n        totalShares = totalShares.sub( shareReduction );\n        user.apyBaseline = user.shares.mul(accRewardPerShare).div(1e12);\n        user.profitBaseline = user.shares.mul(accProfitPerShare).div(1e12);\n        if(totalFrozen > 0 ){\n            if(user.lastFrozenWithdraw > 0 ) \n                require(block.timestamp > user.lastFrozenWithdraw.add(frozenEarlyWithdrawFeeTime),\"Only One Withdraw allowed per 3 hours during freeze\");\n            \n            uint256 withdrawalFee = availableStaked.mul(frozenEarlyWithdrawFee).div(divisor);\n            user.lastFrozenWithdraw = block.timestamp;\n            availableStaked = availableStaked.sub(withdrawalFee);\n            \n            if(withdrawalFee > totalFrozen){\n                uint256 remainder = withdrawalFee.sub(totalFrozen);\n                crush.approve(address(bankroll), remainder);\n                totalFrozen = 0;\n            }else\n                totalFrozen = totalFrozen.sub(withdrawalFee);\n            \n            crush.safeTransfer(reserveAddress, withdrawalFee);\n\n            \n        }\n        else if(block.number < user.lastBlockStaked.add(earlyWithdrawFeeTime)){\n            //apply fee\n            uint256 withdrawalFee = availableStaked.mul(earlyWithdrawFee).div(divisor);\n            availableStaked = availableStaked.sub(withdrawalFee);\n            crush.safeTransfer(reserveAddress, withdrawalFee);\n        }\n        availableStaked = availableStaked.add(reward);\n        \n        crush.safeTransfer(msg.sender, availableStaked);\n        \n        \n        //remove from batchig array\n        if(user.stakedAmount == 0){\n            if(user.index != addressIndexes.length-1){\n                address lastAddress = addressIndexes[addressIndexes.length-1];\n                addressIndexes[user.index] = lastAddress;\n                stakings[lastAddress].index = user.index;\n            }\n            addressIndexes.pop();\n        }\n        emit RewardPoolUpdated(totalPool);\n\n    }\n   \n\n   \n}\n",
  "sourcePath": "/home/jman/crypto/bitcrush/contracts/crush_contracts/contracts/staking.sol",
  "compiler": {
    "name": "solc",
    "version": "0.6.5+commit.f956cc89.Emscripten.clang"
  },
  "schemaVersion": "3.4.0",
  "updatedAt": "2021-11-07T15:50:41.120Z",
  "devdoc": {
    "methods": {
      "addRewardToPool(uint256)": {
        "details": "adds the provided amount to `totalPool` state variable",
        "params": {
          "_amount": "the amount to add"
        }
      },
      "compoundAll()": {
        "details": "compounds the rewards of all users in the pool add adds it into their staked amount while deducting fees"
      },
      "emergencyWithdraw()": {
        "details": "transfer all available funds of users to users wallet"
      },
      "enterStaking(uint256)": {
        "details": "stakes the provided amount",
        "params": {
          "_amount": "the amount to stake"
        }
      },
      "freezeStaking(uint256,address,address)": {
        "details": "adds the provided amount to the total frozen variablle"
      },
      "indexesLength()": {
        "details": "returns the total stakers in the staking pool by reading length of addressIndexes array"
      },
      "leaveStaking(uint256,bool)": {
        "details": "leaves staking and deducts total pool by the users reward. early withdrawal fee applied if withdraw is made before earlyWithdrawFeeTime",
        "params": {
          "_amount": "the amount to unstake"
        }
      },
      "owner()": {
        "details": "Returns the address of the current owner."
      },
      "pendingProfits(address)": {
        "params": {
          "_address": "the user's wallet address to calculate profits"
        },
        "returns": {
          "_0": "pending Profits to be claimed by this user"
        }
      },
      "pendingReward(address)": {
        "details": "calculates potential reward for the address provided based on crush per block",
        "params": {
          "_address": "the address to calculate the reward for"
        }
      },
      "renounceOwnership()": {
        "details": "Leaves the contract without owner. It will not be possible to call `onlyOwner` functions anymore. Can only be called by the current owner.     * NOTE: Renouncing ownership will leave the contract without an owner, thereby removing any functionality that is only available to the owner."
      },
      "setAutoCompoundLimit(uint256)": {
        "details": "stores the limit in the state variable `autoCompoundLimit`",
        "params": {
          "_limit": "the new value to store"
        }
      },
      "setBankroll(address)": {
        "details": "stores the _bankroll address in the state variable `bankroll`",
        "params": {
          "_bankroll": "the new value to store"
        }
      },
      "setEarlyWithdrawFee(uint256)": {
        "details": "stores the fee in the state variable `earlyWithdrawFee`",
        "params": {
          "_fee": "the new value to store"
        }
      },
      "setEarlyWithdrawFeeTime(uint256)": {
        "details": "stores the time in the state variable `earlyWithdrawFeeTime`",
        "params": {
          "_time": "the new value to store"
        }
      },
      "setLiveWallet(address)": {
        "details": "stores the _liveWallet address in the state variable `liveWallet`",
        "params": {
          "_liveWallet": "the new value to store"
        }
      },
      "setPerformanceFeeBurn(uint256)": {
        "details": "stores the fee in the state variable `performanceFeeBurn`",
        "params": {
          "_fee": "the new value to store"
        }
      },
      "setPerformanceFeeCompounder(uint256)": {
        "details": "stores the fee in the state variable `performanceFeeCompounder`",
        "params": {
          "_fee": "the new value to store"
        }
      },
      "setPerformanceFeeReserve(uint256)": {
        "details": "stores the fee in the state variable `performanceFeeReserve`",
        "params": {
          "_fee": "the new value to store"
        }
      },
      "transferOwnership(address)": {
        "details": "Transfers ownership of the contract to a new account (`newOwner`). Can only be called by the current owner."
      },
      "unfreezeStaking(uint256)": {
        "details": "deducts the provided amount from the total frozen variablle"
      },
      "updateDistribution()": {
        "details": "accRewardPerShare is accumulative, meaning it always holds the total historic  rewardPerShare making apyBaseline necessary to keep rewards fair"
      },
      "updateProfits()": {
        "details": "this allows for consistent profit reporting and no change on profits to distribute"
      }
    }
  },
  "userdoc": {
    "methods": {
      "addRewardToPool(uint256)": {
        "notice": "Adds the provided amount to the totalPool"
      },
      "compoundAll()": {
        "notice": "compounds the rewards of all users in the pool"
      },
      "emergencyWithdraw()": {
        "notice": "emergency withdraw funds of users"
      },
      "enterStaking(uint256)": {
        "notice": "Stake the provided amount"
      },
      "freezeStaking(uint256,address,address)": {
        "notice": "freeze certain funds in the staking pool and transfer them to the live wallet address"
      },
      "indexesLength()": {
        "notice": "returns the total count of users in the staking pool."
      },
      "leaveStaking(uint256,bool)": {
        "notice": "Leaves staking for a user by the specified amount and transfering staked amount and reward to users address"
      },
      "pendingProfits(address)": {
        "notice": "Get pending Profits to Claim"
      },
      "pendingReward(address)": {
        "notice": "Get pending rewards of a user for UI"
      },
      "setAutoCompoundLimit(uint256)": {
        "notice": "Store `_limit`."
      },
      "setBankroll(address)": {
        "notice": "Store `_bankroll`."
      },
      "setEarlyWithdrawFee(uint256)": {
        "notice": "Store `_fee`."
      },
      "setEarlyWithdrawFeeTime(uint256)": {
        "notice": "Store `_time`."
      },
      "setLiveWallet(address)": {
        "notice": "Store `_liveWallet`."
      },
      "setPerformanceFeeBurn(uint256)": {
        "notice": "Store `_fee`."
      },
      "setPerformanceFeeCompounder(uint256)": {
        "notice": "Store `_fee`."
      },
      "setPerformanceFeeReserve(uint256)": {
        "notice": "Store `_fee`."
      },
      "unfreezeStaking(uint256)": {
        "notice": "unfreeze previously frozen funds from the staking pool"
      },
      "updateDistribution()": {
        "notice": "updates accRewardPerShare based on the last block calculated and totalShares"
      },
      "updateProfits()": {
        "notice": "updates accProfitPerShare based on current Profit available and totalShares"
      }
    }
  }
}