{
  "contractName": "BitcrushBankroll",
  "abi": [
    {
      "inputs": [
        {
          "internalType": "contract CRUSHToken",
          "name": "_crush",
          "type": "address"
        },
        {
          "internalType": "contract BitcrushStaking",
          "name": "_stakingPool",
          "type": "address"
        },
        {
          "internalType": "address",
          "name": "_reserve",
          "type": "address"
        },
        {
          "internalType": "address",
          "name": "_lottery",
          "type": "address"
        },
        {
          "internalType": "uint256",
          "name": "_profitShare",
          "type": "uint256"
        },
        {
          "internalType": "uint256",
          "name": "_houseBankrollShare",
          "type": "uint256"
        },
        {
          "internalType": "uint256",
          "name": "_lotteryShare",
          "type": "uint256"
        },
        {
          "internalType": "uint256",
          "name": "_reserveShare",
          "type": "uint256"
        }
      ],
      "stateMutability": "nonpayable",
      "type": "constructor"
    },
    {
      "anonymous": false,
      "inputs": [
        {
          "indexed": true,
          "internalType": "address",
          "name": "previousOwner",
          "type": "address"
        },
        {
          "indexed": true,
          "internalType": "address",
          "name": "newOwner",
          "type": "address"
        }
      ],
      "name": "OwnershipTransferred",
      "type": "event"
    },
    {
      "inputs": [],
      "name": "BURN_RATE",
      "outputs": [
        {
          "internalType": "uint256",
          "name": "",
          "type": "uint256"
        }
      ],
      "stateMutability": "view",
      "type": "function"
    },
    {
      "inputs": [],
      "name": "DIVISOR",
      "outputs": [
        {
          "internalType": "uint256",
          "name": "",
          "type": "uint256"
        }
      ],
      "stateMutability": "view",
      "type": "function"
    },
    {
      "inputs": [],
      "name": "brSinceCompound",
      "outputs": [
        {
          "internalType": "uint256",
          "name": "",
          "type": "uint256"
        }
      ],
      "stateMutability": "view",
      "type": "function"
    },
    {
      "inputs": [],
      "name": "crush",
      "outputs": [
        {
          "internalType": "contract CRUSHToken",
          "name": "",
          "type": "address"
        }
      ],
      "stateMutability": "view",
      "type": "function"
    },
    {
      "inputs": [],
      "name": "houseBankrollShare",
      "outputs": [
        {
          "internalType": "uint256",
          "name": "",
          "type": "uint256"
        }
      ],
      "stateMutability": "view",
      "type": "function"
    },
    {
      "inputs": [],
      "name": "liveWallet",
      "outputs": [
        {
          "internalType": "contract BitcrushLiveWallet",
          "name": "",
          "type": "address"
        }
      ],
      "stateMutability": "view",
      "type": "function"
    },
    {
      "inputs": [],
      "name": "lottery",
      "outputs": [
        {
          "internalType": "address",
          "name": "",
          "type": "address"
        }
      ],
      "stateMutability": "view",
      "type": "function"
    },
    {
      "inputs": [],
      "name": "lotteryShare",
      "outputs": [
        {
          "internalType": "uint256",
          "name": "",
          "type": "uint256"
        }
      ],
      "stateMutability": "view",
      "type": "function"
    },
    {
      "inputs": [],
      "name": "negativeBankroll",
      "outputs": [
        {
          "internalType": "uint256",
          "name": "",
          "type": "uint256"
        }
      ],
      "stateMutability": "view",
      "type": "function"
    },
    {
      "inputs": [],
      "name": "negativeBrSinceCompound",
      "outputs": [
        {
          "internalType": "uint256",
          "name": "",
          "type": "uint256"
        }
      ],
      "stateMutability": "view",
      "type": "function"
    },
    {
      "inputs": [],
      "name": "owner",
      "outputs": [
        {
          "internalType": "address",
          "name": "",
          "type": "address"
        }
      ],
      "stateMutability": "view",
      "type": "function"
    },
    {
      "inputs": [],
      "name": "poolDepleted",
      "outputs": [
        {
          "internalType": "bool",
          "name": "",
          "type": "bool"
        }
      ],
      "stateMutability": "view",
      "type": "function"
    },
    {
      "inputs": [],
      "name": "profitShare",
      "outputs": [
        {
          "internalType": "uint256",
          "name": "",
          "type": "uint256"
        }
      ],
      "stateMutability": "view",
      "type": "function"
    },
    {
      "inputs": [],
      "name": "profitThreshold",
      "outputs": [
        {
          "internalType": "uint256",
          "name": "",
          "type": "uint256"
        }
      ],
      "stateMutability": "view",
      "type": "function"
    },
    {
      "inputs": [],
      "name": "renounceOwnership",
      "outputs": [],
      "stateMutability": "nonpayable",
      "type": "function"
    },
    {
      "inputs": [],
      "name": "reserve",
      "outputs": [
        {
          "internalType": "address",
          "name": "",
          "type": "address"
        }
      ],
      "stateMutability": "view",
      "type": "function"
    },
    {
      "inputs": [],
      "name": "reserveShare",
      "outputs": [
        {
          "internalType": "uint256",
          "name": "",
          "type": "uint256"
        }
      ],
      "stateMutability": "view",
      "type": "function"
    },
    {
      "inputs": [],
      "name": "stakingPool",
      "outputs": [
        {
          "internalType": "contract BitcrushStaking",
          "name": "",
          "type": "address"
        }
      ],
      "stateMutability": "view",
      "type": "function"
    },
    {
      "inputs": [],
      "name": "totalBankroll",
      "outputs": [
        {
          "internalType": "uint256",
          "name": "",
          "type": "uint256"
        }
      ],
      "stateMutability": "view",
      "type": "function"
    },
    {
      "inputs": [],
      "name": "totalProfit",
      "outputs": [
        {
          "internalType": "uint256",
          "name": "",
          "type": "uint256"
        }
      ],
      "stateMutability": "view",
      "type": "function"
    },
    {
      "inputs": [],
      "name": "totalWinnings",
      "outputs": [
        {
          "internalType": "uint256",
          "name": "",
          "type": "uint256"
        }
      ],
      "stateMutability": "view",
      "type": "function"
    },
    {
      "inputs": [
        {
          "internalType": "address",
          "name": "newOwner",
          "type": "address"
        }
      ],
      "name": "transferOwnership",
      "outputs": [],
      "stateMutability": "nonpayable",
      "type": "function"
    },
    {
      "inputs": [
        {
          "internalType": "contract BitcrushLiveWallet",
          "name": "_liveWallet",
          "type": "address"
        }
      ],
      "name": "setLiveWallet",
      "outputs": [],
      "stateMutability": "nonpayable",
      "type": "function"
    },
    {
      "inputs": [
        {
          "internalType": "uint256",
          "name": "_amount",
          "type": "uint256"
        }
      ],
      "name": "addToBankroll",
      "outputs": [],
      "stateMutability": "nonpayable",
      "type": "function"
    },
    {
      "inputs": [
        {
          "internalType": "uint256",
          "name": "_amount",
          "type": "uint256"
        }
      ],
      "name": "addUserLoss",
      "outputs": [],
      "stateMutability": "nonpayable",
      "type": "function"
    },
    {
      "inputs": [
        {
          "internalType": "uint256",
          "name": "_amount",
          "type": "uint256"
        },
        {
          "internalType": "address",
          "name": "_winner",
          "type": "address"
        }
      ],
      "name": "payOutUserWinning",
      "outputs": [],
      "stateMutability": "nonpayable",
      "type": "function"
    },
    {
      "inputs": [],
      "name": "transferProfit",
      "outputs": [
        {
          "internalType": "uint256",
          "name": "",
          "type": "uint256"
        }
      ],
      "stateMutability": "nonpayable",
      "type": "function"
    },
    {
      "inputs": [
        {
          "internalType": "uint256",
          "name": "_threshold",
          "type": "uint256"
        }
      ],
      "name": "setProfitThreshold",
      "outputs": [],
      "stateMutability": "nonpayable",
      "type": "function"
    },
    {
      "inputs": [
        {
          "internalType": "uint256",
          "name": "_houseBankrollShare",
          "type": "uint256"
        }
      ],
      "name": "setHouseBankrollShare",
      "outputs": [],
      "stateMutability": "nonpayable",
      "type": "function"
    },
    {
      "inputs": [
        {
          "internalType": "uint256",
          "name": "_profitShare",
          "type": "uint256"
        }
      ],
      "name": "setProfitShare",
      "outputs": [],
      "stateMutability": "nonpayable",
      "type": "function"
    },
    {
      "inputs": [
        {
          "internalType": "uint256",
          "name": "_lotteryShare",
          "type": "uint256"
        }
      ],
      "name": "setLotteryShare",
      "outputs": [],
      "stateMutability": "nonpayable",
      "type": "function"
    },
    {
      "inputs": [
        {
          "internalType": "uint256",
          "name": "_reserveShare",
          "type": "uint256"
        }
      ],
      "name": "setReserveShare",
      "outputs": [],
      "stateMutability": "nonpayable",
      "type": "function"
    },
    {
      "inputs": [],
      "name": "EmergencyWithdrawBankroll",
      "outputs": [],
      "stateMutability": "nonpayable",
      "type": "function"
    },
    {
      "inputs": [
        {
          "internalType": "contract BitcrushStaking",
          "name": "_stakingPool",
          "type": "address"
        }
      ],
      "name": "setBitcrushStaking",
      "outputs": [],
      "stateMutability": "nonpayable",
      "type": "function"
    }
  ],
  "bytecode": "0x60806040526002805460ff1916905560006009819055601081905560115534801561002957600080fd5b50604051611ba1380380611ba1833981810160405261010081101561004d57600080fd5b508051602082015160408301516060840151608085015160a086015160c087015160e09097015195969495939492939192909160006100936001600160e01b0361014816565b600080546001600160a01b0319166001600160a01b0383169081178255604051929350917f8be0079c531659141344cd1fd0a4f28419497f9722a3daafe3b4186f6b6457e0908290a350600480546001600160a01b03998a166001600160a01b03199182161790915560058054988a1698821698909817909755600780549689169688169690961790955560088054949097169390951692909217909455600a93909355600b92909255600c55600d5561014c565b3390565b611a468061015b6000396000f3fe608060405234801561001057600080fd5b50600436106102265760003560e01c80638e4a61421161012a578063c2e50b16116100bd578063e7cb3d671161008c578063f2fde38b11610071578063f2fde38b1461045a578063f846a88514610480578063f974821a1461048857610226565b8063e7cb3d6714610435578063ee9346661461043d57610226565b8063c2e50b1614610400578063cd3293de1461041d578063e3aeeb4614610425578063e3fd80dd1461042d57610226565b8063b4055d15116100f9578063b4055d15146103c2578063b72481f8146103ca578063b825d003146103d2578063ba13a572146103f857610226565b80638e4a6142146103845780639e13900c1461038c578063abfe0b34146103b2578063b359a9f9146103ba57610226565b806341112c4c116101bd57806361433d881161018c5780637d903ecc116101715780637d903ecc1461036c57806386001519146103745780638da5cb5b1461037c57610226565b806361433d8814610338578063715018a61461036457610226565b806341112c4c146102ee57806345c9c1d11461030b5780634e584e1114610313578063563b6b711461031b57610226565b806328821182116101f957806328821182146102a75780632feda8d4146102c45780633410fe6e146102de5780633e1f55e4146102e657610226565b80630c56ae3b1461022b578063149c3bf91461024f578063151fac7b1461026e578063203c27a61461028b575b600080fd5b610233610490565b604080516001600160a01b039092168252519081900360200190f35b61026c6004803603602081101561026557600080fd5b503561049f565b005b61026c6004803603602081101561028457600080fd5b503561050e565b610293610618565b604080519115158252519081900360200190f35b61026c600480360360208110156102bd57600080fd5b5035610621565b6102cc610690565b60408051918252519081900360200190f35b6102cc610696565b6102cc61069c565b61026c6004803603602081101561030457600080fd5b50356106a2565b6102cc610711565b6102cc610ad4565b61026c6004803603602081101561033157600080fd5b5035610ada565b61026c6004803603604081101561034e57600080fd5b50803590602001356001600160a01b0316610b49565b61026c610cba565b6102cc610d7b565b6102cc610d81565b610233610d87565b6102cc610d96565b61026c600480360360208110156103a257600080fd5b50356001600160a01b0316610d9c565b61026c610dcb565b610233610ec1565b6102cc610ed0565b6102cc610ed6565b61026c600480360360208110156103e857600080fd5b50356001600160a01b0316610edc565b610233610f75565b61026c6004803603602081101561041657600080fd5b5035610f84565b610233611394565b6102336113a3565b6102cc6113b2565b6102cc6113b8565b61026c6004803603602081101561045357600080fd5b50356113be565b61026c6004803603602081101561047057600080fd5b50356001600160a01b031661142d565b6102cc6114a0565b6102cc6114a5565b6005546001600160a01b031681565b6104a76114ab565b6000546001600160a01b03908116911614610509576040805162461bcd60e51b815260206004820181905260248201527f4f776e61626c653a2063616c6c6572206973206e6f7420746865206f776e6572604482015290519081900360640190fd5b600d55565b6105166114ab565b6000546001600160a01b03908116911614610578576040805162461bcd60e51b815260206004820181905260248201527f4f776e61626c653a2063616c6c6572206973206e6f7420746865206f776e6572604482015290519081900360640190fd5b60048054604080516323b872dd60e01b8152339381019390935230602484015260448301849052516001600160a01b03909116916323b872dd9160648083019260209291908290030181600087803b1580156105d357600080fd5b505af11580156105e7573d6000803e3d6000fd5b505050506040513d60208110156105fd57600080fd5b5050600154610612908263ffffffff6114af16565b60015550565b60025460ff1681565b6106296114ab565b6000546001600160a01b0390811691161461068b576040805162461bcd60e51b815260206004820181905260248201527f4f776e61626c653a2063616c6c6572206973206e6f7420746865206f776e6572604482015290519081900360640190fd5b600955565b600b5481565b61271081565b600a5481565b6106aa6114ab565b6000546001600160a01b0390811691161461070c576040805162461bcd60e51b815260206004820181905260248201527f4f776e61626c653a2063616c6c6572206973206e6f7420746865206f776e6572604482015290519081900360640190fd5b600b55565b6005546000906001600160a01b03163314610773576040805162461bcd60e51b815260206004820152601b60248201527f43616c6c6572206d757374206265207374616b696e6720706f6f6c0000000000604482015290519081900360640190fd5b600954600e5410610acd57600a54600090156107ca5760006107b46127106107a8600a54600e5461151290919063ffffffff16565b9063ffffffff61156b16565b90506107c6828263ffffffff6114af16565b9150505b600d541561087b5760006107f16127106107a8600d54600e5461151290919063ffffffff16565b600480546007546040805163a9059cbb60e01b81526001600160a01b03928316948101949094526024840185905251939450169163a9059cbb916044808201926020929091908290030181600087803b15801561084d57600080fd5b505af1158015610861573d6000803e3d6000fd5b505050506040513d602081101561087757600080fd5b5050505b600c541561092c5760006108a26127106107a8600c54600e5461151290919063ffffffff16565b600480546008546040805163a9059cbb60e01b81526001600160a01b03928316948101949094526024840185905251939450169163a9059cbb916044808201926020929091908290030181600087803b1580156108fe57600080fd5b505af1158015610912573d6000803e3d6000fd5b505050506040513d602081101561092857600080fd5b5050505b600061094a6127106107a86064600e5461151290919063ffffffff16565b60048054604080517f42966c68000000000000000000000000000000000000000000000000000000008152928301849052519293506001600160a01b0316916342966c689160248082019260009290919082900301818387803b1580156109b057600080fd5b505af11580156109c4573d6000803e3d6000fd5b505050506000600b541115610a0d5760006109f26127106107a8600b54600e5461151290919063ffffffff16565b600e54909150610a08908263ffffffff6115ad16565b600e55505b600e54600154610a229163ffffffff6115ad16565b600155600480546005546040805163a9059cbb60e01b81526001600160a01b0392831694810194909452602484018690525191169163a9059cbb9160448083019260209291908290030181600087803b158015610a7e57600080fd5b505af1158015610a92573d6000803e3d6000fd5b505050506040513d6020811015610aa857600080fd5b5050601154610abd908363ffffffff6114af16565b601155506000600e559050610ad1565b5060005b90565b600c5481565b610ae26114ab565b6000546001600160a01b03908116911614610b44576040805162461bcd60e51b815260206004820181905260248201527f4f776e61626c653a2063616c6c6572206973206e6f7420746865206f776e6572604482015290519081900360640190fd5b600a55565b6006546001600160a01b03163314610b925760405162461bcd60e51b81526004018080602001828103825260238152602001806119ee6023913960400191505060405180910390fd5b600154821115610c77576000610bb3600154846115ad90919063ffffffff16565b6002805460ff19166001179055600554604080517f49fb5e47000000000000000000000000000000000000000000000000000000008152600481018490526001600160a01b03868116602483015291519394509116916349fb5e479160448082019260009290919082900301818387803b158015610c3057600080fd5b505af1158015610c44573d6000803e3d6000fd5b5050600354610c5c925090508263ffffffff6114af16565b600355600154610c6c90836115ef565b506000600155610c97565b600154610c8a908363ffffffff6115ad16565b600155610c9782826115ef565b610ca0826116fe565b601054610cb3908363ffffffff6114af16565b6010555050565b610cc26114ab565b6000546001600160a01b03908116911614610d24576040805162461bcd60e51b815260206004820181905260248201527f4f776e61626c653a2063616c6c6572206973206e6f7420746865206f776e6572604482015290519081900360640190fd5b600080546040516001600160a01b03909116907f8be0079c531659141344cd1fd0a4f28419497f9722a3daafe3b4186f6b6457e0908390a36000805473ffffffffffffffffffffffffffffffffffffffff19169055565b600e5481565b60115481565b6000546001600160a01b031690565b600f5481565b6006805473ffffffffffffffffffffffffffffffffffffffff19166001600160a01b0392909216919091179055565b610dd36114ab565b6000546001600160a01b03908116911614610e35576040805162461bcd60e51b815260206004820181905260248201527f4f776e61626c653a2063616c6c6572206973206e6f7420746865206f776e6572604482015290519081900360640190fd5b600480546001546040805163a9059cbb60e01b815233948101949094526024840191909152516001600160a01b039091169163a9059cbb9160448083019260209291908290030181600087803b158015610e8e57600080fd5b505af1158015610ea2573d6000803e3d6000fd5b505050506040513d6020811015610eb857600080fd5b50506000600155565b6004546001600160a01b031681565b60015481565b60105481565b610ee46114ab565b6000546001600160a01b03908116911614610f46576040805162461bcd60e51b815260206004820181905260248201527f4f776e61626c653a2063616c6c6572206973206e6f7420746865206f776e6572604482015290519081900360640190fd5b6005805473ffffffffffffffffffffffffffffffffffffffff19166001600160a01b0392909216919091179055565b6008546001600160a01b031681565b6006546001600160a01b03163314610fcd5760405162461bcd60e51b81526004018080602001828103825260238152602001806119ee6023913960400191505060405180910390fd5b60025460ff161515600114156112ea5760035481106111c4576000610ffd600354836115ad90919063ffffffff16565b60048054600554600354604080516323b872dd60e01b815233958101959095526001600160a01b03928316602486015260448501919091525193945016916323b872dd916064808201926020929091908290030181600087803b15801561106357600080fd5b505af1158015611077573d6000803e3d6000fd5b505050506040513d602081101561108d57600080fd5b5050600554600354604080517fe39faaa40000000000000000000000000000000000000000000000000000000081526004810192909252516001600160a01b039092169163e39faaa49160248082019260009290919082900301818387803b1580156110f857600080fd5b505af115801561110c573d6000803e3d6000fd5b5050600060038190556002805460ff1916905560048054604080516323b872dd60e01b8152339381019390935230602484015260448301879052516001600160a01b0390911694506323b872dd935060648083019360209383900390910190829087803b15801561117c57600080fd5b505af1158015611190573d6000803e3d6000fd5b505050506040513d60208110156111a657600080fd5b50506001546111bb908263ffffffff6114af16565b600155506112e5565b60048054600554604080516323b872dd60e01b815233948101949094526001600160a01b03918216602485015260448401859052519116916323b872dd9160648083019260209291908290030181600087803b15801561122357600080fd5b505af1158015611237573d6000803e3d6000fd5b505050506040513d602081101561124d57600080fd5b5050600554604080517fe39faaa40000000000000000000000000000000000000000000000000000000081526004810184905290516001600160a01b039092169163e39faaa49160248082019260009290919082900301818387803b1580156112b557600080fd5b505af11580156112c9573d6000803e3d6000fd5b50506003546112e1925090508263ffffffff6115ad16565b6003555b611388565b60048054604080516323b872dd60e01b8152339381019390935230602484015260448301849052516001600160a01b03909116916323b872dd9160648083019260209291908290030181600087803b15801561134557600080fd5b505af1158015611359573d6000803e3d6000fd5b505050506040513d602081101561136f57600080fd5b5050600154611384908263ffffffff6114af16565b6001555b6113918161177f565b50565b6007546001600160a01b031681565b6006546001600160a01b031681565b60035481565b600d5481565b6113c66114ab565b6000546001600160a01b03908116911614611428576040805162461bcd60e51b815260206004820181905260248201527f4f776e61626c653a2063616c6c6572206973206e6f7420746865206f776e6572604482015290519081900360640190fd5b600c55565b6114356114ab565b6000546001600160a01b03908116911614611497576040805162461bcd60e51b815260206004820181905260248201527f4f776e61626c653a2063616c6c6572206973206e6f7420746865206f776e6572604482015290519081900360640190fd5b611391816117fd565b606481565b60095481565b3390565b600082820183811015611509576040805162461bcd60e51b815260206004820152601b60248201527f536166654d6174683a206164646974696f6e206f766572666c6f770000000000604482015290519081900360640190fd5b90505b92915050565b6000826115215750600061150c565b8282028284828161152e57fe5b04146115095760405162461bcd60e51b81526004018080602001828103825260218152602001806119cd6021913960400191505060405180910390fd5b600061150983836040518060400160405280601a81526020017f536166654d6174683a206469766973696f6e206279207a65726f0000000000008152506118aa565b600061150983836040518060400160405280601e81526020017f536166654d6174683a207375627472616374696f6e206f766572666c6f77000081525061194c565b600480546006546040805163a9059cbb60e01b81526001600160a01b0392831694810194909452602484018690525191169163a9059cbb9160448083019260209291908290030181600087803b15801561164857600080fd5b505af115801561165c573d6000803e3d6000fd5b505050506040513d602081101561167257600080fd5b5050600654604080517ff62cf8d0000000000000000000000000000000000000000000000000000000008152600481018590526001600160a01b0384811660248301529151919092169163f62cf8d091604480830192600092919082900301818387803b1580156116e257600080fd5b505af11580156116f6573d6000803e3d6000fd5b505050505050565b600f541561172157600f54611719908263ffffffff6114af16565b600f55611391565b600e54811115611766576000611742600e54836115ad90919063ffffffff16565b6000600e55600f5490915061175d908263ffffffff6114af16565b600f5550611391565b600f54611779908263ffffffff6114af16565b600f5550565b600f54156117e457600f548111156117cc5760006117a8600f54836115ad90919063ffffffff16565b6000600f55600e549091506117c3908263ffffffff6114af16565b600e55506117df565b600f54611719908263ffffffff6115ad16565b611391565b600e546117f7908263ffffffff6114af16565b600e5550565b6001600160a01b0381166118425760405162461bcd60e51b81526004018080602001828103825260268152602001806119a76026913960400191505060405180910390fd5b600080546040516001600160a01b03808516939216917f8be0079c531659141344cd1fd0a4f28419497f9722a3daafe3b4186f6b6457e091a36000805473ffffffffffffffffffffffffffffffffffffffff19166001600160a01b0392909216919091179055565b600081836119365760405162461bcd60e51b81526004018080602001828103825283818151815260200191508051906020019080838360005b838110156118fb5781810151838201526020016118e3565b50505050905090810190601f1680156119285780820380516001836020036101000a031916815260200191505b509250505060405180910390fd5b50600083858161194257fe5b0495945050505050565b6000818484111561199e5760405162461bcd60e51b81526020600482018181528351602484015283519092839260449091019190850190808383600083156118fb5781810151838201526020016118e3565b50505090039056fe4f776e61626c653a206e6577206f776e657220697320746865207a65726f2061646472657373536166654d6174683a206d756c7469706c69636174696f6e206f766572666c6f7743616c6c6572206d757374206265206269746372757368206c6976652077616c6c6574a2646970667358221220dd18ee5310598080cfaa38528cabb6acda80e962f8711f7c4945c8782bbb7d8f64736f6c63430006020033",
  "source": "//SPDX-License-Identifier: MIT\npragma solidity >=0.6.2;\nimport \"@pancakeswap/pancake-swap-lib/contracts/access/Ownable.sol\";\nimport \"./CrushCoin.sol\";\nimport \"@pancakeswap/pancake-swap-lib/contracts/math/SafeMath.sol\";\nimport \"./staking.sol\";\nimport \"./HouseBankroll.sol\";\nimport \"./LiveWallet.sol\";\ncontract BitcrushBankroll is Ownable {\n    \n    using SafeMath for uint256;\n\n    uint256 public totalBankroll;\n    bool public poolDepleted = false;\n    uint256 public negativeBankroll;\n    //address of the crush token\n    CRUSHToken public crush;\n    BitcrushStaking public stakingPool;\n    BitcrushLiveWallet public liveWallet;\n    address public reserve;\n    address public lottery;\n    \n    uint256 public constant DIVISOR = 10000;\n    uint256 public constant BURN_RATE = 100;\n    uint256 public profitThreshold = 0;\n    \n    //consistent 1% burn\n    uint256 public profitShare;\n    uint256 public houseBankrollShare;\n    uint256 public lotteryShare;\n    uint256 public reserveShare;\n    \n    //profit tracking\n    uint256 public brSinceCompound;\n    uint256 public negativeBrSinceCompound;\n\n    //tracking historical winnings and profits\n    uint256 public totalWinnings = 0;\n    uint256 public totalProfit = 0;\n\n    constructor(\n        CRUSHToken _crush,\n        BitcrushStaking _stakingPool,\n        address _reserve,\n        address _lottery,\n        uint256 _profitShare,\n        uint256 _houseBankrollShare,\n        uint256 _lotteryShare,\n        uint256 _reserveShare\n    ) public {\n        crush = _crush;\n        stakingPool = _stakingPool;\n        reserve = _reserve;\n        lottery = _lottery;\n        profitShare = _profitShare;\n        houseBankrollShare = _houseBankrollShare;\n        lotteryShare = _lotteryShare;\n        reserveShare = _reserveShare;\n\n    }\n\n    function setLiveWallet(BitcrushLiveWallet _liveWallet) public {\n        liveWallet = _liveWallet;\n    }\n\n    \n\n    function addToBankroll(uint256 _amount) public onlyOwner {\n        crush.transferFrom(msg.sender, address(this), _amount);\n        totalBankroll = totalBankroll.add(_amount);\n    }\n\n    function addUserLoss(uint256 _amount) public {\n        require(\n            msg.sender == address(liveWallet),\n            \"Caller must be bitcrush live wallet\"\n        );\n        //make game specific\n        //check if bankroll is in negative\n        //uint is unsigned, keep a bool to track\n        //if negative send to staking to replenish\n        //otherwise add to bankroll and check for profit\n        if (poolDepleted == true) {\n            if (_amount >= negativeBankroll) {\n                uint256 remainder = _amount.sub(negativeBankroll);\n                crush.transferFrom(\n                    msg.sender,\n                    address(stakingPool),\n                    negativeBankroll\n                );\n                stakingPool.unfreezeStaking(negativeBankroll);\n                negativeBankroll = 0;\n                poolDepleted = false;\n                crush.transferFrom(msg.sender, address(this), remainder);\n                totalBankroll = totalBankroll.add(remainder);\n                \n            } else {\n                crush.transferFrom(msg.sender, address(stakingPool), _amount);\n                stakingPool.unfreezeStaking(_amount);\n                negativeBankroll = negativeBankroll.sub(_amount);\n            }\n        } else {\n            crush.transferFrom(msg.sender, address(this), _amount);\n            totalBankroll = totalBankroll.add(_amount);\n            \n        }\n        addToBrSinceCompound(_amount);\n    }\n\n    function payOutUserWinning(\n        uint256 _amount,\n        address _winner\n    ) public {\n        require(\n            msg.sender == address(liveWallet),\n            \"Caller must be bitcrush live wallet\"\n        );\n        \n        \n        //check if bankroll has funds available\n        //if not dip into staking pool for any remainder\n        // update bankroll accordingly\n        if (_amount > totalBankroll) {\n            uint256 remainder = _amount.sub(totalBankroll);\n            poolDepleted = true;\n            stakingPool.freezeStaking(remainder, _winner);\n            negativeBankroll = negativeBankroll.add(remainder);\n            transferWinnings(totalBankroll, _winner);\n\n            totalBankroll = 0;\n        } else {\n            totalBankroll = totalBankroll.sub(_amount);\n            transferWinnings(_amount, _winner);\n        }\n        removeFromBrSinceCompound(_amount);\n        totalWinnings = totalWinnings.add(_amount);\n    }\n\n    function transferWinnings(\n        uint256 _amount,\n        address _winner\n    ) internal {\n        crush.transfer(address(liveWallet), _amount);\n        liveWallet.addToUserWinnings(_amount, _winner);\n    }\n\n\n    function addToBrSinceCompound (uint256 _amount) internal{\n        if(negativeBrSinceCompound > 0){\n            if(_amount > negativeBrSinceCompound){\n                uint256 difference = _amount.sub(negativeBrSinceCompound);\n                negativeBrSinceCompound = 0;\n                brSinceCompound = brSinceCompound.add(difference);\n            }else {\n                negativeBrSinceCompound = negativeBrSinceCompound.sub(_amount);\n            }\n        }else {\n            brSinceCompound = brSinceCompound.add(_amount);\n        }\n    }\n    function removeFromBrSinceCompound (uint256 _amount) internal{\n        if(negativeBrSinceCompound > 0 ){\n            negativeBrSinceCompound = negativeBrSinceCompound.add(_amount);\n            \n        }else {\n            if(_amount > brSinceCompound){\n                uint256 difference = _amount.sub(brSinceCompound);\n                brSinceCompound = 0;\n                negativeBrSinceCompound = negativeBrSinceCompound.add(difference);\n            }else {\n                negativeBrSinceCompound = negativeBrSinceCompound.add(_amount);\n            }\n        }\n    }\n\n    function transferProfit() public returns (uint256) {\n        require(\n            msg.sender == address(stakingPool),\n            \"Caller must be staking pool\"\n        );\n        if (brSinceCompound >= profitThreshold) {\n\n            //-----\n            uint256 profit = 0;\n            if(profitShare > 0 ){\n                uint256 stakingBakrollProfit = brSinceCompound.mul(profitShare).div(DIVISOR);\n                profit = profit.add(stakingBakrollProfit);\n            }\n            if(reserveShare > 0 ){\n                uint256 reserveCrush = brSinceCompound.mul(reserveShare).div(DIVISOR);\n                crush.transfer(reserve, reserveCrush);\n            }\n            if(lotteryShare > 0){\n                uint256 lotteryCrush = brSinceCompound.mul(lotteryShare).div(DIVISOR);\n                crush.transfer(lottery, lotteryCrush);\n            }\n            \n            uint256 burn = brSinceCompound.mul(BURN_RATE).div(DIVISOR);\n            crush.burn(burn); \n\n            if(houseBankrollShare > 0){\n                uint256 bankrollShare = brSinceCompound.mul(houseBankrollShare).div(DIVISOR);\n                brSinceCompound = brSinceCompound.sub(bankrollShare);\n            }\n\n            totalBankroll = totalBankroll.sub(brSinceCompound);\n            //-----\n            crush.transfer(address(stakingPool), profit);\n            totalProfit= totalProfit.add(profit);\n            brSinceCompound = 0;\n            return profit;\n        } else {\n            return 0;\n        }\n    }\n\n    function setProfitThreshold(uint256 _threshold) public onlyOwner {\n        profitThreshold = _threshold;\n    }\n\n    function setHouseBankrollShare (uint256 _houseBankrollShare) public onlyOwner {\n        houseBankrollShare = _houseBankrollShare;\n    }\n\n    function setProfitShare (uint256 _profitShare) public onlyOwner {\n        profitShare = _profitShare;\n    }\n\n    function setLotteryShare (uint256 _lotteryShare) public onlyOwner {\n        lotteryShare = _lotteryShare;\n    }\n\n    function setReserveShare (uint256 _reserveShare) public onlyOwner {\n        reserveShare = _reserveShare;\n    }\n\n    function EmergencyWithdrawBankroll () public onlyOwner {\n        crush.transfer(msg.sender, totalBankroll);\n        totalBankroll = 0;\n    }\n    function setBitcrushStaking (BitcrushStaking _stakingPool)public onlyOwner{\n        stakingPool = _stakingPool;\n    }\n\n}\n",
  "sourcePath": "/Users/ant/crypto/crush_contracts/contracts/HouseBankroll.sol",
  "compiler": {
    "name": "solc",
    "version": "0.6.2+commit.bacdbe57.Emscripten.clang"
  },
  "schemaVersion": "3.3.4",
  "updatedAt": "2021-10-07T06:32:28.407Z",
  "devdoc": {
    "methods": {
      "owner()": {
        "details": "Returns the address of the current owner."
      },
      "renounceOwnership()": {
        "details": "Leaves the contract without owner. It will not be possible to call `onlyOwner` functions anymore. Can only be called by the current owner.     * NOTE: Renouncing ownership will leave the contract without an owner, thereby removing any functionality that is only available to the owner."
      },
      "transferOwnership(address)": {
        "details": "Transfers ownership of the contract to a new account (`newOwner`). Can only be called by the current owner."
      }
    }
  },
  "userdoc": {
    "methods": {}
  }
}