{
  "contractName": "BitcrushBankroll",
  "abi": [
    {
      "inputs": [
        {
          "internalType": "contract CRUSHToken",
          "name": "_crush",
          "type": "address"
        },
        {
          "internalType": "contract BitcrushStaking",
          "name": "_stakingPool",
          "type": "address"
        },
        {
          "internalType": "address",
          "name": "_reserve",
          "type": "address"
        },
        {
          "internalType": "address",
          "name": "_lottery",
          "type": "address"
        },
        {
          "internalType": "uint256",
          "name": "_profitShare",
          "type": "uint256"
        },
        {
          "internalType": "uint256",
          "name": "_houseBankrollShare",
          "type": "uint256"
        },
        {
          "internalType": "uint256",
          "name": "_lotteryShare",
          "type": "uint256"
        },
        {
          "internalType": "uint256",
          "name": "_reserveShare",
          "type": "uint256"
        }
      ],
      "stateMutability": "nonpayable",
      "type": "constructor"
    },
    {
      "anonymous": false,
      "inputs": [
        {
          "indexed": true,
          "internalType": "address",
          "name": "previousOwner",
          "type": "address"
        },
        {
          "indexed": true,
          "internalType": "address",
          "name": "newOwner",
          "type": "address"
        }
      ],
      "name": "OwnershipTransferred",
      "type": "event"
    },
    {
      "inputs": [],
      "name": "DIVISOR",
      "outputs": [
        {
          "internalType": "uint256",
          "name": "",
          "type": "uint256"
        }
      ],
      "stateMutability": "view",
      "type": "function",
      "constant": true
    },
    {
      "inputs": [],
      "name": "allTimeHigh",
      "outputs": [
        {
          "internalType": "uint256",
          "name": "",
          "type": "uint256"
        }
      ],
      "stateMutability": "view",
      "type": "function",
      "constant": true
    },
    {
      "inputs": [],
      "name": "availableProfit",
      "outputs": [
        {
          "internalType": "uint256",
          "name": "",
          "type": "uint256"
        }
      ],
      "stateMutability": "view",
      "type": "function",
      "constant": true
    },
    {
      "inputs": [],
      "name": "burnRate",
      "outputs": [
        {
          "internalType": "uint256",
          "name": "",
          "type": "uint256"
        }
      ],
      "stateMutability": "view",
      "type": "function",
      "constant": true
    },
    {
      "inputs": [],
      "name": "crush",
      "outputs": [
        {
          "internalType": "contract CRUSHToken",
          "name": "",
          "type": "address"
        }
      ],
      "stateMutability": "view",
      "type": "function",
      "constant": true
    },
    {
      "inputs": [],
      "name": "liveWallet",
      "outputs": [
        {
          "internalType": "contract BitcrushLiveWallet",
          "name": "",
          "type": "address"
        }
      ],
      "stateMutability": "view",
      "type": "function",
      "constant": true
    },
    {
      "inputs": [],
      "name": "lottery",
      "outputs": [
        {
          "internalType": "address",
          "name": "",
          "type": "address"
        }
      ],
      "stateMutability": "view",
      "type": "function",
      "constant": true
    },
    {
      "inputs": [],
      "name": "owner",
      "outputs": [
        {
          "internalType": "address",
          "name": "",
          "type": "address"
        }
      ],
      "stateMutability": "view",
      "type": "function",
      "constant": true
    },
    {
      "inputs": [],
      "name": "profitThreshold",
      "outputs": [
        {
          "internalType": "uint256",
          "name": "",
          "type": "uint256"
        }
      ],
      "stateMutability": "view",
      "type": "function",
      "constant": true
    },
    {
      "inputs": [],
      "name": "renounceOwnership",
      "outputs": [],
      "stateMutability": "nonpayable",
      "type": "function"
    },
    {
      "inputs": [],
      "name": "reserve",
      "outputs": [
        {
          "internalType": "address",
          "name": "",
          "type": "address"
        }
      ],
      "stateMutability": "view",
      "type": "function",
      "constant": true
    },
    {
      "inputs": [],
      "name": "stakingPool",
      "outputs": [
        {
          "internalType": "contract BitcrushStaking",
          "name": "",
          "type": "address"
        }
      ],
      "stateMutability": "view",
      "type": "function",
      "constant": true
    },
    {
      "inputs": [],
      "name": "totalBankroll",
      "outputs": [
        {
          "internalType": "uint256",
          "name": "",
          "type": "uint256"
        }
      ],
      "stateMutability": "view",
      "type": "function",
      "constant": true
    },
    {
      "inputs": [
        {
          "internalType": "address",
          "name": "newOwner",
          "type": "address"
        }
      ],
      "name": "transferOwnership",
      "outputs": [],
      "stateMutability": "nonpayable",
      "type": "function"
    },
    {
      "inputs": [
        {
          "internalType": "contract BitcrushLiveWallet",
          "name": "_liveWallet",
          "type": "address"
        }
      ],
      "name": "setLiveWallet",
      "outputs": [],
      "stateMutability": "nonpayable",
      "type": "function"
    },
    {
      "inputs": [
        {
          "internalType": "uint256",
          "name": "_amount",
          "type": "uint256"
        }
      ],
      "name": "addToBankroll",
      "outputs": [],
      "stateMutability": "nonpayable",
      "type": "function"
    },
    {
      "inputs": [
        {
          "internalType": "uint256",
          "name": "_amount",
          "type": "uint256"
        }
      ],
      "name": "addUserLoss",
      "outputs": [],
      "stateMutability": "nonpayable",
      "type": "function"
    },
    {
      "inputs": [
        {
          "internalType": "uint256",
          "name": "_amount",
          "type": "uint256"
        },
        {
          "internalType": "address",
          "name": "_winner",
          "type": "address"
        }
      ],
      "name": "payOutUserWinning",
      "outputs": [],
      "stateMutability": "nonpayable",
      "type": "function"
    },
    {
      "inputs": [],
      "name": "transferProfit",
      "outputs": [
        {
          "internalType": "uint256",
          "name": "",
          "type": "uint256"
        }
      ],
      "stateMutability": "nonpayable",
      "type": "function"
    },
    {
      "inputs": [
        {
          "internalType": "uint256",
          "name": "_threshold",
          "type": "uint256"
        }
      ],
      "name": "setProfitThreshold",
      "outputs": [],
      "stateMutability": "nonpayable",
      "type": "function"
    },
    {
      "inputs": [
        {
          "internalType": "uint256",
          "name": "_houseBankrollShare",
          "type": "uint256"
        }
      ],
      "name": "setHouseBankrollShare",
      "outputs": [],
      "stateMutability": "nonpayable",
      "type": "function"
    },
    {
      "inputs": [
        {
          "internalType": "uint256",
          "name": "_profitShare",
          "type": "uint256"
        }
      ],
      "name": "setProfitShare",
      "outputs": [],
      "stateMutability": "nonpayable",
      "type": "function"
    },
    {
      "inputs": [
        {
          "internalType": "uint256",
          "name": "_lotteryShare",
          "type": "uint256"
        }
      ],
      "name": "setLotteryShare",
      "outputs": [],
      "stateMutability": "nonpayable",
      "type": "function"
    },
    {
      "inputs": [
        {
          "internalType": "uint256",
          "name": "_reserveShare",
          "type": "uint256"
        }
      ],
      "name": "setReserveShare",
      "outputs": [],
      "stateMutability": "nonpayable",
      "type": "function"
    }
  ],
  "bytecode": "0x60806040526004805460ff191690556000600b5534801561001f57600080fd5b506040516117b53803806117b5833981810160405261010081101561004357600080fd5b508051602082015160408301516060840151608085015160a086015160c087015160e09097015195969495939492939192909160006100896001600160e01b0361013e16565b600080546001600160a01b0319166001600160a01b0383169081178255604051929350917f8be0079c531659141344cd1fd0a4f28419497f9722a3daafe3b4186f6b6457e0908290a350600680546001600160a01b03998a166001600160a01b03199182161790915560078054988a16988216989098179097556009805496891696881696909617909555600a8054949097169390951692909217909455600c93909355600d92909255600e55600f55610142565b3390565b611664806101516000396000f3fe608060405234801561001057600080fd5b50600436106101985760003560e01c80638da5cb5b116100e3578063c2e50b161161008c578063ee93466611610066578063ee93466614610335578063f2fde38b14610352578063f974821a1461037857610198565b8063c2e50b1614610308578063cd3293de14610325578063e3aeeb461461032d57610198565b8063b4055d15116100bd578063b4055d15146102f0578063ba13a572146102f8578063bed998501461030057610198565b80638da5cb5b146102ba5780639e13900c146102c2578063b359a9f9146102e857610198565b806341112c4c11610145578063563b6b711161011f578063563b6b711461026957806361433d8814610286578063715018a6146102b257610198565b806341112c4c1461023c57806345c9c1d114610259578063463fd7611461026157610198565b8063151fac7b11610176578063151fac7b146101fa57806328821182146102175780633410fe6e1461023457610198565b80630c56ae3b1461019d5780631407905e146101c1578063149c3bf9146101db575b600080fd5b6101a5610380565b604080516001600160a01b039092168252519081900360200190f35b6101c961038f565b60408051918252519081900360200190f35b6101f8600480360360208110156101f157600080fd5b5035610395565b005b6101f86004803603602081101561021057600080fd5b5035610404565b6101f86004803603602081101561022d57600080fd5b503561050d565b6101c961057c565b6101f86004803603602081101561025257600080fd5b5035610582565b6101c96105f1565b6101c96106fd565b6101f86004803603602081101561027f57600080fd5b5035610703565b6101f86004803603604081101561029c57600080fd5b50803590602001356001600160a01b0316610772565b6101f86108c2565b6101a5610983565b6101f8600480360360208110156102d857600080fd5b50356001600160a01b0316610992565b6101a56109c1565b6101c96109d0565b6101a56109d6565b6101c96109e5565b6101f86004803603602081101561031e57600080fd5b50356109ea565b6101a5610dfc565b6101a5610e0b565b6101f86004803603602081101561034b57600080fd5b5035610e1a565b6101f86004803603602081101561036857600080fd5b50356001600160a01b0316610e89565b6101c9610efc565b6007546001600160a01b031681565b60035481565b61039d610f02565b6000546001600160a01b039081169116146103ff576040805162461bcd60e51b815260206004820181905260248201527f4f776e61626c653a2063616c6c6572206973206e6f7420746865206f776e6572604482015290519081900360640190fd5b600f55565b61040c610f02565b6000546001600160a01b0390811691161461046e576040805162461bcd60e51b815260206004820181905260248201527f4f776e61626c653a2063616c6c6572206973206e6f7420746865206f776e6572604482015290519081900360640190fd5b600654604080516323b872dd60e01b81523360048201523060248201526044810184905290516001600160a01b03909216916323b872dd916064808201926020929091908290030181600087803b1580156104c857600080fd5b505af11580156104dc573d6000803e3d6000fd5b505050506040513d60208110156104f257600080fd5b5050600154610507908263ffffffff610f0616565b60015550565b610515610f02565b6000546001600160a01b03908116911614610577576040805162461bcd60e51b815260206004820181905260248201527f4f776e61626c653a2063616c6c6572206973206e6f7420746865206f776e6572604482015290519081900360640190fd5b600b55565b61271081565b61058a610f02565b6000546001600160a01b039081169116146105ec576040805162461bcd60e51b815260206004820181905260248201527f4f776e61626c653a2063616c6c6572206973206e6f7420746865206f776e6572604482015290519081900360640190fd5b600d55565b6007546000906001600160a01b03163314610653576040805162461bcd60e51b815260206004820152601b60248201527f43616c6c6572206d757374206265207374616b696e6720706f6f6c0000000000604482015290519081900360640190fd5b600b54600354106106f6576006546007546003546040805163a9059cbb60e01b81526001600160a01b039384166004820152602481019290925251919092169163a9059cbb9160448083019260209291908290030181600087803b1580156106ba57600080fd5b505af11580156106ce573d6000803e3d6000fd5b505050506040513d60208110156106e457600080fd5b505060038054600090915590506106fa565b5060005b90565b60025481565b61070b610f02565b6000546001600160a01b0390811691161461076d576040805162461bcd60e51b815260206004820181905260248201527f4f776e61626c653a2063616c6c6572206973206e6f7420746865206f776e6572604482015290519081900360640190fd5b600c55565b6008546001600160a01b031633146107bb5760405162461bcd60e51b815260040180806020018281038252602381526020018061160c6023913960400191505060405180910390fd5b60015482111561089e5760006107dc60015484610f6990919063ffffffff16565b6004805460ff19166001178155600754604080517f49fb5e470000000000000000000000000000000000000000000000000000000081529283018490526001600160a01b038681166024850152905193945016916349fb5e479160448082019260009290919082900301818387803b15801561085757600080fd5b505af115801561086b573d6000803e3d6000fd5b5050600554610883925090508263ffffffff610f0616565b6005556001546108939083610fab565b5060006001556108be565b6001546108b1908363ffffffff610f6916565b6001556108be8282610fab565b5050565b6108ca610f02565b6000546001600160a01b0390811691161461092c576040805162461bcd60e51b815260206004820181905260248201527f4f776e61626c653a2063616c6c6572206973206e6f7420746865206f776e6572604482015290519081900360640190fd5b600080546040516001600160a01b03909116907f8be0079c531659141344cd1fd0a4f28419497f9722a3daafe3b4186f6b6457e0908390a36000805473ffffffffffffffffffffffffffffffffffffffff19169055565b6000546001600160a01b031690565b6008805473ffffffffffffffffffffffffffffffffffffffff19166001600160a01b0392909216919091179055565b6006546001600160a01b031681565b60015481565b600a546001600160a01b031681565b606481565b6008546001600160a01b03163314610a335760405162461bcd60e51b815260040180806020018281038252602381526020018061160c6023913960400191505060405180910390fd5b60045460ff16151560011415610d55576005548110610c2f576000610a6360055483610f6990919063ffffffff16565b600654600754600554604080516323b872dd60e01b81523360048201526001600160a01b0393841660248201526044810192909252519394509116916323b872dd916064808201926020929091908290030181600087803b158015610ac757600080fd5b505af1158015610adb573d6000803e3d6000fd5b505050506040513d6020811015610af157600080fd5b5050600754600554604080517fe39faaa40000000000000000000000000000000000000000000000000000000081526004810192909252516001600160a01b039092169163e39faaa49160248082019260009290919082900301818387803b158015610b5c57600080fd5b505af1158015610b70573d6000803e3d6000fd5b5050600060058190556004805460ff19168155600654604080516323b872dd60e01b8152339381019390935230602484015260448301879052516001600160a01b0390911694506323b872dd935060648083019360209383900390910190829087803b158015610bdf57600080fd5b505af1158015610bf3573d6000803e3d6000fd5b505050506040513d6020811015610c0957600080fd5b5050600154610c1e908263ffffffff610f0616565b600155610c296110ba565b50610d50565b600654600754604080516323b872dd60e01b81523360048201526001600160a01b03928316602482015260448101859052905191909216916323b872dd9160648083019260209291908290030181600087803b158015610c8e57600080fd5b505af1158015610ca2573d6000803e3d6000fd5b505050506040513d6020811015610cb857600080fd5b5050600754604080517fe39faaa40000000000000000000000000000000000000000000000000000000081526004810184905290516001600160a01b039092169163e39faaa49160248082019260009290919082900301818387803b158015610d2057600080fd5b505af1158015610d34573d6000803e3d6000fd5b5050600554610d4c925090508263ffffffff610f6916565b6005555b610df9565b600654604080516323b872dd60e01b81523360048201523060248201526044810184905290516001600160a01b03909216916323b872dd916064808201926020929091908290030181600087803b158015610daf57600080fd5b505af1158015610dc3573d6000803e3d6000fd5b505050506040513d6020811015610dd957600080fd5b5050600154610dee908263ffffffff610f0616565b600155610df96110ba565b50565b6009546001600160a01b031681565b6008546001600160a01b031681565b610e22610f02565b6000546001600160a01b03908116911614610e84576040805162461bcd60e51b815260206004820181905260248201527f4f776e61626c653a2063616c6c6572206973206e6f7420746865206f776e6572604482015290519081900360640190fd5b600e55565b610e91610f02565b6000546001600160a01b03908116911614610ef3576040805162461bcd60e51b815260206004820181905260248201527f4f776e61626c653a2063616c6c6572206973206e6f7420746865206f776e6572604482015290519081900360640190fd5b610df981611385565b600b5481565b3390565b600082820183811015610f60576040805162461bcd60e51b815260206004820152601b60248201527f536166654d6174683a206164646974696f6e206f766572666c6f770000000000604482015290519081900360640190fd5b90505b92915050565b6000610f6083836040518060400160405280601e81526020017f536166654d6174683a207375627472616374696f6e206f766572666c6f770000815250611432565b6006546008546040805163a9059cbb60e01b81526001600160a01b039283166004820152602481018690529051919092169163a9059cbb9160448083019260209291908290030181600087803b15801561100457600080fd5b505af1158015611018573d6000803e3d6000fd5b505050506040513d602081101561102e57600080fd5b5050600854604080517ff62cf8d0000000000000000000000000000000000000000000000000000000008152600481018590526001600160a01b0384811660248301529151919092169163f62cf8d091604480830192600092919082900301818387803b15801561109e57600080fd5b505af11580156110b2573d6000803e3d6000fd5b505050505050565b60025460015411156113835760006110df600254600154610f6990919063ffffffff16565b600c549091501561112e576000611113612710611107600c54856114c990919063ffffffff16565b9063ffffffff61152216565b600354909150611129908263ffffffff610f0616565b600355505b600f54156111dc576000611153612710611107600f54856114c990919063ffffffff16565b6006546009546040805163a9059cbb60e01b81526001600160a01b03928316600482015260248101859052905193945091169163a9059cbb916044808201926020929091908290030181600087803b1580156111ae57600080fd5b505af11580156111c2573d6000803e3d6000fd5b505050506040513d60208110156111d857600080fd5b5050505b600e541561128a576000611201612710611107600e54856114c990919063ffffffff16565b600654600a546040805163a9059cbb60e01b81526001600160a01b03928316600482015260248101859052905193945091169163a9059cbb916044808201926020929091908290030181600087803b15801561125c57600080fd5b505af1158015611270573d6000803e3d6000fd5b505050506040513d602081101561128657600080fd5b5050505b600d54156112ca5760006112af612710611107600d54856114c990919063ffffffff16565b6001549091506112c5908263ffffffff610f0616565b600155505b60006112e361271061110784606463ffffffff6114c916565b600654604080517f42966c680000000000000000000000000000000000000000000000000000000081526004810184905290519293506001600160a01b03909116916342966c689160248082019260009290919082900301818387803b15801561134c57600080fd5b505af1158015611360573d6000803e3d6000fd5b5050600154600281905561137d925090508363ffffffff610f6916565b60015550505b565b6001600160a01b0381166113ca5760405162461bcd60e51b81526004018080602001828103825260268152602001806115c56026913960400191505060405180910390fd5b600080546040516001600160a01b03808516939216917f8be0079c531659141344cd1fd0a4f28419497f9722a3daafe3b4186f6b6457e091a36000805473ffffffffffffffffffffffffffffffffffffffff19166001600160a01b0392909216919091179055565b600081848411156114c15760405162461bcd60e51b81526004018080602001828103825283818151815260200191508051906020019080838360005b8381101561148657818101518382015260200161146e565b50505050905090810190601f1680156114b35780820380516001836020036101000a031916815260200191505b509250505060405180910390fd5b505050900390565b6000826114d857506000610f63565b828202828482816114e557fe5b0414610f605760405162461bcd60e51b81526004018080602001828103825260218152602001806115eb6021913960400191505060405180910390fd5b6000610f6083836040518060400160405280601a81526020017f536166654d6174683a206469766973696f6e206279207a65726f000000000000815250600081836115ae5760405162461bcd60e51b815260206004820181815283516024840152835190928392604490910191908501908083836000831561148657818101518382015260200161146e565b5060008385816115ba57fe5b049594505050505056fe4f776e61626c653a206e6577206f776e657220697320746865207a65726f2061646472657373536166654d6174683a206d756c7469706c69636174696f6e206f766572666c6f7743616c6c6572206d757374206265206269746372757368206c6976652077616c6c6574a264697066735822122011a31411b0f68e80e4cec8528d57cf1d42a518fcd568c2d139291f38b199266464736f6c63430006020033",
  "source": "//SPDX-License-Identifier: MIT\npragma solidity >=0.6.2;\nimport \"@pancakeswap/pancake-swap-lib/contracts/access/Ownable.sol\";\nimport \"./CrushCoin.sol\";\nimport \"@pancakeswap/pancake-swap-lib/contracts/math/SafeMath.sol\";\nimport \"./staking.sol\";\nimport \"./HouseBankroll.sol\";\nimport \"./LiveWallet.sol\";\ncontract BitcrushBankroll is Ownable {\n    using SafeMath for uint256;\n\n    uint256 public totalBankroll;\n    uint256 public allTimeHigh;\n    uint256 public availableProfit;\n    bool poolDepleted = false;\n    uint256 negativeBankroll;\n    //address of the crush token\n    CRUSHToken public crush;\n    BitcrushStaking public stakingPool;\n    BitcrushLiveWallet public liveWallet;\n    address public reserve;\n    address public lottery;\n    \n    uint256 public constant DIVISOR = 10000;\n    uint256 public constant burnRate = 100;\n    uint256 public profitThreshold = 0;\n    //todo add configurable values for distribution of house profit\n    //consistent 1% burn\n\n        uint256 profitShare;\n        uint256 houseBankrollShare;\n        uint256 lotteryShare;\n        uint256 reserveShare;\n    \n    constructor(\n        CRUSHToken _crush,\n        BitcrushStaking _stakingPool,\n        address _reserve,\n        address _lottery,\n        uint256 _profitShare,\n        uint256 _houseBankrollShare,\n        uint256 _lotteryShare,\n        uint256 _reserveShare\n    ) public {\n        crush = _crush;\n        stakingPool = _stakingPool;\n        reserve = _reserve;\n        lottery = _lottery;\n        profitShare = _profitShare;\n        houseBankrollShare = _houseBankrollShare;\n        lotteryShare = _lotteryShare;\n        reserveShare = _reserveShare;\n\n    }\n\n    function setLiveWallet(BitcrushLiveWallet _liveWallet) public {\n        liveWallet = _liveWallet;\n    }\n\n    \n\n    function addToBankroll(uint256 _amount) public onlyOwner {\n        crush.transferFrom(msg.sender, address(this), _amount);\n        totalBankroll = totalBankroll.add(_amount);\n    }\n\n    function addUserLoss(uint256 _amount) public {\n        require(\n            msg.sender == address(liveWallet),\n            \"Caller must be bitcrush live wallet\"\n        );\n        //make game specific\n        //check if bankroll is in negative\n        //uint is unsigned, keep a bool to track\n        //if negative send to staking to replenish\n        //otherwise add to bankroll and check for profit\n        if (poolDepleted == true) {\n            if (_amount >= negativeBankroll) {\n                uint256 remainder = _amount.sub(negativeBankroll);\n                crush.transferFrom(\n                    msg.sender,\n                    address(stakingPool),\n                    negativeBankroll\n                );\n                stakingPool.unfreezeStaking(negativeBankroll);\n                negativeBankroll = 0;\n                poolDepleted = false;\n                crush.transferFrom(msg.sender, address(this), remainder);\n                totalBankroll = totalBankroll.add(remainder);\n                checkForRewardPayOut();\n            } else {\n                crush.transferFrom(msg.sender, address(stakingPool), _amount);\n                stakingPool.unfreezeStaking(_amount);\n                negativeBankroll = negativeBankroll.sub(_amount);\n            }\n        } else {\n            crush.transferFrom(msg.sender, address(this), _amount);\n            totalBankroll = totalBankroll.add(_amount);\n            checkForRewardPayOut();\n        }\n    }\n\n    function payOutUserWinning(\n        uint256 _amount,\n        address _winner\n    ) public {\n        require(\n            msg.sender == address(liveWallet),\n            \"Caller must be bitcrush live wallet\"\n        );\n        \n        \n        //check if bankroll has funds available\n        //if not dip into staking pool for any remainder\n        // update bankroll accordingly\n        if (_amount > totalBankroll) {\n            uint256 remainder = _amount.sub(totalBankroll);\n            poolDepleted = true;\n            stakingPool.freezeStaking(remainder, _winner);\n            negativeBankroll = negativeBankroll.add(remainder);\n            transferWinnings(totalBankroll, _winner);\n\n            totalBankroll = 0;\n        } else {\n            totalBankroll = totalBankroll.sub(_amount);\n            transferWinnings(_amount, _winner);\n        }\n    }\n\n    function transferWinnings(\n        uint256 _amount,\n        address _winner\n    ) internal {\n        crush.transfer(address(liveWallet), _amount);\n        liveWallet.addToUserWinnings(_amount, _winner);\n    }\n\n    function checkForRewardPayOut()\n        internal\n    {\n        if (totalBankroll > allTimeHigh) {\n            //payout winning\n            //handle calculation\n            //calculate share\n            //update all time high\n\n            uint256 difference = totalBankroll.sub(allTimeHigh);\n            if(profitShare > 0 ){\n                uint256 stakingBakrollProfit = difference.mul(profitShare).div(DIVISOR);\n                availableProfit = availableProfit.add(stakingBakrollProfit);\n            }\n            if(reserveShare > 0 ){\n                uint256 reserveCrush = difference.mul(reserveShare).div(DIVISOR);\n                crush.transfer(reserve, reserveCrush);\n            }\n            if(lotteryShare > 0){\n                uint256 lotteryCrush = difference.mul(lotteryShare).div(DIVISOR);\n                crush.transfer(lottery, lotteryCrush);\n            }\n            if(houseBankrollShare > 0){\n                uint256 bankrollShare = difference.mul(houseBankrollShare).div(DIVISOR);\n                //todo dont add again, optimize\n                totalBankroll = totalBankroll.add(bankrollShare);\n            }\n            uint256 burn = difference.mul(burnRate).div(DIVISOR);\n            crush.burn(burn); \n \n            allTimeHigh = totalBankroll;\n            totalBankroll = totalBankroll.sub(difference);\n            \n        }\n    }\n\n    function transferProfit() public returns (uint256) {\n        require(\n            msg.sender == address(stakingPool),\n            \"Caller must be staking pool\"\n        );\n        if (availableProfit >= profitThreshold) {\n            crush.transfer(address(stakingPool), availableProfit);\n            uint256 profit = availableProfit;\n            availableProfit = 0;\n            return profit;\n        } else {\n            return 0;\n        }\n    }\n\n    function setProfitThreshold(uint256 _threshold) public onlyOwner {\n        profitThreshold = _threshold;\n    }\n\n    function setHouseBankrollShare (uint256 _houseBankrollShare) public onlyOwner {\n        houseBankrollShare = _houseBankrollShare;\n    }\n\n    function setProfitShare (uint256 _profitShare) public onlyOwner {\n        profitShare = _profitShare;\n    }\n\n    function setLotteryShare (uint256 _lotteryShare) public onlyOwner {\n        lotteryShare = _lotteryShare;\n    }\n\n    function setReserveShare (uint256 _reserveShare) public onlyOwner {\n        reserveShare = _reserveShare;\n    }\n}\n",
  "sourcePath": "/Users/umerali/Desktop/FRAG/bitcrush/crush_contracts/contracts/HouseBankroll.sol",
  "compiler": {
    "name": "solc",
    "version": "0.6.2+commit.bacdbe57.Emscripten.clang"
  },
  "schemaVersion": "3.4.1",
  "updatedAt": "2021-08-23T06:26:04.096Z",
  "networkType": "ethereum",
  "devdoc": {
    "methods": {
      "owner()": {
        "details": "Returns the address of the current owner."
      },
      "renounceOwnership()": {
        "details": "Leaves the contract without owner. It will not be possible to call `onlyOwner` functions anymore. Can only be called by the current owner.     * NOTE: Renouncing ownership will leave the contract without an owner, thereby removing any functionality that is only available to the owner."
      },
      "transferOwnership(address)": {
        "details": "Transfers ownership of the contract to a new account (`newOwner`). Can only be called by the current owner."
      }
    }
  },
  "userdoc": {
    "methods": {}
  }
}