{
  "contractName": "BitcrushStaking",
  "abi": [
    {
      "inputs": [
        {
          "internalType": "contract CRUSHToken",
          "name": "_crush",
          "type": "address"
        },
        {
          "internalType": "uint256",
          "name": "_crushPerBlock",
          "type": "uint256"
        },
        {
          "internalType": "address",
          "name": "_reserveAddress",
          "type": "address"
        }
      ],
      "stateMutability": "nonpayable",
      "type": "constructor"
    },
    {
      "anonymous": false,
      "inputs": [],
      "name": "CompoundAll",
      "type": "event"
    },
    {
      "anonymous": false,
      "inputs": [
        {
          "indexed": true,
          "internalType": "address",
          "name": "previousOwner",
          "type": "address"
        },
        {
          "indexed": true,
          "internalType": "address",
          "name": "newOwner",
          "type": "address"
        }
      ],
      "name": "OwnershipTransferred",
      "type": "event"
    },
    {
      "anonymous": false,
      "inputs": [
        {
          "indexed": false,
          "internalType": "uint256",
          "name": "_totalPool",
          "type": "uint256"
        }
      ],
      "name": "RewardPoolUpdated",
      "type": "event"
    },
    {
      "inputs": [],
      "name": "EarlyWithdrawFee",
      "outputs": [
        {
          "internalType": "uint256",
          "name": "",
          "type": "uint256"
        }
      ],
      "stateMutability": "view",
      "type": "function",
      "constant": true
    },
    {
      "inputs": [],
      "name": "PerformanceFeeBurn",
      "outputs": [
        {
          "internalType": "uint256",
          "name": "",
          "type": "uint256"
        }
      ],
      "stateMutability": "view",
      "type": "function",
      "constant": true
    },
    {
      "inputs": [],
      "name": "PerformanceFeeCompounder",
      "outputs": [
        {
          "internalType": "uint256",
          "name": "",
          "type": "uint256"
        }
      ],
      "stateMutability": "view",
      "type": "function",
      "constant": true
    },
    {
      "inputs": [],
      "name": "PerformanceFeeReserve",
      "outputs": [
        {
          "internalType": "uint256",
          "name": "",
          "type": "uint256"
        }
      ],
      "stateMutability": "view",
      "type": "function",
      "constant": true
    },
    {
      "inputs": [
        {
          "internalType": "uint256",
          "name": "",
          "type": "uint256"
        }
      ],
      "name": "addressIndexes",
      "outputs": [
        {
          "internalType": "address",
          "name": "",
          "type": "address"
        }
      ],
      "stateMutability": "view",
      "type": "function",
      "constant": true
    },
    {
      "inputs": [],
      "name": "crushPerBlock",
      "outputs": [
        {
          "internalType": "uint256",
          "name": "",
          "type": "uint256"
        }
      ],
      "stateMutability": "view",
      "type": "function",
      "constant": true
    },
    {
      "inputs": [],
      "name": "lastAutoCompoundBlock",
      "outputs": [
        {
          "internalType": "uint256",
          "name": "",
          "type": "uint256"
        }
      ],
      "stateMutability": "view",
      "type": "function",
      "constant": true
    },
    {
      "inputs": [],
      "name": "owner",
      "outputs": [
        {
          "internalType": "address",
          "name": "",
          "type": "address"
        }
      ],
      "stateMutability": "view",
      "type": "function",
      "constant": true
    },
    {
      "inputs": [],
      "name": "renounceOwnership",
      "outputs": [],
      "stateMutability": "nonpayable",
      "type": "function"
    },
    {
      "inputs": [],
      "name": "reserveAddress",
      "outputs": [
        {
          "internalType": "address",
          "name": "",
          "type": "address"
        }
      ],
      "stateMutability": "view",
      "type": "function",
      "constant": true
    },
    {
      "inputs": [
        {
          "internalType": "address",
          "name": "",
          "type": "address"
        }
      ],
      "name": "stakings",
      "outputs": [
        {
          "internalType": "uint256",
          "name": "stakedAmount",
          "type": "uint256"
        },
        {
          "internalType": "uint256",
          "name": "claimedAmount",
          "type": "uint256"
        },
        {
          "internalType": "uint256",
          "name": "compoundedAmount",
          "type": "uint256"
        },
        {
          "internalType": "uint256",
          "name": "lastBlockCompounded",
          "type": "uint256"
        },
        {
          "internalType": "uint256",
          "name": "lastBlockStaked",
          "type": "uint256"
        },
        {
          "internalType": "uint256",
          "name": "index",
          "type": "uint256"
        }
      ],
      "stateMutability": "view",
      "type": "function",
      "constant": true
    },
    {
      "inputs": [],
      "name": "totalClaimed",
      "outputs": [
        {
          "internalType": "uint256",
          "name": "",
          "type": "uint256"
        }
      ],
      "stateMutability": "view",
      "type": "function",
      "constant": true
    },
    {
      "inputs": [],
      "name": "totalCompound",
      "outputs": [
        {
          "internalType": "uint256",
          "name": "",
          "type": "uint256"
        }
      ],
      "stateMutability": "view",
      "type": "function",
      "constant": true
    },
    {
      "inputs": [],
      "name": "totalPool",
      "outputs": [
        {
          "internalType": "uint256",
          "name": "",
          "type": "uint256"
        }
      ],
      "stateMutability": "view",
      "type": "function",
      "constant": true
    },
    {
      "inputs": [],
      "name": "totalStaked",
      "outputs": [
        {
          "internalType": "uint256",
          "name": "",
          "type": "uint256"
        }
      ],
      "stateMutability": "view",
      "type": "function",
      "constant": true
    },
    {
      "inputs": [
        {
          "internalType": "address",
          "name": "newOwner",
          "type": "address"
        }
      ],
      "name": "transferOwnership",
      "outputs": [],
      "stateMutability": "nonpayable",
      "type": "function"
    },
    {
      "inputs": [
        {
          "internalType": "uint256",
          "name": "_amount",
          "type": "uint256"
        }
      ],
      "name": "addRewardToPool",
      "outputs": [],
      "stateMutability": "nonpayable",
      "type": "function"
    },
    {
      "inputs": [
        {
          "internalType": "uint256",
          "name": "_amount",
          "type": "uint256"
        }
      ],
      "name": "setCrushPerBlock",
      "outputs": [],
      "stateMutability": "nonpayable",
      "type": "function"
    },
    {
      "inputs": [
        {
          "internalType": "uint256",
          "name": "_amount",
          "type": "uint256"
        }
      ],
      "name": "enterStaking",
      "outputs": [],
      "stateMutability": "nonpayable",
      "type": "function"
    },
    {
      "inputs": [
        {
          "internalType": "uint256",
          "name": "_amount",
          "type": "uint256"
        }
      ],
      "name": "leaveStaking",
      "outputs": [],
      "stateMutability": "nonpayable",
      "type": "function"
    },
    {
      "inputs": [],
      "name": "totalPendingRewards",
      "outputs": [
        {
          "internalType": "uint256",
          "name": "",
          "type": "uint256"
        }
      ],
      "stateMutability": "view",
      "type": "function",
      "constant": true
    },
    {
      "inputs": [
        {
          "internalType": "address",
          "name": "_address",
          "type": "address"
        }
      ],
      "name": "pendingReward",
      "outputs": [
        {
          "internalType": "uint256",
          "name": "",
          "type": "uint256"
        }
      ],
      "stateMutability": "view",
      "type": "function",
      "constant": true
    },
    {
      "inputs": [],
      "name": "claim",
      "outputs": [],
      "stateMutability": "nonpayable",
      "type": "function"
    },
    {
      "inputs": [],
      "name": "singleCompound",
      "outputs": [],
      "stateMutability": "nonpayable",
      "type": "function"
    },
    {
      "inputs": [],
      "name": "compoundAll",
      "outputs": [],
      "stateMutability": "nonpayable",
      "type": "function"
    },
    {
      "inputs": [],
      "name": "emergencyWithdraw",
      "outputs": [],
      "stateMutability": "nonpayable",
      "type": "function"
    },
    {
      "inputs": [],
      "name": "emergencyRewardWithdraw",
      "outputs": [],
      "stateMutability": "nonpayable",
      "type": "function"
    }
  ],
  "bytecode": "0x60806040523480156200001157600080fd5b50604051620035d8380380620035d8833981810160405260608110156200003757600080fd5b8101908080519060200190929190805190602001909291908051906020019092919050505060006200006e620001a560201b60201c565b9050806000806101000a81548173ffffffffffffffffffffffffffffffffffffffff021916908373ffffffffffffffffffffffffffffffffffffffff1602179055508073ffffffffffffffffffffffffffffffffffffffff16600073ffffffffffffffffffffffffffffffffffffffff167f8be0079c531659141344cd1fd0a4f28419497f9722a3daafe3b4186f6b6457e060405160405180910390a35082600160006101000a81548173ffffffffffffffffffffffffffffffffffffffff021916908373ffffffffffffffffffffffffffffffffffffffff1602179055508160068190555080600760006101000a81548173ffffffffffffffffffffffffffffffffffffffff021916908373ffffffffffffffffffffffffffffffffffffffff16021790555043600581905550505050620001ad565b600033905090565b61341b80620001bd6000396000f3fe608060405234801561001057600080fd5b50600436106101a95760003560e01c80639b05ddb3116100f9578063db2e21bc11610097578063ecfb49a311610071578063ecfb49a314610501578063f2fde38b1461051f578063f40f0f5214610563578063f79ed94b146105bb576101a9565b8063db2e21bc1461045e578063dc6e13e114610468578063ec1371f2146104e3576101a9565b8063b4cd9418116100d3578063b4cd9418146103fa578063c61f1c0b14610418578063d437c6be14610436578063d54ad2a114610440576101a9565b80639b05ddb3146103a45780639d7fe125146103ae578063a775573a146103cc576101a9565b8063555db7d611610166578063715018a611610140578063715018a6146103145780637db07c9d1461031e578063817b1cd21461033c5780638da5cb5b1461035a576101a9565b8063555db7d61461027e5780635692f1381461029c5780635832d571146102a6576101a9565b806301a4bb45146101ae5780631058d281146101cc5780633a53ed49146101fa57806341441d3b146102285780634bf211b8146102565780634e71d92d14610274575b600080fd5b6101b6610605565b6040518082815260200191505060405180910390f35b6101f8600480360360208110156101e257600080fd5b810190808035906020019092919050505061060a565b005b6102266004803603602081101561021057600080fd5b8101908080359060200190929190505050610f32565b005b6102546004803603602081101561023e57600080fd5b81019080803590602001909291905050506111c3565b005b61025e6116bb565b6040518082815260200191505060405180910390f35b61027c6116c1565b005b610286611a73565b6040518082815260200191505060405180910390f35b6102a4611a78565b005b6102d2600480360360208110156102bc57600080fd5b8101908080359060200190929190505050611b88565b604051808273ffffffffffffffffffffffffffffffffffffffff1673ffffffffffffffffffffffffffffffffffffffff16815260200191505060405180910390f35b61031c611bc4565b005b610326611d4c565b6040518082815260200191505060405180910390f35b610344611d52565b6040518082815260200191505060405180910390f35b610362611d58565b604051808273ffffffffffffffffffffffffffffffffffffffff1673ffffffffffffffffffffffffffffffffffffffff16815260200191505060405180910390f35b6103ac611d81565b005b6103b66123ae565b6040518082815260200191505060405180910390f35b6103f8600480360360208110156103e257600080fd5b81019080803590602001909291905050506123b3565b005b6104026124e0565b6040518082815260200191505060405180910390f35b6104206124e5565b6040518082815260200191505060405180910390f35b61043e6124eb565b005b6104486126f8565b6040518082815260200191505060405180910390f35b6104666126fe565b005b6104aa6004803603602081101561047e57600080fd5b81019080803573ffffffffffffffffffffffffffffffffffffffff169060200190929190505050612b66565b60405180878152602001868152602001858152602001848152602001838152602001828152602001965050505050505060405180910390f35b6104eb612ba2565b6040518082815260200191505060405180910390f35b610509612bdd565b6040518082815260200191505060405180910390f35b6105616004803603602081101561053557600080fd5b81019080803573ffffffffffffffffffffffffffffffffffffffff169060200190929190505050612be3565b005b6105a56004803603602081101561057957600080fd5b81019080803573ffffffffffffffffffffffffffffffffffffffff169060200190929190505050612cb8565b6040518082815260200191505060405180910390f35b6105c3612cca565b604051808273ffffffffffffffffffffffffffffffffffffffff1673ffffffffffffffffffffffffffffffffffffffff16815260200191505060405180910390f35b600181565b80600260003373ffffffffffffffffffffffffffffffffffffffff1673ffffffffffffffffffffffffffffffffffffffff1681526020019081526020016000206000015410156106a5576040517f08c379a00000000000000000000000000000000000000000000000000000000081526004018080602001828103825260358152602001806133b16035913960400191505060405180910390fd5b60006106b033612cf0565b905080600260003373ffffffffffffffffffffffffffffffffffffffff1673ffffffffffffffffffffffffffffffffffffffff1681526020019081526020016000206002016000828254019250508190555043600260003373ffffffffffffffffffffffffffffffffffffffff1673ffffffffffffffffffffffffffffffffffffffff1681526020019081526020016000206003018190555060008090506107618382612e4290919063ffffffff16565b90506107b8600260003373ffffffffffffffffffffffffffffffffffffffff1673ffffffffffffffffffffffffffffffffffffffff1681526020019081526020016000206002015482612e4290919063ffffffff16565b90506107cf81600454612eca90919063ffffffff16565b6004819055506107ea81600854612eca90919063ffffffff16565b600881905550610847600260003373ffffffffffffffffffffffffffffffffffffffff1673ffffffffffffffffffffffffffffffffffffffff16815260200190815260200160002060020154600954612eca90919063ffffffff16565b600981905550600260003373ffffffffffffffffffffffffffffffffffffffff1673ffffffffffffffffffffffffffffffffffffffff16815260200190815260200160002060020154600260003373ffffffffffffffffffffffffffffffffffffffff1673ffffffffffffffffffffffffffffffffffffffff1681526020019081526020016000206001016000828254019250508190555062015180600260003373ffffffffffffffffffffffffffffffffffffffff1673ffffffffffffffffffffffffffffffffffffffff1681526020019081526020016000206004015401431015610a785760006109586109496103e86005612f1490919063ffffffff16565b83612f5e90919063ffffffff16565b905061096d8183612eca90919063ffffffff16565b9150600160009054906101000a900473ffffffffffffffffffffffffffffffffffffffff1673ffffffffffffffffffffffffffffffffffffffff1663a9059cbb600760009054906101000a900473ffffffffffffffffffffffffffffffffffffffff16836040518363ffffffff1660e01b8152600401808373ffffffffffffffffffffffffffffffffffffffff1673ffffffffffffffffffffffffffffffffffffffff16815260200182815260200192505050602060405180830381600087803b158015610a3a57600080fd5b505af1158015610a4e573d6000803e3d6000fd5b505050506040513d6020811015610a6457600080fd5b810190808051906020019092919050505050505b600160009054906101000a900473ffffffffffffffffffffffffffffffffffffffff1673ffffffffffffffffffffffffffffffffffffffff1663a9059cbb33836040518363ffffffff1660e01b8152600401808373ffffffffffffffffffffffffffffffffffffffff1673ffffffffffffffffffffffffffffffffffffffff16815260200182815260200192505050602060405180830381600087803b158015610b2157600080fd5b505af1158015610b35573d6000803e3d6000fd5b505050506040513d6020811015610b4b57600080fd5b810190808051906020019092919050505050610bb283600260003373ffffffffffffffffffffffffffffffffffffffff1673ffffffffffffffffffffffffffffffffffffffff16815260200190815260200160002060000154612eca90919063ffffffff16565b600260003373ffffffffffffffffffffffffffffffffffffffff1673ffffffffffffffffffffffffffffffffffffffff168152602001908152602001600020600001819055506000600260003373ffffffffffffffffffffffffffffffffffffffff1673ffffffffffffffffffffffffffffffffffffffff168152602001908152602001600020600201819055506000600260003373ffffffffffffffffffffffffffffffffffffffff1673ffffffffffffffffffffffffffffffffffffffff168152602001908152602001600020600001541415610ef4576000600260003373ffffffffffffffffffffffffffffffffffffffff1673ffffffffffffffffffffffffffffffffffffffff1681526020019081526020016000209050600160038054905003816005015414610eb2576000600360016003805490500381548110610cf857fe5b9060005260206000200160009054906101000a900473ffffffffffffffffffffffffffffffffffffffff169050806003836005015481548110610d3757fe5b9060005260206000200160006101000a81548173ffffffffffffffffffffffffffffffffffffffff021916908373ffffffffffffffffffffffffffffffffffffffff1602179055508160050154600260008373ffffffffffffffffffffffffffffffffffffffff1673ffffffffffffffffffffffffffffffffffffffff16815260200190815260200160002060050181905550600160009054906101000a900473ffffffffffffffffffffffffffffffffffffffff1673ffffffffffffffffffffffffffffffffffffffff1663095ea7b33060006040518363ffffffff1660e01b8152600401808373ffffffffffffffffffffffffffffffffffffffff1673ffffffffffffffffffffffffffffffffffffffff16815260200182815260200192505050602060405180830381600087803b158015610e7457600080fd5b505af1158015610e88573d6000803e3d6000fd5b505050506040513d6020811015610e9e57600080fd5b810190808051906020019092919050505050505b6003805480610ebd57fe5b6001900381819060005260206000200160006101000a81549073ffffffffffffffffffffffffffffffffffffffff02191690559055505b7f1ef37ab665f7c977b577275d7a49e72cd18d1143eccd1112f1198e4a39d1428c6004546040518082815260200191505060405180910390a1505050565b80600160009054906101000a900473ffffffffffffffffffffffffffffffffffffffff1673ffffffffffffffffffffffffffffffffffffffff166370a08231336040518263ffffffff1660e01b8152600401808273ffffffffffffffffffffffffffffffffffffffff1673ffffffffffffffffffffffffffffffffffffffff16815260200191505060206040518083038186803b158015610fd257600080fd5b505afa158015610fe6573d6000803e3d6000fd5b505050506040513d6020811015610ffc57600080fd5b810190808051906020019092919050505011611063576040517f08c379a000000000000000000000000000000000000000000000000000000000815260040180806020018281038252602681526020018061338b6026913960400191505060405180910390fd5b8060045401600481905550600160009054906101000a900473ffffffffffffffffffffffffffffffffffffffff1673ffffffffffffffffffffffffffffffffffffffff166323b872dd3330846040518463ffffffff1660e01b8152600401808473ffffffffffffffffffffffffffffffffffffffff1673ffffffffffffffffffffffffffffffffffffffff1681526020018373ffffffffffffffffffffffffffffffffffffffff1673ffffffffffffffffffffffffffffffffffffffff1681526020018281526020019350505050602060405180830381600087803b15801561114b57600080fd5b505af115801561115f573d6000803e3d6000fd5b505050506040513d602081101561117557600080fd5b8101908080519060200190929190505050507f1ef37ab665f7c977b577275d7a49e72cd18d1143eccd1112f1198e4a39d1428c6004546040518082815260200191505060405180910390a150565b80600160009054906101000a900473ffffffffffffffffffffffffffffffffffffffff1673ffffffffffffffffffffffffffffffffffffffff166370a08231336040518263ffffffff1660e01b8152600401808273ffffffffffffffffffffffffffffffffffffffff1673ffffffffffffffffffffffffffffffffffffffff16815260200191505060206040518083038186803b15801561126357600080fd5b505afa158015611277573d6000803e3d6000fd5b505050506040513d602081101561128d57600080fd5b8101908080519060200190929190505050116112f4576040517f08c379a000000000000000000000000000000000000000000000000000000000815260040180806020018281038252602681526020018061338b6026913960400191505060405180910390fd5b60006004541161136c576040517f08c379a00000000000000000000000000000000000000000000000000000000081526004018080602001828103825260158152602001807f52657761726420506f6f6c20457868617573746564000000000000000000000081525060200191505060405180910390fd5b600160009054906101000a900473ffffffffffffffffffffffffffffffffffffffff1673ffffffffffffffffffffffffffffffffffffffff166323b872dd3330846040518463ffffffff1660e01b8152600401808473ffffffffffffffffffffffffffffffffffffffff1673ffffffffffffffffffffffffffffffffffffffff1681526020018373ffffffffffffffffffffffffffffffffffffffff1673ffffffffffffffffffffffffffffffffffffffff1681526020018281526020019350505050602060405180830381600087803b15801561144957600080fd5b505af115801561145d573d6000803e3d6000fd5b505050506040513d602081101561147357600080fd5b8101908080519060200190929190505050506000600260003373ffffffffffffffffffffffffffffffffffffffff1673ffffffffffffffffffffffffffffffffffffffff1681526020019081526020016000206000015414156116115743600260003373ffffffffffffffffffffffffffffffffffffffff1673ffffffffffffffffffffffffffffffffffffffff1681526020019081526020016000206003018190555043600260003373ffffffffffffffffffffffffffffffffffffffff1673ffffffffffffffffffffffffffffffffffffffff168152602001908152602001600020600401819055506003339080600181540180825580915050600190039060005260206000200160009091909190916101000a81548173ffffffffffffffffffffffffffffffffffffffff021916908373ffffffffffffffffffffffffffffffffffffffff160217905550600160038054905003600260003373ffffffffffffffffffffffffffffffffffffffff1673ffffffffffffffffffffffffffffffffffffffff168152602001908152602001600020600501819055505b80600260003373ffffffffffffffffffffffffffffffffffffffff1673ffffffffffffffffffffffffffffffffffffffff1681526020019081526020016000206000016000828254019250508190555043600260003373ffffffffffffffffffffffffffffffffffffffff1673ffffffffffffffffffffffffffffffffffffffff168152602001908152602001600020600401819055508060086000828254019250508190555050565b60055481565b6116c9611a78565b6000600260003373ffffffffffffffffffffffffffffffffffffffff1673ffffffffffffffffffffffffffffffffffffffff1681526020019081526020016000206002015411611764576040517f08c379a00000000000000000000000000000000000000000000000000000000081526004018080602001828103825260288152602001806133636028913960400191505060405180910390fd5b600260003373ffffffffffffffffffffffffffffffffffffffff1673ffffffffffffffffffffffffffffffffffffffff16815260200190815260200160002060020154600260003373ffffffffffffffffffffffffffffffffffffffff1673ffffffffffffffffffffffffffffffffffffffff16815260200190815260200160002060010160008282540192505081905550600160009054906101000a900473ffffffffffffffffffffffffffffffffffffffff1673ffffffffffffffffffffffffffffffffffffffff1663a9059cbb33600260003373ffffffffffffffffffffffffffffffffffffffff1673ffffffffffffffffffffffffffffffffffffffff168152602001908152602001600020600201546040518363ffffffff1660e01b8152600401808373ffffffffffffffffffffffffffffffffffffffff1673ffffffffffffffffffffffffffffffffffffffff16815260200182815260200192505050602060405180830381600087803b1580156118e157600080fd5b505af11580156118f5573d6000803e3d6000fd5b505050506040513d602081101561190b57600080fd5b810190808051906020019092919050505050611974600260003373ffffffffffffffffffffffffffffffffffffffff1673ffffffffffffffffffffffffffffffffffffffff16815260200190815260200160002060020154600854612eca90919063ffffffff16565b6008819055506119d1600260003373ffffffffffffffffffffffffffffffffffffffff1673ffffffffffffffffffffffffffffffffffffffff16815260200190815260200160002060020154600954612eca90919063ffffffff16565b600981905550600260003373ffffffffffffffffffffffffffffffffffffffff1673ffffffffffffffffffffffffffffffffffffffff16815260200190815260200160002060020154600a600082825401925050819055506000600260003373ffffffffffffffffffffffffffffffffffffffff1673ffffffffffffffffffffffffffffffffffffffff16815260200190815260200160002060020181905550565b601381565b6000611a8333612cf0565b905080600260003373ffffffffffffffffffffffffffffffffffffffff1673ffffffffffffffffffffffffffffffffffffffff168152602001908152602001600020600201600082825401925050819055508060086000828254019250508190555043600260003373ffffffffffffffffffffffffffffffffffffffff1673ffffffffffffffffffffffffffffffffffffffff1681526020019081526020016000206003018190555080600860008282540192505081905550806009600082825401925050819055507f1ef37ab665f7c977b577275d7a49e72cd18d1143eccd1112f1198e4a39d1428c6004546040518082815260200191505060405180910390a150565b60038181548110611b9557fe5b906000526020600020016000915054906101000a900473ffffffffffffffffffffffffffffffffffffffff1681565b611bcc612fe4565b73ffffffffffffffffffffffffffffffffffffffff166000809054906101000a900473ffffffffffffffffffffffffffffffffffffffff1673ffffffffffffffffffffffffffffffffffffffff1614611c8d576040517f08c379a00000000000000000000000000000000000000000000000000000000081526004018080602001828103825260208152602001807f4f776e61626c653a2063616c6c6572206973206e6f7420746865206f776e657281525060200191505060405180910390fd5b600073ffffffffffffffffffffffffffffffffffffffff166000809054906101000a900473ffffffffffffffffffffffffffffffffffffffff1673ffffffffffffffffffffffffffffffffffffffff167f8be0079c531659141344cd1fd0a4f28419497f9722a3daafe3b4186f6b6457e060405160405180910390a360008060006101000a81548173ffffffffffffffffffffffffffffffffffffffff021916908373ffffffffffffffffffffffffffffffffffffffff160217905550565b60095481565b60085481565b60008060009054906101000a900473ffffffffffffffffffffffffffffffffffffffff16905090565b4360055410611ddb576040517f08c379a00000000000000000000000000000000000000000000000000000000081526004018080602001828103825260218152602001806132dd6021913960400191505060405180910390fd5b600080905060008090506000809050600080905060008090505b6003805490508110156120a7576000611e4460038381548110611e1457fe5b9060005260206000200160009054906101000a900473ffffffffffffffffffffffffffffffffffffffff16612cf0565b90506000611e6f611e6060646001612f1490919063ffffffff16565b83612f5e90919063ffffffff16565b9050611e848188612e4290919063ffffffff16565b96506000611eaf611ea060646001612f1490919063ffffffff16565b84612f5e90919063ffffffff16565b9050611ec48188612e4290919063ffffffff16565b96506000611ef0611ee16103e86013612f1490919063ffffffff16565b85612f5e90919063ffffffff16565b9050611f058188612e4290919063ffffffff16565b9650611f1a8385612eca90919063ffffffff16565b9350611f2f8285612eca90919063ffffffff16565b9350611f448185612eca90919063ffffffff16565b9350611f5b84600854612e4290919063ffffffff16565b600881905550611f748487612e4290919063ffffffff16565b9550611f8b84600954612e4290919063ffffffff16565b600981905550836002600060038881548110611fa357fe5b9060005260206000200160009054906101000a900473ffffffffffffffffffffffffffffffffffffffff1673ffffffffffffffffffffffffffffffffffffffff1673ffffffffffffffffffffffffffffffffffffffff1681526020019081526020016000206002016000828254019250508190555043600260006003888154811061202a57fe5b9060005260206000200160009054906101000a900473ffffffffffffffffffffffffffffffffffffffff1673ffffffffffffffffffffffffffffffffffffffff1673ffffffffffffffffffffffffffffffffffffffff16815260200190815260200160002060030181905550505050508080600101915050611df5565b5043600581905550600160009054906101000a900473ffffffffffffffffffffffffffffffffffffffff1673ffffffffffffffffffffffffffffffffffffffff166342966c68856040518263ffffffff1660e01b815260040180828152602001915050600060405180830381600087803b15801561212457600080fd5b505af1158015612138573d6000803e3d6000fd5b50505050600160009054906101000a900473ffffffffffffffffffffffffffffffffffffffff1673ffffffffffffffffffffffffffffffffffffffff1663a9059cbb33856040518363ffffffff1660e01b8152600401808373ffffffffffffffffffffffffffffffffffffffff1673ffffffffffffffffffffffffffffffffffffffff16815260200182815260200192505050602060405180830381600087803b1580156121e557600080fd5b505af11580156121f9573d6000803e3d6000fd5b505050506040513d602081101561220f57600080fd5b810190808051906020019092919050505050600160009054906101000a900473ffffffffffffffffffffffffffffffffffffffff1673ffffffffffffffffffffffffffffffffffffffff1663a9059cbb600760009054906101000a900473ffffffffffffffffffffffffffffffffffffffff16846040518363ffffffff1660e01b8152600401808373ffffffffffffffffffffffffffffffffffffffff1673ffffffffffffffffffffffffffffffffffffffff16815260200182815260200192505050602060405180830381600087803b1580156122ec57600080fd5b505af1158015612300573d6000803e3d6000fd5b505050506040513d602081101561231657600080fd5b81019080805190602001909291905050505061233d81600454612eca90919063ffffffff16565b6004819055507f698b3a0edc6b3c65b95358361ae6fc603b7bca78d8eb96dcc0b6bbeb937afb5960405160405180910390a17f1ef37ab665f7c977b577275d7a49e72cd18d1143eccd1112f1198e4a39d1428c6004546040518082815260200191505060405180910390a150505050565b600581565b6123bb612fe4565b73ffffffffffffffffffffffffffffffffffffffff166000809054906101000a900473ffffffffffffffffffffffffffffffffffffffff1673ffffffffffffffffffffffffffffffffffffffff161461247c576040517f08c379a00000000000000000000000000000000000000000000000000000000081526004018080602001828103825260208152602001807f4f776e61626c653a2063616c6c6572206973206e6f7420746865206f776e657281525060200191505060405180910390fd5b60008110156124d6576040517f08c379a00000000000000000000000000000000000000000000000000000000081526004018080602001828103825260238152602001806133406023913960400191505060405180910390fd5b8060068190555050565b600181565b60065481565b6124f3612fe4565b73ffffffffffffffffffffffffffffffffffffffff166000809054906101000a900473ffffffffffffffffffffffffffffffffffffffff1673ffffffffffffffffffffffffffffffffffffffff16146125b4576040517f08c379a00000000000000000000000000000000000000000000000000000000081526004018080602001828103825260208152602001807f4f776e61626c653a2063616c6c6572206973206e6f7420746865206f776e657281525060200191505060405180910390fd5b60006009541161260f576040517f08c379a00000000000000000000000000000000000000000000000000000000081526004018080602001828103825260218152602001806132fe6021913960400191505060405180910390fd5b600160009054906101000a900473ffffffffffffffffffffffffffffffffffffffff1673ffffffffffffffffffffffffffffffffffffffff1663a9059cbb336009546040518363ffffffff1660e01b8152600401808373ffffffffffffffffffffffffffffffffffffffff1673ffffffffffffffffffffffffffffffffffffffff16815260200182815260200192505050602060405180830381600087803b1580156126ba57600080fd5b505af11580156126ce573d6000803e3d6000fd5b505050506040513d60208110156126e457600080fd5b810190808051906020019092919050505050565b600a5481565b600160009054906101000a900473ffffffffffffffffffffffffffffffffffffffff1673ffffffffffffffffffffffffffffffffffffffff1663a9059cbb33600260003373ffffffffffffffffffffffffffffffffffffffff1673ffffffffffffffffffffffffffffffffffffffff168152602001908152602001600020600001546040518363ffffffff1660e01b8152600401808373ffffffffffffffffffffffffffffffffffffffff1673ffffffffffffffffffffffffffffffffffffffff16815260200182815260200192505050602060405180830381600087803b1580156127e957600080fd5b505af11580156127fd573d6000803e3d6000fd5b505050506040513d602081101561281357600080fd5b8101908080519060200190929190505050506000600260003373ffffffffffffffffffffffffffffffffffffffff1673ffffffffffffffffffffffffffffffffffffffff168152602001908152602001600020600001819055506000600260003373ffffffffffffffffffffffffffffffffffffffff1673ffffffffffffffffffffffffffffffffffffffff1681526020019081526020016000206002018190555043600260003373ffffffffffffffffffffffffffffffffffffffff1673ffffffffffffffffffffffffffffffffffffffff168152602001908152602001600020600301819055506000600260003373ffffffffffffffffffffffffffffffffffffffff1673ffffffffffffffffffffffffffffffffffffffff1681526020019081526020016000209050600160038054905003816005015414612a3d57600060036001600380549050038154811061296957fe5b9060005260206000200160009054906101000a900473ffffffffffffffffffffffffffffffffffffffff1690508060038360050154815481106129a857fe5b9060005260206000200160006101000a81548173ffffffffffffffffffffffffffffffffffffffff021916908373ffffffffffffffffffffffffffffffffffffffff1602179055508160050154600260008373ffffffffffffffffffffffffffffffffffffffff1673ffffffffffffffffffffffffffffffffffffffff16815260200190815260200160002060050181905550505b6003805480612a4857fe5b6001900381819060005260206000200160006101000a81549073ffffffffffffffffffffffffffffffffffffffff02191690559055600160009054906101000a900473ffffffffffffffffffffffffffffffffffffffff1673ffffffffffffffffffffffffffffffffffffffff1663095ea7b33060006040518363ffffffff1660e01b8152600401808373ffffffffffffffffffffffffffffffffffffffff1673ffffffffffffffffffffffffffffffffffffffff16815260200182815260200192505050602060405180830381600087803b158015612b2757600080fd5b505af1158015612b3b573d6000803e3d6000fd5b505050506040513d6020811015612b5157600080fd5b81019080805190602001909291905050505050565b60026020528060005260406000206000915090508060000154908060010154908060020154908060030154908060040154908060050154905086565b600080612bba60055443612eca90919063ffffffff16565b90506000612bd360065483612f5e90919063ffffffff16565b9050809250505090565b60045481565b612beb612fe4565b73ffffffffffffffffffffffffffffffffffffffff166000809054906101000a900473ffffffffffffffffffffffffffffffffffffffff1673ffffffffffffffffffffffffffffffffffffffff1614612cac576040517f08c379a00000000000000000000000000000000000000000000000000000000081526004018080602001828103825260208152602001807f4f776e61626c653a2063616c6c6572206973206e6f7420746865206f776e657281525060200191505060405180910390fd5b612cb581612fec565b50565b6000612cc382612cf0565b9050919050565b600760009054906101000a900473ffffffffffffffffffffffffffffffffffffffff1681565b6000600260008373ffffffffffffffffffffffffffffffffffffffff1673ffffffffffffffffffffffffffffffffffffffff168152602001908152602001600020600301544311612d445760009050612e3d565b600060045411612d575760009050612e3d565b6000612dae600260008573ffffffffffffffffffffffffffffffffffffffff1673ffffffffffffffffffffffffffffffffffffffff1681526020019081526020016000206003015443612eca90919063ffffffff16565b90506000612dc760065483612f5e90919063ffffffff16565b90506000612e34612e25600854600260008973ffffffffffffffffffffffffffffffffffffffff1673ffffffffffffffffffffffffffffffffffffffff16815260200190815260200160002060000154612f1490919063ffffffff16565b83612f5e90919063ffffffff16565b90508093505050505b919050565b600080828401905083811015612ec0576040517f08c379a000000000000000000000000000000000000000000000000000000000815260040180806020018281038252601b8152602001807f536166654d6174683a206164646974696f6e206f766572666c6f77000000000081525060200191505060405180910390fd5b8091505092915050565b6000612f0c83836040518060400160405280601e81526020017f536166654d6174683a207375627472616374696f6e206f766572666c6f770000815250613130565b905092915050565b6000612f5683836040518060400160405280601a81526020017f536166654d6174683a206469766973696f6e206279207a65726f0000000000008152506131f0565b905092915050565b600080831415612f715760009050612fde565b6000828402905082848281612f8257fe5b0414612fd9576040517f08c379a000000000000000000000000000000000000000000000000000000000815260040180806020018281038252602181526020018061331f6021913960400191505060405180910390fd5b809150505b92915050565b600033905090565b600073ffffffffffffffffffffffffffffffffffffffff168173ffffffffffffffffffffffffffffffffffffffff161415613072576040517f08c379a00000000000000000000000000000000000000000000000000000000081526004018080602001828103825260268152602001806132b76026913960400191505060405180910390fd5b8073ffffffffffffffffffffffffffffffffffffffff166000809054906101000a900473ffffffffffffffffffffffffffffffffffffffff1673ffffffffffffffffffffffffffffffffffffffff167f8be0079c531659141344cd1fd0a4f28419497f9722a3daafe3b4186f6b6457e060405160405180910390a3806000806101000a81548173ffffffffffffffffffffffffffffffffffffffff021916908373ffffffffffffffffffffffffffffffffffffffff16021790555050565b60008383111582906131dd576040517f08c379a00000000000000000000000000000000000000000000000000000000081526004018080602001828103825283818151815260200191508051906020019080838360005b838110156131a2578082015181840152602081019050613187565b50505050905090810190601f1680156131cf5780820380516001836020036101000a031916815260200191505b509250505060405180910390fd5b5060008385039050809150509392505050565b6000808311829061329c576040517f08c379a00000000000000000000000000000000000000000000000000000000081526004018080602001828103825283818151815260200191508051906020019080838360005b83811015613261578082015181840152602081019050613246565b50505050905090810190601f16801561328e5780820380516001836020036101000a031916815260200191505b509250505060405180910390fd5b5060008385816132a857fe5b04905080915050939250505056fe4f776e61626c653a206e6577206f776e657220697320746865207a65726f2061646472657373436f6d706f756e6420416c6c206e6f7420796574206170706c69636174696f6e2e52657761726473206e65656420746f2062652067726561746572207468616e2030536166654d6174683a206d756c7469706c69636174696f6e206f766572666c6f7743727573682070657220426c6f636b2063616e206e6f74206265206e65676174697665436f6d706f756e64656420416d6f756e74206d7573742062652067726561746572207468616e2030496e73756666696369656e7420437275736820746f6b656e7320666f72207472616e73666572576974686472617720616d6f756e742063616e206e6f742062652067726561746572207468616e207374616b656420616d6f756e74a2646970667358221220c423343a96d2081d43c4634a9c5a82ead446dd76e0e349789fa25348731011b864736f6c63430006020033",
  "source": "//SPDX-License-Identifier: UNLICENSED\npragma solidity >=0.6.2;\n\nimport \"@pancakeswap/pancake-swap-lib/contracts/access/Ownable.sol\";\nimport \"./CrushCoin.sol\";\nimport \"@pancakeswap/pancake-swap-lib/contracts/math/SafeMath.sol\";\ncontract BitcrushStaking is Ownable {\n    using SafeMath for uint256;\n    \n    // Constants\n    uint256 constant public PerformanceFeeCompounder = 1;\n    uint256 constant public PerformanceFeeBurn       = 1;\n    uint256 constant DivisorA = 100;\n    \n    uint256 constant public EarlyWithdrawFee         = 5;\n    uint256 constant public PerformanceFeeReserve    = 19;\n    uint256 constant DivisorB = 1000;\n\n    uint256 constant EarlyWithdrawFeeTime = 72 * 60 * 60 / 3;\n    \n    CRUSHToken crush;\n\n    struct staked {\n        uint256 stakedAmount;\n        uint256 claimedAmount;\n        uint256 compoundedAmount;\n        uint256 lastBlockCompounded;\n        uint256 lastBlockStaked;\n        uint256 index;\n    }\n    mapping (address => staked) public stakings;\n    address[] public addressIndexes;\n\n    uint256 public totalPool;\n    uint256 public lastAutoCompoundBlock;\n    uint256 public crushPerBlock;\n    address public reserveAddress;\n\n    uint256 public totalStaked;\n    uint256 public totalCompound;\n    uint256 public totalClaimed;\n\n    event RewardPoolUpdated (uint256 _totalPool);\n    event CompoundAll ();\n\n    constructor (CRUSHToken _crush, uint256 _crushPerBlock, address _reserveAddress) public{\n        crush = _crush;\n        crushPerBlock = _crushPerBlock;\n        reserveAddress = _reserveAddress;\n        lastAutoCompoundBlock = block.number;\n    }\n\n    //Increases the CRUSH prize pool by receiving tokens\n    //Receive/Transfer the amount of CRUSH specified in _amount into itself from msg.sender\n    //Increase TotalPool\n    function addRewardToPool (uint256 _amount) public  {\n        require(crush.balanceOf(msg.sender) > _amount, \"Insufficient Crush tokens for transfer\");\n        totalPool = totalPool + _amount;\n        crush.transferFrom(msg.sender, address(this), _amount);\n        emit RewardPoolUpdated(totalPool);\n    }\n\n    //Edits CrushPerBlock to be equal to _amount\n    function setCrushPerBlock (uint256 _amount) public onlyOwner {\n        require(_amount >= 0, \"Crush per Block can not be negative\" );\n        crushPerBlock = _amount;\n    }\n\n\n    //Stake CRUSH in Contract\n    //Transfer CRUSH from msg.sender to Contract \n    //Add user to Staked Mapping, if user exists, update Staked amount\n    function enterStaking (uint256 _amount) public  {\n        require(crush.balanceOf(msg.sender) > _amount, \"Insufficient Crush tokens for transfer\");\n        require(totalPool > 0, \"Reward Pool Exhausted\");\n        \n        crush.transferFrom(msg.sender, address(this), _amount);\n        if(stakings[msg.sender].stakedAmount == 0){\n            stakings[msg.sender].lastBlockCompounded = block.number;\n            stakings[msg.sender].lastBlockStaked = block.number;\n            addressIndexes.push(msg.sender);\n            stakings[msg.sender].index = addressIndexes.length-1;\n        }\n        stakings[msg.sender].stakedAmount += _amount;\n        stakings[msg.sender].lastBlockStaked = block.number;\n        totalStaked += _amount;\n       \n    }\n\n    //Withdraw CRUSH from staking and claim rewards\n    //Decrease Staked Amount from Staked\n    //Transfer CRUSH from Contract to msg.sender, amount to be determined by \n    function leaveStaking (uint256 _amount) public  {\n        //check time\n        //impose penalty if time limit not met\n        //check amount is less than staked amount\n        //transfer reward and amount specified\n        require(stakings[msg.sender].stakedAmount >= _amount, \"Withdraw amount can not be greater than staked amount\");\n        uint256 reward = getReward(msg.sender);\n        stakings[msg.sender].compoundedAmount += reward;\n        stakings[msg.sender].lastBlockCompounded = block.number;\n        uint256 payout = 0;\n        payout = payout.add(_amount);\n        payout = payout.add(stakings[msg.sender].compoundedAmount);\n        totalPool = totalPool.sub(payout);\n        totalStaked = totalStaked.sub(payout);\n        totalCompound = totalCompound.sub(stakings[msg.sender].compoundedAmount);\n        stakings[msg.sender].claimedAmount += stakings[msg.sender].compoundedAmount;\n        if(block.number < stakings[msg.sender].lastBlockStaked + EarlyWithdrawFeeTime ){\n            //apply fee\n            uint256 withdrawalFee = payout.mul(EarlyWithdrawFee.div(DivisorB));\n            payout = payout.sub(withdrawalFee);\n            crush.transfer(reserveAddress, withdrawalFee);\n        }\n        crush.transfer(msg.sender, payout);\n        stakings[msg.sender].stakedAmount = stakings[msg.sender].stakedAmount.sub(_amount); \n        stakings[msg.sender].compoundedAmount = 0;\n\n        //remove from array\n        if(stakings[msg.sender].stakedAmount == 0){\n            staked storage staking = stakings[msg.sender];\n            if(staking.index != addressIndexes.length-1){\n                address lastAddress = addressIndexes[addressIndexes.length-1];\n                addressIndexes[staking.index] = lastAddress;\n                stakings[lastAddress].index = staking.index;\n                crush.approve( address(this), 0);\n            }\n            addressIndexes.pop();\n        }\n        emit RewardPoolUpdated(totalPool);\n    }\n\n\n    function getReward(address _address) internal view returns (uint256) {\n        if(block.number <=  stakings[_address].lastBlockCompounded){\n            return 0;\n        }else {\n            if(totalPool <= 0 ){\n                return 0;\n            }else {\n                uint256 blocks = block.number.sub(stakings[_address].lastBlockCompounded);\n                uint256 totalReward = blocks.mul(crushPerBlock);\n                uint256 stakerReward = totalReward.mul(stakings[_address].stakedAmount.div(totalStaked));\n                return stakerReward;\n            }\n            \n        }\n    }\n\n    function totalPendingRewards () public view returns (uint256){\n            uint256 blocks = block.number.sub(lastAutoCompoundBlock);\n            uint256 totalReward = blocks.mul(crushPerBlock);\n            return totalReward;\n    }\n\n    function pendingReward (address _address) public view returns (uint256){\n        return getReward(_address);\n    }\n\n    //Send Rewards only to msg.sender\n    function claim () public  {\n        singleCompound();\n        require(stakings[msg.sender].compoundedAmount > 0, \"Compounded Amount must be greater than 0\");\n        stakings[msg.sender].claimedAmount += stakings[msg.sender].compoundedAmount;\n        crush.transfer(msg.sender, stakings[msg.sender].compoundedAmount);\n        totalStaked = totalStaked.sub(stakings[msg.sender].compoundedAmount);\n        totalCompound = totalCompound.sub(stakings[msg.sender].compoundedAmount);\n        totalClaimed += stakings[msg.sender].compoundedAmount;\n        stakings[msg.sender].compoundedAmount = 0;\n        \n    }\n\n    //Update staked values on a single User.\n    function singleCompound () public  {\n        uint256 reward = getReward(msg.sender);\n        stakings[msg.sender].compoundedAmount += reward;\n        totalStaked += reward;\n        stakings[msg.sender].lastBlockCompounded = block.number;\n        totalStaked += reward;\n        totalCompound += reward;\n        emit RewardPoolUpdated(totalPool);\n    }\n\n    //Compound all of the rewards for all stakers\n    function compoundAll () public  {\n        require(lastAutoCompoundBlock < block.number, \"Compound All not yet application.\");\n        uint256 crushToBurn = 0;\n        uint256 reward = 0;\n        uint256 performanceFee = 0;\n        uint256 totalReward = 0;\n        for(uint256 i=0; i < addressIndexes.length; i++){\n            uint256 stakerReward = getReward(addressIndexes[i]);\n            \n            uint256 stakerBurn = stakerReward.mul(PerformanceFeeBurn.div(DivisorA));\n            crushToBurn = crushToBurn.add(stakerBurn);\n            \n            uint256 cpAllReward = stakerReward.mul(PerformanceFeeCompounder.div(DivisorA));\n            reward = reward.add(cpAllReward);\n            \n            uint256 feeReserve = stakerReward.mul(PerformanceFeeReserve.div(DivisorB));\n            performanceFee = performanceFee.add(feeReserve);\n            \n\n            stakerReward = stakerReward.sub(stakerBurn);\n            stakerReward = stakerReward.sub(cpAllReward);\n            stakerReward = stakerReward.sub(feeReserve);\n\n            totalStaked = totalStaked.add(stakerReward);\n            totalReward = totalReward.add(stakerReward);\n            totalCompound = totalCompound.add(stakerReward); \n            stakings[addressIndexes[i]].compoundedAmount += stakerReward;\n            stakings[addressIndexes[i]].lastBlockCompounded = block.number;\n        }\n        lastAutoCompoundBlock = block.number;\n        crush.burn(crushToBurn);\n        crush.transfer(msg.sender, reward);\n        crush.transfer(reserveAddress, performanceFee);\n        totalPool = totalPool.sub(totalReward);\n        emit CompoundAll();\n        emit RewardPoolUpdated(totalPool);\n    }\n\n    //emergency withdraw without caring about reward\n    function emergencyWithdraw() public{\n        crush.transfer( msg.sender, stakings[msg.sender].stakedAmount);\n        stakings[msg.sender].stakedAmount = 0;\n        stakings[msg.sender].compoundedAmount = 0;\n        stakings[msg.sender].lastBlockCompounded = block.number;\n        staked storage staking = stakings[msg.sender];\n        if(staking.index != addressIndexes.length-1){\n            address lastAddress = addressIndexes[addressIndexes.length-1];\n            addressIndexes[staking.index] = lastAddress;\n            stakings[lastAddress].index = staking.index;\n        }\n        addressIndexes.pop();\n        crush.approve( address(this), 0);\n    }\n\n    function emergencyRewardWithdraw () public onlyOwner {\n        require(totalCompound > 0, \"Rewards need to be greater than 0\");\n        crush.transfer(msg.sender, totalCompound);\n    }\n    \n}",
  "sourcePath": "/Users/umerali/Desktop/FRAG/bitcrush/new staking contract/contracts/staking.sol",
  "compiler": {
    "name": "solc",
    "version": "0.6.2+commit.bacdbe57.Emscripten.clang"
  },
  "schemaVersion": "3.4.1",
  "updatedAt": "2021-06-23T18:14:26.392Z",
  "networkType": "ethereum",
  "devdoc": {
    "methods": {
      "owner()": {
        "details": "Returns the address of the current owner."
      },
      "renounceOwnership()": {
        "details": "Leaves the contract without owner. It will not be possible to call `onlyOwner` functions anymore. Can only be called by the current owner.     * NOTE: Renouncing ownership will leave the contract without an owner, thereby removing any functionality that is only available to the owner."
      },
      "transferOwnership(address)": {
        "details": "Transfers ownership of the contract to a new account (`newOwner`). Can only be called by the current owner."
      }
    }
  },
  "userdoc": {
    "methods": {}
  }
}