{
  "contractName": "BitcrushBankroll",
  "abi": [
    {
      "inputs": [
        {
          "internalType": "contract CRUSHToken",
          "name": "_crush",
          "type": "address"
        },
        {
          "internalType": "contract BitcrushStaking",
          "name": "_stakingPool",
          "type": "address"
        },
        {
          "internalType": "address",
          "name": "_reserve",
          "type": "address"
        },
        {
          "internalType": "address",
          "name": "_lottery",
          "type": "address"
        },
        {
          "internalType": "uint256",
          "name": "_profitShare",
          "type": "uint256"
        },
        {
          "internalType": "uint256",
          "name": "_houseBankrollShare",
          "type": "uint256"
        },
        {
          "internalType": "uint256",
          "name": "_lotteryShare",
          "type": "uint256"
        },
        {
          "internalType": "uint256",
          "name": "_reserveShare",
          "type": "uint256"
        }
      ],
      "stateMutability": "nonpayable",
      "type": "constructor"
    },
    {
      "anonymous": false,
      "inputs": [
        {
          "indexed": true,
          "internalType": "address",
          "name": "previousOwner",
          "type": "address"
        },
        {
          "indexed": true,
          "internalType": "address",
          "name": "newOwner",
          "type": "address"
        }
      ],
      "name": "OwnershipTransferred",
      "type": "event"
    },
    {
      "inputs": [],
      "name": "BURN_RATE",
      "outputs": [
        {
          "internalType": "uint256",
          "name": "",
          "type": "uint256"
        }
      ],
      "stateMutability": "view",
      "type": "function",
      "constant": true
    },
    {
      "inputs": [],
      "name": "DIVISOR",
      "outputs": [
        {
          "internalType": "uint256",
          "name": "",
          "type": "uint256"
        }
      ],
      "stateMutability": "view",
      "type": "function",
      "constant": true
    },
    {
      "inputs": [
        {
          "internalType": "address",
          "name": "",
          "type": "address"
        }
      ],
      "name": "authorizedAddresses",
      "outputs": [
        {
          "internalType": "bool",
          "name": "",
          "type": "bool"
        }
      ],
      "stateMutability": "view",
      "type": "function",
      "constant": true
    },
    {
      "inputs": [],
      "name": "brSinceCompound",
      "outputs": [
        {
          "internalType": "uint256",
          "name": "",
          "type": "uint256"
        }
      ],
      "stateMutability": "view",
      "type": "function",
      "constant": true
    },
    {
      "inputs": [],
      "name": "crush",
      "outputs": [
        {
          "internalType": "contract CRUSHToken",
          "name": "",
          "type": "address"
        }
      ],
      "stateMutability": "view",
      "type": "function",
      "constant": true
    },
    {
      "inputs": [],
      "name": "houseBankrollShare",
      "outputs": [
        {
          "internalType": "uint256",
          "name": "",
          "type": "uint256"
        }
      ],
      "stateMutability": "view",
      "type": "function",
      "constant": true
    },
    {
      "inputs": [],
      "name": "liveWallet",
      "outputs": [
        {
          "internalType": "contract BitcrushLiveWallet",
          "name": "",
          "type": "address"
        }
      ],
      "stateMutability": "view",
      "type": "function",
      "constant": true
    },
    {
      "inputs": [],
      "name": "lottery",
      "outputs": [
        {
          "internalType": "address",
          "name": "",
          "type": "address"
        }
      ],
      "stateMutability": "view",
      "type": "function",
      "constant": true
    },
    {
      "inputs": [],
      "name": "lotteryShare",
      "outputs": [
        {
          "internalType": "uint256",
          "name": "",
          "type": "uint256"
        }
      ],
      "stateMutability": "view",
      "type": "function",
      "constant": true
    },
    {
      "inputs": [],
      "name": "negativeBankroll",
      "outputs": [
        {
          "internalType": "uint256",
          "name": "",
          "type": "uint256"
        }
      ],
      "stateMutability": "view",
      "type": "function",
      "constant": true
    },
    {
      "inputs": [],
      "name": "negativeBrSinceCompound",
      "outputs": [
        {
          "internalType": "uint256",
          "name": "",
          "type": "uint256"
        }
      ],
      "stateMutability": "view",
      "type": "function",
      "constant": true
    },
    {
      "inputs": [],
      "name": "owner",
      "outputs": [
        {
          "internalType": "address",
          "name": "",
          "type": "address"
        }
      ],
      "stateMutability": "view",
      "type": "function",
      "constant": true
    },
    {
      "inputs": [],
      "name": "poolDepleted",
      "outputs": [
        {
          "internalType": "bool",
          "name": "",
          "type": "bool"
        }
      ],
      "stateMutability": "view",
      "type": "function",
      "constant": true
    },
    {
      "inputs": [],
      "name": "profitShare",
      "outputs": [
        {
          "internalType": "uint256",
          "name": "",
          "type": "uint256"
        }
      ],
      "stateMutability": "view",
      "type": "function",
      "constant": true
    },
    {
      "inputs": [],
      "name": "profitThreshold",
      "outputs": [
        {
          "internalType": "uint256",
          "name": "",
          "type": "uint256"
        }
      ],
      "stateMutability": "view",
      "type": "function",
      "constant": true
    },
    {
      "inputs": [],
      "name": "renounceOwnership",
      "outputs": [],
      "stateMutability": "nonpayable",
      "type": "function"
    },
    {
      "inputs": [],
      "name": "reserve",
      "outputs": [
        {
          "internalType": "address",
          "name": "",
          "type": "address"
        }
      ],
      "stateMutability": "view",
      "type": "function",
      "constant": true
    },
    {
      "inputs": [],
      "name": "reserveShare",
      "outputs": [
        {
          "internalType": "uint256",
          "name": "",
          "type": "uint256"
        }
      ],
      "stateMutability": "view",
      "type": "function",
      "constant": true
    },
    {
      "inputs": [],
      "name": "stakingPool",
      "outputs": [
        {
          "internalType": "contract BitcrushStaking",
          "name": "",
          "type": "address"
        }
      ],
      "stateMutability": "view",
      "type": "function",
      "constant": true
    },
    {
      "inputs": [],
      "name": "totalBankroll",
      "outputs": [
        {
          "internalType": "uint256",
          "name": "",
          "type": "uint256"
        }
      ],
      "stateMutability": "view",
      "type": "function",
      "constant": true
    },
    {
      "inputs": [],
      "name": "totalProfit",
      "outputs": [
        {
          "internalType": "uint256",
          "name": "",
          "type": "uint256"
        }
      ],
      "stateMutability": "view",
      "type": "function",
      "constant": true
    },
    {
      "inputs": [],
      "name": "totalWinnings",
      "outputs": [
        {
          "internalType": "uint256",
          "name": "",
          "type": "uint256"
        }
      ],
      "stateMutability": "view",
      "type": "function",
      "constant": true
    },
    {
      "inputs": [
        {
          "internalType": "address",
          "name": "newOwner",
          "type": "address"
        }
      ],
      "name": "transferOwnership",
      "outputs": [],
      "stateMutability": "nonpayable",
      "type": "function"
    },
    {
      "inputs": [
        {
          "internalType": "contract BitcrushLiveWallet",
          "name": "_liveWallet",
          "type": "address"
        }
      ],
      "name": "setLiveWallet",
      "outputs": [],
      "stateMutability": "nonpayable",
      "type": "function"
    },
    {
      "inputs": [
        {
          "internalType": "address",
          "name": "_address",
          "type": "address"
        }
      ],
      "name": "authorizeAddress",
      "outputs": [],
      "stateMutability": "nonpayable",
      "type": "function"
    },
    {
      "inputs": [
        {
          "internalType": "address",
          "name": "_address",
          "type": "address"
        }
      ],
      "name": "removeAuthorization",
      "outputs": [],
      "stateMutability": "nonpayable",
      "type": "function"
    },
    {
      "inputs": [
        {
          "internalType": "uint256",
          "name": "_amount",
          "type": "uint256"
        }
      ],
      "name": "addToBankroll",
      "outputs": [],
      "stateMutability": "nonpayable",
      "type": "function"
    },
    {
      "inputs": [
        {
          "internalType": "uint256",
          "name": "_amount",
          "type": "uint256"
        }
      ],
      "name": "addUserLoss",
      "outputs": [],
      "stateMutability": "nonpayable",
      "type": "function"
    },
    {
      "inputs": [
        {
          "internalType": "uint256",
          "name": "_amount",
          "type": "uint256"
        },
        {
          "internalType": "address",
          "name": "_winner",
          "type": "address"
        }
      ],
      "name": "payOutUserWinning",
      "outputs": [],
      "stateMutability": "nonpayable",
      "type": "function"
    },
    {
      "inputs": [],
      "name": "transferProfit",
      "outputs": [
        {
          "internalType": "uint256",
          "name": "",
          "type": "uint256"
        }
      ],
      "stateMutability": "nonpayable",
      "type": "function"
    },
    {
      "inputs": [
        {
          "internalType": "uint256",
          "name": "_threshold",
          "type": "uint256"
        }
      ],
      "name": "setProfitThreshold",
      "outputs": [],
      "stateMutability": "nonpayable",
      "type": "function"
    },
    {
      "inputs": [
        {
          "internalType": "uint256",
          "name": "_houseBankrollShare",
          "type": "uint256"
        }
      ],
      "name": "setHouseBankrollShare",
      "outputs": [],
      "stateMutability": "nonpayable",
      "type": "function"
    },
    {
      "inputs": [
        {
          "internalType": "uint256",
          "name": "_profitShare",
          "type": "uint256"
        }
      ],
      "name": "setProfitShare",
      "outputs": [],
      "stateMutability": "nonpayable",
      "type": "function"
    },
    {
      "inputs": [
        {
          "internalType": "uint256",
          "name": "_lotteryShare",
          "type": "uint256"
        }
      ],
      "name": "setLotteryShare",
      "outputs": [],
      "stateMutability": "nonpayable",
      "type": "function"
    },
    {
      "inputs": [
        {
          "internalType": "uint256",
          "name": "_reserveShare",
          "type": "uint256"
        }
      ],
      "name": "setReserveShare",
      "outputs": [],
      "stateMutability": "nonpayable",
      "type": "function"
    },
    {
      "inputs": [],
      "name": "EmergencyWithdrawBankroll",
      "outputs": [],
      "stateMutability": "nonpayable",
      "type": "function"
    },
    {
      "inputs": [
        {
          "internalType": "contract BitcrushStaking",
          "name": "_stakingPool",
          "type": "address"
        }
      ],
      "name": "setBitcrushStaking",
      "outputs": [],
      "stateMutability": "nonpayable",
      "type": "function"
    }
  ],
  "bytecode": "0x60806040526002805460ff1916905560006009819055601081905560115534801561002957600080fd5b50604051611e19380380611e19833981810160405261010081101561004d57600080fd5b508051602082015160408301516060840151608085015160a086015160c087015160e09097015195969495939492939192909160006100936001600160e01b0361014816565b600080546001600160a01b0319166001600160a01b0383169081178255604051929350917f8be0079c531659141344cd1fd0a4f28419497f9722a3daafe3b4186f6b6457e0908290a350600480546001600160a01b03998a166001600160a01b03199182161790915560058054988a1698821698909817909755600780549689169688169690961790955560088054949097169390951692909217909455600a93909355600b92909255600c55600d5561014c565b3390565b611cbe8061015b6000396000f3fe608060405234801561001057600080fd5b50600436106102775760003560e01c80638e4a614211610160578063c2e50b16116100d8578063ee9346661161008c578063f2fde38b11610071578063f2fde38b1461051d578063f846a88514610543578063f974821a1461054b57610277565b8063ee934666146104da578063f19e207e146104f757610277565b8063e3aeeb46116100bd578063e3aeeb46146104c2578063e3fd80dd146104ca578063e7cb3d67146104d257610277565b8063c2e50b161461049d578063cd3293de146104ba57610277565b8063b359a9f91161012f578063b72481f811610114578063b72481f814610467578063b825d0031461046f578063ba13a5721461049557610277565b8063b359a9f914610457578063b4055d151461045f57610277565b80638e4a6142146103fb57806394f3f81d146104035780639e13900c14610429578063abfe0b341461044f57610277565b806345c9c1d1116101f357806361433d88116101c25780637d903ecc116101a75780637d903ecc146103e357806386001519146103eb5780638da5cb5b146103f357610277565b806361433d88146103af578063715018a6146103db57610277565b806345c9c1d11461035c5780634a5db3b5146103645780634e584e111461038a578063563b6b711461039257610277565b8063288211821161024a5780633410fe6e1161022f5780633410fe6e1461032f5780633e1f55e41461033757806341112c4c1461033f57610277565b806328821182146102f85780632feda8d41461031557610277565b80630c56ae3b1461027c578063149c3bf9146102a0578063151fac7b146102bf578063203c27a6146102dc575b600080fd5b610284610553565b604080516001600160a01b039092168252519081900360200190f35b6102bd600480360360208110156102b657600080fd5b5035610562565b005b6102bd600480360360208110156102d557600080fd5b50356105d1565b6102e46106db565b604080519115158252519081900360200190f35b6102bd6004803603602081101561030e57600080fd5b50356106e4565b61031d610753565b60408051918252519081900360200190f35b61031d610759565b61031d61075f565b6102bd6004803603602081101561035557600080fd5b5035610765565b61031d6107d4565b6102bd6004803603602081101561037a57600080fd5b50356001600160a01b0316610b97565b61031d610c25565b6102bd600480360360208110156103a857600080fd5b5035610c2b565b6102bd600480360360408110156103c557600080fd5b50803590602001356001600160a01b0316610c9a565b6102bd610e2b565b61031d610eec565b61031d610ef2565b610284610ef8565b61031d610f07565b6102bd6004803603602081101561041957600080fd5b50356001600160a01b0316610f0d565b6102bd6004803603602081101561043f57600080fd5b50356001600160a01b0316610f98565b6102bd611031565b610284611127565b61031d611136565b61031d61113c565b6102bd6004803603602081101561048557600080fd5b50356001600160a01b0316611142565b6102846111db565b6102bd600480360360208110156104b357600080fd5b50356111ea565b61028461161a565b610284611629565b61031d611638565b61031d61163e565b6102bd600480360360208110156104f057600080fd5b5035611644565b6102e46004803603602081101561050d57600080fd5b50356001600160a01b03166116b3565b6102bd6004803603602081101561053357600080fd5b50356001600160a01b03166116c8565b61031d61173b565b61031d611740565b6005546001600160a01b031681565b61056a611746565b6000546001600160a01b039081169116146105cc576040805162461bcd60e51b815260206004820181905260248201527f4f776e61626c653a2063616c6c6572206973206e6f7420746865206f776e6572604482015290519081900360640190fd5b600d55565b6105d9611746565b6000546001600160a01b0390811691161461063b576040805162461bcd60e51b815260206004820181905260248201527f4f776e61626c653a2063616c6c6572206973206e6f7420746865206f776e6572604482015290519081900360640190fd5b60048054604080516323b872dd60e01b8152339381019390935230602484015260448301849052516001600160a01b03909116916323b872dd9160648083019260209291908290030181600087803b15801561069657600080fd5b505af11580156106aa573d6000803e3d6000fd5b505050506040513d60208110156106c057600080fd5b50506001546106d5908263ffffffff61174a16565b60015550565b60025460ff1681565b6106ec611746565b6000546001600160a01b0390811691161461074e576040805162461bcd60e51b815260206004820181905260248201527f4f776e61626c653a2063616c6c6572206973206e6f7420746865206f776e6572604482015290519081900360640190fd5b600955565b600b5481565b61271081565b600a5481565b61076d611746565b6000546001600160a01b039081169116146107cf576040805162461bcd60e51b815260206004820181905260248201527f4f776e61626c653a2063616c6c6572206973206e6f7420746865206f776e6572604482015290519081900360640190fd5b600b55565b6005546000906001600160a01b03163314610836576040805162461bcd60e51b815260206004820152601b60248201527f43616c6c6572206d757374206265207374616b696e6720706f6f6c0000000000604482015290519081900360640190fd5b600954600e5410610b9057600a546000901561088d57600061087761271061086b600a54600e546117ad90919063ffffffff16565b9063ffffffff61180616565b9050610889828263ffffffff61174a16565b9150505b600d541561093e5760006108b461271061086b600d54600e546117ad90919063ffffffff16565b600480546007546040805163a9059cbb60e01b81526001600160a01b03928316948101949094526024840185905251939450169163a9059cbb916044808201926020929091908290030181600087803b15801561091057600080fd5b505af1158015610924573d6000803e3d6000fd5b505050506040513d602081101561093a57600080fd5b5050505b600c54156109ef57600061096561271061086b600c54600e546117ad90919063ffffffff16565b600480546008546040805163a9059cbb60e01b81526001600160a01b03928316948101949094526024840185905251939450169163a9059cbb916044808201926020929091908290030181600087803b1580156109c157600080fd5b505af11580156109d5573d6000803e3d6000fd5b505050506040513d60208110156109eb57600080fd5b5050505b6000610a0d61271061086b6064600e546117ad90919063ffffffff16565b60048054604080517f42966c68000000000000000000000000000000000000000000000000000000008152928301849052519293506001600160a01b0316916342966c689160248082019260009290919082900301818387803b158015610a7357600080fd5b505af1158015610a87573d6000803e3d6000fd5b505050506000600b541115610ad0576000610ab561271061086b600b54600e546117ad90919063ffffffff16565b600e54909150610acb908263ffffffff61184816565b600e55505b600e54600154610ae59163ffffffff61184816565b600155600480546005546040805163a9059cbb60e01b81526001600160a01b0392831694810194909452602484018690525191169163a9059cbb9160448083019260209291908290030181600087803b158015610b4157600080fd5b505af1158015610b55573d6000803e3d6000fd5b505050506040513d6020811015610b6b57600080fd5b5050601154610b80908363ffffffff61174a16565b601155506000600e559050610b94565b5060005b90565b610b9f611746565b6000546001600160a01b03908116911614610c01576040805162461bcd60e51b815260206004820181905260248201527f4f776e61626c653a2063616c6c6572206973206e6f7420746865206f776e6572604482015290519081900360640190fd5b6001600160a01b03166000908152601260205260409020805460ff19166001179055565b600c5481565b610c33611746565b6000546001600160a01b03908116911614610c95576040805162461bcd60e51b815260206004820181905260248201527f4f776e61626c653a2063616c6c6572206973206e6f7420746865206f776e6572604482015290519081900360640190fd5b600a55565b3360009081526012602052604090205460ff161515600114610d03576040805162461bcd60e51b815260206004820152601960248201527f43616c6c6572206d75737420626520617574686f72697a656400000000000000604482015290519081900360640190fd5b600154821115610de8576000610d246001548461184890919063ffffffff16565b6002805460ff19166001179055600554604080517f49fb5e47000000000000000000000000000000000000000000000000000000008152600481018490526001600160a01b03868116602483015291519394509116916349fb5e479160448082019260009290919082900301818387803b158015610da157600080fd5b505af1158015610db5573d6000803e3d6000fd5b5050600354610dcd925090508263ffffffff61174a16565b600355600154610ddd908361188a565b506000600155610e08565b600154610dfb908363ffffffff61184816565b600155610e08828261188a565b610e1182611999565b601054610e24908363ffffffff61174a16565b6010555050565b610e33611746565b6000546001600160a01b03908116911614610e95576040805162461bcd60e51b815260206004820181905260248201527f4f776e61626c653a2063616c6c6572206973206e6f7420746865206f776e6572604482015290519081900360640190fd5b600080546040516001600160a01b03909116907f8be0079c531659141344cd1fd0a4f28419497f9722a3daafe3b4186f6b6457e0908390a36000805473ffffffffffffffffffffffffffffffffffffffff19169055565b600e5481565b60115481565b6000546001600160a01b031690565b600f5481565b610f15611746565b6000546001600160a01b03908116911614610f77576040805162461bcd60e51b815260206004820181905260248201527f4f776e61626c653a2063616c6c6572206973206e6f7420746865206f776e6572604482015290519081900360640190fd5b6001600160a01b03166000908152601260205260409020805460ff19169055565b610fa0611746565b6000546001600160a01b03908116911614611002576040805162461bcd60e51b815260206004820181905260248201527f4f776e61626c653a2063616c6c6572206973206e6f7420746865206f776e6572604482015290519081900360640190fd5b6006805473ffffffffffffffffffffffffffffffffffffffff19166001600160a01b0392909216919091179055565b611039611746565b6000546001600160a01b0390811691161461109b576040805162461bcd60e51b815260206004820181905260248201527f4f776e61626c653a2063616c6c6572206973206e6f7420746865206f776e6572604482015290519081900360640190fd5b600480546001546040805163a9059cbb60e01b815233948101949094526024840191909152516001600160a01b039091169163a9059cbb9160448083019260209291908290030181600087803b1580156110f457600080fd5b505af1158015611108573d6000803e3d6000fd5b505050506040513d602081101561111e57600080fd5b50506000600155565b6004546001600160a01b031681565b60015481565b60105481565b61114a611746565b6000546001600160a01b039081169116146111ac576040805162461bcd60e51b815260206004820181905260248201527f4f776e61626c653a2063616c6c6572206973206e6f7420746865206f776e6572604482015290519081900360640190fd5b6005805473ffffffffffffffffffffffffffffffffffffffff19166001600160a01b0392909216919091179055565b6008546001600160a01b031681565b3360009081526012602052604090205460ff161515600114611253576040805162461bcd60e51b815260206004820152601960248201527f43616c6c6572206d75737420626520617574686f72697a656400000000000000604482015290519081900360640190fd5b60025460ff1615156001141561157057600354811061144a5760006112836003548361184890919063ffffffff16565b60048054600554600354604080516323b872dd60e01b815233958101959095526001600160a01b03928316602486015260448501919091525193945016916323b872dd916064808201926020929091908290030181600087803b1580156112e957600080fd5b505af11580156112fd573d6000803e3d6000fd5b505050506040513d602081101561131357600080fd5b5050600554600354604080517fe39faaa40000000000000000000000000000000000000000000000000000000081526004810192909252516001600160a01b039092169163e39faaa49160248082019260009290919082900301818387803b15801561137e57600080fd5b505af1158015611392573d6000803e3d6000fd5b5050600060038190556002805460ff1916905560048054604080516323b872dd60e01b8152339381019390935230602484015260448301879052516001600160a01b0390911694506323b872dd935060648083019360209383900390910190829087803b15801561140257600080fd5b505af1158015611416573d6000803e3d6000fd5b505050506040513d602081101561142c57600080fd5b5050600154611441908263ffffffff61174a16565b6001555061156b565b60048054600554604080516323b872dd60e01b815233948101949094526001600160a01b03918216602485015260448401859052519116916323b872dd9160648083019260209291908290030181600087803b1580156114a957600080fd5b505af11580156114bd573d6000803e3d6000fd5b505050506040513d60208110156114d357600080fd5b5050600554604080517fe39faaa40000000000000000000000000000000000000000000000000000000081526004810184905290516001600160a01b039092169163e39faaa49160248082019260009290919082900301818387803b15801561153b57600080fd5b505af115801561154f573d6000803e3d6000fd5b5050600354611567925090508263ffffffff61184816565b6003555b61160e565b60048054604080516323b872dd60e01b8152339381019390935230602484015260448301849052516001600160a01b03909116916323b872dd9160648083019260209291908290030181600087803b1580156115cb57600080fd5b505af11580156115df573d6000803e3d6000fd5b505050506040513d60208110156115f557600080fd5b505060015461160a908263ffffffff61174a16565b6001555b61161781611a1a565b50565b6007546001600160a01b031681565b6006546001600160a01b031681565b60035481565b600d5481565b61164c611746565b6000546001600160a01b039081169116146116ae576040805162461bcd60e51b815260206004820181905260248201527f4f776e61626c653a2063616c6c6572206973206e6f7420746865206f776e6572604482015290519081900360640190fd5b600c55565b60126020526000908152604090205460ff1681565b6116d0611746565b6000546001600160a01b03908116911614611732576040805162461bcd60e51b815260206004820181905260248201527f4f776e61626c653a2063616c6c6572206973206e6f7420746865206f776e6572604482015290519081900360640190fd5b61161781611a98565b606481565b60095481565b3390565b6000828201838110156117a4576040805162461bcd60e51b815260206004820152601b60248201527f536166654d6174683a206164646974696f6e206f766572666c6f770000000000604482015290519081900360640190fd5b90505b92915050565b6000826117bc575060006117a7565b828202828482816117c957fe5b04146117a45760405162461bcd60e51b8152600401808060200182810382526021815260200180611c686021913960400191505060405180910390fd5b60006117a483836040518060400160405280601a81526020017f536166654d6174683a206469766973696f6e206279207a65726f000000000000815250611b45565b60006117a483836040518060400160405280601e81526020017f536166654d6174683a207375627472616374696f6e206f766572666c6f770000815250611be7565b600480546006546040805163a9059cbb60e01b81526001600160a01b0392831694810194909452602484018690525191169163a9059cbb9160448083019260209291908290030181600087803b1580156118e357600080fd5b505af11580156118f7573d6000803e3d6000fd5b505050506040513d602081101561190d57600080fd5b5050600654604080517ff62cf8d0000000000000000000000000000000000000000000000000000000008152600481018590526001600160a01b0384811660248301529151919092169163f62cf8d091604480830192600092919082900301818387803b15801561197d57600080fd5b505af1158015611991573d6000803e3d6000fd5b505050505050565b600f54156119bc57600f546119b4908263ffffffff61174a16565b600f55611617565b600e54811115611a015760006119dd600e548361184890919063ffffffff16565b6000600e55600f549091506119f8908263ffffffff61174a16565b600f5550611617565b600f54611a14908263ffffffff61174a16565b600f5550565b600f5415611a7f57600f54811115611a67576000611a43600f548361184890919063ffffffff16565b6000600f55600e54909150611a5e908263ffffffff61174a16565b600e5550611a7a565b600f546119b4908263ffffffff61184816565b611617565b600e54611a92908263ffffffff61174a16565b600e5550565b6001600160a01b038116611add5760405162461bcd60e51b8152600401808060200182810382526026815260200180611c426026913960400191505060405180910390fd5b600080546040516001600160a01b03808516939216917f8be0079c531659141344cd1fd0a4f28419497f9722a3daafe3b4186f6b6457e091a36000805473ffffffffffffffffffffffffffffffffffffffff19166001600160a01b0392909216919091179055565b60008183611bd15760405162461bcd60e51b81526004018080602001828103825283818151815260200191508051906020019080838360005b83811015611b96578181015183820152602001611b7e565b50505050905090810190601f168015611bc35780820380516001836020036101000a031916815260200191505b509250505060405180910390fd5b506000838581611bdd57fe5b0495945050505050565b60008184841115611c395760405162461bcd60e51b8152602060048201818152835160248401528351909283926044909101919085019080838360008315611b96578181015183820152602001611b7e565b50505090039056fe4f776e61626c653a206e6577206f776e657220697320746865207a65726f2061646472657373536166654d6174683a206d756c7469706c69636174696f6e206f766572666c6f77a26469706673582212203159ff050f6dc711850c461b5fae2e149ef236b90e961d0400be8cf118d4709164736f6c63430006020033",
  "source": "//SPDX-License-Identifier: MIT\npragma solidity >=0.6.2;\nimport \"@pancakeswap/pancake-swap-lib/contracts/access/Ownable.sol\";\nimport \"./CrushCoin.sol\";\nimport \"@pancakeswap/pancake-swap-lib/contracts/math/SafeMath.sol\";\nimport \"./staking.sol\";\nimport \"./HouseBankroll.sol\";\nimport \"./LiveWallet.sol\";\ncontract BitcrushBankroll is Ownable {\n    \n    using SafeMath for uint256;\n\n    uint256 public totalBankroll;\n    bool public poolDepleted = false;\n    uint256 public negativeBankroll;\n    //address of the crush token\n    CRUSHToken public crush;\n    BitcrushStaking public stakingPool;\n    BitcrushLiveWallet public liveWallet;\n    address public reserve;\n    address public lottery;\n    \n    uint256 public constant DIVISOR = 10000;\n    uint256 public constant BURN_RATE = 100;\n    uint256 public profitThreshold = 0;\n    \n    //consistent 1% burn\n    uint256 public profitShare;\n    uint256 public houseBankrollShare;\n    uint256 public lotteryShare;\n    uint256 public reserveShare;\n    \n    //profit tracking\n    uint256 public brSinceCompound;\n    uint256 public negativeBrSinceCompound;\n\n    //tracking historical winnings and profits\n    uint256 public totalWinnings = 0;\n    uint256 public totalProfit = 0;\n\n    //authorized addresses\n    mapping (address => bool) public authorizedAddresses;\n\n    constructor(\n        CRUSHToken _crush,\n        BitcrushStaking _stakingPool,\n        address _reserve,\n        address _lottery,\n        uint256 _profitShare,\n        uint256 _houseBankrollShare,\n        uint256 _lotteryShare,\n        uint256 _reserveShare\n    ) public {\n        crush = _crush;\n        stakingPool = _stakingPool;\n        reserve = _reserve;\n        lottery = _lottery;\n        profitShare = _profitShare;\n        houseBankrollShare = _houseBankrollShare;\n        lotteryShare = _lotteryShare;\n        reserveShare = _reserveShare;\n\n    }\n\n    /// Store `_liveWallet`.\n    /// @param _liveWallet the new value to store\n    /// @dev stores the _liveWallet address in the state variable `liveWallet`\n    function setLiveWallet(BitcrushLiveWallet _liveWallet) public onlyOwner{\n        liveWallet = _liveWallet;\n    }\n\n    /// authorize address to register wins and losses\n    /// @param _address the address to be authorized\n    /// @dev updates the authorizedAddresses mapping to true for given address\n    function authorizeAddress (address _address) public onlyOwner {\n        authorizedAddresses[_address] = true;\n    }\n\n    /// remove authorization of an address from register wins and losses\n    /// @param _address the address to be removed\n    /// @dev updates the authorizedAddresses mapping by deleting entry for given address\n    function removeAuthorization (address _address) public onlyOwner {\n        delete authorizedAddresses[_address];\n    }\n    \n    /// Add funds to the bankroll\n    /// @param _amount the amount to add\n    /// @dev adds funds to the bankroll\n    function addToBankroll(uint256 _amount) public onlyOwner {\n        crush.transferFrom(msg.sender, address(this), _amount);\n        totalBankroll = totalBankroll.add(_amount);\n    }\n\n    /// Add users loss to the bankroll\n    /// @param _amount the amount to add\n    /// @dev adds funds to the bankroll if bankroll is in positive, otherwise its transfered to the staking pool to recover frozen funds\n    function addUserLoss(uint256 _amount) public {\n        require(\n            authorizedAddresses[msg.sender] == true,\n            \"Caller must be authorized\"\n        );\n        //make game specific\n        //check if bankroll is in negative\n        //uint is unsigned, keep a bool to track\n        //if negative send to staking to replenish\n        //otherwise add to bankroll and check for profit\n        if (poolDepleted == true) {\n            if (_amount >= negativeBankroll) {\n                uint256 remainder = _amount.sub(negativeBankroll);\n                crush.transferFrom(\n                    msg.sender,\n                    address(stakingPool),\n                    negativeBankroll\n                );\n                stakingPool.unfreezeStaking(negativeBankroll);\n                negativeBankroll = 0;\n                poolDepleted = false;\n                crush.transferFrom(msg.sender, address(this), remainder);\n                totalBankroll = totalBankroll.add(remainder);\n                \n            } else {\n                crush.transferFrom(msg.sender, address(stakingPool), _amount);\n                stakingPool.unfreezeStaking(_amount);\n                negativeBankroll = negativeBankroll.sub(_amount);\n            }\n        } else {\n            crush.transferFrom(msg.sender, address(this), _amount);\n            totalBankroll = totalBankroll.add(_amount);\n            \n        }\n        addToBrSinceCompound(_amount);\n    }\n\n\n\n    /// Deduct users win from the bankroll\n    /// @param _amount the amount to deduct\n    /// @dev deducts funds from the bankroll if bankroll is in positive, otherwise theyre pulled from staking pool and bankroll marked as negative\n    function payOutUserWinning(\n        uint256 _amount,\n        address _winner\n    ) public {\n        require(\n            authorizedAddresses[msg.sender] == true,\n            \"Caller must be authorized\"\n        );\n        \n        \n        //check if bankroll has funds available\n        //if not dip into staking pool for any remainder\n        // update bankroll accordingly\n        if (_amount > totalBankroll) {\n            uint256 remainder = _amount.sub(totalBankroll);\n            poolDepleted = true;\n            stakingPool.freezeStaking(remainder, _winner);\n            negativeBankroll = negativeBankroll.add(remainder);\n            transferWinnings(totalBankroll, _winner);\n\n            totalBankroll = 0;\n        } else {\n            totalBankroll = totalBankroll.sub(_amount);\n            transferWinnings(_amount, _winner);\n        }\n        removeFromBrSinceCompound(_amount);\n        totalWinnings = totalWinnings.add(_amount);\n    }\n\n    /// transfer winnings from bankroll contract to live wallet\n    /// @param _amount the amount to tranfer\n    /// @param _winner the winners address\n    /// @dev transfers funds from the bankroll to the live wallet as users winnings\n    function transferWinnings(\n        uint256 _amount,\n        address _winner\n    ) internal {\n        crush.transfer(address(liveWallet), _amount);\n        liveWallet.addToUserWinnings(_amount, _winner);\n    }\n\n    /// track funds added since last compound and profit transfer\n    /// @param _amount the amount to add\n    /// @dev add funds to the variable brSinceCompound\n    function addToBrSinceCompound (uint256 _amount) internal{\n        if(negativeBrSinceCompound > 0){\n            if(_amount > negativeBrSinceCompound){\n                uint256 difference = _amount.sub(negativeBrSinceCompound);\n                negativeBrSinceCompound = 0;\n                brSinceCompound = brSinceCompound.add(difference);\n            }else {\n                negativeBrSinceCompound = negativeBrSinceCompound.sub(_amount);\n            }\n        }else {\n            brSinceCompound = brSinceCompound.add(_amount);\n        }\n    }\n\n    /// track funds remvoed since last compound and profit transfer\n    /// @param _amount the amount to remove\n    /// @dev deduct funds to the variable brSinceCompound\n    function removeFromBrSinceCompound (uint256 _amount) internal{\n        if(negativeBrSinceCompound > 0 ){\n            negativeBrSinceCompound = negativeBrSinceCompound.add(_amount);\n            \n        }else {\n            if(_amount > brSinceCompound){\n                uint256 difference = _amount.sub(brSinceCompound);\n                brSinceCompound = 0;\n                negativeBrSinceCompound = negativeBrSinceCompound.add(difference);\n            }else {\n                negativeBrSinceCompound = negativeBrSinceCompound.add(_amount);\n            }\n        }\n    }\n\n    /// transfer profits to staking pool to be ditributed to stakers.\n    /// @dev transfer profits since last compound to the staking pool while taking out necessary fees.\n    function transferProfit() public returns (uint256) {\n        require(\n            msg.sender == address(stakingPool),\n            \"Caller must be staking pool\"\n        );\n        if (brSinceCompound >= profitThreshold) {\n\n            //-----\n            uint256 profit = 0;\n            if(profitShare > 0 ){\n                uint256 stakingBakrollProfit = brSinceCompound.mul(profitShare).div(DIVISOR);\n                profit = profit.add(stakingBakrollProfit);\n            }\n            if(reserveShare > 0 ){\n                uint256 reserveCrush = brSinceCompound.mul(reserveShare).div(DIVISOR);\n                crush.transfer(reserve, reserveCrush);\n            }\n            if(lotteryShare > 0){\n                uint256 lotteryCrush = brSinceCompound.mul(lotteryShare).div(DIVISOR);\n                crush.transfer(lottery, lotteryCrush);\n            }\n            \n            uint256 burn = brSinceCompound.mul(BURN_RATE).div(DIVISOR);\n            crush.burn(burn); \n\n            if(houseBankrollShare > 0){\n                uint256 bankrollShare = brSinceCompound.mul(houseBankrollShare).div(DIVISOR);\n                brSinceCompound = brSinceCompound.sub(bankrollShare);\n            }\n\n            totalBankroll = totalBankroll.sub(brSinceCompound);\n            //-----\n            crush.transfer(address(stakingPool), profit);\n            totalProfit= totalProfit.add(profit);\n            brSinceCompound = 0;\n            return profit;\n        } else {\n            return 0;\n        }\n    }\n\n    /// Store `_threshold`.\n    /// @param _threshold the new value to store\n    /// @dev stores the _threshold address in the state variable `profitThreshold`\n    function setProfitThreshold(uint256 _threshold) public onlyOwner {\n        profitThreshold = _threshold;\n    }\n\n    /// Store `_houseBankrollShare`.\n    /// @param _houseBankrollShare the new value to store\n    /// @dev stores the _houseBankrollShare address in the state variable `houseBankrollShare`\n    function setHouseBankrollShare (uint256 _houseBankrollShare) public onlyOwner {\n        houseBankrollShare = _houseBankrollShare;\n    }\n\n    /// Store `_profitShare`.\n    /// @param _profitShare the new value to store\n    /// @dev stores the _profitShare address in the state variable `profitShare`\n    function setProfitShare (uint256 _profitShare) public onlyOwner {\n        profitShare = _profitShare;\n    }\n\n    /// Store `_lotteryShare`.\n    /// @param _lotteryShare the new value to store\n    /// @dev stores the _lotteryShare address in the state variable `lotteryShare`\n    function setLotteryShare (uint256 _lotteryShare) public onlyOwner {\n        lotteryShare = _lotteryShare;\n    }\n\n    /// Store `_reserveShare`.\n    /// @param _reserveShare the new value to store\n    /// @dev stores the _reserveShare address in the state variable `reserveShare`\n    function setReserveShare (uint256 _reserveShare) public onlyOwner {\n        reserveShare = _reserveShare;\n    }\n\n    /// withdraws the total bankroll in case of emergency.\n    /// @dev drains the total bankroll and sets the state variable `totalBankroll` to 0\n    function EmergencyWithdrawBankroll () public onlyOwner {\n        crush.transfer(msg.sender, totalBankroll);\n        totalBankroll = 0;\n    }\n\n    /// Store `_stakingPool`.\n    /// @param _stakingPool the new value to store\n    /// @dev stores the _stakingPool address in the state variable `stakingPool`\n    function setBitcrushStaking (BitcrushStaking _stakingPool)public onlyOwner{\n        stakingPool = _stakingPool;\n    }\n\n}\n",
  "sourcePath": "/Users/umerali/Desktop/FRAG/bitcrush/crush_contracts/contracts/HouseBankroll.sol",
  "compiler": {
    "name": "solc",
    "version": "0.6.2+commit.bacdbe57.Emscripten.clang"
  },
  "schemaVersion": "3.4.1",
  "updatedAt": "2021-10-21T10:06:43.799Z",
  "networkType": "ethereum",
  "devdoc": {
    "methods": {
      "EmergencyWithdrawBankroll()": {
        "details": "drains the total bankroll and sets the state variable `totalBankroll` to 0"
      },
      "addToBankroll(uint256)": {
        "details": "adds funds to the bankroll",
        "params": {
          "_amount": "the amount to add"
        }
      },
      "addUserLoss(uint256)": {
        "details": "adds funds to the bankroll if bankroll is in positive, otherwise its transfered to the staking pool to recover frozen funds",
        "params": {
          "_amount": "the amount to add"
        }
      },
      "authorizeAddress(address)": {
        "details": "updates the authorizedAddresses mapping to true for given address",
        "params": {
          "_address": "the address to be authorized"
        }
      },
      "owner()": {
        "details": "Returns the address of the current owner."
      },
      "payOutUserWinning(uint256,address)": {
        "details": "deducts funds from the bankroll if bankroll is in positive, otherwise theyre pulled from staking pool and bankroll marked as negative",
        "params": {
          "_amount": "the amount to deduct"
        }
      },
      "removeAuthorization(address)": {
        "details": "updates the authorizedAddresses mapping by deleting entry for given address",
        "params": {
          "_address": "the address to be removed"
        }
      },
      "renounceOwnership()": {
        "details": "Leaves the contract without owner. It will not be possible to call `onlyOwner` functions anymore. Can only be called by the current owner.     * NOTE: Renouncing ownership will leave the contract without an owner, thereby removing any functionality that is only available to the owner."
      },
      "setBitcrushStaking(address)": {
        "details": "stores the _stakingPool address in the state variable `stakingPool`",
        "params": {
          "_stakingPool": "the new value to store"
        }
      },
      "setHouseBankrollShare(uint256)": {
        "details": "stores the _houseBankrollShare address in the state variable `houseBankrollShare`",
        "params": {
          "_houseBankrollShare": "the new value to store"
        }
      },
      "setLiveWallet(address)": {
        "details": "stores the _liveWallet address in the state variable `liveWallet`",
        "params": {
          "_liveWallet": "the new value to store"
        }
      },
      "setLotteryShare(uint256)": {
        "details": "stores the _lotteryShare address in the state variable `lotteryShare`",
        "params": {
          "_lotteryShare": "the new value to store"
        }
      },
      "setProfitShare(uint256)": {
        "details": "stores the _profitShare address in the state variable `profitShare`",
        "params": {
          "_profitShare": "the new value to store"
        }
      },
      "setProfitThreshold(uint256)": {
        "details": "stores the _threshold address in the state variable `profitThreshold`",
        "params": {
          "_threshold": "the new value to store"
        }
      },
      "setReserveShare(uint256)": {
        "details": "stores the _reserveShare address in the state variable `reserveShare`",
        "params": {
          "_reserveShare": "the new value to store"
        }
      },
      "transferOwnership(address)": {
        "details": "Transfers ownership of the contract to a new account (`newOwner`). Can only be called by the current owner."
      },
      "transferProfit()": {
        "details": "transfer profits since last compound to the staking pool while taking out necessary fees."
      }
    }
  },
  "userdoc": {
    "methods": {
      "EmergencyWithdrawBankroll()": {
        "notice": "withdraws the total bankroll in case of emergency."
      },
      "addToBankroll(uint256)": {
        "notice": "Add funds to the bankroll"
      },
      "addUserLoss(uint256)": {
        "notice": "Add users loss to the bankroll"
      },
      "authorizeAddress(address)": {
        "notice": "authorize address to register wins and losses"
      },
      "payOutUserWinning(uint256,address)": {
        "notice": "Deduct users win from the bankroll"
      },
      "removeAuthorization(address)": {
        "notice": "remove authorization of an address from register wins and losses"
      },
      "setBitcrushStaking(address)": {
        "notice": "Store `_stakingPool`."
      },
      "setHouseBankrollShare(uint256)": {
        "notice": "Store `_houseBankrollShare`."
      },
      "setLiveWallet(address)": {
        "notice": "Store `_liveWallet`."
      },
      "setLotteryShare(uint256)": {
        "notice": "Store `_lotteryShare`."
      },
      "setProfitShare(uint256)": {
        "notice": "Store `_profitShare`."
      },
      "setProfitThreshold(uint256)": {
        "notice": "Store `_threshold`."
      },
      "setReserveShare(uint256)": {
        "notice": "Store `_reserveShare`."
      },
      "transferProfit()": {
        "notice": "transfer profits to staking pool to be ditributed to stakers."
      }
    }
  }
}