{
  "contractName": "CrushToken",
  "abi": [
    {
      "anonymous": false,
      "inputs": [
        {
          "indexed": true,
          "internalType": "address",
          "name": "owner",
          "type": "address"
        },
        {
          "indexed": true,
          "internalType": "address",
          "name": "spender",
          "type": "address"
        },
        {
          "indexed": false,
          "internalType": "uint256",
          "name": "value",
          "type": "uint256"
        }
      ],
      "name": "Approval",
      "type": "event"
    },
    {
      "anonymous": false,
      "inputs": [
        {
          "indexed": true,
          "internalType": "address",
          "name": "delegator",
          "type": "address"
        },
        {
          "indexed": true,
          "internalType": "address",
          "name": "fromDelegate",
          "type": "address"
        },
        {
          "indexed": true,
          "internalType": "address",
          "name": "toDelegate",
          "type": "address"
        }
      ],
      "name": "DelegateChanged",
      "type": "event"
    },
    {
      "anonymous": false,
      "inputs": [
        {
          "indexed": true,
          "internalType": "address",
          "name": "delegate",
          "type": "address"
        },
        {
          "indexed": false,
          "internalType": "uint256",
          "name": "previousBalance",
          "type": "uint256"
        },
        {
          "indexed": false,
          "internalType": "uint256",
          "name": "newBalance",
          "type": "uint256"
        }
      ],
      "name": "DelegateVotesChanged",
      "type": "event"
    },
    {
      "anonymous": false,
      "inputs": [
        {
          "indexed": true,
          "internalType": "address",
          "name": "previousOwner",
          "type": "address"
        },
        {
          "indexed": true,
          "internalType": "address",
          "name": "newOwner",
          "type": "address"
        }
      ],
      "name": "OwnershipTransferred",
      "type": "event"
    },
    {
      "anonymous": false,
      "inputs": [
        {
          "indexed": true,
          "internalType": "address",
          "name": "from",
          "type": "address"
        },
        {
          "indexed": true,
          "internalType": "address",
          "name": "to",
          "type": "address"
        },
        {
          "indexed": false,
          "internalType": "uint256",
          "name": "value",
          "type": "uint256"
        }
      ],
      "name": "Transfer",
      "type": "event"
    },
    {
      "inputs": [],
      "name": "DELEGATION_TYPEHASH",
      "outputs": [
        {
          "internalType": "bytes32",
          "name": "",
          "type": "bytes32"
        }
      ],
      "stateMutability": "view",
      "type": "function",
      "constant": true
    },
    {
      "inputs": [],
      "name": "DOMAIN_TYPEHASH",
      "outputs": [
        {
          "internalType": "bytes32",
          "name": "",
          "type": "bytes32"
        }
      ],
      "stateMutability": "view",
      "type": "function",
      "constant": true
    },
    {
      "inputs": [],
      "name": "MAX_SUPPLY",
      "outputs": [
        {
          "internalType": "uint256",
          "name": "",
          "type": "uint256"
        }
      ],
      "stateMutability": "view",
      "type": "function",
      "constant": true
    },
    {
      "inputs": [
        {
          "internalType": "address",
          "name": "owner",
          "type": "address"
        },
        {
          "internalType": "address",
          "name": "spender",
          "type": "address"
        }
      ],
      "name": "allowance",
      "outputs": [
        {
          "internalType": "uint256",
          "name": "",
          "type": "uint256"
        }
      ],
      "stateMutability": "view",
      "type": "function",
      "constant": true
    },
    {
      "inputs": [
        {
          "internalType": "address",
          "name": "spender",
          "type": "address"
        },
        {
          "internalType": "uint256",
          "name": "amount",
          "type": "uint256"
        }
      ],
      "name": "approve",
      "outputs": [
        {
          "internalType": "bool",
          "name": "",
          "type": "bool"
        }
      ],
      "stateMutability": "nonpayable",
      "type": "function"
    },
    {
      "inputs": [
        {
          "internalType": "address",
          "name": "account",
          "type": "address"
        }
      ],
      "name": "balanceOf",
      "outputs": [
        {
          "internalType": "uint256",
          "name": "",
          "type": "uint256"
        }
      ],
      "stateMutability": "view",
      "type": "function",
      "constant": true
    },
    {
      "inputs": [
        {
          "internalType": "address",
          "name": "",
          "type": "address"
        },
        {
          "internalType": "uint32",
          "name": "",
          "type": "uint32"
        }
      ],
      "name": "checkpoints",
      "outputs": [
        {
          "internalType": "uint32",
          "name": "fromBlock",
          "type": "uint32"
        },
        {
          "internalType": "uint256",
          "name": "votes",
          "type": "uint256"
        }
      ],
      "stateMutability": "view",
      "type": "function",
      "constant": true
    },
    {
      "inputs": [],
      "name": "decimals",
      "outputs": [
        {
          "internalType": "uint8",
          "name": "",
          "type": "uint8"
        }
      ],
      "stateMutability": "view",
      "type": "function",
      "constant": true
    },
    {
      "inputs": [
        {
          "internalType": "address",
          "name": "spender",
          "type": "address"
        },
        {
          "internalType": "uint256",
          "name": "subtractedValue",
          "type": "uint256"
        }
      ],
      "name": "decreaseAllowance",
      "outputs": [
        {
          "internalType": "bool",
          "name": "",
          "type": "bool"
        }
      ],
      "stateMutability": "nonpayable",
      "type": "function"
    },
    {
      "inputs": [],
      "name": "getOwner",
      "outputs": [
        {
          "internalType": "address",
          "name": "",
          "type": "address"
        }
      ],
      "stateMutability": "view",
      "type": "function",
      "constant": true
    },
    {
      "inputs": [
        {
          "internalType": "address",
          "name": "spender",
          "type": "address"
        },
        {
          "internalType": "uint256",
          "name": "addedValue",
          "type": "uint256"
        }
      ],
      "name": "increaseAllowance",
      "outputs": [
        {
          "internalType": "bool",
          "name": "",
          "type": "bool"
        }
      ],
      "stateMutability": "nonpayable",
      "type": "function"
    },
    {
      "inputs": [],
      "name": "name",
      "outputs": [
        {
          "internalType": "string",
          "name": "",
          "type": "string"
        }
      ],
      "stateMutability": "view",
      "type": "function",
      "constant": true
    },
    {
      "inputs": [
        {
          "internalType": "address",
          "name": "",
          "type": "address"
        }
      ],
      "name": "nonces",
      "outputs": [
        {
          "internalType": "uint256",
          "name": "",
          "type": "uint256"
        }
      ],
      "stateMutability": "view",
      "type": "function",
      "constant": true
    },
    {
      "inputs": [
        {
          "internalType": "address",
          "name": "",
          "type": "address"
        }
      ],
      "name": "numCheckpoints",
      "outputs": [
        {
          "internalType": "uint32",
          "name": "",
          "type": "uint32"
        }
      ],
      "stateMutability": "view",
      "type": "function",
      "constant": true
    },
    {
      "inputs": [],
      "name": "owner",
      "outputs": [
        {
          "internalType": "address",
          "name": "",
          "type": "address"
        }
      ],
      "stateMutability": "view",
      "type": "function",
      "constant": true
    },
    {
      "inputs": [],
      "name": "renounceOwnership",
      "outputs": [],
      "stateMutability": "nonpayable",
      "type": "function"
    },
    {
      "inputs": [],
      "name": "symbol",
      "outputs": [
        {
          "internalType": "string",
          "name": "",
          "type": "string"
        }
      ],
      "stateMutability": "view",
      "type": "function",
      "constant": true
    },
    {
      "inputs": [],
      "name": "tokensBurned",
      "outputs": [
        {
          "internalType": "uint256",
          "name": "",
          "type": "uint256"
        }
      ],
      "stateMutability": "view",
      "type": "function",
      "constant": true
    },
    {
      "inputs": [],
      "name": "totalSupply",
      "outputs": [
        {
          "internalType": "uint256",
          "name": "",
          "type": "uint256"
        }
      ],
      "stateMutability": "view",
      "type": "function",
      "constant": true
    },
    {
      "inputs": [
        {
          "internalType": "address",
          "name": "recipient",
          "type": "address"
        },
        {
          "internalType": "uint256",
          "name": "amount",
          "type": "uint256"
        }
      ],
      "name": "transfer",
      "outputs": [
        {
          "internalType": "bool",
          "name": "",
          "type": "bool"
        }
      ],
      "stateMutability": "nonpayable",
      "type": "function"
    },
    {
      "inputs": [
        {
          "internalType": "address",
          "name": "sender",
          "type": "address"
        },
        {
          "internalType": "address",
          "name": "recipient",
          "type": "address"
        },
        {
          "internalType": "uint256",
          "name": "amount",
          "type": "uint256"
        }
      ],
      "name": "transferFrom",
      "outputs": [
        {
          "internalType": "bool",
          "name": "",
          "type": "bool"
        }
      ],
      "stateMutability": "nonpayable",
      "type": "function"
    },
    {
      "inputs": [
        {
          "internalType": "address",
          "name": "newOwner",
          "type": "address"
        }
      ],
      "name": "transferOwnership",
      "outputs": [],
      "stateMutability": "nonpayable",
      "type": "function"
    },
    {
      "inputs": [
        {
          "internalType": "address",
          "name": "_to",
          "type": "address"
        },
        {
          "internalType": "uint256",
          "name": "_amount",
          "type": "uint256"
        }
      ],
      "name": "mint",
      "outputs": [],
      "stateMutability": "nonpayable",
      "type": "function"
    },
    {
      "inputs": [
        {
          "internalType": "uint256",
          "name": "amount",
          "type": "uint256"
        }
      ],
      "name": "mint",
      "outputs": [
        {
          "internalType": "bool",
          "name": "",
          "type": "bool"
        }
      ],
      "stateMutability": "nonpayable",
      "type": "function"
    },
    {
      "inputs": [
        {
          "internalType": "uint256",
          "name": "_amount",
          "type": "uint256"
        }
      ],
      "name": "burn",
      "outputs": [],
      "stateMutability": "nonpayable",
      "type": "function"
    },
    {
      "inputs": [
        {
          "internalType": "address",
          "name": "delegator",
          "type": "address"
        }
      ],
      "name": "delegates",
      "outputs": [
        {
          "internalType": "address",
          "name": "",
          "type": "address"
        }
      ],
      "stateMutability": "view",
      "type": "function",
      "constant": true
    },
    {
      "inputs": [
        {
          "internalType": "address",
          "name": "delegatee",
          "type": "address"
        }
      ],
      "name": "delegate",
      "outputs": [],
      "stateMutability": "nonpayable",
      "type": "function"
    },
    {
      "inputs": [
        {
          "internalType": "address",
          "name": "delegatee",
          "type": "address"
        },
        {
          "internalType": "uint256",
          "name": "nonce",
          "type": "uint256"
        },
        {
          "internalType": "uint256",
          "name": "expiry",
          "type": "uint256"
        },
        {
          "internalType": "uint8",
          "name": "v",
          "type": "uint8"
        },
        {
          "internalType": "bytes32",
          "name": "r",
          "type": "bytes32"
        },
        {
          "internalType": "bytes32",
          "name": "s",
          "type": "bytes32"
        }
      ],
      "name": "delegateBySig",
      "outputs": [],
      "stateMutability": "nonpayable",
      "type": "function"
    },
    {
      "inputs": [
        {
          "internalType": "address",
          "name": "account",
          "type": "address"
        }
      ],
      "name": "getCurrentVotes",
      "outputs": [
        {
          "internalType": "uint256",
          "name": "",
          "type": "uint256"
        }
      ],
      "stateMutability": "view",
      "type": "function",
      "constant": true
    },
    {
      "inputs": [
        {
          "internalType": "address",
          "name": "account",
          "type": "address"
        },
        {
          "internalType": "uint256",
          "name": "blockNumber",
          "type": "uint256"
        }
      ],
      "name": "getPriorVotes",
      "outputs": [
        {
          "internalType": "uint256",
          "name": "",
          "type": "uint256"
        }
      ],
      "stateMutability": "view",
      "type": "function",
      "constant": true
    }
  ],
  "bytecode": "0x608060405260006007553480156200001657600080fd5b506040518060400160405280600a81526020017f437275736820436f696e000000000000000000000000000000000000000000008152506040518060400160405280600581526020017f43525553480000000000000000000000000000000000000000000000000000008152506000620000956200018960201b60201c565b9050806000806101000a81548173ffffffffffffffffffffffffffffffffffffffff021916908373ffffffffffffffffffffffffffffffffffffffff1602179055508073ffffffffffffffffffffffffffffffffffffffff16600073ffffffffffffffffffffffffffffffffffffffff167f8be0079c531659141344cd1fd0a4f28419497f9722a3daafe3b4186f6b6457e060405160405180910390a35081600490805190602001906200014b92919062000191565b5080600590805190602001906200016492919062000191565b506012600660006101000a81548160ff021916908360ff160217905550505062000237565b600033905090565b828054600181600116156101000203166002900490600052602060002090601f016020900481019282601f10620001d457805160ff191683800117855562000205565b8280016001018555821562000205579182015b8281111562000204578251825591602001919060010190620001e7565b5b50905062000214919062000218565b5090565b5b808211156200023357600081600090555060010162000219565b5090565b6133ab80620002476000396000f3fe608060405234801561001057600080fd5b50600436106101da5760003560e01c8063782d6fe111610104578063a9059cbb116100a2578063e7873b5811610071578063e7873b5814610a11578063e7a324dc14610a2f578063f1127ed814610a4d578063f2fde38b14610ac2576101da565b8063a9059cbb14610864578063b4b5ea57146108c8578063c3cda52014610920578063dd62ed3e14610999576101da565b80638da5cb5b116100de5780638da5cb5b1461070557806395d89b4114610739578063a0712d68146107bc578063a457c2d714610800576101da565b8063782d6fe1146106175780637ecebe0014610679578063893d20e8146106d1576101da565b8063395093511161017c5780635c19a95c1161014b5780635c19a95c146105135780636fcfff451461055757806370a08231146105b5578063715018a61461060d576101da565b806339509351146103c557806340c10f191461042957806342966c6814610477578063587cde1e146104a5576101da565b806320606b70116101b857806320606b70146102e457806323b872dd14610302578063313ce5671461038657806332cb6b0c146103a7576101da565b806306fdde03146101df578063095ea7b31461026257806318160ddd146102c6575b600080fd5b6101e7610b06565b6040518080602001828103825283818151815260200191508051906020019080838360005b8381101561022757808201518184015260208101905061020c565b50505050905090810190601f1680156102545780820380516001836020036101000a031916815260200191505b509250505060405180910390f35b6102ae6004803603604081101561027857600080fd5b81019080803573ffffffffffffffffffffffffffffffffffffffff16906020019092919080359060200190929190505050610ba8565b60405180821515815260200191505060405180910390f35b6102ce610bc6565b6040518082815260200191505060405180910390f35b6102ec610bd0565b6040518082815260200191505060405180910390f35b61036e6004803603606081101561031857600080fd5b81019080803573ffffffffffffffffffffffffffffffffffffffff169060200190929190803573ffffffffffffffffffffffffffffffffffffffff16906020019092919080359060200190929190505050610bf4565b60405180821515815260200191505060405180910390f35b61038e610ccd565b604051808260ff16815260200191505060405180910390f35b6103af610ce4565b6040518082815260200191505060405180910390f35b610411600480360360408110156103db57600080fd5b81019080803573ffffffffffffffffffffffffffffffffffffffff16906020019092919080359060200190929190505050610cf3565b60405180821515815260200191505060405180910390f35b6104756004803603604081101561043f57600080fd5b81019080803573ffffffffffffffffffffffffffffffffffffffff16906020019092919080359060200190929190505050610da6565b005b6104a36004803603602081101561048d57600080fd5b8101908080359060200190929190505050610fa1565b005b6104e7600480360360208110156104bb57600080fd5b81019080803573ffffffffffffffffffffffffffffffffffffffff169060200190929190505050610fc9565b604051808273ffffffffffffffffffffffffffffffffffffffff16815260200191505060405180910390f35b6105556004803603602081101561052957600080fd5b81019080803573ffffffffffffffffffffffffffffffffffffffff169060200190929190505050611032565b005b6105996004803603602081101561056d57600080fd5b81019080803573ffffffffffffffffffffffffffffffffffffffff16906020019092919050505061103f565b604051808263ffffffff16815260200191505060405180910390f35b6105f7600480360360208110156105cb57600080fd5b81019080803573ffffffffffffffffffffffffffffffffffffffff169060200190929190505050611062565b6040518082815260200191505060405180910390f35b6106156110ab565b005b6106636004803603604081101561062d57600080fd5b81019080803573ffffffffffffffffffffffffffffffffffffffff16906020019092919080359060200190929190505050611231565b6040518082815260200191505060405180910390f35b6106bb6004803603602081101561068f57600080fd5b81019080803573ffffffffffffffffffffffffffffffffffffffff1690602001909291905050506115f2565b6040518082815260200191505060405180910390f35b6106d961160a565b604051808273ffffffffffffffffffffffffffffffffffffffff16815260200191505060405180910390f35b61070d611619565b604051808273ffffffffffffffffffffffffffffffffffffffff16815260200191505060405180910390f35b610741611642565b6040518080602001828103825283818151815260200191508051906020019080838360005b83811015610781578082015181840152602081019050610766565b50505050905090810190601f1680156107ae5780820380516001836020036101000a031916815260200191505b509250505060405180910390f35b6107e8600480360360208110156107d257600080fd5b81019080803590602001909291905050506116e4565b60405180821515815260200191505060405180910390f35b61084c6004803603604081101561081657600080fd5b81019080803573ffffffffffffffffffffffffffffffffffffffff169060200190929190803590602001909291905050506117c8565b60405180821515815260200191505060405180910390f35b6108b06004803603604081101561087a57600080fd5b81019080803573ffffffffffffffffffffffffffffffffffffffff16906020019092919080359060200190929190505050611895565b60405180821515815260200191505060405180910390f35b61090a600480360360208110156108de57600080fd5b81019080803573ffffffffffffffffffffffffffffffffffffffff1690602001909291905050506118b3565b6040518082815260200191505060405180910390f35b610997600480360360c081101561093657600080fd5b81019080803573ffffffffffffffffffffffffffffffffffffffff1690602001909291908035906020019092919080359060200190929190803560ff1690602001909291908035906020019092919080359060200190929190505050611989565b005b6109fb600480360360408110156109af57600080fd5b81019080803573ffffffffffffffffffffffffffffffffffffffff169060200190929190803573ffffffffffffffffffffffffffffffffffffffff169060200190929190505050611ced565b6040518082815260200191505060405180910390f35b610a19611d74565b6040518082815260200191505060405180910390f35b610a37611d7a565b6040518082815260200191505060405180910390f35b610a9f60048036036040811015610a6357600080fd5b81019080803573ffffffffffffffffffffffffffffffffffffffff169060200190929190803563ffffffff169060200190929190505050611d9e565b604051808363ffffffff1681526020018281526020019250505060405180910390f35b610b0460048036036020811015610ad857600080fd5b81019080803573ffffffffffffffffffffffffffffffffffffffff169060200190929190505050611ddf565b005b606060048054600181600116156101000203166002900480601f016020809104026020016040519081016040528092919081815260200182805460018160011615610100020316600290048015610b9e5780601f10610b7357610100808354040283529160200191610b9e565b820191906000526020600020905b815481529060010190602001808311610b8157829003601f168201915b5050505050905090565b6000610bbc610bb5611eb3565b8484611ebb565b6001905092915050565b6000600354905090565b7f8cad95687ba82c2ce50e74f7b754645e5117c3a5bec8151c0726d5857980a86681565b6000610c018484846120b2565b610cc284610c0d611eb3565b610cbd856040518060600160405280602881526020016131d860289139600260008b73ffffffffffffffffffffffffffffffffffffffff1673ffffffffffffffffffffffffffffffffffffffff1681526020019081526020016000206000610c73611eb3565b73ffffffffffffffffffffffffffffffffffffffff1673ffffffffffffffffffffffffffffffffffffffff1681526020019081526020016000205461236c9092919063ffffffff16565b611ebb565b600190509392505050565b6000600660009054906101000a900460ff16905090565b6a18d0bf423c03d8de00000081565b6000610d9c610d00611eb3565b84610d978560026000610d11611eb3565b73ffffffffffffffffffffffffffffffffffffffff1673ffffffffffffffffffffffffffffffffffffffff16815260200190815260200160002060008973ffffffffffffffffffffffffffffffffffffffff1673ffffffffffffffffffffffffffffffffffffffff1681526020019081526020016000205461242c90919063ffffffff16565b611ebb565b6001905092915050565b610dae611eb3565b73ffffffffffffffffffffffffffffffffffffffff1660008054906101000a900473ffffffffffffffffffffffffffffffffffffffff1673ffffffffffffffffffffffffffffffffffffffff1614610e6e576040517f08c379a00000000000000000000000000000000000000000000000000000000081526004018080602001828103825260208152602001807f4f776e61626c653a2063616c6c6572206973206e6f7420746865206f776e657281525060200191505060405180910390fd5b6000610e8a610e7b610bc6565b8361242c90919063ffffffff16565b90506000610eae6007546a18d0bf423c03d8de0000006124b490919063ffffffff16565b905080821115610f26576040517f08c379a00000000000000000000000000000000000000000000000000000000081526004018080602001828103825260198152602001807f63616e2774206d696e74206d6f7265207468616e206d61782e0000000000000081525060200191505060405180910390fd5b610f3084846124fe565b610f9b6000600860008773ffffffffffffffffffffffffffffffffffffffff1673ffffffffffffffffffffffffffffffffffffffff16815260200190815260200160002060009054906101000a900473ffffffffffffffffffffffffffffffffffffffff16856126bb565b50505050565b610fb68160075461242c90919063ffffffff16565b600781905550610fc63382612958565b50565b6000600860008373ffffffffffffffffffffffffffffffffffffffff1673ffffffffffffffffffffffffffffffffffffffff16815260200190815260200160002060009054906101000a900473ffffffffffffffffffffffffffffffffffffffff169050919050565b61103c3382612b12565b50565b600a6020528060005260406000206000915054906101000a900463ffffffff1681565b6000600160008373ffffffffffffffffffffffffffffffffffffffff1673ffffffffffffffffffffffffffffffffffffffff168152602001908152602001600020549050919050565b6110b3611eb3565b73ffffffffffffffffffffffffffffffffffffffff1660008054906101000a900473ffffffffffffffffffffffffffffffffffffffff1673ffffffffffffffffffffffffffffffffffffffff1614611173576040517f08c379a00000000000000000000000000000000000000000000000000000000081526004018080602001828103825260208152602001807f4f776e61626c653a2063616c6c6572206973206e6f7420746865206f776e657281525060200191505060405180910390fd5b600073ffffffffffffffffffffffffffffffffffffffff1660008054906101000a900473ffffffffffffffffffffffffffffffffffffffff1673ffffffffffffffffffffffffffffffffffffffff167f8be0079c531659141344cd1fd0a4f28419497f9722a3daafe3b4186f6b6457e060405160405180910390a360008060006101000a81548173ffffffffffffffffffffffffffffffffffffffff021916908373ffffffffffffffffffffffffffffffffffffffff160217905550565b600043821061128b576040517f08c379a000000000000000000000000000000000000000000000000000000000815260040180806020018281038252602781526020018061325a6027913960400191505060405180910390fd5b6000600a60008573ffffffffffffffffffffffffffffffffffffffff1673ffffffffffffffffffffffffffffffffffffffff16815260200190815260200160002060009054906101000a900463ffffffff16905060008163ffffffff1614156112f85760009150506115ec565b82600960008673ffffffffffffffffffffffffffffffffffffffff1673ffffffffffffffffffffffffffffffffffffffff16815260200190815260200160002060006001840363ffffffff1663ffffffff16815260200190815260200160002060000160009054906101000a900463ffffffff1663ffffffff16116113e257600960008573ffffffffffffffffffffffffffffffffffffffff1673ffffffffffffffffffffffffffffffffffffffff16815260200190815260200160002060006001830363ffffffff1663ffffffff168152602001908152602001600020600101549150506115ec565b82600960008673ffffffffffffffffffffffffffffffffffffffff1673ffffffffffffffffffffffffffffffffffffffff16815260200190815260200160002060008063ffffffff16815260200190815260200160002060000160009054906101000a900463ffffffff1663ffffffff1611156114635760009150506115ec565b6000806001830390505b8163ffffffff168163ffffffff161115611586576000600283830363ffffffff168161149557fe5b04820390506114a2613122565b600960008973ffffffffffffffffffffffffffffffffffffffff1673ffffffffffffffffffffffffffffffffffffffff16815260200190815260200160002060008363ffffffff1663ffffffff1681526020019081526020016000206040518060400160405290816000820160009054906101000a900463ffffffff1663ffffffff1663ffffffff168152602001600182015481525050905086816000015163ffffffff16141561155e578060200151955050505050506115ec565b86816000015163ffffffff1610156115785781935061157f565b6001820392505b505061146d565b600960008773ffffffffffffffffffffffffffffffffffffffff1673ffffffffffffffffffffffffffffffffffffffff16815260200190815260200160002060008363ffffffff1663ffffffff1681526020019081526020016000206001015493505050505b92915050565b600b6020528060005260406000206000915090505481565b6000611614611619565b905090565b60008060009054906101000a900473ffffffffffffffffffffffffffffffffffffffff16905090565b606060058054600181600116156101000203166002900480601f0160208091040260200160405190810160405280929190818152602001828054600181600116156101000203166002900480156116da5780601f106116af576101008083540402835291602001916116da565b820191906000526020600020905b8154815290600101906020018083116116bd57829003601f168201915b5050505050905090565b60006116ee611eb3565b73ffffffffffffffffffffffffffffffffffffffff1660008054906101000a900473ffffffffffffffffffffffffffffffffffffffff1673ffffffffffffffffffffffffffffffffffffffff16146117ae576040517f08c379a00000000000000000000000000000000000000000000000000000000081526004018080602001828103825260208152602001807f4f776e61626c653a2063616c6c6572206973206e6f7420746865206f776e657281525060200191505060405180910390fd5b6117bf6117b9611eb3565b836124fe565b60019050919050565b600061188b6117d5611eb3565b84611886856040518060600160405280602581526020016132ec60259139600260006117ff611eb3565b73ffffffffffffffffffffffffffffffffffffffff1673ffffffffffffffffffffffffffffffffffffffff16815260200190815260200160002060008a73ffffffffffffffffffffffffffffffffffffffff1673ffffffffffffffffffffffffffffffffffffffff1681526020019081526020016000205461236c9092919063ffffffff16565b611ebb565b6001905092915050565b60006118a96118a2611eb3565b84846120b2565b6001905092915050565b600080600a60008473ffffffffffffffffffffffffffffffffffffffff1673ffffffffffffffffffffffffffffffffffffffff16815260200190815260200160002060009054906101000a900463ffffffff16905060008163ffffffff161161191d576000611981565b600960008473ffffffffffffffffffffffffffffffffffffffff1673ffffffffffffffffffffffffffffffffffffffff16815260200190815260200160002060006001830363ffffffff1663ffffffff168152602001908152602001600020600101545b915050919050565b60007f8cad95687ba82c2ce50e74f7b754645e5117c3a5bec8151c0726d5857980a8666119b4610b06565b805190602001206119c3612c83565b30604051602001808581526020018481526020018381526020018273ffffffffffffffffffffffffffffffffffffffff16815260200194505050505060405160208183030381529060405280519060200120905060007fe48329057bfd03d55e49b547132e39cffd9c1820ad7b9d4c5307691425d15adf888888604051602001808581526020018473ffffffffffffffffffffffffffffffffffffffff1681526020018381526020018281526020019450505050506040516020818303038152906040528051906020012090506000828260405160200180807f190100000000000000000000000000000000000000000000000000000000000081525060020183815260200182815260200192505050604051602081830303815290604052805190602001209050600060018288888860405160008152602001604052604051808581526020018460ff1681526020018381526020018281526020019450505050506020604051602081039080840390855afa158015611b47573d6000803e3d6000fd5b505050602060405103519050600073ffffffffffffffffffffffffffffffffffffffff168173ffffffffffffffffffffffffffffffffffffffff161415611bd9576040517f08c379a00000000000000000000000000000000000000000000000000000000081526004018080602001828103825260268152602001806132006026913960400191505060405180910390fd5b600b60008273ffffffffffffffffffffffffffffffffffffffff1673ffffffffffffffffffffffffffffffffffffffff1681526020019081526020016000206000815480929190600101919050558914611c7e576040517f08c379a00000000000000000000000000000000000000000000000000000000081526004018080602001828103825260228152602001806132a76022913960400191505060405180910390fd5b87421115611cd7576040517f08c379a00000000000000000000000000000000000000000000000000000000081526004018080602001828103825260268152602001806131b26026913960400191505060405180910390fd5b611ce1818b612b12565b50505050505050505050565b6000600260008473ffffffffffffffffffffffffffffffffffffffff1673ffffffffffffffffffffffffffffffffffffffff16815260200190815260200160002060008373ffffffffffffffffffffffffffffffffffffffff1673ffffffffffffffffffffffffffffffffffffffff16815260200190815260200160002054905092915050565b60075481565b7fe48329057bfd03d55e49b547132e39cffd9c1820ad7b9d4c5307691425d15adf81565b6009602052816000526040600020602052806000526040600020600091509150508060000160009054906101000a900463ffffffff16908060010154905082565b611de7611eb3565b73ffffffffffffffffffffffffffffffffffffffff1660008054906101000a900473ffffffffffffffffffffffffffffffffffffffff1673ffffffffffffffffffffffffffffffffffffffff1614611ea7576040517f08c379a00000000000000000000000000000000000000000000000000000000081526004018080602001828103825260208152602001807f4f776e61626c653a2063616c6c6572206973206e6f7420746865206f776e657281525060200191505060405180910390fd5b611eb081612c90565b50565b600033905090565b600073ffffffffffffffffffffffffffffffffffffffff168373ffffffffffffffffffffffffffffffffffffffff161415611f41576040517f08c379a00000000000000000000000000000000000000000000000000000000081526004018080602001828103825260248152602001806131686024913960400191505060405180910390fd5b600073ffffffffffffffffffffffffffffffffffffffff168273ffffffffffffffffffffffffffffffffffffffff161415611fc7576040517f08c379a00000000000000000000000000000000000000000000000000000000081526004018080602001828103825260228152602001806133546022913960400191505060405180910390fd5b80600260008573ffffffffffffffffffffffffffffffffffffffff1673ffffffffffffffffffffffffffffffffffffffff16815260200190815260200160002060008473ffffffffffffffffffffffffffffffffffffffff1673ffffffffffffffffffffffffffffffffffffffff168152602001908152602001600020819055508173ffffffffffffffffffffffffffffffffffffffff168373ffffffffffffffffffffffffffffffffffffffff167f8c5be1e5ebec7d5bd14f71427d1e84f3dd0314c0f7b2291e5b200ac8c7c3b925836040518082815260200191505060405180910390a3505050565b600073ffffffffffffffffffffffffffffffffffffffff168373ffffffffffffffffffffffffffffffffffffffff161415612138576040517f08c379a00000000000000000000000000000000000000000000000000000000081526004018080602001828103825260258152602001806131436025913960400191505060405180910390fd5b600073ffffffffffffffffffffffffffffffffffffffff168273ffffffffffffffffffffffffffffffffffffffff1614156121be576040517f08c379a00000000000000000000000000000000000000000000000000000000081526004018080602001828103825260238152602001806132c96023913960400191505060405180910390fd5b61222a8160405180606001604052806026815260200161328160269139600160008773ffffffffffffffffffffffffffffffffffffffff1673ffffffffffffffffffffffffffffffffffffffff1681526020019081526020016000205461236c9092919063ffffffff16565b600160008573ffffffffffffffffffffffffffffffffffffffff1673ffffffffffffffffffffffffffffffffffffffff168152602001908152602001600020819055506122bf81600160008573ffffffffffffffffffffffffffffffffffffffff1673ffffffffffffffffffffffffffffffffffffffff1681526020019081526020016000205461242c90919063ffffffff16565b600160008473ffffffffffffffffffffffffffffffffffffffff1673ffffffffffffffffffffffffffffffffffffffff168152602001908152602001600020819055508173ffffffffffffffffffffffffffffffffffffffff168373ffffffffffffffffffffffffffffffffffffffff167fddf252ad1be2c89b69c2b068fc378daa952ba7f163c4a11628f55a4df523b3ef836040518082815260200191505060405180910390a3505050565b6000838311158290612419576040517f08c379a00000000000000000000000000000000000000000000000000000000081526004018080602001828103825283818151815260200191508051906020019080838360005b838110156123de5780820151818401526020810190506123c3565b50505050905090810190601f16801561240b5780820380516001836020036101000a031916815260200191505b509250505060405180910390fd5b5060008385039050809150509392505050565b6000808284019050838110156124aa576040517f08c379a000000000000000000000000000000000000000000000000000000000815260040180806020018281038252601b8152602001807f536166654d6174683a206164646974696f6e206f766572666c6f77000000000081525060200191505060405180910390fd5b8091505092915050565b60006124f683836040518060400160405280601e81526020017f536166654d6174683a207375627472616374696f6e206f766572666c6f77000081525061236c565b905092915050565b600073ffffffffffffffffffffffffffffffffffffffff168273ffffffffffffffffffffffffffffffffffffffff1614156125a1576040517f08c379a000000000000000000000000000000000000000000000000000000000815260040180806020018281038252601f8152602001807f42455032303a206d696e7420746f20746865207a65726f20616464726573730081525060200191505060405180910390fd5b6125b68160035461242c90919063ffffffff16565b60038190555061260e81600160008573ffffffffffffffffffffffffffffffffffffffff1673ffffffffffffffffffffffffffffffffffffffff1681526020019081526020016000205461242c90919063ffffffff16565b600160008473ffffffffffffffffffffffffffffffffffffffff1673ffffffffffffffffffffffffffffffffffffffff168152602001908152602001600020819055508173ffffffffffffffffffffffffffffffffffffffff16600073ffffffffffffffffffffffffffffffffffffffff167fddf252ad1be2c89b69c2b068fc378daa952ba7f163c4a11628f55a4df523b3ef836040518082815260200191505060405180910390a35050565b8173ffffffffffffffffffffffffffffffffffffffff168373ffffffffffffffffffffffffffffffffffffffff16141580156126f75750600081115b1561295357600073ffffffffffffffffffffffffffffffffffffffff168373ffffffffffffffffffffffffffffffffffffffff1614612827576000600a60008573ffffffffffffffffffffffffffffffffffffffff1673ffffffffffffffffffffffffffffffffffffffff16815260200190815260200160002060009054906101000a900463ffffffff1690506000808263ffffffff161161279a5760006127fe565b600960008673ffffffffffffffffffffffffffffffffffffffff1673ffffffffffffffffffffffffffffffffffffffff16815260200190815260200160002060006001840363ffffffff1663ffffffff168152602001908152602001600020600101545b9050600061281584836124b490919063ffffffff16565b905061282386848484612dd3565b5050505b600073ffffffffffffffffffffffffffffffffffffffff168273ffffffffffffffffffffffffffffffffffffffff1614612952576000600a60008473ffffffffffffffffffffffffffffffffffffffff1673ffffffffffffffffffffffffffffffffffffffff16815260200190815260200160002060009054906101000a900463ffffffff1690506000808263ffffffff16116128c5576000612929565b600960008573ffffffffffffffffffffffffffffffffffffffff1673ffffffffffffffffffffffffffffffffffffffff16815260200190815260200160002060006001840363ffffffff1663ffffffff168152602001908152602001600020600101545b90506000612940848361242c90919063ffffffff16565b905061294e85848484612dd3565b5050505b5b505050565b600073ffffffffffffffffffffffffffffffffffffffff168273ffffffffffffffffffffffffffffffffffffffff1614156129de576040517f08c379a00000000000000000000000000000000000000000000000000000000081526004018080602001828103825260218152602001806133116021913960400191505060405180910390fd5b612a4a8160405180606001604052806022815260200161333260229139600160008673ffffffffffffffffffffffffffffffffffffffff1673ffffffffffffffffffffffffffffffffffffffff1681526020019081526020016000205461236c9092919063ffffffff16565b600160008473ffffffffffffffffffffffffffffffffffffffff1673ffffffffffffffffffffffffffffffffffffffff16815260200190815260200160002081905550612aa2816003546124b490919063ffffffff16565b600381905550600073ffffffffffffffffffffffffffffffffffffffff168273ffffffffffffffffffffffffffffffffffffffff167fddf252ad1be2c89b69c2b068fc378daa952ba7f163c4a11628f55a4df523b3ef836040518082815260200191505060405180910390a35050565b6000600860008473ffffffffffffffffffffffffffffffffffffffff1673ffffffffffffffffffffffffffffffffffffffff16815260200190815260200160002060009054906101000a900473ffffffffffffffffffffffffffffffffffffffff1690506000612b8184611062565b905082600860008673ffffffffffffffffffffffffffffffffffffffff1673ffffffffffffffffffffffffffffffffffffffff16815260200190815260200160002060006101000a81548173ffffffffffffffffffffffffffffffffffffffff021916908373ffffffffffffffffffffffffffffffffffffffff1602179055508273ffffffffffffffffffffffffffffffffffffffff168273ffffffffffffffffffffffffffffffffffffffff168573ffffffffffffffffffffffffffffffffffffffff167f3134e8a2e6d97e929a7e54011ea5485d7d196dd5f0ba4d4ef95803e8e3fc257f60405160405180910390a4612c7d8284836126bb565b50505050565b6000804690508091505090565b600073ffffffffffffffffffffffffffffffffffffffff168173ffffffffffffffffffffffffffffffffffffffff161415612d16576040517f08c379a000000000000000000000000000000000000000000000000000000000815260040180806020018281038252602681526020018061318c6026913960400191505060405180910390fd5b8073ffffffffffffffffffffffffffffffffffffffff1660008054906101000a900473ffffffffffffffffffffffffffffffffffffffff1673ffffffffffffffffffffffffffffffffffffffff167f8be0079c531659141344cd1fd0a4f28419497f9722a3daafe3b4186f6b6457e060405160405180910390a3806000806101000a81548173ffffffffffffffffffffffffffffffffffffffff021916908373ffffffffffffffffffffffffffffffffffffffff16021790555050565b6000612df74360405180606001604052806034815260200161322660349139613067565b905060008463ffffffff16118015612e8c57508063ffffffff16600960008773ffffffffffffffffffffffffffffffffffffffff1673ffffffffffffffffffffffffffffffffffffffff16815260200190815260200160002060006001870363ffffffff1663ffffffff16815260200190815260200160002060000160009054906101000a900463ffffffff1663ffffffff16145b15612efd5781600960008773ffffffffffffffffffffffffffffffffffffffff1673ffffffffffffffffffffffffffffffffffffffff16815260200190815260200160002060006001870363ffffffff1663ffffffff1681526020019081526020016000206001018190555061300a565b60405180604001604052808263ffffffff16815260200183815250600960008773ffffffffffffffffffffffffffffffffffffffff1673ffffffffffffffffffffffffffffffffffffffff16815260200190815260200160002060008663ffffffff1663ffffffff16815260200190815260200160002060008201518160000160006101000a81548163ffffffff021916908363ffffffff1602179055506020820151816001015590505060018401600a60008773ffffffffffffffffffffffffffffffffffffffff1673ffffffffffffffffffffffffffffffffffffffff16815260200190815260200160002060006101000a81548163ffffffff021916908363ffffffff1602179055505b8473ffffffffffffffffffffffffffffffffffffffff167fdec2bacdd2f05b59de34da9b523dff8be42e5e38e818c82fdb0bae774387a7248484604051808381526020018281526020019250505060405180910390a25050505050565b600064010000000083108290613118576040517f08c379a00000000000000000000000000000000000000000000000000000000081526004018080602001828103825283818151815260200191508051906020019080838360005b838110156130dd5780820151818401526020810190506130c2565b50505050905090810190601f16801561310a5780820380516001836020036101000a031916815260200191505b509250505060405180910390fd5b5082905092915050565b6040518060400160405280600063ffffffff16815260200160008152509056fe42455032303a207472616e736665722066726f6d20746865207a65726f206164647265737342455032303a20617070726f76652066726f6d20746865207a65726f20616464726573734f776e61626c653a206e6577206f776e657220697320746865207a65726f206164647265737343414b453a3a64656c656761746542795369673a207369676e6174757265206578706972656442455032303a207472616e7366657220616d6f756e74206578636565647320616c6c6f77616e636543414b453a3a64656c656761746542795369673a20696e76616c6964207369676e617475726543414b453a3a5f7772697465436865636b706f696e743a20626c6f636b206e756d6265722065786365656473203332206269747343414b453a3a6765745072696f72566f7465733a206e6f74207965742064657465726d696e656442455032303a207472616e7366657220616d6f756e7420657863656564732062616c616e636543414b453a3a64656c656761746542795369673a20696e76616c6964206e6f6e636542455032303a207472616e7366657220746f20746865207a65726f206164647265737342455032303a2064656372656173656420616c6c6f77616e63652062656c6f77207a65726f42455032303a206275726e2066726f6d20746865207a65726f206164647265737342455032303a206275726e20616d6f756e7420657863656564732062616c616e636542455032303a20617070726f766520746f20746865207a65726f2061646472657373a26469706673582212205b2a1ca245f77c340363e9d09ff84a41255e06b00871025ab223ef8b8dd342d764736f6c634300060c0033",
  "immutableReferences": {},
  "source": "pragma solidity 0.6.12;\n\nimport \"@pancakeswap/pancake-swap-lib/contracts/token/BEP20/BEP20.sol\";\n\n// CrushToken with Governance.\ncontract CrushToken is BEP20('Crush Coin', 'CRUSH') {\n // Constants\n  uint256 constant public MAX_SUPPLY = 30 * 10 ** 24; //30 million tokens are the max Supply\n  \n  // Variables\n  uint256 public tokensBurned = 0;\n\n    /// @notice Creates `_amount` token to `_to`. Must only be called by the owner (MasterChef).\n    function mint(address _to, uint256 _amount) public onlyOwner {\n        uint256 draftSupply = _amount.add( totalSupply() );\n        uint256 maxSupply = MAX_SUPPLY.sub( tokensBurned );\n        require( draftSupply <= maxSupply, \"can't mint more than max.\" );\n        _mint(_to, _amount);\n        _moveDelegates(address(0), _delegates[_to], _amount);\n    }\n     function burn(uint256 _amount) public {\n    tokensBurned = tokensBurned.add( _amount ) ;\n    _burn( msg.sender, _amount );\n  }\n\n    // Copied and modified from YAM code:\n    // https://github.com/yam-finance/yam-protocol/blob/master/contracts/token/YAMGovernanceStorage.sol\n    // https://github.com/yam-finance/yam-protocol/blob/master/contracts/token/YAMGovernance.sol\n    // Which is copied and modified from COMPOUND:\n    // https://github.com/compound-finance/compound-protocol/blob/master/contracts/Governance/Comp.sol\n\n    /// @notice A record of each accounts delegate\n    mapping (address => address) internal _delegates;\n\n    /// @notice A checkpoint for marking number of votes from a given block\n    struct Checkpoint {\n        uint32 fromBlock;\n        uint256 votes;\n    }\n\n    /// @notice A record of votes checkpoints for each account, by index\n    mapping (address => mapping (uint32 => Checkpoint)) public checkpoints;\n\n    /// @notice The number of checkpoints for each account\n    mapping (address => uint32) public numCheckpoints;\n\n    /// @notice The EIP-712 typehash for the contract's domain\n    bytes32 public constant DOMAIN_TYPEHASH = keccak256(\"EIP712Domain(string name,uint256 chainId,address verifyingContract)\");\n\n    /// @notice The EIP-712 typehash for the delegation struct used by the contract\n    bytes32 public constant DELEGATION_TYPEHASH = keccak256(\"Delegation(address delegatee,uint256 nonce,uint256 expiry)\");\n\n    /// @notice A record of states for signing / validating signatures\n    mapping (address => uint) public nonces;\n\n      /// @notice An event thats emitted when an account changes its delegate\n    event DelegateChanged(address indexed delegator, address indexed fromDelegate, address indexed toDelegate);\n\n    /// @notice An event thats emitted when a delegate account's vote balance changes\n    event DelegateVotesChanged(address indexed delegate, uint previousBalance, uint newBalance);\n\n    /**\n     * @notice Delegate votes from `msg.sender` to `delegatee`\n     * @param delegator The address to get delegatee for\n     */\n    function delegates(address delegator)\n        external\n        view\n        returns (address)\n    {\n        return _delegates[delegator];\n    }\n\n   /**\n    * @notice Delegate votes from `msg.sender` to `delegatee`\n    * @param delegatee The address to delegate votes to\n    */\n    function delegate(address delegatee) external {\n        return _delegate(msg.sender, delegatee);\n    }\n\n    /**\n     * @notice Delegates votes from signatory to `delegatee`\n     * @param delegatee The address to delegate votes to\n     * @param nonce The contract state required to match the signature\n     * @param expiry The time at which to expire the signature\n     * @param v The recovery byte of the signature\n     * @param r Half of the ECDSA signature pair\n     * @param s Half of the ECDSA signature pair\n     */\n    function delegateBySig(\n        address delegatee,\n        uint nonce,\n        uint expiry,\n        uint8 v,\n        bytes32 r,\n        bytes32 s\n    )\n        external\n    {\n        bytes32 domainSeparator = keccak256(\n            abi.encode(\n                DOMAIN_TYPEHASH,\n                keccak256(bytes(name())),\n                getChainId(),\n                address(this)\n            )\n        );\n\n        bytes32 structHash = keccak256(\n            abi.encode(\n                DELEGATION_TYPEHASH,\n                delegatee,\n                nonce,\n                expiry\n            )\n        );\n\n        bytes32 digest = keccak256(\n            abi.encodePacked(\n                \"\\x19\\x01\",\n                domainSeparator,\n                structHash\n            )\n        );\n\n        address signatory = ecrecover(digest, v, r, s);\n        require(signatory != address(0), \"CAKE::delegateBySig: invalid signature\");\n        require(nonce == nonces[signatory]++, \"CAKE::delegateBySig: invalid nonce\");\n        require(now <= expiry, \"CAKE::delegateBySig: signature expired\");\n        return _delegate(signatory, delegatee);\n    }\n\n    /**\n     * @notice Gets the current votes balance for `account`\n     * @param account The address to get votes balance\n     * @return The number of current votes for `account`\n     */\n    function getCurrentVotes(address account)\n        external\n        view\n        returns (uint256)\n    {\n        uint32 nCheckpoints = numCheckpoints[account];\n        return nCheckpoints > 0 ? checkpoints[account][nCheckpoints - 1].votes : 0;\n    }\n\n    /**\n     * @notice Determine the prior number of votes for an account as of a block number\n     * @dev Block number must be a finalized block or else this function will revert to prevent misinformation.\n     * @param account The address of the account to check\n     * @param blockNumber The block number to get the vote balance at\n     * @return The number of votes the account had as of the given block\n     */\n    function getPriorVotes(address account, uint blockNumber)\n        external\n        view\n        returns (uint256)\n    {\n        require(blockNumber < block.number, \"CAKE::getPriorVotes: not yet determined\");\n\n        uint32 nCheckpoints = numCheckpoints[account];\n        if (nCheckpoints == 0) {\n            return 0;\n        }\n\n        // First check most recent balance\n        if (checkpoints[account][nCheckpoints - 1].fromBlock <= blockNumber) {\n            return checkpoints[account][nCheckpoints - 1].votes;\n        }\n\n        // Next check implicit zero balance\n        if (checkpoints[account][0].fromBlock > blockNumber) {\n            return 0;\n        }\n\n        uint32 lower = 0;\n        uint32 upper = nCheckpoints - 1;\n        while (upper > lower) {\n            uint32 center = upper - (upper - lower) / 2; // ceil, avoiding overflow\n            Checkpoint memory cp = checkpoints[account][center];\n            if (cp.fromBlock == blockNumber) {\n                return cp.votes;\n            } else if (cp.fromBlock < blockNumber) {\n                lower = center;\n            } else {\n                upper = center - 1;\n            }\n        }\n        return checkpoints[account][lower].votes;\n    }\n\n    function _delegate(address delegator, address delegatee)\n        internal\n    {\n        address currentDelegate = _delegates[delegator];\n        uint256 delegatorBalance = balanceOf(delegator); // balance of underlying CAKEs (not scaled);\n        _delegates[delegator] = delegatee;\n\n        emit DelegateChanged(delegator, currentDelegate, delegatee);\n\n        _moveDelegates(currentDelegate, delegatee, delegatorBalance);\n    }\n\n    function _moveDelegates(address srcRep, address dstRep, uint256 amount) internal {\n        if (srcRep != dstRep && amount > 0) {\n            if (srcRep != address(0)) {\n                // decrease old representative\n                uint32 srcRepNum = numCheckpoints[srcRep];\n                uint256 srcRepOld = srcRepNum > 0 ? checkpoints[srcRep][srcRepNum - 1].votes : 0;\n                uint256 srcRepNew = srcRepOld.sub(amount);\n                _writeCheckpoint(srcRep, srcRepNum, srcRepOld, srcRepNew);\n            }\n\n            if (dstRep != address(0)) {\n                // increase new representative\n                uint32 dstRepNum = numCheckpoints[dstRep];\n                uint256 dstRepOld = dstRepNum > 0 ? checkpoints[dstRep][dstRepNum - 1].votes : 0;\n                uint256 dstRepNew = dstRepOld.add(amount);\n                _writeCheckpoint(dstRep, dstRepNum, dstRepOld, dstRepNew);\n            }\n        }\n    }\n\n    function _writeCheckpoint(\n        address delegatee,\n        uint32 nCheckpoints,\n        uint256 oldVotes,\n        uint256 newVotes\n    )\n        internal\n    {\n        uint32 blockNumber = safe32(block.number, \"CAKE::_writeCheckpoint: block number exceeds 32 bits\");\n\n        if (nCheckpoints > 0 && checkpoints[delegatee][nCheckpoints - 1].fromBlock == blockNumber) {\n            checkpoints[delegatee][nCheckpoints - 1].votes = newVotes;\n        } else {\n            checkpoints[delegatee][nCheckpoints] = Checkpoint(blockNumber, newVotes);\n            numCheckpoints[delegatee] = nCheckpoints + 1;\n        }\n\n        emit DelegateVotesChanged(delegatee, oldVotes, newVotes);\n    }\n\n    function safe32(uint n, string memory errorMessage) internal pure returns (uint32) {\n        require(n < 2**32, errorMessage);\n        return uint32(n);\n    }\n\n    function getChainId() internal pure returns (uint) {\n        uint256 chainId;\n        assembly { chainId := chainid() }\n        return chainId;\n    }\n}",
  "sourcePath": "/Users/umerali/Desktop/FRAG/bitcrush/fork/pancake-farm/contracts/CrushToken.sol",
  "compiler": {
    "name": "solc",
    "version": "0.6.12+commit.27d51765.Emscripten.clang"
  },
  "schemaVersion": "3.4.1",
  "updatedAt": "2021-06-15T22:08:45.692Z",
  "networkType": "ethereum",
  "devdoc": {
    "kind": "dev",
    "methods": {
      "allowance(address,address)": {
        "details": "See {BEP20-allowance}."
      },
      "approve(address,uint256)": {
        "details": "See {BEP20-approve}. Requirements: - `spender` cannot be the zero address."
      },
      "balanceOf(address)": {
        "details": "See {BEP20-balanceOf}."
      },
      "decimals()": {
        "details": "Returns the token decimals."
      },
      "decreaseAllowance(address,uint256)": {
        "details": "Atomically decreases the allowance granted to `spender` by the caller. This is an alternative to {approve} that can be used as a mitigation for problems described in {BEP20-approve}. Emits an {Approval} event indicating the updated allowance. Requirements: - `spender` cannot be the zero address. - `spender` must have allowance for the caller of at least `subtractedValue`."
      },
      "delegate(address)": {
        "params": {
          "delegatee": "The address to delegate votes to"
        }
      },
      "delegateBySig(address,uint256,uint256,uint8,bytes32,bytes32)": {
        "params": {
          "delegatee": "The address to delegate votes to",
          "expiry": "The time at which to expire the signature",
          "nonce": "The contract state required to match the signature",
          "r": "Half of the ECDSA signature pair",
          "s": "Half of the ECDSA signature pair",
          "v": "The recovery byte of the signature"
        }
      },
      "delegates(address)": {
        "params": {
          "delegator": "The address to get delegatee for"
        }
      },
      "getCurrentVotes(address)": {
        "params": {
          "account": "The address to get votes balance"
        },
        "returns": {
          "_0": "The number of current votes for `account`"
        }
      },
      "getOwner()": {
        "details": "Returns the bep token owner."
      },
      "getPriorVotes(address,uint256)": {
        "details": "Block number must be a finalized block or else this function will revert to prevent misinformation.",
        "params": {
          "account": "The address of the account to check",
          "blockNumber": "The block number to get the vote balance at"
        },
        "returns": {
          "_0": "The number of votes the account had as of the given block"
        }
      },
      "increaseAllowance(address,uint256)": {
        "details": "Atomically increases the allowance granted to `spender` by the caller. This is an alternative to {approve} that can be used as a mitigation for problems described in {BEP20-approve}. Emits an {Approval} event indicating the updated allowance. Requirements: - `spender` cannot be the zero address."
      },
      "mint(uint256)": {
        "details": "Creates `amount` tokens and assigns them to `msg.sender`, increasing the total supply. Requirements - `msg.sender` must be the token owner"
      },
      "name()": {
        "details": "Returns the token name."
      },
      "owner()": {
        "details": "Returns the address of the current owner."
      },
      "renounceOwnership()": {
        "details": "Leaves the contract without owner. It will not be possible to call `onlyOwner` functions anymore. Can only be called by the current owner. NOTE: Renouncing ownership will leave the contract without an owner, thereby removing any functionality that is only available to the owner."
      },
      "symbol()": {
        "details": "Returns the token symbol."
      },
      "totalSupply()": {
        "details": "See {BEP20-totalSupply}."
      },
      "transfer(address,uint256)": {
        "details": "See {BEP20-transfer}. Requirements: - `recipient` cannot be the zero address. - the caller must have a balance of at least `amount`."
      },
      "transferFrom(address,address,uint256)": {
        "details": "See {BEP20-transferFrom}. Emits an {Approval} event indicating the updated allowance. This is not required by the EIP. See the note at the beginning of {BEP20}; Requirements: - `sender` and `recipient` cannot be the zero address. - `sender` must have a balance of at least `amount`. - the caller must have allowance for `sender`'s tokens of at least `amount`."
      },
      "transferOwnership(address)": {
        "details": "Transfers ownership of the contract to a new account (`newOwner`). Can only be called by the current owner."
      }
    },
    "version": 1
  },
  "userdoc": {
    "events": {
      "DelegateChanged(address,address,address)": {
        "notice": "An event thats emitted when an account changes its delegate"
      },
      "DelegateVotesChanged(address,uint256,uint256)": {
        "notice": "An event thats emitted when a delegate account's vote balance changes"
      }
    },
    "kind": "user",
    "methods": {
      "DELEGATION_TYPEHASH()": {
        "notice": "The EIP-712 typehash for the delegation struct used by the contract"
      },
      "DOMAIN_TYPEHASH()": {
        "notice": "The EIP-712 typehash for the contract's domain"
      },
      "checkpoints(address,uint32)": {
        "notice": "A record of votes checkpoints for each account, by index"
      },
      "delegate(address)": {
        "notice": "Delegate votes from `msg.sender` to `delegatee`"
      },
      "delegateBySig(address,uint256,uint256,uint8,bytes32,bytes32)": {
        "notice": "Delegates votes from signatory to `delegatee`"
      },
      "delegates(address)": {
        "notice": "Delegate votes from `msg.sender` to `delegatee`"
      },
      "getCurrentVotes(address)": {
        "notice": "Gets the current votes balance for `account`"
      },
      "getPriorVotes(address,uint256)": {
        "notice": "Determine the prior number of votes for an account as of a block number"
      },
      "mint(address,uint256)": {
        "notice": "Creates `_amount` token to `_to`. Must only be called by the owner (MasterChef)."
      },
      "nonces(address)": {
        "notice": "A record of states for signing / validating signatures"
      },
      "numCheckpoints(address)": {
        "notice": "The number of checkpoints for each account"
      }
    },
    "version": 1
  }
}