{
  "contractName": "Presale",
  "abi": [
    {
      "inputs": [
        {
          "internalType": "address",
          "name": "crushGodNft",
          "type": "address"
        },
        {
          "internalType": "address",
          "name": "stakingV2",
          "type": "address"
        },
        {
          "internalType": "address",
          "name": "_busd",
          "type": "address"
        }
      ],
      "stateMutability": "nonpayable",
      "type": "constructor"
    },
    {
      "anonymous": false,
      "inputs": [
        {
          "indexed": false,
          "internalType": "uint256",
          "name": "data1",
          "type": "uint256"
        },
        {
          "indexed": false,
          "internalType": "string",
          "name": "data2",
          "type": "string"
        }
      ],
      "name": "LogEvent",
      "type": "event"
    },
    {
      "anonymous": false,
      "inputs": [
        {
          "indexed": true,
          "internalType": "address",
          "name": "buyer",
          "type": "address"
        },
        {
          "indexed": false,
          "internalType": "uint256",
          "name": "busd",
          "type": "uint256"
        },
        {
          "indexed": false,
          "internalType": "uint256",
          "name": "nice",
          "type": "uint256"
        }
      ],
      "name": "NiceBought",
      "type": "event"
    },
    {
      "anonymous": false,
      "inputs": [
        {
          "indexed": true,
          "internalType": "address",
          "name": "buyer",
          "type": "address"
        },
        {
          "indexed": false,
          "internalType": "uint256",
          "name": "amount",
          "type": "uint256"
        }
      ],
      "name": "NiceClaimed",
      "type": "event"
    },
    {
      "anonymous": false,
      "inputs": [
        {
          "indexed": true,
          "internalType": "address",
          "name": "previousOwner",
          "type": "address"
        },
        {
          "indexed": true,
          "internalType": "address",
          "name": "newOwner",
          "type": "address"
        }
      ],
      "name": "OwnershipTransferred",
      "type": "event"
    },
    {
      "anonymous": false,
      "inputs": [
        {
          "indexed": false,
          "internalType": "uint256",
          "name": "startBlock",
          "type": "uint256"
        }
      ],
      "name": "SaleStarts",
      "type": "event"
    },
    {
      "anonymous": false,
      "inputs": [
        {
          "indexed": false,
          "internalType": "bool",
          "name": "status",
          "type": "bool"
        }
      ],
      "name": "WhitelistStarted",
      "type": "event"
    },
    {
      "inputs": [],
      "name": "DIVISOR",
      "outputs": [
        {
          "internalType": "uint256",
          "name": "",
          "type": "uint256"
        }
      ],
      "stateMutability": "view",
      "type": "function",
      "constant": true
    },
    {
      "inputs": [],
      "name": "busd",
      "outputs": [
        {
          "internalType": "contract ERC20",
          "name": "",
          "type": "address"
        }
      ],
      "stateMutability": "view",
      "type": "function",
      "constant": true
    },
    {
      "inputs": [],
      "name": "crushGod",
      "outputs": [
        {
          "internalType": "contract ERC721",
          "name": "",
          "type": "address"
        }
      ],
      "stateMutability": "view",
      "type": "function",
      "constant": true
    },
    {
      "inputs": [],
      "name": "devAddress",
      "outputs": [
        {
          "internalType": "address",
          "name": "",
          "type": "address"
        }
      ],
      "stateMutability": "view",
      "type": "function",
      "constant": true
    },
    {
      "inputs": [],
      "name": "maxRaise",
      "outputs": [
        {
          "internalType": "uint256",
          "name": "",
          "type": "uint256"
        }
      ],
      "stateMutability": "view",
      "type": "function",
      "constant": true
    },
    {
      "inputs": [],
      "name": "niceToken",
      "outputs": [
        {
          "internalType": "contract NICEToken",
          "name": "",
          "type": "address"
        }
      ],
      "stateMutability": "view",
      "type": "function",
      "constant": true
    },
    {
      "inputs": [],
      "name": "owner",
      "outputs": [
        {
          "internalType": "address",
          "name": "",
          "type": "address"
        }
      ],
      "stateMutability": "view",
      "type": "function",
      "constant": true
    },
    {
      "inputs": [],
      "name": "priceDec",
      "outputs": [
        {
          "internalType": "uint256",
          "name": "",
          "type": "uint256"
        }
      ],
      "stateMutability": "view",
      "type": "function",
      "constant": true
    },
    {
      "inputs": [],
      "name": "pricePerToken",
      "outputs": [
        {
          "internalType": "uint256",
          "name": "",
          "type": "uint256"
        }
      ],
      "stateMutability": "view",
      "type": "function",
      "constant": true
    },
    {
      "inputs": [],
      "name": "renounceOwnership",
      "outputs": [],
      "stateMutability": "nonpayable",
      "type": "function"
    },
    {
      "inputs": [],
      "name": "saleDuration",
      "outputs": [
        {
          "internalType": "uint256",
          "name": "",
          "type": "uint256"
        }
      ],
      "stateMutability": "view",
      "type": "function",
      "constant": true
    },
    {
      "inputs": [],
      "name": "saleEnd",
      "outputs": [
        {
          "internalType": "uint256",
          "name": "",
          "type": "uint256"
        }
      ],
      "stateMutability": "view",
      "type": "function",
      "constant": true
    },
    {
      "inputs": [],
      "name": "saleStart",
      "outputs": [
        {
          "internalType": "uint256",
          "name": "",
          "type": "uint256"
        }
      ],
      "stateMutability": "view",
      "type": "function",
      "constant": true
    },
    {
      "inputs": [],
      "name": "staking",
      "outputs": [
        {
          "internalType": "contract StakingTest",
          "name": "",
          "type": "address"
        }
      ],
      "stateMutability": "view",
      "type": "function",
      "constant": true
    },
    {
      "inputs": [],
      "name": "totalRaised",
      "outputs": [
        {
          "internalType": "uint256",
          "name": "",
          "type": "uint256"
        }
      ],
      "stateMutability": "view",
      "type": "function",
      "constant": true
    },
    {
      "inputs": [],
      "name": "totalSale",
      "outputs": [
        {
          "internalType": "uint256",
          "name": "",
          "type": "uint256"
        }
      ],
      "stateMutability": "view",
      "type": "function",
      "constant": true
    },
    {
      "inputs": [
        {
          "internalType": "address",
          "name": "newOwner",
          "type": "address"
        }
      ],
      "name": "transferOwnership",
      "outputs": [],
      "stateMutability": "nonpayable",
      "type": "function"
    },
    {
      "inputs": [
        {
          "internalType": "uint256",
          "name": "",
          "type": "uint256"
        }
      ],
      "name": "usedTokens",
      "outputs": [
        {
          "internalType": "address",
          "name": "",
          "type": "address"
        }
      ],
      "stateMutability": "view",
      "type": "function",
      "constant": true
    },
    {
      "inputs": [
        {
          "internalType": "address",
          "name": "",
          "type": "address"
        }
      ],
      "name": "userBought",
      "outputs": [
        {
          "internalType": "uint256",
          "name": "amountBought",
          "type": "uint256"
        },
        {
          "internalType": "uint256",
          "name": "amountClaimed",
          "type": "uint256"
        },
        {
          "internalType": "uint256",
          "name": "amountOwed",
          "type": "uint256"
        }
      ],
      "stateMutability": "view",
      "type": "function",
      "constant": true
    },
    {
      "inputs": [],
      "name": "vesting",
      "outputs": [
        {
          "internalType": "uint256",
          "name": "",
          "type": "uint256"
        }
      ],
      "stateMutability": "view",
      "type": "function",
      "constant": true
    },
    {
      "inputs": [],
      "name": "vestingDuration",
      "outputs": [
        {
          "internalType": "uint256",
          "name": "",
          "type": "uint256"
        }
      ],
      "stateMutability": "view",
      "type": "function",
      "constant": true
    },
    {
      "inputs": [
        {
          "internalType": "address",
          "name": "",
          "type": "address"
        }
      ],
      "name": "whitelist",
      "outputs": [
        {
          "internalType": "uint256",
          "name": "",
          "type": "uint256"
        }
      ],
      "stateMutability": "view",
      "type": "function",
      "constant": true
    },
    {
      "inputs": [],
      "name": "qualify",
      "outputs": [
        {
          "internalType": "bool",
          "name": "_isQualified",
          "type": "bool"
        }
      ],
      "stateMutability": "view",
      "type": "function",
      "constant": true
    },
    {
      "inputs": [
        {
          "internalType": "uint256",
          "name": "tokenId",
          "type": "uint256"
        }
      ],
      "name": "whitelistSelf",
      "outputs": [],
      "stateMutability": "nonpayable",
      "type": "function"
    },
    {
      "inputs": [
        {
          "internalType": "address",
          "name": "_tokenAddress",
          "type": "address"
        }
      ],
      "name": "setNiceToken",
      "outputs": [],
      "stateMutability": "nonpayable",
      "type": "function"
    },
    {
      "inputs": [
        {
          "internalType": "uint256",
          "name": "_amount",
          "type": "uint256"
        }
      ],
      "name": "buyNice",
      "outputs": [],
      "stateMutability": "nonpayable",
      "type": "function"
    },
    {
      "inputs": [],
      "name": "claimRaised",
      "outputs": [],
      "stateMutability": "nonpayable",
      "type": "function"
    },
    {
      "inputs": [],
      "name": "claimTokens",
      "outputs": [],
      "stateMutability": "nonpayable",
      "type": "function"
    },
    {
      "inputs": [],
      "name": "availableAmount",
      "outputs": [
        {
          "internalType": "uint256",
          "name": "_avail",
          "type": "uint256"
        }
      ],
      "stateMutability": "view",
      "type": "function",
      "constant": true
    }
  ],
  "bytecode": "0x6101006040526a15ffde39b363d8e9e40000600255612710600355602f600455691a784379d99db42000006005553480156200003a57600080fd5b506040516200300d3803806200300d8339818101604052810190620000609190620002a3565b62000080620000746200016d60201b60201c565b6200017560201b60201c565b8273ffffffffffffffffffffffffffffffffffffffff1660a08173ffffffffffffffffffffffffffffffffffffffff16815250508173ffffffffffffffffffffffffffffffffffffffff1660808173ffffffffffffffffffffffffffffffffffffffff16815250508073ffffffffffffffffffffffffffffffffffffffff1660c08173ffffffffffffffffffffffffffffffffffffffff168152505073addb2b59d1b782e8392ee03d7e2ceaa240e7f1c073ffffffffffffffffffffffffffffffffffffffff1660e08173ffffffffffffffffffffffffffffffffffffffff1681525050505050620002ff565b600033905090565b60008060009054906101000a900473ffffffffffffffffffffffffffffffffffffffff169050816000806101000a81548173ffffffffffffffffffffffffffffffffffffffff021916908373ffffffffffffffffffffffffffffffffffffffff1602179055508173ffffffffffffffffffffffffffffffffffffffff168173ffffffffffffffffffffffffffffffffffffffff167f8be0079c531659141344cd1fd0a4f28419497f9722a3daafe3b4186f6b6457e060405160405180910390a35050565b600080fd5b600073ffffffffffffffffffffffffffffffffffffffff82169050919050565b60006200026b826200023e565b9050919050565b6200027d816200025e565b81146200028957600080fd5b50565b6000815190506200029d8162000272565b92915050565b600080600060608486031215620002bf57620002be62000239565b5b6000620002cf868287016200028c565b9350506020620002e2868287016200028c565b9250506040620002f5868287016200028c565b9150509250925092565b60805160a05160c05160e051612ca36200036a600039600081816106c701526113560152600081816106eb01528181610dcf015281816112a8015261137801526000818161070f0152818161115e015261166c015260008181610a3201526110ad0152612ca36000f3fe608060405234801561001057600080fd5b50600436106101cf5760003560e01c80638da5cb5b11610104578063c4a717cf116100a2578063ea4ce23911610071578063ea4ce239146104ba578063eb04c9d7146104d8578063f2fde38b146104f6578063f78213e314610512576101cf565b8063c4a717cf14610442578063c5c4744c14610474578063d862bcf514610492578063e52a7e24146104b0576101cf565b806391f7cfb9116100de57806391f7cfb9146103b85780639b19251a146103d6578063ab0bcc4114610406578063c10b935814610424576101cf565b80638da5cb5b14610360578063914338831461037e5780639181951b1461039c576101cf565b80633df62df0116101715780634cf088d91161014b5780634cf088d9146102fc578063715018a61461031a578063719ec6b1146103245780637b1b1de614610342576101cf565b80633df62df0146102b657806344c63eec146102d457806348c54b9d146102f2576101cf565b80633410fe6e116101ad5780633410fe6e1461023e5780633711d9fb1461025c5780633ad10ef61461027a5780633ca5b23414610298576101cf565b8063055ef013146101d45780630f7ee879146101f05780631514617e14610220575b600080fd5b6101ee60048036038101906101e99190611cda565b61052e565b005b61020a60048036038101906102059190611d3d565b61067f565b6040516102179190611d79565b60405180910390f35b6102286106b2565b6040516102359190611da3565b60405180910390f35b6102466106b9565b6040516102539190611da3565b60405180910390f35b6102646106bf565b6040516102719190611da3565b60405180910390f35b6102826106c5565b60405161028f9190611d79565b60405180910390f35b6102a06106e9565b6040516102ad9190611e1d565b60405180910390f35b6102be61070d565b6040516102cb9190611e59565b60405180910390f35b6102dc610731565b6040516102e99190611da3565b60405180910390f35b6102fa610737565b005b610304610a30565b6040516103119190611e95565b60405180910390f35b610322610a54565b005b61032c610adc565b6040516103399190611da3565b60405180910390f35b61034a610ae2565b6040516103579190611da3565b60405180910390f35b610368610ae8565b6040516103759190611d79565b60405180910390f35b610386610b11565b6040516103939190611da3565b60405180910390f35b6103b660048036038101906103b19190611d3d565b610b17565b005b6103c0610f12565b6040516103cd9190611da3565b60405180910390f35b6103f060048036038101906103eb9190611cda565b611050565b6040516103fd9190611da3565b60405180910390f35b61040e611068565b60405161041b9190611da3565b60405180910390f35b61042c611070565b6040516104399190611da3565b60405180910390f35b61045c60048036038101906104579190611cda565b611078565b60405161046b93929190611eb0565b60405180910390f35b61047c6110a2565b6040516104899190611da3565b60405180910390f35b61049a6110a8565b6040516104a79190611f02565b60405180910390f35b6104b8611228565b005b6104c26113bf565b6040516104cf9190611da3565b60405180910390f35b6104e06113c5565b6040516104ed9190611f3e565b60405180910390f35b610510600480360381019061050b9190611cda565b6113eb565b005b61052c60048036038101906105279190611d3d565b6114e3565b005b6105366117b1565b73ffffffffffffffffffffffffffffffffffffffff16610554610ae8565b73ffffffffffffffffffffffffffffffffffffffff16146105aa576040517f08c379a00000000000000000000000000000000000000000000000000000000081526004016105a190611fb6565b60405180910390fd5b600073ffffffffffffffffffffffffffffffffffffffff16600160009054906101000a900473ffffffffffffffffffffffffffffffffffffffff1673ffffffffffffffffffffffffffffffffffffffff161461063b576040517f08c379a000000000000000000000000000000000000000000000000000000000815260040161063290612022565b60405180910390fd5b80600160006101000a81548173ffffffffffffffffffffffffffffffffffffffff021916908373ffffffffffffffffffffffffffffffffffffffff16021790555050565b60086020528060005260406000206000915054906101000a900473ffffffffffffffffffffffffffffffffffffffff1681565b6212750081565b61271081565b61a8c081565b7f000000000000000000000000000000000000000000000000000000000000000081565b7f000000000000000000000000000000000000000000000000000000000000000081565b7f000000000000000000000000000000000000000000000000000000000000000081565b6109c481565b6000600960003373ffffffffffffffffffffffffffffffffffffffff1673ffffffffffffffffffffffffffffffffffffffff1681526020019081526020016000209050600063621427801180156107a657506107a36212750063621427806117b990919063ffffffff16565b42115b6107e5576040517f08c379a00000000000000000000000000000000000000000000000000000000081526004016107dc9061208e565b60405180910390fd5b600073ffffffffffffffffffffffffffffffffffffffff16600160009054906101000a900473ffffffffffffffffffffffffffffffffffffffff1673ffffffffffffffffffffffffffffffffffffffff161415610877576040517f08c379a000000000000000000000000000000000000000000000000000000000815260040161086e906120fa565b60405180910390fd5b6000610881610f12565b9050808260010154106108c9576040517f08c379a00000000000000000000000000000000000000000000000000000000081526004016108c090612166565b60405180910390fd5b6108e08260010154826117cf90919063ffffffff16565b90506108f98183600101546117b990919063ffffffff16565b826001018190555061092c61271061091e8385600201546117e590919063ffffffff16565b6117fb90919063ffffffff16565b9050600160009054906101000a900473ffffffffffffffffffffffffffffffffffffffff1673ffffffffffffffffffffffffffffffffffffffff166340c10f1933836040518363ffffffff1660e01b815260040161098b929190612186565b602060405180830381600087803b1580156109a557600080fd5b505af11580156109b9573d6000803e3d6000fd5b505050506040513d601f19601f820116820180604052508101906109dd91906121db565b503373ffffffffffffffffffffffffffffffffffffffff167f577416e982a24935e58003a2bc88755d1018671696e08d0fc6ca1dd95e370a1d82604051610a249190611da3565b60405180910390a25050565b7f000000000000000000000000000000000000000000000000000000000000000081565b610a5c6117b1565b73ffffffffffffffffffffffffffffffffffffffff16610a7a610ae8565b73ffffffffffffffffffffffffffffffffffffffff1614610ad0576040517f08c379a0000000000000000000000000000000000000000000000000000000008152600401610ac790611fb6565b60405180910390fd5b610ada6000611811565b565b60055481565b60045481565b60008060009054906101000a900473ffffffffffffffffffffffffffffffffffffffff16905090565b60035481565b6000610b34670de0b6b3a7640000836118d590919063ffffffff16565b14610b74576040517f08c379a0000000000000000000000000000000000000000000000000000000008152600401610b6b90612254565b60405180910390fd5b6000600760003373ffffffffffffffffffffffffffffffffffffffff1673ffffffffffffffffffffffffffffffffffffffff1681526020019081526020016000205411610bf6576040517f08c379a0000000000000000000000000000000000000000000000000000000008152600401610bed906122c0565b60405180910390fd5b63621427804210610c3c576040517f08c379a0000000000000000000000000000000000000000000000000000000008152600401610c339061232c565b60405180910390fd5b68056bc75e2d63100000811015610c88576040517f08c379a0000000000000000000000000000000000000000000000000000000008152600401610c7f90612398565b60405180910390fd5b6000600960003373ffffffffffffffffffffffffffffffffffffffff1673ffffffffffffffffffffffffffffffffffffffff168152602001908152602001600020905069010f0cf064dd592000008211158015610d05575069010f0cf064dd59200000610d028260000154846117b990919063ffffffff16565b11155b610d44576040517f08c379a0000000000000000000000000000000000000000000000000000000008152600401610d3b90612404565b60405180910390fd5b60055460065410610d8a576040517f08c379a0000000000000000000000000000000000000000000000000000000008152600401610d8190612470565b60405180910390fd5b6000829050600554610da7826006546117b990919063ffffffff16565b1115610dc757610dc46006546005546117cf90919063ffffffff16565b90505b610e143330837f000000000000000000000000000000000000000000000000000000000000000073ffffffffffffffffffffffffffffffffffffffff166118eb909392919063ffffffff16565b610e53610e40600454610e32600354856117e590919063ffffffff16565b6117fb90919063ffffffff16565b83600201546117b990919063ffffffff16565b8260020181905550610e728183600001546117b990919063ffffffff16565b8260000181905550610e8f816006546117b990919063ffffffff16565b6006819055503373ffffffffffffffffffffffffffffffffffffffff167f96ea671ef97e3b0c25b75c51786366ec072e19ce8a92db8ee92004d88319a87d82610ef7600454610ee9600354876117e590919063ffffffff16565b6117fb90919063ffffffff16565b604051610f05929190612490565b60405180910390a2505050565b6000806362142780118015610f2a5750636214278042115b1561104d57610f496212750063621427806117b990919063ffffffff16565b421115610f6857610f656109c4826117b990919063ffffffff16565b90505b610f95610f826002621275006117e590919063ffffffff16565b63621427806117b990919063ffffffff16565b421115610fb457610fb16109c4826117b990919063ffffffff16565b90505b610fe1610fce6003621275006117e590919063ffffffff16565b63621427806117b990919063ffffffff16565b42111561100057610ffd6109c4826117b990919063ffffffff16565b90505b61102d61101a6004621275006117e590919063ffffffff16565b63621427806117b990919063ffffffff16565b42111561104c576110496109c4826117b990919063ffffffff16565b90505b5b90565b60076020528060005260406000206000915090505481565b636212d60081565b636214278081565b60096020528060005260406000206000915090508060000154908060010154908060020154905083565b60065481565b6000807f000000000000000000000000000000000000000000000000000000000000000073ffffffffffffffffffffffffffffffffffffffff1663dc6e13e1336040518263ffffffff1660e01b81526004016111049190611d79565b60a06040518083038186803b15801561111c57600080fd5b505afa158015611130573d6000803e3d6000fd5b505050506040513d601f19601f8201168201806040525081019061115491906124ce565b50505050905060007f000000000000000000000000000000000000000000000000000000000000000073ffffffffffffffffffffffffffffffffffffffff166370a08231336040518263ffffffff1660e01b81526004016111b59190611d79565b60206040518083038186803b1580156111cd57600080fd5b505afa1580156111e1573d6000803e3d6000fd5b505050506040513d601f19601f820116820180604052508101906112059190612549565b9050600081118015611221575069021e19e0c9bab24000008210155b9250505090565b6112306117b1565b73ffffffffffffffffffffffffffffffffffffffff1661124e610ae8565b73ffffffffffffffffffffffffffffffffffffffff16146112a4576040517f08c379a000000000000000000000000000000000000000000000000000000000815260040161129b90611fb6565b60405180910390fd5b60007f000000000000000000000000000000000000000000000000000000000000000073ffffffffffffffffffffffffffffffffffffffff166370a08231306040518263ffffffff1660e01b81526004016112ff9190611d79565b60206040518083038186803b15801561131757600080fd5b505afa15801561132b573d6000803e3d6000fd5b505050506040513d601f19601f8201168201806040525081019061134f9190612549565b90506113bc7f0000000000000000000000000000000000000000000000000000000000000000827f000000000000000000000000000000000000000000000000000000000000000073ffffffffffffffffffffffffffffffffffffffff166119749092919063ffffffff16565b50565b60025481565b600160009054906101000a900473ffffffffffffffffffffffffffffffffffffffff1681565b6113f36117b1565b73ffffffffffffffffffffffffffffffffffffffff16611411610ae8565b73ffffffffffffffffffffffffffffffffffffffff1614611467576040517f08c379a000000000000000000000000000000000000000000000000000000000815260040161145e90611fb6565b60405180910390fd5b600073ffffffffffffffffffffffffffffffffffffffff168173ffffffffffffffffffffffffffffffffffffffff1614156114d7576040517f08c379a00000000000000000000000000000000000000000000000000000000081526004016114ce906125e8565b60405180910390fd5b6114e081611811565b50565b60006114ed6110a8565b90508061152f576040517f08c379a000000000000000000000000000000000000000000000000000000000815260040161152690612654565b60405180910390fd5b6000600760003373ffffffffffffffffffffffffffffffffffffffff1673ffffffffffffffffffffffffffffffffffffffff16815260200190815260200160002054146115b1576040517f08c379a00000000000000000000000000000000000000000000000000000000081526004016115a8906126c0565b60405180910390fd5b600073ffffffffffffffffffffffffffffffffffffffff166008600084815260200190815260200160002060009054906101000a900473ffffffffffffffffffffffffffffffffffffffff1673ffffffffffffffffffffffffffffffffffffffff1614611653576040517f08c379a000000000000000000000000000000000000000000000000000000000815260040161164a9061272c565b60405180910390fd5b3373ffffffffffffffffffffffffffffffffffffffff167f000000000000000000000000000000000000000000000000000000000000000073ffffffffffffffffffffffffffffffffffffffff16636352211e846040518263ffffffff1660e01b81526004016116c39190611da3565b60206040518083038186803b1580156116db57600080fd5b505afa1580156116ef573d6000803e3d6000fd5b505050506040513d601f19601f820116820180604052508101906117139190612761565b73ffffffffffffffffffffffffffffffffffffffff1614611769576040517f08c379a0000000000000000000000000000000000000000000000000000000008152600401611760906127da565b60405180910390fd5b81600760003373ffffffffffffffffffffffffffffffffffffffff1673ffffffffffffffffffffffffffffffffffffffff168152602001908152602001600020819055505050565b600033905090565b600081836117c79190612829565b905092915050565b600081836117dd919061287f565b905092915050565b600081836117f391906128b3565b905092915050565b60008183611809919061293c565b905092915050565b60008060009054906101000a900473ffffffffffffffffffffffffffffffffffffffff169050816000806101000a81548173ffffffffffffffffffffffffffffffffffffffff021916908373ffffffffffffffffffffffffffffffffffffffff1602179055508173ffffffffffffffffffffffffffffffffffffffff168173ffffffffffffffffffffffffffffffffffffffff167f8be0079c531659141344cd1fd0a4f28419497f9722a3daafe3b4186f6b6457e060405160405180910390a35050565b600081836118e3919061296d565b905092915050565b61196e846323b872dd60e01b85858560405160240161190c9392919061299e565b604051602081830303815290604052907bffffffffffffffffffffffffffffffffffffffffffffffffffffffff19166020820180517bffffffffffffffffffffffffffffffffffffffffffffffffffffffff83818316178352505050506119fa565b50505050565b6119f58363a9059cbb60e01b8484604051602401611993929190612186565b604051602081830303815290604052907bffffffffffffffffffffffffffffffffffffffffffffffffffffffff19166020820180517bffffffffffffffffffffffffffffffffffffffffffffffffffffffff83818316178352505050506119fa565b505050565b6000611a5c826040518060400160405280602081526020017f5361666545524332303a206c6f772d6c6576656c2063616c6c206661696c65648152508573ffffffffffffffffffffffffffffffffffffffff16611ac19092919063ffffffff16565b9050600081511115611abc5780806020019051810190611a7c91906121db565b611abb576040517f08c379a0000000000000000000000000000000000000000000000000000000008152600401611ab290612a47565b60405180910390fd5b5b505050565b6060611ad08484600085611ad9565b90509392505050565b606082471015611b1e576040517f08c379a0000000000000000000000000000000000000000000000000000000008152600401611b1590612ad9565b60405180910390fd5b611b2785611bed565b611b66576040517f08c379a0000000000000000000000000000000000000000000000000000000008152600401611b5d90612b45565b60405180910390fd5b6000808673ffffffffffffffffffffffffffffffffffffffff168587604051611b8f9190612bdf565b60006040518083038185875af1925050503d8060008114611bcc576040519150601f19603f3d011682016040523d82523d6000602084013e611bd1565b606091505b5091509150611be1828286611c10565b92505050949350505050565b6000808273ffffffffffffffffffffffffffffffffffffffff163b119050919050565b60608315611c2057829050611c70565b600083511115611c335782518084602001fd5b816040517f08c379a0000000000000000000000000000000000000000000000000000000008152600401611c679190612c4b565b60405180910390fd5b9392505050565b600080fd5b600073ffffffffffffffffffffffffffffffffffffffff82169050919050565b6000611ca782611c7c565b9050919050565b611cb781611c9c565b8114611cc257600080fd5b50565b600081359050611cd481611cae565b92915050565b600060208284031215611cf057611cef611c77565b5b6000611cfe84828501611cc5565b91505092915050565b6000819050919050565b611d1a81611d07565b8114611d2557600080fd5b50565b600081359050611d3781611d11565b92915050565b600060208284031215611d5357611d52611c77565b5b6000611d6184828501611d28565b91505092915050565b611d7381611c9c565b82525050565b6000602082019050611d8e6000830184611d6a565b92915050565b611d9d81611d07565b82525050565b6000602082019050611db86000830184611d94565b92915050565b6000819050919050565b6000611de3611dde611dd984611c7c565b611dbe565b611c7c565b9050919050565b6000611df582611dc8565b9050919050565b6000611e0782611dea565b9050919050565b611e1781611dfc565b82525050565b6000602082019050611e326000830184611e0e565b92915050565b6000611e4382611dea565b9050919050565b611e5381611e38565b82525050565b6000602082019050611e6e6000830184611e4a565b92915050565b6000611e7f82611dea565b9050919050565b611e8f81611e74565b82525050565b6000602082019050611eaa6000830184611e86565b92915050565b6000606082019050611ec56000830186611d94565b611ed26020830185611d94565b611edf6040830184611d94565b949350505050565b60008115159050919050565b611efc81611ee7565b82525050565b6000602082019050611f176000830184611ef3565b92915050565b6000611f2882611dea565b9050919050565b611f3881611f1d565b82525050565b6000602082019050611f536000830184611f2f565b92915050565b600082825260208201905092915050565b7f4f776e61626c653a2063616c6c6572206973206e6f7420746865206f776e6572600082015250565b6000611fa0602083611f59565b9150611fab82611f6a565b602082019050919050565b60006020820190508181036000830152611fcf81611f93565b9050919050565b7f244e49434520616c726561647920736574000000000000000000000000000000600082015250565b600061200c601183611f59565b915061201782611fd6565b602082019050919050565b6000602082019050818103600083015261203b81611fff565b9050919050565b7f436c61696d20556e617661696c61626c65000000000000000000000000000000600082015250565b6000612078601183611f59565b915061208382612042565b602082019050919050565b600060208201905081810360008301526120a78161206b565b9050919050565b7f546f6b656e204e6f742061646465640000000000000000000000000000000000600082015250565b60006120e4600f83611f59565b91506120ef826120ae565b602082019050919050565b60006020820190508181036000830152612113816120d7565b9050919050565b7f416c726561647920636c61696d65640000000000000000000000000000000000600082015250565b6000612150600f83611f59565b915061215b8261211a565b602082019050919050565b6000602082019050818103600083015261217f81612143565b9050919050565b600060408201905061219b6000830185611d6a565b6121a86020830184611d94565b9392505050565b6121b881611ee7565b81146121c357600080fd5b50565b6000815190506121d5816121af565b92915050565b6000602082840312156121f1576121f0611c77565b5b60006121ff848285016121c6565b91505092915050565b7f457861637420616d6f756e7473206f6e6c790000000000000000000000000000600082015250565b600061223e601283611f59565b915061224982612208565b602082019050919050565b6000602082019050818103600083015261226d81612231565b9050919050565b7f57686974656c697374206f6e6c79000000000000000000000000000000000000600082015250565b60006122aa600e83611f59565b91506122b582612274565b602082019050919050565b600060208201905081810360008301526122d98161229d565b9050919050565b7f53616c65456e6465640000000000000000000000000000000000000000000000600082015250565b6000612316600983611f59565b9150612321826122e0565b602082019050919050565b6000602082019050818103600083015261234581612309565b9050919050565b7f4d696e696d756d206e6f74206d65740000000000000000000000000000000000600082015250565b6000612382600f83611f59565b915061238d8261234c565b602082019050919050565b600060208201905081810360008301526123b181612375565b9050919050565b7f436170206f766572666c6f770000000000000000000000000000000000000000600082015250565b60006123ee600c83611f59565b91506123f9826123b8565b602082019050919050565b6000602082019050818103600083015261241d816123e1565b9050919050565b7f4c696d6974204578636565646564000000000000000000000000000000000000600082015250565b600061245a600e83611f59565b915061246582612424565b602082019050919050565b600060208201905081810360008301526124898161244d565b9050919050565b60006040820190506124a56000830185611d94565b6124b26020830184611d94565b9392505050565b6000815190506124c881611d11565b92915050565b600080600080600060a086880312156124ea576124e9611c77565b5b60006124f8888289016124b9565b9550506020612509888289016124b9565b945050604061251a888289016124b9565b935050606061252b888289016124b9565b925050608061253c888289016124b9565b9150509295509295909350565b60006020828403121561255f5761255e611c77565b5b600061256d848285016124b9565b91505092915050565b7f4f776e61626c653a206e6577206f776e657220697320746865207a65726f206160008201527f6464726573730000000000000000000000000000000000000000000000000000602082015250565b60006125d2602683611f59565b91506125dd82612576565b604082019050919050565b60006020820190508181036000830152612601816125c5565b9050919050565b7f556e7175616c6966696564000000000000000000000000000000000000000000600082015250565b600061263e600b83611f59565b915061264982612608565b602082019050919050565b6000602082019050818103600083015261266d81612631565b9050919050565b7f416c72656164792077686974656c697374656400000000000000000000000000600082015250565b60006126aa601383611f59565b91506126b582612674565b602082019050919050565b600060208201905081810360008301526126d98161269d565b9050919050565b7f546f6b656e20616c726561647920757365640000000000000000000000000000600082015250565b6000612716601283611f59565b9150612721826126e0565b602082019050919050565b6000602082019050818103600083015261274581612709565b9050919050565b60008151905061275b81611cae565b92915050565b60006020828403121561277757612776611c77565b5b60006127858482850161274c565b91505092915050565b7f496c6c6567616c206f776e657200000000000000000000000000000000000000600082015250565b60006127c4600d83611f59565b91506127cf8261278e565b602082019050919050565b600060208201905081810360008301526127f3816127b7565b9050919050565b7f4e487b7100000000000000000000000000000000000000000000000000000000600052601160045260246000fd5b600061283482611d07565b915061283f83611d07565b9250827fffffffffffffffffffffffffffffffffffffffffffffffffffffffffffffffff03821115612874576128736127fa565b5b828201905092915050565b600061288a82611d07565b915061289583611d07565b9250828210156128a8576128a76127fa565b5b828203905092915050565b60006128be82611d07565b91506128c983611d07565b9250817fffffffffffffffffffffffffffffffffffffffffffffffffffffffffffffffff0483118215151615612902576129016127fa565b5b828202905092915050565b7f4e487b7100000000000000000000000000000000000000000000000000000000600052601260045260246000fd5b600061294782611d07565b915061295283611d07565b9250826129625761296161290d565b5b828204905092915050565b600061297882611d07565b915061298383611d07565b9250826129935761299261290d565b5b828206905092915050565b60006060820190506129b36000830186611d6a565b6129c06020830185611d6a565b6129cd6040830184611d94565b949350505050565b7f5361666545524332303a204552433230206f7065726174696f6e20646964206e60008201527f6f74207375636365656400000000000000000000000000000000000000000000602082015250565b6000612a31602a83611f59565b9150612a3c826129d5565b604082019050919050565b60006020820190508181036000830152612a6081612a24565b9050919050565b7f416464726573733a20696e73756666696369656e742062616c616e636520666f60008201527f722063616c6c0000000000000000000000000000000000000000000000000000602082015250565b6000612ac3602683611f59565b9150612ace82612a67565b604082019050919050565b60006020820190508181036000830152612af281612ab6565b9050919050565b7f416464726573733a2063616c6c20746f206e6f6e2d636f6e7472616374000000600082015250565b6000612b2f601d83611f59565b9150612b3a82612af9565b602082019050919050565b60006020820190508181036000830152612b5e81612b22565b9050919050565b600081519050919050565b600081905092915050565b60005b83811015612b99578082015181840152602081019050612b7e565b83811115612ba8576000848401525b50505050565b6000612bb982612b65565b612bc38185612b70565b9350612bd3818560208601612b7b565b80840191505092915050565b6000612beb8284612bae565b915081905092915050565b600081519050919050565b6000601f19601f8301169050919050565b6000612c1d82612bf6565b612c278185611f59565b9350612c37818560208601612b7b565b612c4081612c01565b840191505092915050565b60006020820190508181036000830152612c658184612c12565b90509291505056fea264697066735822122001bee7c43d3e738f3be9f58791a8f3129d2d4d02f58b1b99fb2b91b33ea5f84f64736f6c63430008090033",
  "immutableReferences": {
    "731": [
      {
        "length": 32,
        "start": 2610
      },
      {
        "length": 32,
        "start": 4269
      }
    ],
    "734": [
      {
        "length": 32,
        "start": 1807
      },
      {
        "length": 32,
        "start": 4446
      },
      {
        "length": 32,
        "start": 5740
      }
    ],
    "740": [
      {
        "length": 32,
        "start": 1771
      },
      {
        "length": 32,
        "start": 3535
      },
      {
        "length": 32,
        "start": 4776
      },
      {
        "length": 32,
        "start": 4984
      }
    ],
    "762": [
      {
        "length": 32,
        "start": 1735
      },
      {
        "length": 32,
        "start": 4950
      }
    ]
  },
  "source": "// SPDX-License-Identifier: MIT\npragma solidity 0.8.9;\n\nimport \"@openzeppelin/contracts/access/Ownable.sol\";\nimport \"@openzeppelin/contracts/utils/math/SafeMath.sol\";\nimport \"@openzeppelin/contracts/token/ERC721/ERC721.sol\";\nimport \"@openzeppelin/contracts/token/ERC20/ERC20.sol\";\nimport \"@openzeppelin/contracts/token/ERC20/utils/SafeERC20.sol\";\nimport \"./NICEToken.sol\";\n// TEST\nimport \"./TestStaking2.sol\";\n\ncontract Presale is Ownable {\n\n  using SafeMath for uint;\n  using SafeERC20 for ERC20;\n\n  uint public constant DIVISOR = 10000;\n\n  struct Buy { \n    uint amountBought;\n    uint amountClaimed;\n    uint amountOwed;\n  }\n\n  uint public constant saleStart = 1645401600;\n  uint public constant saleEnd = 1645488000;\n  uint public constant vestingDuration = 2 weeks;\n  StakingTest public immutable staking;\n  ERC721 public immutable crushGod;\n  NICEToken public niceToken;\n  ERC20 public immutable busd;\n  uint public constant saleDuration = 12 hours; // Duration in Blocks ( 3 blocks per second ) 12 hours\n  uint public totalSale = 26595745 ether;\n  uint public constant vesting = 2500;\n  uint public priceDec = 10000;\n  uint public pricePerToken = 47;\n  uint public maxRaise =  125000 ether;\n  uint public totalRaised;\n\n  address public immutable devAddress;\n\n  mapping(address => uint) public whitelist;\n  mapping(uint => address) public usedTokens;\n  mapping(address => Buy) public userBought;\n\n  // EVENTS\n  event WhitelistStarted(bool status);\n  event SaleStarts(uint startBlock);\n  event NiceBought(address indexed buyer, uint busd, uint nice);\n  event NiceClaimed( address indexed buyer, uint amount);\n  event LogEvent(uint data1, string data2);\n\n  constructor( address crushGodNft, address stakingV2, address _busd ){\n    crushGod = ERC721(crushGodNft);\n    staking = StakingTest(stakingV2);\n    busd = ERC20(_busd);\n    devAddress = 0xADdb2B59d1B782e8392Ee03d7E2cEaA240e7f1c0;\n  }\n  /// @notice qualify only checks quantity\n  /// @dev qualify is an overlook of the amount of CrushGod NFTs held and tokens staked\n  function qualify() public view returns(bool _isQualified){\n      (uint staked,,,,) = staking.stakings(msg.sender);\n      uint nfts = crushGod.balanceOf(msg.sender);\n      _isQualified = nfts > 0 && staked >= 10000 ether;\n  }\n  /// @notice user will need to self whitelist prior to the sale\n  /// @param tokenId the NFT Id to register with\n  /// @dev once whitelisted, the token locked to that wallet.\n  function whitelistSelf(uint tokenId) public {\n    bool isQualified = qualify();\n    require(isQualified, \"Unqualified\");\n    require(whitelist[msg.sender] == 0, \"Already whitelisted\");\n    require(usedTokens[tokenId] == address(0), \"Token already used\");\n    require(crushGod.ownerOf(tokenId) == msg.sender, \"Illegal owner\");\n    whitelist[msg.sender] = tokenId;\n  }\n\n  function setNiceToken(address _tokenAddress) onlyOwner external {\n    require(address(niceToken) == address(0), \"$NICE already set\");\n    niceToken = NICEToken(_tokenAddress);\n  }\n  /// @notice Reserve NICE allocation with BUSD\n  /// @param _amount Amount of BUSD to lock NICE amount\n  /// @dev minimum of $100 BUSD, max of $5K BUSD\n  /// @dev if maxRaise is exceeded we will allocate just a portion of that amount.\n  function buyNice(uint _amount) external{\n    require(_amount.mod(1 ether) == 0, \"Exact amounts only\");\n    require(whitelist[msg.sender]  > 0, \"Whitelist only\");\n    require(block.timestamp < saleEnd, \"SaleEnded\");\n    require(_amount >= 100 ether, \"Minimum not met\");\n    Buy storage userInfo = userBought[msg.sender];\n    require(_amount <= 5000 ether && _amount.add(userInfo.amountBought) <= 5000 ether, \"Cap overflow\");\n    require(totalRaised < maxRaise, \"Limit Exceeded\");\n    uint amount = _amount;\n    // When exceeding, send the rest to the user\n    if(totalRaised.add(amount) > maxRaise){\n      amount = maxRaise.sub(totalRaised);\n    }\n\n    busd.safeTransferFrom(msg.sender, address(this), amount);\n    userInfo.amountOwed = userInfo.amountOwed.add( amount.mul(priceDec).div(pricePerToken) );\n    userInfo.amountBought = userInfo.amountBought.add( amount );\n    totalRaised = totalRaised.add(amount);\n\n    emit NiceBought(msg.sender, amount, amount.mul(priceDec).div(pricePerToken));\n  }\n  /// \n  function claimRaised() external onlyOwner{\n    uint currentBalance = busd.balanceOf(address(this));\n    busd.safeTransfer(devAddress, currentBalance);\n  }\n  /// @notice function that gets available tokens to the user.\n  /// @dev transfers NICE to the user directly by minting straight to their wallets\n  function claimTokens() external{\n    Buy storage userInfo = userBought[msg.sender];\n    require(saleEnd > 0 && block.timestamp > saleEnd.add(vestingDuration), \"Claim Unavailable\");\n    require( address(niceToken) != address(0), \"Token Not added\");\n    uint claimable = availableAmount();\n    require( userInfo.amountClaimed < claimable, \"Already claimed\");\n    // Make sure we're not claiming more than available\n    claimable = claimable.sub(userInfo.amountClaimed);\n    userInfo.amountClaimed = userInfo.amountClaimed.add(claimable);\n    claimable = userInfo.amountOwed.mul(claimable).div(DIVISOR);\n    niceToken.mint(msg.sender,claimable);\n    emit NiceClaimed(msg.sender, claimable);\n  }\n\n  /// @notice get claimable percentage after sale end\n  /// @return _avail percentage available to claim\n  /// @dev this function checks if time has passed to set the max amount claimable\n  function availableAmount() public view returns(uint _avail) {\n    if(saleEnd > 0 && block.timestamp > saleEnd){\n      if(block.timestamp > saleEnd.add(vestingDuration))\n        _avail = _avail.add(vesting);\n      if(block.timestamp > saleEnd.add(vestingDuration.mul(2)))\n        _avail = _avail.add(vesting);\n      if(block.timestamp > saleEnd.add(vestingDuration.mul(3)))\n        _avail = _avail.add(vesting);\n      if(block.timestamp > saleEnd.add(vestingDuration.mul(4)))\n        _avail = _avail.add(vesting);\n    }\n  }\n}",
  "sourcePath": "/home/jman/crypto/bitcrush/contracts/crush_contracts/contracts/Presale.sol",
  "compiler": {
    "name": "solc",
    "version": "0.8.9+commit.e5eed63a.Emscripten.clang"
  },
  "schemaVersion": "3.4.0",
  "updatedAt": "2022-02-17T05:02:22.719Z",
  "networkType": "ethereum",
  "devdoc": {
    "kind": "dev",
    "methods": {
      "availableAmount()": {
        "details": "this function checks if time has passed to set the max amount claimable",
        "returns": {
          "_avail": "percentage available to claim"
        }
      },
      "buyNice(uint256)": {
        "details": "minimum of $100 BUSD, max of $5K BUSDif maxRaise is exceeded we will allocate just a portion of that amount.",
        "params": {
          "_amount": "Amount of BUSD to lock NICE amount"
        }
      },
      "claimTokens()": {
        "details": "transfers NICE to the user directly by minting straight to their wallets"
      },
      "owner()": {
        "details": "Returns the address of the current owner."
      },
      "qualify()": {
        "details": "qualify is an overlook of the amount of CrushGod NFTs held and tokens staked"
      },
      "renounceOwnership()": {
        "details": "Leaves the contract without owner. It will not be possible to call `onlyOwner` functions anymore. Can only be called by the current owner. NOTE: Renouncing ownership will leave the contract without an owner, thereby removing any functionality that is only available to the owner."
      },
      "transferOwnership(address)": {
        "details": "Transfers ownership of the contract to a new account (`newOwner`). Can only be called by the current owner."
      },
      "whitelistSelf(uint256)": {
        "details": "once whitelisted, the token locked to that wallet.",
        "params": {
          "tokenId": "the NFT Id to register with"
        }
      }
    },
    "version": 1
  },
  "userdoc": {
    "kind": "user",
    "methods": {
      "availableAmount()": {
        "notice": "get claimable percentage after sale end"
      },
      "buyNice(uint256)": {
        "notice": "Reserve NICE allocation with BUSD"
      },
      "claimTokens()": {
        "notice": "function that gets available tokens to the user."
      },
      "qualify()": {
        "notice": "qualify only checks quantity"
      },
      "whitelistSelf(uint256)": {
        "notice": "user will need to self whitelist prior to the sale"
      }
    },
    "version": 1
  }
}