{
  "contractName": "Presale",
  "abi": [
    {
      "inputs": [
        {
          "internalType": "address",
          "name": "_prevSale",
          "type": "address"
        }
      ],
      "stateMutability": "nonpayable",
      "type": "constructor"
    },
    {
      "anonymous": false,
      "inputs": [
        {
          "indexed": false,
          "internalType": "uint256",
          "name": "data1",
          "type": "uint256"
        },
        {
          "indexed": false,
          "internalType": "string",
          "name": "data2",
          "type": "string"
        }
      ],
      "name": "LogEvent",
      "type": "event"
    },
    {
      "anonymous": false,
      "inputs": [
        {
          "indexed": true,
          "internalType": "address",
          "name": "buyer",
          "type": "address"
        },
        {
          "indexed": false,
          "internalType": "uint256",
          "name": "busd",
          "type": "uint256"
        },
        {
          "indexed": false,
          "internalType": "uint256",
          "name": "nice",
          "type": "uint256"
        }
      ],
      "name": "NiceBought",
      "type": "event"
    },
    {
      "anonymous": false,
      "inputs": [
        {
          "indexed": true,
          "internalType": "address",
          "name": "buyer",
          "type": "address"
        },
        {
          "indexed": false,
          "internalType": "uint256",
          "name": "amount",
          "type": "uint256"
        }
      ],
      "name": "NiceClaimed",
      "type": "event"
    },
    {
      "anonymous": false,
      "inputs": [
        {
          "indexed": true,
          "internalType": "address",
          "name": "previousOwner",
          "type": "address"
        },
        {
          "indexed": true,
          "internalType": "address",
          "name": "newOwner",
          "type": "address"
        }
      ],
      "name": "OwnershipTransferred",
      "type": "event"
    },
    {
      "anonymous": false,
      "inputs": [
        {
          "indexed": false,
          "internalType": "uint256",
          "name": "startBlock",
          "type": "uint256"
        }
      ],
      "name": "SaleStarts",
      "type": "event"
    },
    {
      "anonymous": false,
      "inputs": [
        {
          "indexed": false,
          "internalType": "bool",
          "name": "status",
          "type": "bool"
        }
      ],
      "name": "WhitelistStarted",
      "type": "event"
    },
    {
      "inputs": [],
      "name": "DIVISOR",
      "outputs": [
        {
          "internalType": "uint256",
          "name": "",
          "type": "uint256"
        }
      ],
      "stateMutability": "view",
      "type": "function",
      "constant": true
    },
    {
      "inputs": [],
      "name": "busd",
      "outputs": [
        {
          "internalType": "contract ERC20",
          "name": "",
          "type": "address"
        }
      ],
      "stateMutability": "view",
      "type": "function",
      "constant": true
    },
    {
      "inputs": [],
      "name": "currentRaised",
      "outputs": [
        {
          "internalType": "uint256",
          "name": "",
          "type": "uint256"
        }
      ],
      "stateMutability": "view",
      "type": "function",
      "constant": true
    },
    {
      "inputs": [],
      "name": "devAddress",
      "outputs": [
        {
          "internalType": "address",
          "name": "",
          "type": "address"
        }
      ],
      "stateMutability": "view",
      "type": "function",
      "constant": true
    },
    {
      "inputs": [],
      "name": "maxRaise",
      "outputs": [
        {
          "internalType": "uint256",
          "name": "",
          "type": "uint256"
        }
      ],
      "stateMutability": "view",
      "type": "function",
      "constant": true
    },
    {
      "inputs": [],
      "name": "niceToken",
      "outputs": [
        {
          "internalType": "contract NICEToken",
          "name": "",
          "type": "address"
        }
      ],
      "stateMutability": "view",
      "type": "function",
      "constant": true
    },
    {
      "inputs": [],
      "name": "owner",
      "outputs": [
        {
          "internalType": "address",
          "name": "",
          "type": "address"
        }
      ],
      "stateMutability": "view",
      "type": "function",
      "constant": true
    },
    {
      "inputs": [],
      "name": "pause",
      "outputs": [
        {
          "internalType": "bool",
          "name": "",
          "type": "bool"
        }
      ],
      "stateMutability": "view",
      "type": "function",
      "constant": true
    },
    {
      "inputs": [],
      "name": "prevSale",
      "outputs": [
        {
          "internalType": "contract PrevSale",
          "name": "",
          "type": "address"
        }
      ],
      "stateMutability": "view",
      "type": "function",
      "constant": true
    },
    {
      "inputs": [],
      "name": "priceDec",
      "outputs": [
        {
          "internalType": "uint256",
          "name": "",
          "type": "uint256"
        }
      ],
      "stateMutability": "view",
      "type": "function",
      "constant": true
    },
    {
      "inputs": [],
      "name": "pricePerToken",
      "outputs": [
        {
          "internalType": "uint256",
          "name": "",
          "type": "uint256"
        }
      ],
      "stateMutability": "view",
      "type": "function",
      "constant": true
    },
    {
      "inputs": [],
      "name": "renounceOwnership",
      "outputs": [],
      "stateMutability": "nonpayable",
      "type": "function"
    },
    {
      "inputs": [],
      "name": "saleEnd",
      "outputs": [
        {
          "internalType": "uint256",
          "name": "",
          "type": "uint256"
        }
      ],
      "stateMutability": "view",
      "type": "function",
      "constant": true
    },
    {
      "inputs": [],
      "name": "saleStart",
      "outputs": [
        {
          "internalType": "uint256",
          "name": "",
          "type": "uint256"
        }
      ],
      "stateMutability": "view",
      "type": "function",
      "constant": true
    },
    {
      "inputs": [],
      "name": "staking",
      "outputs": [
        {
          "internalType": "contract StakingTest",
          "name": "",
          "type": "address"
        }
      ],
      "stateMutability": "view",
      "type": "function",
      "constant": true
    },
    {
      "inputs": [],
      "name": "totalSale",
      "outputs": [
        {
          "internalType": "uint256",
          "name": "",
          "type": "uint256"
        }
      ],
      "stateMutability": "view",
      "type": "function",
      "constant": true
    },
    {
      "inputs": [
        {
          "internalType": "address",
          "name": "newOwner",
          "type": "address"
        }
      ],
      "name": "transferOwnership",
      "outputs": [],
      "stateMutability": "nonpayable",
      "type": "function"
    },
    {
      "inputs": [
        {
          "internalType": "address",
          "name": "",
          "type": "address"
        }
      ],
      "name": "userBought",
      "outputs": [
        {
          "internalType": "uint256",
          "name": "amountBought",
          "type": "uint256"
        },
        {
          "internalType": "uint256",
          "name": "amountClaimed",
          "type": "uint256"
        },
        {
          "internalType": "uint256",
          "name": "amountOwed",
          "type": "uint256"
        }
      ],
      "stateMutability": "view",
      "type": "function",
      "constant": true
    },
    {
      "inputs": [],
      "name": "vesting",
      "outputs": [
        {
          "internalType": "uint256",
          "name": "",
          "type": "uint256"
        }
      ],
      "stateMutability": "view",
      "type": "function",
      "constant": true
    },
    {
      "inputs": [],
      "name": "vestingDuration",
      "outputs": [
        {
          "internalType": "uint256",
          "name": "",
          "type": "uint256"
        }
      ],
      "stateMutability": "view",
      "type": "function",
      "constant": true
    },
    {
      "inputs": [
        {
          "internalType": "address",
          "name": "",
          "type": "address"
        }
      ],
      "name": "whitelist",
      "outputs": [
        {
          "internalType": "uint256",
          "name": "",
          "type": "uint256"
        }
      ],
      "stateMutability": "view",
      "type": "function",
      "constant": true
    },
    {
      "inputs": [],
      "name": "pauseSale",
      "outputs": [],
      "stateMutability": "nonpayable",
      "type": "function"
    },
    {
      "inputs": [],
      "name": "qualify",
      "outputs": [
        {
          "internalType": "bool",
          "name": "_isQualified",
          "type": "bool"
        }
      ],
      "stateMutability": "view",
      "type": "function",
      "constant": true
    },
    {
      "inputs": [
        {
          "internalType": "address",
          "name": "_tokenAddress",
          "type": "address"
        }
      ],
      "name": "setNiceToken",
      "outputs": [],
      "stateMutability": "nonpayable",
      "type": "function"
    },
    {
      "inputs": [],
      "name": "totalRaised",
      "outputs": [
        {
          "internalType": "uint256",
          "name": "_total",
          "type": "uint256"
        }
      ],
      "stateMutability": "view",
      "type": "function",
      "constant": true
    },
    {
      "inputs": [],
      "name": "userData",
      "outputs": [
        {
          "internalType": "uint256",
          "name": "_totalBought",
          "type": "uint256"
        },
        {
          "internalType": "uint256",
          "name": "_totalOwed",
          "type": "uint256"
        },
        {
          "internalType": "uint256",
          "name": "_totalClaimed",
          "type": "uint256"
        }
      ],
      "stateMutability": "view",
      "type": "function",
      "constant": true
    },
    {
      "inputs": [
        {
          "internalType": "uint256",
          "name": "_amount",
          "type": "uint256"
        }
      ],
      "name": "buyNice",
      "outputs": [],
      "stateMutability": "nonpayable",
      "type": "function"
    },
    {
      "inputs": [],
      "name": "claimRaised",
      "outputs": [],
      "stateMutability": "nonpayable",
      "type": "function"
    },
    {
      "inputs": [],
      "name": "claimTokens",
      "outputs": [],
      "stateMutability": "nonpayable",
      "type": "function"
    }
  ],
  "bytecode": "0x60e06040526a15ffde39b363d8e9e40000600355612710600455602f600555691a784379d99db42000006006553480156200003957600080fd5b5060405162002efd38038062002efd83398181016040528101906200005f919062000415565b6200007f62000073620002df60201b60201c565b620002e760201b60201c565b6001808190555080600860016101000a81548173ffffffffffffffffffffffffffffffffffffffff021916908373ffffffffffffffffffffffffffffffffffffffff160217905550600860019054906101000a900473ffffffffffffffffffffffffffffffffffffffff1673ffffffffffffffffffffffffffffffffffffffff16634cf088d96040518163ffffffff1660e01b815260040160206040518083038186803b1580156200013057600080fd5b505afa15801562000145573d6000803e3d6000fd5b505050506040513d601f19601f820116820180604052508101906200016b91906200048c565b73ffffffffffffffffffffffffffffffffffffffff1660808173ffffffffffffffffffffffffffffffffffffffff1681525050600860019054906101000a900473ffffffffffffffffffffffffffffffffffffffff1673ffffffffffffffffffffffffffffffffffffffff16633ca5b2346040518163ffffffff1660e01b815260040160206040518083038186803b1580156200020757600080fd5b505afa1580156200021c573d6000803e3d6000fd5b505050506040513d601f19601f8201168201806040525081019062000242919062000503565b73ffffffffffffffffffffffffffffffffffffffff1660a08173ffffffffffffffffffffffffffffffffffffffff168152505073addb2b59d1b782e8392ee03d7e2ceaa240e7f1c073ffffffffffffffffffffffffffffffffffffffff1660c08173ffffffffffffffffffffffffffffffffffffffff16815250506000600860006101000a81548160ff0219169083151502179055505062000535565b600033905090565b60008060009054906101000a900473ffffffffffffffffffffffffffffffffffffffff169050816000806101000a81548173ffffffffffffffffffffffffffffffffffffffff021916908373ffffffffffffffffffffffffffffffffffffffff1602179055508173ffffffffffffffffffffffffffffffffffffffff168173ffffffffffffffffffffffffffffffffffffffff167f8be0079c531659141344cd1fd0a4f28419497f9722a3daafe3b4186f6b6457e060405160405180910390a35050565b600080fd5b600073ffffffffffffffffffffffffffffffffffffffff82169050919050565b6000620003dd82620003b0565b9050919050565b620003ef81620003d0565b8114620003fb57600080fd5b50565b6000815190506200040f81620003e4565b92915050565b6000602082840312156200042e576200042d620003ab565b5b60006200043e84828501620003fe565b91505092915050565b60006200045482620003d0565b9050919050565b620004668162000447565b81146200047257600080fd5b50565b60008151905062000486816200045b565b92915050565b600060208284031215620004a557620004a4620003ab565b5b6000620004b58482850162000475565b91505092915050565b6000620004cb82620003d0565b9050919050565b620004dd81620004be565b8114620004e957600080fd5b50565b600081519050620004fd81620004d2565b92915050565b6000602082840312156200051c576200051b620003ab565b5b60006200052c84828501620004ec565b91505092915050565b60805160a05160c051612975620005886000396000818161066c01526113ea01526000818161069001528181610e710152818161133c015261140c0152600081816109df01526111f601526129756000f3fe608060405234801561001057600080fd5b50600436106101cf5760003560e01c80638456cb5911610104578063c10b9358116100a2578063e52a7e2411610071578063e52a7e24146104aa578063ea4ce239146104b4578063eb04c9d7146104d2578063f2fde38b146104f0576101cf565b8063c10b93581461041e578063c4a717cf1461043c578063c5c4744c1461046e578063d862bcf51461048c576101cf565b80639181951b116100de5780639181951b146103945780639b19251a146103b0578063ab0bcc41146103e0578063bea6998f146103fe576101cf565b80638456cb591461033a5780638da5cb5b146103585780639143388314610376576101cf565b80634c6e5ccc1161017157806360e43f5f1161014b57806360e43f5f146102d6578063715018a6146102f4578063719ec6b1146102fe5780637b1b1de61461031c576101cf565b80634c6e5ccc146102905780634cf088d9146102ae57806355367ba9146102cc576101cf565b80633ad10ef6116101ad5780633ad10ef61461022c5780633ca5b2341461024a57806344c63eec1461026857806348c54b9d14610286576101cf565b8063055ef013146101d45780631514617e146101f05780633410fe6e1461020e575b600080fd5b6101ee60048036038101906101e99190611a90565b61050c565b005b6101f861065d565b6040516102059190611ad6565b60405180910390f35b610216610664565b6040516102239190611ad6565b60405180910390f35b61023461066a565b6040516102419190611b00565b60405180910390f35b61025261068e565b60405161025f9190611b7a565b60405180910390f35b6102706106b2565b60405161027d9190611ad6565b60405180910390f35b61028e6106b8565b005b6102986109d7565b6040516102a59190611ad6565b60405180910390f35b6102b66109dd565b6040516102c39190611bb6565b60405180910390f35b6102d4610a01565b005b6102de610a1e565b6040516102eb9190611bf2565b60405180910390f35b6102fc610a44565b005b610306610acc565b6040516103139190611ad6565b60405180910390f35b610324610ad2565b6040516103319190611ad6565b60405180910390f35b610342610ad8565b60405161034f9190611c28565b60405180910390f35b610360610aeb565b60405161036d9190611b00565b60405180910390f35b61037e610b14565b60405161038b9190611ad6565b60405180910390f35b6103ae60048036038101906103a99190611c6f565b610b1a565b005b6103ca60048036038101906103c59190611a90565b610fbd565b6040516103d79190611ad6565b60405180910390f35b6103e8610fd5565b6040516103f59190611ad6565b60405180910390f35b610406610fdd565b60405161041593929190611c9c565b60405180910390f35b61042661110b565b6040516104339190611ad6565b60405180910390f35b61045660048036038101906104519190611a90565b611113565b60405161046593929190611c9c565b60405180910390f35b61047661113d565b6040516104839190611ad6565b60405180910390f35b6104946111f1565b6040516104a19190611c28565b60405180910390f35b6104b26112bc565b005b6104bc611453565b6040516104c99190611ad6565b60405180910390f35b6104da611459565b6040516104e79190611cf4565b60405180910390f35b61050a60048036038101906105059190611a90565b61147f565b005b610514611577565b73ffffffffffffffffffffffffffffffffffffffff16610532610aeb565b73ffffffffffffffffffffffffffffffffffffffff1614610588576040517f08c379a000000000000000000000000000000000000000000000000000000000815260040161057f90611d6c565b60405180910390fd5b600073ffffffffffffffffffffffffffffffffffffffff16600260009054906101000a900473ffffffffffffffffffffffffffffffffffffffff1673ffffffffffffffffffffffffffffffffffffffff1614610619576040517f08c379a000000000000000000000000000000000000000000000000000000000815260040161061090611dd8565b60405180910390fd5b80600260006101000a81548173ffffffffffffffffffffffffffffffffffffffff021916908373ffffffffffffffffffffffffffffffffffffffff16021790555050565b6212750081565b61271081565b7f000000000000000000000000000000000000000000000000000000000000000081565b7f000000000000000000000000000000000000000000000000000000000000000081565b6109c481565b600260015414156106fe576040517f08c379a00000000000000000000000000000000000000000000000000000000081526004016106f590611e44565b60405180910390fd5b6002600181905550600860009054906101000a900460ff16610755576040517f08c379a000000000000000000000000000000000000000000000000000000000815260040161074c90611eb0565b60405180910390fd5b636216ca80421161079b576040517f08c379a000000000000000000000000000000000000000000000000000000000815260040161079290611f1c565b60405180910390fd5b600073ffffffffffffffffffffffffffffffffffffffff16600260009054906101000a900473ffffffffffffffffffffffffffffffffffffffff1673ffffffffffffffffffffffffffffffffffffffff16141561082d576040517f08c379a000000000000000000000000000000000000000000000000000000000815260040161082490611f88565b60405180910390fd5b600080610838610fdd565b92509250506000600a60003373ffffffffffffffffffffffffffffffffffffffff1673ffffffffffffffffffffffffffffffffffffffff1681526020019081526020016000209050600083146108c3576040517f08c379a00000000000000000000000000000000000000000000000000000000081526004016108ba90611ff4565b60405180910390fd5b60018160010181905550600260009054906101000a900473ffffffffffffffffffffffffffffffffffffffff1673ffffffffffffffffffffffffffffffffffffffff166340c10f1933846040518363ffffffff1660e01b815260040161092a929190612014565b602060405180830381600087803b15801561094457600080fd5b505af1158015610958573d6000803e3d6000fd5b505050506040513d601f19601f8201168201806040525081019061097c9190612069565b503373ffffffffffffffffffffffffffffffffffffffff167f577416e982a24935e58003a2bc88755d1018671696e08d0fc6ca1dd95e370a1d836040516109c39190611ad6565b60405180910390a250505060018081905550565b60075481565b7f000000000000000000000000000000000000000000000000000000000000000081565b6001600860006101000a81548160ff021916908315150217905550565b600860019054906101000a900473ffffffffffffffffffffffffffffffffffffffff1681565b610a4c611577565b73ffffffffffffffffffffffffffffffffffffffff16610a6a610aeb565b73ffffffffffffffffffffffffffffffffffffffff1614610ac0576040517f08c379a0000000000000000000000000000000000000000000000000000000008152600401610ab790611d6c565b60405180910390fd5b610aca600061157f565b565b60065481565b60055481565b600860009054906101000a900460ff1681565b60008060009054906101000a900473ffffffffffffffffffffffffffffffffffffffff16905090565b60045481565b60026001541415610b60576040517f08c379a0000000000000000000000000000000000000000000000000000000008152600401610b5790611e44565b60405180910390fd5b6002600181905550600860009054906101000a900460ff1615610bb8576040517f08c379a0000000000000000000000000000000000000000000000000000000008152600401610baf906120e2565b60405180910390fd5b6000610bd5670de0b6b3a76400008361164390919063ffffffff16565b14610c15576040517f08c379a0000000000000000000000000000000000000000000000000000000008152600401610c0c9061214e565b60405180910390fd5b68056bc75e2d63100000811015610c61576040517f08c379a0000000000000000000000000000000000000000000000000000000008152600401610c58906121ba565b60405180910390fd5b6000600860019054906101000a900473ffffffffffffffffffffffffffffffffffffffff1673ffffffffffffffffffffffffffffffffffffffff1663c4a717cf336040518263ffffffff1660e01b8152600401610cbe9190611b00565b60606040518083038186803b158015610cd657600080fd5b505afa158015610cea573d6000803e3d6000fd5b505050506040513d601f19601f82011682018060405250810190610d0e91906121ef565b505090506000600a60003373ffffffffffffffffffffffffffffffffffffffff1673ffffffffffffffffffffffffffffffffffffffff168152602001908152602001600020905069010f0cf064dd592000008311158015610da1575069010f0cf064dd59200000610d9e8260000154610d90858761165990919063ffffffff16565b61165990919063ffffffff16565b11155b610de0576040517f08c379a0000000000000000000000000000000000000000000000000000000008152600401610dd79061228e565b60405180910390fd5b6000610dea61113d565b90506006548110610e30576040517f08c379a0000000000000000000000000000000000000000000000000000000008152600401610e27906122fa565b60405180910390fd5b6000849050600654610e4b828461165990919063ffffffff16565b1115610e6957610e668260065461166f90919063ffffffff16565b90505b610eb63330837f000000000000000000000000000000000000000000000000000000000000000073ffffffffffffffffffffffffffffffffffffffff16611685909392919063ffffffff16565b610ef5610ee2600554610ed46004548561170e90919063ffffffff16565b61172490919063ffffffff16565b846002015461165990919063ffffffff16565b8360020181905550610f1481846000015461165990919063ffffffff16565b8360000181905550610f318160075461165990919063ffffffff16565b6007819055503373ffffffffffffffffffffffffffffffffffffffff167f96ea671ef97e3b0c25b75c51786366ec072e19ce8a92db8ee92004d88319a87d82610f99600554610f8b6004548761170e90919063ffffffff16565b61172490919063ffffffff16565b604051610fa792919061231a565b60405180910390a2505050506001808190555050565b60096020528060005260406000206000915090505481565b636212d60081565b6000806000806000600860019054906101000a900473ffffffffffffffffffffffffffffffffffffffff1673ffffffffffffffffffffffffffffffffffffffff1663c4a717cf336040518263ffffffff1660e01b81526004016110409190611b00565b60606040518083038186803b15801561105857600080fd5b505afa15801561106c573d6000803e3d6000fd5b505050506040513d601f19601f8201168201806040525081019061109091906121ef565b92505091506000600a60003373ffffffffffffffffffffffffffffffffffffffff1673ffffffffffffffffffffffffffffffffffffffff16815260200190815260200160002090508281600001546110e89190612372565b95508181600201546110fa9190612372565b945080600101549350505050909192565b636216ca8081565b600a6020528060005260406000206000915090508060000154908060010154908060020154905083565b6000600754600860019054906101000a900473ffffffffffffffffffffffffffffffffffffffff1673ffffffffffffffffffffffffffffffffffffffff1663c5c4744c6040518163ffffffff1660e01b815260040160206040518083038186803b1580156111aa57600080fd5b505afa1580156111be573d6000803e3d6000fd5b505050506040513d601f19601f820116820180604052508101906111e291906123c8565b6111ec9190612372565b905090565b6000807f000000000000000000000000000000000000000000000000000000000000000073ffffffffffffffffffffffffffffffffffffffff1663dc6e13e1336040518263ffffffff1660e01b815260040161124d9190611b00565b6101206040518083038186803b15801561126657600080fd5b505afa15801561127a573d6000803e3d6000fd5b505050506040513d601f19601f8201168201806040525081019061129e91906123f5565b5050505050505091505069021e19e0c9bab240000081101591505090565b6112c4611577565b73ffffffffffffffffffffffffffffffffffffffff166112e2610aeb565b73ffffffffffffffffffffffffffffffffffffffff1614611338576040517f08c379a000000000000000000000000000000000000000000000000000000000815260040161132f90611d6c565b60405180910390fd5b60007f000000000000000000000000000000000000000000000000000000000000000073ffffffffffffffffffffffffffffffffffffffff166370a08231306040518263ffffffff1660e01b81526004016113939190611b00565b60206040518083038186803b1580156113ab57600080fd5b505afa1580156113bf573d6000803e3d6000fd5b505050506040513d601f19601f820116820180604052508101906113e391906123c8565b90506114507f0000000000000000000000000000000000000000000000000000000000000000827f000000000000000000000000000000000000000000000000000000000000000073ffffffffffffffffffffffffffffffffffffffff1661173a9092919063ffffffff16565b50565b60035481565b600260009054906101000a900473ffffffffffffffffffffffffffffffffffffffff1681565b611487611577565b73ffffffffffffffffffffffffffffffffffffffff166114a5610aeb565b73ffffffffffffffffffffffffffffffffffffffff16146114fb576040517f08c379a00000000000000000000000000000000000000000000000000000000081526004016114f290611d6c565b60405180910390fd5b600073ffffffffffffffffffffffffffffffffffffffff168173ffffffffffffffffffffffffffffffffffffffff16141561156b576040517f08c379a000000000000000000000000000000000000000000000000000000000815260040161156290612531565b60405180910390fd5b6115748161157f565b50565b600033905090565b60008060009054906101000a900473ffffffffffffffffffffffffffffffffffffffff169050816000806101000a81548173ffffffffffffffffffffffffffffffffffffffff021916908373ffffffffffffffffffffffffffffffffffffffff1602179055508173ffffffffffffffffffffffffffffffffffffffff168173ffffffffffffffffffffffffffffffffffffffff167f8be0079c531659141344cd1fd0a4f28419497f9722a3daafe3b4186f6b6457e060405160405180910390a35050565b600081836116519190612580565b905092915050565b600081836116679190612372565b905092915050565b6000818361167d91906125b1565b905092915050565b611708846323b872dd60e01b8585856040516024016116a6939291906125e5565b604051602081830303815290604052907bffffffffffffffffffffffffffffffffffffffffffffffffffffffff19166020820180517bffffffffffffffffffffffffffffffffffffffffffffffffffffffff83818316178352505050506117c0565b50505050565b6000818361171c919061261c565b905092915050565b600081836117329190612676565b905092915050565b6117bb8363a9059cbb60e01b8484604051602401611759929190612014565b604051602081830303815290604052907bffffffffffffffffffffffffffffffffffffffffffffffffffffffff19166020820180517bffffffffffffffffffffffffffffffffffffffffffffffffffffffff83818316178352505050506117c0565b505050565b6000611822826040518060400160405280602081526020017f5361666545524332303a206c6f772d6c6576656c2063616c6c206661696c65648152508573ffffffffffffffffffffffffffffffffffffffff166118879092919063ffffffff16565b905060008151111561188257808060200190518101906118429190612069565b611881576040517f08c379a000000000000000000000000000000000000000000000000000000000815260040161187890612719565b60405180910390fd5b5b505050565b6060611896848460008561189f565b90509392505050565b6060824710156118e4576040517f08c379a00000000000000000000000000000000000000000000000000000000081526004016118db906127ab565b60405180910390fd5b6118ed856119b3565b61192c576040517f08c379a000000000000000000000000000000000000000000000000000000000815260040161192390612817565b60405180910390fd5b6000808673ffffffffffffffffffffffffffffffffffffffff16858760405161195591906128b1565b60006040518083038185875af1925050503d8060008114611992576040519150601f19603f3d011682016040523d82523d6000602084013e611997565b606091505b50915091506119a78282866119c6565b92505050949350505050565b600080823b905060008111915050919050565b606083156119d657829050611a26565b6000835111156119e95782518084602001fd5b816040517f08c379a0000000000000000000000000000000000000000000000000000000008152600401611a1d919061291d565b60405180910390fd5b9392505050565b600080fd5b600073ffffffffffffffffffffffffffffffffffffffff82169050919050565b6000611a5d82611a32565b9050919050565b611a6d81611a52565b8114611a7857600080fd5b50565b600081359050611a8a81611a64565b92915050565b600060208284031215611aa657611aa5611a2d565b5b6000611ab484828501611a7b565b91505092915050565b6000819050919050565b611ad081611abd565b82525050565b6000602082019050611aeb6000830184611ac7565b92915050565b611afa81611a52565b82525050565b6000602082019050611b156000830184611af1565b92915050565b6000819050919050565b6000611b40611b3b611b3684611a32565b611b1b565b611a32565b9050919050565b6000611b5282611b25565b9050919050565b6000611b6482611b47565b9050919050565b611b7481611b59565b82525050565b6000602082019050611b8f6000830184611b6b565b92915050565b6000611ba082611b47565b9050919050565b611bb081611b95565b82525050565b6000602082019050611bcb6000830184611ba7565b92915050565b6000611bdc82611b47565b9050919050565b611bec81611bd1565b82525050565b6000602082019050611c076000830184611be3565b92915050565b60008115159050919050565b611c2281611c0d565b82525050565b6000602082019050611c3d6000830184611c19565b92915050565b611c4c81611abd565b8114611c5757600080fd5b50565b600081359050611c6981611c43565b92915050565b600060208284031215611c8557611c84611a2d565b5b6000611c9384828501611c5a565b91505092915050565b6000606082019050611cb16000830186611ac7565b611cbe6020830185611ac7565b611ccb6040830184611ac7565b949350505050565b6000611cde82611b47565b9050919050565b611cee81611cd3565b82525050565b6000602082019050611d096000830184611ce5565b92915050565b600082825260208201905092915050565b7f4f776e61626c653a2063616c6c6572206973206e6f7420746865206f776e6572600082015250565b6000611d56602083611d0f565b9150611d6182611d20565b602082019050919050565b60006020820190508181036000830152611d8581611d49565b9050919050565b7f244e49434520616c726561647920736574000000000000000000000000000000600082015250565b6000611dc2601183611d0f565b9150611dcd82611d8c565b602082019050919050565b60006020820190508181036000830152611df181611db5565b9050919050565b7f5265656e7472616e637947756172643a207265656e7472616e742063616c6c00600082015250565b6000611e2e601f83611d0f565b9150611e3982611df8565b602082019050919050565b60006020820190508181036000830152611e5d81611e21565b9050919050565b7f53616c652052756e6e696e670000000000000000000000000000000000000000600082015250565b6000611e9a600c83611d0f565b9150611ea582611e64565b602082019050919050565b60006020820190508181036000830152611ec981611e8d565b9050919050565b7f436c61696d20556e617661696c61626c65000000000000000000000000000000600082015250565b6000611f06601183611d0f565b9150611f1182611ed0565b602082019050919050565b60006020820190508181036000830152611f3581611ef9565b9050919050565b7f546f6b656e204e6f742061646465640000000000000000000000000000000000600082015250565b6000611f72600f83611d0f565b9150611f7d82611f3c565b602082019050919050565b60006020820190508181036000830152611fa181611f65565b9050919050565b7f416c726561647920636c61696d65640000000000000000000000000000000000600082015250565b6000611fde600f83611d0f565b9150611fe982611fa8565b602082019050919050565b6000602082019050818103600083015261200d81611fd1565b9050919050565b60006040820190506120296000830185611af1565b6120366020830184611ac7565b9392505050565b61204681611c0d565b811461205157600080fd5b50565b6000815190506120638161203d565b92915050565b60006020828403121561207f5761207e611a2d565b5b600061208d84828501612054565b91505092915050565b7f50726573616c65204f7665720000000000000000000000000000000000000000600082015250565b60006120cc600c83611d0f565b91506120d782612096565b602082019050919050565b600060208201905081810360008301526120fb816120bf565b9050919050565b7f457861637420616d6f756e7473206f6e6c790000000000000000000000000000600082015250565b6000612138601283611d0f565b915061214382612102565b602082019050919050565b600060208201905081810360008301526121678161212b565b9050919050565b7f4d696e696d756d206e6f74206d65740000000000000000000000000000000000600082015250565b60006121a4600f83611d0f565b91506121af8261216e565b602082019050919050565b600060208201905081810360008301526121d381612197565b9050919050565b6000815190506121e981611c43565b92915050565b60008060006060848603121561220857612207611a2d565b5b6000612216868287016121da565b9350506020612227868287016121da565b9250506040612238868287016121da565b9150509250925092565b7f436170206f766572666c6f770000000000000000000000000000000000000000600082015250565b6000612278600c83611d0f565b915061228382612242565b602082019050919050565b600060208201905081810360008301526122a78161226b565b9050919050565b7f4c696d6974204578636565646564000000000000000000000000000000000000600082015250565b60006122e4600e83611d0f565b91506122ef826122ae565b602082019050919050565b60006020820190508181036000830152612313816122d7565b9050919050565b600060408201905061232f6000830185611ac7565b61233c6020830184611ac7565b9392505050565b7f4e487b7100000000000000000000000000000000000000000000000000000000600052601160045260246000fd5b600061237d82611abd565b915061238883611abd565b9250827fffffffffffffffffffffffffffffffffffffffffffffffffffffffffffffffff038211156123bd576123bc612343565b5b828201905092915050565b6000602082840312156123de576123dd611a2d565b5b60006123ec848285016121da565b91505092915050565b60008060008060008060008060006101208a8c03121561241857612417611a2d565b5b60006124268c828d016121da565b99505060206124378c828d016121da565b98505060406124488c828d016121da565b97505060606124598c828d016121da565b965050608061246a8c828d016121da565b95505060a061247b8c828d016121da565b94505060c061248c8c828d016121da565b93505060e061249d8c828d016121da565b9250506101006124af8c828d016121da565b9150509295985092959850929598565b7f4f776e61626c653a206e6577206f776e657220697320746865207a65726f206160008201527f6464726573730000000000000000000000000000000000000000000000000000602082015250565b600061251b602683611d0f565b9150612526826124bf565b604082019050919050565b6000602082019050818103600083015261254a8161250e565b9050919050565b7f4e487b7100000000000000000000000000000000000000000000000000000000600052601260045260246000fd5b600061258b82611abd565b915061259683611abd565b9250826125a6576125a5612551565b5b828206905092915050565b60006125bc82611abd565b91506125c783611abd565b9250828210156125da576125d9612343565b5b828203905092915050565b60006060820190506125fa6000830186611af1565b6126076020830185611af1565b6126146040830184611ac7565b949350505050565b600061262782611abd565b915061263283611abd565b9250817fffffffffffffffffffffffffffffffffffffffffffffffffffffffffffffffff048311821515161561266b5761266a612343565b5b828202905092915050565b600061268182611abd565b915061268c83611abd565b92508261269c5761269b612551565b5b828204905092915050565b7f5361666545524332303a204552433230206f7065726174696f6e20646964206e60008201527f6f74207375636365656400000000000000000000000000000000000000000000602082015250565b6000612703602a83611d0f565b915061270e826126a7565b604082019050919050565b60006020820190508181036000830152612732816126f6565b9050919050565b7f416464726573733a20696e73756666696369656e742062616c616e636520666f60008201527f722063616c6c0000000000000000000000000000000000000000000000000000602082015250565b6000612795602683611d0f565b91506127a082612739565b604082019050919050565b600060208201905081810360008301526127c481612788565b9050919050565b7f416464726573733a2063616c6c20746f206e6f6e2d636f6e7472616374000000600082015250565b6000612801601d83611d0f565b915061280c826127cb565b602082019050919050565b60006020820190508181036000830152612830816127f4565b9050919050565b600081519050919050565b600081905092915050565b60005b8381101561286b578082015181840152602081019050612850565b8381111561287a576000848401525b50505050565b600061288b82612837565b6128958185612842565b93506128a581856020860161284d565b80840191505092915050565b60006128bd8284612880565b915081905092915050565b600081519050919050565b6000601f19601f8301169050919050565b60006128ef826128c8565b6128f98185611d0f565b935061290981856020860161284d565b612912816128d3565b840191505092915050565b6000602082019050818103600083015261293781846128e4565b90509291505056fea26469706673582212206bd67f6ddc98ab445919040682cab414e744543ac29ce227911a3ef964953c8d64736f6c63430008090033",
  "immutableReferences": {
    "735": [
      {
        "length": 32,
        "start": 2527
      },
      {
        "length": 32,
        "start": 4598
      }
    ],
    "741": [
      {
        "length": 32,
        "start": 1680
      },
      {
        "length": 32,
        "start": 3697
      },
      {
        "length": 32,
        "start": 4924
      },
      {
        "length": 32,
        "start": 5132
      }
    ],
    "762": [
      {
        "length": 32,
        "start": 1644
      },
      {
        "length": 32,
        "start": 5098
      }
    ]
  },
  "source": "// SPDX-License-Identifier: MIT\npragma solidity 0.8.9;\n\nimport \"@openzeppelin/contracts/access/Ownable.sol\";\nimport \"@openzeppelin/contracts/utils/math/SafeMath.sol\";\nimport \"@openzeppelin/contracts/token/ERC721/ERC721.sol\";\nimport \"@openzeppelin/contracts/token/ERC20/ERC20.sol\";\nimport \"@openzeppelin/contracts/token/ERC20/utils/SafeERC20.sol\";\nimport \"@openzeppelin/contracts/security/ReentrancyGuard.sol\";\nimport \"./NICEToken.sol\";\n// TEST\nimport \"./TestStaking2.sol\";\nimport \"./PrevSale.sol\";\n\ncontract Presale is Ownable, ReentrancyGuard {\n\n  using SafeMath for uint;\n  using SafeERC20 for ERC20;\n\n  uint public constant DIVISOR = 10000;\n\n  struct Buy { \n    uint amountBought;\n    uint amountClaimed;\n    uint amountOwed;\n  }\n\n  uint public constant saleStart = 1645401600;\n  uint public constant saleEnd = 1645660800;\n  uint public constant vestingDuration = 2 weeks;\n  StakingTest public immutable staking;\n  NICEToken public niceToken;\n  ERC20 public immutable busd;\n  uint public totalSale = 26595745 ether;\n  uint public constant vesting = 2500;\n  uint public priceDec = 10000;\n  uint public pricePerToken = 47;\n  uint public maxRaise =  125000 ether;\n  uint public currentRaised;\n  bool public pause;\n\n  address public immutable devAddress;\n\n  PrevSale public prevSale;\n\n  mapping(address => uint) public whitelist;\n  mapping(address => Buy) public userBought;\n\n  // EVENTS\n  event WhitelistStarted(bool status);\n  event SaleStarts(uint startBlock);\n  event NiceBought(address indexed buyer, uint busd, uint nice);\n  event NiceClaimed( address indexed buyer, uint amount);\n  event LogEvent(uint data1, string data2);\n\n  constructor( address _prevSale){\n    prevSale = PrevSale(_prevSale);\n    staking = prevSale.staking();\n    busd = prevSale.busd();\n    devAddress = 0xADdb2B59d1B782e8392Ee03d7E2cEaA240e7f1c0;\n    pause = false;\n  }\n  /// @notice pause the presale\n  function pauseSale() external {\n    pause = true;\n  }\n  /// @notice qualify only checks quantity\n  /// @dev qualify is an overlook of the amount of CrushGod NFTs held and tokens staked\n  function qualify() public view returns(bool _isQualified){\n      (,uint staked,,,,,,,) = staking.stakings(msg.sender);\n      _isQualified = staked >= 10000 ether;\n  }\n\n  function setNiceToken(address _tokenAddress) onlyOwner external {\n    require(address(niceToken) == address(0), \"$NICE already set\");\n    niceToken = NICEToken(_tokenAddress);\n  }\n  /// @notice get the total Raised amount\n  function totalRaised() public view returns(uint _total){\n    _total = prevSale.totalRaised() + currentRaised;\n  }\n  /// @notice User info\n  function userData() public view returns(uint _totalBought, uint _totalOwed, uint _totalClaimed){\n    (uint prevBuy,,uint prevOwed) = prevSale.userBought(msg.sender);\n    Buy storage userInfo = userBought[msg.sender];\n    _totalBought = userInfo.amountBought + prevBuy;\n    _totalOwed = userInfo.amountOwed + prevOwed;\n    _totalClaimed = userInfo.amountClaimed;\n\n  }\n  /// @notice Reserve NICE allocation with BUSD\n  /// @param _amount Amount of BUSD to lock NICE amount\n  /// @dev minimum of $100 BUSD, max of $5K BUSD\n  /// @dev if maxRaise is exceeded we will allocate just a portion of that amount.\n  function buyNice(uint _amount) external nonReentrant{\n    require(!pause, \"Presale Over\");\n    require(_amount.mod(1 ether) == 0, \"Exact amounts only\");\n    require(_amount >= 100 ether, \"Minimum not met\");\n    (uint prevBought, , ) = prevSale.userBought(msg.sender);\n    Buy storage userInfo = userBought[msg.sender];\n    require(_amount <= 5000 ether && _amount.add(prevBought).add(userInfo.amountBought) <= 5000 ether, \"Cap overflow\");\n    uint totalRaise = totalRaised();\n    require(totalRaise < maxRaise, \"Limit Exceeded\");\n    uint amount = _amount;\n    // When exceeding, send the rest to the user\n    if(totalRaise.add(amount) > maxRaise){\n      amount = maxRaise.sub(totalRaise);\n    }\n\n    busd.safeTransferFrom(msg.sender, address(this), amount);\n    userInfo.amountOwed = userInfo.amountOwed.add( amount.mul(priceDec).div(pricePerToken) );\n    userInfo.amountBought = userInfo.amountBought.add( amount );\n    currentRaised = currentRaised.add(amount);\n\n    emit NiceBought(msg.sender, amount, amount.mul(priceDec).div(pricePerToken));\n  }\n  /// \n  function claimRaised() external onlyOwner{\n    uint currentBalance = busd.balanceOf(address(this));\n    busd.safeTransfer(devAddress, currentBalance);\n  }\n  /// @notice function that gets available tokens to the user.\n  /// @dev transfers NICE to the user directly by minting straight to their wallets\n  function claimTokens() external nonReentrant{\n    require(pause, \"Sale Running\");\n    require(block.timestamp > saleEnd, \"Claim Unavailable\");\n    require( address(niceToken) != address(0), \"Token Not added\");\n    (, uint claimed, uint owed) = userData();\n    Buy storage userInfo = userBought[msg.sender];\n    require( claimed == 0 , \"Already claimed\");\n    userInfo.amountClaimed = 1;\n    niceToken.mint(msg.sender,owed);\n    emit NiceClaimed(msg.sender, owed);\n  }\n}",
  "sourcePath": "/Users/ant/crypto/crush_contracts/contracts/Presale.sol",
  "compiler": {
    "name": "solc",
    "version": "0.8.9+commit.e5eed63a.Emscripten.clang"
  },
  "schemaVersion": "3.3.4",
  "updatedAt": "2022-02-22T09:28:58.931Z",
  "networkType": "ethereum",
  "devdoc": {
    "kind": "dev",
    "methods": {
      "buyNice(uint256)": {
        "details": "minimum of $100 BUSD, max of $5K BUSDif maxRaise is exceeded we will allocate just a portion of that amount.",
        "params": {
          "_amount": "Amount of BUSD to lock NICE amount"
        }
      },
      "claimTokens()": {
        "details": "transfers NICE to the user directly by minting straight to their wallets"
      },
      "owner()": {
        "details": "Returns the address of the current owner."
      },
      "qualify()": {
        "details": "qualify is an overlook of the amount of CrushGod NFTs held and tokens staked"
      },
      "renounceOwnership()": {
        "details": "Leaves the contract without owner. It will not be possible to call `onlyOwner` functions anymore. Can only be called by the current owner. NOTE: Renouncing ownership will leave the contract without an owner, thereby removing any functionality that is only available to the owner."
      },
      "transferOwnership(address)": {
        "details": "Transfers ownership of the contract to a new account (`newOwner`). Can only be called by the current owner."
      }
    },
    "version": 1
  },
  "userdoc": {
    "kind": "user",
    "methods": {
      "buyNice(uint256)": {
        "notice": "Reserve NICE allocation with BUSD"
      },
      "claimTokens()": {
        "notice": "function that gets available tokens to the user."
      },
      "pauseSale()": {
        "notice": "pause the presale"
      },
      "qualify()": {
        "notice": "qualify only checks quantity"
      },
      "totalRaised()": {
        "notice": "get the total Raised amount"
      },
      "userData()": {
        "notice": "User info"
      }
    },
    "version": 1
  }
}