{
  "contractName": "Presale",
  "abi": [
    {
      "inputs": [
        {
          "internalType": "address",
          "name": "crushGodNft",
          "type": "address"
        },
        {
          "internalType": "address",
          "name": "stakingV2",
          "type": "address"
        },
        {
          "internalType": "address",
          "name": "_busd",
          "type": "address"
        }
      ],
      "stateMutability": "nonpayable",
      "type": "constructor"
    },
    {
      "anonymous": false,
      "inputs": [
        {
          "indexed": false,
          "internalType": "uint256",
          "name": "data1",
          "type": "uint256"
        },
        {
          "indexed": false,
          "internalType": "string",
          "name": "data2",
          "type": "string"
        }
      ],
      "name": "LogEvent",
      "type": "event"
    },
    {
      "anonymous": false,
      "inputs": [
        {
          "indexed": true,
          "internalType": "address",
          "name": "buyer",
          "type": "address"
        },
        {
          "indexed": false,
          "internalType": "uint256",
          "name": "busd",
          "type": "uint256"
        },
        {
          "indexed": false,
          "internalType": "uint256",
          "name": "nice",
          "type": "uint256"
        }
      ],
      "name": "NiceBought",
      "type": "event"
    },
    {
      "anonymous": false,
      "inputs": [
        {
          "indexed": true,
          "internalType": "address",
          "name": "buyer",
          "type": "address"
        },
        {
          "indexed": false,
          "internalType": "uint256",
          "name": "amount",
          "type": "uint256"
        }
      ],
      "name": "NiceClaimed",
      "type": "event"
    },
    {
      "anonymous": false,
      "inputs": [
        {
          "indexed": true,
          "internalType": "address",
          "name": "previousOwner",
          "type": "address"
        },
        {
          "indexed": true,
          "internalType": "address",
          "name": "newOwner",
          "type": "address"
        }
      ],
      "name": "OwnershipTransferred",
      "type": "event"
    },
    {
      "anonymous": false,
      "inputs": [
        {
          "indexed": false,
          "internalType": "uint256",
          "name": "startBlock",
          "type": "uint256"
        }
      ],
      "name": "SaleStarts",
      "type": "event"
    },
    {
      "anonymous": false,
      "inputs": [
        {
          "indexed": false,
          "internalType": "bool",
          "name": "status",
          "type": "bool"
        }
      ],
      "name": "WhitelistStarted",
      "type": "event"
    },
    {
      "inputs": [],
      "name": "DIVISOR",
      "outputs": [
        {
          "internalType": "uint256",
          "name": "",
          "type": "uint256"
        }
      ],
      "stateMutability": "view",
      "type": "function",
      "constant": true
    },
    {
      "inputs": [],
      "name": "busd",
      "outputs": [
        {
          "internalType": "contract ERC20",
          "name": "",
          "type": "address"
        }
      ],
      "stateMutability": "view",
      "type": "function",
      "constant": true
    },
    {
      "inputs": [],
      "name": "crushGod",
      "outputs": [
        {
          "internalType": "contract ERC721",
          "name": "",
          "type": "address"
        }
      ],
      "stateMutability": "view",
      "type": "function",
      "constant": true
    },
    {
      "inputs": [],
      "name": "devAddress",
      "outputs": [
        {
          "internalType": "address",
          "name": "",
          "type": "address"
        }
      ],
      "stateMutability": "view",
      "type": "function",
      "constant": true
    },
    {
      "inputs": [],
      "name": "maxRaise",
      "outputs": [
        {
          "internalType": "uint256",
          "name": "",
          "type": "uint256"
        }
      ],
      "stateMutability": "view",
      "type": "function",
      "constant": true
    },
    {
      "inputs": [],
      "name": "niceToken",
      "outputs": [
        {
          "internalType": "contract NICEToken",
          "name": "",
          "type": "address"
        }
      ],
      "stateMutability": "view",
      "type": "function",
      "constant": true
    },
    {
      "inputs": [],
      "name": "owner",
      "outputs": [
        {
          "internalType": "address",
          "name": "",
          "type": "address"
        }
      ],
      "stateMutability": "view",
      "type": "function",
      "constant": true
    },
    {
      "inputs": [],
      "name": "priceDec",
      "outputs": [
        {
          "internalType": "uint256",
          "name": "",
          "type": "uint256"
        }
      ],
      "stateMutability": "view",
      "type": "function",
      "constant": true
    },
    {
      "inputs": [],
      "name": "pricePerToken",
      "outputs": [
        {
          "internalType": "uint256",
          "name": "",
          "type": "uint256"
        }
      ],
      "stateMutability": "view",
      "type": "function",
      "constant": true
    },
    {
      "inputs": [],
      "name": "renounceOwnership",
      "outputs": [],
      "stateMutability": "nonpayable",
      "type": "function"
    },
    {
      "inputs": [],
      "name": "saleDuration",
      "outputs": [
        {
          "internalType": "uint256",
          "name": "",
          "type": "uint256"
        }
      ],
      "stateMutability": "view",
      "type": "function",
      "constant": true
    },
    {
      "inputs": [],
      "name": "saleEnd",
      "outputs": [
        {
          "internalType": "uint256",
          "name": "",
          "type": "uint256"
        }
      ],
      "stateMutability": "view",
      "type": "function",
      "constant": true
    },
    {
      "inputs": [],
      "name": "saleStart",
      "outputs": [
        {
          "internalType": "uint256",
          "name": "",
          "type": "uint256"
        }
      ],
      "stateMutability": "view",
      "type": "function",
      "constant": true
    },
    {
      "inputs": [],
      "name": "staking",
      "outputs": [
        {
          "internalType": "contract StakingTest",
          "name": "",
          "type": "address"
        }
      ],
      "stateMutability": "view",
      "type": "function",
      "constant": true
    },
    {
      "inputs": [],
      "name": "totalRaised",
      "outputs": [
        {
          "internalType": "uint256",
          "name": "",
          "type": "uint256"
        }
      ],
      "stateMutability": "view",
      "type": "function",
      "constant": true
    },
    {
      "inputs": [],
      "name": "totalSale",
      "outputs": [
        {
          "internalType": "uint256",
          "name": "",
          "type": "uint256"
        }
      ],
      "stateMutability": "view",
      "type": "function",
      "constant": true
    },
    {
      "inputs": [
        {
          "internalType": "address",
          "name": "newOwner",
          "type": "address"
        }
      ],
      "name": "transferOwnership",
      "outputs": [],
      "stateMutability": "nonpayable",
      "type": "function"
    },
    {
      "inputs": [
        {
          "internalType": "uint256",
          "name": "",
          "type": "uint256"
        }
      ],
      "name": "usedTokens",
      "outputs": [
        {
          "internalType": "address",
          "name": "",
          "type": "address"
        }
      ],
      "stateMutability": "view",
      "type": "function",
      "constant": true
    },
    {
      "inputs": [
        {
          "internalType": "address",
          "name": "",
          "type": "address"
        }
      ],
      "name": "userBought",
      "outputs": [
        {
          "internalType": "uint256",
          "name": "amountBought",
          "type": "uint256"
        },
        {
          "internalType": "uint256",
          "name": "amountClaimed",
          "type": "uint256"
        },
        {
          "internalType": "uint256",
          "name": "amountOwed",
          "type": "uint256"
        }
      ],
      "stateMutability": "view",
      "type": "function",
      "constant": true
    },
    {
      "inputs": [],
      "name": "vesting",
      "outputs": [
        {
          "internalType": "uint256",
          "name": "",
          "type": "uint256"
        }
      ],
      "stateMutability": "view",
      "type": "function",
      "constant": true
    },
    {
      "inputs": [],
      "name": "vestingDuration",
      "outputs": [
        {
          "internalType": "uint256",
          "name": "",
          "type": "uint256"
        }
      ],
      "stateMutability": "view",
      "type": "function",
      "constant": true
    },
    {
      "inputs": [
        {
          "internalType": "address",
          "name": "",
          "type": "address"
        }
      ],
      "name": "whitelist",
      "outputs": [
        {
          "internalType": "uint256",
          "name": "",
          "type": "uint256"
        }
      ],
      "stateMutability": "view",
      "type": "function",
      "constant": true
    },
    {
      "inputs": [],
      "name": "whitelistStart",
      "outputs": [
        {
          "internalType": "uint256",
          "name": "",
          "type": "uint256"
        }
      ],
      "stateMutability": "view",
      "type": "function",
      "constant": true
    },
    {
      "inputs": [],
      "name": "startSale",
      "outputs": [],
      "stateMutability": "nonpayable",
      "type": "function"
    },
    {
      "inputs": [],
      "name": "qualify",
      "outputs": [
        {
          "internalType": "bool",
          "name": "_isQualified",
          "type": "bool"
        }
      ],
      "stateMutability": "view",
      "type": "function",
      "constant": true
    },
    {
      "inputs": [
        {
          "internalType": "uint256",
          "name": "tokenId",
          "type": "uint256"
        }
      ],
      "name": "whitelistSelf",
      "outputs": [],
      "stateMutability": "nonpayable",
      "type": "function"
    },
    {
      "inputs": [
        {
          "internalType": "address",
          "name": "_tokenAddress",
          "type": "address"
        }
      ],
      "name": "setNiceToken",
      "outputs": [],
      "stateMutability": "nonpayable",
      "type": "function"
    },
    {
      "inputs": [
        {
          "internalType": "uint256",
          "name": "_amount",
          "type": "uint256"
        }
      ],
      "name": "buyNice",
      "outputs": [],
      "stateMutability": "nonpayable",
      "type": "function"
    },
    {
      "inputs": [],
      "name": "claimRaised",
      "outputs": [],
      "stateMutability": "nonpayable",
      "type": "function"
    },
    {
      "inputs": [],
      "name": "claimTokens",
      "outputs": [],
      "stateMutability": "nonpayable",
      "type": "function"
    },
    {
      "inputs": [],
      "name": "availableAmount",
      "outputs": [
        {
          "internalType": "uint256",
          "name": "_avail",
          "type": "uint256"
        }
      ],
      "stateMutability": "view",
      "type": "function",
      "constant": true
    }
  ],
  "bytecode": "0x60e06040526a15ffde39b363d8e9e40000600555612710600655602f600755691a784379d99db42000006008553480156200003957600080fd5b50604051620033663803806200336683398181016040528101906200005f91906200029b565b6200007f620000736200016560201b60201c565b6200016d60201b60201c565b8273ffffffffffffffffffffffffffffffffffffffff1660a08173ffffffffffffffffffffffffffffffffffffffff16815250508173ffffffffffffffffffffffffffffffffffffffff1660808173ffffffffffffffffffffffffffffffffffffffff16815250508073ffffffffffffffffffffffffffffffffffffffff1660c08173ffffffffffffffffffffffffffffffffffffffff168152505033600a60006101000a81548173ffffffffffffffffffffffffffffffffffffffff021916908373ffffffffffffffffffffffffffffffffffffffff160217905550505050620002f7565b600033905090565b60008060009054906101000a900473ffffffffffffffffffffffffffffffffffffffff169050816000806101000a81548173ffffffffffffffffffffffffffffffffffffffff021916908373ffffffffffffffffffffffffffffffffffffffff1602179055508173ffffffffffffffffffffffffffffffffffffffff168173ffffffffffffffffffffffffffffffffffffffff167f8be0079c531659141344cd1fd0a4f28419497f9722a3daafe3b4186f6b6457e060405160405180910390a35050565b600080fd5b600073ffffffffffffffffffffffffffffffffffffffff82169050919050565b6000620002638262000236565b9050919050565b620002758162000256565b81146200028157600080fd5b50565b60008151905062000295816200026a565b92915050565b600080600060608486031215620002b757620002b662000231565b5b6000620002c78682870162000284565b9350506020620002da8682870162000284565b9250506040620002ed8682870162000284565b9150509250925092565b60805160a05160c051613015620003516000396000818161072b01528181610d9a0152818161149f015261157101526000818161074f0152818161130301526118aa015260008181610a6e015261125201526130156000f3fe608060405234801561001057600080fd5b50600436106101e55760003560e01c8063914338831161010f578063c4a717cf116100a2578063ea4ce23911610071578063ea4ce239146104f8578063eb04c9d714610516578063f2fde38b14610534578063f78213e314610550576101e5565b8063c4a717cf14610480578063c5c4744c146104b2578063d862bcf5146104d0578063e52a7e24146104ee576101e5565b80639b19251a116100de5780639b19251a1461040a578063ab0bcc411461043a578063b66a0e5d14610458578063c10b935814610462576101e5565b806391433883146103945780639181951b146103b257806391f7cfb9146103ce578063994d3969146103ec576101e5565b80633df62df011610187578063715018a611610156578063715018a614610330578063719ec6b11461033a5780637b1b1de6146103585780638da5cb5b14610376576101e5565b80633df62df0146102cc57806344c63eec146102ea57806348c54b9d146103085780634cf088d914610312576101e5565b80633410fe6e116101c35780633410fe6e146102545780633711d9fb146102725780633ad10ef6146102905780633ca5b234146102ae576101e5565b8063055ef013146101ea5780630f7ee879146102065780631514617e14610236575b600080fd5b61020460048036038101906101ff9190611f08565b61056c565b005b610220600480360381019061021b9190611f6b565b6106bd565b60405161022d9190611fa7565b60405180910390f35b61023e6106f0565b60405161024b9190611fd1565b60405180910390f35b61025c6106f7565b6040516102699190611fd1565b60405180910390f35b61027a6106fd565b6040516102879190611fd1565b60405180910390f35b610298610703565b6040516102a59190611fa7565b60405180910390f35b6102b6610729565b6040516102c3919061204b565b60405180910390f35b6102d461074d565b6040516102e19190612087565b60405180910390f35b6102f2610771565b6040516102ff9190611fd1565b60405180910390f35b610310610777565b005b61031a610a6c565b60405161032791906120c3565b60405180910390f35b610338610a90565b005b610342610b18565b60405161034f9190611fd1565b60405180910390f35b610360610b1e565b60405161036d9190611fd1565b60405180910390f35b61037e610b24565b60405161038b9190611fa7565b60405180910390f35b61039c610b4d565b6040516103a99190611fd1565b60405180910390f35b6103cc60048036038101906103c79190611f6b565b610b53565b005b6103d6610f20565b6040516103e39190611fd1565b60405180910390f35b6103f4611052565b6040516104019190611fd1565b60405180910390f35b610424600480360381019061041f9190611f08565b611058565b6040516104319190611fd1565b60405180910390f35b610442611070565b60405161044f9190611fd1565b60405180910390f35b610460611076565b005b61046a611217565b6040516104779190611fd1565b60405180910390f35b61049a60048036038101906104959190611f08565b61121d565b6040516104a9939291906120de565b60405180910390f35b6104ba611247565b6040516104c79190611fd1565b60405180910390f35b6104d861124d565b6040516104e59190612130565b60405180910390f35b6104f66113cd565b005b6105006115b8565b60405161050d9190611fd1565b60405180910390f35b61051e6115be565b60405161052b919061216c565b60405180910390f35b61054e60048036038101906105499190611f08565b6115e4565b005b61056a60048036038101906105659190611f6b565b6116dc565b005b6105746119ef565b73ffffffffffffffffffffffffffffffffffffffff16610592610b24565b73ffffffffffffffffffffffffffffffffffffffff16146105e8576040517f08c379a00000000000000000000000000000000000000000000000000000000081526004016105df906121e4565b60405180910390fd5b600073ffffffffffffffffffffffffffffffffffffffff16600460009054906101000a900473ffffffffffffffffffffffffffffffffffffffff1673ffffffffffffffffffffffffffffffffffffffff1614610679576040517f08c379a000000000000000000000000000000000000000000000000000000000815260040161067090612250565b60405180910390fd5b80600460006101000a81548173ffffffffffffffffffffffffffffffffffffffff021916908373ffffffffffffffffffffffffffffffffffffffff16021790555050565b600c6020528060005260406000206000915054906101000a900473ffffffffffffffffffffffffffffffffffffffff1681565b6212750081565b61271081565b61a8c081565b600a60009054906101000a900473ffffffffffffffffffffffffffffffffffffffff1681565b7f000000000000000000000000000000000000000000000000000000000000000081565b7f000000000000000000000000000000000000000000000000000000000000000081565b6109c481565b6000600d60003373ffffffffffffffffffffffffffffffffffffffff1673ffffffffffffffffffffffffffffffffffffffff168152602001908152602001600020905060006003541180156107e257506107df621275006003546119f790919063ffffffff16565b42115b610821576040517f08c379a0000000000000000000000000000000000000000000000000000000008152600401610818906122bc565b60405180910390fd5b600073ffffffffffffffffffffffffffffffffffffffff16600460009054906101000a900473ffffffffffffffffffffffffffffffffffffffff1673ffffffffffffffffffffffffffffffffffffffff1614156108b3576040517f08c379a00000000000000000000000000000000000000000000000000000000081526004016108aa90612328565b60405180910390fd5b60006108bd610f20565b905080826001015410610905576040517f08c379a00000000000000000000000000000000000000000000000000000000081526004016108fc90612394565b60405180910390fd5b61091c826001015482611a0d90919063ffffffff16565b90506109358183600101546119f790919063ffffffff16565b826001018190555061096861271061095a838560020154611a2390919063ffffffff16565b611a3990919063ffffffff16565b9050600460009054906101000a900473ffffffffffffffffffffffffffffffffffffffff1673ffffffffffffffffffffffffffffffffffffffff166340c10f1933836040518363ffffffff1660e01b81526004016109c79291906123b4565b602060405180830381600087803b1580156109e157600080fd5b505af11580156109f5573d6000803e3d6000fd5b505050506040513d601f19601f82011682018060405250810190610a199190612409565b503373ffffffffffffffffffffffffffffffffffffffff167f577416e982a24935e58003a2bc88755d1018671696e08d0fc6ca1dd95e370a1d82604051610a609190611fd1565b60405180910390a25050565b7f000000000000000000000000000000000000000000000000000000000000000081565b610a986119ef565b73ffffffffffffffffffffffffffffffffffffffff16610ab6610b24565b73ffffffffffffffffffffffffffffffffffffffff1614610b0c576040517f08c379a0000000000000000000000000000000000000000000000000000000008152600401610b03906121e4565b60405180910390fd5b610b166000611a4f565b565b60085481565b60075481565b60008060009054906101000a900473ffffffffffffffffffffffffffffffffffffffff16905090565b60065481565b6000610b70670de0b6b3a764000083611b1390919063ffffffff16565b14610bb0576040517f08c379a0000000000000000000000000000000000000000000000000000000008152600401610ba790612482565b60405180910390fd5b6000600b60003373ffffffffffffffffffffffffffffffffffffffff1673ffffffffffffffffffffffffffffffffffffffff1681526020019081526020016000205411610c32576040517f08c379a0000000000000000000000000000000000000000000000000000000008152600401610c29906124ee565b60405180910390fd5b6003544210610c76576040517f08c379a0000000000000000000000000000000000000000000000000000000008152600401610c6d9061255a565b60405180910390fd5b68056bc75e2d63100000811015610cc2576040517f08c379a0000000000000000000000000000000000000000000000000000000008152600401610cb9906125c6565b60405180910390fd5b69010f0cf064dd59200000811115610d0f576040517f08c379a0000000000000000000000000000000000000000000000000000000008152600401610d0690612632565b60405180910390fd5b60085460095410610d55576040517f08c379a0000000000000000000000000000000000000000000000000000000008152600401610d4c9061269e565b60405180910390fd5b6000819050600854610d72826009546119f790919063ffffffff16565b1115610d9257610d8f600954600854611a0d90919063ffffffff16565b90505b610ddf3330837f000000000000000000000000000000000000000000000000000000000000000073ffffffffffffffffffffffffffffffffffffffff16611b29909392919063ffffffff16565b6000600d60003373ffffffffffffffffffffffffffffffffffffffff1673ffffffffffffffffffffffffffffffffffffffff1681526020019081526020016000209050610e61610e4e600754610e4060065486611a2390919063ffffffff16565b611a3990919063ffffffff16565b82600201546119f790919063ffffffff16565b8160020181905550610e808282600001546119f790919063ffffffff16565b8160000181905550610e9d826009546119f790919063ffffffff16565b6009819055503373ffffffffffffffffffffffffffffffffffffffff167f96ea671ef97e3b0c25b75c51786366ec072e19ce8a92db8ee92004d88319a87d83610f05600754610ef760065488611a2390919063ffffffff16565b611a3990919063ffffffff16565b604051610f139291906126be565b60405180910390a2505050565b600080600354118015610f34575060035442115b1561104f57610f51621275006003546119f790919063ffffffff16565b421115610f7057610f6d6109c4826119f790919063ffffffff16565b90505b610f9b610f8a600262127500611a2390919063ffffffff16565b6003546119f790919063ffffffff16565b421115610fba57610fb76109c4826119f790919063ffffffff16565b90505b610fe5610fd4600362127500611a2390919063ffffffff16565b6003546119f790919063ffffffff16565b421115611004576110016109c4826119f790919063ffffffff16565b90505b61102f61101e600462127500611a2390919063ffffffff16565b6003546119f790919063ffffffff16565b42111561104e5761104b6109c4826119f790919063ffffffff16565b90505b5b90565b60025481565b600b6020528060005260406000206000915090505481565b60015481565b61107e6119ef565b73ffffffffffffffffffffffffffffffffffffffff1661109c610b24565b73ffffffffffffffffffffffffffffffffffffffff16146110f2576040517f08c379a00000000000000000000000000000000000000000000000000000000081526004016110e9906121e4565b60405180910390fd5b600060015414801561110657506000600354145b801561111457506000600254145b611153576040517f08c379a000000000000000000000000000000000000000000000000000000000815260040161114a90612733565b60405180910390fd5b4260028190555061116f610708426119f790919063ffffffff16565b60018190555061119e61070861119061a8c0426119f790919063ffffffff16565b6119f790919063ffffffff16565b6003819055507fce5a4556f311398d28702eb84a83744b938f0ff43bd54845ad761ba2002dfa7e6001546040516111d59190611fd1565b60405180910390a17f664edda69ea60c332d2955c010663afe61adf550e90a627eab34d4b63050446d600160405161120d9190612130565b60405180910390a1565b60035481565b600d6020528060005260406000206000915090508060000154908060010154908060020154905083565b60095481565b6000807f000000000000000000000000000000000000000000000000000000000000000073ffffffffffffffffffffffffffffffffffffffff1663dc6e13e1336040518263ffffffff1660e01b81526004016112a99190611fa7565b60a06040518083038186803b1580156112c157600080fd5b505afa1580156112d5573d6000803e3d6000fd5b505050506040513d601f19601f820116820180604052508101906112f99190612768565b50505050905060007f000000000000000000000000000000000000000000000000000000000000000073ffffffffffffffffffffffffffffffffffffffff166370a08231336040518263ffffffff1660e01b815260040161135a9190611fa7565b60206040518083038186803b15801561137257600080fd5b505afa158015611386573d6000803e3d6000fd5b505050506040513d601f19601f820116820180604052508101906113aa91906127e3565b90506000811180156113c6575069021e19e0c9bab24000008210155b9250505090565b6113d56119ef565b73ffffffffffffffffffffffffffffffffffffffff166113f3610b24565b73ffffffffffffffffffffffffffffffffffffffff1614611449576040517f08c379a0000000000000000000000000000000000000000000000000000000008152600401611440906121e4565b60405180910390fd5b600060035411801561145c575042600354105b61149b576040517f08c379a00000000000000000000000000000000000000000000000000000000081526004016114929061285c565b60405180910390fd5b60007f000000000000000000000000000000000000000000000000000000000000000073ffffffffffffffffffffffffffffffffffffffff166370a08231306040518263ffffffff1660e01b81526004016114f69190611fa7565b60206040518083038186803b15801561150e57600080fd5b505afa158015611522573d6000803e3d6000fd5b505050506040513d601f19601f8201168201806040525081019061154691906127e3565b90506115b5600a60009054906101000a900473ffffffffffffffffffffffffffffffffffffffff16827f000000000000000000000000000000000000000000000000000000000000000073ffffffffffffffffffffffffffffffffffffffff16611bb29092919063ffffffff16565b50565b60055481565b600460009054906101000a900473ffffffffffffffffffffffffffffffffffffffff1681565b6115ec6119ef565b73ffffffffffffffffffffffffffffffffffffffff1661160a610b24565b73ffffffffffffffffffffffffffffffffffffffff1614611660576040517f08c379a0000000000000000000000000000000000000000000000000000000008152600401611657906121e4565b60405180910390fd5b600073ffffffffffffffffffffffffffffffffffffffff168173ffffffffffffffffffffffffffffffffffffffff1614156116d0576040517f08c379a00000000000000000000000000000000000000000000000000000000081526004016116c7906128ee565b60405180910390fd5b6116d981611a4f565b50565b600060025411611721576040517f08c379a00000000000000000000000000000000000000000000000000000000081526004016117189061295a565b60405180910390fd5b600061172b61124d565b90508061176d576040517f08c379a0000000000000000000000000000000000000000000000000000000008152600401611764906129c6565b60405180910390fd5b6000600b60003373ffffffffffffffffffffffffffffffffffffffff1673ffffffffffffffffffffffffffffffffffffffff16815260200190815260200160002054146117ef576040517f08c379a00000000000000000000000000000000000000000000000000000000081526004016117e690612a32565b60405180910390fd5b600073ffffffffffffffffffffffffffffffffffffffff16600c600084815260200190815260200160002060009054906101000a900473ffffffffffffffffffffffffffffffffffffffff1673ffffffffffffffffffffffffffffffffffffffff1614611891576040517f08c379a000000000000000000000000000000000000000000000000000000000815260040161188890612a9e565b60405180910390fd5b3373ffffffffffffffffffffffffffffffffffffffff167f000000000000000000000000000000000000000000000000000000000000000073ffffffffffffffffffffffffffffffffffffffff16636352211e846040518263ffffffff1660e01b81526004016119019190611fd1565b60206040518083038186803b15801561191957600080fd5b505afa15801561192d573d6000803e3d6000fd5b505050506040513d601f19601f820116820180604052508101906119519190612ad3565b73ffffffffffffffffffffffffffffffffffffffff16146119a7576040517f08c379a000000000000000000000000000000000000000000000000000000000815260040161199e90612b4c565b60405180910390fd5b81600b60003373ffffffffffffffffffffffffffffffffffffffff1673ffffffffffffffffffffffffffffffffffffffff168152602001908152602001600020819055505050565b600033905090565b60008183611a059190612b9b565b905092915050565b60008183611a1b9190612bf1565b905092915050565b60008183611a319190612c25565b905092915050565b60008183611a479190612cae565b905092915050565b60008060009054906101000a900473ffffffffffffffffffffffffffffffffffffffff169050816000806101000a81548173ffffffffffffffffffffffffffffffffffffffff021916908373ffffffffffffffffffffffffffffffffffffffff1602179055508173ffffffffffffffffffffffffffffffffffffffff168173ffffffffffffffffffffffffffffffffffffffff167f8be0079c531659141344cd1fd0a4f28419497f9722a3daafe3b4186f6b6457e060405160405180910390a35050565b60008183611b219190612cdf565b905092915050565b611bac846323b872dd60e01b858585604051602401611b4a93929190612d10565b604051602081830303815290604052907bffffffffffffffffffffffffffffffffffffffffffffffffffffffff19166020820180517bffffffffffffffffffffffffffffffffffffffffffffffffffffffff8381831617835250505050611c38565b50505050565b611c338363a9059cbb60e01b8484604051602401611bd19291906123b4565b604051602081830303815290604052907bffffffffffffffffffffffffffffffffffffffffffffffffffffffff19166020820180517bffffffffffffffffffffffffffffffffffffffffffffffffffffffff8381831617835250505050611c38565b505050565b6000611c9a826040518060400160405280602081526020017f5361666545524332303a206c6f772d6c6576656c2063616c6c206661696c65648152508573ffffffffffffffffffffffffffffffffffffffff16611cff9092919063ffffffff16565b9050600081511115611cfa5780806020019051810190611cba9190612409565b611cf9576040517f08c379a0000000000000000000000000000000000000000000000000000000008152600401611cf090612db9565b60405180910390fd5b5b505050565b6060611d0e8484600085611d17565b90509392505050565b606082471015611d5c576040517f08c379a0000000000000000000000000000000000000000000000000000000008152600401611d5390612e4b565b60405180910390fd5b611d6585611e2b565b611da4576040517f08c379a0000000000000000000000000000000000000000000000000000000008152600401611d9b90612eb7565b60405180910390fd5b6000808673ffffffffffffffffffffffffffffffffffffffff168587604051611dcd9190612f51565b60006040518083038185875af1925050503d8060008114611e0a576040519150601f19603f3d011682016040523d82523d6000602084013e611e0f565b606091505b5091509150611e1f828286611e3e565b92505050949350505050565b600080823b905060008111915050919050565b60608315611e4e57829050611e9e565b600083511115611e615782518084602001fd5b816040517f08c379a0000000000000000000000000000000000000000000000000000000008152600401611e959190612fbd565b60405180910390fd5b9392505050565b600080fd5b600073ffffffffffffffffffffffffffffffffffffffff82169050919050565b6000611ed582611eaa565b9050919050565b611ee581611eca565b8114611ef057600080fd5b50565b600081359050611f0281611edc565b92915050565b600060208284031215611f1e57611f1d611ea5565b5b6000611f2c84828501611ef3565b91505092915050565b6000819050919050565b611f4881611f35565b8114611f5357600080fd5b50565b600081359050611f6581611f3f565b92915050565b600060208284031215611f8157611f80611ea5565b5b6000611f8f84828501611f56565b91505092915050565b611fa181611eca565b82525050565b6000602082019050611fbc6000830184611f98565b92915050565b611fcb81611f35565b82525050565b6000602082019050611fe66000830184611fc2565b92915050565b6000819050919050565b600061201161200c61200784611eaa565b611fec565b611eaa565b9050919050565b600061202382611ff6565b9050919050565b600061203582612018565b9050919050565b6120458161202a565b82525050565b6000602082019050612060600083018461203c565b92915050565b600061207182612018565b9050919050565b61208181612066565b82525050565b600060208201905061209c6000830184612078565b92915050565b60006120ad82612018565b9050919050565b6120bd816120a2565b82525050565b60006020820190506120d860008301846120b4565b92915050565b60006060820190506120f36000830186611fc2565b6121006020830185611fc2565b61210d6040830184611fc2565b949350505050565b60008115159050919050565b61212a81612115565b82525050565b60006020820190506121456000830184612121565b92915050565b600061215682612018565b9050919050565b6121668161214b565b82525050565b6000602082019050612181600083018461215d565b92915050565b600082825260208201905092915050565b7f4f776e61626c653a2063616c6c6572206973206e6f7420746865206f776e6572600082015250565b60006121ce602083612187565b91506121d982612198565b602082019050919050565b600060208201905081810360008301526121fd816121c1565b9050919050565b7f244e49434520616c726561647920736574000000000000000000000000000000600082015250565b600061223a601183612187565b915061224582612204565b602082019050919050565b600060208201905081810360008301526122698161222d565b9050919050565b7f436c61696d20556e617661696c61626c65000000000000000000000000000000600082015250565b60006122a6601183612187565b91506122b182612270565b602082019050919050565b600060208201905081810360008301526122d581612299565b9050919050565b7f546f6b656e204e6f742061646465640000000000000000000000000000000000600082015250565b6000612312600f83612187565b915061231d826122dc565b602082019050919050565b6000602082019050818103600083015261234181612305565b9050919050565b7f416c726561647920636c61696d65640000000000000000000000000000000000600082015250565b600061237e600f83612187565b915061238982612348565b602082019050919050565b600060208201905081810360008301526123ad81612371565b9050919050565b60006040820190506123c96000830185611f98565b6123d66020830184611fc2565b9392505050565b6123e681612115565b81146123f157600080fd5b50565b600081519050612403816123dd565b92915050565b60006020828403121561241f5761241e611ea5565b5b600061242d848285016123f4565b91505092915050565b7f457861637420616d6f756e7473206f6e6c790000000000000000000000000000600082015250565b600061246c601283612187565b915061247782612436565b602082019050919050565b6000602082019050818103600083015261249b8161245f565b9050919050565b7f57686974656c697374206f6e6c79000000000000000000000000000000000000600082015250565b60006124d8600e83612187565b91506124e3826124a2565b602082019050919050565b60006020820190508181036000830152612507816124cb565b9050919050565b7f53616c65456e6465640000000000000000000000000000000000000000000000600082015250565b6000612544600983612187565b915061254f8261250e565b602082019050919050565b6000602082019050818103600083015261257381612537565b9050919050565b7f4d696e696d756d206e6f74206d65740000000000000000000000000000000000600082015250565b60006125b0600f83612187565b91506125bb8261257a565b602082019050919050565b600060208201905081810360008301526125df816125a3565b9050919050565b7f436170206f766572666c6f770000000000000000000000000000000000000000600082015250565b600061261c600c83612187565b9150612627826125e6565b602082019050919050565b6000602082019050818103600083015261264b8161260f565b9050919050565b7f4c696d6974204578636565646564000000000000000000000000000000000000600082015250565b6000612688600e83612187565b915061269382612652565b602082019050919050565b600060208201905081810360008301526126b78161267b565b9050919050565b60006040820190506126d36000830185611fc2565b6126e06020830184611fc2565b9392505050565b7f53616c6520616c72656164792073746172746564000000000000000000000000600082015250565b600061271d601483612187565b9150612728826126e7565b602082019050919050565b6000602082019050818103600083015261274c81612710565b9050919050565b60008151905061276281611f3f565b92915050565b600080600080600060a0868803121561278457612783611ea5565b5b600061279288828901612753565b95505060206127a388828901612753565b94505060406127b488828901612753565b93505060606127c588828901612753565b92505060806127d688828901612753565b9150509295509295909350565b6000602082840312156127f9576127f8611ea5565b5b600061280784828501612753565b91505092915050565b7f53616c652072756e6e696e670000000000000000000000000000000000000000600082015250565b6000612846600c83612187565b915061285182612810565b602082019050919050565b6000602082019050818103600083015261287581612839565b9050919050565b7f4f776e61626c653a206e6577206f776e657220697320746865207a65726f206160008201527f6464726573730000000000000000000000000000000000000000000000000000602082015250565b60006128d8602683612187565b91506128e38261287c565b604082019050919050565b60006020820190508181036000830152612907816128cb565b9050919050565b7f57686974656c697374206e6f7420737461727465640000000000000000000000600082015250565b6000612944601583612187565b915061294f8261290e565b602082019050919050565b6000602082019050818103600083015261297381612937565b9050919050565b7f556e7175616c6966696564000000000000000000000000000000000000000000600082015250565b60006129b0600b83612187565b91506129bb8261297a565b602082019050919050565b600060208201905081810360008301526129df816129a3565b9050919050565b7f416c72656164792077686974656c697374656400000000000000000000000000600082015250565b6000612a1c601383612187565b9150612a27826129e6565b602082019050919050565b60006020820190508181036000830152612a4b81612a0f565b9050919050565b7f546f6b656e20616c726561647920757365640000000000000000000000000000600082015250565b6000612a88601283612187565b9150612a9382612a52565b602082019050919050565b60006020820190508181036000830152612ab781612a7b565b9050919050565b600081519050612acd81611edc565b92915050565b600060208284031215612ae957612ae8611ea5565b5b6000612af784828501612abe565b91505092915050565b7f496c6c6567616c206f776e657200000000000000000000000000000000000000600082015250565b6000612b36600d83612187565b9150612b4182612b00565b602082019050919050565b60006020820190508181036000830152612b6581612b29565b9050919050565b7f4e487b7100000000000000000000000000000000000000000000000000000000600052601160045260246000fd5b6000612ba682611f35565b9150612bb183611f35565b9250827fffffffffffffffffffffffffffffffffffffffffffffffffffffffffffffffff03821115612be657612be5612b6c565b5b828201905092915050565b6000612bfc82611f35565b9150612c0783611f35565b925082821015612c1a57612c19612b6c565b5b828203905092915050565b6000612c3082611f35565b9150612c3b83611f35565b9250817fffffffffffffffffffffffffffffffffffffffffffffffffffffffffffffffff0483118215151615612c7457612c73612b6c565b5b828202905092915050565b7f4e487b7100000000000000000000000000000000000000000000000000000000600052601260045260246000fd5b6000612cb982611f35565b9150612cc483611f35565b925082612cd457612cd3612c7f565b5b828204905092915050565b6000612cea82611f35565b9150612cf583611f35565b925082612d0557612d04612c7f565b5b828206905092915050565b6000606082019050612d256000830186611f98565b612d326020830185611f98565b612d3f6040830184611fc2565b949350505050565b7f5361666545524332303a204552433230206f7065726174696f6e20646964206e60008201527f6f74207375636365656400000000000000000000000000000000000000000000602082015250565b6000612da3602a83612187565b9150612dae82612d47565b604082019050919050565b60006020820190508181036000830152612dd281612d96565b9050919050565b7f416464726573733a20696e73756666696369656e742062616c616e636520666f60008201527f722063616c6c0000000000000000000000000000000000000000000000000000602082015250565b6000612e35602683612187565b9150612e4082612dd9565b604082019050919050565b60006020820190508181036000830152612e6481612e28565b9050919050565b7f416464726573733a2063616c6c20746f206e6f6e2d636f6e7472616374000000600082015250565b6000612ea1601d83612187565b9150612eac82612e6b565b602082019050919050565b60006020820190508181036000830152612ed081612e94565b9050919050565b600081519050919050565b600081905092915050565b60005b83811015612f0b578082015181840152602081019050612ef0565b83811115612f1a576000848401525b50505050565b6000612f2b82612ed7565b612f358185612ee2565b9350612f45818560208601612eed565b80840191505092915050565b6000612f5d8284612f20565b915081905092915050565b600081519050919050565b6000601f19601f8301169050919050565b6000612f8f82612f68565b612f998185612187565b9350612fa9818560208601612eed565b612fb281612f73565b840191505092915050565b60006020820190508181036000830152612fd78184612f84565b90509291505056fea264697066735822122066dd19164186cb052606bae6647e8616013658b4e706ee67bf4195139763434964736f6c63430008090033",
  "immutableReferences": {
    "731": [
      {
        "length": 32,
        "start": 2670
      },
      {
        "length": 32,
        "start": 4690
      }
    ],
    "734": [
      {
        "length": 32,
        "start": 1871
      },
      {
        "length": 32,
        "start": 4867
      },
      {
        "length": 32,
        "start": 6314
      }
    ],
    "740": [
      {
        "length": 32,
        "start": 1835
      },
      {
        "length": 32,
        "start": 3482
      },
      {
        "length": 32,
        "start": 5279
      },
      {
        "length": 32,
        "start": 5489
      }
    ]
  },
  "source": "// SPDX-License-Identifier: MIT\npragma solidity 0.8.9;\n\nimport \"@openzeppelin/contracts/access/Ownable.sol\";\nimport \"@openzeppelin/contracts/utils/math/SafeMath.sol\";\nimport \"@openzeppelin/contracts/token/ERC721/ERC721.sol\";\nimport \"@openzeppelin/contracts/token/ERC20/ERC20.sol\";\nimport \"@openzeppelin/contracts/token/ERC20/utils/SafeERC20.sol\";\nimport \"./NICEToken.sol\";\n// TEST\nimport \"./TestStaking2.sol\";\n\ncontract Presale is Ownable {\n\n  using SafeMath for uint;\n  using SafeERC20 for ERC20;\n\n  uint public constant DIVISOR = 10000;\n\n  struct Buy { \n    uint amountBought;\n    uint amountClaimed;\n    uint amountOwed;\n  }\n\n  uint public saleStart;\n  uint public whitelistStart;\n  uint public saleEnd;\n  uint public constant vestingDuration = 2 weeks;\n  StakingTest public immutable staking;\n  ERC721 public immutable crushGod;\n  NICEToken public niceToken;\n  ERC20 public immutable busd;\n  uint public constant saleDuration = 12 hours; // Duration in Blocks ( 3 blocks per second ) 12 hours\n  uint public totalSale = 26595745 ether;\n  uint public constant vesting = 2500;\n  uint public priceDec = 10000;\n  uint public pricePerToken = 47;\n  uint public maxRaise =  125000 ether;\n  uint public totalRaised;\n\n  address public devAddress;\n\n  mapping(address => uint) public whitelist;\n  mapping(uint => address) public usedTokens;\n  mapping(address => Buy) public userBought;\n\n  // EVENTS\n  event WhitelistStarted(bool status);\n  event SaleStarts(uint startBlock);\n  event NiceBought(address indexed buyer, uint busd, uint nice);\n  event NiceClaimed( address indexed buyer, uint amount);\n  event LogEvent(uint data1, string data2);\n\n  constructor( address crushGodNft, address stakingV2, address _busd ){\n    crushGod = ERC721(crushGodNft);\n    staking = StakingTest(stakingV2);\n    busd = ERC20(_busd);\n    devAddress = msg.sender;\n  }\n  /// @notice start the sale\n  /// @dev this allows for 30 min of whitelisting time before sale start\n  /// @dev sale End is set for 12h and 30 min after whitelist starts\n  function startSale() external onlyOwner {\n    require(saleStart == 0 && saleEnd == 0 && whitelistStart == 0, \"Sale already started\");\n    whitelistStart = block.timestamp;\n    saleStart = block.timestamp.add(30 minutes);\n    saleEnd = block.timestamp.add(saleDuration).add(30 minutes);\n    emit SaleStarts(saleStart);\n    emit WhitelistStarted(true);\n  }\n  /// @notice qualify only checks quantity\n  /// @dev qualify is an overlook of the amount of CrushGod NFTs held and tokens staked\n  function qualify() public view returns(bool _isQualified){\n      (uint staked,,,,) = staking.stakings(msg.sender);\n      uint nfts = crushGod.balanceOf(msg.sender);\n      _isQualified = nfts > 0 && staked >= 10000 ether;\n  }\n  /// @notice user will need to self whitelist prior to the sale\n  /// @param tokenId the NFT Id to register with\n  /// @dev once whitelisted, the token locked to that wallet.\n  function whitelistSelf(uint tokenId) public {\n    require( whitelistStart > 0, \"Whitelist not started\");\n    bool isQualified = qualify();\n    require(isQualified, \"Unqualified\");\n    require(whitelist[msg.sender] == 0, \"Already whitelisted\");\n    require(usedTokens[tokenId] == address(0), \"Token already used\");\n    require(crushGod.ownerOf(tokenId) == msg.sender, \"Illegal owner\");\n    whitelist[msg.sender] = tokenId;\n  }\n\n  function setNiceToken(address _tokenAddress) onlyOwner external {\n    require(address(niceToken) == address(0), \"$NICE already set\");\n    niceToken = NICEToken(_tokenAddress);\n  }\n  /// @notice Reserve NICE allocation with BUSD\n  /// @param _amount Amount of BUSD to lock NICE amount\n  /// @dev minimum of $100 BUSD, if limit is exceeded we will allocate just a portion of that amount.\n  function buyNice(uint _amount) external{\n    require(_amount.mod(1 ether) == 0, \"Exact amounts only\");\n    require(whitelist[msg.sender]  > 0, \"Whitelist only\");\n    require(block.timestamp < saleEnd, \"SaleEnded\");\n    require(_amount >= 100 ether, \"Minimum not met\");\n    require(_amount <= 5000 ether, \"Cap overflow\");\n    require(totalRaised < maxRaise, \"Limit Exceeded\");\n    uint amount = _amount;\n    // When exceeding, send the rest to the user\n    if(totalRaised.add(amount) > maxRaise){\n      amount = maxRaise.sub(totalRaised);\n    }\n\n    busd.safeTransferFrom(msg.sender, address(this), amount);\n    Buy storage userInfo = userBought[msg.sender];\n    userInfo.amountOwed = userInfo.amountOwed.add( amount.mul(priceDec).div(pricePerToken) );\n    userInfo.amountBought = userInfo.amountBought.add( amount );\n    totalRaised = totalRaised.add(amount);\n\n    emit NiceBought(msg.sender, amount, amount.mul(priceDec).div(pricePerToken));\n  }\n  /// \n  function claimRaised() external onlyOwner{\n    require(saleEnd > 0 && saleEnd < block.timestamp, \"Sale running\");\n    uint currentBalance = busd.balanceOf(address(this));\n    busd.safeTransfer(devAddress, currentBalance);\n  }\n  /// @notice function that gets available tokens to the user.\n  /// @dev transfers NICE to the user directly by minting straight to their wallets\n  function claimTokens() external{\n    Buy storage userInfo = userBought[msg.sender];\n    require(saleEnd > 0 && block.timestamp > saleEnd.add(vestingDuration), \"Claim Unavailable\");\n    require( address(niceToken) != address(0), \"Token Not added\");\n    uint claimable = availableAmount();\n    require( userInfo.amountClaimed < claimable, \"Already claimed\");\n    // Make sure we're not claiming more than available\n    claimable = claimable.sub(userInfo.amountClaimed);\n    userInfo.amountClaimed = userInfo.amountClaimed.add(claimable);\n    claimable = userInfo.amountOwed.mul(claimable).div(DIVISOR);\n    niceToken.mint(msg.sender,claimable);\n    emit NiceClaimed(msg.sender, claimable);\n  }\n\n  /// @notice get claimable percentage after sale end\n  /// @return _avail percentage available to claim\n  /// @dev this function checks if time has passed to set the max amount claimable\n  function availableAmount() public view returns(uint _avail) {\n    if(saleEnd > 0 && block.timestamp > saleEnd){\n      if(block.timestamp > saleEnd.add(vestingDuration))\n        _avail = _avail.add(vesting);\n      if(block.timestamp > saleEnd.add(vestingDuration.mul(2)))\n        _avail = _avail.add(vesting);\n      if(block.timestamp > saleEnd.add(vestingDuration.mul(3)))\n        _avail = _avail.add(vesting);\n      if(block.timestamp > saleEnd.add(vestingDuration.mul(4)))\n        _avail = _avail.add(vesting);\n    }\n  }\n}",
  "sourcePath": "/Users/ant/crypto/crush_contracts/contracts/Presale.sol",
  "compiler": {
    "name": "solc",
    "version": "0.8.9+commit.e5eed63a.Emscripten.clang"
  },
  "schemaVersion": "3.3.4",
  "updatedAt": "2022-02-10T19:57:42.458Z",
  "networkType": "ethereum",
  "devdoc": {
    "kind": "dev",
    "methods": {
      "availableAmount()": {
        "details": "this function checks if time has passed to set the max amount claimable",
        "returns": {
          "_avail": "percentage available to claim"
        }
      },
      "buyNice(uint256)": {
        "details": "minimum of $100 BUSD, if limit is exceeded we will allocate just a portion of that amount.",
        "params": {
          "_amount": "Amount of BUSD to lock NICE amount"
        }
      },
      "claimTokens()": {
        "details": "transfers NICE to the user directly by minting straight to their wallets"
      },
      "owner()": {
        "details": "Returns the address of the current owner."
      },
      "qualify()": {
        "details": "qualify is an overlook of the amount of CrushGod NFTs held and tokens staked"
      },
      "renounceOwnership()": {
        "details": "Leaves the contract without owner. It will not be possible to call `onlyOwner` functions anymore. Can only be called by the current owner. NOTE: Renouncing ownership will leave the contract without an owner, thereby removing any functionality that is only available to the owner."
      },
      "startSale()": {
        "details": "this allows for 30 min of whitelisting time before sale startsale End is set for 12h and 30 min after whitelist starts"
      },
      "transferOwnership(address)": {
        "details": "Transfers ownership of the contract to a new account (`newOwner`). Can only be called by the current owner."
      },
      "whitelistSelf(uint256)": {
        "details": "once whitelisted, the token locked to that wallet.",
        "params": {
          "tokenId": "the NFT Id to register with"
        }
      }
    },
    "version": 1
  },
  "userdoc": {
    "kind": "user",
    "methods": {
      "availableAmount()": {
        "notice": "get claimable percentage after sale end"
      },
      "buyNice(uint256)": {
        "notice": "Reserve NICE allocation with BUSD"
      },
      "claimTokens()": {
        "notice": "function that gets available tokens to the user."
      },
      "qualify()": {
        "notice": "qualify only checks quantity"
      },
      "startSale()": {
        "notice": "start the sale"
      },
      "whitelistSelf(uint256)": {
        "notice": "user will need to self whitelist prior to the sale"
      }
    },
    "version": 1
  }
}